{
  "_format": "hh-sol-artifact-1",
  "contractName": "Login",
  "sourceName": "contracts/LoginContract.sol",
  "abi": [
    {
      "inputs": [],
      "stateMutability": "nonpayable",
      "type": "constructor"
    },
    {
      "anonymous": false,
      "inputs": [
        {
          "indexed": true,
          "internalType": "address",
          "name": "userAddress",
          "type": "address"
        }
      ],
      "name": "UserRegistered",
      "type": "event"
    },
    {
      "inputs": [
        {
          "internalType": "address",
          "name": "_walletAddress",
          "type": "address"
        }
      ],
      "name": "connectWallet",
      "outputs": [],
      "stateMutability": "nonpayable",
      "type": "function"
    },
    {
      "inputs": [],
      "name": "connectedWallet",
      "outputs": [
        {
          "internalType": "address",
          "name": "",
          "type": "address"
        }
      ],
      "stateMutability": "view",
      "type": "function"
    },
    {
      "inputs": [
        {
          "internalType": "address",
          "name": "",
          "type": "address"
        }
      ],
      "name": "isRegistered",
      "outputs": [
        {
          "internalType": "bool",
          "name": "",
          "type": "bool"
        }
      ],
      "stateMutability": "view",
      "type": "function"
    },
    {
      "inputs": [],
      "name": "isUserRegistered",
      "outputs": [
        {
          "internalType": "bool",
          "name": "",
          "type": "bool"
        }
      ],
      "stateMutability": "view",
      "type": "function"
    },
    {
      "inputs": [],
      "name": "register",
      "outputs": [],
      "stateMutability": "nonpayable",
      "type": "function"
    }
  ],
  "bytecode": "0x6080604052348015600f57600080fd5b506000600160006101000a81548173ffffffffffffffffffffffffffffffffffffffff021916908373ffffffffffffffffffffffffffffffffffffffff16021790555061051e806100616000396000f3fe608060405234801561001057600080fd5b50600436106100575760003560e01c80631aa3a0081461005c5780631fd8293f14610066578063873138f314610084578063c3c5a547146100a2578063d7d0df2a146100d2575b600080fd5b6100646100ee565b005b61006e61027c565b60405161007b91906103bc565b60405180910390f35b61008c6102a2565b60405161009991906103f2565b60405180910390f35b6100bc60048036038101906100b7919061043e565b610317565b6040516100c991906103f2565b60405180910390f35b6100ec60048036038101906100e7919061043e565b610337565b005b600080600160009054906101000a900473ffffffffffffffffffffffffffffffffffffffff1673ffffffffffffffffffffffffffffffffffffffff1673ffffffffffffffffffffffffffffffffffffffff16815260200190815260200160002060009054906101000a900460ff161561019c576040517f08c379a0000000000000000000000000000000000000000000000000000000008152600401610193906104c8565b60405180910390fd5b6001600080600160009054906101000a900473ffffffffffffffffffffffffffffffffffffffff1673ffffffffffffffffffffffffffffffffffffffff1673ffffffffffffffffffffffffffffffffffffffff16815260200190815260200160002060006101000a81548160ff021916908315150217905550600160009054906101000a900473ffffffffffffffffffffffffffffffffffffffff1673ffffffffffffffffffffffffffffffffffffffff167f54db7a5cb4735e1aac1f53db512d3390390bb6637bd30ad4bf9fc98667d9b9b960405160405180910390a2565b600160009054906101000a900473ffffffffffffffffffffffffffffffffffffffff1681565b6000806000600160009054906101000a900473ffffffffffffffffffffffffffffffffffffffff1673ffffffffffffffffffffffffffffffffffffffff1673ffffffffffffffffffffffffffffffffffffffff16815260200190815260200160002060009054906101000a900460ff16905090565b60006020528060005260406000206000915054906101000a900460ff1681565b80600160006101000a81548173ffffffffffffffffffffffffffffffffffffffff021916908373ffffffffffffffffffffffffffffffffffffffff16021790555050565b600073ffffffffffffffffffffffffffffffffffffffff82169050919050565b60006103a68261037b565b9050919050565b6103b68161039b565b82525050565b60006020820190506103d160008301846103ad565b92915050565b60008115159050919050565b6103ec816103d7565b82525050565b600060208201905061040760008301846103e3565b92915050565b600080fd5b61041b8161039b565b811461042657600080fd5b50565b60008135905061043881610412565b92915050565b6000602082840312156104545761045361040d565b5b600061046284828501610429565b91505092915050565b600082825260208201905092915050565b7f557365722020616c726561647920726567697374657265640000000000000000600082015250565b60006104b260188361046b565b91506104bd8261047c565b602082019050919050565b600060208201905081810360008301526104e1816104a5565b905091905056fea2646970667358221220b6a4a8cc6f2b171e859d8e2d7388bbfd440679452cddaa2324b784d03d1557b864736f6c634300081b0033",
  "linkReferences": {},
  "deployedLinkReferences": {}
}