{
	"contracts/MultiOwnable.sol": {
		"MultiOwnable": {
			"abi": [
				{
					"inputs": [
						{
							"internalType": "bytes",
							"name": "owner",
							"type": "bytes"
						}
					],
					"name": "AlreadyOwner",
					"type": "error"
				},
				{
					"inputs": [
						{
							"internalType": "bytes",
							"name": "owner",
							"type": "bytes"
						}
					],
					"name": "InvalidEthereumAddressOwner",
					"type": "error"
				},
				{
					"inputs": [
						{
							"internalType": "bytes",
							"name": "owner",
							"type": "bytes"
						}
					],
					"name": "InvalidOwnerBytesLength",
					"type": "error"
				},
				{
					"inputs": [],
					"name": "LastOwner",
					"type": "error"
				},
				{
					"inputs": [
						{
							"internalType": "uint256",
							"name": "index",
							"type": "uint256"
						}
					],
					"name": "NoOwnerAtIndex",
					"type": "error"
				},
				{
					"inputs": [
						{
							"internalType": "uint256",
							"name": "ownersRemaining",
							"type": "uint256"
						}
					],
					"name": "NotLastOwner",
					"type": "error"
				},
				{
					"inputs": [],
					"name": "Unauthorized",
					"type": "error"
				},
				{
					"inputs": [
						{
							"internalType": "uint256",
							"name": "index",
							"type": "uint256"
						},
						{
							"internalType": "bytes",
							"name": "expectedOwner",
							"type": "bytes"
						},
						{
							"internalType": "bytes",
							"name": "actualOwner",
							"type": "bytes"
						}
					],
					"name": "WrongOwnerAtIndex",
					"type": "error"
				},
				{
					"anonymous": false,
					"inputs": [
						{
							"indexed": true,
							"internalType": "uint256",
							"name": "index",
							"type": "uint256"
						},
						{
							"indexed": false,
							"internalType": "bytes",
							"name": "owner",
							"type": "bytes"
						}
					],
					"name": "AddOwner",
					"type": "event"
				},
				{
					"anonymous": false,
					"inputs": [
						{
							"indexed": true,
							"internalType": "uint256",
							"name": "index",
							"type": "uint256"
						},
						{
							"indexed": false,
							"internalType": "bytes",
							"name": "owner",
							"type": "bytes"
						}
					],
					"name": "RemoveOwner",
					"type": "event"
				},
				{
					"inputs": [
						{
							"internalType": "address",
							"name": "owner",
							"type": "address"
						}
					],
					"name": "addOwnerAddress",
					"outputs": [],
					"stateMutability": "nonpayable",
					"type": "function"
				},
				{
					"inputs": [
						{
							"internalType": "bytes32",
							"name": "x",
							"type": "bytes32"
						},
						{
							"internalType": "bytes32",
							"name": "y",
							"type": "bytes32"
						}
					],
					"name": "addOwnerPublicKey",
					"outputs": [],
					"stateMutability": "nonpayable",
					"type": "function"
				},
				{
					"inputs": [
						{
							"internalType": "address",
							"name": "account",
							"type": "address"
						}
					],
					"name": "isOwnerAddress",
					"outputs": [
						{
							"internalType": "bool",
							"name": "",
							"type": "bool"
						}
					],
					"stateMutability": "view",
					"type": "function"
				},
				{
					"inputs": [
						{
							"internalType": "bytes",
							"name": "account",
							"type": "bytes"
						}
					],
					"name": "isOwnerBytes",
					"outputs": [
						{
							"internalType": "bool",
							"name": "",
							"type": "bool"
						}
					],
					"stateMutability": "view",
					"type": "function"
				},
				{
					"inputs": [
						{
							"internalType": "bytes32",
							"name": "x",
							"type": "bytes32"
						},
						{
							"internalType": "bytes32",
							"name": "y",
							"type": "bytes32"
						}
					],
					"name": "isOwnerPublicKey",
					"outputs": [
						{
							"internalType": "bool",
							"name": "",
							"type": "bool"
						}
					],
					"stateMutability": "view",
					"type": "function"
				},
				{
					"inputs": [],
					"name": "nextOwnerIndex",
					"outputs": [
						{
							"internalType": "uint256",
							"name": "",
							"type": "uint256"
						}
					],
					"stateMutability": "view",
					"type": "function"
				},
				{
					"inputs": [
						{
							"internalType": "uint256",
							"name": "index",
							"type": "uint256"
						}
					],
					"name": "ownerAtIndex",
					"outputs": [
						{
							"internalType": "bytes",
							"name": "",
							"type": "bytes"
						}
					],
					"stateMutability": "view",
					"type": "function"
				},
				{
					"inputs": [],
					"name": "ownerCount",
					"outputs": [
						{
							"internalType": "uint256",
							"name": "",
							"type": "uint256"
						}
					],
					"stateMutability": "view",
					"type": "function"
				},
				{
					"inputs": [
						{
							"internalType": "uint256",
							"name": "index",
							"type": "uint256"
						},
						{
							"internalType": "bytes",
							"name": "owner",
							"type": "bytes"
						}
					],
					"name": "removeLastOwner",
					"outputs": [],
					"stateMutability": "nonpayable",
					"type": "function"
				},
				{
					"inputs": [
						{
							"internalType": "uint256",
							"name": "index",
							"type": "uint256"
						},
						{
							"internalType": "bytes",
							"name": "owner",
							"type": "bytes"
						}
					],
					"name": "removeOwnerAtIndex",
					"outputs": [],
					"stateMutability": "nonpayable",
					"type": "function"
				},
				{
					"inputs": [],
					"name": "removedOwnersCount",
					"outputs": [
						{
							"internalType": "uint256",
							"name": "",
							"type": "uint256"
						}
					],
					"stateMutability": "view",
					"type": "function"
				}
			],
			"devdoc": {
				"author": "Coinbase (https://github.com/coinbase/smart-wallet)",
				"errors": {
					"AlreadyOwner(bytes)": [
						{
							"params": {
								"owner": "The owner bytes."
							}
						}
					],
					"InvalidEthereumAddressOwner(bytes)": [
						{
							"params": {
								"owner": "The invalid owner."
							}
						}
					],
					"InvalidOwnerBytesLength(bytes)": [
						{
							"params": {
								"owner": "The invalid owner."
							}
						}
					],
					"NoOwnerAtIndex(uint256)": [
						{
							"params": {
								"index": "The targeted index for removal."
							}
						}
					],
					"NotLastOwner(uint256)": [
						{
							"params": {
								"ownersRemaining": "The number of current owners."
							}
						}
					],
					"WrongOwnerAtIndex(uint256,bytes,bytes)": [
						{
							"params": {
								"actualOwner": "The actual owner at `index`.",
								"expectedOwner": "The owner passed in the remove call.",
								"index": "The index of the owner to be removed."
							}
						}
					]
				},
				"events": {
					"AddOwner(uint256,bytes)": {
						"params": {
							"index": "The owner index of the owner added.",
							"owner": "The owner added."
						}
					},
					"RemoveOwner(uint256,bytes)": {
						"params": {
							"index": "The owner index of the owner removed.",
							"owner": "The owner removed."
						}
					}
				},
				"kind": "dev",
				"methods": {
					"addOwnerAddress(address)": {
						"params": {
							"owner": "The owner address."
						}
					},
					"addOwnerPublicKey(bytes32,bytes32)": {
						"params": {
							"x": "The owner public key x coordinate.",
							"y": "The owner public key y coordinate."
						}
					},
					"isOwnerAddress(address)": {
						"params": {
							"account": "The account address to check."
						},
						"returns": {
							"_0": "`true` if the account is an owner else `false`."
						}
					},
					"isOwnerBytes(bytes)": {
						"params": {
							"account": "The account, should be ABI encoded address or public key."
						},
						"returns": {
							"_0": "`true` if the account is an owner else `false`."
						}
					},
					"isOwnerPublicKey(bytes32,bytes32)": {
						"params": {
							"x": "The public key x coordinate.",
							"y": "The public key y coordinate."
						},
						"returns": {
							"_0": "`true` if the account is an owner else `false`."
						}
					},
					"nextOwnerIndex()": {
						"returns": {
							"_0": "The next index that will be used to add a new owner."
						}
					},
					"ownerAtIndex(uint256)": {
						"params": {
							"index": "The index to lookup."
						},
						"returns": {
							"_0": "The owner bytes (empty if no owner is registered at this `index`)."
						}
					},
					"ownerCount()": {
						"returns": {
							"_0": "The current owner count"
						}
					},
					"removeLastOwner(uint256,bytes)": {
						"details": "Reverts if the owner is not registered at `index`.Reverts if there is currently more than one owner.Reverts if `owner` does not match bytes found at `index`.",
						"params": {
							"index": "The index of the owner to be removed.",
							"owner": "The ABI encoded bytes of the owner to be removed."
						}
					},
					"removeOwnerAtIndex(uint256,bytes)": {
						"details": "Reverts if the owner is not registered at `index`.Reverts if there is currently only one owner.Reverts if `owner` does not match bytes found at `index`.",
						"params": {
							"index": "The index of the owner to be removed.",
							"owner": "The ABI encoded bytes of the owner to be removed."
						}
					},
					"removedOwnersCount()": {
						"details": "Used with `this.nextOwnerIndex` to avoid removing all owners",
						"returns": {
							"_0": "The number of owners that have been removed."
						}
					}
				},
				"stateVariables": {
					"MUTLI_OWNABLE_STORAGE_LOCATION": {
						"details": "Slot for the `MultiOwnableStorage` struct in storage.      Computed from      keccak256(abi.encode(uint256(keccak256(\"coinbase.storage.MultiOwnable\")) - 1)) & ~bytes32(uint256(0xff))      Follows ERC-7201 (see https://eips.ethereum.org/EIPS/eip-7201)."
					}
				},
				"title": "Multi Ownable",
				"version": 1
			},
			"evm": {
				"assembly": "    /* \"contracts/MultiOwnable.sol\":1342:11596  contract MultiOwnable {... */\n  mstore(0x40, 0x80)\n  callvalue\n  dup1\n  iszero\n  tag_1\n  jumpi\n  0x00\n  dup1\n  revert\ntag_1:\n  pop\n  dataSize(sub_0)\n  dup1\n  dataOffset(sub_0)\n  0x00\n  codecopy\n  0x00\n  return\nstop\n\nsub_0: assembly {\n        /* \"contracts/MultiOwnable.sol\":1342:11596  contract MultiOwnable {... */\n      mstore(0x40, 0x80)\n      callvalue\n      dup1\n      iszero\n      tag_1\n      jumpi\n      0x00\n      dup1\n      revert\n    tag_1:\n      pop\n      jumpi(tag_2, lt(calldatasize, 0x04))\n      shr(0xe0, calldataload(0x00))\n      dup1\n      0x36d9cf9b\n      gt\n      tag_14\n      jumpi\n      dup1\n      0x36d9cf9b\n      eq\n      tag_8\n      jumpi\n      dup1\n      0x89625b57\n      eq\n      tag_9\n      jumpi\n      dup1\n      0x8ea69029\n      eq\n      tag_10\n      jumpi\n      dup1\n      0xa2e1a8d8\n      eq\n      tag_11\n      jumpi\n      dup1\n      0xb8197367\n      eq\n      tag_12\n      jumpi\n      dup1\n      0xd948fd2e\n      eq\n      tag_13\n      jumpi\n      jump(tag_2)\n    tag_14:\n      dup1\n      0x066a1eb7\n      eq\n      tag_3\n      jumpi\n      dup1\n      0x0db02622\n      eq\n      tag_4\n      jumpi\n      dup1\n      0x0f0f3f24\n      eq\n      tag_5\n      jumpi\n      dup1\n      0x1ca5393f\n      eq\n      tag_6\n      jumpi\n      dup1\n      0x29565e3b\n      eq\n      tag_7\n      jumpi\n    tag_2:\n      0x00\n      dup1\n      revert\n        /* \"contracts/MultiOwnable.sol\":6557:6715  function isOwnerPublicKey(bytes32 x, bytes32 y) public view virtual returns (bool) {... */\n    tag_3:\n      tag_15\n      0x04\n      dup1\n      calldatasize\n      sub\n      dup2\n      add\n      swap1\n      tag_16\n      swap2\n      swap1\n      tag_17\n      jump\t// in\n    tag_16:\n      tag_18\n      jump\t// in\n    tag_15:\n      mload(0x40)\n      tag_19\n      swap2\n      swap1\n      tag_20\n      jump\t// in\n    tag_19:\n      mload(0x40)\n      dup1\n      swap2\n      sub\n      swap1\n      return\n        /* \"contracts/MultiOwnable.sol\":7856:8046  function ownerCount() public view virtual returns (uint256) {... */\n    tag_4:\n      tag_21\n      tag_22\n      jump\t// in\n    tag_21:\n      mload(0x40)\n      tag_23\n      swap2\n      swap1\n      tag_24\n      jump\t// in\n    tag_23:\n      mload(0x40)\n      dup1\n      swap2\n      sub\n      swap1\n      return\n        /* \"contracts/MultiOwnable.sol\":4089:4252  function addOwnerAddress(address owner) external virtual onlyOwner {... */\n    tag_5:\n      tag_25\n      0x04\n      dup1\n      calldatasize\n      sub\n      dup2\n      add\n      swap1\n      tag_26\n      swap2\n      swap1\n      tag_27\n      jump\t// in\n    tag_26:\n      tag_28\n      jump\t// in\n    tag_25:\n      stop\n        /* \"contracts/MultiOwnable.sol\":6958:7103  function isOwnerBytes(bytes memory account) public view virtual returns (bool) {... */\n    tag_6:\n      tag_29\n      0x04\n      dup1\n      calldatasize\n      sub\n      dup2\n      add\n      swap1\n      tag_30\n      swap2\n      swap1\n      tag_31\n      jump\t// in\n    tag_30:\n      tag_32\n      jump\t// in\n    tag_29:\n      mload(0x40)\n      tag_33\n      swap2\n      swap1\n      tag_20\n      jump\t// in\n    tag_33:\n      mload(0x40)\n      dup1\n      swap2\n      sub\n      swap1\n      return\n        /* \"contracts/MultiOwnable.sol\":4415:4586  function addOwnerPublicKey(bytes32 x, bytes32 y) external virtual onlyOwner {... */\n    tag_7:\n      tag_34\n      0x04\n      dup1\n      calldatasize\n      sub\n      dup2\n      add\n      swap1\n      tag_35\n      swap2\n      swap1\n      tag_17\n      jump\t// in\n    tag_35:\n      tag_36\n      jump\t// in\n    tag_34:\n      stop\n        /* \"contracts/MultiOwnable.sol\":8255:8391  function removedOwnersCount() public view virtual returns (uint256) {... */\n    tag_8:\n      tag_37\n      tag_38\n      jump\t// in\n    tag_37:\n      mload(0x40)\n      tag_39\n      swap2\n      swap1\n      tag_24\n      jump\t// in\n    tag_39:\n      mload(0x40)\n      dup1\n      swap2\n      sub\n      swap1\n      return\n        /* \"contracts/MultiOwnable.sol\":4984:5202  function removeOwnerAtIndex(uint256 index, bytes calldata owner) external virtual onlyOwner {... */\n    tag_9:\n      tag_40\n      0x04\n      dup1\n      calldatasize\n      sub\n      dup2\n      add\n      swap1\n      tag_41\n      swap2\n      swap1\n      tag_42\n      jump\t// in\n    tag_41:\n      tag_43\n      jump\t// in\n    tag_40:\n      stop\n        /* \"contracts/MultiOwnable.sol\":7312:7461  function ownerAtIndex(uint256 index) public view virtual returns (bytes memory) {... */\n    tag_10:\n      tag_44\n      0x04\n      dup1\n      calldatasize\n      sub\n      dup2\n      add\n      swap1\n      tag_45\n      swap2\n      swap1\n      tag_46\n      jump\t// in\n    tag_45:\n      tag_47\n      jump\t// in\n    tag_44:\n      mload(0x40)\n      tag_48\n      swap2\n      swap1\n      tag_49\n      jump\t// in\n    tag_48:\n      mload(0x40)\n      dup1\n      swap2\n      sub\n      swap1\n      return\n        /* \"contracts/MultiOwnable.sol\":6145:6299  function isOwnerAddress(address account) public view virtual returns (bool) {... */\n    tag_11:\n      tag_50\n      0x04\n      dup1\n      calldatasize\n      sub\n      dup2\n      add\n      swap1\n      tag_51\n      swap2\n      swap1\n      tag_27\n      jump\t// in\n    tag_51:\n      tag_52\n      jump\t// in\n    tag_50:\n      mload(0x40)\n      tag_53\n      swap2\n      swap1\n      tag_20\n      jump\t// in\n    tag_53:\n      mload(0x40)\n      dup1\n      swap2\n      sub\n      swap1\n      return\n        /* \"contracts/MultiOwnable.sol\":5645:5928  function removeLastOwner(uint256 index, bytes calldata owner) external virtual onlyOwner {... */\n    tag_12:\n      tag_54\n      0x04\n      dup1\n      calldatasize\n      sub\n      dup2\n      add\n      swap1\n      tag_55\n      swap2\n      swap1\n      tag_42\n      jump\t// in\n    tag_55:\n      tag_56\n      jump\t// in\n    tag_54:\n      stop\n        /* \"contracts/MultiOwnable.sol\":7621:7749  function nextOwnerIndex() public view virtual returns (uint256) {... */\n    tag_13:\n      tag_57\n      tag_58\n      jump\t// in\n    tag_57:\n      mload(0x40)\n      tag_59\n      swap2\n      swap1\n      tag_24\n      jump\t// in\n    tag_59:\n      mload(0x40)\n      dup1\n      swap2\n      sub\n      swap1\n      return\n        /* \"contracts/MultiOwnable.sol\":6557:6715  function isOwnerPublicKey(bytes32 x, bytes32 y) public view virtual returns (bool) {... */\n    tag_18:\n        /* \"contracts/MultiOwnable.sol\":6634:6638  bool */\n      0x00\n        /* \"contracts/MultiOwnable.sol\":6657:6682  _getMultiOwnableStorage() */\n      tag_61\n        /* \"contracts/MultiOwnable.sol\":6657:6680  _getMultiOwnableStorage */\n      tag_62\n        /* \"contracts/MultiOwnable.sol\":6657:6682  _getMultiOwnableStorage() */\n      jump\t// in\n    tag_61:\n        /* \"contracts/MultiOwnable.sol\":6657:6690  _getMultiOwnableStorage().isOwner */\n      0x03\n      add\n        /* \"contracts/MultiOwnable.sol\":6702:6703  x */\n      dup4\n        /* \"contracts/MultiOwnable.sol\":6705:6706  y */\n      dup4\n        /* \"contracts/MultiOwnable.sol\":6691:6707  abi.encode(x, y) */\n      add(0x20, mload(0x40))\n      tag_63\n      swap3\n      swap2\n      swap1\n      tag_64\n      jump\t// in\n    tag_63:\n      mload(0x40)\n      0x20\n      dup2\n      dup4\n      sub\n      sub\n      dup2\n      mstore\n      swap1\n      0x40\n      mstore\n        /* \"contracts/MultiOwnable.sol\":6657:6708  _getMultiOwnableStorage().isOwner[abi.encode(x, y)] */\n      mload(0x40)\n      tag_65\n      swap2\n      swap1\n      tag_66\n      jump\t// in\n    tag_65:\n      swap1\n      dup2\n      mstore\n      0x20\n      add\n      mload(0x40)\n      dup1\n      swap2\n      sub\n      swap1\n      keccak256\n      0x00\n      swap1\n      sload\n      swap1\n      0x0100\n      exp\n      swap1\n      div\n      0xff\n      and\n        /* \"contracts/MultiOwnable.sol\":6650:6708  return _getMultiOwnableStorage().isOwner[abi.encode(x, y)] */\n      swap1\n      pop\n        /* \"contracts/MultiOwnable.sol\":6557:6715  function isOwnerPublicKey(bytes32 x, bytes32 y) public view virtual returns (bool) {... */\n      swap3\n      swap2\n      pop\n      pop\n      jump\t// out\n        /* \"contracts/MultiOwnable.sol\":7856:8046  function ownerCount() public view virtual returns (uint256) {... */\n    tag_22:\n        /* \"contracts/MultiOwnable.sol\":7907:7914  uint256 */\n      0x00\n        /* \"contracts/MultiOwnable.sol\":7926:7955  MultiOwnableStorage storage $ */\n      dup1\n        /* \"contracts/MultiOwnable.sol\":7958:7983  _getMultiOwnableStorage() */\n      tag_68\n        /* \"contracts/MultiOwnable.sol\":7958:7981  _getMultiOwnableStorage */\n      tag_62\n        /* \"contracts/MultiOwnable.sol\":7958:7983  _getMultiOwnableStorage() */\n      jump\t// in\n    tag_68:\n        /* \"contracts/MultiOwnable.sol\":7926:7983  MultiOwnableStorage storage $ = _getMultiOwnableStorage() */\n      swap1\n      pop\n        /* \"contracts/MultiOwnable.sol\":8019:8020  $ */\n      dup1\n        /* \"contracts/MultiOwnable.sol\":8019:8039  $.removedOwnersCount */\n      0x01\n      add\n      sload\n        /* \"contracts/MultiOwnable.sol\":8000:8001  $ */\n      dup2\n        /* \"contracts/MultiOwnable.sol\":8000:8016  $.nextOwnerIndex */\n      0x00\n      add\n      sload\n        /* \"contracts/MultiOwnable.sol\":8000:8039  $.nextOwnerIndex - $.removedOwnersCount */\n      tag_69\n      swap2\n      swap1\n      tag_70\n      jump\t// in\n    tag_69:\n        /* \"contracts/MultiOwnable.sol\":7993:8039  return $.nextOwnerIndex - $.removedOwnersCount */\n      swap2\n      pop\n      pop\n        /* \"contracts/MultiOwnable.sol\":7856:8046  function ownerCount() public view virtual returns (uint256) {... */\n      swap1\n      jump\t// out\n        /* \"contracts/MultiOwnable.sol\":4089:4252  function addOwnerAddress(address owner) external virtual onlyOwner {... */\n    tag_28:\n        /* \"contracts/MultiOwnable.sol\":3953:3966  _checkOwner() */\n      tag_72\n        /* \"contracts/MultiOwnable.sol\":3953:3964  _checkOwner */\n      tag_73\n        /* \"contracts/MultiOwnable.sol\":3953:3966  _checkOwner() */\n      jump\t// in\n    tag_72:\n        /* \"contracts/MultiOwnable.sol\":4166:4245  _addOwnerAtIndex(abi.encode(owner), _getMultiOwnableStorage().nextOwnerIndex++) */\n      tag_75\n        /* \"contracts/MultiOwnable.sol\":4194:4199  owner */\n      dup2\n        /* \"contracts/MultiOwnable.sol\":4183:4200  abi.encode(owner) */\n      add(0x20, mload(0x40))\n      tag_76\n      swap2\n      swap1\n      tag_77\n      jump\t// in\n    tag_76:\n      mload(0x40)\n      0x20\n      dup2\n      dup4\n      sub\n      sub\n      dup2\n      mstore\n      swap1\n      0x40\n      mstore\n        /* \"contracts/MultiOwnable.sol\":4202:4227  _getMultiOwnableStorage() */\n      tag_78\n        /* \"contracts/MultiOwnable.sol\":4202:4225  _getMultiOwnableStorage */\n      tag_62\n        /* \"contracts/MultiOwnable.sol\":4202:4227  _getMultiOwnableStorage() */\n      jump\t// in\n    tag_78:\n        /* \"contracts/MultiOwnable.sol\":4202:4242  _getMultiOwnableStorage().nextOwnerIndex */\n      0x00\n      add\n      0x00\n        /* \"contracts/MultiOwnable.sol\":4202:4244  _getMultiOwnableStorage().nextOwnerIndex++ */\n      dup2\n      sload\n      dup1\n      swap3\n      swap2\n      swap1\n      tag_79\n      swap1\n      tag_80\n      jump\t// in\n    tag_79:\n      swap2\n      swap1\n      pop\n      sstore\n        /* \"contracts/MultiOwnable.sol\":4166:4182  _addOwnerAtIndex */\n      tag_81\n        /* \"contracts/MultiOwnable.sol\":4166:4245  _addOwnerAtIndex(abi.encode(owner), _getMultiOwnableStorage().nextOwnerIndex++) */\n      jump\t// in\n    tag_75:\n        /* \"contracts/MultiOwnable.sol\":4089:4252  function addOwnerAddress(address owner) external virtual onlyOwner {... */\n      pop\n      jump\t// out\n        /* \"contracts/MultiOwnable.sol\":6958:7103  function isOwnerBytes(bytes memory account) public view virtual returns (bool) {... */\n    tag_32:\n        /* \"contracts/MultiOwnable.sol\":7031:7035  bool */\n      0x00\n        /* \"contracts/MultiOwnable.sol\":7054:7079  _getMultiOwnableStorage() */\n      tag_83\n        /* \"contracts/MultiOwnable.sol\":7054:7077  _getMultiOwnableStorage */\n      tag_62\n        /* \"contracts/MultiOwnable.sol\":7054:7079  _getMultiOwnableStorage() */\n      jump\t// in\n    tag_83:\n        /* \"contracts/MultiOwnable.sol\":7054:7087  _getMultiOwnableStorage().isOwner */\n      0x03\n      add\n        /* \"contracts/MultiOwnable.sol\":7088:7095  account */\n      dup3\n        /* \"contracts/MultiOwnable.sol\":7054:7096  _getMultiOwnableStorage().isOwner[account] */\n      mload(0x40)\n      tag_84\n      swap2\n      swap1\n      tag_66\n      jump\t// in\n    tag_84:\n      swap1\n      dup2\n      mstore\n      0x20\n      add\n      mload(0x40)\n      dup1\n      swap2\n      sub\n      swap1\n      keccak256\n      0x00\n      swap1\n      sload\n      swap1\n      0x0100\n      exp\n      swap1\n      div\n      0xff\n      and\n        /* \"contracts/MultiOwnable.sol\":7047:7096  return _getMultiOwnableStorage().isOwner[account] */\n      swap1\n      pop\n        /* \"contracts/MultiOwnable.sol\":6958:7103  function isOwnerBytes(bytes memory account) public view virtual returns (bool) {... */\n      swap2\n      swap1\n      pop\n      jump\t// out\n        /* \"contracts/MultiOwnable.sol\":4415:4586  function addOwnerPublicKey(bytes32 x, bytes32 y) external virtual onlyOwner {... */\n    tag_36:\n        /* \"contracts/MultiOwnable.sol\":3953:3966  _checkOwner() */\n      tag_86\n        /* \"contracts/MultiOwnable.sol\":3953:3964  _checkOwner */\n      tag_73\n        /* \"contracts/MultiOwnable.sol\":3953:3966  _checkOwner() */\n      jump\t// in\n    tag_86:\n        /* \"contracts/MultiOwnable.sol\":4501:4579  _addOwnerAtIndex(abi.encode(x, y), _getMultiOwnableStorage().nextOwnerIndex++) */\n      tag_88\n        /* \"contracts/MultiOwnable.sol\":4529:4530  x */\n      dup3\n        /* \"contracts/MultiOwnable.sol\":4532:4533  y */\n      dup3\n        /* \"contracts/MultiOwnable.sol\":4518:4534  abi.encode(x, y) */\n      add(0x20, mload(0x40))\n      tag_89\n      swap3\n      swap2\n      swap1\n      tag_64\n      jump\t// in\n    tag_89:\n      mload(0x40)\n      0x20\n      dup2\n      dup4\n      sub\n      sub\n      dup2\n      mstore\n      swap1\n      0x40\n      mstore\n        /* \"contracts/MultiOwnable.sol\":4536:4561  _getMultiOwnableStorage() */\n      tag_90\n        /* \"contracts/MultiOwnable.sol\":4536:4559  _getMultiOwnableStorage */\n      tag_62\n        /* \"contracts/MultiOwnable.sol\":4536:4561  _getMultiOwnableStorage() */\n      jump\t// in\n    tag_90:\n        /* \"contracts/MultiOwnable.sol\":4536:4576  _getMultiOwnableStorage().nextOwnerIndex */\n      0x00\n      add\n      0x00\n        /* \"contracts/MultiOwnable.sol\":4536:4578  _getMultiOwnableStorage().nextOwnerIndex++ */\n      dup2\n      sload\n      dup1\n      swap3\n      swap2\n      swap1\n      tag_91\n      swap1\n      tag_80\n      jump\t// in\n    tag_91:\n      swap2\n      swap1\n      pop\n      sstore\n        /* \"contracts/MultiOwnable.sol\":4501:4517  _addOwnerAtIndex */\n      tag_81\n        /* \"contracts/MultiOwnable.sol\":4501:4579  _addOwnerAtIndex(abi.encode(x, y), _getMultiOwnableStorage().nextOwnerIndex++) */\n      jump\t// in\n    tag_88:\n        /* \"contracts/MultiOwnable.sol\":4415:4586  function addOwnerPublicKey(bytes32 x, bytes32 y) external virtual onlyOwner {... */\n      pop\n      pop\n      jump\t// out\n        /* \"contracts/MultiOwnable.sol\":8255:8391  function removedOwnersCount() public view virtual returns (uint256) {... */\n    tag_38:\n        /* \"contracts/MultiOwnable.sol\":8314:8321  uint256 */\n      0x00\n        /* \"contracts/MultiOwnable.sol\":8340:8365  _getMultiOwnableStorage() */\n      tag_93\n        /* \"contracts/MultiOwnable.sol\":8340:8363  _getMultiOwnableStorage */\n      tag_62\n        /* \"contracts/MultiOwnable.sol\":8340:8365  _getMultiOwnableStorage() */\n      jump\t// in\n    tag_93:\n        /* \"contracts/MultiOwnable.sol\":8340:8384  _getMultiOwnableStorage().removedOwnersCount */\n      0x01\n      add\n      sload\n        /* \"contracts/MultiOwnable.sol\":8333:8384  return _getMultiOwnableStorage().removedOwnersCount */\n      swap1\n      pop\n        /* \"contracts/MultiOwnable.sol\":8255:8391  function removedOwnersCount() public view virtual returns (uint256) {... */\n      swap1\n      jump\t// out\n        /* \"contracts/MultiOwnable.sol\":4984:5202  function removeOwnerAtIndex(uint256 index, bytes calldata owner) external virtual onlyOwner {... */\n    tag_43:\n        /* \"contracts/MultiOwnable.sol\":3953:3966  _checkOwner() */\n      tag_95\n        /* \"contracts/MultiOwnable.sol\":3953:3964  _checkOwner */\n      tag_73\n        /* \"contracts/MultiOwnable.sol\":3953:3966  _checkOwner() */\n      jump\t// in\n    tag_95:\n        /* \"contracts/MultiOwnable.sol\":5106:5107  1 */\n      0x01\n        /* \"contracts/MultiOwnable.sol\":5090:5102  ownerCount() */\n      tag_97\n        /* \"contracts/MultiOwnable.sol\":5090:5100  ownerCount */\n      tag_22\n        /* \"contracts/MultiOwnable.sol\":5090:5102  ownerCount() */\n      jump\t// in\n    tag_97:\n        /* \"contracts/MultiOwnable.sol\":5090:5107  ownerCount() == 1 */\n      sub\n        /* \"contracts/MultiOwnable.sol\":5086:5152  if (ownerCount() == 1) {... */\n      tag_98\n      jumpi\n        /* \"contracts/MultiOwnable.sol\":5130:5141  LastOwner() */\n      mload(0x40)\n      0x948bf89700000000000000000000000000000000000000000000000000000000\n      dup2\n      mstore\n      0x04\n      add\n      mload(0x40)\n      dup1\n      swap2\n      sub\n      swap1\n      revert\n        /* \"contracts/MultiOwnable.sol\":5086:5152  if (ownerCount() == 1) {... */\n    tag_98:\n        /* \"contracts/MultiOwnable.sol\":5162:5195  _removeOwnerAtIndex(index, owner) */\n      tag_99\n        /* \"contracts/MultiOwnable.sol\":5182:5187  index */\n      dup4\n        /* \"contracts/MultiOwnable.sol\":5189:5194  owner */\n      dup4\n      dup4\n        /* \"contracts/MultiOwnable.sol\":5162:5181  _removeOwnerAtIndex */\n      tag_100\n        /* \"contracts/MultiOwnable.sol\":5162:5195  _removeOwnerAtIndex(index, owner) */\n      jump\t// in\n    tag_99:\n        /* \"contracts/MultiOwnable.sol\":4984:5202  function removeOwnerAtIndex(uint256 index, bytes calldata owner) external virtual onlyOwner {... */\n      pop\n      pop\n      pop\n      jump\t// out\n        /* \"contracts/MultiOwnable.sol\":7312:7461  function ownerAtIndex(uint256 index) public view virtual returns (bytes memory) {... */\n    tag_47:\n        /* \"contracts/MultiOwnable.sol\":7378:7390  bytes memory */\n      0x60\n        /* \"contracts/MultiOwnable.sol\":7409:7434  _getMultiOwnableStorage() */\n      tag_102\n        /* \"contracts/MultiOwnable.sol\":7409:7432  _getMultiOwnableStorage */\n      tag_62\n        /* \"contracts/MultiOwnable.sol\":7409:7434  _getMultiOwnableStorage() */\n      jump\t// in\n    tag_102:\n        /* \"contracts/MultiOwnable.sol\":7409:7447  _getMultiOwnableStorage().ownerAtIndex */\n      0x02\n      add\n        /* \"contracts/MultiOwnable.sol\":7409:7454  _getMultiOwnableStorage().ownerAtIndex[index] */\n      0x00\n        /* \"contracts/MultiOwnable.sol\":7448:7453  index */\n      dup4\n        /* \"contracts/MultiOwnable.sol\":7409:7454  _getMultiOwnableStorage().ownerAtIndex[index] */\n      dup2\n      mstore\n      0x20\n      add\n      swap1\n      dup2\n      mstore\n      0x20\n      add\n      0x00\n      keccak256\n        /* \"contracts/MultiOwnable.sol\":7402:7454  return _getMultiOwnableStorage().ownerAtIndex[index] */\n      dup1\n      sload\n      tag_103\n      swap1\n      tag_104\n      jump\t// in\n    tag_103:\n      dup1\n      0x1f\n      add\n      0x20\n      dup1\n      swap2\n      div\n      mul\n      0x20\n      add\n      mload(0x40)\n      swap1\n      dup2\n      add\n      0x40\n      mstore\n      dup1\n      swap3\n      swap2\n      swap1\n      dup2\n      dup2\n      mstore\n      0x20\n      add\n      dup3\n      dup1\n      sload\n      tag_105\n      swap1\n      tag_104\n      jump\t// in\n    tag_105:\n      dup1\n      iszero\n      tag_106\n      jumpi\n      dup1\n      0x1f\n      lt\n      tag_107\n      jumpi\n      0x0100\n      dup1\n      dup4\n      sload\n      div\n      mul\n      dup4\n      mstore\n      swap2\n      0x20\n      add\n      swap2\n      jump(tag_106)\n    tag_107:\n      dup3\n      add\n      swap2\n      swap1\n      0x00\n      mstore\n      keccak256(0x00, 0x20)\n      swap1\n    tag_108:\n      dup2\n      sload\n      dup2\n      mstore\n      swap1\n      0x01\n      add\n      swap1\n      0x20\n      add\n      dup1\n      dup4\n      gt\n      tag_108\n      jumpi\n      dup3\n      swap1\n      sub\n      0x1f\n      and\n      dup3\n      add\n      swap2\n    tag_106:\n      pop\n      pop\n      pop\n      pop\n      pop\n      swap1\n      pop\n        /* \"contracts/MultiOwnable.sol\":7312:7461  function ownerAtIndex(uint256 index) public view virtual returns (bytes memory) {... */\n      swap2\n      swap1\n      pop\n      jump\t// out\n        /* \"contracts/MultiOwnable.sol\":6145:6299  function isOwnerAddress(address account) public view virtual returns (bool) {... */\n    tag_52:\n        /* \"contracts/MultiOwnable.sol\":6215:6219  bool */\n      0x00\n        /* \"contracts/MultiOwnable.sol\":6238:6263  _getMultiOwnableStorage() */\n      tag_110\n        /* \"contracts/MultiOwnable.sol\":6238:6261  _getMultiOwnableStorage */\n      tag_62\n        /* \"contracts/MultiOwnable.sol\":6238:6263  _getMultiOwnableStorage() */\n      jump\t// in\n    tag_110:\n        /* \"contracts/MultiOwnable.sol\":6238:6271  _getMultiOwnableStorage().isOwner */\n      0x03\n      add\n        /* \"contracts/MultiOwnable.sol\":6283:6290  account */\n      dup3\n        /* \"contracts/MultiOwnable.sol\":6272:6291  abi.encode(account) */\n      add(0x20, mload(0x40))\n      tag_111\n      swap2\n      swap1\n      tag_77\n      jump\t// in\n    tag_111:\n      mload(0x40)\n      0x20\n      dup2\n      dup4\n      sub\n      sub\n      dup2\n      mstore\n      swap1\n      0x40\n      mstore\n        /* \"contracts/MultiOwnable.sol\":6238:6292  _getMultiOwnableStorage().isOwner[abi.encode(account)] */\n      mload(0x40)\n      tag_112\n      swap2\n      swap1\n      tag_66\n      jump\t// in\n    tag_112:\n      swap1\n      dup2\n      mstore\n      0x20\n      add\n      mload(0x40)\n      dup1\n      swap2\n      sub\n      swap1\n      keccak256\n      0x00\n      swap1\n      sload\n      swap1\n      0x0100\n      exp\n      swap1\n      div\n      0xff\n      and\n        /* \"contracts/MultiOwnable.sol\":6231:6292  return _getMultiOwnableStorage().isOwner[abi.encode(account)] */\n      swap1\n      pop\n        /* \"contracts/MultiOwnable.sol\":6145:6299  function isOwnerAddress(address account) public view virtual returns (bool) {... */\n      swap2\n      swap1\n      pop\n      jump\t// out\n        /* \"contracts/MultiOwnable.sol\":5645:5928  function removeLastOwner(uint256 index, bytes calldata owner) external virtual onlyOwner {... */\n    tag_56:\n        /* \"contracts/MultiOwnable.sol\":3953:3966  _checkOwner() */\n      tag_114\n        /* \"contracts/MultiOwnable.sol\":3953:3964  _checkOwner */\n      tag_73\n        /* \"contracts/MultiOwnable.sol\":3953:3966  _checkOwner() */\n      jump\t// in\n    tag_114:\n        /* \"contracts/MultiOwnable.sol\":5744:5767  uint256 ownersRemaining */\n      0x00\n        /* \"contracts/MultiOwnable.sol\":5770:5782  ownerCount() */\n      tag_116\n        /* \"contracts/MultiOwnable.sol\":5770:5780  ownerCount */\n      tag_22\n        /* \"contracts/MultiOwnable.sol\":5770:5782  ownerCount() */\n      jump\t// in\n    tag_116:\n        /* \"contracts/MultiOwnable.sol\":5744:5782  uint256 ownersRemaining = ownerCount() */\n      swap1\n      pop\n        /* \"contracts/MultiOwnable.sol\":5814:5815  1 */\n      0x01\n        /* \"contracts/MultiOwnable.sol\":5796:5811  ownersRemaining */\n      dup2\n        /* \"contracts/MultiOwnable.sol\":5796:5815  ownersRemaining > 1 */\n      gt\n        /* \"contracts/MultiOwnable.sol\":5792:5878  if (ownersRemaining > 1) {... */\n      iszero\n      tag_117\n      jumpi\n        /* \"contracts/MultiOwnable.sol\":5851:5866  ownersRemaining */\n      dup1\n        /* \"contracts/MultiOwnable.sol\":5838:5867  NotLastOwner(ownersRemaining) */\n      mload(0x40)\n      0x823f1aa800000000000000000000000000000000000000000000000000000000\n      dup2\n      mstore\n      0x04\n      add\n      tag_118\n      swap2\n      swap1\n      tag_24\n      jump\t// in\n    tag_118:\n      mload(0x40)\n      dup1\n      swap2\n      sub\n      swap1\n      revert\n        /* \"contracts/MultiOwnable.sol\":5792:5878  if (ownersRemaining > 1) {... */\n    tag_117:\n        /* \"contracts/MultiOwnable.sol\":5888:5921  _removeOwnerAtIndex(index, owner) */\n      tag_119\n        /* \"contracts/MultiOwnable.sol\":5908:5913  index */\n      dup5\n        /* \"contracts/MultiOwnable.sol\":5915:5920  owner */\n      dup5\n      dup5\n        /* \"contracts/MultiOwnable.sol\":5888:5907  _removeOwnerAtIndex */\n      tag_100\n        /* \"contracts/MultiOwnable.sol\":5888:5921  _removeOwnerAtIndex(index, owner) */\n      jump\t// in\n    tag_119:\n        /* \"contracts/MultiOwnable.sol\":5734:5928  {... */\n      pop\n        /* \"contracts/MultiOwnable.sol\":5645:5928  function removeLastOwner(uint256 index, bytes calldata owner) external virtual onlyOwner {... */\n      pop\n      pop\n      pop\n      jump\t// out\n        /* \"contracts/MultiOwnable.sol\":7621:7749  function nextOwnerIndex() public view virtual returns (uint256) {... */\n    tag_58:\n        /* \"contracts/MultiOwnable.sol\":7676:7683  uint256 */\n      0x00\n        /* \"contracts/MultiOwnable.sol\":7702:7727  _getMultiOwnableStorage() */\n      tag_121\n        /* \"contracts/MultiOwnable.sol\":7702:7725  _getMultiOwnableStorage */\n      tag_62\n        /* \"contracts/MultiOwnable.sol\":7702:7727  _getMultiOwnableStorage() */\n      jump\t// in\n    tag_121:\n        /* \"contracts/MultiOwnable.sol\":7702:7742  _getMultiOwnableStorage().nextOwnerIndex */\n      0x00\n      add\n      sload\n        /* \"contracts/MultiOwnable.sol\":7695:7742  return _getMultiOwnableStorage().nextOwnerIndex */\n      swap1\n      pop\n        /* \"contracts/MultiOwnable.sol\":7621:7749  function nextOwnerIndex() public view virtual returns (uint256) {... */\n      swap1\n      jump\t// out\n        /* \"contracts/MultiOwnable.sol\":11400:11594  function _getMultiOwnableStorage() internal pure returns (MultiOwnableStorage storage $) {... */\n    tag_62:\n        /* \"contracts/MultiOwnable.sol\":11458:11487  MultiOwnableStorage storage $ */\n      0x00\n        /* \"contracts/MultiOwnable.sol\":11548:11578  MUTLI_OWNABLE_STORAGE_LOCATION */\n      0x97e2c6aad4ce5d562ebfaa00db6b9e0fb66ea5d8162ed5b243f51a2e03086f00\n        /* \"contracts/MultiOwnable.sol\":11538:11578  $.slot := MUTLI_OWNABLE_STORAGE_LOCATION */\n      swap1\n      pop\n        /* \"contracts/MultiOwnable.sol\":11400:11594  function _getMultiOwnableStorage() internal pure returns (MultiOwnableStorage storage $) {... */\n      swap1\n      jump\t// out\n        /* \"contracts/MultiOwnable.sol\":11026:11215  function _checkOwner() internal view virtual {... */\n    tag_73:\n        /* \"contracts/MultiOwnable.sol\":11085:11111  isOwnerAddress(msg.sender) */\n      tag_124\n        /* \"contracts/MultiOwnable.sol\":11100:11110  msg.sender */\n      caller\n        /* \"contracts/MultiOwnable.sol\":11085:11099  isOwnerAddress */\n      tag_52\n        /* \"contracts/MultiOwnable.sol\":11085:11111  isOwnerAddress(msg.sender) */\n      jump\t// in\n    tag_124:\n        /* \"contracts/MultiOwnable.sol\":11085:11144  isOwnerAddress(msg.sender) || (msg.sender == address(this)) */\n      dup1\n      tag_125\n      jumpi\n      pop\n        /* \"contracts/MultiOwnable.sol\":11138:11142  this */\n      address\n        /* \"contracts/MultiOwnable.sol\":11116:11143  msg.sender == address(this) */\n      0xffffffffffffffffffffffffffffffffffffffff\n      and\n        /* \"contracts/MultiOwnable.sol\":11116:11126  msg.sender */\n      caller\n        /* \"contracts/MultiOwnable.sol\":11116:11143  msg.sender == address(this) */\n      0xffffffffffffffffffffffffffffffffffffffff\n      and\n      eq\n        /* \"contracts/MultiOwnable.sol\":11085:11144  isOwnerAddress(msg.sender) || (msg.sender == address(this)) */\n    tag_125:\n        /* \"contracts/MultiOwnable.sol\":11160:11167  return; */\n      tag_123\n        /* \"contracts/MultiOwnable.sol\":11081:11177  if (isOwnerAddress(msg.sender) || (msg.sender == address(this))) {... */\n      jumpi\n        /* \"contracts/MultiOwnable.sol\":11194:11208  Unauthorized() */\n      mload(0x40)\n      0x82b4290000000000000000000000000000000000000000000000000000000000\n      dup2\n      mstore\n      0x04\n      add\n      mload(0x40)\n      dup1\n      swap2\n      sub\n      swap1\n      revert\n        /* \"contracts/MultiOwnable.sol\":11026:11215  function _checkOwner() internal view virtual {... */\n    tag_123:\n      jump\t// out\n        /* \"contracts/MultiOwnable.sol\":9610:9934  function _addOwnerAtIndex(bytes memory owner, uint256 index) internal virtual {... */\n    tag_81:\n        /* \"contracts/MultiOwnable.sol\":9702:9721  isOwnerBytes(owner) */\n      tag_128\n        /* \"contracts/MultiOwnable.sol\":9715:9720  owner */\n      dup3\n        /* \"contracts/MultiOwnable.sol\":9702:9714  isOwnerBytes */\n      tag_32\n        /* \"contracts/MultiOwnable.sol\":9702:9721  isOwnerBytes(owner) */\n      jump\t// in\n    tag_128:\n        /* \"contracts/MultiOwnable.sol\":9698:9749  if (isOwnerBytes(owner)) revert AlreadyOwner(owner) */\n      iszero\n      tag_129\n      jumpi\n        /* \"contracts/MultiOwnable.sol\":9743:9748  owner */\n      dup2\n        /* \"contracts/MultiOwnable.sol\":9730:9749  AlreadyOwner(owner) */\n      mload(0x40)\n      0x8d16255a00000000000000000000000000000000000000000000000000000000\n      dup2\n      mstore\n      0x04\n      add\n      tag_130\n      swap2\n      swap1\n      tag_49\n      jump\t// in\n    tag_130:\n      mload(0x40)\n      dup1\n      swap2\n      sub\n      swap1\n      revert\n        /* \"contracts/MultiOwnable.sol\":9698:9749  if (isOwnerBytes(owner)) revert AlreadyOwner(owner) */\n    tag_129:\n        /* \"contracts/MultiOwnable.sol\":9760:9789  MultiOwnableStorage storage $ */\n      0x00\n        /* \"contracts/MultiOwnable.sol\":9792:9817  _getMultiOwnableStorage() */\n      tag_131\n        /* \"contracts/MultiOwnable.sol\":9792:9815  _getMultiOwnableStorage */\n      tag_62\n        /* \"contracts/MultiOwnable.sol\":9792:9817  _getMultiOwnableStorage() */\n      jump\t// in\n    tag_131:\n        /* \"contracts/MultiOwnable.sol\":9760:9817  MultiOwnableStorage storage $ = _getMultiOwnableStorage() */\n      swap1\n      pop\n        /* \"contracts/MultiOwnable.sol\":9846:9850  true */\n      0x01\n        /* \"contracts/MultiOwnable.sol\":9827:9828  $ */\n      dup2\n        /* \"contracts/MultiOwnable.sol\":9827:9836  $.isOwner */\n      0x03\n      add\n        /* \"contracts/MultiOwnable.sol\":9837:9842  owner */\n      dup5\n        /* \"contracts/MultiOwnable.sol\":9827:9843  $.isOwner[owner] */\n      mload(0x40)\n      tag_132\n      swap2\n      swap1\n      tag_66\n      jump\t// in\n    tag_132:\n      swap1\n      dup2\n      mstore\n      0x20\n      add\n      mload(0x40)\n      dup1\n      swap2\n      sub\n      swap1\n      keccak256\n      0x00\n        /* \"contracts/MultiOwnable.sol\":9827:9850  $.isOwner[owner] = true */\n      0x0100\n      exp\n      dup2\n      sload\n      dup2\n      0xff\n      mul\n      not\n      and\n      swap1\n      dup4\n      iszero\n      iszero\n      mul\n      or\n      swap1\n      sstore\n      pop\n        /* \"contracts/MultiOwnable.sol\":9884:9889  owner */\n      dup3\n        /* \"contracts/MultiOwnable.sol\":9860:9861  $ */\n      dup2\n        /* \"contracts/MultiOwnable.sol\":9860:9874  $.ownerAtIndex */\n      0x02\n      add\n        /* \"contracts/MultiOwnable.sol\":9860:9881  $.ownerAtIndex[index] */\n      0x00\n        /* \"contracts/MultiOwnable.sol\":9875:9880  index */\n      dup5\n        /* \"contracts/MultiOwnable.sol\":9860:9881  $.ownerAtIndex[index] */\n      dup2\n      mstore\n      0x20\n      add\n      swap1\n      dup2\n      mstore\n      0x20\n      add\n      0x00\n      keccak256\n        /* \"contracts/MultiOwnable.sol\":9860:9889  $.ownerAtIndex[index] = owner */\n      swap1\n      dup2\n      tag_133\n      swap2\n      swap1\n      tag_134\n      jump\t// in\n    tag_133:\n      pop\n        /* \"contracts/MultiOwnable.sol\":9914:9919  index */\n      dup2\n        /* \"contracts/MultiOwnable.sol\":9905:9927  AddOwner(index, owner) */\n      0x38109edc26e166b5579352ce56a50813177eb25208fd90d61f2f378386220220\n        /* \"contracts/MultiOwnable.sol\":9921:9926  owner */\n      dup5\n        /* \"contracts/MultiOwnable.sol\":9905:9927  AddOwner(index, owner) */\n      mload(0x40)\n      tag_135\n      swap2\n      swap1\n      tag_49\n      jump\t// in\n    tag_135:\n      mload(0x40)\n      dup1\n      swap2\n      sub\n      swap1\n      log2\n        /* \"contracts/MultiOwnable.sol\":9688:9934  {... */\n      pop\n        /* \"contracts/MultiOwnable.sol\":9610:9934  function _addOwnerAtIndex(bytes memory owner, uint256 index) internal virtual {... */\n      pop\n      pop\n      jump\t// out\n        /* \"contracts/MultiOwnable.sol\":10273:10848  function _removeOwnerAtIndex(uint256 index, bytes calldata owner) internal virtual {... */\n    tag_100:\n        /* \"contracts/MultiOwnable.sol\":10366:10385  bytes memory owner_ */\n      0x00\n        /* \"contracts/MultiOwnable.sol\":10388:10407  ownerAtIndex(index) */\n      tag_137\n        /* \"contracts/MultiOwnable.sol\":10401:10406  index */\n      dup5\n        /* \"contracts/MultiOwnable.sol\":10388:10400  ownerAtIndex */\n      tag_47\n        /* \"contracts/MultiOwnable.sol\":10388:10407  ownerAtIndex(index) */\n      jump\t// in\n    tag_137:\n        /* \"contracts/MultiOwnable.sol\":10366:10407  bytes memory owner_ = ownerAtIndex(index) */\n      swap1\n      pop\n        /* \"contracts/MultiOwnable.sol\":10438:10439  0 */\n      0x00\n        /* \"contracts/MultiOwnable.sol\":10421:10427  owner_ */\n      dup2\n        /* \"contracts/MultiOwnable.sol\":10421:10434  owner_.length */\n      mload\n        /* \"contracts/MultiOwnable.sol\":10421:10439  owner_.length == 0 */\n      sub\n        /* \"contracts/MultiOwnable.sol\":10417:10469  if (owner_.length == 0) revert NoOwnerAtIndex(index) */\n      tag_138\n      jumpi\n        /* \"contracts/MultiOwnable.sol\":10463:10468  index */\n      dup4\n        /* \"contracts/MultiOwnable.sol\":10448:10469  NoOwnerAtIndex(index) */\n      mload(0x40)\n      0x68188e7a00000000000000000000000000000000000000000000000000000000\n      dup2\n      mstore\n      0x04\n      add\n      tag_139\n      swap2\n      swap1\n      tag_24\n      jump\t// in\n    tag_139:\n      mload(0x40)\n      dup1\n      swap2\n      sub\n      swap1\n      revert\n        /* \"contracts/MultiOwnable.sol\":10417:10469  if (owner_.length == 0) revert NoOwnerAtIndex(index) */\n    tag_138:\n        /* \"contracts/MultiOwnable.sol\":10514:10519  owner */\n      dup3\n      dup3\n        /* \"contracts/MultiOwnable.sol\":10504:10520  keccak256(owner) */\n      mload(0x40)\n      tag_140\n      swap3\n      swap2\n      swap1\n      tag_141\n      jump\t// in\n    tag_140:\n      mload(0x40)\n      dup1\n      swap2\n      sub\n      swap1\n      keccak256\n        /* \"contracts/MultiOwnable.sol\":10493:10499  owner_ */\n      dup2\n        /* \"contracts/MultiOwnable.sol\":10483:10500  keccak256(owner_) */\n      dup1\n      mload\n      swap1\n      0x20\n      add\n      keccak256\n        /* \"contracts/MultiOwnable.sol\":10483:10520  keccak256(owner_) != keccak256(owner) */\n      eq\n        /* \"contracts/MultiOwnable.sol\":10479:10630  if (keccak256(owner_) != keccak256(owner)) {... */\n      tag_142\n      jumpi\n        /* \"contracts/MultiOwnable.sol\":10569:10574  index */\n      dup4\n        /* \"contracts/MultiOwnable.sol\":10591:10596  owner */\n      dup4\n      dup4\n        /* \"contracts/MultiOwnable.sol\":10611:10617  owner_ */\n      dup4\n        /* \"contracts/MultiOwnable.sol\":10543:10619  WrongOwnerAtIndex({index: index, expectedOwner: owner, actualOwner: owner_}) */\n      mload(0x40)\n      0x781f2e3900000000000000000000000000000000000000000000000000000000\n      dup2\n      mstore\n      0x04\n      add\n      tag_143\n      swap5\n      swap4\n      swap3\n      swap2\n      swap1\n      tag_144\n      jump\t// in\n    tag_143:\n      mload(0x40)\n      dup1\n      swap2\n      sub\n      swap1\n      revert\n        /* \"contracts/MultiOwnable.sol\":10479:10630  if (keccak256(owner_) != keccak256(owner)) {... */\n    tag_142:\n        /* \"contracts/MultiOwnable.sol\":10640:10669  MultiOwnableStorage storage $ */\n      0x00\n        /* \"contracts/MultiOwnable.sol\":10672:10697  _getMultiOwnableStorage() */\n      tag_145\n        /* \"contracts/MultiOwnable.sol\":10672:10695  _getMultiOwnableStorage */\n      tag_62\n        /* \"contracts/MultiOwnable.sol\":10672:10697  _getMultiOwnableStorage() */\n      jump\t// in\n    tag_145:\n        /* \"contracts/MultiOwnable.sol\":10640:10697  MultiOwnableStorage storage $ = _getMultiOwnableStorage() */\n      swap1\n      pop\n        /* \"contracts/MultiOwnable.sol\":10714:10715  $ */\n      dup1\n        /* \"contracts/MultiOwnable.sol\":10714:10723  $.isOwner */\n      0x03\n      add\n        /* \"contracts/MultiOwnable.sol\":10724:10729  owner */\n      dup5\n      dup5\n        /* \"contracts/MultiOwnable.sol\":10714:10730  $.isOwner[owner] */\n      mload(0x40)\n      tag_146\n      swap3\n      swap2\n      swap1\n      tag_141\n      jump\t// in\n    tag_146:\n      swap1\n      dup2\n      mstore\n      0x20\n      add\n      mload(0x40)\n      dup1\n      swap2\n      sub\n      swap1\n      keccak256\n      0x00\n        /* \"contracts/MultiOwnable.sol\":10707:10730  delete $.isOwner[owner] */\n      0x0100\n      exp\n      dup2\n      sload\n      swap1\n      0xff\n      mul\n      not\n      and\n      swap1\n      sstore\n        /* \"contracts/MultiOwnable.sol\":10747:10748  $ */\n      dup1\n        /* \"contracts/MultiOwnable.sol\":10747:10761  $.ownerAtIndex */\n      0x02\n      add\n        /* \"contracts/MultiOwnable.sol\":10747:10768  $.ownerAtIndex[index] */\n      0x00\n        /* \"contracts/MultiOwnable.sol\":10762:10767  index */\n      dup7\n        /* \"contracts/MultiOwnable.sol\":10747:10768  $.ownerAtIndex[index] */\n      dup2\n      mstore\n      0x20\n      add\n      swap1\n      dup2\n      mstore\n      0x20\n      add\n      0x00\n      keccak256\n      0x00\n        /* \"contracts/MultiOwnable.sol\":10740:10768  delete $.ownerAtIndex[index] */\n      tag_147\n      swap2\n      swap1\n      tag_148\n      jump\t// in\n    tag_147:\n        /* \"contracts/MultiOwnable.sol\":10778:10779  $ */\n      dup1\n        /* \"contracts/MultiOwnable.sol\":10778:10798  $.removedOwnersCount */\n      0x01\n      add\n      0x00\n        /* \"contracts/MultiOwnable.sol\":10778:10800  $.removedOwnersCount++ */\n      dup2\n      sload\n      dup1\n      swap3\n      swap2\n      swap1\n      tag_149\n      swap1\n      tag_80\n      jump\t// in\n    tag_149:\n      swap2\n      swap1\n      pop\n      sstore\n      pop\n        /* \"contracts/MultiOwnable.sol\":10828:10833  index */\n      dup5\n        /* \"contracts/MultiOwnable.sol\":10816:10841  RemoveOwner(index, owner) */\n      0xcf95bbfe6f870f8cc40482dc3dccdafd268f0e9ce0a4f24ea1bea9be64e505ff\n        /* \"contracts/MultiOwnable.sol\":10835:10840  owner */\n      dup6\n      dup6\n        /* \"contracts/MultiOwnable.sol\":10816:10841  RemoveOwner(index, owner) */\n      mload(0x40)\n      tag_150\n      swap3\n      swap2\n      swap1\n      tag_151\n      jump\t// in\n    tag_150:\n      mload(0x40)\n      dup1\n      swap2\n      sub\n      swap1\n      log2\n        /* \"contracts/MultiOwnable.sol\":10356:10848  {... */\n      pop\n      pop\n        /* \"contracts/MultiOwnable.sol\":10273:10848  function _removeOwnerAtIndex(uint256 index, bytes calldata owner) internal virtual {... */\n      pop\n      pop\n      pop\n      jump\t// out\n    tag_148:\n      pop\n      dup1\n      sload\n      tag_152\n      swap1\n      tag_104\n      jump\t// in\n    tag_152:\n      0x00\n      dup3\n      sstore\n      dup1\n      0x1f\n      lt\n      tag_154\n      jumpi\n      pop\n      jump(tag_153)\n    tag_154:\n      0x1f\n      add\n      0x20\n      swap1\n      div\n      swap1\n      0x00\n      mstore\n      keccak256(0x00, 0x20)\n      swap1\n      dup2\n      add\n      swap1\n      tag_155\n      swap2\n      swap1\n      tag_156\n      jump\t// in\n    tag_155:\n    tag_153:\n      pop\n      jump\t// out\n    tag_156:\n    tag_157:\n      dup1\n      dup3\n      gt\n      iszero\n      tag_158\n      jumpi\n      0x00\n      dup2\n      0x00\n      swap1\n      sstore\n      pop\n      0x01\n      add\n      jump(tag_157)\n    tag_158:\n      pop\n      swap1\n      jump\t// out\n        /* \"#utility.yul\":7:82   */\n    tag_159:\n        /* \"#utility.yul\":40:46   */\n      0x00\n        /* \"#utility.yul\":73:75   */\n      0x40\n        /* \"#utility.yul\":67:76   */\n      mload\n        /* \"#utility.yul\":57:76   */\n      swap1\n      pop\n        /* \"#utility.yul\":7:82   */\n      swap1\n      jump\t// out\n        /* \"#utility.yul\":88:205   */\n    tag_160:\n        /* \"#utility.yul\":197:198   */\n      0x00\n        /* \"#utility.yul\":194:195   */\n      dup1\n        /* \"#utility.yul\":187:199   */\n      revert\n        /* \"#utility.yul\":211:328   */\n    tag_161:\n        /* \"#utility.yul\":320:321   */\n      0x00\n        /* \"#utility.yul\":317:318   */\n      dup1\n        /* \"#utility.yul\":310:322   */\n      revert\n        /* \"#utility.yul\":334:411   */\n    tag_162:\n        /* \"#utility.yul\":371:378   */\n      0x00\n        /* \"#utility.yul\":400:405   */\n      dup2\n        /* \"#utility.yul\":389:405   */\n      swap1\n      pop\n        /* \"#utility.yul\":334:411   */\n      swap2\n      swap1\n      pop\n      jump\t// out\n        /* \"#utility.yul\":417:539   */\n    tag_163:\n        /* \"#utility.yul\":490:514   */\n      tag_221\n        /* \"#utility.yul\":508:513   */\n      dup2\n        /* \"#utility.yul\":490:514   */\n      tag_162\n      jump\t// in\n    tag_221:\n        /* \"#utility.yul\":483:488   */\n      dup2\n        /* \"#utility.yul\":480:515   */\n      eq\n        /* \"#utility.yul\":470:533   */\n      tag_222\n      jumpi\n        /* \"#utility.yul\":529:530   */\n      0x00\n        /* \"#utility.yul\":526:527   */\n      dup1\n        /* \"#utility.yul\":519:531   */\n      revert\n        /* \"#utility.yul\":470:533   */\n    tag_222:\n        /* \"#utility.yul\":417:539   */\n      pop\n      jump\t// out\n        /* \"#utility.yul\":545:684   */\n    tag_164:\n        /* \"#utility.yul\":591:596   */\n      0x00\n        /* \"#utility.yul\":629:635   */\n      dup2\n        /* \"#utility.yul\":616:636   */\n      calldataload\n        /* \"#utility.yul\":607:636   */\n      swap1\n      pop\n        /* \"#utility.yul\":645:678   */\n      tag_224\n        /* \"#utility.yul\":672:677   */\n      dup2\n        /* \"#utility.yul\":645:678   */\n      tag_163\n      jump\t// in\n    tag_224:\n        /* \"#utility.yul\":545:684   */\n      swap3\n      swap2\n      pop\n      pop\n      jump\t// out\n        /* \"#utility.yul\":690:1164   */\n    tag_17:\n        /* \"#utility.yul\":758:764   */\n      0x00\n        /* \"#utility.yul\":766:772   */\n      dup1\n        /* \"#utility.yul\":815:817   */\n      0x40\n        /* \"#utility.yul\":803:812   */\n      dup4\n        /* \"#utility.yul\":794:801   */\n      dup6\n        /* \"#utility.yul\":790:813   */\n      sub\n        /* \"#utility.yul\":786:818   */\n      slt\n        /* \"#utility.yul\":783:902   */\n      iszero\n      tag_226\n      jumpi\n        /* \"#utility.yul\":821:900   */\n      tag_227\n      tag_160\n      jump\t// in\n    tag_227:\n        /* \"#utility.yul\":783:902   */\n    tag_226:\n        /* \"#utility.yul\":941:942   */\n      0x00\n        /* \"#utility.yul\":966:1019   */\n      tag_228\n        /* \"#utility.yul\":1011:1018   */\n      dup6\n        /* \"#utility.yul\":1002:1008   */\n      dup3\n        /* \"#utility.yul\":991:1000   */\n      dup7\n        /* \"#utility.yul\":987:1009   */\n      add\n        /* \"#utility.yul\":966:1019   */\n      tag_164\n      jump\t// in\n    tag_228:\n        /* \"#utility.yul\":956:1019   */\n      swap3\n      pop\n        /* \"#utility.yul\":912:1029   */\n      pop\n        /* \"#utility.yul\":1068:1070   */\n      0x20\n        /* \"#utility.yul\":1094:1147   */\n      tag_229\n        /* \"#utility.yul\":1139:1146   */\n      dup6\n        /* \"#utility.yul\":1130:1136   */\n      dup3\n        /* \"#utility.yul\":1119:1128   */\n      dup7\n        /* \"#utility.yul\":1115:1137   */\n      add\n        /* \"#utility.yul\":1094:1147   */\n      tag_164\n      jump\t// in\n    tag_229:\n        /* \"#utility.yul\":1084:1147   */\n      swap2\n      pop\n        /* \"#utility.yul\":1039:1157   */\n      pop\n        /* \"#utility.yul\":690:1164   */\n      swap3\n      pop\n      swap3\n      swap1\n      pop\n      jump\t// out\n        /* \"#utility.yul\":1170:1260   */\n    tag_165:\n        /* \"#utility.yul\":1204:1211   */\n      0x00\n        /* \"#utility.yul\":1247:1252   */\n      dup2\n        /* \"#utility.yul\":1240:1253   */\n      iszero\n        /* \"#utility.yul\":1233:1254   */\n      iszero\n        /* \"#utility.yul\":1222:1254   */\n      swap1\n      pop\n        /* \"#utility.yul\":1170:1260   */\n      swap2\n      swap1\n      pop\n      jump\t// out\n        /* \"#utility.yul\":1266:1375   */\n    tag_166:\n        /* \"#utility.yul\":1347:1368   */\n      tag_232\n        /* \"#utility.yul\":1362:1367   */\n      dup2\n        /* \"#utility.yul\":1347:1368   */\n      tag_165\n      jump\t// in\n    tag_232:\n        /* \"#utility.yul\":1342:1345   */\n      dup3\n        /* \"#utility.yul\":1335:1369   */\n      mstore\n        /* \"#utility.yul\":1266:1375   */\n      pop\n      pop\n      jump\t// out\n        /* \"#utility.yul\":1381:1591   */\n    tag_20:\n        /* \"#utility.yul\":1468:1472   */\n      0x00\n        /* \"#utility.yul\":1506:1508   */\n      0x20\n        /* \"#utility.yul\":1495:1504   */\n      dup3\n        /* \"#utility.yul\":1491:1509   */\n      add\n        /* \"#utility.yul\":1483:1509   */\n      swap1\n      pop\n        /* \"#utility.yul\":1519:1584   */\n      tag_234\n        /* \"#utility.yul\":1581:1582   */\n      0x00\n        /* \"#utility.yul\":1570:1579   */\n      dup4\n        /* \"#utility.yul\":1566:1583   */\n      add\n        /* \"#utility.yul\":1557:1563   */\n      dup5\n        /* \"#utility.yul\":1519:1584   */\n      tag_166\n      jump\t// in\n    tag_234:\n        /* \"#utility.yul\":1381:1591   */\n      swap3\n      swap2\n      pop\n      pop\n      jump\t// out\n        /* \"#utility.yul\":1597:1674   */\n    tag_167:\n        /* \"#utility.yul\":1634:1641   */\n      0x00\n        /* \"#utility.yul\":1663:1668   */\n      dup2\n        /* \"#utility.yul\":1652:1668   */\n      swap1\n      pop\n        /* \"#utility.yul\":1597:1674   */\n      swap2\n      swap1\n      pop\n      jump\t// out\n        /* \"#utility.yul\":1680:1798   */\n    tag_168:\n        /* \"#utility.yul\":1767:1791   */\n      tag_237\n        /* \"#utility.yul\":1785:1790   */\n      dup2\n        /* \"#utility.yul\":1767:1791   */\n      tag_167\n      jump\t// in\n    tag_237:\n        /* \"#utility.yul\":1762:1765   */\n      dup3\n        /* \"#utility.yul\":1755:1792   */\n      mstore\n        /* \"#utility.yul\":1680:1798   */\n      pop\n      pop\n      jump\t// out\n        /* \"#utility.yul\":1804:2026   */\n    tag_24:\n        /* \"#utility.yul\":1897:1901   */\n      0x00\n        /* \"#utility.yul\":1935:1937   */\n      0x20\n        /* \"#utility.yul\":1924:1933   */\n      dup3\n        /* \"#utility.yul\":1920:1938   */\n      add\n        /* \"#utility.yul\":1912:1938   */\n      swap1\n      pop\n        /* \"#utility.yul\":1948:2019   */\n      tag_239\n        /* \"#utility.yul\":2016:2017   */\n      0x00\n        /* \"#utility.yul\":2005:2014   */\n      dup4\n        /* \"#utility.yul\":2001:2018   */\n      add\n        /* \"#utility.yul\":1992:1998   */\n      dup5\n        /* \"#utility.yul\":1948:2019   */\n      tag_168\n      jump\t// in\n    tag_239:\n        /* \"#utility.yul\":1804:2026   */\n      swap3\n      swap2\n      pop\n      pop\n      jump\t// out\n        /* \"#utility.yul\":2032:2158   */\n    tag_169:\n        /* \"#utility.yul\":2069:2076   */\n      0x00\n        /* \"#utility.yul\":2109:2151   */\n      0xffffffffffffffffffffffffffffffffffffffff\n        /* \"#utility.yul\":2102:2107   */\n      dup3\n        /* \"#utility.yul\":2098:2152   */\n      and\n        /* \"#utility.yul\":2087:2152   */\n      swap1\n      pop\n        /* \"#utility.yul\":2032:2158   */\n      swap2\n      swap1\n      pop\n      jump\t// out\n        /* \"#utility.yul\":2164:2260   */\n    tag_170:\n        /* \"#utility.yul\":2201:2208   */\n      0x00\n        /* \"#utility.yul\":2230:2254   */\n      tag_242\n        /* \"#utility.yul\":2248:2253   */\n      dup3\n        /* \"#utility.yul\":2230:2254   */\n      tag_169\n      jump\t// in\n    tag_242:\n        /* \"#utility.yul\":2219:2254   */\n      swap1\n      pop\n        /* \"#utility.yul\":2164:2260   */\n      swap2\n      swap1\n      pop\n      jump\t// out\n        /* \"#utility.yul\":2266:2388   */\n    tag_171:\n        /* \"#utility.yul\":2339:2363   */\n      tag_244\n        /* \"#utility.yul\":2357:2362   */\n      dup2\n        /* \"#utility.yul\":2339:2363   */\n      tag_170\n      jump\t// in\n    tag_244:\n        /* \"#utility.yul\":2332:2337   */\n      dup2\n        /* \"#utility.yul\":2329:2364   */\n      eq\n        /* \"#utility.yul\":2319:2382   */\n      tag_245\n      jumpi\n        /* \"#utility.yul\":2378:2379   */\n      0x00\n        /* \"#utility.yul\":2375:2376   */\n      dup1\n        /* \"#utility.yul\":2368:2380   */\n      revert\n        /* \"#utility.yul\":2319:2382   */\n    tag_245:\n        /* \"#utility.yul\":2266:2388   */\n      pop\n      jump\t// out\n        /* \"#utility.yul\":2394:2533   */\n    tag_172:\n        /* \"#utility.yul\":2440:2445   */\n      0x00\n        /* \"#utility.yul\":2478:2484   */\n      dup2\n        /* \"#utility.yul\":2465:2485   */\n      calldataload\n        /* \"#utility.yul\":2456:2485   */\n      swap1\n      pop\n        /* \"#utility.yul\":2494:2527   */\n      tag_247\n        /* \"#utility.yul\":2521:2526   */\n      dup2\n        /* \"#utility.yul\":2494:2527   */\n      tag_171\n      jump\t// in\n    tag_247:\n        /* \"#utility.yul\":2394:2533   */\n      swap3\n      swap2\n      pop\n      pop\n      jump\t// out\n        /* \"#utility.yul\":2539:2868   */\n    tag_27:\n        /* \"#utility.yul\":2598:2604   */\n      0x00\n        /* \"#utility.yul\":2647:2649   */\n      0x20\n        /* \"#utility.yul\":2635:2644   */\n      dup3\n        /* \"#utility.yul\":2626:2633   */\n      dup5\n        /* \"#utility.yul\":2622:2645   */\n      sub\n        /* \"#utility.yul\":2618:2650   */\n      slt\n        /* \"#utility.yul\":2615:2734   */\n      iszero\n      tag_249\n      jumpi\n        /* \"#utility.yul\":2653:2732   */\n      tag_250\n      tag_160\n      jump\t// in\n    tag_250:\n        /* \"#utility.yul\":2615:2734   */\n    tag_249:\n        /* \"#utility.yul\":2773:2774   */\n      0x00\n        /* \"#utility.yul\":2798:2851   */\n      tag_251\n        /* \"#utility.yul\":2843:2850   */\n      dup5\n        /* \"#utility.yul\":2834:2840   */\n      dup3\n        /* \"#utility.yul\":2823:2832   */\n      dup6\n        /* \"#utility.yul\":2819:2841   */\n      add\n        /* \"#utility.yul\":2798:2851   */\n      tag_172\n      jump\t// in\n    tag_251:\n        /* \"#utility.yul\":2788:2851   */\n      swap2\n      pop\n        /* \"#utility.yul\":2744:2861   */\n      pop\n        /* \"#utility.yul\":2539:2868   */\n      swap3\n      swap2\n      pop\n      pop\n      jump\t// out\n        /* \"#utility.yul\":2874:2991   */\n    tag_173:\n        /* \"#utility.yul\":2983:2984   */\n      0x00\n        /* \"#utility.yul\":2980:2981   */\n      dup1\n        /* \"#utility.yul\":2973:2985   */\n      revert\n        /* \"#utility.yul\":2997:3114   */\n    tag_174:\n        /* \"#utility.yul\":3106:3107   */\n      0x00\n        /* \"#utility.yul\":3103:3104   */\n      dup1\n        /* \"#utility.yul\":3096:3108   */\n      revert\n        /* \"#utility.yul\":3120:3222   */\n    tag_175:\n        /* \"#utility.yul\":3161:3167   */\n      0x00\n        /* \"#utility.yul\":3212:3214   */\n      0x1f\n        /* \"#utility.yul\":3208:3215   */\n      not\n        /* \"#utility.yul\":3203:3205   */\n      0x1f\n        /* \"#utility.yul\":3196:3201   */\n      dup4\n        /* \"#utility.yul\":3192:3206   */\n      add\n        /* \"#utility.yul\":3188:3216   */\n      and\n        /* \"#utility.yul\":3178:3216   */\n      swap1\n      pop\n        /* \"#utility.yul\":3120:3222   */\n      swap2\n      swap1\n      pop\n      jump\t// out\n        /* \"#utility.yul\":3228:3408   */\n    tag_176:\n        /* \"#utility.yul\":3276:3353   */\n      0x4e487b7100000000000000000000000000000000000000000000000000000000\n        /* \"#utility.yul\":3273:3274   */\n      0x00\n        /* \"#utility.yul\":3266:3354   */\n      mstore\n        /* \"#utility.yul\":3373:3377   */\n      0x41\n        /* \"#utility.yul\":3370:3371   */\n      0x04\n        /* \"#utility.yul\":3363:3378   */\n      mstore\n        /* \"#utility.yul\":3397:3401   */\n      0x24\n        /* \"#utility.yul\":3394:3395   */\n      0x00\n        /* \"#utility.yul\":3387:3402   */\n      revert\n        /* \"#utility.yul\":3414:3695   */\n    tag_177:\n        /* \"#utility.yul\":3497:3524   */\n      tag_257\n        /* \"#utility.yul\":3519:3523   */\n      dup3\n        /* \"#utility.yul\":3497:3524   */\n      tag_175\n      jump\t// in\n    tag_257:\n        /* \"#utility.yul\":3489:3495   */\n      dup2\n        /* \"#utility.yul\":3485:3525   */\n      add\n        /* \"#utility.yul\":3627:3633   */\n      dup2\n        /* \"#utility.yul\":3615:3625   */\n      dup2\n        /* \"#utility.yul\":3612:3634   */\n      lt\n        /* \"#utility.yul\":3591:3609   */\n      0xffffffffffffffff\n        /* \"#utility.yul\":3579:3589   */\n      dup3\n        /* \"#utility.yul\":3576:3610   */\n      gt\n        /* \"#utility.yul\":3573:3635   */\n      or\n        /* \"#utility.yul\":3570:3658   */\n      iszero\n      tag_258\n      jumpi\n        /* \"#utility.yul\":3638:3656   */\n      tag_259\n      tag_176\n      jump\t// in\n    tag_259:\n        /* \"#utility.yul\":3570:3658   */\n    tag_258:\n        /* \"#utility.yul\":3678:3688   */\n      dup1\n        /* \"#utility.yul\":3674:3676   */\n      0x40\n        /* \"#utility.yul\":3667:3689   */\n      mstore\n        /* \"#utility.yul\":3457:3695   */\n      pop\n        /* \"#utility.yul\":3414:3695   */\n      pop\n      pop\n      jump\t// out\n        /* \"#utility.yul\":3701:3830   */\n    tag_178:\n        /* \"#utility.yul\":3735:3741   */\n      0x00\n        /* \"#utility.yul\":3762:3782   */\n      tag_261\n      tag_159\n      jump\t// in\n    tag_261:\n        /* \"#utility.yul\":3752:3782   */\n      swap1\n      pop\n        /* \"#utility.yul\":3791:3824   */\n      tag_262\n        /* \"#utility.yul\":3819:3823   */\n      dup3\n        /* \"#utility.yul\":3811:3817   */\n      dup3\n        /* \"#utility.yul\":3791:3824   */\n      tag_177\n      jump\t// in\n    tag_262:\n        /* \"#utility.yul\":3701:3830   */\n      swap2\n      swap1\n      pop\n      jump\t// out\n        /* \"#utility.yul\":3836:4143   */\n    tag_179:\n        /* \"#utility.yul\":3897:3901   */\n      0x00\n        /* \"#utility.yul\":3987:4005   */\n      0xffffffffffffffff\n        /* \"#utility.yul\":3979:3985   */\n      dup3\n        /* \"#utility.yul\":3976:4006   */\n      gt\n        /* \"#utility.yul\":3973:4029   */\n      iszero\n      tag_264\n      jumpi\n        /* \"#utility.yul\":4009:4027   */\n      tag_265\n      tag_176\n      jump\t// in\n    tag_265:\n        /* \"#utility.yul\":3973:4029   */\n    tag_264:\n        /* \"#utility.yul\":4047:4076   */\n      tag_266\n        /* \"#utility.yul\":4069:4075   */\n      dup3\n        /* \"#utility.yul\":4047:4076   */\n      tag_175\n      jump\t// in\n    tag_266:\n        /* \"#utility.yul\":4039:4076   */\n      swap1\n      pop\n        /* \"#utility.yul\":4131:4135   */\n      0x20\n        /* \"#utility.yul\":4125:4129   */\n      dup2\n        /* \"#utility.yul\":4121:4136   */\n      add\n        /* \"#utility.yul\":4113:4136   */\n      swap1\n      pop\n        /* \"#utility.yul\":3836:4143   */\n      swap2\n      swap1\n      pop\n      jump\t// out\n        /* \"#utility.yul\":4149:4295   */\n    tag_180:\n        /* \"#utility.yul\":4246:4252   */\n      dup3\n        /* \"#utility.yul\":4241:4244   */\n      dup2\n        /* \"#utility.yul\":4236:4239   */\n      dup4\n        /* \"#utility.yul\":4223:4253   */\n      calldatacopy\n        /* \"#utility.yul\":4287:4288   */\n      0x00\n        /* \"#utility.yul\":4278:4284   */\n      dup4\n        /* \"#utility.yul\":4273:4276   */\n      dup4\n        /* \"#utility.yul\":4269:4285   */\n      add\n        /* \"#utility.yul\":4262:4289   */\n      mstore\n        /* \"#utility.yul\":4149:4295   */\n      pop\n      pop\n      pop\n      jump\t// out\n        /* \"#utility.yul\":4301:4724   */\n    tag_181:\n        /* \"#utility.yul\":4378:4383   */\n      0x00\n        /* \"#utility.yul\":4403:4468   */\n      tag_269\n        /* \"#utility.yul\":4419:4467   */\n      tag_270\n        /* \"#utility.yul\":4460:4466   */\n      dup5\n        /* \"#utility.yul\":4419:4467   */\n      tag_179\n      jump\t// in\n    tag_270:\n        /* \"#utility.yul\":4403:4468   */\n      tag_178\n      jump\t// in\n    tag_269:\n        /* \"#utility.yul\":4394:4468   */\n      swap1\n      pop\n        /* \"#utility.yul\":4491:4497   */\n      dup3\n        /* \"#utility.yul\":4484:4489   */\n      dup2\n        /* \"#utility.yul\":4477:4498   */\n      mstore\n        /* \"#utility.yul\":4529:4533   */\n      0x20\n        /* \"#utility.yul\":4522:4527   */\n      dup2\n        /* \"#utility.yul\":4518:4534   */\n      add\n        /* \"#utility.yul\":4567:4570   */\n      dup5\n        /* \"#utility.yul\":4558:4564   */\n      dup5\n        /* \"#utility.yul\":4553:4556   */\n      dup5\n        /* \"#utility.yul\":4549:4565   */\n      add\n        /* \"#utility.yul\":4546:4571   */\n      gt\n        /* \"#utility.yul\":4543:4655   */\n      iszero\n      tag_271\n      jumpi\n        /* \"#utility.yul\":4574:4653   */\n      tag_272\n      tag_174\n      jump\t// in\n    tag_272:\n        /* \"#utility.yul\":4543:4655   */\n    tag_271:\n        /* \"#utility.yul\":4664:4718   */\n      tag_273\n        /* \"#utility.yul\":4711:4717   */\n      dup5\n        /* \"#utility.yul\":4706:4709   */\n      dup3\n        /* \"#utility.yul\":4701:4704   */\n      dup6\n        /* \"#utility.yul\":4664:4718   */\n      tag_180\n      jump\t// in\n    tag_273:\n        /* \"#utility.yul\":4384:4724   */\n      pop\n        /* \"#utility.yul\":4301:4724   */\n      swap4\n      swap3\n      pop\n      pop\n      pop\n      jump\t// out\n        /* \"#utility.yul\":4743:5081   */\n    tag_182:\n        /* \"#utility.yul\":4798:4803   */\n      0x00\n        /* \"#utility.yul\":4847:4850   */\n      dup3\n        /* \"#utility.yul\":4840:4844   */\n      0x1f\n        /* \"#utility.yul\":4832:4838   */\n      dup4\n        /* \"#utility.yul\":4828:4845   */\n      add\n        /* \"#utility.yul\":4824:4851   */\n      slt\n        /* \"#utility.yul\":4814:4936   */\n      tag_275\n      jumpi\n        /* \"#utility.yul\":4855:4934   */\n      tag_276\n      tag_173\n      jump\t// in\n    tag_276:\n        /* \"#utility.yul\":4814:4936   */\n    tag_275:\n        /* \"#utility.yul\":4972:4978   */\n      dup2\n        /* \"#utility.yul\":4959:4979   */\n      calldataload\n        /* \"#utility.yul\":4997:5075   */\n      tag_277\n        /* \"#utility.yul\":5071:5074   */\n      dup5\n        /* \"#utility.yul\":5063:5069   */\n      dup3\n        /* \"#utility.yul\":5056:5060   */\n      0x20\n        /* \"#utility.yul\":5048:5054   */\n      dup7\n        /* \"#utility.yul\":5044:5061   */\n      add\n        /* \"#utility.yul\":4997:5075   */\n      tag_181\n      jump\t// in\n    tag_277:\n        /* \"#utility.yul\":4988:5075   */\n      swap2\n      pop\n        /* \"#utility.yul\":4804:5081   */\n      pop\n        /* \"#utility.yul\":4743:5081   */\n      swap3\n      swap2\n      pop\n      pop\n      jump\t// out\n        /* \"#utility.yul\":5087:5594   */\n    tag_31:\n        /* \"#utility.yul\":5155:5161   */\n      0x00\n        /* \"#utility.yul\":5204:5206   */\n      0x20\n        /* \"#utility.yul\":5192:5201   */\n      dup3\n        /* \"#utility.yul\":5183:5190   */\n      dup5\n        /* \"#utility.yul\":5179:5202   */\n      sub\n        /* \"#utility.yul\":5175:5207   */\n      slt\n        /* \"#utility.yul\":5172:5291   */\n      iszero\n      tag_279\n      jumpi\n        /* \"#utility.yul\":5210:5289   */\n      tag_280\n      tag_160\n      jump\t// in\n    tag_280:\n        /* \"#utility.yul\":5172:5291   */\n    tag_279:\n        /* \"#utility.yul\":5358:5359   */\n      0x00\n        /* \"#utility.yul\":5347:5356   */\n      dup3\n        /* \"#utility.yul\":5343:5360   */\n      add\n        /* \"#utility.yul\":5330:5361   */\n      calldataload\n        /* \"#utility.yul\":5388:5406   */\n      0xffffffffffffffff\n        /* \"#utility.yul\":5380:5386   */\n      dup2\n        /* \"#utility.yul\":5377:5407   */\n      gt\n        /* \"#utility.yul\":5374:5491   */\n      iszero\n      tag_281\n      jumpi\n        /* \"#utility.yul\":5410:5489   */\n      tag_282\n      tag_161\n      jump\t// in\n    tag_282:\n        /* \"#utility.yul\":5374:5491   */\n    tag_281:\n        /* \"#utility.yul\":5515:5577   */\n      tag_283\n        /* \"#utility.yul\":5569:5576   */\n      dup5\n        /* \"#utility.yul\":5560:5566   */\n      dup3\n        /* \"#utility.yul\":5549:5558   */\n      dup6\n        /* \"#utility.yul\":5545:5567   */\n      add\n        /* \"#utility.yul\":5515:5577   */\n      tag_182\n      jump\t// in\n    tag_283:\n        /* \"#utility.yul\":5505:5577   */\n      swap2\n      pop\n        /* \"#utility.yul\":5301:5587   */\n      pop\n        /* \"#utility.yul\":5087:5594   */\n      swap3\n      swap2\n      pop\n      pop\n      jump\t// out\n        /* \"#utility.yul\":5600:5722   */\n    tag_183:\n        /* \"#utility.yul\":5673:5697   */\n      tag_285\n        /* \"#utility.yul\":5691:5696   */\n      dup2\n        /* \"#utility.yul\":5673:5697   */\n      tag_167\n      jump\t// in\n    tag_285:\n        /* \"#utility.yul\":5666:5671   */\n      dup2\n        /* \"#utility.yul\":5663:5698   */\n      eq\n        /* \"#utility.yul\":5653:5716   */\n      tag_286\n      jumpi\n        /* \"#utility.yul\":5712:5713   */\n      0x00\n        /* \"#utility.yul\":5709:5710   */\n      dup1\n        /* \"#utility.yul\":5702:5714   */\n      revert\n        /* \"#utility.yul\":5653:5716   */\n    tag_286:\n        /* \"#utility.yul\":5600:5722   */\n      pop\n      jump\t// out\n        /* \"#utility.yul\":5728:5867   */\n    tag_184:\n        /* \"#utility.yul\":5774:5779   */\n      0x00\n        /* \"#utility.yul\":5812:5818   */\n      dup2\n        /* \"#utility.yul\":5799:5819   */\n      calldataload\n        /* \"#utility.yul\":5790:5819   */\n      swap1\n      pop\n        /* \"#utility.yul\":5828:5861   */\n      tag_288\n        /* \"#utility.yul\":5855:5860   */\n      dup2\n        /* \"#utility.yul\":5828:5861   */\n      tag_183\n      jump\t// in\n    tag_288:\n        /* \"#utility.yul\":5728:5867   */\n      swap3\n      swap2\n      pop\n      pop\n      jump\t// out\n        /* \"#utility.yul\":5873:5990   */\n    tag_185:\n        /* \"#utility.yul\":5982:5983   */\n      0x00\n        /* \"#utility.yul\":5979:5980   */\n      dup1\n        /* \"#utility.yul\":5972:5984   */\n      revert\n        /* \"#utility.yul\":5996:6113   */\n    tag_186:\n        /* \"#utility.yul\":6105:6106   */\n      0x00\n        /* \"#utility.yul\":6102:6103   */\n      dup1\n        /* \"#utility.yul\":6095:6107   */\n      revert\n        /* \"#utility.yul\":6132:6684   */\n    tag_187:\n        /* \"#utility.yul\":6189:6197   */\n      0x00\n        /* \"#utility.yul\":6199:6205   */\n      dup1\n        /* \"#utility.yul\":6249:6252   */\n      dup4\n        /* \"#utility.yul\":6242:6246   */\n      0x1f\n        /* \"#utility.yul\":6234:6240   */\n      dup5\n        /* \"#utility.yul\":6230:6247   */\n      add\n        /* \"#utility.yul\":6226:6253   */\n      slt\n        /* \"#utility.yul\":6216:6338   */\n      tag_292\n      jumpi\n        /* \"#utility.yul\":6257:6336   */\n      tag_293\n      tag_173\n      jump\t// in\n    tag_293:\n        /* \"#utility.yul\":6216:6338   */\n    tag_292:\n        /* \"#utility.yul\":6370:6376   */\n      dup3\n        /* \"#utility.yul\":6357:6377   */\n      calldataload\n        /* \"#utility.yul\":6347:6377   */\n      swap1\n      pop\n        /* \"#utility.yul\":6400:6418   */\n      0xffffffffffffffff\n        /* \"#utility.yul\":6392:6398   */\n      dup2\n        /* \"#utility.yul\":6389:6419   */\n      gt\n        /* \"#utility.yul\":6386:6503   */\n      iszero\n      tag_294\n      jumpi\n        /* \"#utility.yul\":6422:6501   */\n      tag_295\n      tag_185\n      jump\t// in\n    tag_295:\n        /* \"#utility.yul\":6386:6503   */\n    tag_294:\n        /* \"#utility.yul\":6536:6540   */\n      0x20\n        /* \"#utility.yul\":6528:6534   */\n      dup4\n        /* \"#utility.yul\":6524:6541   */\n      add\n        /* \"#utility.yul\":6512:6541   */\n      swap2\n      pop\n        /* \"#utility.yul\":6590:6593   */\n      dup4\n        /* \"#utility.yul\":6582:6586   */\n      0x01\n        /* \"#utility.yul\":6574:6580   */\n      dup3\n        /* \"#utility.yul\":6570:6587   */\n      mul\n        /* \"#utility.yul\":6560:6568   */\n      dup4\n        /* \"#utility.yul\":6556:6588   */\n      add\n        /* \"#utility.yul\":6553:6594   */\n      gt\n        /* \"#utility.yul\":6550:6678   */\n      iszero\n      tag_296\n      jumpi\n        /* \"#utility.yul\":6597:6676   */\n      tag_297\n      tag_186\n      jump\t// in\n    tag_297:\n        /* \"#utility.yul\":6550:6678   */\n    tag_296:\n        /* \"#utility.yul\":6132:6684   */\n      swap3\n      pop\n      swap3\n      swap1\n      pop\n      jump\t// out\n        /* \"#utility.yul\":6690:7362   */\n    tag_42:\n        /* \"#utility.yul\":6769:6775   */\n      0x00\n        /* \"#utility.yul\":6777:6783   */\n      dup1\n        /* \"#utility.yul\":6785:6791   */\n      0x00\n        /* \"#utility.yul\":6834:6836   */\n      0x40\n        /* \"#utility.yul\":6822:6831   */\n      dup5\n        /* \"#utility.yul\":6813:6820   */\n      dup7\n        /* \"#utility.yul\":6809:6832   */\n      sub\n        /* \"#utility.yul\":6805:6837   */\n      slt\n        /* \"#utility.yul\":6802:6921   */\n      iszero\n      tag_299\n      jumpi\n        /* \"#utility.yul\":6840:6919   */\n      tag_300\n      tag_160\n      jump\t// in\n    tag_300:\n        /* \"#utility.yul\":6802:6921   */\n    tag_299:\n        /* \"#utility.yul\":6960:6961   */\n      0x00\n        /* \"#utility.yul\":6985:7038   */\n      tag_301\n        /* \"#utility.yul\":7030:7037   */\n      dup7\n        /* \"#utility.yul\":7021:7027   */\n      dup3\n        /* \"#utility.yul\":7010:7019   */\n      dup8\n        /* \"#utility.yul\":7006:7028   */\n      add\n        /* \"#utility.yul\":6985:7038   */\n      tag_184\n      jump\t// in\n    tag_301:\n        /* \"#utility.yul\":6975:7038   */\n      swap4\n      pop\n        /* \"#utility.yul\":6931:7048   */\n      pop\n        /* \"#utility.yul\":7115:7117   */\n      0x20\n        /* \"#utility.yul\":7104:7113   */\n      dup5\n        /* \"#utility.yul\":7100:7118   */\n      add\n        /* \"#utility.yul\":7087:7119   */\n      calldataload\n        /* \"#utility.yul\":7146:7164   */\n      0xffffffffffffffff\n        /* \"#utility.yul\":7138:7144   */\n      dup2\n        /* \"#utility.yul\":7135:7165   */\n      gt\n        /* \"#utility.yul\":7132:7249   */\n      iszero\n      tag_302\n      jumpi\n        /* \"#utility.yul\":7168:7247   */\n      tag_303\n      tag_161\n      jump\t// in\n    tag_303:\n        /* \"#utility.yul\":7132:7249   */\n    tag_302:\n        /* \"#utility.yul\":7281:7345   */\n      tag_304\n        /* \"#utility.yul\":7337:7344   */\n      dup7\n        /* \"#utility.yul\":7328:7334   */\n      dup3\n        /* \"#utility.yul\":7317:7326   */\n      dup8\n        /* \"#utility.yul\":7313:7335   */\n      add\n        /* \"#utility.yul\":7281:7345   */\n      tag_187\n      jump\t// in\n    tag_304:\n        /* \"#utility.yul\":7263:7345   */\n      swap3\n      pop\n      swap3\n      pop\n        /* \"#utility.yul\":7058:7355   */\n      pop\n        /* \"#utility.yul\":6690:7362   */\n      swap3\n      pop\n      swap3\n      pop\n      swap3\n      jump\t// out\n        /* \"#utility.yul\":7368:7697   */\n    tag_46:\n        /* \"#utility.yul\":7427:7433   */\n      0x00\n        /* \"#utility.yul\":7476:7478   */\n      0x20\n        /* \"#utility.yul\":7464:7473   */\n      dup3\n        /* \"#utility.yul\":7455:7462   */\n      dup5\n        /* \"#utility.yul\":7451:7474   */\n      sub\n        /* \"#utility.yul\":7447:7479   */\n      slt\n        /* \"#utility.yul\":7444:7563   */\n      iszero\n      tag_306\n      jumpi\n        /* \"#utility.yul\":7482:7561   */\n      tag_307\n      tag_160\n      jump\t// in\n    tag_307:\n        /* \"#utility.yul\":7444:7563   */\n    tag_306:\n        /* \"#utility.yul\":7602:7603   */\n      0x00\n        /* \"#utility.yul\":7627:7680   */\n      tag_308\n        /* \"#utility.yul\":7672:7679   */\n      dup5\n        /* \"#utility.yul\":7663:7669   */\n      dup3\n        /* \"#utility.yul\":7652:7661   */\n      dup6\n        /* \"#utility.yul\":7648:7670   */\n      add\n        /* \"#utility.yul\":7627:7680   */\n      tag_184\n      jump\t// in\n    tag_308:\n        /* \"#utility.yul\":7617:7680   */\n      swap2\n      pop\n        /* \"#utility.yul\":7573:7690   */\n      pop\n        /* \"#utility.yul\":7368:7697   */\n      swap3\n      swap2\n      pop\n      pop\n      jump\t// out\n        /* \"#utility.yul\":7703:7801   */\n    tag_188:\n        /* \"#utility.yul\":7754:7760   */\n      0x00\n        /* \"#utility.yul\":7788:7793   */\n      dup2\n        /* \"#utility.yul\":7782:7794   */\n      mload\n        /* \"#utility.yul\":7772:7794   */\n      swap1\n      pop\n        /* \"#utility.yul\":7703:7801   */\n      swap2\n      swap1\n      pop\n      jump\t// out\n        /* \"#utility.yul\":7807:7975   */\n    tag_189:\n        /* \"#utility.yul\":7890:7901   */\n      0x00\n        /* \"#utility.yul\":7924:7930   */\n      dup3\n        /* \"#utility.yul\":7919:7922   */\n      dup3\n        /* \"#utility.yul\":7912:7931   */\n      mstore\n        /* \"#utility.yul\":7964:7968   */\n      0x20\n        /* \"#utility.yul\":7959:7962   */\n      dup3\n        /* \"#utility.yul\":7955:7969   */\n      add\n        /* \"#utility.yul\":7940:7969   */\n      swap1\n      pop\n        /* \"#utility.yul\":7807:7975   */\n      swap3\n      swap2\n      pop\n      pop\n      jump\t// out\n        /* \"#utility.yul\":7981:8227   */\n    tag_190:\n        /* \"#utility.yul\":8062:8063   */\n      0x00\n        /* \"#utility.yul\":8072:8185   */\n    tag_312:\n        /* \"#utility.yul\":8086:8092   */\n      dup4\n        /* \"#utility.yul\":8083:8084   */\n      dup2\n        /* \"#utility.yul\":8080:8093   */\n      lt\n        /* \"#utility.yul\":8072:8185   */\n      iszero\n      tag_314\n      jumpi\n        /* \"#utility.yul\":8171:8172   */\n      dup1\n        /* \"#utility.yul\":8166:8169   */\n      dup3\n        /* \"#utility.yul\":8162:8173   */\n      add\n        /* \"#utility.yul\":8156:8174   */\n      mload\n        /* \"#utility.yul\":8152:8153   */\n      dup2\n        /* \"#utility.yul\":8147:8150   */\n      dup5\n        /* \"#utility.yul\":8143:8154   */\n      add\n        /* \"#utility.yul\":8136:8175   */\n      mstore\n        /* \"#utility.yul\":8108:8110   */\n      0x20\n        /* \"#utility.yul\":8105:8106   */\n      dup2\n        /* \"#utility.yul\":8101:8111   */\n      add\n        /* \"#utility.yul\":8096:8111   */\n      swap1\n      pop\n        /* \"#utility.yul\":8072:8185   */\n      jump(tag_312)\n    tag_314:\n        /* \"#utility.yul\":8219:8220   */\n      0x00\n        /* \"#utility.yul\":8210:8216   */\n      dup5\n        /* \"#utility.yul\":8205:8208   */\n      dup5\n        /* \"#utility.yul\":8201:8217   */\n      add\n        /* \"#utility.yul\":8194:8221   */\n      mstore\n        /* \"#utility.yul\":8043:8227   */\n      pop\n        /* \"#utility.yul\":7981:8227   */\n      pop\n      pop\n      pop\n      jump\t// out\n        /* \"#utility.yul\":8233:8606   */\n    tag_191:\n        /* \"#utility.yul\":8319:8322   */\n      0x00\n        /* \"#utility.yul\":8347:8385   */\n      tag_316\n        /* \"#utility.yul\":8379:8384   */\n      dup3\n        /* \"#utility.yul\":8347:8385   */\n      tag_188\n      jump\t// in\n    tag_316:\n        /* \"#utility.yul\":8401:8471   */\n      tag_317\n        /* \"#utility.yul\":8464:8470   */\n      dup2\n        /* \"#utility.yul\":8459:8462   */\n      dup6\n        /* \"#utility.yul\":8401:8471   */\n      tag_189\n      jump\t// in\n    tag_317:\n        /* \"#utility.yul\":8394:8471   */\n      swap4\n      pop\n        /* \"#utility.yul\":8480:8545   */\n      tag_318\n        /* \"#utility.yul\":8538:8544   */\n      dup2\n        /* \"#utility.yul\":8533:8536   */\n      dup6\n        /* \"#utility.yul\":8526:8530   */\n      0x20\n        /* \"#utility.yul\":8519:8524   */\n      dup7\n        /* \"#utility.yul\":8515:8531   */\n      add\n        /* \"#utility.yul\":8480:8545   */\n      tag_190\n      jump\t// in\n    tag_318:\n        /* \"#utility.yul\":8570:8599   */\n      tag_319\n        /* \"#utility.yul\":8592:8598   */\n      dup2\n        /* \"#utility.yul\":8570:8599   */\n      tag_175\n      jump\t// in\n    tag_319:\n        /* \"#utility.yul\":8565:8568   */\n      dup5\n        /* \"#utility.yul\":8561:8600   */\n      add\n        /* \"#utility.yul\":8554:8600   */\n      swap2\n      pop\n        /* \"#utility.yul\":8323:8606   */\n      pop\n        /* \"#utility.yul\":8233:8606   */\n      swap3\n      swap2\n      pop\n      pop\n      jump\t// out\n        /* \"#utility.yul\":8612:8921   */\n    tag_49:\n        /* \"#utility.yul\":8723:8727   */\n      0x00\n        /* \"#utility.yul\":8761:8763   */\n      0x20\n        /* \"#utility.yul\":8750:8759   */\n      dup3\n        /* \"#utility.yul\":8746:8764   */\n      add\n        /* \"#utility.yul\":8738:8764   */\n      swap1\n      pop\n        /* \"#utility.yul\":8810:8819   */\n      dup2\n        /* \"#utility.yul\":8804:8808   */\n      dup2\n        /* \"#utility.yul\":8800:8820   */\n      sub\n        /* \"#utility.yul\":8796:8797   */\n      0x00\n        /* \"#utility.yul\":8785:8794   */\n      dup4\n        /* \"#utility.yul\":8781:8798   */\n      add\n        /* \"#utility.yul\":8774:8821   */\n      mstore\n        /* \"#utility.yul\":8838:8914   */\n      tag_321\n        /* \"#utility.yul\":8909:8913   */\n      dup2\n        /* \"#utility.yul\":8900:8906   */\n      dup5\n        /* \"#utility.yul\":8838:8914   */\n      tag_191\n      jump\t// in\n    tag_321:\n        /* \"#utility.yul\":8830:8914   */\n      swap1\n      pop\n        /* \"#utility.yul\":8612:8921   */\n      swap3\n      swap2\n      pop\n      pop\n      jump\t// out\n        /* \"#utility.yul\":8927:9045   */\n    tag_192:\n        /* \"#utility.yul\":9014:9038   */\n      tag_323\n        /* \"#utility.yul\":9032:9037   */\n      dup2\n        /* \"#utility.yul\":9014:9038   */\n      tag_162\n      jump\t// in\n    tag_323:\n        /* \"#utility.yul\":9009:9012   */\n      dup3\n        /* \"#utility.yul\":9002:9039   */\n      mstore\n        /* \"#utility.yul\":8927:9045   */\n      pop\n      pop\n      jump\t// out\n        /* \"#utility.yul\":9051:9383   */\n    tag_64:\n        /* \"#utility.yul\":9172:9176   */\n      0x00\n        /* \"#utility.yul\":9210:9212   */\n      0x40\n        /* \"#utility.yul\":9199:9208   */\n      dup3\n        /* \"#utility.yul\":9195:9213   */\n      add\n        /* \"#utility.yul\":9187:9213   */\n      swap1\n      pop\n        /* \"#utility.yul\":9223:9294   */\n      tag_325\n        /* \"#utility.yul\":9291:9292   */\n      0x00\n        /* \"#utility.yul\":9280:9289   */\n      dup4\n        /* \"#utility.yul\":9276:9293   */\n      add\n        /* \"#utility.yul\":9267:9273   */\n      dup6\n        /* \"#utility.yul\":9223:9294   */\n      tag_192\n      jump\t// in\n    tag_325:\n        /* \"#utility.yul\":9304:9376   */\n      tag_326\n        /* \"#utility.yul\":9372:9374   */\n      0x20\n        /* \"#utility.yul\":9361:9370   */\n      dup4\n        /* \"#utility.yul\":9357:9375   */\n      add\n        /* \"#utility.yul\":9348:9354   */\n      dup5\n        /* \"#utility.yul\":9304:9376   */\n      tag_192\n      jump\t// in\n    tag_326:\n        /* \"#utility.yul\":9051:9383   */\n      swap4\n      swap3\n      pop\n      pop\n      pop\n      jump\t// out\n        /* \"#utility.yul\":9389:9536   */\n    tag_193:\n        /* \"#utility.yul\":9490:9501   */\n      0x00\n        /* \"#utility.yul\":9527:9530   */\n      dup2\n        /* \"#utility.yul\":9512:9530   */\n      swap1\n      pop\n        /* \"#utility.yul\":9389:9536   */\n      swap3\n      swap2\n      pop\n      pop\n      jump\t// out\n        /* \"#utility.yul\":9542:9928   */\n    tag_194:\n        /* \"#utility.yul\":9646:9649   */\n      0x00\n        /* \"#utility.yul\":9674:9712   */\n      tag_329\n        /* \"#utility.yul\":9706:9711   */\n      dup3\n        /* \"#utility.yul\":9674:9712   */\n      tag_188\n      jump\t// in\n    tag_329:\n        /* \"#utility.yul\":9728:9816   */\n      tag_330\n        /* \"#utility.yul\":9809:9815   */\n      dup2\n        /* \"#utility.yul\":9804:9807   */\n      dup6\n        /* \"#utility.yul\":9728:9816   */\n      tag_193\n      jump\t// in\n    tag_330:\n        /* \"#utility.yul\":9721:9816   */\n      swap4\n      pop\n        /* \"#utility.yul\":9825:9890   */\n      tag_331\n        /* \"#utility.yul\":9883:9889   */\n      dup2\n        /* \"#utility.yul\":9878:9881   */\n      dup6\n        /* \"#utility.yul\":9871:9875   */\n      0x20\n        /* \"#utility.yul\":9864:9869   */\n      dup7\n        /* \"#utility.yul\":9860:9876   */\n      add\n        /* \"#utility.yul\":9825:9890   */\n      tag_190\n      jump\t// in\n    tag_331:\n        /* \"#utility.yul\":9915:9921   */\n      dup1\n        /* \"#utility.yul\":9910:9913   */\n      dup5\n        /* \"#utility.yul\":9906:9922   */\n      add\n        /* \"#utility.yul\":9899:9922   */\n      swap2\n      pop\n        /* \"#utility.yul\":9650:9928   */\n      pop\n        /* \"#utility.yul\":9542:9928   */\n      swap3\n      swap2\n      pop\n      pop\n      jump\t// out\n        /* \"#utility.yul\":9934:10205   */\n    tag_66:\n        /* \"#utility.yul\":10064:10067   */\n      0x00\n        /* \"#utility.yul\":10086:10179   */\n      tag_333\n        /* \"#utility.yul\":10175:10178   */\n      dup3\n        /* \"#utility.yul\":10166:10172   */\n      dup5\n        /* \"#utility.yul\":10086:10179   */\n      tag_194\n      jump\t// in\n    tag_333:\n        /* \"#utility.yul\":10079:10179   */\n      swap2\n      pop\n        /* \"#utility.yul\":10196:10199   */\n      dup2\n        /* \"#utility.yul\":10189:10199   */\n      swap1\n      pop\n        /* \"#utility.yul\":9934:10205   */\n      swap3\n      swap2\n      pop\n      pop\n      jump\t// out\n        /* \"#utility.yul\":10211:10391   */\n    tag_195:\n        /* \"#utility.yul\":10259:10336   */\n      0x4e487b7100000000000000000000000000000000000000000000000000000000\n        /* \"#utility.yul\":10256:10257   */\n      0x00\n        /* \"#utility.yul\":10249:10337   */\n      mstore\n        /* \"#utility.yul\":10356:10360   */\n      0x11\n        /* \"#utility.yul\":10353:10354   */\n      0x04\n        /* \"#utility.yul\":10346:10361   */\n      mstore\n        /* \"#utility.yul\":10380:10384   */\n      0x24\n        /* \"#utility.yul\":10377:10378   */\n      0x00\n        /* \"#utility.yul\":10370:10385   */\n      revert\n        /* \"#utility.yul\":10397:10591   */\n    tag_70:\n        /* \"#utility.yul\":10437:10441   */\n      0x00\n        /* \"#utility.yul\":10457:10477   */\n      tag_336\n        /* \"#utility.yul\":10475:10476   */\n      dup3\n        /* \"#utility.yul\":10457:10477   */\n      tag_167\n      jump\t// in\n    tag_336:\n        /* \"#utility.yul\":10452:10477   */\n      swap2\n      pop\n        /* \"#utility.yul\":10491:10511   */\n      tag_337\n        /* \"#utility.yul\":10509:10510   */\n      dup4\n        /* \"#utility.yul\":10491:10511   */\n      tag_167\n      jump\t// in\n    tag_337:\n        /* \"#utility.yul\":10486:10511   */\n      swap3\n      pop\n        /* \"#utility.yul\":10535:10536   */\n      dup3\n        /* \"#utility.yul\":10532:10533   */\n      dup3\n        /* \"#utility.yul\":10528:10537   */\n      sub\n        /* \"#utility.yul\":10520:10537   */\n      swap1\n      pop\n        /* \"#utility.yul\":10559:10560   */\n      dup2\n        /* \"#utility.yul\":10553:10557   */\n      dup2\n        /* \"#utility.yul\":10550:10561   */\n      gt\n        /* \"#utility.yul\":10547:10584   */\n      iszero\n      tag_338\n      jumpi\n        /* \"#utility.yul\":10564:10582   */\n      tag_339\n      tag_195\n      jump\t// in\n    tag_339:\n        /* \"#utility.yul\":10547:10584   */\n    tag_338:\n        /* \"#utility.yul\":10397:10591   */\n      swap3\n      swap2\n      pop\n      pop\n      jump\t// out\n        /* \"#utility.yul\":10597:10715   */\n    tag_196:\n        /* \"#utility.yul\":10684:10708   */\n      tag_341\n        /* \"#utility.yul\":10702:10707   */\n      dup2\n        /* \"#utility.yul\":10684:10708   */\n      tag_170\n      jump\t// in\n    tag_341:\n        /* \"#utility.yul\":10679:10682   */\n      dup3\n        /* \"#utility.yul\":10672:10709   */\n      mstore\n        /* \"#utility.yul\":10597:10715   */\n      pop\n      pop\n      jump\t// out\n        /* \"#utility.yul\":10721:10943   */\n    tag_77:\n        /* \"#utility.yul\":10814:10818   */\n      0x00\n        /* \"#utility.yul\":10852:10854   */\n      0x20\n        /* \"#utility.yul\":10841:10850   */\n      dup3\n        /* \"#utility.yul\":10837:10855   */\n      add\n        /* \"#utility.yul\":10829:10855   */\n      swap1\n      pop\n        /* \"#utility.yul\":10865:10936   */\n      tag_343\n        /* \"#utility.yul\":10933:10934   */\n      0x00\n        /* \"#utility.yul\":10922:10931   */\n      dup4\n        /* \"#utility.yul\":10918:10935   */\n      add\n        /* \"#utility.yul\":10909:10915   */\n      dup5\n        /* \"#utility.yul\":10865:10936   */\n      tag_196\n      jump\t// in\n    tag_343:\n        /* \"#utility.yul\":10721:10943   */\n      swap3\n      swap2\n      pop\n      pop\n      jump\t// out\n        /* \"#utility.yul\":10949:11182   */\n    tag_80:\n        /* \"#utility.yul\":10988:10991   */\n      0x00\n        /* \"#utility.yul\":11011:11035   */\n      tag_345\n        /* \"#utility.yul\":11029:11034   */\n      dup3\n        /* \"#utility.yul\":11011:11035   */\n      tag_167\n      jump\t// in\n    tag_345:\n        /* \"#utility.yul\":11002:11035   */\n      swap2\n      pop\n        /* \"#utility.yul\":11057:11123   */\n      0xffffffffffffffffffffffffffffffffffffffffffffffffffffffffffffffff\n        /* \"#utility.yul\":11050:11055   */\n      dup3\n        /* \"#utility.yul\":11047:11124   */\n      sub\n        /* \"#utility.yul\":11044:11147   */\n      tag_346\n      jumpi\n        /* \"#utility.yul\":11127:11145   */\n      tag_347\n      tag_195\n      jump\t// in\n    tag_347:\n        /* \"#utility.yul\":11044:11147   */\n    tag_346:\n        /* \"#utility.yul\":11174:11175   */\n      0x01\n        /* \"#utility.yul\":11167:11172   */\n      dup3\n        /* \"#utility.yul\":11163:11176   */\n      add\n        /* \"#utility.yul\":11156:11176   */\n      swap1\n      pop\n        /* \"#utility.yul\":10949:11182   */\n      swap2\n      swap1\n      pop\n      jump\t// out\n        /* \"#utility.yul\":11188:11368   */\n    tag_197:\n        /* \"#utility.yul\":11236:11313   */\n      0x4e487b7100000000000000000000000000000000000000000000000000000000\n        /* \"#utility.yul\":11233:11234   */\n      0x00\n        /* \"#utility.yul\":11226:11314   */\n      mstore\n        /* \"#utility.yul\":11333:11337   */\n      0x22\n        /* \"#utility.yul\":11330:11331   */\n      0x04\n        /* \"#utility.yul\":11323:11338   */\n      mstore\n        /* \"#utility.yul\":11357:11361   */\n      0x24\n        /* \"#utility.yul\":11354:11355   */\n      0x00\n        /* \"#utility.yul\":11347:11362   */\n      revert\n        /* \"#utility.yul\":11374:11694   */\n    tag_104:\n        /* \"#utility.yul\":11418:11424   */\n      0x00\n        /* \"#utility.yul\":11455:11456   */\n      0x02\n        /* \"#utility.yul\":11449:11453   */\n      dup3\n        /* \"#utility.yul\":11445:11457   */\n      div\n        /* \"#utility.yul\":11435:11457   */\n      swap1\n      pop\n        /* \"#utility.yul\":11502:11503   */\n      0x01\n        /* \"#utility.yul\":11496:11500   */\n      dup3\n        /* \"#utility.yul\":11492:11504   */\n      and\n        /* \"#utility.yul\":11523:11541   */\n      dup1\n        /* \"#utility.yul\":11513:11594   */\n      tag_350\n      jumpi\n        /* \"#utility.yul\":11579:11583   */\n      0x7f\n        /* \"#utility.yul\":11571:11577   */\n      dup3\n        /* \"#utility.yul\":11567:11584   */\n      and\n        /* \"#utility.yul\":11557:11584   */\n      swap2\n      pop\n        /* \"#utility.yul\":11513:11594   */\n    tag_350:\n        /* \"#utility.yul\":11641:11643   */\n      0x20\n        /* \"#utility.yul\":11633:11639   */\n      dup3\n        /* \"#utility.yul\":11630:11644   */\n      lt\n        /* \"#utility.yul\":11610:11628   */\n      dup2\n        /* \"#utility.yul\":11607:11645   */\n      sub\n        /* \"#utility.yul\":11604:11688   */\n      tag_351\n      jumpi\n        /* \"#utility.yul\":11660:11678   */\n      tag_352\n      tag_197\n      jump\t// in\n    tag_352:\n        /* \"#utility.yul\":11604:11688   */\n    tag_351:\n        /* \"#utility.yul\":11425:11694   */\n      pop\n        /* \"#utility.yul\":11374:11694   */\n      swap2\n      swap1\n      pop\n      jump\t// out\n        /* \"#utility.yul\":11700:11840   */\n    tag_198:\n        /* \"#utility.yul\":11748:11752   */\n      0x00\n        /* \"#utility.yul\":11771:11774   */\n      dup2\n        /* \"#utility.yul\":11763:11774   */\n      swap1\n      pop\n        /* \"#utility.yul\":11794:11797   */\n      dup2\n        /* \"#utility.yul\":11791:11792   */\n      0x00\n        /* \"#utility.yul\":11784:11798   */\n      mstore\n        /* \"#utility.yul\":11828:11832   */\n      0x20\n        /* \"#utility.yul\":11825:11826   */\n      0x00\n        /* \"#utility.yul\":11815:11833   */\n      keccak256\n        /* \"#utility.yul\":11807:11833   */\n      swap1\n      pop\n        /* \"#utility.yul\":11700:11840   */\n      swap2\n      swap1\n      pop\n      jump\t// out\n        /* \"#utility.yul\":11846:11939   */\n    tag_199:\n        /* \"#utility.yul\":11883:11889   */\n      0x00\n        /* \"#utility.yul\":11930:11932   */\n      0x20\n        /* \"#utility.yul\":11925:11927   */\n      0x1f\n        /* \"#utility.yul\":11918:11923   */\n      dup4\n        /* \"#utility.yul\":11914:11928   */\n      add\n        /* \"#utility.yul\":11910:11933   */\n      div\n        /* \"#utility.yul\":11900:11933   */\n      swap1\n      pop\n        /* \"#utility.yul\":11846:11939   */\n      swap2\n      swap1\n      pop\n      jump\t// out\n        /* \"#utility.yul\":11945:12052   */\n    tag_200:\n        /* \"#utility.yul\":11989:11997   */\n      0x00\n        /* \"#utility.yul\":12039:12044   */\n      dup3\n        /* \"#utility.yul\":12033:12037   */\n      dup3\n        /* \"#utility.yul\":12029:12045   */\n      shl\n        /* \"#utility.yul\":12008:12045   */\n      swap1\n      pop\n        /* \"#utility.yul\":11945:12052   */\n      swap3\n      swap2\n      pop\n      pop\n      jump\t// out\n        /* \"#utility.yul\":12058:12451   */\n    tag_201:\n        /* \"#utility.yul\":12127:12133   */\n      0x00\n        /* \"#utility.yul\":12177:12178   */\n      0x08\n        /* \"#utility.yul\":12165:12175   */\n      dup4\n        /* \"#utility.yul\":12161:12179   */\n      mul\n        /* \"#utility.yul\":12200:12297   */\n      tag_357\n        /* \"#utility.yul\":12230:12296   */\n      0xffffffffffffffffffffffffffffffffffffffffffffffffffffffffffffffff\n        /* \"#utility.yul\":12219:12228   */\n      dup3\n        /* \"#utility.yul\":12200:12297   */\n      tag_200\n      jump\t// in\n    tag_357:\n        /* \"#utility.yul\":12318:12357   */\n      tag_358\n        /* \"#utility.yul\":12348:12356   */\n      dup7\n        /* \"#utility.yul\":12337:12346   */\n      dup4\n        /* \"#utility.yul\":12318:12357   */\n      tag_200\n      jump\t// in\n    tag_358:\n        /* \"#utility.yul\":12306:12357   */\n      swap6\n      pop\n        /* \"#utility.yul\":12390:12394   */\n      dup1\n        /* \"#utility.yul\":12386:12395   */\n      not\n        /* \"#utility.yul\":12379:12384   */\n      dup5\n        /* \"#utility.yul\":12375:12396   */\n      and\n        /* \"#utility.yul\":12366:12396   */\n      swap4\n      pop\n        /* \"#utility.yul\":12439:12443   */\n      dup1\n        /* \"#utility.yul\":12429:12437   */\n      dup7\n        /* \"#utility.yul\":12425:12444   */\n      and\n        /* \"#utility.yul\":12418:12423   */\n      dup5\n        /* \"#utility.yul\":12415:12445   */\n      or\n        /* \"#utility.yul\":12405:12445   */\n      swap3\n      pop\n        /* \"#utility.yul\":12134:12451   */\n      pop\n      pop\n        /* \"#utility.yul\":12058:12451   */\n      swap4\n      swap3\n      pop\n      pop\n      pop\n      jump\t// out\n        /* \"#utility.yul\":12457:12517   */\n    tag_202:\n        /* \"#utility.yul\":12485:12488   */\n      0x00\n        /* \"#utility.yul\":12506:12511   */\n      dup2\n        /* \"#utility.yul\":12499:12511   */\n      swap1\n      pop\n        /* \"#utility.yul\":12457:12517   */\n      swap2\n      swap1\n      pop\n      jump\t// out\n        /* \"#utility.yul\":12523:12665   */\n    tag_203:\n        /* \"#utility.yul\":12573:12582   */\n      0x00\n        /* \"#utility.yul\":12606:12659   */\n      tag_361\n        /* \"#utility.yul\":12624:12658   */\n      tag_362\n        /* \"#utility.yul\":12633:12657   */\n      tag_363\n        /* \"#utility.yul\":12651:12656   */\n      dup5\n        /* \"#utility.yul\":12633:12657   */\n      tag_167\n      jump\t// in\n    tag_363:\n        /* \"#utility.yul\":12624:12658   */\n      tag_202\n      jump\t// in\n    tag_362:\n        /* \"#utility.yul\":12606:12659   */\n      tag_167\n      jump\t// in\n    tag_361:\n        /* \"#utility.yul\":12593:12659   */\n      swap1\n      pop\n        /* \"#utility.yul\":12523:12665   */\n      swap2\n      swap1\n      pop\n      jump\t// out\n        /* \"#utility.yul\":12671:12746   */\n    tag_204:\n        /* \"#utility.yul\":12714:12717   */\n      0x00\n        /* \"#utility.yul\":12735:12740   */\n      dup2\n        /* \"#utility.yul\":12728:12740   */\n      swap1\n      pop\n        /* \"#utility.yul\":12671:12746   */\n      swap2\n      swap1\n      pop\n      jump\t// out\n        /* \"#utility.yul\":12752:13021   */\n    tag_205:\n        /* \"#utility.yul\":12862:12901   */\n      tag_366\n        /* \"#utility.yul\":12893:12900   */\n      dup4\n        /* \"#utility.yul\":12862:12901   */\n      tag_203\n      jump\t// in\n    tag_366:\n        /* \"#utility.yul\":12923:13014   */\n      tag_367\n        /* \"#utility.yul\":12972:13013   */\n      tag_368\n        /* \"#utility.yul\":12996:13012   */\n      dup3\n        /* \"#utility.yul\":12972:13013   */\n      tag_204\n      jump\t// in\n    tag_368:\n        /* \"#utility.yul\":12964:12970   */\n      dup5\n        /* \"#utility.yul\":12957:12961   */\n      dup5\n        /* \"#utility.yul\":12951:12962   */\n      sload\n        /* \"#utility.yul\":12923:13014   */\n      tag_201\n      jump\t// in\n    tag_367:\n        /* \"#utility.yul\":12917:12921   */\n      dup3\n        /* \"#utility.yul\":12910:13015   */\n      sstore\n        /* \"#utility.yul\":12828:13021   */\n      pop\n        /* \"#utility.yul\":12752:13021   */\n      pop\n      pop\n      pop\n      jump\t// out\n        /* \"#utility.yul\":13027:13100   */\n    tag_206:\n        /* \"#utility.yul\":13072:13075   */\n      0x00\n        /* \"#utility.yul\":13027:13100   */\n      swap1\n      jump\t// out\n        /* \"#utility.yul\":13106:13295   */\n    tag_207:\n        /* \"#utility.yul\":13183:13215   */\n      tag_371\n      tag_206\n      jump\t// in\n    tag_371:\n        /* \"#utility.yul\":13224:13289   */\n      tag_372\n        /* \"#utility.yul\":13282:13288   */\n      dup2\n        /* \"#utility.yul\":13274:13280   */\n      dup5\n        /* \"#utility.yul\":13268:13272   */\n      dup5\n        /* \"#utility.yul\":13224:13289   */\n      tag_205\n      jump\t// in\n    tag_372:\n        /* \"#utility.yul\":13159:13295   */\n      pop\n        /* \"#utility.yul\":13106:13295   */\n      pop\n      pop\n      jump\t// out\n        /* \"#utility.yul\":13301:13487   */\n    tag_208:\n        /* \"#utility.yul\":13361:13481   */\n    tag_374:\n        /* \"#utility.yul\":13378:13381   */\n      dup2\n        /* \"#utility.yul\":13371:13376   */\n      dup2\n        /* \"#utility.yul\":13368:13382   */\n      lt\n        /* \"#utility.yul\":13361:13481   */\n      iszero\n      tag_376\n      jumpi\n        /* \"#utility.yul\":13432:13471   */\n      tag_377\n        /* \"#utility.yul\":13469:13470   */\n      0x00\n        /* \"#utility.yul\":13462:13467   */\n      dup3\n        /* \"#utility.yul\":13432:13471   */\n      tag_207\n      jump\t// in\n    tag_377:\n        /* \"#utility.yul\":13405:13406   */\n      0x01\n        /* \"#utility.yul\":13398:13403   */\n      dup2\n        /* \"#utility.yul\":13394:13407   */\n      add\n        /* \"#utility.yul\":13385:13407   */\n      swap1\n      pop\n        /* \"#utility.yul\":13361:13481   */\n      jump(tag_374)\n    tag_376:\n        /* \"#utility.yul\":13301:13487   */\n      pop\n      pop\n      jump\t// out\n        /* \"#utility.yul\":13493:14034   */\n    tag_209:\n        /* \"#utility.yul\":13593:13595   */\n      0x1f\n        /* \"#utility.yul\":13588:13591   */\n      dup3\n        /* \"#utility.yul\":13585:13596   */\n      gt\n        /* \"#utility.yul\":13582:14027   */\n      iszero\n      tag_379\n      jumpi\n        /* \"#utility.yul\":13627:13664   */\n      tag_380\n        /* \"#utility.yul\":13658:13663   */\n      dup2\n        /* \"#utility.yul\":13627:13664   */\n      tag_198\n      jump\t// in\n    tag_380:\n        /* \"#utility.yul\":13710:13739   */\n      tag_381\n        /* \"#utility.yul\":13728:13738   */\n      dup5\n        /* \"#utility.yul\":13710:13739   */\n      tag_199\n      jump\t// in\n    tag_381:\n        /* \"#utility.yul\":13700:13708   */\n      dup2\n        /* \"#utility.yul\":13696:13740   */\n      add\n        /* \"#utility.yul\":13893:13895   */\n      0x20\n        /* \"#utility.yul\":13881:13891   */\n      dup6\n        /* \"#utility.yul\":13878:13896   */\n      lt\n        /* \"#utility.yul\":13875:13924   */\n      iszero\n      tag_382\n      jumpi\n        /* \"#utility.yul\":13914:13922   */\n      dup2\n        /* \"#utility.yul\":13899:13922   */\n      swap1\n      pop\n        /* \"#utility.yul\":13875:13924   */\n    tag_382:\n        /* \"#utility.yul\":13937:14017   */\n      tag_383\n        /* \"#utility.yul\":13993:14015   */\n      tag_384\n        /* \"#utility.yul\":14011:14014   */\n      dup6\n        /* \"#utility.yul\":13993:14015   */\n      tag_199\n      jump\t// in\n    tag_384:\n        /* \"#utility.yul\":13983:13991   */\n      dup4\n        /* \"#utility.yul\":13979:14016   */\n      add\n        /* \"#utility.yul\":13966:13977   */\n      dup3\n        /* \"#utility.yul\":13937:14017   */\n      tag_208\n      jump\t// in\n    tag_383:\n        /* \"#utility.yul\":13597:14027   */\n      pop\n      pop\n        /* \"#utility.yul\":13582:14027   */\n    tag_379:\n        /* \"#utility.yul\":13493:14034   */\n      pop\n      pop\n      pop\n      jump\t// out\n        /* \"#utility.yul\":14040:14157   */\n    tag_210:\n        /* \"#utility.yul\":14094:14102   */\n      0x00\n        /* \"#utility.yul\":14144:14149   */\n      dup3\n        /* \"#utility.yul\":14138:14142   */\n      dup3\n        /* \"#utility.yul\":14134:14150   */\n      shr\n        /* \"#utility.yul\":14113:14150   */\n      swap1\n      pop\n        /* \"#utility.yul\":14040:14157   */\n      swap3\n      swap2\n      pop\n      pop\n      jump\t// out\n        /* \"#utility.yul\":14163:14332   */\n    tag_211:\n        /* \"#utility.yul\":14207:14213   */\n      0x00\n        /* \"#utility.yul\":14240:14291   */\n      tag_387\n        /* \"#utility.yul\":14288:14289   */\n      0x00\n        /* \"#utility.yul\":14284:14290   */\n      not\n        /* \"#utility.yul\":14276:14281   */\n      dup5\n        /* \"#utility.yul\":14273:14274   */\n      0x08\n        /* \"#utility.yul\":14269:14282   */\n      mul\n        /* \"#utility.yul\":14240:14291   */\n      tag_210\n      jump\t// in\n    tag_387:\n        /* \"#utility.yul\":14236:14292   */\n      not\n        /* \"#utility.yul\":14321:14325   */\n      dup1\n        /* \"#utility.yul\":14315:14319   */\n      dup4\n        /* \"#utility.yul\":14311:14326   */\n      and\n        /* \"#utility.yul\":14301:14326   */\n      swap2\n      pop\n        /* \"#utility.yul\":14214:14332   */\n      pop\n        /* \"#utility.yul\":14163:14332   */\n      swap3\n      swap2\n      pop\n      pop\n      jump\t// out\n        /* \"#utility.yul\":14337:14632   */\n    tag_212:\n        /* \"#utility.yul\":14413:14417   */\n      0x00\n        /* \"#utility.yul\":14559:14588   */\n      tag_389\n        /* \"#utility.yul\":14584:14587   */\n      dup4\n        /* \"#utility.yul\":14578:14582   */\n      dup4\n        /* \"#utility.yul\":14559:14588   */\n      tag_211\n      jump\t// in\n    tag_389:\n        /* \"#utility.yul\":14551:14588   */\n      swap2\n      pop\n        /* \"#utility.yul\":14621:14624   */\n      dup3\n        /* \"#utility.yul\":14618:14619   */\n      0x02\n        /* \"#utility.yul\":14614:14625   */\n      mul\n        /* \"#utility.yul\":14608:14612   */\n      dup3\n        /* \"#utility.yul\":14605:14626   */\n      or\n        /* \"#utility.yul\":14597:14626   */\n      swap1\n      pop\n        /* \"#utility.yul\":14337:14632   */\n      swap3\n      swap2\n      pop\n      pop\n      jump\t// out\n        /* \"#utility.yul\":14637:16027   */\n    tag_134:\n        /* \"#utility.yul\":14752:14788   */\n      tag_391\n        /* \"#utility.yul\":14784:14787   */\n      dup3\n        /* \"#utility.yul\":14752:14788   */\n      tag_188\n      jump\t// in\n    tag_391:\n        /* \"#utility.yul\":14853:14871   */\n      0xffffffffffffffff\n        /* \"#utility.yul\":14845:14851   */\n      dup2\n        /* \"#utility.yul\":14842:14872   */\n      gt\n        /* \"#utility.yul\":14839:14895   */\n      iszero\n      tag_392\n      jumpi\n        /* \"#utility.yul\":14875:14893   */\n      tag_393\n      tag_176\n      jump\t// in\n    tag_393:\n        /* \"#utility.yul\":14839:14895   */\n    tag_392:\n        /* \"#utility.yul\":14919:14957   */\n      tag_394\n        /* \"#utility.yul\":14951:14955   */\n      dup3\n        /* \"#utility.yul\":14945:14956   */\n      sload\n        /* \"#utility.yul\":14919:14957   */\n      tag_104\n      jump\t// in\n    tag_394:\n        /* \"#utility.yul\":15004:15070   */\n      tag_395\n        /* \"#utility.yul\":15063:15069   */\n      dup3\n        /* \"#utility.yul\":15055:15061   */\n      dup3\n        /* \"#utility.yul\":15049:15053   */\n      dup6\n        /* \"#utility.yul\":15004:15070   */\n      tag_209\n      jump\t// in\n    tag_395:\n        /* \"#utility.yul\":15097:15098   */\n      0x00\n        /* \"#utility.yul\":15121:15125   */\n      0x20\n        /* \"#utility.yul\":15108:15125   */\n      swap1\n      pop\n        /* \"#utility.yul\":15153:15155   */\n      0x1f\n        /* \"#utility.yul\":15145:15151   */\n      dup4\n        /* \"#utility.yul\":15142:15156   */\n      gt\n        /* \"#utility.yul\":15170:15171   */\n      0x01\n        /* \"#utility.yul\":15165:15782   */\n      dup2\n      eq\n      tag_397\n      jumpi\n        /* \"#utility.yul\":15826:15827   */\n      0x00\n        /* \"#utility.yul\":15843:15849   */\n      dup5\n        /* \"#utility.yul\":15840:15917   */\n      iszero\n      tag_398\n      jumpi\n        /* \"#utility.yul\":15892:15901   */\n      dup3\n        /* \"#utility.yul\":15887:15890   */\n      dup8\n        /* \"#utility.yul\":15883:15902   */\n      add\n        /* \"#utility.yul\":15877:15903   */\n      mload\n        /* \"#utility.yul\":15868:15903   */\n      swap1\n      pop\n        /* \"#utility.yul\":15840:15917   */\n    tag_398:\n        /* \"#utility.yul\":15943:16010   */\n      tag_399\n        /* \"#utility.yul\":16003:16009   */\n      dup6\n        /* \"#utility.yul\":15996:16001   */\n      dup3\n        /* \"#utility.yul\":15943:16010   */\n      tag_212\n      jump\t// in\n    tag_399:\n        /* \"#utility.yul\":15937:15941   */\n      dup7\n        /* \"#utility.yul\":15930:16011   */\n      sstore\n        /* \"#utility.yul\":15799:16021   */\n      pop\n        /* \"#utility.yul\":15135:16021   */\n      jump(tag_396)\n        /* \"#utility.yul\":15165:15782   */\n    tag_397:\n        /* \"#utility.yul\":15217:15221   */\n      0x1f\n        /* \"#utility.yul\":15213:15222   */\n      not\n        /* \"#utility.yul\":15205:15211   */\n      dup5\n        /* \"#utility.yul\":15201:15223   */\n      and\n        /* \"#utility.yul\":15251:15287   */\n      tag_400\n        /* \"#utility.yul\":15282:15286   */\n      dup7\n        /* \"#utility.yul\":15251:15287   */\n      tag_198\n      jump\t// in\n    tag_400:\n        /* \"#utility.yul\":15309:15310   */\n      0x00\n        /* \"#utility.yul\":15323:15531   */\n    tag_401:\n        /* \"#utility.yul\":15337:15344   */\n      dup3\n        /* \"#utility.yul\":15334:15335   */\n      dup2\n        /* \"#utility.yul\":15331:15345   */\n      lt\n        /* \"#utility.yul\":15323:15531   */\n      iszero\n      tag_403\n      jumpi\n        /* \"#utility.yul\":15416:15425   */\n      dup5\n        /* \"#utility.yul\":15411:15414   */\n      dup10\n        /* \"#utility.yul\":15407:15426   */\n      add\n        /* \"#utility.yul\":15401:15427   */\n      mload\n        /* \"#utility.yul\":15393:15399   */\n      dup3\n        /* \"#utility.yul\":15386:15428   */\n      sstore\n        /* \"#utility.yul\":15467:15468   */\n      0x01\n        /* \"#utility.yul\":15459:15465   */\n      dup3\n        /* \"#utility.yul\":15455:15469   */\n      add\n        /* \"#utility.yul\":15445:15469   */\n      swap2\n      pop\n        /* \"#utility.yul\":15514:15516   */\n      0x20\n        /* \"#utility.yul\":15503:15512   */\n      dup6\n        /* \"#utility.yul\":15499:15517   */\n      add\n        /* \"#utility.yul\":15486:15517   */\n      swap5\n      pop\n        /* \"#utility.yul\":15360:15364   */\n      0x20\n        /* \"#utility.yul\":15357:15358   */\n      dup2\n        /* \"#utility.yul\":15353:15365   */\n      add\n        /* \"#utility.yul\":15348:15365   */\n      swap1\n      pop\n        /* \"#utility.yul\":15323:15531   */\n      jump(tag_401)\n    tag_403:\n        /* \"#utility.yul\":15559:15565   */\n      dup7\n        /* \"#utility.yul\":15550:15557   */\n      dup4\n        /* \"#utility.yul\":15547:15566   */\n      lt\n        /* \"#utility.yul\":15544:15723   */\n      iszero\n      tag_404\n      jumpi\n        /* \"#utility.yul\":15617:15626   */\n      dup5\n        /* \"#utility.yul\":15612:15615   */\n      dup10\n        /* \"#utility.yul\":15608:15627   */\n      add\n        /* \"#utility.yul\":15602:15628   */\n      mload\n        /* \"#utility.yul\":15660:15708   */\n      tag_405\n        /* \"#utility.yul\":15702:15706   */\n      0x1f\n        /* \"#utility.yul\":15694:15700   */\n      dup10\n        /* \"#utility.yul\":15690:15707   */\n      and\n        /* \"#utility.yul\":15679:15688   */\n      dup3\n        /* \"#utility.yul\":15660:15708   */\n      tag_211\n      jump\t// in\n    tag_405:\n        /* \"#utility.yul\":15652:15658   */\n      dup4\n        /* \"#utility.yul\":15645:15709   */\n      sstore\n        /* \"#utility.yul\":15567:15723   */\n      pop\n        /* \"#utility.yul\":15544:15723   */\n    tag_404:\n        /* \"#utility.yul\":15769:15770   */\n      0x01\n        /* \"#utility.yul\":15765:15766   */\n      0x02\n        /* \"#utility.yul\":15757:15763   */\n      dup9\n        /* \"#utility.yul\":15753:15767   */\n      mul\n        /* \"#utility.yul\":15749:15771   */\n      add\n        /* \"#utility.yul\":15743:15747   */\n      dup9\n        /* \"#utility.yul\":15736:15772   */\n      sstore\n        /* \"#utility.yul\":15172:15782   */\n      pop\n      pop\n      pop\n        /* \"#utility.yul\":15135:16021   */\n    tag_396:\n      pop\n        /* \"#utility.yul\":14727:16027   */\n      pop\n      pop\n      pop\n        /* \"#utility.yul\":14637:16027   */\n      pop\n      pop\n      jump\t// out\n        /* \"#utility.yul\":16055:16382   */\n    tag_213:\n        /* \"#utility.yul\":16169:16172   */\n      0x00\n        /* \"#utility.yul\":16190:16278   */\n      tag_407\n        /* \"#utility.yul\":16271:16277   */\n      dup4\n        /* \"#utility.yul\":16266:16269   */\n      dup6\n        /* \"#utility.yul\":16190:16278   */\n      tag_193\n      jump\t// in\n    tag_407:\n        /* \"#utility.yul\":16183:16278   */\n      swap4\n      pop\n        /* \"#utility.yul\":16288:16344   */\n      tag_408\n        /* \"#utility.yul\":16337:16343   */\n      dup4\n        /* \"#utility.yul\":16332:16335   */\n      dup6\n        /* \"#utility.yul\":16325:16330   */\n      dup5\n        /* \"#utility.yul\":16288:16344   */\n      tag_180\n      jump\t// in\n    tag_408:\n        /* \"#utility.yul\":16369:16375   */\n      dup3\n        /* \"#utility.yul\":16364:16367   */\n      dup5\n        /* \"#utility.yul\":16360:16376   */\n      add\n        /* \"#utility.yul\":16353:16376   */\n      swap1\n      pop\n        /* \"#utility.yul\":16055:16382   */\n      swap4\n      swap3\n      pop\n      pop\n      pop\n      jump\t// out\n        /* \"#utility.yul\":16388:16679   */\n    tag_141:\n        /* \"#utility.yul\":16528:16531   */\n      0x00\n        /* \"#utility.yul\":16550:16653   */\n      tag_410\n        /* \"#utility.yul\":16649:16652   */\n      dup3\n        /* \"#utility.yul\":16640:16646   */\n      dup5\n        /* \"#utility.yul\":16632:16638   */\n      dup7\n        /* \"#utility.yul\":16550:16653   */\n      tag_213\n      jump\t// in\n    tag_410:\n        /* \"#utility.yul\":16543:16653   */\n      swap2\n      pop\n        /* \"#utility.yul\":16670:16673   */\n      dup2\n        /* \"#utility.yul\":16663:16673   */\n      swap1\n      pop\n        /* \"#utility.yul\":16388:16679   */\n      swap4\n      swap3\n      pop\n      pop\n      pop\n      jump\t// out\n        /* \"#utility.yul\":16707:17021   */\n    tag_214:\n        /* \"#utility.yul\":16803:16806   */\n      0x00\n        /* \"#utility.yul\":16824:16894   */\n      tag_412\n        /* \"#utility.yul\":16887:16893   */\n      dup4\n        /* \"#utility.yul\":16882:16885   */\n      dup6\n        /* \"#utility.yul\":16824:16894   */\n      tag_189\n      jump\t// in\n    tag_412:\n        /* \"#utility.yul\":16817:16894   */\n      swap4\n      pop\n        /* \"#utility.yul\":16904:16960   */\n      tag_413\n        /* \"#utility.yul\":16953:16959   */\n      dup4\n        /* \"#utility.yul\":16948:16951   */\n      dup6\n        /* \"#utility.yul\":16941:16946   */\n      dup5\n        /* \"#utility.yul\":16904:16960   */\n      tag_180\n      jump\t// in\n    tag_413:\n        /* \"#utility.yul\":16985:17014   */\n      tag_414\n        /* \"#utility.yul\":17007:17013   */\n      dup4\n        /* \"#utility.yul\":16985:17014   */\n      tag_175\n      jump\t// in\n    tag_414:\n        /* \"#utility.yul\":16980:16983   */\n      dup5\n        /* \"#utility.yul\":16976:17015   */\n      add\n        /* \"#utility.yul\":16969:17015   */\n      swap1\n      pop\n        /* \"#utility.yul\":16707:17021   */\n      swap4\n      swap3\n      pop\n      pop\n      pop\n      jump\t// out\n        /* \"#utility.yul\":17027:17663   */\n    tag_144:\n        /* \"#utility.yul\":17222:17226   */\n      0x00\n        /* \"#utility.yul\":17260:17262   */\n      0x60\n        /* \"#utility.yul\":17249:17258   */\n      dup3\n        /* \"#utility.yul\":17245:17263   */\n      add\n        /* \"#utility.yul\":17237:17263   */\n      swap1\n      pop\n        /* \"#utility.yul\":17273:17344   */\n      tag_416\n        /* \"#utility.yul\":17341:17342   */\n      0x00\n        /* \"#utility.yul\":17330:17339   */\n      dup4\n        /* \"#utility.yul\":17326:17343   */\n      add\n        /* \"#utility.yul\":17317:17323   */\n      dup8\n        /* \"#utility.yul\":17273:17344   */\n      tag_168\n      jump\t// in\n    tag_416:\n        /* \"#utility.yul\":17391:17400   */\n      dup2\n        /* \"#utility.yul\":17385:17389   */\n      dup2\n        /* \"#utility.yul\":17381:17401   */\n      sub\n        /* \"#utility.yul\":17376:17378   */\n      0x20\n        /* \"#utility.yul\":17365:17374   */\n      dup4\n        /* \"#utility.yul\":17361:17379   */\n      add\n        /* \"#utility.yul\":17354:17402   */\n      mstore\n        /* \"#utility.yul\":17419:17505   */\n      tag_417\n        /* \"#utility.yul\":17500:17504   */\n      dup2\n        /* \"#utility.yul\":17491:17497   */\n      dup6\n        /* \"#utility.yul\":17483:17489   */\n      dup8\n        /* \"#utility.yul\":17419:17505   */\n      tag_214\n      jump\t// in\n    tag_417:\n        /* \"#utility.yul\":17411:17505   */\n      swap1\n      pop\n        /* \"#utility.yul\":17552:17561   */\n      dup2\n        /* \"#utility.yul\":17546:17550   */\n      dup2\n        /* \"#utility.yul\":17542:17562   */\n      sub\n        /* \"#utility.yul\":17537:17539   */\n      0x40\n        /* \"#utility.yul\":17526:17535   */\n      dup4\n        /* \"#utility.yul\":17522:17540   */\n      add\n        /* \"#utility.yul\":17515:17563   */\n      mstore\n        /* \"#utility.yul\":17580:17656   */\n      tag_418\n        /* \"#utility.yul\":17651:17655   */\n      dup2\n        /* \"#utility.yul\":17642:17648   */\n      dup5\n        /* \"#utility.yul\":17580:17656   */\n      tag_191\n      jump\t// in\n    tag_418:\n        /* \"#utility.yul\":17572:17656   */\n      swap1\n      pop\n        /* \"#utility.yul\":17027:17663   */\n      swap6\n      swap5\n      pop\n      pop\n      pop\n      pop\n      pop\n      jump\t// out\n        /* \"#utility.yul\":17669:17998   */\n    tag_151:\n        /* \"#utility.yul\":17790:17794   */\n      0x00\n        /* \"#utility.yul\":17828:17830   */\n      0x20\n        /* \"#utility.yul\":17817:17826   */\n      dup3\n        /* \"#utility.yul\":17813:17831   */\n      add\n        /* \"#utility.yul\":17805:17831   */\n      swap1\n      pop\n        /* \"#utility.yul\":17877:17886   */\n      dup2\n        /* \"#utility.yul\":17871:17875   */\n      dup2\n        /* \"#utility.yul\":17867:17887   */\n      sub\n        /* \"#utility.yul\":17863:17864   */\n      0x00\n        /* \"#utility.yul\":17852:17861   */\n      dup4\n        /* \"#utility.yul\":17848:17865   */\n      add\n        /* \"#utility.yul\":17841:17888   */\n      mstore\n        /* \"#utility.yul\":17905:17991   */\n      tag_420\n        /* \"#utility.yul\":17986:17990   */\n      dup2\n        /* \"#utility.yul\":17977:17983   */\n      dup5\n        /* \"#utility.yul\":17969:17975   */\n      dup7\n        /* \"#utility.yul\":17905:17991   */\n      tag_214\n      jump\t// in\n    tag_420:\n        /* \"#utility.yul\":17897:17991   */\n      swap1\n      pop\n        /* \"#utility.yul\":17669:17998   */\n      swap4\n      swap3\n      pop\n      pop\n      pop\n      jump\t// out\n\n    auxdata: 0xa2646970667358221220a8c3a4c506f25801f890345aeac54e754d96754b8fc2b14bf401dccfe8f1b1f564736f6c63430008170033\n}\n",
				"bytecode": {
					"linkReferences": {},
					"object": "608060405234801561000f575f80fd5b5061128d8061001d5f395ff3fe608060405234801561000f575f80fd5b50600436106100a7575f3560e01c806336d9cf9b1161006f57806336d9cf9b1461016157806389625b571461017f5780638ea690291461019b578063a2e1a8d8146101cb578063b8197367146101fb578063d948fd2e14610217576100a7565b8063066a1eb7146100ab5780630db02622146100db5780630f0f3f24146100f95780631ca5393f1461011557806329565e3b14610145575b5f80fd5b6100c560048036038101906100c09190610917565b610235565b6040516100d2919061096f565b60405180910390f35b6100e3610293565b6040516100f091906109a0565b60405180910390f35b610113600480360381019061010e9190610a13565b6102b8565b005b61012f600480360381019061012a9190610b7a565b610309565b60405161013c919061096f565b60405180910390f35b61015f600480360381019061015a9190610917565b610345565b005b610169610399565b60405161017691906109a0565b60405180910390f35b61019960048036038101906101949190610c48565b6103ab565b005b6101b560048036038101906101b09190610ca5565b610404565b6040516101c29190610d4a565b60405180910390f35b6101e560048036038101906101e09190610a13565b6104ae565b6040516101f2919061096f565b60405180910390f35b61021560048036038101906102109190610c48565b610509565b005b61021f610573565b60405161022c91906109a0565b60405180910390f35b5f61023e610584565b6003018383604051602001610254929190610d79565b6040516020818303038152906040526040516102709190610dda565b90815260200160405180910390205f9054906101000a900460ff16905092915050565b5f8061029d610584565b90508060010154815f01546102b29190610e1d565b91505090565b6102c06105ab565b610306816040516020016102d49190610e5f565b6040516020818303038152906040526102eb610584565b5f015f8154809291906102fd90610e78565b91905055610622565b50565b5f610312610584565b600301826040516103239190610dda565b90815260200160405180910390205f9054906101000a900460ff169050919050565b61034d6105ab565b6103958282604051602001610363929190610d79565b60405160208183030381529060405261037a610584565b5f015f81548092919061038c90610e78565b91905055610622565b5050565b5f6103a2610584565b60010154905090565b6103b36105ab565b60016103bd610293565b036103f4576040517f948bf89700000000000000000000000000000000000000000000000000000000815260040160405180910390fd5b6103ff83838361070e565b505050565b606061040e610584565b6002015f8381526020019081526020015f20805461042b90610eec565b80601f016020809104026020016040519081016040528092919081815260200182805461045790610eec565b80156104a25780601f10610479576101008083540402835291602001916104a2565b820191905f5260205f20905b81548152906001019060200180831161048557829003601f168201915b50505050509050919050565b5f6104b7610584565b600301826040516020016104cb9190610e5f565b6040516020818303038152906040526040516104e79190610dda565b90815260200160405180910390205f9054906101000a900460ff169050919050565b6105116105ab565b5f61051a610293565b9050600181111561056257806040517f823f1aa800000000000000000000000000000000000000000000000000000000815260040161055991906109a0565b60405180910390fd5b61056d84848461070e565b50505050565b5f61057c610584565b5f0154905090565b5f7f97e2c6aad4ce5d562ebfaa00db6b9e0fb66ea5d8162ed5b243f51a2e03086f00905090565b6105b4336104ae565b806105ea57503073ffffffffffffffffffffffffffffffffffffffff163373ffffffffffffffffffffffffffffffffffffffff16145b610620576040517f82b4290000000000000000000000000000000000000000000000000000000000815260040160405180910390fd5b565b61062b82610309565b1561066d57816040517f8d16255a0000000000000000000000000000000000000000000000000000000081526004016106649190610d4a565b60405180910390fd5b5f610676610584565b90506001816003018460405161068c9190610dda565b90815260200160405180910390205f6101000a81548160ff02191690831515021790555082816002015f8481526020019081526020015f2090816106d091906110b9565b50817f38109edc26e166b5579352ce56a50813177eb25208fd90d61f2f378386220220846040516107019190610d4a565b60405180910390a2505050565b5f61071884610404565b90505f81510361075f57836040517f68188e7a00000000000000000000000000000000000000000000000000000000815260040161075691906109a0565b60405180910390fd5b828260405161076f9291906111ac565b60405180910390208180519060200120146107c757838383836040517f781f2e390000000000000000000000000000000000000000000000000000000081526004016107be94939291906111f0565b60405180910390fd5b5f6107d0610584565b90508060030184846040516107e69291906111ac565b90815260200160405180910390205f6101000a81549060ff0219169055806002015f8681526020019081526020015f205f610821919061087b565b806001015f81548092919061083590610e78565b9190505550847fcf95bbfe6f870f8cc40482dc3dccdafd268f0e9ce0a4f24ea1bea9be64e505ff858560405161086c929190611235565b60405180910390a25050505050565b50805461088790610eec565b5f825580601f1061089857506108b5565b601f0160209004905f5260205f20908101906108b491906108b8565b5b50565b5b808211156108cf575f815f9055506001016108b9565b5090565b5f604051905090565b5f80fd5b5f80fd5b5f819050919050565b6108f6816108e4565b8114610900575f80fd5b50565b5f81359050610911816108ed565b92915050565b5f806040838503121561092d5761092c6108dc565b5b5f61093a85828601610903565b925050602061094b85828601610903565b9150509250929050565b5f8115159050919050565b61096981610955565b82525050565b5f6020820190506109825f830184610960565b92915050565b5f819050919050565b61099a81610988565b82525050565b5f6020820190506109b35f830184610991565b92915050565b5f73ffffffffffffffffffffffffffffffffffffffff82169050919050565b5f6109e2826109b9565b9050919050565b6109f2816109d8565b81146109fc575f80fd5b50565b5f81359050610a0d816109e9565b92915050565b5f60208284031215610a2857610a276108dc565b5b5f610a35848285016109ff565b91505092915050565b5f80fd5b5f80fd5b5f601f19601f8301169050919050565b7f4e487b71000000000000000000000000000000000000000000000000000000005f52604160045260245ffd5b610a8c82610a46565b810181811067ffffffffffffffff82111715610aab57610aaa610a56565b5b80604052505050565b5f610abd6108d3565b9050610ac98282610a83565b919050565b5f67ffffffffffffffff821115610ae857610ae7610a56565b5b610af182610a46565b9050602081019050919050565b828183375f83830152505050565b5f610b1e610b1984610ace565b610ab4565b905082815260208101848484011115610b3a57610b39610a42565b5b610b45848285610afe565b509392505050565b5f82601f830112610b6157610b60610a3e565b5b8135610b71848260208601610b0c565b91505092915050565b5f60208284031215610b8f57610b8e6108dc565b5b5f82013567ffffffffffffffff811115610bac57610bab6108e0565b5b610bb884828501610b4d565b91505092915050565b610bca81610988565b8114610bd4575f80fd5b50565b5f81359050610be581610bc1565b92915050565b5f80fd5b5f80fd5b5f8083601f840112610c0857610c07610a3e565b5b8235905067ffffffffffffffff811115610c2557610c24610beb565b5b602083019150836001820283011115610c4157610c40610bef565b5b9250929050565b5f805f60408486031215610c5f57610c5e6108dc565b5b5f610c6c86828701610bd7565b935050602084013567ffffffffffffffff811115610c8d57610c8c6108e0565b5b610c9986828701610bf3565b92509250509250925092565b5f60208284031215610cba57610cb96108dc565b5b5f610cc784828501610bd7565b91505092915050565b5f81519050919050565b5f82825260208201905092915050565b5f5b83811015610d07578082015181840152602081019050610cec565b5f8484015250505050565b5f610d1c82610cd0565b610d268185610cda565b9350610d36818560208601610cea565b610d3f81610a46565b840191505092915050565b5f6020820190508181035f830152610d628184610d12565b905092915050565b610d73816108e4565b82525050565b5f604082019050610d8c5f830185610d6a565b610d996020830184610d6a565b9392505050565b5f81905092915050565b5f610db482610cd0565b610dbe8185610da0565b9350610dce818560208601610cea565b80840191505092915050565b5f610de58284610daa565b915081905092915050565b7f4e487b71000000000000000000000000000000000000000000000000000000005f52601160045260245ffd5b5f610e2782610988565b9150610e3283610988565b9250828203905081811115610e4a57610e49610df0565b5b92915050565b610e59816109d8565b82525050565b5f602082019050610e725f830184610e50565b92915050565b5f610e8282610988565b91507fffffffffffffffffffffffffffffffffffffffffffffffffffffffffffffffff8203610eb457610eb3610df0565b5b600182019050919050565b7f4e487b71000000000000000000000000000000000000000000000000000000005f52602260045260245ffd5b5f6002820490506001821680610f0357607f821691505b602082108103610f1657610f15610ebf565b5b50919050565b5f819050815f5260205f209050919050565b5f6020601f8301049050919050565b5f82821b905092915050565b5f60088302610f787fffffffffffffffffffffffffffffffffffffffffffffffffffffffffffffffff82610f3d565b610f828683610f3d565b95508019841693508086168417925050509392505050565b5f819050919050565b5f610fbd610fb8610fb384610988565b610f9a565b610988565b9050919050565b5f819050919050565b610fd683610fa3565b610fea610fe282610fc4565b848454610f49565b825550505050565b5f90565b610ffe610ff2565b611009818484610fcd565b505050565b5b8181101561102c576110215f82610ff6565b60018101905061100f565b5050565b601f8211156110715761104281610f1c565b61104b84610f2e565b8101602085101561105a578190505b61106e61106685610f2e565b83018261100e565b50505b505050565b5f82821c905092915050565b5f6110915f1984600802611076565b1980831691505092915050565b5f6110a98383611082565b9150826002028217905092915050565b6110c282610cd0565b67ffffffffffffffff8111156110db576110da610a56565b5b6110e58254610eec565b6110f0828285611030565b5f60209050601f831160018114611121575f841561110f578287015190505b611119858261109e565b865550611180565b601f19841661112f86610f1c565b5f5b8281101561115657848901518255600182019150602085019450602081019050611131565b86831015611173578489015161116f601f891682611082565b8355505b6001600288020188555050505b505050505050565b5f6111938385610da0565b93506111a0838584610afe565b82840190509392505050565b5f6111b8828486611188565b91508190509392505050565b5f6111cf8385610cda565b93506111dc838584610afe565b6111e583610a46565b840190509392505050565b5f6060820190506112035f830187610991565b81810360208301526112168185876111c4565b9050818103604083015261122a8184610d12565b905095945050505050565b5f6020820190508181035f83015261124e8184866111c4565b9050939250505056fea2646970667358221220a8c3a4c506f25801f890345aeac54e754d96754b8fc2b14bf401dccfe8f1b1f564736f6c63430008170033",
					"opcodes": "PUSH1 0x80 PUSH1 0x40 MSTORE CALLVALUE DUP1 ISZERO PUSH2 0xF JUMPI PUSH0 DUP1 REVERT JUMPDEST POP PUSH2 0x128D DUP1 PUSH2 0x1D PUSH0 CODECOPY PUSH0 RETURN INVALID PUSH1 0x80 PUSH1 0x40 MSTORE CALLVALUE DUP1 ISZERO PUSH2 0xF JUMPI PUSH0 DUP1 REVERT JUMPDEST POP PUSH1 0x4 CALLDATASIZE LT PUSH2 0xA7 JUMPI PUSH0 CALLDATALOAD PUSH1 0xE0 SHR DUP1 PUSH4 0x36D9CF9B GT PUSH2 0x6F JUMPI DUP1 PUSH4 0x36D9CF9B EQ PUSH2 0x161 JUMPI DUP1 PUSH4 0x89625B57 EQ PUSH2 0x17F JUMPI DUP1 PUSH4 0x8EA69029 EQ PUSH2 0x19B JUMPI DUP1 PUSH4 0xA2E1A8D8 EQ PUSH2 0x1CB JUMPI DUP1 PUSH4 0xB8197367 EQ PUSH2 0x1FB JUMPI DUP1 PUSH4 0xD948FD2E EQ PUSH2 0x217 JUMPI PUSH2 0xA7 JUMP JUMPDEST DUP1 PUSH4 0x66A1EB7 EQ PUSH2 0xAB JUMPI DUP1 PUSH4 0xDB02622 EQ PUSH2 0xDB JUMPI DUP1 PUSH4 0xF0F3F24 EQ PUSH2 0xF9 JUMPI DUP1 PUSH4 0x1CA5393F EQ PUSH2 0x115 JUMPI DUP1 PUSH4 0x29565E3B EQ PUSH2 0x145 JUMPI JUMPDEST PUSH0 DUP1 REVERT JUMPDEST PUSH2 0xC5 PUSH1 0x4 DUP1 CALLDATASIZE SUB DUP2 ADD SWAP1 PUSH2 0xC0 SWAP2 SWAP1 PUSH2 0x917 JUMP JUMPDEST PUSH2 0x235 JUMP JUMPDEST PUSH1 0x40 MLOAD PUSH2 0xD2 SWAP2 SWAP1 PUSH2 0x96F JUMP JUMPDEST PUSH1 0x40 MLOAD DUP1 SWAP2 SUB SWAP1 RETURN JUMPDEST PUSH2 0xE3 PUSH2 0x293 JUMP JUMPDEST PUSH1 0x40 MLOAD PUSH2 0xF0 SWAP2 SWAP1 PUSH2 0x9A0 JUMP JUMPDEST PUSH1 0x40 MLOAD DUP1 SWAP2 SUB SWAP1 RETURN JUMPDEST PUSH2 0x113 PUSH1 0x4 DUP1 CALLDATASIZE SUB DUP2 ADD SWAP1 PUSH2 0x10E SWAP2 SWAP1 PUSH2 0xA13 JUMP JUMPDEST PUSH2 0x2B8 JUMP JUMPDEST STOP JUMPDEST PUSH2 0x12F PUSH1 0x4 DUP1 CALLDATASIZE SUB DUP2 ADD SWAP1 PUSH2 0x12A SWAP2 SWAP1 PUSH2 0xB7A JUMP JUMPDEST PUSH2 0x309 JUMP JUMPDEST PUSH1 0x40 MLOAD PUSH2 0x13C SWAP2 SWAP1 PUSH2 0x96F JUMP JUMPDEST PUSH1 0x40 MLOAD DUP1 SWAP2 SUB SWAP1 RETURN JUMPDEST PUSH2 0x15F PUSH1 0x4 DUP1 CALLDATASIZE SUB DUP2 ADD SWAP1 PUSH2 0x15A SWAP2 SWAP1 PUSH2 0x917 JUMP JUMPDEST PUSH2 0x345 JUMP JUMPDEST STOP JUMPDEST PUSH2 0x169 PUSH2 0x399 JUMP JUMPDEST PUSH1 0x40 MLOAD PUSH2 0x176 SWAP2 SWAP1 PUSH2 0x9A0 JUMP JUMPDEST PUSH1 0x40 MLOAD DUP1 SWAP2 SUB SWAP1 RETURN JUMPDEST PUSH2 0x199 PUSH1 0x4 DUP1 CALLDATASIZE SUB DUP2 ADD SWAP1 PUSH2 0x194 SWAP2 SWAP1 PUSH2 0xC48 JUMP JUMPDEST PUSH2 0x3AB JUMP JUMPDEST STOP JUMPDEST PUSH2 0x1B5 PUSH1 0x4 DUP1 CALLDATASIZE SUB DUP2 ADD SWAP1 PUSH2 0x1B0 SWAP2 SWAP1 PUSH2 0xCA5 JUMP JUMPDEST PUSH2 0x404 JUMP JUMPDEST PUSH1 0x40 MLOAD PUSH2 0x1C2 SWAP2 SWAP1 PUSH2 0xD4A JUMP JUMPDEST PUSH1 0x40 MLOAD DUP1 SWAP2 SUB SWAP1 RETURN JUMPDEST PUSH2 0x1E5 PUSH1 0x4 DUP1 CALLDATASIZE SUB DUP2 ADD SWAP1 PUSH2 0x1E0 SWAP2 SWAP1 PUSH2 0xA13 JUMP JUMPDEST PUSH2 0x4AE JUMP JUMPDEST PUSH1 0x40 MLOAD PUSH2 0x1F2 SWAP2 SWAP1 PUSH2 0x96F JUMP JUMPDEST PUSH1 0x40 MLOAD DUP1 SWAP2 SUB SWAP1 RETURN JUMPDEST PUSH2 0x215 PUSH1 0x4 DUP1 CALLDATASIZE SUB DUP2 ADD SWAP1 PUSH2 0x210 SWAP2 SWAP1 PUSH2 0xC48 JUMP JUMPDEST PUSH2 0x509 JUMP JUMPDEST STOP JUMPDEST PUSH2 0x21F PUSH2 0x573 JUMP JUMPDEST PUSH1 0x40 MLOAD PUSH2 0x22C SWAP2 SWAP1 PUSH2 0x9A0 JUMP JUMPDEST PUSH1 0x40 MLOAD DUP1 SWAP2 SUB SWAP1 RETURN JUMPDEST PUSH0 PUSH2 0x23E PUSH2 0x584 JUMP JUMPDEST PUSH1 0x3 ADD DUP4 DUP4 PUSH1 0x40 MLOAD PUSH1 0x20 ADD PUSH2 0x254 SWAP3 SWAP2 SWAP1 PUSH2 0xD79 JUMP JUMPDEST PUSH1 0x40 MLOAD PUSH1 0x20 DUP2 DUP4 SUB SUB DUP2 MSTORE SWAP1 PUSH1 0x40 MSTORE PUSH1 0x40 MLOAD PUSH2 0x270 SWAP2 SWAP1 PUSH2 0xDDA JUMP JUMPDEST SWAP1 DUP2 MSTORE PUSH1 0x20 ADD PUSH1 0x40 MLOAD DUP1 SWAP2 SUB SWAP1 KECCAK256 PUSH0 SWAP1 SLOAD SWAP1 PUSH2 0x100 EXP SWAP1 DIV PUSH1 0xFF AND SWAP1 POP SWAP3 SWAP2 POP POP JUMP JUMPDEST PUSH0 DUP1 PUSH2 0x29D PUSH2 0x584 JUMP JUMPDEST SWAP1 POP DUP1 PUSH1 0x1 ADD SLOAD DUP2 PUSH0 ADD SLOAD PUSH2 0x2B2 SWAP2 SWAP1 PUSH2 0xE1D JUMP JUMPDEST SWAP2 POP POP SWAP1 JUMP JUMPDEST PUSH2 0x2C0 PUSH2 0x5AB JUMP JUMPDEST PUSH2 0x306 DUP2 PUSH1 0x40 MLOAD PUSH1 0x20 ADD PUSH2 0x2D4 SWAP2 SWAP1 PUSH2 0xE5F JUMP JUMPDEST PUSH1 0x40 MLOAD PUSH1 0x20 DUP2 DUP4 SUB SUB DUP2 MSTORE SWAP1 PUSH1 0x40 MSTORE PUSH2 0x2EB PUSH2 0x584 JUMP JUMPDEST PUSH0 ADD PUSH0 DUP2 SLOAD DUP1 SWAP3 SWAP2 SWAP1 PUSH2 0x2FD SWAP1 PUSH2 0xE78 JUMP JUMPDEST SWAP2 SWAP1 POP SSTORE PUSH2 0x622 JUMP JUMPDEST POP JUMP JUMPDEST PUSH0 PUSH2 0x312 PUSH2 0x584 JUMP JUMPDEST PUSH1 0x3 ADD DUP3 PUSH1 0x40 MLOAD PUSH2 0x323 SWAP2 SWAP1 PUSH2 0xDDA JUMP JUMPDEST SWAP1 DUP2 MSTORE PUSH1 0x20 ADD PUSH1 0x40 MLOAD DUP1 SWAP2 SUB SWAP1 KECCAK256 PUSH0 SWAP1 SLOAD SWAP1 PUSH2 0x100 EXP SWAP1 DIV PUSH1 0xFF AND SWAP1 POP SWAP2 SWAP1 POP JUMP JUMPDEST PUSH2 0x34D PUSH2 0x5AB JUMP JUMPDEST PUSH2 0x395 DUP3 DUP3 PUSH1 0x40 MLOAD PUSH1 0x20 ADD PUSH2 0x363 SWAP3 SWAP2 SWAP1 PUSH2 0xD79 JUMP JUMPDEST PUSH1 0x40 MLOAD PUSH1 0x20 DUP2 DUP4 SUB SUB DUP2 MSTORE SWAP1 PUSH1 0x40 MSTORE PUSH2 0x37A PUSH2 0x584 JUMP JUMPDEST PUSH0 ADD PUSH0 DUP2 SLOAD DUP1 SWAP3 SWAP2 SWAP1 PUSH2 0x38C SWAP1 PUSH2 0xE78 JUMP JUMPDEST SWAP2 SWAP1 POP SSTORE PUSH2 0x622 JUMP JUMPDEST POP POP JUMP JUMPDEST PUSH0 PUSH2 0x3A2 PUSH2 0x584 JUMP JUMPDEST PUSH1 0x1 ADD SLOAD SWAP1 POP SWAP1 JUMP JUMPDEST PUSH2 0x3B3 PUSH2 0x5AB JUMP JUMPDEST PUSH1 0x1 PUSH2 0x3BD PUSH2 0x293 JUMP JUMPDEST SUB PUSH2 0x3F4 JUMPI PUSH1 0x40 MLOAD PUSH32 0x948BF89700000000000000000000000000000000000000000000000000000000 DUP2 MSTORE PUSH1 0x4 ADD PUSH1 0x40 MLOAD DUP1 SWAP2 SUB SWAP1 REVERT JUMPDEST PUSH2 0x3FF DUP4 DUP4 DUP4 PUSH2 0x70E JUMP JUMPDEST POP POP POP JUMP JUMPDEST PUSH1 0x60 PUSH2 0x40E PUSH2 0x584 JUMP JUMPDEST PUSH1 0x2 ADD PUSH0 DUP4 DUP2 MSTORE PUSH1 0x20 ADD SWAP1 DUP2 MSTORE PUSH1 0x20 ADD PUSH0 KECCAK256 DUP1 SLOAD PUSH2 0x42B SWAP1 PUSH2 0xEEC JUMP JUMPDEST DUP1 PUSH1 0x1F ADD PUSH1 0x20 DUP1 SWAP2 DIV MUL PUSH1 0x20 ADD PUSH1 0x40 MLOAD SWAP1 DUP2 ADD PUSH1 0x40 MSTORE DUP1 SWAP3 SWAP2 SWAP1 DUP2 DUP2 MSTORE PUSH1 0x20 ADD DUP3 DUP1 SLOAD PUSH2 0x457 SWAP1 PUSH2 0xEEC JUMP JUMPDEST DUP1 ISZERO PUSH2 0x4A2 JUMPI DUP1 PUSH1 0x1F LT PUSH2 0x479 JUMPI PUSH2 0x100 DUP1 DUP4 SLOAD DIV MUL DUP4 MSTORE SWAP2 PUSH1 0x20 ADD SWAP2 PUSH2 0x4A2 JUMP JUMPDEST DUP3 ADD SWAP2 SWAP1 PUSH0 MSTORE PUSH1 0x20 PUSH0 KECCAK256 SWAP1 JUMPDEST DUP2 SLOAD DUP2 MSTORE SWAP1 PUSH1 0x1 ADD SWAP1 PUSH1 0x20 ADD DUP1 DUP4 GT PUSH2 0x485 JUMPI DUP3 SWAP1 SUB PUSH1 0x1F AND DUP3 ADD SWAP2 JUMPDEST POP POP POP POP POP SWAP1 POP SWAP2 SWAP1 POP JUMP JUMPDEST PUSH0 PUSH2 0x4B7 PUSH2 0x584 JUMP JUMPDEST PUSH1 0x3 ADD DUP3 PUSH1 0x40 MLOAD PUSH1 0x20 ADD PUSH2 0x4CB SWAP2 SWAP1 PUSH2 0xE5F JUMP JUMPDEST PUSH1 0x40 MLOAD PUSH1 0x20 DUP2 DUP4 SUB SUB DUP2 MSTORE SWAP1 PUSH1 0x40 MSTORE PUSH1 0x40 MLOAD PUSH2 0x4E7 SWAP2 SWAP1 PUSH2 0xDDA JUMP JUMPDEST SWAP1 DUP2 MSTORE PUSH1 0x20 ADD PUSH1 0x40 MLOAD DUP1 SWAP2 SUB SWAP1 KECCAK256 PUSH0 SWAP1 SLOAD SWAP1 PUSH2 0x100 EXP SWAP1 DIV PUSH1 0xFF AND SWAP1 POP SWAP2 SWAP1 POP JUMP JUMPDEST PUSH2 0x511 PUSH2 0x5AB JUMP JUMPDEST PUSH0 PUSH2 0x51A PUSH2 0x293 JUMP JUMPDEST SWAP1 POP PUSH1 0x1 DUP2 GT ISZERO PUSH2 0x562 JUMPI DUP1 PUSH1 0x40 MLOAD PUSH32 0x823F1AA800000000000000000000000000000000000000000000000000000000 DUP2 MSTORE PUSH1 0x4 ADD PUSH2 0x559 SWAP2 SWAP1 PUSH2 0x9A0 JUMP JUMPDEST PUSH1 0x40 MLOAD DUP1 SWAP2 SUB SWAP1 REVERT JUMPDEST PUSH2 0x56D DUP5 DUP5 DUP5 PUSH2 0x70E JUMP JUMPDEST POP POP POP POP JUMP JUMPDEST PUSH0 PUSH2 0x57C PUSH2 0x584 JUMP JUMPDEST PUSH0 ADD SLOAD SWAP1 POP SWAP1 JUMP JUMPDEST PUSH0 PUSH32 0x97E2C6AAD4CE5D562EBFAA00DB6B9E0FB66EA5D8162ED5B243F51A2E03086F00 SWAP1 POP SWAP1 JUMP JUMPDEST PUSH2 0x5B4 CALLER PUSH2 0x4AE JUMP JUMPDEST DUP1 PUSH2 0x5EA JUMPI POP ADDRESS PUSH20 0xFFFFFFFFFFFFFFFFFFFFFFFFFFFFFFFFFFFFFFFF AND CALLER PUSH20 0xFFFFFFFFFFFFFFFFFFFFFFFFFFFFFFFFFFFFFFFF AND EQ JUMPDEST PUSH2 0x620 JUMPI PUSH1 0x40 MLOAD PUSH32 0x82B4290000000000000000000000000000000000000000000000000000000000 DUP2 MSTORE PUSH1 0x4 ADD PUSH1 0x40 MLOAD DUP1 SWAP2 SUB SWAP1 REVERT JUMPDEST JUMP JUMPDEST PUSH2 0x62B DUP3 PUSH2 0x309 JUMP JUMPDEST ISZERO PUSH2 0x66D JUMPI DUP2 PUSH1 0x40 MLOAD PUSH32 0x8D16255A00000000000000000000000000000000000000000000000000000000 DUP2 MSTORE PUSH1 0x4 ADD PUSH2 0x664 SWAP2 SWAP1 PUSH2 0xD4A JUMP JUMPDEST PUSH1 0x40 MLOAD DUP1 SWAP2 SUB SWAP1 REVERT JUMPDEST PUSH0 PUSH2 0x676 PUSH2 0x584 JUMP JUMPDEST SWAP1 POP PUSH1 0x1 DUP2 PUSH1 0x3 ADD DUP5 PUSH1 0x40 MLOAD PUSH2 0x68C SWAP2 SWAP1 PUSH2 0xDDA JUMP JUMPDEST SWAP1 DUP2 MSTORE PUSH1 0x20 ADD PUSH1 0x40 MLOAD DUP1 SWAP2 SUB SWAP1 KECCAK256 PUSH0 PUSH2 0x100 EXP DUP2 SLOAD DUP2 PUSH1 0xFF MUL NOT AND SWAP1 DUP4 ISZERO ISZERO MUL OR SWAP1 SSTORE POP DUP3 DUP2 PUSH1 0x2 ADD PUSH0 DUP5 DUP2 MSTORE PUSH1 0x20 ADD SWAP1 DUP2 MSTORE PUSH1 0x20 ADD PUSH0 KECCAK256 SWAP1 DUP2 PUSH2 0x6D0 SWAP2 SWAP1 PUSH2 0x10B9 JUMP JUMPDEST POP DUP2 PUSH32 0x38109EDC26E166B5579352CE56A50813177EB25208FD90D61F2F378386220220 DUP5 PUSH1 0x40 MLOAD PUSH2 0x701 SWAP2 SWAP1 PUSH2 0xD4A JUMP JUMPDEST PUSH1 0x40 MLOAD DUP1 SWAP2 SUB SWAP1 LOG2 POP POP POP JUMP JUMPDEST PUSH0 PUSH2 0x718 DUP5 PUSH2 0x404 JUMP JUMPDEST SWAP1 POP PUSH0 DUP2 MLOAD SUB PUSH2 0x75F JUMPI DUP4 PUSH1 0x40 MLOAD PUSH32 0x68188E7A00000000000000000000000000000000000000000000000000000000 DUP2 MSTORE PUSH1 0x4 ADD PUSH2 0x756 SWAP2 SWAP1 PUSH2 0x9A0 JUMP JUMPDEST PUSH1 0x40 MLOAD DUP1 SWAP2 SUB SWAP1 REVERT JUMPDEST DUP3 DUP3 PUSH1 0x40 MLOAD PUSH2 0x76F SWAP3 SWAP2 SWAP1 PUSH2 0x11AC JUMP JUMPDEST PUSH1 0x40 MLOAD DUP1 SWAP2 SUB SWAP1 KECCAK256 DUP2 DUP1 MLOAD SWAP1 PUSH1 0x20 ADD KECCAK256 EQ PUSH2 0x7C7 JUMPI DUP4 DUP4 DUP4 DUP4 PUSH1 0x40 MLOAD PUSH32 0x781F2E3900000000000000000000000000000000000000000000000000000000 DUP2 MSTORE PUSH1 0x4 ADD PUSH2 0x7BE SWAP5 SWAP4 SWAP3 SWAP2 SWAP1 PUSH2 0x11F0 JUMP JUMPDEST PUSH1 0x40 MLOAD DUP1 SWAP2 SUB SWAP1 REVERT JUMPDEST PUSH0 PUSH2 0x7D0 PUSH2 0x584 JUMP JUMPDEST SWAP1 POP DUP1 PUSH1 0x3 ADD DUP5 DUP5 PUSH1 0x40 MLOAD PUSH2 0x7E6 SWAP3 SWAP2 SWAP1 PUSH2 0x11AC JUMP JUMPDEST SWAP1 DUP2 MSTORE PUSH1 0x20 ADD PUSH1 0x40 MLOAD DUP1 SWAP2 SUB SWAP1 KECCAK256 PUSH0 PUSH2 0x100 EXP DUP2 SLOAD SWAP1 PUSH1 0xFF MUL NOT AND SWAP1 SSTORE DUP1 PUSH1 0x2 ADD PUSH0 DUP7 DUP2 MSTORE PUSH1 0x20 ADD SWAP1 DUP2 MSTORE PUSH1 0x20 ADD PUSH0 KECCAK256 PUSH0 PUSH2 0x821 SWAP2 SWAP1 PUSH2 0x87B JUMP JUMPDEST DUP1 PUSH1 0x1 ADD PUSH0 DUP2 SLOAD DUP1 SWAP3 SWAP2 SWAP1 PUSH2 0x835 SWAP1 PUSH2 0xE78 JUMP JUMPDEST SWAP2 SWAP1 POP SSTORE POP DUP5 PUSH32 0xCF95BBFE6F870F8CC40482DC3DCCDAFD268F0E9CE0A4F24EA1BEA9BE64E505FF DUP6 DUP6 PUSH1 0x40 MLOAD PUSH2 0x86C SWAP3 SWAP2 SWAP1 PUSH2 0x1235 JUMP JUMPDEST PUSH1 0x40 MLOAD DUP1 SWAP2 SUB SWAP1 LOG2 POP POP POP POP POP JUMP JUMPDEST POP DUP1 SLOAD PUSH2 0x887 SWAP1 PUSH2 0xEEC JUMP JUMPDEST PUSH0 DUP3 SSTORE DUP1 PUSH1 0x1F LT PUSH2 0x898 JUMPI POP PUSH2 0x8B5 JUMP JUMPDEST PUSH1 0x1F ADD PUSH1 0x20 SWAP1 DIV SWAP1 PUSH0 MSTORE PUSH1 0x20 PUSH0 KECCAK256 SWAP1 DUP2 ADD SWAP1 PUSH2 0x8B4 SWAP2 SWAP1 PUSH2 0x8B8 JUMP JUMPDEST JUMPDEST POP JUMP JUMPDEST JUMPDEST DUP1 DUP3 GT ISZERO PUSH2 0x8CF JUMPI PUSH0 DUP2 PUSH0 SWAP1 SSTORE POP PUSH1 0x1 ADD PUSH2 0x8B9 JUMP JUMPDEST POP SWAP1 JUMP JUMPDEST PUSH0 PUSH1 0x40 MLOAD SWAP1 POP SWAP1 JUMP JUMPDEST PUSH0 DUP1 REVERT JUMPDEST PUSH0 DUP1 REVERT JUMPDEST PUSH0 DUP2 SWAP1 POP SWAP2 SWAP1 POP JUMP JUMPDEST PUSH2 0x8F6 DUP2 PUSH2 0x8E4 JUMP JUMPDEST DUP2 EQ PUSH2 0x900 JUMPI PUSH0 DUP1 REVERT JUMPDEST POP JUMP JUMPDEST PUSH0 DUP2 CALLDATALOAD SWAP1 POP PUSH2 0x911 DUP2 PUSH2 0x8ED JUMP JUMPDEST SWAP3 SWAP2 POP POP JUMP JUMPDEST PUSH0 DUP1 PUSH1 0x40 DUP4 DUP6 SUB SLT ISZERO PUSH2 0x92D JUMPI PUSH2 0x92C PUSH2 0x8DC JUMP JUMPDEST JUMPDEST PUSH0 PUSH2 0x93A DUP6 DUP3 DUP7 ADD PUSH2 0x903 JUMP JUMPDEST SWAP3 POP POP PUSH1 0x20 PUSH2 0x94B DUP6 DUP3 DUP7 ADD PUSH2 0x903 JUMP JUMPDEST SWAP2 POP POP SWAP3 POP SWAP3 SWAP1 POP JUMP JUMPDEST PUSH0 DUP2 ISZERO ISZERO SWAP1 POP SWAP2 SWAP1 POP JUMP JUMPDEST PUSH2 0x969 DUP2 PUSH2 0x955 JUMP JUMPDEST DUP3 MSTORE POP POP JUMP JUMPDEST PUSH0 PUSH1 0x20 DUP3 ADD SWAP1 POP PUSH2 0x982 PUSH0 DUP4 ADD DUP5 PUSH2 0x960 JUMP JUMPDEST SWAP3 SWAP2 POP POP JUMP JUMPDEST PUSH0 DUP2 SWAP1 POP SWAP2 SWAP1 POP JUMP JUMPDEST PUSH2 0x99A DUP2 PUSH2 0x988 JUMP JUMPDEST DUP3 MSTORE POP POP JUMP JUMPDEST PUSH0 PUSH1 0x20 DUP3 ADD SWAP1 POP PUSH2 0x9B3 PUSH0 DUP4 ADD DUP5 PUSH2 0x991 JUMP JUMPDEST SWAP3 SWAP2 POP POP JUMP JUMPDEST PUSH0 PUSH20 0xFFFFFFFFFFFFFFFFFFFFFFFFFFFFFFFFFFFFFFFF DUP3 AND SWAP1 POP SWAP2 SWAP1 POP JUMP JUMPDEST PUSH0 PUSH2 0x9E2 DUP3 PUSH2 0x9B9 JUMP JUMPDEST SWAP1 POP SWAP2 SWAP1 POP JUMP JUMPDEST PUSH2 0x9F2 DUP2 PUSH2 0x9D8 JUMP JUMPDEST DUP2 EQ PUSH2 0x9FC JUMPI PUSH0 DUP1 REVERT JUMPDEST POP JUMP JUMPDEST PUSH0 DUP2 CALLDATALOAD SWAP1 POP PUSH2 0xA0D DUP2 PUSH2 0x9E9 JUMP JUMPDEST SWAP3 SWAP2 POP POP JUMP JUMPDEST PUSH0 PUSH1 0x20 DUP3 DUP5 SUB SLT ISZERO PUSH2 0xA28 JUMPI PUSH2 0xA27 PUSH2 0x8DC JUMP JUMPDEST JUMPDEST PUSH0 PUSH2 0xA35 DUP5 DUP3 DUP6 ADD PUSH2 0x9FF JUMP JUMPDEST SWAP2 POP POP SWAP3 SWAP2 POP POP JUMP JUMPDEST PUSH0 DUP1 REVERT JUMPDEST PUSH0 DUP1 REVERT JUMPDEST PUSH0 PUSH1 0x1F NOT PUSH1 0x1F DUP4 ADD AND SWAP1 POP SWAP2 SWAP1 POP JUMP JUMPDEST PUSH32 0x4E487B7100000000000000000000000000000000000000000000000000000000 PUSH0 MSTORE PUSH1 0x41 PUSH1 0x4 MSTORE PUSH1 0x24 PUSH0 REVERT JUMPDEST PUSH2 0xA8C DUP3 PUSH2 0xA46 JUMP JUMPDEST DUP2 ADD DUP2 DUP2 LT PUSH8 0xFFFFFFFFFFFFFFFF DUP3 GT OR ISZERO PUSH2 0xAAB JUMPI PUSH2 0xAAA PUSH2 0xA56 JUMP JUMPDEST JUMPDEST DUP1 PUSH1 0x40 MSTORE POP POP POP JUMP JUMPDEST PUSH0 PUSH2 0xABD PUSH2 0x8D3 JUMP JUMPDEST SWAP1 POP PUSH2 0xAC9 DUP3 DUP3 PUSH2 0xA83 JUMP JUMPDEST SWAP2 SWAP1 POP JUMP JUMPDEST PUSH0 PUSH8 0xFFFFFFFFFFFFFFFF DUP3 GT ISZERO PUSH2 0xAE8 JUMPI PUSH2 0xAE7 PUSH2 0xA56 JUMP JUMPDEST JUMPDEST PUSH2 0xAF1 DUP3 PUSH2 0xA46 JUMP JUMPDEST SWAP1 POP PUSH1 0x20 DUP2 ADD SWAP1 POP SWAP2 SWAP1 POP JUMP JUMPDEST DUP3 DUP2 DUP4 CALLDATACOPY PUSH0 DUP4 DUP4 ADD MSTORE POP POP POP JUMP JUMPDEST PUSH0 PUSH2 0xB1E PUSH2 0xB19 DUP5 PUSH2 0xACE JUMP JUMPDEST PUSH2 0xAB4 JUMP JUMPDEST SWAP1 POP DUP3 DUP2 MSTORE PUSH1 0x20 DUP2 ADD DUP5 DUP5 DUP5 ADD GT ISZERO PUSH2 0xB3A JUMPI PUSH2 0xB39 PUSH2 0xA42 JUMP JUMPDEST JUMPDEST PUSH2 0xB45 DUP5 DUP3 DUP6 PUSH2 0xAFE JUMP JUMPDEST POP SWAP4 SWAP3 POP POP POP JUMP JUMPDEST PUSH0 DUP3 PUSH1 0x1F DUP4 ADD SLT PUSH2 0xB61 JUMPI PUSH2 0xB60 PUSH2 0xA3E JUMP JUMPDEST JUMPDEST DUP2 CALLDATALOAD PUSH2 0xB71 DUP5 DUP3 PUSH1 0x20 DUP7 ADD PUSH2 0xB0C JUMP JUMPDEST SWAP2 POP POP SWAP3 SWAP2 POP POP JUMP JUMPDEST PUSH0 PUSH1 0x20 DUP3 DUP5 SUB SLT ISZERO PUSH2 0xB8F JUMPI PUSH2 0xB8E PUSH2 0x8DC JUMP JUMPDEST JUMPDEST PUSH0 DUP3 ADD CALLDATALOAD PUSH8 0xFFFFFFFFFFFFFFFF DUP2 GT ISZERO PUSH2 0xBAC JUMPI PUSH2 0xBAB PUSH2 0x8E0 JUMP JUMPDEST JUMPDEST PUSH2 0xBB8 DUP5 DUP3 DUP6 ADD PUSH2 0xB4D JUMP JUMPDEST SWAP2 POP POP SWAP3 SWAP2 POP POP JUMP JUMPDEST PUSH2 0xBCA DUP2 PUSH2 0x988 JUMP JUMPDEST DUP2 EQ PUSH2 0xBD4 JUMPI PUSH0 DUP1 REVERT JUMPDEST POP JUMP JUMPDEST PUSH0 DUP2 CALLDATALOAD SWAP1 POP PUSH2 0xBE5 DUP2 PUSH2 0xBC1 JUMP JUMPDEST SWAP3 SWAP2 POP POP JUMP JUMPDEST PUSH0 DUP1 REVERT JUMPDEST PUSH0 DUP1 REVERT JUMPDEST PUSH0 DUP1 DUP4 PUSH1 0x1F DUP5 ADD SLT PUSH2 0xC08 JUMPI PUSH2 0xC07 PUSH2 0xA3E JUMP JUMPDEST JUMPDEST DUP3 CALLDATALOAD SWAP1 POP PUSH8 0xFFFFFFFFFFFFFFFF DUP2 GT ISZERO PUSH2 0xC25 JUMPI PUSH2 0xC24 PUSH2 0xBEB JUMP JUMPDEST JUMPDEST PUSH1 0x20 DUP4 ADD SWAP2 POP DUP4 PUSH1 0x1 DUP3 MUL DUP4 ADD GT ISZERO PUSH2 0xC41 JUMPI PUSH2 0xC40 PUSH2 0xBEF JUMP JUMPDEST JUMPDEST SWAP3 POP SWAP3 SWAP1 POP JUMP JUMPDEST PUSH0 DUP1 PUSH0 PUSH1 0x40 DUP5 DUP7 SUB SLT ISZERO PUSH2 0xC5F JUMPI PUSH2 0xC5E PUSH2 0x8DC JUMP JUMPDEST JUMPDEST PUSH0 PUSH2 0xC6C DUP7 DUP3 DUP8 ADD PUSH2 0xBD7 JUMP JUMPDEST SWAP4 POP POP PUSH1 0x20 DUP5 ADD CALLDATALOAD PUSH8 0xFFFFFFFFFFFFFFFF DUP2 GT ISZERO PUSH2 0xC8D JUMPI PUSH2 0xC8C PUSH2 0x8E0 JUMP JUMPDEST JUMPDEST PUSH2 0xC99 DUP7 DUP3 DUP8 ADD PUSH2 0xBF3 JUMP JUMPDEST SWAP3 POP SWAP3 POP POP SWAP3 POP SWAP3 POP SWAP3 JUMP JUMPDEST PUSH0 PUSH1 0x20 DUP3 DUP5 SUB SLT ISZERO PUSH2 0xCBA JUMPI PUSH2 0xCB9 PUSH2 0x8DC JUMP JUMPDEST JUMPDEST PUSH0 PUSH2 0xCC7 DUP5 DUP3 DUP6 ADD PUSH2 0xBD7 JUMP JUMPDEST SWAP2 POP POP SWAP3 SWAP2 POP POP JUMP JUMPDEST PUSH0 DUP2 MLOAD SWAP1 POP SWAP2 SWAP1 POP JUMP JUMPDEST PUSH0 DUP3 DUP3 MSTORE PUSH1 0x20 DUP3 ADD SWAP1 POP SWAP3 SWAP2 POP POP JUMP JUMPDEST PUSH0 JUMPDEST DUP4 DUP2 LT ISZERO PUSH2 0xD07 JUMPI DUP1 DUP3 ADD MLOAD DUP2 DUP5 ADD MSTORE PUSH1 0x20 DUP2 ADD SWAP1 POP PUSH2 0xCEC JUMP JUMPDEST PUSH0 DUP5 DUP5 ADD MSTORE POP POP POP POP JUMP JUMPDEST PUSH0 PUSH2 0xD1C DUP3 PUSH2 0xCD0 JUMP JUMPDEST PUSH2 0xD26 DUP2 DUP6 PUSH2 0xCDA JUMP JUMPDEST SWAP4 POP PUSH2 0xD36 DUP2 DUP6 PUSH1 0x20 DUP7 ADD PUSH2 0xCEA JUMP JUMPDEST PUSH2 0xD3F DUP2 PUSH2 0xA46 JUMP JUMPDEST DUP5 ADD SWAP2 POP POP SWAP3 SWAP2 POP POP JUMP JUMPDEST PUSH0 PUSH1 0x20 DUP3 ADD SWAP1 POP DUP2 DUP2 SUB PUSH0 DUP4 ADD MSTORE PUSH2 0xD62 DUP2 DUP5 PUSH2 0xD12 JUMP JUMPDEST SWAP1 POP SWAP3 SWAP2 POP POP JUMP JUMPDEST PUSH2 0xD73 DUP2 PUSH2 0x8E4 JUMP JUMPDEST DUP3 MSTORE POP POP JUMP JUMPDEST PUSH0 PUSH1 0x40 DUP3 ADD SWAP1 POP PUSH2 0xD8C PUSH0 DUP4 ADD DUP6 PUSH2 0xD6A JUMP JUMPDEST PUSH2 0xD99 PUSH1 0x20 DUP4 ADD DUP5 PUSH2 0xD6A JUMP JUMPDEST SWAP4 SWAP3 POP POP POP JUMP JUMPDEST PUSH0 DUP2 SWAP1 POP SWAP3 SWAP2 POP POP JUMP JUMPDEST PUSH0 PUSH2 0xDB4 DUP3 PUSH2 0xCD0 JUMP JUMPDEST PUSH2 0xDBE DUP2 DUP6 PUSH2 0xDA0 JUMP JUMPDEST SWAP4 POP PUSH2 0xDCE DUP2 DUP6 PUSH1 0x20 DUP7 ADD PUSH2 0xCEA JUMP JUMPDEST DUP1 DUP5 ADD SWAP2 POP POP SWAP3 SWAP2 POP POP JUMP JUMPDEST PUSH0 PUSH2 0xDE5 DUP3 DUP5 PUSH2 0xDAA JUMP JUMPDEST SWAP2 POP DUP2 SWAP1 POP SWAP3 SWAP2 POP POP JUMP JUMPDEST PUSH32 0x4E487B7100000000000000000000000000000000000000000000000000000000 PUSH0 MSTORE PUSH1 0x11 PUSH1 0x4 MSTORE PUSH1 0x24 PUSH0 REVERT JUMPDEST PUSH0 PUSH2 0xE27 DUP3 PUSH2 0x988 JUMP JUMPDEST SWAP2 POP PUSH2 0xE32 DUP4 PUSH2 0x988 JUMP JUMPDEST SWAP3 POP DUP3 DUP3 SUB SWAP1 POP DUP2 DUP2 GT ISZERO PUSH2 0xE4A JUMPI PUSH2 0xE49 PUSH2 0xDF0 JUMP JUMPDEST JUMPDEST SWAP3 SWAP2 POP POP JUMP JUMPDEST PUSH2 0xE59 DUP2 PUSH2 0x9D8 JUMP JUMPDEST DUP3 MSTORE POP POP JUMP JUMPDEST PUSH0 PUSH1 0x20 DUP3 ADD SWAP1 POP PUSH2 0xE72 PUSH0 DUP4 ADD DUP5 PUSH2 0xE50 JUMP JUMPDEST SWAP3 SWAP2 POP POP JUMP JUMPDEST PUSH0 PUSH2 0xE82 DUP3 PUSH2 0x988 JUMP JUMPDEST SWAP2 POP PUSH32 0xFFFFFFFFFFFFFFFFFFFFFFFFFFFFFFFFFFFFFFFFFFFFFFFFFFFFFFFFFFFFFFFF DUP3 SUB PUSH2 0xEB4 JUMPI PUSH2 0xEB3 PUSH2 0xDF0 JUMP JUMPDEST JUMPDEST PUSH1 0x1 DUP3 ADD SWAP1 POP SWAP2 SWAP1 POP JUMP JUMPDEST PUSH32 0x4E487B7100000000000000000000000000000000000000000000000000000000 PUSH0 MSTORE PUSH1 0x22 PUSH1 0x4 MSTORE PUSH1 0x24 PUSH0 REVERT JUMPDEST PUSH0 PUSH1 0x2 DUP3 DIV SWAP1 POP PUSH1 0x1 DUP3 AND DUP1 PUSH2 0xF03 JUMPI PUSH1 0x7F DUP3 AND SWAP2 POP JUMPDEST PUSH1 0x20 DUP3 LT DUP2 SUB PUSH2 0xF16 JUMPI PUSH2 0xF15 PUSH2 0xEBF JUMP JUMPDEST JUMPDEST POP SWAP2 SWAP1 POP JUMP JUMPDEST PUSH0 DUP2 SWAP1 POP DUP2 PUSH0 MSTORE PUSH1 0x20 PUSH0 KECCAK256 SWAP1 POP SWAP2 SWAP1 POP JUMP JUMPDEST PUSH0 PUSH1 0x20 PUSH1 0x1F DUP4 ADD DIV SWAP1 POP SWAP2 SWAP1 POP JUMP JUMPDEST PUSH0 DUP3 DUP3 SHL SWAP1 POP SWAP3 SWAP2 POP POP JUMP JUMPDEST PUSH0 PUSH1 0x8 DUP4 MUL PUSH2 0xF78 PUSH32 0xFFFFFFFFFFFFFFFFFFFFFFFFFFFFFFFFFFFFFFFFFFFFFFFFFFFFFFFFFFFFFFFF DUP3 PUSH2 0xF3D JUMP JUMPDEST PUSH2 0xF82 DUP7 DUP4 PUSH2 0xF3D JUMP JUMPDEST SWAP6 POP DUP1 NOT DUP5 AND SWAP4 POP DUP1 DUP7 AND DUP5 OR SWAP3 POP POP POP SWAP4 SWAP3 POP POP POP JUMP JUMPDEST PUSH0 DUP2 SWAP1 POP SWAP2 SWAP1 POP JUMP JUMPDEST PUSH0 PUSH2 0xFBD PUSH2 0xFB8 PUSH2 0xFB3 DUP5 PUSH2 0x988 JUMP JUMPDEST PUSH2 0xF9A JUMP JUMPDEST PUSH2 0x988 JUMP JUMPDEST SWAP1 POP SWAP2 SWAP1 POP JUMP JUMPDEST PUSH0 DUP2 SWAP1 POP SWAP2 SWAP1 POP JUMP JUMPDEST PUSH2 0xFD6 DUP4 PUSH2 0xFA3 JUMP JUMPDEST PUSH2 0xFEA PUSH2 0xFE2 DUP3 PUSH2 0xFC4 JUMP JUMPDEST DUP5 DUP5 SLOAD PUSH2 0xF49 JUMP JUMPDEST DUP3 SSTORE POP POP POP POP JUMP JUMPDEST PUSH0 SWAP1 JUMP JUMPDEST PUSH2 0xFFE PUSH2 0xFF2 JUMP JUMPDEST PUSH2 0x1009 DUP2 DUP5 DUP5 PUSH2 0xFCD JUMP JUMPDEST POP POP POP JUMP JUMPDEST JUMPDEST DUP2 DUP2 LT ISZERO PUSH2 0x102C JUMPI PUSH2 0x1021 PUSH0 DUP3 PUSH2 0xFF6 JUMP JUMPDEST PUSH1 0x1 DUP2 ADD SWAP1 POP PUSH2 0x100F JUMP JUMPDEST POP POP JUMP JUMPDEST PUSH1 0x1F DUP3 GT ISZERO PUSH2 0x1071 JUMPI PUSH2 0x1042 DUP2 PUSH2 0xF1C JUMP JUMPDEST PUSH2 0x104B DUP5 PUSH2 0xF2E JUMP JUMPDEST DUP2 ADD PUSH1 0x20 DUP6 LT ISZERO PUSH2 0x105A JUMPI DUP2 SWAP1 POP JUMPDEST PUSH2 0x106E PUSH2 0x1066 DUP6 PUSH2 0xF2E JUMP JUMPDEST DUP4 ADD DUP3 PUSH2 0x100E JUMP JUMPDEST POP POP JUMPDEST POP POP POP JUMP JUMPDEST PUSH0 DUP3 DUP3 SHR SWAP1 POP SWAP3 SWAP2 POP POP JUMP JUMPDEST PUSH0 PUSH2 0x1091 PUSH0 NOT DUP5 PUSH1 0x8 MUL PUSH2 0x1076 JUMP JUMPDEST NOT DUP1 DUP4 AND SWAP2 POP POP SWAP3 SWAP2 POP POP JUMP JUMPDEST PUSH0 PUSH2 0x10A9 DUP4 DUP4 PUSH2 0x1082 JUMP JUMPDEST SWAP2 POP DUP3 PUSH1 0x2 MUL DUP3 OR SWAP1 POP SWAP3 SWAP2 POP POP JUMP JUMPDEST PUSH2 0x10C2 DUP3 PUSH2 0xCD0 JUMP JUMPDEST PUSH8 0xFFFFFFFFFFFFFFFF DUP2 GT ISZERO PUSH2 0x10DB JUMPI PUSH2 0x10DA PUSH2 0xA56 JUMP JUMPDEST JUMPDEST PUSH2 0x10E5 DUP3 SLOAD PUSH2 0xEEC JUMP JUMPDEST PUSH2 0x10F0 DUP3 DUP3 DUP6 PUSH2 0x1030 JUMP JUMPDEST PUSH0 PUSH1 0x20 SWAP1 POP PUSH1 0x1F DUP4 GT PUSH1 0x1 DUP2 EQ PUSH2 0x1121 JUMPI PUSH0 DUP5 ISZERO PUSH2 0x110F JUMPI DUP3 DUP8 ADD MLOAD SWAP1 POP JUMPDEST PUSH2 0x1119 DUP6 DUP3 PUSH2 0x109E JUMP JUMPDEST DUP7 SSTORE POP PUSH2 0x1180 JUMP JUMPDEST PUSH1 0x1F NOT DUP5 AND PUSH2 0x112F DUP7 PUSH2 0xF1C JUMP JUMPDEST PUSH0 JUMPDEST DUP3 DUP2 LT ISZERO PUSH2 0x1156 JUMPI DUP5 DUP10 ADD MLOAD DUP3 SSTORE PUSH1 0x1 DUP3 ADD SWAP2 POP PUSH1 0x20 DUP6 ADD SWAP5 POP PUSH1 0x20 DUP2 ADD SWAP1 POP PUSH2 0x1131 JUMP JUMPDEST DUP7 DUP4 LT ISZERO PUSH2 0x1173 JUMPI DUP5 DUP10 ADD MLOAD PUSH2 0x116F PUSH1 0x1F DUP10 AND DUP3 PUSH2 0x1082 JUMP JUMPDEST DUP4 SSTORE POP JUMPDEST PUSH1 0x1 PUSH1 0x2 DUP9 MUL ADD DUP9 SSTORE POP POP POP JUMPDEST POP POP POP POP POP POP JUMP JUMPDEST PUSH0 PUSH2 0x1193 DUP4 DUP6 PUSH2 0xDA0 JUMP JUMPDEST SWAP4 POP PUSH2 0x11A0 DUP4 DUP6 DUP5 PUSH2 0xAFE JUMP JUMPDEST DUP3 DUP5 ADD SWAP1 POP SWAP4 SWAP3 POP POP POP JUMP JUMPDEST PUSH0 PUSH2 0x11B8 DUP3 DUP5 DUP7 PUSH2 0x1188 JUMP JUMPDEST SWAP2 POP DUP2 SWAP1 POP SWAP4 SWAP3 POP POP POP JUMP JUMPDEST PUSH0 PUSH2 0x11CF DUP4 DUP6 PUSH2 0xCDA JUMP JUMPDEST SWAP4 POP PUSH2 0x11DC DUP4 DUP6 DUP5 PUSH2 0xAFE JUMP JUMPDEST PUSH2 0x11E5 DUP4 PUSH2 0xA46 JUMP JUMPDEST DUP5 ADD SWAP1 POP SWAP4 SWAP3 POP POP POP JUMP JUMPDEST PUSH0 PUSH1 0x60 DUP3 ADD SWAP1 POP PUSH2 0x1203 PUSH0 DUP4 ADD DUP8 PUSH2 0x991 JUMP JUMPDEST DUP2 DUP2 SUB PUSH1 0x20 DUP4 ADD MSTORE PUSH2 0x1216 DUP2 DUP6 DUP8 PUSH2 0x11C4 JUMP JUMPDEST SWAP1 POP DUP2 DUP2 SUB PUSH1 0x40 DUP4 ADD MSTORE PUSH2 0x122A DUP2 DUP5 PUSH2 0xD12 JUMP JUMPDEST SWAP1 POP SWAP6 SWAP5 POP POP POP POP POP JUMP JUMPDEST PUSH0 PUSH1 0x20 DUP3 ADD SWAP1 POP DUP2 DUP2 SUB PUSH0 DUP4 ADD MSTORE PUSH2 0x124E DUP2 DUP5 DUP7 PUSH2 0x11C4 JUMP JUMPDEST SWAP1 POP SWAP4 SWAP3 POP POP POP JUMP INVALID LOG2 PUSH5 0x6970667358 0x22 SLT KECCAK256 0xA8 0xC3 LOG4 0xC5 MOD CALLCODE PC ADD 0xF8 SWAP1 CALLVALUE GAS 0xEA 0xC5 0x4E PUSH22 0x4D96754B8FC2B14BF401DCCFE8F1B1F564736F6C6343 STOP ADDMOD OR STOP CALLER "
				},
				"gasEstimates": {
					"creation": {
						"codeDepositCost": "949800",
						"executionCost": "986",
						"totalCost": "950786"
					},
					"external": {
						"addOwnerAddress(address)": "infinite",
						"addOwnerPublicKey(bytes32,bytes32)": "infinite",
						"isOwnerAddress(address)": "infinite",
						"isOwnerBytes(bytes)": "infinite",
						"isOwnerPublicKey(bytes32,bytes32)": "infinite",
						"nextOwnerIndex()": "2581",
						"ownerAtIndex(uint256)": "infinite",
						"ownerCount()": "infinite",
						"removeLastOwner(uint256,bytes)": "infinite",
						"removeOwnerAtIndex(uint256,bytes)": "infinite",
						"removedOwnersCount()": "2472"
					},
					"internal": {
						"_addOwnerAtIndex(bytes memory,uint256)": "infinite",
						"_checkOwner()": "infinite",
						"_getMultiOwnableStorage()": "22",
						"_initializeOwners(bytes memory[] memory)": "infinite",
						"_removeOwnerAtIndex(uint256,bytes calldata)": "infinite"
					}
				},
				"methodIdentifiers": {
					"addOwnerAddress(address)": "0f0f3f24",
					"addOwnerPublicKey(bytes32,bytes32)": "29565e3b",
					"isOwnerAddress(address)": "a2e1a8d8",
					"isOwnerBytes(bytes)": "1ca5393f",
					"isOwnerPublicKey(bytes32,bytes32)": "066a1eb7",
					"nextOwnerIndex()": "d948fd2e",
					"ownerAtIndex(uint256)": "8ea69029",
					"ownerCount()": "0db02622",
					"removeLastOwner(uint256,bytes)": "b8197367",
					"removeOwnerAtIndex(uint256,bytes)": "89625b57",
					"removedOwnersCount()": "36d9cf9b"
				}
			},
			"storageLayout": {
				"storage": [],
				"types": null
			},
			"userdoc": {
				"errors": {
					"AlreadyOwner(bytes)": [
						{
							"notice": "Thrown when trying to add an already registered owner."
						}
					],
					"InvalidEthereumAddressOwner(bytes)": [
						{
							"notice": "Thrown if a provided owner is 32 bytes long but does not fit in an `address` type."
						}
					],
					"InvalidOwnerBytesLength(bytes)": [
						{
							"notice": "Thrown when a provided owner is neither 64 bytes long (for public key)         nor a ABI encoded address."
						}
					],
					"LastOwner()": [
						{
							"notice": "Thrown when removeOwnerAtIndex is called and there is only one current owner."
						}
					],
					"NoOwnerAtIndex(uint256)": [
						{
							"notice": "Thrown when trying to remove an owner from an index that is empty."
						}
					],
					"NotLastOwner(uint256)": [
						{
							"notice": "Thrown when removeLastOwner is called and there is more than one current owner."
						}
					],
					"Unauthorized()": [
						{
							"notice": "Thrown when the `msg.sender` is not an owner and is trying to call a privileged function."
						}
					],
					"WrongOwnerAtIndex(uint256,bytes,bytes)": [
						{
							"notice": "Thrown when `owner` argument does not match owner found at index."
						}
					]
				},
				"events": {
					"AddOwner(uint256,bytes)": {
						"notice": "Emitted when a new owner is registered."
					},
					"RemoveOwner(uint256,bytes)": {
						"notice": "Emitted when an owner is removed."
					}
				},
				"kind": "user",
				"methods": {
					"addOwnerAddress(address)": {
						"notice": "Adds a new Ethereum-address owner."
					},
					"addOwnerPublicKey(bytes32,bytes32)": {
						"notice": "Adds a new public-key owner."
					},
					"isOwnerAddress(address)": {
						"notice": "Checks if the given `account` address is registered as owner."
					},
					"isOwnerBytes(bytes)": {
						"notice": "Checks if the given `account` bytes is registered as owner."
					},
					"isOwnerPublicKey(bytes32,bytes32)": {
						"notice": "Checks if the given `x`, `y` public key is registered as owner."
					},
					"nextOwnerIndex()": {
						"notice": "Returns the next index that will be used to add a new owner."
					},
					"ownerAtIndex(uint256)": {
						"notice": "Returns the owner bytes at the given `index`."
					},
					"ownerCount()": {
						"notice": "Returns the current number of owners"
					},
					"removeLastOwner(uint256,bytes)": {
						"notice": "Removes owner at the given `index`, which should be the only current owner."
					},
					"removeOwnerAtIndex(uint256,bytes)": {
						"notice": "Removes owner at the given `index`."
					},
					"removedOwnersCount()": {
						"notice": "Tracks the number of owners removed"
					}
				},
				"notice": "Auth contract allowing multiple owners, each identified as bytes.",
				"version": 1
			}
		}
	}
}