{
	"contracts/titledeeds.sol": {
		"LandTitleRegistry": {
			"abi": [
				{
					"inputs": [],
					"stateMutability": "nonpayable",
					"type": "constructor"
				},
				{
					"anonymous": false,
					"inputs": [
						{
							"indexed": true,
							"internalType": "uint256",
							"name": "id",
							"type": "uint256"
						}
					],
					"name": "LandTitleNotRegistered",
					"type": "event"
				},
				{
					"anonymous": false,
					"inputs": [
						{
							"indexed": true,
							"internalType": "uint256",
							"name": "id",
							"type": "uint256"
						},
						{
							"indexed": true,
							"internalType": "address",
							"name": "newOwnerAddress",
							"type": "address"
						},
						{
							"indexed": false,
							"internalType": "string",
							"name": "newLocation",
							"type": "string"
						},
						{
							"indexed": false,
							"internalType": "uint256",
							"name": "newArea",
							"type": "uint256"
						},
						{
							"indexed": false,
							"internalType": "string",
							"name": "newDocumentHash",
							"type": "string"
						}
					],
					"name": "LandTitleUpdated",
					"type": "event"
				},
				{
					"inputs": [
						{
							"internalType": "uint256",
							"name": "_id",
							"type": "uint256"
						}
					],
					"name": "getLandDetails",
					"outputs": [
						{
							"internalType": "bool",
							"name": "isRegistered",
							"type": "bool"
						},
						{
							"internalType": "address",
							"name": "ownerAddress",
							"type": "address"
						},
						{
							"internalType": "string",
							"name": "location",
							"type": "string"
						},
						{
							"internalType": "uint256",
							"name": "area",
							"type": "uint256"
						},
						{
							"internalType": "string",
							"name": "documentHash",
							"type": "string"
						}
					],
					"stateMutability": "view",
					"type": "function"
				},
				{
					"inputs": [],
					"name": "government",
					"outputs": [
						{
							"internalType": "address",
							"name": "",
							"type": "address"
						}
					],
					"stateMutability": "view",
					"type": "function"
				},
				{
					"inputs": [
						{
							"internalType": "uint256",
							"name": "",
							"type": "uint256"
						}
					],
					"name": "landTitles",
					"outputs": [
						{
							"internalType": "bool",
							"name": "isRegistered",
							"type": "bool"
						},
						{
							"internalType": "address",
							"name": "ownerAddress",
							"type": "address"
						},
						{
							"internalType": "string",
							"name": "location",
							"type": "string"
						},
						{
							"internalType": "uint256",
							"name": "area",
							"type": "uint256"
						},
						{
							"internalType": "string",
							"name": "documentHash",
							"type": "string"
						}
					],
					"stateMutability": "view",
					"type": "function"
				},
				{
					"inputs": [
						{
							"internalType": "uint256",
							"name": "_id",
							"type": "uint256"
						},
						{
							"internalType": "address",
							"name": "_ownerAddress",
							"type": "address"
						},
						{
							"internalType": "string",
							"name": "_location",
							"type": "string"
						},
						{
							"internalType": "uint256",
							"name": "_area",
							"type": "uint256"
						},
						{
							"internalType": "string",
							"name": "_documentHash",
							"type": "string"
						}
					],
					"name": "registerLandTitle",
					"outputs": [],
					"stateMutability": "nonpayable",
					"type": "function"
				},
				{
					"inputs": [],
					"name": "titleDeedTokenization",
					"outputs": [
						{
							"internalType": "contract TitleDeedTokenization",
							"name": "",
							"type": "address"
						}
					],
					"stateMutability": "view",
					"type": "function"
				},
				{
					"inputs": [
						{
							"internalType": "uint256",
							"name": "_id",
							"type": "uint256"
						},
						{
							"internalType": "address",
							"name": "_newOwnerAddress",
							"type": "address"
						},
						{
							"internalType": "string",
							"name": "_newLocation",
							"type": "string"
						},
						{
							"internalType": "uint256",
							"name": "_newArea",
							"type": "uint256"
						},
						{
							"internalType": "string",
							"name": "_newDocumentHash",
							"type": "string"
						}
					],
					"name": "updateLandDetails",
					"outputs": [],
					"stateMutability": "nonpayable",
					"type": "function"
				}
			],
			"devdoc": {
				"kind": "dev",
				"methods": {},
				"version": 1
			},
			"evm": {
				"assembly": "    /* \"contracts/titledeeds.sol\":868:4204  contract LandTitleRegistry {... */\n  mstore(0x40, 0x80)\n    /* \"contracts/titledeeds.sol\":1683:1838  constructor() {... */\n  callvalue\n  dup1\n  iszero\n  tag_1\n  jumpi\n  0x00\n  dup1\n  revert\ntag_1:\n  pop\n    /* \"contracts/titledeeds.sol\":1721:1731  msg.sender */\n  caller\n    /* \"contracts/titledeeds.sol\":1708:1718  government */\n  0x01\n  0x00\n    /* \"contracts/titledeeds.sol\":1708:1731  government = msg.sender */\n  0x0100\n  exp\n  dup2\n  sload\n  dup2\n  0xffffffffffffffffffffffffffffffffffffffff\n  mul\n  not\n  and\n  swap1\n  dup4\n  0xffffffffffffffffffffffffffffffffffffffff\n  and\n  mul\n  or\n  swap1\n  sstore\n  pop\n    /* \"contracts/titledeeds.sol\":1766:1793  new TitleDeedTokenization() */\n  mload(0x40)\n  tag_4\n  swap1\n  tag_5\n  jump\t// in\ntag_4:\n  mload(0x40)\n  dup1\n  swap2\n  sub\n  swap1\n  0x00\n  create\n  dup1\n  iszero\n  dup1\n  iszero\n  tag_6\n  jumpi\n  returndatasize\n  0x00\n  dup1\n  returndatacopy\n  revert(0x00, returndatasize)\ntag_6:\n  pop\n    /* \"contracts/titledeeds.sol\":1742:1763  titleDeedTokenization */\n  0x02\n  0x00\n    /* \"contracts/titledeeds.sol\":1742:1793  titleDeedTokenization = new TitleDeedTokenization() */\n  0x0100\n  exp\n  dup2\n  sload\n  dup2\n  0xffffffffffffffffffffffffffffffffffffffff\n  mul\n  not\n  and\n  swap1\n  dup4\n  0xffffffffffffffffffffffffffffffffffffffff\n  and\n  mul\n  or\n  swap1\n  sstore\n  pop\n    /* \"contracts/titledeeds.sol\":868:4204  contract LandTitleRegistry {... */\n  jump(tag_7)\ntag_5:\n  dataSize(sub_1)\n  dup1\n  dataOffset(sub_1)\n  dup4\n  codecopy\n  add\n  swap1\n  jump\t// out\ntag_7:\n  dataSize(sub_0)\n  dup1\n  dataOffset(sub_0)\n  0x00\n  codecopy\n  0x00\n  return\nstop\n\nsub_0: assembly {\n        /* \"contracts/titledeeds.sol\":868:4204  contract LandTitleRegistry {... */\n      mstore(0x40, 0x80)\n      callvalue\n      dup1\n      iszero\n      tag_1\n      jumpi\n      0x00\n      dup1\n      revert\n    tag_1:\n      pop\n      jumpi(tag_2, lt(calldatasize, 0x04))\n      shr(0xe0, calldataload(0x00))\n      dup1\n      0x0b8d438c\n      eq\n      tag_3\n      jumpi\n      dup1\n      0x2672f526\n      eq\n      tag_4\n      jumpi\n      dup1\n      0x40491cca\n      eq\n      tag_5\n      jumpi\n      dup1\n      0x49f3ef0b\n      eq\n      tag_6\n      jumpi\n      dup1\n      0xa79a6cc3\n      eq\n      tag_7\n      jumpi\n      dup1\n      0xfe0cb7dc\n      eq\n      tag_8\n      jumpi\n    tag_2:\n      0x00\n      dup1\n      revert\n        /* \"contracts/titledeeds.sol\":1157:1204  mapping(uint256 => LandTitle) public landTitles */\n    tag_3:\n      tag_9\n      0x04\n      dup1\n      calldatasize\n      sub\n      dup2\n      add\n      swap1\n      tag_10\n      swap2\n      swap1\n      tag_11\n      jump\t// in\n    tag_10:\n      tag_12\n      jump\t// in\n    tag_9:\n      mload(0x40)\n      tag_13\n      swap6\n      swap5\n      swap4\n      swap3\n      swap2\n      swap1\n      tag_14\n      jump\t// in\n    tag_13:\n      mload(0x40)\n      dup1\n      swap2\n      sub\n      swap1\n      return\n        /* \"contracts/titledeeds.sol\":1493:1518  address public government */\n    tag_4:\n      tag_15\n      tag_16\n      jump\t// in\n    tag_15:\n      mload(0x40)\n      tag_17\n      swap2\n      swap1\n      tag_18\n      jump\t// in\n    tag_17:\n      mload(0x40)\n      dup1\n      swap2\n      sub\n      swap1\n      return\n        /* \"contracts/titledeeds.sol\":1578:1628  TitleDeedTokenization public titleDeedTokenization */\n    tag_5:\n      tag_19\n      tag_20\n      jump\t// in\n    tag_19:\n      mload(0x40)\n      tag_21\n      swap2\n      swap1\n      tag_22\n      jump\t// in\n    tag_21:\n      mload(0x40)\n      dup1\n      swap2\n      sub\n      swap1\n      return\n        /* \"contracts/titledeeds.sol\":2865:3698  function updateLandDetails(... */\n    tag_6:\n      tag_23\n      0x04\n      dup1\n      calldatasize\n      sub\n      dup2\n      add\n      swap1\n      tag_24\n      swap2\n      swap1\n      tag_25\n      jump\t// in\n    tag_24:\n      tag_26\n      jump\t// in\n    tag_23:\n      stop\n        /* \"contracts/titledeeds.sol\":2092:2811  function registerLandTitle(... */\n    tag_7:\n      tag_27\n      0x04\n      dup1\n      calldatasize\n      sub\n      dup2\n      add\n      swap1\n      tag_28\n      swap2\n      swap1\n      tag_25\n      jump\t// in\n    tag_28:\n      tag_29\n      jump\t// in\n    tag_27:\n      stop\n        /* \"contracts/titledeeds.sol\":3749:4201  function getLandDetails(uint256 _id) public view returns (... */\n    tag_8:\n      tag_30\n      0x04\n      dup1\n      calldatasize\n      sub\n      dup2\n      add\n      swap1\n      tag_31\n      swap2\n      swap1\n      tag_11\n      jump\t// in\n    tag_31:\n      tag_32\n      jump\t// in\n    tag_30:\n      mload(0x40)\n      tag_33\n      swap6\n      swap5\n      swap4\n      swap3\n      swap2\n      swap1\n      tag_14\n      jump\t// in\n    tag_33:\n      mload(0x40)\n      dup1\n      swap2\n      sub\n      swap1\n      return\n        /* \"contracts/titledeeds.sol\":1157:1204  mapping(uint256 => LandTitle) public landTitles */\n    tag_12:\n      mstore(0x20, 0x00)\n      dup1\n      0x00\n      mstore\n      keccak256(0x00, 0x40)\n      0x00\n      swap2\n      pop\n      swap1\n      pop\n      dup1\n      0x00\n      add\n      0x00\n      swap1\n      sload\n      swap1\n      0x0100\n      exp\n      swap1\n      div\n      0xff\n      and\n      swap1\n      dup1\n      0x00\n      add\n      0x01\n      swap1\n      sload\n      swap1\n      0x0100\n      exp\n      swap1\n      div\n      0xffffffffffffffffffffffffffffffffffffffff\n      and\n      swap1\n      dup1\n      0x01\n      add\n      dup1\n      sload\n      tag_34\n      swap1\n      tag_35\n      jump\t// in\n    tag_34:\n      dup1\n      0x1f\n      add\n      0x20\n      dup1\n      swap2\n      div\n      mul\n      0x20\n      add\n      mload(0x40)\n      swap1\n      dup2\n      add\n      0x40\n      mstore\n      dup1\n      swap3\n      swap2\n      swap1\n      dup2\n      dup2\n      mstore\n      0x20\n      add\n      dup3\n      dup1\n      sload\n      tag_36\n      swap1\n      tag_35\n      jump\t// in\n    tag_36:\n      dup1\n      iszero\n      tag_37\n      jumpi\n      dup1\n      0x1f\n      lt\n      tag_38\n      jumpi\n      0x0100\n      dup1\n      dup4\n      sload\n      div\n      mul\n      dup4\n      mstore\n      swap2\n      0x20\n      add\n      swap2\n      jump(tag_37)\n    tag_38:\n      dup3\n      add\n      swap2\n      swap1\n      0x00\n      mstore\n      keccak256(0x00, 0x20)\n      swap1\n    tag_39:\n      dup2\n      sload\n      dup2\n      mstore\n      swap1\n      0x01\n      add\n      swap1\n      0x20\n      add\n      dup1\n      dup4\n      gt\n      tag_39\n      jumpi\n      dup3\n      swap1\n      sub\n      0x1f\n      and\n      dup3\n      add\n      swap2\n    tag_37:\n      pop\n      pop\n      pop\n      pop\n      pop\n      swap1\n      dup1\n      0x02\n      add\n      sload\n      swap1\n      dup1\n      0x03\n      add\n      dup1\n      sload\n      tag_40\n      swap1\n      tag_35\n      jump\t// in\n    tag_40:\n      dup1\n      0x1f\n      add\n      0x20\n      dup1\n      swap2\n      div\n      mul\n      0x20\n      add\n      mload(0x40)\n      swap1\n      dup2\n      add\n      0x40\n      mstore\n      dup1\n      swap3\n      swap2\n      swap1\n      dup2\n      dup2\n      mstore\n      0x20\n      add\n      dup3\n      dup1\n      sload\n      tag_41\n      swap1\n      tag_35\n      jump\t// in\n    tag_41:\n      dup1\n      iszero\n      tag_42\n      jumpi\n      dup1\n      0x1f\n      lt\n      tag_43\n      jumpi\n      0x0100\n      dup1\n      dup4\n      sload\n      div\n      mul\n      dup4\n      mstore\n      swap2\n      0x20\n      add\n      swap2\n      jump(tag_42)\n    tag_43:\n      dup3\n      add\n      swap2\n      swap1\n      0x00\n      mstore\n      keccak256(0x00, 0x20)\n      swap1\n    tag_44:\n      dup2\n      sload\n      dup2\n      mstore\n      swap1\n      0x01\n      add\n      swap1\n      0x20\n      add\n      dup1\n      dup4\n      gt\n      tag_44\n      jumpi\n      dup3\n      swap1\n      sub\n      0x1f\n      and\n      dup3\n      add\n      swap2\n    tag_42:\n      pop\n      pop\n      pop\n      pop\n      pop\n      swap1\n      pop\n      dup6\n      jump\t// out\n        /* \"contracts/titledeeds.sol\":1493:1518  address public government */\n    tag_16:\n      0x01\n      0x00\n      swap1\n      sload\n      swap1\n      0x0100\n      exp\n      swap1\n      div\n      0xffffffffffffffffffffffffffffffffffffffff\n      and\n      dup2\n      jump\t// out\n        /* \"contracts/titledeeds.sol\":1578:1628  TitleDeedTokenization public titleDeedTokenization */\n    tag_20:\n      0x02\n      0x00\n      swap1\n      sload\n      swap1\n      0x0100\n      exp\n      swap1\n      div\n      0xffffffffffffffffffffffffffffffffffffffff\n      and\n      dup2\n      jump\t// out\n        /* \"contracts/titledeeds.sol\":2865:3698  function updateLandDetails(... */\n    tag_26:\n        /* \"contracts/titledeeds.sol\":1965:1975  government */\n      0x01\n      0x00\n      swap1\n      sload\n      swap1\n      0x0100\n      exp\n      swap1\n      div\n      0xffffffffffffffffffffffffffffffffffffffff\n      and\n        /* \"contracts/titledeeds.sol\":1951:1975  msg.sender == government */\n      0xffffffffffffffffffffffffffffffffffffffff\n      and\n        /* \"contracts/titledeeds.sol\":1951:1961  msg.sender */\n      caller\n        /* \"contracts/titledeeds.sol\":1951:1975  msg.sender == government */\n      0xffffffffffffffffffffffffffffffffffffffff\n      and\n      eq\n        /* \"contracts/titledeeds.sol\":1943:2022  require(msg.sender == government, \"Only the government can call this function\") */\n      tag_46\n      jumpi\n      mload(0x40)\n      0x08c379a000000000000000000000000000000000000000000000000000000000\n      dup2\n      mstore\n      0x04\n      add\n      tag_47\n      swap1\n      tag_48\n      jump\t// in\n    tag_47:\n      mload(0x40)\n      dup1\n      swap2\n      sub\n      swap1\n      revert\n    tag_46:\n        /* \"contracts/titledeeds.sol\":3102:3112  landTitles */\n      0x00\n        /* \"contracts/titledeeds.sol\":3102:3117  landTitles[_id] */\n      dup1\n        /* \"contracts/titledeeds.sol\":3113:3116  _id */\n      dup7\n        /* \"contracts/titledeeds.sol\":3102:3117  landTitles[_id] */\n      dup2\n      mstore\n      0x20\n      add\n      swap1\n      dup2\n      mstore\n      0x20\n      add\n      0x00\n      keccak256\n        /* \"contracts/titledeeds.sol\":3102:3130  landTitles[_id].isRegistered */\n      0x00\n      add\n      0x00\n      swap1\n      sload\n      swap1\n      0x0100\n      exp\n      swap1\n      div\n      0xff\n      and\n        /* \"contracts/titledeeds.sol\":3094:3160  require(landTitles[_id].isRegistered, \"Land title not registered\") */\n      tag_50\n      jumpi\n      mload(0x40)\n      0x08c379a000000000000000000000000000000000000000000000000000000000\n      dup2\n      mstore\n      0x04\n      add\n      tag_51\n      swap1\n      tag_52\n      jump\t// in\n    tag_51:\n      mload(0x40)\n      dup1\n      swap2\n      sub\n      swap1\n      revert\n    tag_50:\n        /* \"contracts/titledeeds.sol\":3190:3191  0 */\n      0x00\n        /* \"contracts/titledeeds.sol\":3179:3187  _newArea */\n      dup3\n        /* \"contracts/titledeeds.sol\":3179:3191  _newArea > 0 */\n      gt\n        /* \"contracts/titledeeds.sol\":3171:3223  require(_newArea > 0, \"Area must be greater than 0\") */\n      tag_53\n      jumpi\n      mload(0x40)\n      0x08c379a000000000000000000000000000000000000000000000000000000000\n      dup2\n      mstore\n      0x04\n      add\n      tag_54\n      swap1\n      tag_55\n      jump\t// in\n    tag_54:\n      mload(0x40)\n      dup1\n      swap2\n      sub\n      swap1\n      revert\n    tag_53:\n        /* \"contracts/titledeeds.sol\":3236:3259  LandTitle storage title */\n      0x00\n        /* \"contracts/titledeeds.sol\":3262:3272  landTitles */\n      dup1\n        /* \"contracts/titledeeds.sol\":3262:3277  landTitles[_id] */\n      0x00\n        /* \"contracts/titledeeds.sol\":3273:3276  _id */\n      dup8\n        /* \"contracts/titledeeds.sol\":3262:3277  landTitles[_id] */\n      dup2\n      mstore\n      0x20\n      add\n      swap1\n      dup2\n      mstore\n      0x20\n      add\n      0x00\n      keccak256\n        /* \"contracts/titledeeds.sol\":3236:3277  LandTitle storage title = landTitles[_id] */\n      swap1\n      pop\n        /* \"contracts/titledeeds.sol\":3309:3325  _newOwnerAddress */\n      dup5\n        /* \"contracts/titledeeds.sol\":3288:3293  title */\n      dup2\n        /* \"contracts/titledeeds.sol\":3288:3306  title.ownerAddress */\n      0x00\n      add\n      0x01\n        /* \"contracts/titledeeds.sol\":3288:3325  title.ownerAddress = _newOwnerAddress */\n      0x0100\n      exp\n      dup2\n      sload\n      dup2\n      0xffffffffffffffffffffffffffffffffffffffff\n      mul\n      not\n      and\n      swap1\n      dup4\n      0xffffffffffffffffffffffffffffffffffffffff\n      and\n      mul\n      or\n      swap1\n      sstore\n      pop\n        /* \"contracts/titledeeds.sol\":3353:3365  _newLocation */\n      dup4\n        /* \"contracts/titledeeds.sol\":3336:3341  title */\n      dup2\n        /* \"contracts/titledeeds.sol\":3336:3350  title.location */\n      0x01\n      add\n        /* \"contracts/titledeeds.sol\":3336:3365  title.location = _newLocation */\n      swap1\n      dup2\n      tag_56\n      swap2\n      swap1\n      tag_57\n      jump\t// in\n    tag_56:\n      pop\n        /* \"contracts/titledeeds.sol\":3389:3397  _newArea */\n      dup3\n        /* \"contracts/titledeeds.sol\":3376:3381  title */\n      dup2\n        /* \"contracts/titledeeds.sol\":3376:3386  title.area */\n      0x02\n      add\n        /* \"contracts/titledeeds.sol\":3376:3397  title.area = _newArea */\n      dup2\n      swap1\n      sstore\n      pop\n        /* \"contracts/titledeeds.sol\":3429:3445  _newDocumentHash */\n      dup2\n        /* \"contracts/titledeeds.sol\":3408:3413  title */\n      dup2\n        /* \"contracts/titledeeds.sol\":3408:3426  title.documentHash */\n      0x03\n      add\n        /* \"contracts/titledeeds.sol\":3408:3445  title.documentHash = _newDocumentHash */\n      swap1\n      dup2\n      tag_58\n      swap2\n      swap1\n      tag_57\n      jump\t// in\n    tag_58:\n      pop\n        /* \"contracts/titledeeds.sol\":3485:3501  _newOwnerAddress */\n      dup5\n        /* \"contracts/titledeeds.sol\":3463:3544  LandTitleUpdated(_id, _newOwnerAddress, _newLocation, _newArea, _newDocumentHash) */\n      0xffffffffffffffffffffffffffffffffffffffff\n      and\n        /* \"contracts/titledeeds.sol\":3480:3483  _id */\n      dup7\n        /* \"contracts/titledeeds.sol\":3463:3544  LandTitleUpdated(_id, _newOwnerAddress, _newLocation, _newArea, _newDocumentHash) */\n      0x91ee569fe4ab879f41ab0616255c5112e5a1c908d02d7b0bc31cf386c9838434\n        /* \"contracts/titledeeds.sol\":3503:3515  _newLocation */\n      dup7\n        /* \"contracts/titledeeds.sol\":3517:3525  _newArea */\n      dup7\n        /* \"contracts/titledeeds.sol\":3527:3543  _newDocumentHash */\n      dup7\n        /* \"contracts/titledeeds.sol\":3463:3544  LandTitleUpdated(_id, _newOwnerAddress, _newLocation, _newArea, _newDocumentHash) */\n      mload(0x40)\n      tag_59\n      swap4\n      swap3\n      swap2\n      swap1\n      tag_60\n      jump\t// in\n    tag_59:\n      mload(0x40)\n      dup1\n      swap2\n      sub\n      swap1\n      log3\n        /* \"contracts/titledeeds.sol\":3623:3644  titleDeedTokenization */\n      0x02\n      0x00\n      swap1\n      sload\n      swap1\n      0x0100\n      exp\n      swap1\n      div\n      0xffffffffffffffffffffffffffffffffffffffff\n      and\n        /* \"contracts/titledeeds.sol\":3623:3654  titleDeedTokenization.mintToken */\n      0xffffffffffffffffffffffffffffffffffffffff\n      and\n      0x3d02d0c9\n        /* \"contracts/titledeeds.sol\":3655:3671  _newOwnerAddress */\n      dup7\n        /* \"contracts/titledeeds.sol\":3673:3689  _newDocumentHash */\n      dup5\n        /* \"contracts/titledeeds.sol\":3623:3690  titleDeedTokenization.mintToken(_newOwnerAddress, _newDocumentHash) */\n      mload(0x40)\n      dup4\n      0xffffffff\n      and\n      0xe0\n      shl\n      dup2\n      mstore\n      0x04\n      add\n      tag_61\n      swap3\n      swap2\n      swap1\n      tag_62\n      jump\t// in\n    tag_61:\n      0x00\n      mload(0x40)\n      dup1\n      dup4\n      sub\n      dup2\n      0x00\n      dup8\n      dup1\n      extcodesize\n      iszero\n      dup1\n      iszero\n      tag_63\n      jumpi\n      0x00\n      dup1\n      revert\n    tag_63:\n      pop\n      gas\n      call\n      iszero\n      dup1\n      iszero\n      tag_65\n      jumpi\n      returndatasize\n      0x00\n      dup1\n      returndatacopy\n      revert(0x00, returndatasize)\n    tag_65:\n      pop\n      pop\n      pop\n      pop\n        /* \"contracts/titledeeds.sol\":3083:3698  {... */\n      pop\n        /* \"contracts/titledeeds.sol\":2865:3698  function updateLandDetails(... */\n      pop\n      pop\n      pop\n      pop\n      pop\n      jump\t// out\n        /* \"contracts/titledeeds.sol\":2092:2811  function registerLandTitle(... */\n    tag_29:\n        /* \"contracts/titledeeds.sol\":1965:1975  government */\n      0x01\n      0x00\n      swap1\n      sload\n      swap1\n      0x0100\n      exp\n      swap1\n      div\n      0xffffffffffffffffffffffffffffffffffffffff\n      and\n        /* \"contracts/titledeeds.sol\":1951:1975  msg.sender == government */\n      0xffffffffffffffffffffffffffffffffffffffff\n      and\n        /* \"contracts/titledeeds.sol\":1951:1961  msg.sender */\n      caller\n        /* \"contracts/titledeeds.sol\":1951:1975  msg.sender == government */\n      0xffffffffffffffffffffffffffffffffffffffff\n      and\n      eq\n        /* \"contracts/titledeeds.sol\":1943:2022  require(msg.sender == government, \"Only the government can call this function\") */\n      tag_67\n      jumpi\n      mload(0x40)\n      0x08c379a000000000000000000000000000000000000000000000000000000000\n      dup2\n      mstore\n      0x04\n      add\n      tag_68\n      swap1\n      tag_48\n      jump\t// in\n    tag_68:\n      mload(0x40)\n      dup1\n      swap2\n      sub\n      swap1\n      revert\n    tag_67:\n        /* \"contracts/titledeeds.sol\":2318:2328  landTitles */\n      0x00\n        /* \"contracts/titledeeds.sol\":2318:2333  landTitles[_id] */\n      dup1\n        /* \"contracts/titledeeds.sol\":2329:2332  _id */\n      dup7\n        /* \"contracts/titledeeds.sol\":2318:2333  landTitles[_id] */\n      dup2\n      mstore\n      0x20\n      add\n      swap1\n      dup2\n      mstore\n      0x20\n      add\n      0x00\n      keccak256\n        /* \"contracts/titledeeds.sol\":2318:2346  landTitles[_id].isRegistered */\n      0x00\n      add\n      0x00\n      swap1\n      sload\n      swap1\n      0x0100\n      exp\n      swap1\n      div\n      0xff\n      and\n        /* \"contracts/titledeeds.sol\":2317:2346  !landTitles[_id].isRegistered */\n      iszero\n        /* \"contracts/titledeeds.sol\":2309:2380  require(!landTitles[_id].isRegistered, \"Land title already registered\") */\n      tag_70\n      jumpi\n      mload(0x40)\n      0x08c379a000000000000000000000000000000000000000000000000000000000\n      dup2\n      mstore\n      0x04\n      add\n      tag_71\n      swap1\n      tag_72\n      jump\t// in\n    tag_71:\n      mload(0x40)\n      dup1\n      swap2\n      sub\n      swap1\n      revert\n    tag_70:\n        /* \"contracts/titledeeds.sol\":2407:2408  0 */\n      0x00\n        /* \"contracts/titledeeds.sol\":2399:2404  _area */\n      dup3\n        /* \"contracts/titledeeds.sol\":2399:2408  _area > 0 */\n      gt\n        /* \"contracts/titledeeds.sol\":2391:2440  require(_area > 0, \"Area must be greater than 0\") */\n      tag_73\n      jumpi\n      mload(0x40)\n      0x08c379a000000000000000000000000000000000000000000000000000000000\n      dup2\n      mstore\n      0x04\n      add\n      tag_74\n      swap1\n      tag_55\n      jump\t// in\n    tag_74:\n      mload(0x40)\n      dup1\n      swap2\n      sub\n      swap1\n      revert\n    tag_73:\n        /* \"contracts/titledeeds.sol\":2471:2670  LandTitle({... */\n      mload(0x40)\n      dup1\n      0xa0\n      add\n      0x40\n      mstore\n      dup1\n        /* \"contracts/titledeeds.sol\":2510:2514  true */\n      0x01\n        /* \"contracts/titledeeds.sol\":2471:2670  LandTitle({... */\n      iszero\n      iszero\n      dup2\n      mstore\n      0x20\n      add\n        /* \"contracts/titledeeds.sol\":2543:2556  _ownerAddress */\n      dup6\n        /* \"contracts/titledeeds.sol\":2471:2670  LandTitle({... */\n      0xffffffffffffffffffffffffffffffffffffffff\n      and\n      dup2\n      mstore\n      0x20\n      add\n        /* \"contracts/titledeeds.sol\":2581:2590  _location */\n      dup5\n        /* \"contracts/titledeeds.sol\":2471:2670  LandTitle({... */\n      dup2\n      mstore\n      0x20\n      add\n        /* \"contracts/titledeeds.sol\":2611:2616  _area */\n      dup4\n        /* \"contracts/titledeeds.sol\":2471:2670  LandTitle({... */\n      dup2\n      mstore\n      0x20\n      add\n        /* \"contracts/titledeeds.sol\":2645:2658  _documentHash */\n      dup3\n        /* \"contracts/titledeeds.sol\":2471:2670  LandTitle({... */\n      dup2\n      mstore\n      pop\n        /* \"contracts/titledeeds.sol\":2453:2463  landTitles */\n      0x00\n        /* \"contracts/titledeeds.sol\":2453:2468  landTitles[_id] */\n      dup1\n        /* \"contracts/titledeeds.sol\":2464:2467  _id */\n      dup8\n        /* \"contracts/titledeeds.sol\":2453:2468  landTitles[_id] */\n      dup2\n      mstore\n      0x20\n      add\n      swap1\n      dup2\n      mstore\n      0x20\n      add\n      0x00\n      keccak256\n        /* \"contracts/titledeeds.sol\":2453:2670  landTitles[_id] = LandTitle({... */\n      0x00\n      dup3\n      add\n      mload\n      dup2\n      0x00\n      add\n      exp(0x0100, 0x00)\n      dup2\n      sload\n      dup2\n      0xff\n      mul\n      not\n      and\n      swap1\n      dup4\n      iszero\n      iszero\n      mul\n      or\n      swap1\n      sstore\n      pop\n      0x20\n      dup3\n      add\n      mload\n      dup2\n      0x00\n      add\n      exp(0x0100, 0x01)\n      dup2\n      sload\n      dup2\n      0xffffffffffffffffffffffffffffffffffffffff\n      mul\n      not\n      and\n      swap1\n      dup4\n      0xffffffffffffffffffffffffffffffffffffffff\n      and\n      mul\n      or\n      swap1\n      sstore\n      pop\n      0x40\n      dup3\n      add\n      mload\n      dup2\n      0x01\n      add\n      swap1\n      dup2\n      tag_75\n      swap2\n      swap1\n      tag_57\n      jump\t// in\n    tag_75:\n      pop\n      0x60\n      dup3\n      add\n      mload\n      dup2\n      0x02\n      add\n      sstore\n      0x80\n      dup3\n      add\n      mload\n      dup2\n      0x03\n      add\n      swap1\n      dup2\n      tag_76\n      swap2\n      swap1\n      tag_57\n      jump\t// in\n    tag_76:\n      pop\n      swap1\n      pop\n      pop\n        /* \"contracts/titledeeds.sol\":2742:2763  titleDeedTokenization */\n      0x02\n      0x00\n      swap1\n      sload\n      swap1\n      0x0100\n      exp\n      swap1\n      div\n      0xffffffffffffffffffffffffffffffffffffffff\n      and\n        /* \"contracts/titledeeds.sol\":2742:2773  titleDeedTokenization.mintToken */\n      0xffffffffffffffffffffffffffffffffffffffff\n      and\n      0x3d02d0c9\n        /* \"contracts/titledeeds.sol\":2774:2787  _ownerAddress */\n      dup6\n        /* \"contracts/titledeeds.sol\":2789:2802  _documentHash */\n      dup4\n        /* \"contracts/titledeeds.sol\":2742:2803  titleDeedTokenization.mintToken(_ownerAddress, _documentHash) */\n      mload(0x40)\n      dup4\n      0xffffffff\n      and\n      0xe0\n      shl\n      dup2\n      mstore\n      0x04\n      add\n      tag_77\n      swap3\n      swap2\n      swap1\n      tag_62\n      jump\t// in\n    tag_77:\n      0x00\n      mload(0x40)\n      dup1\n      dup4\n      sub\n      dup2\n      0x00\n      dup8\n      dup1\n      extcodesize\n      iszero\n      dup1\n      iszero\n      tag_78\n      jumpi\n      0x00\n      dup1\n      revert\n    tag_78:\n      pop\n      gas\n      call\n      iszero\n      dup1\n      iszero\n      tag_80\n      jumpi\n      returndatasize\n      0x00\n      dup1\n      returndatacopy\n      revert(0x00, returndatasize)\n    tag_80:\n      pop\n      pop\n      pop\n      pop\n        /* \"contracts/titledeeds.sol\":2092:2811  function registerLandTitle(... */\n      pop\n      pop\n      pop\n      pop\n      pop\n      jump\t// out\n        /* \"contracts/titledeeds.sol\":3749:4201  function getLandDetails(uint256 _id) public view returns (... */\n    tag_32:\n        /* \"contracts/titledeeds.sol\":3817:3834  bool isRegistered */\n      0x00\n        /* \"contracts/titledeeds.sol\":3845:3865  address ownerAddress */\n      dup1\n        /* \"contracts/titledeeds.sol\":3876:3898  string memory location */\n      0x60\n        /* \"contracts/titledeeds.sol\":3909:3921  uint256 area */\n      0x00\n        /* \"contracts/titledeeds.sol\":3932:3958  string memory documentHash */\n      0x60\n        /* \"contracts/titledeeds.sol\":3977:4000  LandTitle storage title */\n      0x00\n        /* \"contracts/titledeeds.sol\":4003:4013  landTitles */\n      dup1\n        /* \"contracts/titledeeds.sol\":4003:4018  landTitles[_id] */\n      0x00\n        /* \"contracts/titledeeds.sol\":4014:4017  _id */\n      dup9\n        /* \"contracts/titledeeds.sol\":4003:4018  landTitles[_id] */\n      dup2\n      mstore\n      0x20\n      add\n      swap1\n      dup2\n      mstore\n      0x20\n      add\n      0x00\n      keccak256\n        /* \"contracts/titledeeds.sol\":3977:4018  LandTitle storage title = landTitles[_id] */\n      swap1\n      pop\n        /* \"contracts/titledeeds.sol\":4037:4042  title */\n      dup1\n        /* \"contracts/titledeeds.sol\":4037:4055  title.isRegistered */\n      0x00\n      add\n      0x00\n      swap1\n      sload\n      swap1\n      0x0100\n      exp\n      swap1\n      div\n      0xff\n      and\n        /* \"contracts/titledeeds.sol\":4029:4085  require(title.isRegistered, \"Land title not registered\") */\n      tag_82\n      jumpi\n      mload(0x40)\n      0x08c379a000000000000000000000000000000000000000000000000000000000\n      dup2\n      mstore\n      0x04\n      add\n      tag_83\n      swap1\n      tag_52\n      jump\t// in\n    tag_83:\n      mload(0x40)\n      dup1\n      swap2\n      sub\n      swap1\n      revert\n    tag_82:\n        /* \"contracts/titledeeds.sol\":4106:4111  title */\n      dup1\n        /* \"contracts/titledeeds.sol\":4106:4124  title.isRegistered */\n      0x00\n      add\n      0x00\n      swap1\n      sload\n      swap1\n      0x0100\n      exp\n      swap1\n      div\n      0xff\n      and\n        /* \"contracts/titledeeds.sol\":4126:4131  title */\n      dup2\n        /* \"contracts/titledeeds.sol\":4126:4144  title.ownerAddress */\n      0x00\n      add\n      0x01\n      swap1\n      sload\n      swap1\n      0x0100\n      exp\n      swap1\n      div\n      0xffffffffffffffffffffffffffffffffffffffff\n      and\n        /* \"contracts/titledeeds.sol\":4146:4151  title */\n      dup3\n        /* \"contracts/titledeeds.sol\":4146:4160  title.location */\n      0x01\n      add\n        /* \"contracts/titledeeds.sol\":4162:4167  title */\n      dup4\n        /* \"contracts/titledeeds.sol\":4162:4172  title.area */\n      0x02\n      add\n      sload\n        /* \"contracts/titledeeds.sol\":4174:4179  title */\n      dup5\n        /* \"contracts/titledeeds.sol\":4174:4192  title.documentHash */\n      0x03\n      add\n        /* \"contracts/titledeeds.sol\":4098:4193  return (title.isRegistered, title.ownerAddress, title.location, title.area, title.documentHash) */\n      dup3\n      dup1\n      sload\n      tag_84\n      swap1\n      tag_35\n      jump\t// in\n    tag_84:\n      dup1\n      0x1f\n      add\n      0x20\n      dup1\n      swap2\n      div\n      mul\n      0x20\n      add\n      mload(0x40)\n      swap1\n      dup2\n      add\n      0x40\n      mstore\n      dup1\n      swap3\n      swap2\n      swap1\n      dup2\n      dup2\n      mstore\n      0x20\n      add\n      dup3\n      dup1\n      sload\n      tag_85\n      swap1\n      tag_35\n      jump\t// in\n    tag_85:\n      dup1\n      iszero\n      tag_86\n      jumpi\n      dup1\n      0x1f\n      lt\n      tag_87\n      jumpi\n      0x0100\n      dup1\n      dup4\n      sload\n      div\n      mul\n      dup4\n      mstore\n      swap2\n      0x20\n      add\n      swap2\n      jump(tag_86)\n    tag_87:\n      dup3\n      add\n      swap2\n      swap1\n      0x00\n      mstore\n      keccak256(0x00, 0x20)\n      swap1\n    tag_88:\n      dup2\n      sload\n      dup2\n      mstore\n      swap1\n      0x01\n      add\n      swap1\n      0x20\n      add\n      dup1\n      dup4\n      gt\n      tag_88\n      jumpi\n      dup3\n      swap1\n      sub\n      0x1f\n      and\n      dup3\n      add\n      swap2\n    tag_86:\n      pop\n      pop\n      pop\n      pop\n      pop\n      swap3\n      pop\n      dup1\n      dup1\n      sload\n      tag_89\n      swap1\n      tag_35\n      jump\t// in\n    tag_89:\n      dup1\n      0x1f\n      add\n      0x20\n      dup1\n      swap2\n      div\n      mul\n      0x20\n      add\n      mload(0x40)\n      swap1\n      dup2\n      add\n      0x40\n      mstore\n      dup1\n      swap3\n      swap2\n      swap1\n      dup2\n      dup2\n      mstore\n      0x20\n      add\n      dup3\n      dup1\n      sload\n      tag_90\n      swap1\n      tag_35\n      jump\t// in\n    tag_90:\n      dup1\n      iszero\n      tag_91\n      jumpi\n      dup1\n      0x1f\n      lt\n      tag_92\n      jumpi\n      0x0100\n      dup1\n      dup4\n      sload\n      div\n      mul\n      dup4\n      mstore\n      swap2\n      0x20\n      add\n      swap2\n      jump(tag_91)\n    tag_92:\n      dup3\n      add\n      swap2\n      swap1\n      0x00\n      mstore\n      keccak256(0x00, 0x20)\n      swap1\n    tag_93:\n      dup2\n      sload\n      dup2\n      mstore\n      swap1\n      0x01\n      add\n      swap1\n      0x20\n      add\n      dup1\n      dup4\n      gt\n      tag_93\n      jumpi\n      dup3\n      swap1\n      sub\n      0x1f\n      and\n      dup3\n      add\n      swap2\n    tag_91:\n      pop\n      pop\n      pop\n      pop\n      pop\n      swap1\n      pop\n      swap6\n      pop\n      swap6\n      pop\n      swap6\n      pop\n      swap6\n      pop\n      swap6\n      pop\n      pop\n        /* \"contracts/titledeeds.sol\":3749:4201  function getLandDetails(uint256 _id) public view returns (... */\n      swap2\n      swap4\n      swap6\n      swap1\n      swap3\n      swap5\n      pop\n      jump\t// out\n        /* \"#utility.yul\":7:82   */\n    tag_94:\n        /* \"#utility.yul\":40:46   */\n      0x00\n        /* \"#utility.yul\":73:75   */\n      0x40\n        /* \"#utility.yul\":67:76   */\n      mload\n        /* \"#utility.yul\":57:76   */\n      swap1\n      pop\n        /* \"#utility.yul\":7:82   */\n      swap1\n      jump\t// out\n        /* \"#utility.yul\":88:205   */\n    tag_95:\n        /* \"#utility.yul\":197:198   */\n      0x00\n        /* \"#utility.yul\":194:195   */\n      dup1\n        /* \"#utility.yul\":187:199   */\n      revert\n        /* \"#utility.yul\":211:328   */\n    tag_96:\n        /* \"#utility.yul\":320:321   */\n      0x00\n        /* \"#utility.yul\":317:318   */\n      dup1\n        /* \"#utility.yul\":310:322   */\n      revert\n        /* \"#utility.yul\":334:411   */\n    tag_97:\n        /* \"#utility.yul\":371:378   */\n      0x00\n        /* \"#utility.yul\":400:405   */\n      dup2\n        /* \"#utility.yul\":389:405   */\n      swap1\n      pop\n        /* \"#utility.yul\":334:411   */\n      swap2\n      swap1\n      pop\n      jump\t// out\n        /* \"#utility.yul\":417:539   */\n    tag_98:\n        /* \"#utility.yul\":490:514   */\n      tag_156\n        /* \"#utility.yul\":508:513   */\n      dup2\n        /* \"#utility.yul\":490:514   */\n      tag_97\n      jump\t// in\n    tag_156:\n        /* \"#utility.yul\":483:488   */\n      dup2\n        /* \"#utility.yul\":480:515   */\n      eq\n        /* \"#utility.yul\":470:533   */\n      tag_157\n      jumpi\n        /* \"#utility.yul\":529:530   */\n      0x00\n        /* \"#utility.yul\":526:527   */\n      dup1\n        /* \"#utility.yul\":519:531   */\n      revert\n        /* \"#utility.yul\":470:533   */\n    tag_157:\n        /* \"#utility.yul\":417:539   */\n      pop\n      jump\t// out\n        /* \"#utility.yul\":545:684   */\n    tag_99:\n        /* \"#utility.yul\":591:596   */\n      0x00\n        /* \"#utility.yul\":629:635   */\n      dup2\n        /* \"#utility.yul\":616:636   */\n      calldataload\n        /* \"#utility.yul\":607:636   */\n      swap1\n      pop\n        /* \"#utility.yul\":645:678   */\n      tag_159\n        /* \"#utility.yul\":672:677   */\n      dup2\n        /* \"#utility.yul\":645:678   */\n      tag_98\n      jump\t// in\n    tag_159:\n        /* \"#utility.yul\":545:684   */\n      swap3\n      swap2\n      pop\n      pop\n      jump\t// out\n        /* \"#utility.yul\":690:1019   */\n    tag_11:\n        /* \"#utility.yul\":749:755   */\n      0x00\n        /* \"#utility.yul\":798:800   */\n      0x20\n        /* \"#utility.yul\":786:795   */\n      dup3\n        /* \"#utility.yul\":777:784   */\n      dup5\n        /* \"#utility.yul\":773:796   */\n      sub\n        /* \"#utility.yul\":769:801   */\n      slt\n        /* \"#utility.yul\":766:885   */\n      iszero\n      tag_161\n      jumpi\n        /* \"#utility.yul\":804:883   */\n      tag_162\n      tag_95\n      jump\t// in\n    tag_162:\n        /* \"#utility.yul\":766:885   */\n    tag_161:\n        /* \"#utility.yul\":924:925   */\n      0x00\n        /* \"#utility.yul\":949:1002   */\n      tag_163\n        /* \"#utility.yul\":994:1001   */\n      dup5\n        /* \"#utility.yul\":985:991   */\n      dup3\n        /* \"#utility.yul\":974:983   */\n      dup6\n        /* \"#utility.yul\":970:992   */\n      add\n        /* \"#utility.yul\":949:1002   */\n      tag_99\n      jump\t// in\n    tag_163:\n        /* \"#utility.yul\":939:1002   */\n      swap2\n      pop\n        /* \"#utility.yul\":895:1012   */\n      pop\n        /* \"#utility.yul\":690:1019   */\n      swap3\n      swap2\n      pop\n      pop\n      jump\t// out\n        /* \"#utility.yul\":1025:1115   */\n    tag_100:\n        /* \"#utility.yul\":1059:1066   */\n      0x00\n        /* \"#utility.yul\":1102:1107   */\n      dup2\n        /* \"#utility.yul\":1095:1108   */\n      iszero\n        /* \"#utility.yul\":1088:1109   */\n      iszero\n        /* \"#utility.yul\":1077:1109   */\n      swap1\n      pop\n        /* \"#utility.yul\":1025:1115   */\n      swap2\n      swap1\n      pop\n      jump\t// out\n        /* \"#utility.yul\":1121:1230   */\n    tag_101:\n        /* \"#utility.yul\":1202:1223   */\n      tag_166\n        /* \"#utility.yul\":1217:1222   */\n      dup2\n        /* \"#utility.yul\":1202:1223   */\n      tag_100\n      jump\t// in\n    tag_166:\n        /* \"#utility.yul\":1197:1200   */\n      dup3\n        /* \"#utility.yul\":1190:1224   */\n      mstore\n        /* \"#utility.yul\":1121:1230   */\n      pop\n      pop\n      jump\t// out\n        /* \"#utility.yul\":1236:1362   */\n    tag_102:\n        /* \"#utility.yul\":1273:1280   */\n      0x00\n        /* \"#utility.yul\":1313:1355   */\n      0xffffffffffffffffffffffffffffffffffffffff\n        /* \"#utility.yul\":1306:1311   */\n      dup3\n        /* \"#utility.yul\":1302:1356   */\n      and\n        /* \"#utility.yul\":1291:1356   */\n      swap1\n      pop\n        /* \"#utility.yul\":1236:1362   */\n      swap2\n      swap1\n      pop\n      jump\t// out\n        /* \"#utility.yul\":1368:1464   */\n    tag_103:\n        /* \"#utility.yul\":1405:1412   */\n      0x00\n        /* \"#utility.yul\":1434:1458   */\n      tag_169\n        /* \"#utility.yul\":1452:1457   */\n      dup3\n        /* \"#utility.yul\":1434:1458   */\n      tag_102\n      jump\t// in\n    tag_169:\n        /* \"#utility.yul\":1423:1458   */\n      swap1\n      pop\n        /* \"#utility.yul\":1368:1464   */\n      swap2\n      swap1\n      pop\n      jump\t// out\n        /* \"#utility.yul\":1470:1588   */\n    tag_104:\n        /* \"#utility.yul\":1557:1581   */\n      tag_171\n        /* \"#utility.yul\":1575:1580   */\n      dup2\n        /* \"#utility.yul\":1557:1581   */\n      tag_103\n      jump\t// in\n    tag_171:\n        /* \"#utility.yul\":1552:1555   */\n      dup3\n        /* \"#utility.yul\":1545:1582   */\n      mstore\n        /* \"#utility.yul\":1470:1588   */\n      pop\n      pop\n      jump\t// out\n        /* \"#utility.yul\":1594:1693   */\n    tag_105:\n        /* \"#utility.yul\":1646:1652   */\n      0x00\n        /* \"#utility.yul\":1680:1685   */\n      dup2\n        /* \"#utility.yul\":1674:1686   */\n      mload\n        /* \"#utility.yul\":1664:1686   */\n      swap1\n      pop\n        /* \"#utility.yul\":1594:1693   */\n      swap2\n      swap1\n      pop\n      jump\t// out\n        /* \"#utility.yul\":1699:1868   */\n    tag_106:\n        /* \"#utility.yul\":1783:1794   */\n      0x00\n        /* \"#utility.yul\":1817:1823   */\n      dup3\n        /* \"#utility.yul\":1812:1815   */\n      dup3\n        /* \"#utility.yul\":1805:1824   */\n      mstore\n        /* \"#utility.yul\":1857:1861   */\n      0x20\n        /* \"#utility.yul\":1852:1855   */\n      dup3\n        /* \"#utility.yul\":1848:1862   */\n      add\n        /* \"#utility.yul\":1833:1862   */\n      swap1\n      pop\n        /* \"#utility.yul\":1699:1868   */\n      swap3\n      swap2\n      pop\n      pop\n      jump\t// out\n        /* \"#utility.yul\":1874:2013   */\n    tag_107:\n        /* \"#utility.yul\":1963:1969   */\n      dup3\n        /* \"#utility.yul\":1958:1961   */\n      dup2\n        /* \"#utility.yul\":1953:1956   */\n      dup4\n        /* \"#utility.yul\":1947:1970   */\n      mcopy\n        /* \"#utility.yul\":2004:2005   */\n      0x00\n        /* \"#utility.yul\":1995:2001   */\n      dup4\n        /* \"#utility.yul\":1990:1993   */\n      dup4\n        /* \"#utility.yul\":1986:2002   */\n      add\n        /* \"#utility.yul\":1979:2006   */\n      mstore\n        /* \"#utility.yul\":1874:2013   */\n      pop\n      pop\n      pop\n      jump\t// out\n        /* \"#utility.yul\":2019:2121   */\n    tag_108:\n        /* \"#utility.yul\":2060:2066   */\n      0x00\n        /* \"#utility.yul\":2111:2113   */\n      0x1f\n        /* \"#utility.yul\":2107:2114   */\n      not\n        /* \"#utility.yul\":2102:2104   */\n      0x1f\n        /* \"#utility.yul\":2095:2100   */\n      dup4\n        /* \"#utility.yul\":2091:2105   */\n      add\n        /* \"#utility.yul\":2087:2115   */\n      and\n        /* \"#utility.yul\":2077:2115   */\n      swap1\n      pop\n        /* \"#utility.yul\":2019:2121   */\n      swap2\n      swap1\n      pop\n      jump\t// out\n        /* \"#utility.yul\":2127:2504   */\n    tag_109:\n        /* \"#utility.yul\":2215:2218   */\n      0x00\n        /* \"#utility.yul\":2243:2282   */\n      tag_177\n        /* \"#utility.yul\":2276:2281   */\n      dup3\n        /* \"#utility.yul\":2243:2282   */\n      tag_105\n      jump\t// in\n    tag_177:\n        /* \"#utility.yul\":2298:2369   */\n      tag_178\n        /* \"#utility.yul\":2362:2368   */\n      dup2\n        /* \"#utility.yul\":2357:2360   */\n      dup6\n        /* \"#utility.yul\":2298:2369   */\n      tag_106\n      jump\t// in\n    tag_178:\n        /* \"#utility.yul\":2291:2369   */\n      swap4\n      pop\n        /* \"#utility.yul\":2378:2443   */\n      tag_179\n        /* \"#utility.yul\":2436:2442   */\n      dup2\n        /* \"#utility.yul\":2431:2434   */\n      dup6\n        /* \"#utility.yul\":2424:2428   */\n      0x20\n        /* \"#utility.yul\":2417:2422   */\n      dup7\n        /* \"#utility.yul\":2413:2429   */\n      add\n        /* \"#utility.yul\":2378:2443   */\n      tag_107\n      jump\t// in\n    tag_179:\n        /* \"#utility.yul\":2468:2497   */\n      tag_180\n        /* \"#utility.yul\":2490:2496   */\n      dup2\n        /* \"#utility.yul\":2468:2497   */\n      tag_108\n      jump\t// in\n    tag_180:\n        /* \"#utility.yul\":2463:2466   */\n      dup5\n        /* \"#utility.yul\":2459:2498   */\n      add\n        /* \"#utility.yul\":2452:2498   */\n      swap2\n      pop\n        /* \"#utility.yul\":2219:2504   */\n      pop\n        /* \"#utility.yul\":2127:2504   */\n      swap3\n      swap2\n      pop\n      pop\n      jump\t// out\n        /* \"#utility.yul\":2510:2628   */\n    tag_110:\n        /* \"#utility.yul\":2597:2621   */\n      tag_182\n        /* \"#utility.yul\":2615:2620   */\n      dup2\n        /* \"#utility.yul\":2597:2621   */\n      tag_97\n      jump\t// in\n    tag_182:\n        /* \"#utility.yul\":2592:2595   */\n      dup3\n        /* \"#utility.yul\":2585:2622   */\n      mstore\n        /* \"#utility.yul\":2510:2628   */\n      pop\n      pop\n      jump\t// out\n        /* \"#utility.yul\":2634:3468   */\n    tag_14:\n        /* \"#utility.yul\":2873:2877   */\n      0x00\n        /* \"#utility.yul\":2911:2914   */\n      0xa0\n        /* \"#utility.yul\":2900:2909   */\n      dup3\n        /* \"#utility.yul\":2896:2915   */\n      add\n        /* \"#utility.yul\":2888:2915   */\n      swap1\n      pop\n        /* \"#utility.yul\":2925:2990   */\n      tag_184\n        /* \"#utility.yul\":2987:2988   */\n      0x00\n        /* \"#utility.yul\":2976:2985   */\n      dup4\n        /* \"#utility.yul\":2972:2989   */\n      add\n        /* \"#utility.yul\":2963:2969   */\n      dup9\n        /* \"#utility.yul\":2925:2990   */\n      tag_101\n      jump\t// in\n    tag_184:\n        /* \"#utility.yul\":3000:3072   */\n      tag_185\n        /* \"#utility.yul\":3068:3070   */\n      0x20\n        /* \"#utility.yul\":3057:3066   */\n      dup4\n        /* \"#utility.yul\":3053:3071   */\n      add\n        /* \"#utility.yul\":3044:3050   */\n      dup8\n        /* \"#utility.yul\":3000:3072   */\n      tag_104\n      jump\t// in\n    tag_185:\n        /* \"#utility.yul\":3119:3128   */\n      dup2\n        /* \"#utility.yul\":3113:3117   */\n      dup2\n        /* \"#utility.yul\":3109:3129   */\n      sub\n        /* \"#utility.yul\":3104:3106   */\n      0x40\n        /* \"#utility.yul\":3093:3102   */\n      dup4\n        /* \"#utility.yul\":3089:3107   */\n      add\n        /* \"#utility.yul\":3082:3130   */\n      mstore\n        /* \"#utility.yul\":3147:3225   */\n      tag_186\n        /* \"#utility.yul\":3220:3224   */\n      dup2\n        /* \"#utility.yul\":3211:3217   */\n      dup7\n        /* \"#utility.yul\":3147:3225   */\n      tag_109\n      jump\t// in\n    tag_186:\n        /* \"#utility.yul\":3139:3225   */\n      swap1\n      pop\n        /* \"#utility.yul\":3235:3307   */\n      tag_187\n        /* \"#utility.yul\":3303:3305   */\n      0x60\n        /* \"#utility.yul\":3292:3301   */\n      dup4\n        /* \"#utility.yul\":3288:3306   */\n      add\n        /* \"#utility.yul\":3279:3285   */\n      dup6\n        /* \"#utility.yul\":3235:3307   */\n      tag_110\n      jump\t// in\n    tag_187:\n        /* \"#utility.yul\":3355:3364   */\n      dup2\n        /* \"#utility.yul\":3349:3353   */\n      dup2\n        /* \"#utility.yul\":3345:3365   */\n      sub\n        /* \"#utility.yul\":3339:3342   */\n      0x80\n        /* \"#utility.yul\":3328:3337   */\n      dup4\n        /* \"#utility.yul\":3324:3343   */\n      add\n        /* \"#utility.yul\":3317:3366   */\n      mstore\n        /* \"#utility.yul\":3383:3461   */\n      tag_188\n        /* \"#utility.yul\":3456:3460   */\n      dup2\n        /* \"#utility.yul\":3447:3453   */\n      dup5\n        /* \"#utility.yul\":3383:3461   */\n      tag_109\n      jump\t// in\n    tag_188:\n        /* \"#utility.yul\":3375:3461   */\n      swap1\n      pop\n        /* \"#utility.yul\":2634:3468   */\n      swap7\n      swap6\n      pop\n      pop\n      pop\n      pop\n      pop\n      pop\n      jump\t// out\n        /* \"#utility.yul\":3474:3696   */\n    tag_18:\n        /* \"#utility.yul\":3567:3571   */\n      0x00\n        /* \"#utility.yul\":3605:3607   */\n      0x20\n        /* \"#utility.yul\":3594:3603   */\n      dup3\n        /* \"#utility.yul\":3590:3608   */\n      add\n        /* \"#utility.yul\":3582:3608   */\n      swap1\n      pop\n        /* \"#utility.yul\":3618:3689   */\n      tag_190\n        /* \"#utility.yul\":3686:3687   */\n      0x00\n        /* \"#utility.yul\":3675:3684   */\n      dup4\n        /* \"#utility.yul\":3671:3688   */\n      add\n        /* \"#utility.yul\":3662:3668   */\n      dup5\n        /* \"#utility.yul\":3618:3689   */\n      tag_104\n      jump\t// in\n    tag_190:\n        /* \"#utility.yul\":3474:3696   */\n      swap3\n      swap2\n      pop\n      pop\n      jump\t// out\n        /* \"#utility.yul\":3702:3762   */\n    tag_111:\n        /* \"#utility.yul\":3730:3733   */\n      0x00\n        /* \"#utility.yul\":3751:3756   */\n      dup2\n        /* \"#utility.yul\":3744:3756   */\n      swap1\n      pop\n        /* \"#utility.yul\":3702:3762   */\n      swap2\n      swap1\n      pop\n      jump\t// out\n        /* \"#utility.yul\":3768:3910   */\n    tag_112:\n        /* \"#utility.yul\":3818:3827   */\n      0x00\n        /* \"#utility.yul\":3851:3904   */\n      tag_193\n        /* \"#utility.yul\":3869:3903   */\n      tag_194\n        /* \"#utility.yul\":3878:3902   */\n      tag_195\n        /* \"#utility.yul\":3896:3901   */\n      dup5\n        /* \"#utility.yul\":3878:3902   */\n      tag_102\n      jump\t// in\n    tag_195:\n        /* \"#utility.yul\":3869:3903   */\n      tag_111\n      jump\t// in\n    tag_194:\n        /* \"#utility.yul\":3851:3904   */\n      tag_102\n      jump\t// in\n    tag_193:\n        /* \"#utility.yul\":3838:3904   */\n      swap1\n      pop\n        /* \"#utility.yul\":3768:3910   */\n      swap2\n      swap1\n      pop\n      jump\t// out\n        /* \"#utility.yul\":3916:4042   */\n    tag_113:\n        /* \"#utility.yul\":3966:3975   */\n      0x00\n        /* \"#utility.yul\":3999:4036   */\n      tag_197\n        /* \"#utility.yul\":4030:4035   */\n      dup3\n        /* \"#utility.yul\":3999:4036   */\n      tag_112\n      jump\t// in\n    tag_197:\n        /* \"#utility.yul\":3986:4036   */\n      swap1\n      pop\n        /* \"#utility.yul\":3916:4042   */\n      swap2\n      swap1\n      pop\n      jump\t// out\n        /* \"#utility.yul\":4048:4202   */\n    tag_114:\n        /* \"#utility.yul\":4126:4135   */\n      0x00\n        /* \"#utility.yul\":4159:4196   */\n      tag_199\n        /* \"#utility.yul\":4190:4195   */\n      dup3\n        /* \"#utility.yul\":4159:4196   */\n      tag_113\n      jump\t// in\n    tag_199:\n        /* \"#utility.yul\":4146:4196   */\n      swap1\n      pop\n        /* \"#utility.yul\":4048:4202   */\n      swap2\n      swap1\n      pop\n      jump\t// out\n        /* \"#utility.yul\":4208:4395   */\n    tag_115:\n        /* \"#utility.yul\":4323:4388   */\n      tag_201\n        /* \"#utility.yul\":4382:4387   */\n      dup2\n        /* \"#utility.yul\":4323:4388   */\n      tag_114\n      jump\t// in\n    tag_201:\n        /* \"#utility.yul\":4318:4321   */\n      dup3\n        /* \"#utility.yul\":4311:4389   */\n      mstore\n        /* \"#utility.yul\":4208:4395   */\n      pop\n      pop\n      jump\t// out\n        /* \"#utility.yul\":4401:4679   */\n    tag_22:\n        /* \"#utility.yul\":4522:4526   */\n      0x00\n        /* \"#utility.yul\":4560:4562   */\n      0x20\n        /* \"#utility.yul\":4549:4558   */\n      dup3\n        /* \"#utility.yul\":4545:4563   */\n      add\n        /* \"#utility.yul\":4537:4563   */\n      swap1\n      pop\n        /* \"#utility.yul\":4573:4672   */\n      tag_203\n        /* \"#utility.yul\":4669:4670   */\n      0x00\n        /* \"#utility.yul\":4658:4667   */\n      dup4\n        /* \"#utility.yul\":4654:4671   */\n      add\n        /* \"#utility.yul\":4645:4651   */\n      dup5\n        /* \"#utility.yul\":4573:4672   */\n      tag_115\n      jump\t// in\n    tag_203:\n        /* \"#utility.yul\":4401:4679   */\n      swap3\n      swap2\n      pop\n      pop\n      jump\t// out\n        /* \"#utility.yul\":4685:4807   */\n    tag_116:\n        /* \"#utility.yul\":4758:4782   */\n      tag_205\n        /* \"#utility.yul\":4776:4781   */\n      dup2\n        /* \"#utility.yul\":4758:4782   */\n      tag_103\n      jump\t// in\n    tag_205:\n        /* \"#utility.yul\":4751:4756   */\n      dup2\n        /* \"#utility.yul\":4748:4783   */\n      eq\n        /* \"#utility.yul\":4738:4801   */\n      tag_206\n      jumpi\n        /* \"#utility.yul\":4797:4798   */\n      0x00\n        /* \"#utility.yul\":4794:4795   */\n      dup1\n        /* \"#utility.yul\":4787:4799   */\n      revert\n        /* \"#utility.yul\":4738:4801   */\n    tag_206:\n        /* \"#utility.yul\":4685:4807   */\n      pop\n      jump\t// out\n        /* \"#utility.yul\":4813:4952   */\n    tag_117:\n        /* \"#utility.yul\":4859:4864   */\n      0x00\n        /* \"#utility.yul\":4897:4903   */\n      dup2\n        /* \"#utility.yul\":4884:4904   */\n      calldataload\n        /* \"#utility.yul\":4875:4904   */\n      swap1\n      pop\n        /* \"#utility.yul\":4913:4946   */\n      tag_208\n        /* \"#utility.yul\":4940:4945   */\n      dup2\n        /* \"#utility.yul\":4913:4946   */\n      tag_116\n      jump\t// in\n    tag_208:\n        /* \"#utility.yul\":4813:4952   */\n      swap3\n      swap2\n      pop\n      pop\n      jump\t// out\n        /* \"#utility.yul\":4958:5075   */\n    tag_118:\n        /* \"#utility.yul\":5067:5068   */\n      0x00\n        /* \"#utility.yul\":5064:5065   */\n      dup1\n        /* \"#utility.yul\":5057:5069   */\n      revert\n        /* \"#utility.yul\":5081:5198   */\n    tag_119:\n        /* \"#utility.yul\":5190:5191   */\n      0x00\n        /* \"#utility.yul\":5187:5188   */\n      dup1\n        /* \"#utility.yul\":5180:5192   */\n      revert\n        /* \"#utility.yul\":5204:5384   */\n    tag_120:\n        /* \"#utility.yul\":5252:5329   */\n      0x4e487b7100000000000000000000000000000000000000000000000000000000\n        /* \"#utility.yul\":5249:5250   */\n      0x00\n        /* \"#utility.yul\":5242:5330   */\n      mstore\n        /* \"#utility.yul\":5349:5353   */\n      0x41\n        /* \"#utility.yul\":5346:5347   */\n      0x04\n        /* \"#utility.yul\":5339:5354   */\n      mstore\n        /* \"#utility.yul\":5373:5377   */\n      0x24\n        /* \"#utility.yul\":5370:5371   */\n      0x00\n        /* \"#utility.yul\":5363:5378   */\n      revert\n        /* \"#utility.yul\":5390:5671   */\n    tag_121:\n        /* \"#utility.yul\":5473:5500   */\n      tag_213\n        /* \"#utility.yul\":5495:5499   */\n      dup3\n        /* \"#utility.yul\":5473:5500   */\n      tag_108\n      jump\t// in\n    tag_213:\n        /* \"#utility.yul\":5465:5471   */\n      dup2\n        /* \"#utility.yul\":5461:5501   */\n      add\n        /* \"#utility.yul\":5603:5609   */\n      dup2\n        /* \"#utility.yul\":5591:5601   */\n      dup2\n        /* \"#utility.yul\":5588:5610   */\n      lt\n        /* \"#utility.yul\":5567:5585   */\n      0xffffffffffffffff\n        /* \"#utility.yul\":5555:5565   */\n      dup3\n        /* \"#utility.yul\":5552:5586   */\n      gt\n        /* \"#utility.yul\":5549:5611   */\n      or\n        /* \"#utility.yul\":5546:5634   */\n      iszero\n      tag_214\n      jumpi\n        /* \"#utility.yul\":5614:5632   */\n      tag_215\n      tag_120\n      jump\t// in\n    tag_215:\n        /* \"#utility.yul\":5546:5634   */\n    tag_214:\n        /* \"#utility.yul\":5654:5664   */\n      dup1\n        /* \"#utility.yul\":5650:5652   */\n      0x40\n        /* \"#utility.yul\":5643:5665   */\n      mstore\n        /* \"#utility.yul\":5433:5671   */\n      pop\n        /* \"#utility.yul\":5390:5671   */\n      pop\n      pop\n      jump\t// out\n        /* \"#utility.yul\":5677:5806   */\n    tag_122:\n        /* \"#utility.yul\":5711:5717   */\n      0x00\n        /* \"#utility.yul\":5738:5758   */\n      tag_217\n      tag_94\n      jump\t// in\n    tag_217:\n        /* \"#utility.yul\":5728:5758   */\n      swap1\n      pop\n        /* \"#utility.yul\":5767:5800   */\n      tag_218\n        /* \"#utility.yul\":5795:5799   */\n      dup3\n        /* \"#utility.yul\":5787:5793   */\n      dup3\n        /* \"#utility.yul\":5767:5800   */\n      tag_121\n      jump\t// in\n    tag_218:\n        /* \"#utility.yul\":5677:5806   */\n      swap2\n      swap1\n      pop\n      jump\t// out\n        /* \"#utility.yul\":5812:6120   */\n    tag_123:\n        /* \"#utility.yul\":5874:5878   */\n      0x00\n        /* \"#utility.yul\":5964:5982   */\n      0xffffffffffffffff\n        /* \"#utility.yul\":5956:5962   */\n      dup3\n        /* \"#utility.yul\":5953:5983   */\n      gt\n        /* \"#utility.yul\":5950:6006   */\n      iszero\n      tag_220\n      jumpi\n        /* \"#utility.yul\":5986:6004   */\n      tag_221\n      tag_120\n      jump\t// in\n    tag_221:\n        /* \"#utility.yul\":5950:6006   */\n    tag_220:\n        /* \"#utility.yul\":6024:6053   */\n      tag_222\n        /* \"#utility.yul\":6046:6052   */\n      dup3\n        /* \"#utility.yul\":6024:6053   */\n      tag_108\n      jump\t// in\n    tag_222:\n        /* \"#utility.yul\":6016:6053   */\n      swap1\n      pop\n        /* \"#utility.yul\":6108:6112   */\n      0x20\n        /* \"#utility.yul\":6102:6106   */\n      dup2\n        /* \"#utility.yul\":6098:6113   */\n      add\n        /* \"#utility.yul\":6090:6113   */\n      swap1\n      pop\n        /* \"#utility.yul\":5812:6120   */\n      swap2\n      swap1\n      pop\n      jump\t// out\n        /* \"#utility.yul\":6126:6274   */\n    tag_124:\n        /* \"#utility.yul\":6224:6230   */\n      dup3\n        /* \"#utility.yul\":6219:6222   */\n      dup2\n        /* \"#utility.yul\":6214:6217   */\n      dup4\n        /* \"#utility.yul\":6201:6231   */\n      calldatacopy\n        /* \"#utility.yul\":6265:6266   */\n      0x00\n        /* \"#utility.yul\":6256:6262   */\n      dup4\n        /* \"#utility.yul\":6251:6254   */\n      dup4\n        /* \"#utility.yul\":6247:6263   */\n      add\n        /* \"#utility.yul\":6240:6267   */\n      mstore\n        /* \"#utility.yul\":6126:6274   */\n      pop\n      pop\n      pop\n      jump\t// out\n        /* \"#utility.yul\":6280:6705   */\n    tag_125:\n        /* \"#utility.yul\":6358:6363   */\n      0x00\n        /* \"#utility.yul\":6383:6449   */\n      tag_225\n        /* \"#utility.yul\":6399:6448   */\n      tag_226\n        /* \"#utility.yul\":6441:6447   */\n      dup5\n        /* \"#utility.yul\":6399:6448   */\n      tag_123\n      jump\t// in\n    tag_226:\n        /* \"#utility.yul\":6383:6449   */\n      tag_122\n      jump\t// in\n    tag_225:\n        /* \"#utility.yul\":6374:6449   */\n      swap1\n      pop\n        /* \"#utility.yul\":6472:6478   */\n      dup3\n        /* \"#utility.yul\":6465:6470   */\n      dup2\n        /* \"#utility.yul\":6458:6479   */\n      mstore\n        /* \"#utility.yul\":6510:6514   */\n      0x20\n        /* \"#utility.yul\":6503:6508   */\n      dup2\n        /* \"#utility.yul\":6499:6515   */\n      add\n        /* \"#utility.yul\":6548:6551   */\n      dup5\n        /* \"#utility.yul\":6539:6545   */\n      dup5\n        /* \"#utility.yul\":6534:6537   */\n      dup5\n        /* \"#utility.yul\":6530:6546   */\n      add\n        /* \"#utility.yul\":6527:6552   */\n      gt\n        /* \"#utility.yul\":6524:6636   */\n      iszero\n      tag_227\n      jumpi\n        /* \"#utility.yul\":6555:6634   */\n      tag_228\n      tag_119\n      jump\t// in\n    tag_228:\n        /* \"#utility.yul\":6524:6636   */\n    tag_227:\n        /* \"#utility.yul\":6645:6699   */\n      tag_229\n        /* \"#utility.yul\":6692:6698   */\n      dup5\n        /* \"#utility.yul\":6687:6690   */\n      dup3\n        /* \"#utility.yul\":6682:6685   */\n      dup6\n        /* \"#utility.yul\":6645:6699   */\n      tag_124\n      jump\t// in\n    tag_229:\n        /* \"#utility.yul\":6364:6705   */\n      pop\n        /* \"#utility.yul\":6280:6705   */\n      swap4\n      swap3\n      pop\n      pop\n      pop\n      jump\t// out\n        /* \"#utility.yul\":6725:7065   */\n    tag_126:\n        /* \"#utility.yul\":6781:6786   */\n      0x00\n        /* \"#utility.yul\":6830:6833   */\n      dup3\n        /* \"#utility.yul\":6823:6827   */\n      0x1f\n        /* \"#utility.yul\":6815:6821   */\n      dup4\n        /* \"#utility.yul\":6811:6828   */\n      add\n        /* \"#utility.yul\":6807:6834   */\n      slt\n        /* \"#utility.yul\":6797:6919   */\n      tag_231\n      jumpi\n        /* \"#utility.yul\":6838:6917   */\n      tag_232\n      tag_118\n      jump\t// in\n    tag_232:\n        /* \"#utility.yul\":6797:6919   */\n    tag_231:\n        /* \"#utility.yul\":6955:6961   */\n      dup2\n        /* \"#utility.yul\":6942:6962   */\n      calldataload\n        /* \"#utility.yul\":6980:7059   */\n      tag_233\n        /* \"#utility.yul\":7055:7058   */\n      dup5\n        /* \"#utility.yul\":7047:7053   */\n      dup3\n        /* \"#utility.yul\":7040:7044   */\n      0x20\n        /* \"#utility.yul\":7032:7038   */\n      dup7\n        /* \"#utility.yul\":7028:7045   */\n      add\n        /* \"#utility.yul\":6980:7059   */\n      tag_125\n      jump\t// in\n    tag_233:\n        /* \"#utility.yul\":6971:7059   */\n      swap2\n      pop\n        /* \"#utility.yul\":6787:7065   */\n      pop\n        /* \"#utility.yul\":6725:7065   */\n      swap3\n      swap2\n      pop\n      pop\n      jump\t// out\n        /* \"#utility.yul\":7071:8342   */\n    tag_25:\n        /* \"#utility.yul\":7186:7192   */\n      0x00\n        /* \"#utility.yul\":7194:7200   */\n      dup1\n        /* \"#utility.yul\":7202:7208   */\n      0x00\n        /* \"#utility.yul\":7210:7216   */\n      dup1\n        /* \"#utility.yul\":7218:7224   */\n      0x00\n        /* \"#utility.yul\":7267:7270   */\n      0xa0\n        /* \"#utility.yul\":7255:7264   */\n      dup7\n        /* \"#utility.yul\":7246:7253   */\n      dup9\n        /* \"#utility.yul\":7242:7265   */\n      sub\n        /* \"#utility.yul\":7238:7271   */\n      slt\n        /* \"#utility.yul\":7235:7355   */\n      iszero\n      tag_235\n      jumpi\n        /* \"#utility.yul\":7274:7353   */\n      tag_236\n      tag_95\n      jump\t// in\n    tag_236:\n        /* \"#utility.yul\":7235:7355   */\n    tag_235:\n        /* \"#utility.yul\":7394:7395   */\n      0x00\n        /* \"#utility.yul\":7419:7472   */\n      tag_237\n        /* \"#utility.yul\":7464:7471   */\n      dup9\n        /* \"#utility.yul\":7455:7461   */\n      dup3\n        /* \"#utility.yul\":7444:7453   */\n      dup10\n        /* \"#utility.yul\":7440:7462   */\n      add\n        /* \"#utility.yul\":7419:7472   */\n      tag_99\n      jump\t// in\n    tag_237:\n        /* \"#utility.yul\":7409:7472   */\n      swap6\n      pop\n        /* \"#utility.yul\":7365:7482   */\n      pop\n        /* \"#utility.yul\":7521:7523   */\n      0x20\n        /* \"#utility.yul\":7547:7600   */\n      tag_238\n        /* \"#utility.yul\":7592:7599   */\n      dup9\n        /* \"#utility.yul\":7583:7589   */\n      dup3\n        /* \"#utility.yul\":7572:7581   */\n      dup10\n        /* \"#utility.yul\":7568:7590   */\n      add\n        /* \"#utility.yul\":7547:7600   */\n      tag_117\n      jump\t// in\n    tag_238:\n        /* \"#utility.yul\":7537:7600   */\n      swap5\n      pop\n        /* \"#utility.yul\":7492:7610   */\n      pop\n        /* \"#utility.yul\":7677:7679   */\n      0x40\n        /* \"#utility.yul\":7666:7675   */\n      dup7\n        /* \"#utility.yul\":7662:7680   */\n      add\n        /* \"#utility.yul\":7649:7681   */\n      calldataload\n        /* \"#utility.yul\":7708:7726   */\n      0xffffffffffffffff\n        /* \"#utility.yul\":7700:7706   */\n      dup2\n        /* \"#utility.yul\":7697:7727   */\n      gt\n        /* \"#utility.yul\":7694:7811   */\n      iszero\n      tag_239\n      jumpi\n        /* \"#utility.yul\":7730:7809   */\n      tag_240\n      tag_96\n      jump\t// in\n    tag_240:\n        /* \"#utility.yul\":7694:7811   */\n    tag_239:\n        /* \"#utility.yul\":7835:7898   */\n      tag_241\n        /* \"#utility.yul\":7890:7897   */\n      dup9\n        /* \"#utility.yul\":7881:7887   */\n      dup3\n        /* \"#utility.yul\":7870:7879   */\n      dup10\n        /* \"#utility.yul\":7866:7888   */\n      add\n        /* \"#utility.yul\":7835:7898   */\n      tag_126\n      jump\t// in\n    tag_241:\n        /* \"#utility.yul\":7825:7898   */\n      swap4\n      pop\n        /* \"#utility.yul\":7620:7908   */\n      pop\n        /* \"#utility.yul\":7947:7949   */\n      0x60\n        /* \"#utility.yul\":7973:8026   */\n      tag_242\n        /* \"#utility.yul\":8018:8025   */\n      dup9\n        /* \"#utility.yul\":8009:8015   */\n      dup3\n        /* \"#utility.yul\":7998:8007   */\n      dup10\n        /* \"#utility.yul\":7994:8016   */\n      add\n        /* \"#utility.yul\":7973:8026   */\n      tag_99\n      jump\t// in\n    tag_242:\n        /* \"#utility.yul\":7963:8026   */\n      swap3\n      pop\n        /* \"#utility.yul\":7918:8036   */\n      pop\n        /* \"#utility.yul\":8103:8106   */\n      0x80\n        /* \"#utility.yul\":8092:8101   */\n      dup7\n        /* \"#utility.yul\":8088:8107   */\n      add\n        /* \"#utility.yul\":8075:8108   */\n      calldataload\n        /* \"#utility.yul\":8135:8153   */\n      0xffffffffffffffff\n        /* \"#utility.yul\":8127:8133   */\n      dup2\n        /* \"#utility.yul\":8124:8154   */\n      gt\n        /* \"#utility.yul\":8121:8238   */\n      iszero\n      tag_243\n      jumpi\n        /* \"#utility.yul\":8157:8236   */\n      tag_244\n      tag_96\n      jump\t// in\n    tag_244:\n        /* \"#utility.yul\":8121:8238   */\n    tag_243:\n        /* \"#utility.yul\":8262:8325   */\n      tag_245\n        /* \"#utility.yul\":8317:8324   */\n      dup9\n        /* \"#utility.yul\":8308:8314   */\n      dup3\n        /* \"#utility.yul\":8297:8306   */\n      dup10\n        /* \"#utility.yul\":8293:8315   */\n      add\n        /* \"#utility.yul\":8262:8325   */\n      tag_126\n      jump\t// in\n    tag_245:\n        /* \"#utility.yul\":8252:8325   */\n      swap2\n      pop\n        /* \"#utility.yul\":8046:8335   */\n      pop\n        /* \"#utility.yul\":7071:8342   */\n      swap3\n      swap6\n      pop\n      swap3\n      swap6\n      swap1\n      swap4\n      pop\n      jump\t// out\n        /* \"#utility.yul\":8348:8528   */\n    tag_127:\n        /* \"#utility.yul\":8396:8473   */\n      0x4e487b7100000000000000000000000000000000000000000000000000000000\n        /* \"#utility.yul\":8393:8394   */\n      0x00\n        /* \"#utility.yul\":8386:8474   */\n      mstore\n        /* \"#utility.yul\":8493:8497   */\n      0x22\n        /* \"#utility.yul\":8490:8491   */\n      0x04\n        /* \"#utility.yul\":8483:8498   */\n      mstore\n        /* \"#utility.yul\":8517:8521   */\n      0x24\n        /* \"#utility.yul\":8514:8515   */\n      0x00\n        /* \"#utility.yul\":8507:8522   */\n      revert\n        /* \"#utility.yul\":8534:8854   */\n    tag_35:\n        /* \"#utility.yul\":8578:8584   */\n      0x00\n        /* \"#utility.yul\":8615:8616   */\n      0x02\n        /* \"#utility.yul\":8609:8613   */\n      dup3\n        /* \"#utility.yul\":8605:8617   */\n      div\n        /* \"#utility.yul\":8595:8617   */\n      swap1\n      pop\n        /* \"#utility.yul\":8662:8663   */\n      0x01\n        /* \"#utility.yul\":8656:8660   */\n      dup3\n        /* \"#utility.yul\":8652:8664   */\n      and\n        /* \"#utility.yul\":8683:8701   */\n      dup1\n        /* \"#utility.yul\":8673:8754   */\n      tag_248\n      jumpi\n        /* \"#utility.yul\":8739:8743   */\n      0x7f\n        /* \"#utility.yul\":8731:8737   */\n      dup3\n        /* \"#utility.yul\":8727:8744   */\n      and\n        /* \"#utility.yul\":8717:8744   */\n      swap2\n      pop\n        /* \"#utility.yul\":8673:8754   */\n    tag_248:\n        /* \"#utility.yul\":8801:8803   */\n      0x20\n        /* \"#utility.yul\":8793:8799   */\n      dup3\n        /* \"#utility.yul\":8790:8804   */\n      lt\n        /* \"#utility.yul\":8770:8788   */\n      dup2\n        /* \"#utility.yul\":8767:8805   */\n      sub\n        /* \"#utility.yul\":8764:8848   */\n      tag_249\n      jumpi\n        /* \"#utility.yul\":8820:8838   */\n      tag_250\n      tag_127\n      jump\t// in\n    tag_250:\n        /* \"#utility.yul\":8764:8848   */\n    tag_249:\n        /* \"#utility.yul\":8585:8854   */\n      pop\n        /* \"#utility.yul\":8534:8854   */\n      swap2\n      swap1\n      pop\n      jump\t// out\n        /* \"#utility.yul\":8860:9089   */\n    tag_128:\n        /* \"#utility.yul\":9000:9034   */\n      0x4f6e6c792074686520676f7665726e6d656e742063616e2063616c6c20746869\n        /* \"#utility.yul\":8996:8997   */\n      0x00\n        /* \"#utility.yul\":8988:8994   */\n      dup3\n        /* \"#utility.yul\":8984:8998   */\n      add\n        /* \"#utility.yul\":8977:9035   */\n      mstore\n        /* \"#utility.yul\":9069:9081   */\n      0x732066756e6374696f6e00000000000000000000000000000000000000000000\n        /* \"#utility.yul\":9064:9066   */\n      0x20\n        /* \"#utility.yul\":9056:9062   */\n      dup3\n        /* \"#utility.yul\":9052:9067   */\n      add\n        /* \"#utility.yul\":9045:9082   */\n      mstore\n        /* \"#utility.yul\":8860:9089   */\n      pop\n      jump\t// out\n        /* \"#utility.yul\":9095:9461   */\n    tag_129:\n        /* \"#utility.yul\":9237:9240   */\n      0x00\n        /* \"#utility.yul\":9258:9325   */\n      tag_253\n        /* \"#utility.yul\":9322:9324   */\n      0x2a\n        /* \"#utility.yul\":9317:9320   */\n      dup4\n        /* \"#utility.yul\":9258:9325   */\n      tag_106\n      jump\t// in\n    tag_253:\n        /* \"#utility.yul\":9251:9325   */\n      swap2\n      pop\n        /* \"#utility.yul\":9334:9427   */\n      tag_254\n        /* \"#utility.yul\":9423:9426   */\n      dup3\n        /* \"#utility.yul\":9334:9427   */\n      tag_128\n      jump\t// in\n    tag_254:\n        /* \"#utility.yul\":9452:9454   */\n      0x40\n        /* \"#utility.yul\":9447:9450   */\n      dup3\n        /* \"#utility.yul\":9443:9455   */\n      add\n        /* \"#utility.yul\":9436:9455   */\n      swap1\n      pop\n        /* \"#utility.yul\":9095:9461   */\n      swap2\n      swap1\n      pop\n      jump\t// out\n        /* \"#utility.yul\":9467:9886   */\n    tag_48:\n        /* \"#utility.yul\":9633:9637   */\n      0x00\n        /* \"#utility.yul\":9671:9673   */\n      0x20\n        /* \"#utility.yul\":9660:9669   */\n      dup3\n        /* \"#utility.yul\":9656:9674   */\n      add\n        /* \"#utility.yul\":9648:9674   */\n      swap1\n      pop\n        /* \"#utility.yul\":9720:9729   */\n      dup2\n        /* \"#utility.yul\":9714:9718   */\n      dup2\n        /* \"#utility.yul\":9710:9730   */\n      sub\n        /* \"#utility.yul\":9706:9707   */\n      0x00\n        /* \"#utility.yul\":9695:9704   */\n      dup4\n        /* \"#utility.yul\":9691:9708   */\n      add\n        /* \"#utility.yul\":9684:9731   */\n      mstore\n        /* \"#utility.yul\":9748:9879   */\n      tag_256\n        /* \"#utility.yul\":9874:9878   */\n      dup2\n        /* \"#utility.yul\":9748:9879   */\n      tag_129\n      jump\t// in\n    tag_256:\n        /* \"#utility.yul\":9740:9879   */\n      swap1\n      pop\n        /* \"#utility.yul\":9467:9886   */\n      swap2\n      swap1\n      pop\n      jump\t// out\n        /* \"#utility.yul\":9892:10067   */\n    tag_130:\n        /* \"#utility.yul\":10032:10059   */\n      0x4c616e64207469746c65206e6f74207265676973746572656400000000000000\n        /* \"#utility.yul\":10028:10029   */\n      0x00\n        /* \"#utility.yul\":10020:10026   */\n      dup3\n        /* \"#utility.yul\":10016:10030   */\n      add\n        /* \"#utility.yul\":10009:10060   */\n      mstore\n        /* \"#utility.yul\":9892:10067   */\n      pop\n      jump\t// out\n        /* \"#utility.yul\":10073:10439   */\n    tag_131:\n        /* \"#utility.yul\":10215:10218   */\n      0x00\n        /* \"#utility.yul\":10236:10303   */\n      tag_259\n        /* \"#utility.yul\":10300:10302   */\n      0x19\n        /* \"#utility.yul\":10295:10298   */\n      dup4\n        /* \"#utility.yul\":10236:10303   */\n      tag_106\n      jump\t// in\n    tag_259:\n        /* \"#utility.yul\":10229:10303   */\n      swap2\n      pop\n        /* \"#utility.yul\":10312:10405   */\n      tag_260\n        /* \"#utility.yul\":10401:10404   */\n      dup3\n        /* \"#utility.yul\":10312:10405   */\n      tag_130\n      jump\t// in\n    tag_260:\n        /* \"#utility.yul\":10430:10432   */\n      0x20\n        /* \"#utility.yul\":10425:10428   */\n      dup3\n        /* \"#utility.yul\":10421:10433   */\n      add\n        /* \"#utility.yul\":10414:10433   */\n      swap1\n      pop\n        /* \"#utility.yul\":10073:10439   */\n      swap2\n      swap1\n      pop\n      jump\t// out\n        /* \"#utility.yul\":10445:10864   */\n    tag_52:\n        /* \"#utility.yul\":10611:10615   */\n      0x00\n        /* \"#utility.yul\":10649:10651   */\n      0x20\n        /* \"#utility.yul\":10638:10647   */\n      dup3\n        /* \"#utility.yul\":10634:10652   */\n      add\n        /* \"#utility.yul\":10626:10652   */\n      swap1\n      pop\n        /* \"#utility.yul\":10698:10707   */\n      dup2\n        /* \"#utility.yul\":10692:10696   */\n      dup2\n        /* \"#utility.yul\":10688:10708   */\n      sub\n        /* \"#utility.yul\":10684:10685   */\n      0x00\n        /* \"#utility.yul\":10673:10682   */\n      dup4\n        /* \"#utility.yul\":10669:10686   */\n      add\n        /* \"#utility.yul\":10662:10709   */\n      mstore\n        /* \"#utility.yul\":10726:10857   */\n      tag_262\n        /* \"#utility.yul\":10852:10856   */\n      dup2\n        /* \"#utility.yul\":10726:10857   */\n      tag_131\n      jump\t// in\n    tag_262:\n        /* \"#utility.yul\":10718:10857   */\n      swap1\n      pop\n        /* \"#utility.yul\":10445:10864   */\n      swap2\n      swap1\n      pop\n      jump\t// out\n        /* \"#utility.yul\":10870:11047   */\n    tag_132:\n        /* \"#utility.yul\":11010:11039   */\n      0x41726561206d7573742062652067726561746572207468616e20300000000000\n        /* \"#utility.yul\":11006:11007   */\n      0x00\n        /* \"#utility.yul\":10998:11004   */\n      dup3\n        /* \"#utility.yul\":10994:11008   */\n      add\n        /* \"#utility.yul\":10987:11040   */\n      mstore\n        /* \"#utility.yul\":10870:11047   */\n      pop\n      jump\t// out\n        /* \"#utility.yul\":11053:11419   */\n    tag_133:\n        /* \"#utility.yul\":11195:11198   */\n      0x00\n        /* \"#utility.yul\":11216:11283   */\n      tag_265\n        /* \"#utility.yul\":11280:11282   */\n      0x1b\n        /* \"#utility.yul\":11275:11278   */\n      dup4\n        /* \"#utility.yul\":11216:11283   */\n      tag_106\n      jump\t// in\n    tag_265:\n        /* \"#utility.yul\":11209:11283   */\n      swap2\n      pop\n        /* \"#utility.yul\":11292:11385   */\n      tag_266\n        /* \"#utility.yul\":11381:11384   */\n      dup3\n        /* \"#utility.yul\":11292:11385   */\n      tag_132\n      jump\t// in\n    tag_266:\n        /* \"#utility.yul\":11410:11412   */\n      0x20\n        /* \"#utility.yul\":11405:11408   */\n      dup3\n        /* \"#utility.yul\":11401:11413   */\n      add\n        /* \"#utility.yul\":11394:11413   */\n      swap1\n      pop\n        /* \"#utility.yul\":11053:11419   */\n      swap2\n      swap1\n      pop\n      jump\t// out\n        /* \"#utility.yul\":11425:11844   */\n    tag_55:\n        /* \"#utility.yul\":11591:11595   */\n      0x00\n        /* \"#utility.yul\":11629:11631   */\n      0x20\n        /* \"#utility.yul\":11618:11627   */\n      dup3\n        /* \"#utility.yul\":11614:11632   */\n      add\n        /* \"#utility.yul\":11606:11632   */\n      swap1\n      pop\n        /* \"#utility.yul\":11678:11687   */\n      dup2\n        /* \"#utility.yul\":11672:11676   */\n      dup2\n        /* \"#utility.yul\":11668:11688   */\n      sub\n        /* \"#utility.yul\":11664:11665   */\n      0x00\n        /* \"#utility.yul\":11653:11662   */\n      dup4\n        /* \"#utility.yul\":11649:11666   */\n      add\n        /* \"#utility.yul\":11642:11689   */\n      mstore\n        /* \"#utility.yul\":11706:11837   */\n      tag_268\n        /* \"#utility.yul\":11832:11836   */\n      dup2\n        /* \"#utility.yul\":11706:11837   */\n      tag_133\n      jump\t// in\n    tag_268:\n        /* \"#utility.yul\":11698:11837   */\n      swap1\n      pop\n        /* \"#utility.yul\":11425:11844   */\n      swap2\n      swap1\n      pop\n      jump\t// out\n        /* \"#utility.yul\":11850:11991   */\n    tag_134:\n        /* \"#utility.yul\":11899:11903   */\n      0x00\n        /* \"#utility.yul\":11922:11925   */\n      dup2\n        /* \"#utility.yul\":11914:11925   */\n      swap1\n      pop\n        /* \"#utility.yul\":11945:11948   */\n      dup2\n        /* \"#utility.yul\":11942:11943   */\n      0x00\n        /* \"#utility.yul\":11935:11949   */\n      mstore\n        /* \"#utility.yul\":11979:11983   */\n      0x20\n        /* \"#utility.yul\":11976:11977   */\n      0x00\n        /* \"#utility.yul\":11966:11984   */\n      keccak256\n        /* \"#utility.yul\":11958:11984   */\n      swap1\n      pop\n        /* \"#utility.yul\":11850:11991   */\n      swap2\n      swap1\n      pop\n      jump\t// out\n        /* \"#utility.yul\":11997:12090   */\n    tag_135:\n        /* \"#utility.yul\":12034:12040   */\n      0x00\n        /* \"#utility.yul\":12081:12083   */\n      0x20\n        /* \"#utility.yul\":12076:12078   */\n      0x1f\n        /* \"#utility.yul\":12069:12074   */\n      dup4\n        /* \"#utility.yul\":12065:12079   */\n      add\n        /* \"#utility.yul\":12061:12084   */\n      div\n        /* \"#utility.yul\":12051:12084   */\n      swap1\n      pop\n        /* \"#utility.yul\":11997:12090   */\n      swap2\n      swap1\n      pop\n      jump\t// out\n        /* \"#utility.yul\":12096:12203   */\n    tag_136:\n        /* \"#utility.yul\":12140:12148   */\n      0x00\n        /* \"#utility.yul\":12190:12195   */\n      dup3\n        /* \"#utility.yul\":12184:12188   */\n      dup3\n        /* \"#utility.yul\":12180:12196   */\n      shl\n        /* \"#utility.yul\":12159:12196   */\n      swap1\n      pop\n        /* \"#utility.yul\":12096:12203   */\n      swap3\n      swap2\n      pop\n      pop\n      jump\t// out\n        /* \"#utility.yul\":12209:12602   */\n    tag_137:\n        /* \"#utility.yul\":12278:12284   */\n      0x00\n        /* \"#utility.yul\":12328:12329   */\n      0x08\n        /* \"#utility.yul\":12316:12326   */\n      dup4\n        /* \"#utility.yul\":12312:12330   */\n      mul\n        /* \"#utility.yul\":12351:12448   */\n      tag_273\n        /* \"#utility.yul\":12381:12447   */\n      0xffffffffffffffffffffffffffffffffffffffffffffffffffffffffffffffff\n        /* \"#utility.yul\":12370:12379   */\n      dup3\n        /* \"#utility.yul\":12351:12448   */\n      tag_136\n      jump\t// in\n    tag_273:\n        /* \"#utility.yul\":12469:12508   */\n      tag_274\n        /* \"#utility.yul\":12499:12507   */\n      dup7\n        /* \"#utility.yul\":12488:12497   */\n      dup4\n        /* \"#utility.yul\":12469:12508   */\n      tag_136\n      jump\t// in\n    tag_274:\n        /* \"#utility.yul\":12457:12508   */\n      swap6\n      pop\n        /* \"#utility.yul\":12541:12545   */\n      dup1\n        /* \"#utility.yul\":12537:12546   */\n      not\n        /* \"#utility.yul\":12530:12535   */\n      dup5\n        /* \"#utility.yul\":12526:12547   */\n      and\n        /* \"#utility.yul\":12517:12547   */\n      swap4\n      pop\n        /* \"#utility.yul\":12590:12594   */\n      dup1\n        /* \"#utility.yul\":12580:12588   */\n      dup7\n        /* \"#utility.yul\":12576:12595   */\n      and\n        /* \"#utility.yul\":12569:12574   */\n      dup5\n        /* \"#utility.yul\":12566:12596   */\n      or\n        /* \"#utility.yul\":12556:12596   */\n      swap3\n      pop\n        /* \"#utility.yul\":12285:12602   */\n      pop\n      pop\n        /* \"#utility.yul\":12209:12602   */\n      swap4\n      swap3\n      pop\n      pop\n      pop\n      jump\t// out\n        /* \"#utility.yul\":12608:12750   */\n    tag_138:\n        /* \"#utility.yul\":12658:12667   */\n      0x00\n        /* \"#utility.yul\":12691:12744   */\n      tag_276\n        /* \"#utility.yul\":12709:12743   */\n      tag_277\n        /* \"#utility.yul\":12718:12742   */\n      tag_278\n        /* \"#utility.yul\":12736:12741   */\n      dup5\n        /* \"#utility.yul\":12718:12742   */\n      tag_97\n      jump\t// in\n    tag_278:\n        /* \"#utility.yul\":12709:12743   */\n      tag_111\n      jump\t// in\n    tag_277:\n        /* \"#utility.yul\":12691:12744   */\n      tag_97\n      jump\t// in\n    tag_276:\n        /* \"#utility.yul\":12678:12744   */\n      swap1\n      pop\n        /* \"#utility.yul\":12608:12750   */\n      swap2\n      swap1\n      pop\n      jump\t// out\n        /* \"#utility.yul\":12756:12831   */\n    tag_139:\n        /* \"#utility.yul\":12799:12802   */\n      0x00\n        /* \"#utility.yul\":12820:12825   */\n      dup2\n        /* \"#utility.yul\":12813:12825   */\n      swap1\n      pop\n        /* \"#utility.yul\":12756:12831   */\n      swap2\n      swap1\n      pop\n      jump\t// out\n        /* \"#utility.yul\":12837:13106   */\n    tag_140:\n        /* \"#utility.yul\":12947:12986   */\n      tag_281\n        /* \"#utility.yul\":12978:12985   */\n      dup4\n        /* \"#utility.yul\":12947:12986   */\n      tag_138\n      jump\t// in\n    tag_281:\n        /* \"#utility.yul\":13008:13099   */\n      tag_282\n        /* \"#utility.yul\":13057:13098   */\n      tag_283\n        /* \"#utility.yul\":13081:13097   */\n      dup3\n        /* \"#utility.yul\":13057:13098   */\n      tag_139\n      jump\t// in\n    tag_283:\n        /* \"#utility.yul\":13049:13055   */\n      dup5\n        /* \"#utility.yul\":13042:13046   */\n      dup5\n        /* \"#utility.yul\":13036:13047   */\n      sload\n        /* \"#utility.yul\":13008:13099   */\n      tag_137\n      jump\t// in\n    tag_282:\n        /* \"#utility.yul\":13002:13006   */\n      dup3\n        /* \"#utility.yul\":12995:13100   */\n      sstore\n        /* \"#utility.yul\":12913:13106   */\n      pop\n        /* \"#utility.yul\":12837:13106   */\n      pop\n      pop\n      pop\n      jump\t// out\n        /* \"#utility.yul\":13112:13185   */\n    tag_141:\n        /* \"#utility.yul\":13157:13160   */\n      0x00\n        /* \"#utility.yul\":13112:13185   */\n      swap1\n      jump\t// out\n        /* \"#utility.yul\":13191:13380   */\n    tag_142:\n        /* \"#utility.yul\":13268:13300   */\n      tag_286\n      tag_141\n      jump\t// in\n    tag_286:\n        /* \"#utility.yul\":13309:13374   */\n      tag_287\n        /* \"#utility.yul\":13367:13373   */\n      dup2\n        /* \"#utility.yul\":13359:13365   */\n      dup5\n        /* \"#utility.yul\":13353:13357   */\n      dup5\n        /* \"#utility.yul\":13309:13374   */\n      tag_140\n      jump\t// in\n    tag_287:\n        /* \"#utility.yul\":13244:13380   */\n      pop\n        /* \"#utility.yul\":13191:13380   */\n      pop\n      pop\n      jump\t// out\n        /* \"#utility.yul\":13386:13572   */\n    tag_143:\n        /* \"#utility.yul\":13446:13566   */\n    tag_289:\n        /* \"#utility.yul\":13463:13466   */\n      dup2\n        /* \"#utility.yul\":13456:13461   */\n      dup2\n        /* \"#utility.yul\":13453:13467   */\n      lt\n        /* \"#utility.yul\":13446:13566   */\n      iszero\n      tag_291\n      jumpi\n        /* \"#utility.yul\":13517:13556   */\n      tag_292\n        /* \"#utility.yul\":13554:13555   */\n      0x00\n        /* \"#utility.yul\":13547:13552   */\n      dup3\n        /* \"#utility.yul\":13517:13556   */\n      tag_142\n      jump\t// in\n    tag_292:\n        /* \"#utility.yul\":13490:13491   */\n      0x01\n        /* \"#utility.yul\":13483:13488   */\n      dup2\n        /* \"#utility.yul\":13479:13492   */\n      add\n        /* \"#utility.yul\":13470:13492   */\n      swap1\n      pop\n        /* \"#utility.yul\":13446:13566   */\n      jump(tag_289)\n    tag_291:\n        /* \"#utility.yul\":13386:13572   */\n      pop\n      pop\n      jump\t// out\n        /* \"#utility.yul\":13578:14121   */\n    tag_144:\n        /* \"#utility.yul\":13679:13681   */\n      0x1f\n        /* \"#utility.yul\":13674:13677   */\n      dup3\n        /* \"#utility.yul\":13671:13682   */\n      gt\n        /* \"#utility.yul\":13668:14114   */\n      iszero\n      tag_294\n      jumpi\n        /* \"#utility.yul\":13713:13751   */\n      tag_295\n        /* \"#utility.yul\":13745:13750   */\n      dup2\n        /* \"#utility.yul\":13713:13751   */\n      tag_134\n      jump\t// in\n    tag_295:\n        /* \"#utility.yul\":13797:13826   */\n      tag_296\n        /* \"#utility.yul\":13815:13825   */\n      dup5\n        /* \"#utility.yul\":13797:13826   */\n      tag_135\n      jump\t// in\n    tag_296:\n        /* \"#utility.yul\":13787:13795   */\n      dup2\n        /* \"#utility.yul\":13783:13827   */\n      add\n        /* \"#utility.yul\":13980:13982   */\n      0x20\n        /* \"#utility.yul\":13968:13978   */\n      dup6\n        /* \"#utility.yul\":13965:13983   */\n      lt\n        /* \"#utility.yul\":13962:14011   */\n      iszero\n      tag_297\n      jumpi\n        /* \"#utility.yul\":14001:14009   */\n      dup2\n        /* \"#utility.yul\":13986:14009   */\n      swap1\n      pop\n        /* \"#utility.yul\":13962:14011   */\n    tag_297:\n        /* \"#utility.yul\":14024:14104   */\n      tag_298\n        /* \"#utility.yul\":14080:14102   */\n      tag_299\n        /* \"#utility.yul\":14098:14101   */\n      dup6\n        /* \"#utility.yul\":14080:14102   */\n      tag_135\n      jump\t// in\n    tag_299:\n        /* \"#utility.yul\":14070:14078   */\n      dup4\n        /* \"#utility.yul\":14066:14103   */\n      add\n        /* \"#utility.yul\":14053:14064   */\n      dup3\n        /* \"#utility.yul\":14024:14104   */\n      tag_143\n      jump\t// in\n    tag_298:\n        /* \"#utility.yul\":13683:14114   */\n      pop\n      pop\n        /* \"#utility.yul\":13668:14114   */\n    tag_294:\n        /* \"#utility.yul\":13578:14121   */\n      pop\n      pop\n      pop\n      jump\t// out\n        /* \"#utility.yul\":14127:14244   */\n    tag_145:\n        /* \"#utility.yul\":14181:14189   */\n      0x00\n        /* \"#utility.yul\":14231:14236   */\n      dup3\n        /* \"#utility.yul\":14225:14229   */\n      dup3\n        /* \"#utility.yul\":14221:14237   */\n      shr\n        /* \"#utility.yul\":14200:14237   */\n      swap1\n      pop\n        /* \"#utility.yul\":14127:14244   */\n      swap3\n      swap2\n      pop\n      pop\n      jump\t// out\n        /* \"#utility.yul\":14250:14419   */\n    tag_146:\n        /* \"#utility.yul\":14294:14300   */\n      0x00\n        /* \"#utility.yul\":14327:14378   */\n      tag_302\n        /* \"#utility.yul\":14375:14376   */\n      0x00\n        /* \"#utility.yul\":14371:14377   */\n      not\n        /* \"#utility.yul\":14363:14368   */\n      dup5\n        /* \"#utility.yul\":14360:14361   */\n      0x08\n        /* \"#utility.yul\":14356:14369   */\n      mul\n        /* \"#utility.yul\":14327:14378   */\n      tag_145\n      jump\t// in\n    tag_302:\n        /* \"#utility.yul\":14323:14379   */\n      not\n        /* \"#utility.yul\":14408:14412   */\n      dup1\n        /* \"#utility.yul\":14402:14406   */\n      dup4\n        /* \"#utility.yul\":14398:14413   */\n      and\n        /* \"#utility.yul\":14388:14413   */\n      swap2\n      pop\n        /* \"#utility.yul\":14301:14419   */\n      pop\n        /* \"#utility.yul\":14250:14419   */\n      swap3\n      swap2\n      pop\n      pop\n      jump\t// out\n        /* \"#utility.yul\":14424:14719   */\n    tag_147:\n        /* \"#utility.yul\":14500:14504   */\n      0x00\n        /* \"#utility.yul\":14646:14675   */\n      tag_304\n        /* \"#utility.yul\":14671:14674   */\n      dup4\n        /* \"#utility.yul\":14665:14669   */\n      dup4\n        /* \"#utility.yul\":14646:14675   */\n      tag_146\n      jump\t// in\n    tag_304:\n        /* \"#utility.yul\":14638:14675   */\n      swap2\n      pop\n        /* \"#utility.yul\":14708:14711   */\n      dup3\n        /* \"#utility.yul\":14705:14706   */\n      0x02\n        /* \"#utility.yul\":14701:14712   */\n      mul\n        /* \"#utility.yul\":14695:14699   */\n      dup3\n        /* \"#utility.yul\":14692:14713   */\n      or\n        /* \"#utility.yul\":14684:14713   */\n      swap1\n      pop\n        /* \"#utility.yul\":14424:14719   */\n      swap3\n      swap2\n      pop\n      pop\n      jump\t// out\n        /* \"#utility.yul\":14724:16119   */\n    tag_57:\n        /* \"#utility.yul\":14841:14878   */\n      tag_306\n        /* \"#utility.yul\":14874:14877   */\n      dup3\n        /* \"#utility.yul\":14841:14878   */\n      tag_105\n      jump\t// in\n    tag_306:\n        /* \"#utility.yul\":14943:14961   */\n      0xffffffffffffffff\n        /* \"#utility.yul\":14935:14941   */\n      dup2\n        /* \"#utility.yul\":14932:14962   */\n      gt\n        /* \"#utility.yul\":14929:14985   */\n      iszero\n      tag_307\n      jumpi\n        /* \"#utility.yul\":14965:14983   */\n      tag_308\n      tag_120\n      jump\t// in\n    tag_308:\n        /* \"#utility.yul\":14929:14985   */\n    tag_307:\n        /* \"#utility.yul\":15009:15047   */\n      tag_309\n        /* \"#utility.yul\":15041:15045   */\n      dup3\n        /* \"#utility.yul\":15035:15046   */\n      sload\n        /* \"#utility.yul\":15009:15047   */\n      tag_35\n      jump\t// in\n    tag_309:\n        /* \"#utility.yul\":15094:15161   */\n      tag_310\n        /* \"#utility.yul\":15154:15160   */\n      dup3\n        /* \"#utility.yul\":15146:15152   */\n      dup3\n        /* \"#utility.yul\":15140:15144   */\n      dup6\n        /* \"#utility.yul\":15094:15161   */\n      tag_144\n      jump\t// in\n    tag_310:\n        /* \"#utility.yul\":15188:15189   */\n      0x00\n        /* \"#utility.yul\":15212:15216   */\n      0x20\n        /* \"#utility.yul\":15199:15216   */\n      swap1\n      pop\n        /* \"#utility.yul\":15244:15246   */\n      0x1f\n        /* \"#utility.yul\":15236:15242   */\n      dup4\n        /* \"#utility.yul\":15233:15247   */\n      gt\n        /* \"#utility.yul\":15261:15262   */\n      0x01\n        /* \"#utility.yul\":15256:15874   */\n      dup2\n      eq\n      tag_312\n      jumpi\n        /* \"#utility.yul\":15918:15919   */\n      0x00\n        /* \"#utility.yul\":15935:15941   */\n      dup5\n        /* \"#utility.yul\":15932:16009   */\n      iszero\n      tag_313\n      jumpi\n        /* \"#utility.yul\":15984:15993   */\n      dup3\n        /* \"#utility.yul\":15979:15982   */\n      dup8\n        /* \"#utility.yul\":15975:15994   */\n      add\n        /* \"#utility.yul\":15969:15995   */\n      mload\n        /* \"#utility.yul\":15960:15995   */\n      swap1\n      pop\n        /* \"#utility.yul\":15932:16009   */\n    tag_313:\n        /* \"#utility.yul\":16035:16102   */\n      tag_314\n        /* \"#utility.yul\":16095:16101   */\n      dup6\n        /* \"#utility.yul\":16088:16093   */\n      dup3\n        /* \"#utility.yul\":16035:16102   */\n      tag_147\n      jump\t// in\n    tag_314:\n        /* \"#utility.yul\":16029:16033   */\n      dup7\n        /* \"#utility.yul\":16022:16103   */\n      sstore\n        /* \"#utility.yul\":15891:16113   */\n      pop\n        /* \"#utility.yul\":15226:16113   */\n      jump(tag_311)\n        /* \"#utility.yul\":15256:15874   */\n    tag_312:\n        /* \"#utility.yul\":15308:15312   */\n      0x1f\n        /* \"#utility.yul\":15304:15313   */\n      not\n        /* \"#utility.yul\":15296:15302   */\n      dup5\n        /* \"#utility.yul\":15292:15314   */\n      and\n        /* \"#utility.yul\":15342:15379   */\n      tag_315\n        /* \"#utility.yul\":15374:15378   */\n      dup7\n        /* \"#utility.yul\":15342:15379   */\n      tag_134\n      jump\t// in\n    tag_315:\n        /* \"#utility.yul\":15401:15402   */\n      0x00\n        /* \"#utility.yul\":15415:15623   */\n    tag_316:\n        /* \"#utility.yul\":15429:15436   */\n      dup3\n        /* \"#utility.yul\":15426:15427   */\n      dup2\n        /* \"#utility.yul\":15423:15437   */\n      lt\n        /* \"#utility.yul\":15415:15623   */\n      iszero\n      tag_318\n      jumpi\n        /* \"#utility.yul\":15508:15517   */\n      dup5\n        /* \"#utility.yul\":15503:15506   */\n      dup10\n        /* \"#utility.yul\":15499:15518   */\n      add\n        /* \"#utility.yul\":15493:15519   */\n      mload\n        /* \"#utility.yul\":15485:15491   */\n      dup3\n        /* \"#utility.yul\":15478:15520   */\n      sstore\n        /* \"#utility.yul\":15559:15560   */\n      0x01\n        /* \"#utility.yul\":15551:15557   */\n      dup3\n        /* \"#utility.yul\":15547:15561   */\n      add\n        /* \"#utility.yul\":15537:15561   */\n      swap2\n      pop\n        /* \"#utility.yul\":15606:15608   */\n      0x20\n        /* \"#utility.yul\":15595:15604   */\n      dup6\n        /* \"#utility.yul\":15591:15609   */\n      add\n        /* \"#utility.yul\":15578:15609   */\n      swap5\n      pop\n        /* \"#utility.yul\":15452:15456   */\n      0x20\n        /* \"#utility.yul\":15449:15450   */\n      dup2\n        /* \"#utility.yul\":15445:15457   */\n      add\n        /* \"#utility.yul\":15440:15457   */\n      swap1\n      pop\n        /* \"#utility.yul\":15415:15623   */\n      jump(tag_316)\n    tag_318:\n        /* \"#utility.yul\":15651:15657   */\n      dup7\n        /* \"#utility.yul\":15642:15649   */\n      dup4\n        /* \"#utility.yul\":15639:15658   */\n      lt\n        /* \"#utility.yul\":15636:15815   */\n      iszero\n      tag_319\n      jumpi\n        /* \"#utility.yul\":15709:15718   */\n      dup5\n        /* \"#utility.yul\":15704:15707   */\n      dup10\n        /* \"#utility.yul\":15700:15719   */\n      add\n        /* \"#utility.yul\":15694:15720   */\n      mload\n        /* \"#utility.yul\":15752:15800   */\n      tag_320\n        /* \"#utility.yul\":15794:15798   */\n      0x1f\n        /* \"#utility.yul\":15786:15792   */\n      dup10\n        /* \"#utility.yul\":15782:15799   */\n      and\n        /* \"#utility.yul\":15771:15780   */\n      dup3\n        /* \"#utility.yul\":15752:15800   */\n      tag_146\n      jump\t// in\n    tag_320:\n        /* \"#utility.yul\":15744:15750   */\n      dup4\n        /* \"#utility.yul\":15737:15801   */\n      sstore\n        /* \"#utility.yul\":15659:15815   */\n      pop\n        /* \"#utility.yul\":15636:15815   */\n    tag_319:\n        /* \"#utility.yul\":15861:15862   */\n      0x01\n        /* \"#utility.yul\":15857:15858   */\n      0x02\n        /* \"#utility.yul\":15849:15855   */\n      dup9\n        /* \"#utility.yul\":15845:15859   */\n      mul\n        /* \"#utility.yul\":15841:15863   */\n      add\n        /* \"#utility.yul\":15835:15839   */\n      dup9\n        /* \"#utility.yul\":15828:15864   */\n      sstore\n        /* \"#utility.yul\":15263:15874   */\n      pop\n      pop\n      pop\n        /* \"#utility.yul\":15226:16113   */\n    tag_311:\n      pop\n        /* \"#utility.yul\":14816:16119   */\n      pop\n      pop\n      pop\n        /* \"#utility.yul\":14724:16119   */\n      pop\n      pop\n      jump\t// out\n        /* \"#utility.yul\":16125:16749   */\n    tag_60:\n        /* \"#utility.yul\":16314:16318   */\n      0x00\n        /* \"#utility.yul\":16352:16354   */\n      0x60\n        /* \"#utility.yul\":16341:16350   */\n      dup3\n        /* \"#utility.yul\":16337:16355   */\n      add\n        /* \"#utility.yul\":16329:16355   */\n      swap1\n      pop\n        /* \"#utility.yul\":16401:16410   */\n      dup2\n        /* \"#utility.yul\":16395:16399   */\n      dup2\n        /* \"#utility.yul\":16391:16411   */\n      sub\n        /* \"#utility.yul\":16387:16388   */\n      0x00\n        /* \"#utility.yul\":16376:16385   */\n      dup4\n        /* \"#utility.yul\":16372:16389   */\n      add\n        /* \"#utility.yul\":16365:16412   */\n      mstore\n        /* \"#utility.yul\":16429:16507   */\n      tag_322\n        /* \"#utility.yul\":16502:16506   */\n      dup2\n        /* \"#utility.yul\":16493:16499   */\n      dup7\n        /* \"#utility.yul\":16429:16507   */\n      tag_109\n      jump\t// in\n    tag_322:\n        /* \"#utility.yul\":16421:16507   */\n      swap1\n      pop\n        /* \"#utility.yul\":16517:16589   */\n      tag_323\n        /* \"#utility.yul\":16585:16587   */\n      0x20\n        /* \"#utility.yul\":16574:16583   */\n      dup4\n        /* \"#utility.yul\":16570:16588   */\n      add\n        /* \"#utility.yul\":16561:16567   */\n      dup6\n        /* \"#utility.yul\":16517:16589   */\n      tag_110\n      jump\t// in\n    tag_323:\n        /* \"#utility.yul\":16636:16645   */\n      dup2\n        /* \"#utility.yul\":16630:16634   */\n      dup2\n        /* \"#utility.yul\":16626:16646   */\n      sub\n        /* \"#utility.yul\":16621:16623   */\n      0x40\n        /* \"#utility.yul\":16610:16619   */\n      dup4\n        /* \"#utility.yul\":16606:16624   */\n      add\n        /* \"#utility.yul\":16599:16647   */\n      mstore\n        /* \"#utility.yul\":16664:16742   */\n      tag_324\n        /* \"#utility.yul\":16737:16741   */\n      dup2\n        /* \"#utility.yul\":16728:16734   */\n      dup5\n        /* \"#utility.yul\":16664:16742   */\n      tag_109\n      jump\t// in\n    tag_324:\n        /* \"#utility.yul\":16656:16742   */\n      swap1\n      pop\n        /* \"#utility.yul\":16125:16749   */\n      swap5\n      swap4\n      pop\n      pop\n      pop\n      pop\n      jump\t// out\n        /* \"#utility.yul\":16755:17178   */\n    tag_62:\n        /* \"#utility.yul\":16896:16900   */\n      0x00\n        /* \"#utility.yul\":16934:16936   */\n      0x40\n        /* \"#utility.yul\":16923:16932   */\n      dup3\n        /* \"#utility.yul\":16919:16937   */\n      add\n        /* \"#utility.yul\":16911:16937   */\n      swap1\n      pop\n        /* \"#utility.yul\":16947:17018   */\n      tag_326\n        /* \"#utility.yul\":17015:17016   */\n      0x00\n        /* \"#utility.yul\":17004:17013   */\n      dup4\n        /* \"#utility.yul\":17000:17017   */\n      add\n        /* \"#utility.yul\":16991:16997   */\n      dup6\n        /* \"#utility.yul\":16947:17018   */\n      tag_104\n      jump\t// in\n    tag_326:\n        /* \"#utility.yul\":17065:17074   */\n      dup2\n        /* \"#utility.yul\":17059:17063   */\n      dup2\n        /* \"#utility.yul\":17055:17075   */\n      sub\n        /* \"#utility.yul\":17050:17052   */\n      0x20\n        /* \"#utility.yul\":17039:17048   */\n      dup4\n        /* \"#utility.yul\":17035:17053   */\n      add\n        /* \"#utility.yul\":17028:17076   */\n      mstore\n        /* \"#utility.yul\":17093:17171   */\n      tag_327\n        /* \"#utility.yul\":17166:17170   */\n      dup2\n        /* \"#utility.yul\":17157:17163   */\n      dup5\n        /* \"#utility.yul\":17093:17171   */\n      tag_109\n      jump\t// in\n    tag_327:\n        /* \"#utility.yul\":17085:17171   */\n      swap1\n      pop\n        /* \"#utility.yul\":16755:17178   */\n      swap4\n      swap3\n      pop\n      pop\n      pop\n      jump\t// out\n        /* \"#utility.yul\":17184:17363   */\n    tag_148:\n        /* \"#utility.yul\":17324:17355   */\n      0x4c616e64207469746c6520616c72656164792072656769737465726564000000\n        /* \"#utility.yul\":17320:17321   */\n      0x00\n        /* \"#utility.yul\":17312:17318   */\n      dup3\n        /* \"#utility.yul\":17308:17322   */\n      add\n        /* \"#utility.yul\":17301:17356   */\n      mstore\n        /* \"#utility.yul\":17184:17363   */\n      pop\n      jump\t// out\n        /* \"#utility.yul\":17369:17735   */\n    tag_149:\n        /* \"#utility.yul\":17511:17514   */\n      0x00\n        /* \"#utility.yul\":17532:17599   */\n      tag_330\n        /* \"#utility.yul\":17596:17598   */\n      0x1d\n        /* \"#utility.yul\":17591:17594   */\n      dup4\n        /* \"#utility.yul\":17532:17599   */\n      tag_106\n      jump\t// in\n    tag_330:\n        /* \"#utility.yul\":17525:17599   */\n      swap2\n      pop\n        /* \"#utility.yul\":17608:17701   */\n      tag_331\n        /* \"#utility.yul\":17697:17700   */\n      dup3\n        /* \"#utility.yul\":17608:17701   */\n      tag_148\n      jump\t// in\n    tag_331:\n        /* \"#utility.yul\":17726:17728   */\n      0x20\n        /* \"#utility.yul\":17721:17724   */\n      dup3\n        /* \"#utility.yul\":17717:17729   */\n      add\n        /* \"#utility.yul\":17710:17729   */\n      swap1\n      pop\n        /* \"#utility.yul\":17369:17735   */\n      swap2\n      swap1\n      pop\n      jump\t// out\n        /* \"#utility.yul\":17741:18160   */\n    tag_72:\n        /* \"#utility.yul\":17907:17911   */\n      0x00\n        /* \"#utility.yul\":17945:17947   */\n      0x20\n        /* \"#utility.yul\":17934:17943   */\n      dup3\n        /* \"#utility.yul\":17930:17948   */\n      add\n        /* \"#utility.yul\":17922:17948   */\n      swap1\n      pop\n        /* \"#utility.yul\":17994:18003   */\n      dup2\n        /* \"#utility.yul\":17988:17992   */\n      dup2\n        /* \"#utility.yul\":17984:18004   */\n      sub\n        /* \"#utility.yul\":17980:17981   */\n      0x00\n        /* \"#utility.yul\":17969:17978   */\n      dup4\n        /* \"#utility.yul\":17965:17982   */\n      add\n        /* \"#utility.yul\":17958:18005   */\n      mstore\n        /* \"#utility.yul\":18022:18153   */\n      tag_333\n        /* \"#utility.yul\":18148:18152   */\n      dup2\n        /* \"#utility.yul\":18022:18153   */\n      tag_149\n      jump\t// in\n    tag_333:\n        /* \"#utility.yul\":18014:18153   */\n      swap1\n      pop\n        /* \"#utility.yul\":17741:18160   */\n      swap2\n      swap1\n      pop\n      jump\t// out\n\n    auxdata: 0xa2646970667358221220fc5f36bc410825a9c143dff3ecb295d11d13fa3333157a620d92abe2e227514764736f6c634300081a0033\n}\n\nsub_1: assembly {\n        /* \"contracts/titledeeds.sol\":60:864  contract TitleDeedTokenization {... */\n      mstore(0x40, 0x80)\n      callvalue\n      dup1\n      iszero\n      tag_1\n      jumpi\n      0x00\n      dup1\n      revert\n    tag_1:\n      pop\n      dataSize(sub_0)\n      dup1\n      dataOffset(sub_0)\n      0x00\n      codecopy\n      0x00\n      return\n    stop\n\n    sub_0: assembly {\n            /* \"contracts/titledeeds.sol\":60:864  contract TitleDeedTokenization {... */\n          mstore(0x40, 0x80)\n          callvalue\n          dup1\n          iszero\n          tag_1\n          jumpi\n          0x00\n          dup1\n          revert\n        tag_1:\n          pop\n          jumpi(tag_2, lt(calldatasize, 0x04))\n          shr(0xe0, calldataload(0x00))\n          dup1\n          0x3d02d0c9\n          eq\n          tag_3\n          jumpi\n          dup1\n          0x75794a3c\n          eq\n          tag_4\n          jumpi\n          dup1\n          0x80964805\n          eq\n          tag_5\n          jumpi\n        tag_2:\n          0x00\n          dup1\n          revert\n            /* \"contracts/titledeeds.sol\":358:650  function mintToken(address to, string memory documentHash) public {... */\n        tag_3:\n          tag_6\n          0x04\n          dup1\n          calldatasize\n          sub\n          dup2\n          add\n          swap1\n          tag_7\n          swap2\n          swap1\n          tag_8\n          jump\t// in\n        tag_7:\n          tag_9\n          jump\t// in\n        tag_6:\n          stop\n            /* \"contracts/titledeeds.sol\":98:124  uint256 public nextTokenId */\n        tag_4:\n          tag_10\n          tag_11\n          jump\t// in\n        tag_10:\n          mload(0x40)\n          tag_12\n          swap2\n          swap1\n          tag_13\n          jump\t// in\n        tag_12:\n          mload(0x40)\n          dup1\n          swap2\n          sub\n          swap1\n          return\n            /* \"contracts/titledeeds.sol\":131:184  mapping(uint256 => string) public tokenDocumentHashes */\n        tag_5:\n          tag_14\n          0x04\n          dup1\n          calldatasize\n          sub\n          dup2\n          add\n          swap1\n          tag_15\n          swap2\n          swap1\n          tag_16\n          jump\t// in\n        tag_15:\n          tag_17\n          jump\t// in\n        tag_14:\n          mload(0x40)\n          tag_18\n          swap2\n          swap1\n          tag_19\n          jump\t// in\n        tag_18:\n          mload(0x40)\n          dup1\n          swap2\n          sub\n          swap1\n          return\n            /* \"contracts/titledeeds.sol\":358:650  function mintToken(address to, string memory documentHash) public {... */\n        tag_9:\n            /* \"contracts/titledeeds.sol\":435:450  uint256 tokenId */\n          0x00\n            /* \"contracts/titledeeds.sol\":453:464  nextTokenId */\n          dup1\n          sload\n            /* \"contracts/titledeeds.sol\":435:464  uint256 tokenId = nextTokenId */\n          swap1\n          pop\n            /* \"contracts/titledeeds.sol\":475:486  nextTokenId */\n          0x00\n          dup1\n            /* \"contracts/titledeeds.sol\":475:488  nextTokenId++ */\n          dup2\n          sload\n          dup1\n          swap3\n          swap2\n          swap1\n          tag_21\n          swap1\n          tag_22\n          jump\t// in\n        tag_21:\n          swap2\n          swap1\n          pop\n          sstore\n          pop\n            /* \"contracts/titledeeds.sol\":566:573  tokenId */\n          dup1\n            /* \"contracts/titledeeds.sol\":562:564  to */\n          dup4\n            /* \"contracts/titledeeds.sol\":550:588  TokenMinted(to, tokenId, documentHash) */\n          0xffffffffffffffffffffffffffffffffffffffff\n          and\n          0xdf92894dc4675a7333caa5903b69cf5d8e8ec0d3f361c88207b6688e525703bb\n            /* \"contracts/titledeeds.sol\":575:587  documentHash */\n          dup5\n            /* \"contracts/titledeeds.sol\":550:588  TokenMinted(to, tokenId, documentHash) */\n          mload(0x40)\n          tag_23\n          swap2\n          swap1\n          tag_19\n          jump\t// in\n        tag_23:\n          mload(0x40)\n          dup1\n          swap2\n          sub\n          swap1\n          log3\n            /* \"contracts/titledeeds.sol\":630:642  documentHash */\n          dup2\n            /* \"contracts/titledeeds.sol\":599:618  tokenDocumentHashes */\n          0x01\n            /* \"contracts/titledeeds.sol\":599:627  tokenDocumentHashes[tokenId] */\n          0x00\n            /* \"contracts/titledeeds.sol\":619:626  tokenId */\n          dup4\n            /* \"contracts/titledeeds.sol\":599:627  tokenDocumentHashes[tokenId] */\n          dup2\n          mstore\n          0x20\n          add\n          swap1\n          dup2\n          mstore\n          0x20\n          add\n          0x00\n          keccak256\n            /* \"contracts/titledeeds.sol\":599:642  tokenDocumentHashes[tokenId] = documentHash */\n          swap1\n          dup2\n          tag_24\n          swap2\n          swap1\n          tag_25\n          jump\t// in\n        tag_24:\n          pop\n            /* \"contracts/titledeeds.sol\":424:650  {... */\n          pop\n            /* \"contracts/titledeeds.sol\":358:650  function mintToken(address to, string memory documentHash) public {... */\n          pop\n          pop\n          jump\t// out\n            /* \"contracts/titledeeds.sol\":98:124  uint256 public nextTokenId */\n        tag_11:\n          sload(0x00)\n          dup2\n          jump\t// out\n            /* \"contracts/titledeeds.sol\":131:184  mapping(uint256 => string) public tokenDocumentHashes */\n        tag_17:\n          mstore(0x20, 0x01)\n          dup1\n          0x00\n          mstore\n          keccak256(0x00, 0x40)\n          0x00\n          swap2\n          pop\n          swap1\n          pop\n          dup1\n          sload\n          tag_26\n          swap1\n          tag_27\n          jump\t// in\n        tag_26:\n          dup1\n          0x1f\n          add\n          0x20\n          dup1\n          swap2\n          div\n          mul\n          0x20\n          add\n          mload(0x40)\n          swap1\n          dup2\n          add\n          0x40\n          mstore\n          dup1\n          swap3\n          swap2\n          swap1\n          dup2\n          dup2\n          mstore\n          0x20\n          add\n          dup3\n          dup1\n          sload\n          tag_28\n          swap1\n          tag_27\n          jump\t// in\n        tag_28:\n          dup1\n          iszero\n          tag_29\n          jumpi\n          dup1\n          0x1f\n          lt\n          tag_30\n          jumpi\n          0x0100\n          dup1\n          dup4\n          sload\n          div\n          mul\n          dup4\n          mstore\n          swap2\n          0x20\n          add\n          swap2\n          jump(tag_29)\n        tag_30:\n          dup3\n          add\n          swap2\n          swap1\n          0x00\n          mstore\n          keccak256(0x00, 0x20)\n          swap1\n        tag_31:\n          dup2\n          sload\n          dup2\n          mstore\n          swap1\n          0x01\n          add\n          swap1\n          0x20\n          add\n          dup1\n          dup4\n          gt\n          tag_31\n          jumpi\n          dup3\n          swap1\n          sub\n          0x1f\n          and\n          dup3\n          add\n          swap2\n        tag_29:\n          pop\n          pop\n          pop\n          pop\n          pop\n          dup2\n          jump\t// out\n            /* \"#utility.yul\":7:82   */\n        tag_32:\n            /* \"#utility.yul\":40:46   */\n          0x00\n            /* \"#utility.yul\":73:75   */\n          0x40\n            /* \"#utility.yul\":67:76   */\n          mload\n            /* \"#utility.yul\":57:76   */\n          swap1\n          pop\n            /* \"#utility.yul\":7:82   */\n          swap1\n          jump\t// out\n            /* \"#utility.yul\":88:205   */\n        tag_33:\n            /* \"#utility.yul\":197:198   */\n          0x00\n            /* \"#utility.yul\":194:195   */\n          dup1\n            /* \"#utility.yul\":187:199   */\n          revert\n            /* \"#utility.yul\":211:328   */\n        tag_34:\n            /* \"#utility.yul\":320:321   */\n          0x00\n            /* \"#utility.yul\":317:318   */\n          dup1\n            /* \"#utility.yul\":310:322   */\n          revert\n            /* \"#utility.yul\":334:460   */\n        tag_35:\n            /* \"#utility.yul\":371:378   */\n          0x00\n            /* \"#utility.yul\":411:453   */\n          0xffffffffffffffffffffffffffffffffffffffff\n            /* \"#utility.yul\":404:409   */\n          dup3\n            /* \"#utility.yul\":400:454   */\n          and\n            /* \"#utility.yul\":389:454   */\n          swap1\n          pop\n            /* \"#utility.yul\":334:460   */\n          swap2\n          swap1\n          pop\n          jump\t// out\n            /* \"#utility.yul\":466:562   */\n        tag_36:\n            /* \"#utility.yul\":503:510   */\n          0x00\n            /* \"#utility.yul\":532:556   */\n          tag_80\n            /* \"#utility.yul\":550:555   */\n          dup3\n            /* \"#utility.yul\":532:556   */\n          tag_35\n          jump\t// in\n        tag_80:\n            /* \"#utility.yul\":521:556   */\n          swap1\n          pop\n            /* \"#utility.yul\":466:562   */\n          swap2\n          swap1\n          pop\n          jump\t// out\n            /* \"#utility.yul\":568:690   */\n        tag_37:\n            /* \"#utility.yul\":641:665   */\n          tag_82\n            /* \"#utility.yul\":659:664   */\n          dup2\n            /* \"#utility.yul\":641:665   */\n          tag_36\n          jump\t// in\n        tag_82:\n            /* \"#utility.yul\":634:639   */\n          dup2\n            /* \"#utility.yul\":631:666   */\n          eq\n            /* \"#utility.yul\":621:684   */\n          tag_83\n          jumpi\n            /* \"#utility.yul\":680:681   */\n          0x00\n            /* \"#utility.yul\":677:678   */\n          dup1\n            /* \"#utility.yul\":670:682   */\n          revert\n            /* \"#utility.yul\":621:684   */\n        tag_83:\n            /* \"#utility.yul\":568:690   */\n          pop\n          jump\t// out\n            /* \"#utility.yul\":696:835   */\n        tag_38:\n            /* \"#utility.yul\":742:747   */\n          0x00\n            /* \"#utility.yul\":780:786   */\n          dup2\n            /* \"#utility.yul\":767:787   */\n          calldataload\n            /* \"#utility.yul\":758:787   */\n          swap1\n          pop\n            /* \"#utility.yul\":796:829   */\n          tag_85\n            /* \"#utility.yul\":823:828   */\n          dup2\n            /* \"#utility.yul\":796:829   */\n          tag_37\n          jump\t// in\n        tag_85:\n            /* \"#utility.yul\":696:835   */\n          swap3\n          swap2\n          pop\n          pop\n          jump\t// out\n            /* \"#utility.yul\":841:958   */\n        tag_39:\n            /* \"#utility.yul\":950:951   */\n          0x00\n            /* \"#utility.yul\":947:948   */\n          dup1\n            /* \"#utility.yul\":940:952   */\n          revert\n            /* \"#utility.yul\":964:1081   */\n        tag_40:\n            /* \"#utility.yul\":1073:1074   */\n          0x00\n            /* \"#utility.yul\":1070:1071   */\n          dup1\n            /* \"#utility.yul\":1063:1075   */\n          revert\n            /* \"#utility.yul\":1087:1189   */\n        tag_41:\n            /* \"#utility.yul\":1128:1134   */\n          0x00\n            /* \"#utility.yul\":1179:1181   */\n          0x1f\n            /* \"#utility.yul\":1175:1182   */\n          not\n            /* \"#utility.yul\":1170:1172   */\n          0x1f\n            /* \"#utility.yul\":1163:1168   */\n          dup4\n            /* \"#utility.yul\":1159:1173   */\n          add\n            /* \"#utility.yul\":1155:1183   */\n          and\n            /* \"#utility.yul\":1145:1183   */\n          swap1\n          pop\n            /* \"#utility.yul\":1087:1189   */\n          swap2\n          swap1\n          pop\n          jump\t// out\n            /* \"#utility.yul\":1195:1375   */\n        tag_42:\n            /* \"#utility.yul\":1243:1320   */\n          0x4e487b7100000000000000000000000000000000000000000000000000000000\n            /* \"#utility.yul\":1240:1241   */\n          0x00\n            /* \"#utility.yul\":1233:1321   */\n          mstore\n            /* \"#utility.yul\":1340:1344   */\n          0x41\n            /* \"#utility.yul\":1337:1338   */\n          0x04\n            /* \"#utility.yul\":1330:1345   */\n          mstore\n            /* \"#utility.yul\":1364:1368   */\n          0x24\n            /* \"#utility.yul\":1361:1362   */\n          0x00\n            /* \"#utility.yul\":1354:1369   */\n          revert\n            /* \"#utility.yul\":1381:1662   */\n        tag_43:\n            /* \"#utility.yul\":1464:1491   */\n          tag_91\n            /* \"#utility.yul\":1486:1490   */\n          dup3\n            /* \"#utility.yul\":1464:1491   */\n          tag_41\n          jump\t// in\n        tag_91:\n            /* \"#utility.yul\":1456:1462   */\n          dup2\n            /* \"#utility.yul\":1452:1492   */\n          add\n            /* \"#utility.yul\":1594:1600   */\n          dup2\n            /* \"#utility.yul\":1582:1592   */\n          dup2\n            /* \"#utility.yul\":1579:1601   */\n          lt\n            /* \"#utility.yul\":1558:1576   */\n          0xffffffffffffffff\n            /* \"#utility.yul\":1546:1556   */\n          dup3\n            /* \"#utility.yul\":1543:1577   */\n          gt\n            /* \"#utility.yul\":1540:1602   */\n          or\n            /* \"#utility.yul\":1537:1625   */\n          iszero\n          tag_92\n          jumpi\n            /* \"#utility.yul\":1605:1623   */\n          tag_93\n          tag_42\n          jump\t// in\n        tag_93:\n            /* \"#utility.yul\":1537:1625   */\n        tag_92:\n            /* \"#utility.yul\":1645:1655   */\n          dup1\n            /* \"#utility.yul\":1641:1643   */\n          0x40\n            /* \"#utility.yul\":1634:1656   */\n          mstore\n            /* \"#utility.yul\":1424:1662   */\n          pop\n            /* \"#utility.yul\":1381:1662   */\n          pop\n          pop\n          jump\t// out\n            /* \"#utility.yul\":1668:1797   */\n        tag_44:\n            /* \"#utility.yul\":1702:1708   */\n          0x00\n            /* \"#utility.yul\":1729:1749   */\n          tag_95\n          tag_32\n          jump\t// in\n        tag_95:\n            /* \"#utility.yul\":1719:1749   */\n          swap1\n          pop\n            /* \"#utility.yul\":1758:1791   */\n          tag_96\n            /* \"#utility.yul\":1786:1790   */\n          dup3\n            /* \"#utility.yul\":1778:1784   */\n          dup3\n            /* \"#utility.yul\":1758:1791   */\n          tag_43\n          jump\t// in\n        tag_96:\n            /* \"#utility.yul\":1668:1797   */\n          swap2\n          swap1\n          pop\n          jump\t// out\n            /* \"#utility.yul\":1803:2111   */\n        tag_45:\n            /* \"#utility.yul\":1865:1869   */\n          0x00\n            /* \"#utility.yul\":1955:1973   */\n          0xffffffffffffffff\n            /* \"#utility.yul\":1947:1953   */\n          dup3\n            /* \"#utility.yul\":1944:1974   */\n          gt\n            /* \"#utility.yul\":1941:1997   */\n          iszero\n          tag_98\n          jumpi\n            /* \"#utility.yul\":1977:1995   */\n          tag_99\n          tag_42\n          jump\t// in\n        tag_99:\n            /* \"#utility.yul\":1941:1997   */\n        tag_98:\n            /* \"#utility.yul\":2015:2044   */\n          tag_100\n            /* \"#utility.yul\":2037:2043   */\n          dup3\n            /* \"#utility.yul\":2015:2044   */\n          tag_41\n          jump\t// in\n        tag_100:\n            /* \"#utility.yul\":2007:2044   */\n          swap1\n          pop\n            /* \"#utility.yul\":2099:2103   */\n          0x20\n            /* \"#utility.yul\":2093:2097   */\n          dup2\n            /* \"#utility.yul\":2089:2104   */\n          add\n            /* \"#utility.yul\":2081:2104   */\n          swap1\n          pop\n            /* \"#utility.yul\":1803:2111   */\n          swap2\n          swap1\n          pop\n          jump\t// out\n            /* \"#utility.yul\":2117:2265   */\n        tag_46:\n            /* \"#utility.yul\":2215:2221   */\n          dup3\n            /* \"#utility.yul\":2210:2213   */\n          dup2\n            /* \"#utility.yul\":2205:2208   */\n          dup4\n            /* \"#utility.yul\":2192:2222   */\n          calldatacopy\n            /* \"#utility.yul\":2256:2257   */\n          0x00\n            /* \"#utility.yul\":2247:2253   */\n          dup4\n            /* \"#utility.yul\":2242:2245   */\n          dup4\n            /* \"#utility.yul\":2238:2254   */\n          add\n            /* \"#utility.yul\":2231:2258   */\n          mstore\n            /* \"#utility.yul\":2117:2265   */\n          pop\n          pop\n          pop\n          jump\t// out\n            /* \"#utility.yul\":2271:2696   */\n        tag_47:\n            /* \"#utility.yul\":2349:2354   */\n          0x00\n            /* \"#utility.yul\":2374:2440   */\n          tag_103\n            /* \"#utility.yul\":2390:2439   */\n          tag_104\n            /* \"#utility.yul\":2432:2438   */\n          dup5\n            /* \"#utility.yul\":2390:2439   */\n          tag_45\n          jump\t// in\n        tag_104:\n            /* \"#utility.yul\":2374:2440   */\n          tag_44\n          jump\t// in\n        tag_103:\n            /* \"#utility.yul\":2365:2440   */\n          swap1\n          pop\n            /* \"#utility.yul\":2463:2469   */\n          dup3\n            /* \"#utility.yul\":2456:2461   */\n          dup2\n            /* \"#utility.yul\":2449:2470   */\n          mstore\n            /* \"#utility.yul\":2501:2505   */\n          0x20\n            /* \"#utility.yul\":2494:2499   */\n          dup2\n            /* \"#utility.yul\":2490:2506   */\n          add\n            /* \"#utility.yul\":2539:2542   */\n          dup5\n            /* \"#utility.yul\":2530:2536   */\n          dup5\n            /* \"#utility.yul\":2525:2528   */\n          dup5\n            /* \"#utility.yul\":2521:2537   */\n          add\n            /* \"#utility.yul\":2518:2543   */\n          gt\n            /* \"#utility.yul\":2515:2627   */\n          iszero\n          tag_105\n          jumpi\n            /* \"#utility.yul\":2546:2625   */\n          tag_106\n          tag_40\n          jump\t// in\n        tag_106:\n            /* \"#utility.yul\":2515:2627   */\n        tag_105:\n            /* \"#utility.yul\":2636:2690   */\n          tag_107\n            /* \"#utility.yul\":2683:2689   */\n          dup5\n            /* \"#utility.yul\":2678:2681   */\n          dup3\n            /* \"#utility.yul\":2673:2676   */\n          dup6\n            /* \"#utility.yul\":2636:2690   */\n          tag_46\n          jump\t// in\n        tag_107:\n            /* \"#utility.yul\":2355:2696   */\n          pop\n            /* \"#utility.yul\":2271:2696   */\n          swap4\n          swap3\n          pop\n          pop\n          pop\n          jump\t// out\n            /* \"#utility.yul\":2716:3056   */\n        tag_48:\n            /* \"#utility.yul\":2772:2777   */\n          0x00\n            /* \"#utility.yul\":2821:2824   */\n          dup3\n            /* \"#utility.yul\":2814:2818   */\n          0x1f\n            /* \"#utility.yul\":2806:2812   */\n          dup4\n            /* \"#utility.yul\":2802:2819   */\n          add\n            /* \"#utility.yul\":2798:2825   */\n          slt\n            /* \"#utility.yul\":2788:2910   */\n          tag_109\n          jumpi\n            /* \"#utility.yul\":2829:2908   */\n          tag_110\n          tag_39\n          jump\t// in\n        tag_110:\n            /* \"#utility.yul\":2788:2910   */\n        tag_109:\n            /* \"#utility.yul\":2946:2952   */\n          dup2\n            /* \"#utility.yul\":2933:2953   */\n          calldataload\n            /* \"#utility.yul\":2971:3050   */\n          tag_111\n            /* \"#utility.yul\":3046:3049   */\n          dup5\n            /* \"#utility.yul\":3038:3044   */\n          dup3\n            /* \"#utility.yul\":3031:3035   */\n          0x20\n            /* \"#utility.yul\":3023:3029   */\n          dup7\n            /* \"#utility.yul\":3019:3036   */\n          add\n            /* \"#utility.yul\":2971:3050   */\n          tag_47\n          jump\t// in\n        tag_111:\n            /* \"#utility.yul\":2962:3050   */\n          swap2\n          pop\n            /* \"#utility.yul\":2778:3056   */\n          pop\n            /* \"#utility.yul\":2716:3056   */\n          swap3\n          swap2\n          pop\n          pop\n          jump\t// out\n            /* \"#utility.yul\":3062:3716   */\n        tag_8:\n            /* \"#utility.yul\":3140:3146   */\n          0x00\n            /* \"#utility.yul\":3148:3154   */\n          dup1\n            /* \"#utility.yul\":3197:3199   */\n          0x40\n            /* \"#utility.yul\":3185:3194   */\n          dup4\n            /* \"#utility.yul\":3176:3183   */\n          dup6\n            /* \"#utility.yul\":3172:3195   */\n          sub\n            /* \"#utility.yul\":3168:3200   */\n          slt\n            /* \"#utility.yul\":3165:3284   */\n          iszero\n          tag_113\n          jumpi\n            /* \"#utility.yul\":3203:3282   */\n          tag_114\n          tag_33\n          jump\t// in\n        tag_114:\n            /* \"#utility.yul\":3165:3284   */\n        tag_113:\n            /* \"#utility.yul\":3323:3324   */\n          0x00\n            /* \"#utility.yul\":3348:3401   */\n          tag_115\n            /* \"#utility.yul\":3393:3400   */\n          dup6\n            /* \"#utility.yul\":3384:3390   */\n          dup3\n            /* \"#utility.yul\":3373:3382   */\n          dup7\n            /* \"#utility.yul\":3369:3391   */\n          add\n            /* \"#utility.yul\":3348:3401   */\n          tag_38\n          jump\t// in\n        tag_115:\n            /* \"#utility.yul\":3338:3401   */\n          swap3\n          pop\n            /* \"#utility.yul\":3294:3411   */\n          pop\n            /* \"#utility.yul\":3478:3480   */\n          0x20\n            /* \"#utility.yul\":3467:3476   */\n          dup4\n            /* \"#utility.yul\":3463:3481   */\n          add\n            /* \"#utility.yul\":3450:3482   */\n          calldataload\n            /* \"#utility.yul\":3509:3527   */\n          0xffffffffffffffff\n            /* \"#utility.yul\":3501:3507   */\n          dup2\n            /* \"#utility.yul\":3498:3528   */\n          gt\n            /* \"#utility.yul\":3495:3612   */\n          iszero\n          tag_116\n          jumpi\n            /* \"#utility.yul\":3531:3610   */\n          tag_117\n          tag_34\n          jump\t// in\n        tag_117:\n            /* \"#utility.yul\":3495:3612   */\n        tag_116:\n            /* \"#utility.yul\":3636:3699   */\n          tag_118\n            /* \"#utility.yul\":3691:3698   */\n          dup6\n            /* \"#utility.yul\":3682:3688   */\n          dup3\n            /* \"#utility.yul\":3671:3680   */\n          dup7\n            /* \"#utility.yul\":3667:3689   */\n          add\n            /* \"#utility.yul\":3636:3699   */\n          tag_48\n          jump\t// in\n        tag_118:\n            /* \"#utility.yul\":3626:3699   */\n          swap2\n          pop\n            /* \"#utility.yul\":3421:3709   */\n          pop\n            /* \"#utility.yul\":3062:3716   */\n          swap3\n          pop\n          swap3\n          swap1\n          pop\n          jump\t// out\n            /* \"#utility.yul\":3722:3799   */\n        tag_49:\n            /* \"#utility.yul\":3759:3766   */\n          0x00\n            /* \"#utility.yul\":3788:3793   */\n          dup2\n            /* \"#utility.yul\":3777:3793   */\n          swap1\n          pop\n            /* \"#utility.yul\":3722:3799   */\n          swap2\n          swap1\n          pop\n          jump\t// out\n            /* \"#utility.yul\":3805:3923   */\n        tag_50:\n            /* \"#utility.yul\":3892:3916   */\n          tag_121\n            /* \"#utility.yul\":3910:3915   */\n          dup2\n            /* \"#utility.yul\":3892:3916   */\n          tag_49\n          jump\t// in\n        tag_121:\n            /* \"#utility.yul\":3887:3890   */\n          dup3\n            /* \"#utility.yul\":3880:3917   */\n          mstore\n            /* \"#utility.yul\":3805:3923   */\n          pop\n          pop\n          jump\t// out\n            /* \"#utility.yul\":3929:4151   */\n        tag_13:\n            /* \"#utility.yul\":4022:4026   */\n          0x00\n            /* \"#utility.yul\":4060:4062   */\n          0x20\n            /* \"#utility.yul\":4049:4058   */\n          dup3\n            /* \"#utility.yul\":4045:4063   */\n          add\n            /* \"#utility.yul\":4037:4063   */\n          swap1\n          pop\n            /* \"#utility.yul\":4073:4144   */\n          tag_123\n            /* \"#utility.yul\":4141:4142   */\n          0x00\n            /* \"#utility.yul\":4130:4139   */\n          dup4\n            /* \"#utility.yul\":4126:4143   */\n          add\n            /* \"#utility.yul\":4117:4123   */\n          dup5\n            /* \"#utility.yul\":4073:4144   */\n          tag_50\n          jump\t// in\n        tag_123:\n            /* \"#utility.yul\":3929:4151   */\n          swap3\n          swap2\n          pop\n          pop\n          jump\t// out\n            /* \"#utility.yul\":4157:4279   */\n        tag_51:\n            /* \"#utility.yul\":4230:4254   */\n          tag_125\n            /* \"#utility.yul\":4248:4253   */\n          dup2\n            /* \"#utility.yul\":4230:4254   */\n          tag_49\n          jump\t// in\n        tag_125:\n            /* \"#utility.yul\":4223:4228   */\n          dup2\n            /* \"#utility.yul\":4220:4255   */\n          eq\n            /* \"#utility.yul\":4210:4273   */\n          tag_126\n          jumpi\n            /* \"#utility.yul\":4269:4270   */\n          0x00\n            /* \"#utility.yul\":4266:4267   */\n          dup1\n            /* \"#utility.yul\":4259:4271   */\n          revert\n            /* \"#utility.yul\":4210:4273   */\n        tag_126:\n            /* \"#utility.yul\":4157:4279   */\n          pop\n          jump\t// out\n            /* \"#utility.yul\":4285:4424   */\n        tag_52:\n            /* \"#utility.yul\":4331:4336   */\n          0x00\n            /* \"#utility.yul\":4369:4375   */\n          dup2\n            /* \"#utility.yul\":4356:4376   */\n          calldataload\n            /* \"#utility.yul\":4347:4376   */\n          swap1\n          pop\n            /* \"#utility.yul\":4385:4418   */\n          tag_128\n            /* \"#utility.yul\":4412:4417   */\n          dup2\n            /* \"#utility.yul\":4385:4418   */\n          tag_51\n          jump\t// in\n        tag_128:\n            /* \"#utility.yul\":4285:4424   */\n          swap3\n          swap2\n          pop\n          pop\n          jump\t// out\n            /* \"#utility.yul\":4430:4759   */\n        tag_16:\n            /* \"#utility.yul\":4489:4495   */\n          0x00\n            /* \"#utility.yul\":4538:4540   */\n          0x20\n            /* \"#utility.yul\":4526:4535   */\n          dup3\n            /* \"#utility.yul\":4517:4524   */\n          dup5\n            /* \"#utility.yul\":4513:4536   */\n          sub\n            /* \"#utility.yul\":4509:4541   */\n          slt\n            /* \"#utility.yul\":4506:4625   */\n          iszero\n          tag_130\n          jumpi\n            /* \"#utility.yul\":4544:4623   */\n          tag_131\n          tag_33\n          jump\t// in\n        tag_131:\n            /* \"#utility.yul\":4506:4625   */\n        tag_130:\n            /* \"#utility.yul\":4664:4665   */\n          0x00\n            /* \"#utility.yul\":4689:4742   */\n          tag_132\n            /* \"#utility.yul\":4734:4741   */\n          dup5\n            /* \"#utility.yul\":4725:4731   */\n          dup3\n            /* \"#utility.yul\":4714:4723   */\n          dup6\n            /* \"#utility.yul\":4710:4732   */\n          add\n            /* \"#utility.yul\":4689:4742   */\n          tag_52\n          jump\t// in\n        tag_132:\n            /* \"#utility.yul\":4679:4742   */\n          swap2\n          pop\n            /* \"#utility.yul\":4635:4752   */\n          pop\n            /* \"#utility.yul\":4430:4759   */\n          swap3\n          swap2\n          pop\n          pop\n          jump\t// out\n            /* \"#utility.yul\":4765:4864   */\n        tag_53:\n            /* \"#utility.yul\":4817:4823   */\n          0x00\n            /* \"#utility.yul\":4851:4856   */\n          dup2\n            /* \"#utility.yul\":4845:4857   */\n          mload\n            /* \"#utility.yul\":4835:4857   */\n          swap1\n          pop\n            /* \"#utility.yul\":4765:4864   */\n          swap2\n          swap1\n          pop\n          jump\t// out\n            /* \"#utility.yul\":4870:5039   */\n        tag_54:\n            /* \"#utility.yul\":4954:4965   */\n          0x00\n            /* \"#utility.yul\":4988:4994   */\n          dup3\n            /* \"#utility.yul\":4983:4986   */\n          dup3\n            /* \"#utility.yul\":4976:4995   */\n          mstore\n            /* \"#utility.yul\":5028:5032   */\n          0x20\n            /* \"#utility.yul\":5023:5026   */\n          dup3\n            /* \"#utility.yul\":5019:5033   */\n          add\n            /* \"#utility.yul\":5004:5033   */\n          swap1\n          pop\n            /* \"#utility.yul\":4870:5039   */\n          swap3\n          swap2\n          pop\n          pop\n          jump\t// out\n            /* \"#utility.yul\":5045:5184   */\n        tag_55:\n            /* \"#utility.yul\":5134:5140   */\n          dup3\n            /* \"#utility.yul\":5129:5132   */\n          dup2\n            /* \"#utility.yul\":5124:5127   */\n          dup4\n            /* \"#utility.yul\":5118:5141   */\n          mcopy\n            /* \"#utility.yul\":5175:5176   */\n          0x00\n            /* \"#utility.yul\":5166:5172   */\n          dup4\n            /* \"#utility.yul\":5161:5164   */\n          dup4\n            /* \"#utility.yul\":5157:5173   */\n          add\n            /* \"#utility.yul\":5150:5177   */\n          mstore\n            /* \"#utility.yul\":5045:5184   */\n          pop\n          pop\n          pop\n          jump\t// out\n            /* \"#utility.yul\":5190:5567   */\n        tag_56:\n            /* \"#utility.yul\":5278:5281   */\n          0x00\n            /* \"#utility.yul\":5306:5345   */\n          tag_137\n            /* \"#utility.yul\":5339:5344   */\n          dup3\n            /* \"#utility.yul\":5306:5345   */\n          tag_53\n          jump\t// in\n        tag_137:\n            /* \"#utility.yul\":5361:5432   */\n          tag_138\n            /* \"#utility.yul\":5425:5431   */\n          dup2\n            /* \"#utility.yul\":5420:5423   */\n          dup6\n            /* \"#utility.yul\":5361:5432   */\n          tag_54\n          jump\t// in\n        tag_138:\n            /* \"#utility.yul\":5354:5432   */\n          swap4\n          pop\n            /* \"#utility.yul\":5441:5506   */\n          tag_139\n            /* \"#utility.yul\":5499:5505   */\n          dup2\n            /* \"#utility.yul\":5494:5497   */\n          dup6\n            /* \"#utility.yul\":5487:5491   */\n          0x20\n            /* \"#utility.yul\":5480:5485   */\n          dup7\n            /* \"#utility.yul\":5476:5492   */\n          add\n            /* \"#utility.yul\":5441:5506   */\n          tag_55\n          jump\t// in\n        tag_139:\n            /* \"#utility.yul\":5531:5560   */\n          tag_140\n            /* \"#utility.yul\":5553:5559   */\n          dup2\n            /* \"#utility.yul\":5531:5560   */\n          tag_41\n          jump\t// in\n        tag_140:\n            /* \"#utility.yul\":5526:5529   */\n          dup5\n            /* \"#utility.yul\":5522:5561   */\n          add\n            /* \"#utility.yul\":5515:5561   */\n          swap2\n          pop\n            /* \"#utility.yul\":5282:5567   */\n          pop\n            /* \"#utility.yul\":5190:5567   */\n          swap3\n          swap2\n          pop\n          pop\n          jump\t// out\n            /* \"#utility.yul\":5573:5886   */\n        tag_19:\n            /* \"#utility.yul\":5686:5690   */\n          0x00\n            /* \"#utility.yul\":5724:5726   */\n          0x20\n            /* \"#utility.yul\":5713:5722   */\n          dup3\n            /* \"#utility.yul\":5709:5727   */\n          add\n            /* \"#utility.yul\":5701:5727   */\n          swap1\n          pop\n            /* \"#utility.yul\":5773:5782   */\n          dup2\n            /* \"#utility.yul\":5767:5771   */\n          dup2\n            /* \"#utility.yul\":5763:5783   */\n          sub\n            /* \"#utility.yul\":5759:5760   */\n          0x00\n            /* \"#utility.yul\":5748:5757   */\n          dup4\n            /* \"#utility.yul\":5744:5761   */\n          add\n            /* \"#utility.yul\":5737:5784   */\n          mstore\n            /* \"#utility.yul\":5801:5879   */\n          tag_142\n            /* \"#utility.yul\":5874:5878   */\n          dup2\n            /* \"#utility.yul\":5865:5871   */\n          dup5\n            /* \"#utility.yul\":5801:5879   */\n          tag_56\n          jump\t// in\n        tag_142:\n            /* \"#utility.yul\":5793:5879   */\n          swap1\n          pop\n            /* \"#utility.yul\":5573:5886   */\n          swap3\n          swap2\n          pop\n          pop\n          jump\t// out\n            /* \"#utility.yul\":5892:6072   */\n        tag_57:\n            /* \"#utility.yul\":5940:6017   */\n          0x4e487b7100000000000000000000000000000000000000000000000000000000\n            /* \"#utility.yul\":5937:5938   */\n          0x00\n            /* \"#utility.yul\":5930:6018   */\n          mstore\n            /* \"#utility.yul\":6037:6041   */\n          0x11\n            /* \"#utility.yul\":6034:6035   */\n          0x04\n            /* \"#utility.yul\":6027:6042   */\n          mstore\n            /* \"#utility.yul\":6061:6065   */\n          0x24\n            /* \"#utility.yul\":6058:6059   */\n          0x00\n            /* \"#utility.yul\":6051:6066   */\n          revert\n            /* \"#utility.yul\":6078:6311   */\n        tag_22:\n            /* \"#utility.yul\":6117:6120   */\n          0x00\n            /* \"#utility.yul\":6140:6164   */\n          tag_145\n            /* \"#utility.yul\":6158:6163   */\n          dup3\n            /* \"#utility.yul\":6140:6164   */\n          tag_49\n          jump\t// in\n        tag_145:\n            /* \"#utility.yul\":6131:6164   */\n          swap2\n          pop\n            /* \"#utility.yul\":6186:6252   */\n          0xffffffffffffffffffffffffffffffffffffffffffffffffffffffffffffffff\n            /* \"#utility.yul\":6179:6184   */\n          dup3\n            /* \"#utility.yul\":6176:6253   */\n          sub\n            /* \"#utility.yul\":6173:6276   */\n          tag_146\n          jumpi\n            /* \"#utility.yul\":6256:6274   */\n          tag_147\n          tag_57\n          jump\t// in\n        tag_147:\n            /* \"#utility.yul\":6173:6276   */\n        tag_146:\n            /* \"#utility.yul\":6303:6304   */\n          0x01\n            /* \"#utility.yul\":6296:6301   */\n          dup3\n            /* \"#utility.yul\":6292:6305   */\n          add\n            /* \"#utility.yul\":6285:6305   */\n          swap1\n          pop\n            /* \"#utility.yul\":6078:6311   */\n          swap2\n          swap1\n          pop\n          jump\t// out\n            /* \"#utility.yul\":6317:6497   */\n        tag_58:\n            /* \"#utility.yul\":6365:6442   */\n          0x4e487b7100000000000000000000000000000000000000000000000000000000\n            /* \"#utility.yul\":6362:6363   */\n          0x00\n            /* \"#utility.yul\":6355:6443   */\n          mstore\n            /* \"#utility.yul\":6462:6466   */\n          0x22\n            /* \"#utility.yul\":6459:6460   */\n          0x04\n            /* \"#utility.yul\":6452:6467   */\n          mstore\n            /* \"#utility.yul\":6486:6490   */\n          0x24\n            /* \"#utility.yul\":6483:6484   */\n          0x00\n            /* \"#utility.yul\":6476:6491   */\n          revert\n            /* \"#utility.yul\":6503:6823   */\n        tag_27:\n            /* \"#utility.yul\":6547:6553   */\n          0x00\n            /* \"#utility.yul\":6584:6585   */\n          0x02\n            /* \"#utility.yul\":6578:6582   */\n          dup3\n            /* \"#utility.yul\":6574:6586   */\n          div\n            /* \"#utility.yul\":6564:6586   */\n          swap1\n          pop\n            /* \"#utility.yul\":6631:6632   */\n          0x01\n            /* \"#utility.yul\":6625:6629   */\n          dup3\n            /* \"#utility.yul\":6621:6633   */\n          and\n            /* \"#utility.yul\":6652:6670   */\n          dup1\n            /* \"#utility.yul\":6642:6723   */\n          tag_150\n          jumpi\n            /* \"#utility.yul\":6708:6712   */\n          0x7f\n            /* \"#utility.yul\":6700:6706   */\n          dup3\n            /* \"#utility.yul\":6696:6713   */\n          and\n            /* \"#utility.yul\":6686:6713   */\n          swap2\n          pop\n            /* \"#utility.yul\":6642:6723   */\n        tag_150:\n            /* \"#utility.yul\":6770:6772   */\n          0x20\n            /* \"#utility.yul\":6762:6768   */\n          dup3\n            /* \"#utility.yul\":6759:6773   */\n          lt\n            /* \"#utility.yul\":6739:6757   */\n          dup2\n            /* \"#utility.yul\":6736:6774   */\n          sub\n            /* \"#utility.yul\":6733:6817   */\n          tag_151\n          jumpi\n            /* \"#utility.yul\":6789:6807   */\n          tag_152\n          tag_58\n          jump\t// in\n        tag_152:\n            /* \"#utility.yul\":6733:6817   */\n        tag_151:\n            /* \"#utility.yul\":6554:6823   */\n          pop\n            /* \"#utility.yul\":6503:6823   */\n          swap2\n          swap1\n          pop\n          jump\t// out\n            /* \"#utility.yul\":6829:6970   */\n        tag_59:\n            /* \"#utility.yul\":6878:6882   */\n          0x00\n            /* \"#utility.yul\":6901:6904   */\n          dup2\n            /* \"#utility.yul\":6893:6904   */\n          swap1\n          pop\n            /* \"#utility.yul\":6924:6927   */\n          dup2\n            /* \"#utility.yul\":6921:6922   */\n          0x00\n            /* \"#utility.yul\":6914:6928   */\n          mstore\n            /* \"#utility.yul\":6958:6962   */\n          0x20\n            /* \"#utility.yul\":6955:6956   */\n          0x00\n            /* \"#utility.yul\":6945:6963   */\n          keccak256\n            /* \"#utility.yul\":6937:6963   */\n          swap1\n          pop\n            /* \"#utility.yul\":6829:6970   */\n          swap2\n          swap1\n          pop\n          jump\t// out\n            /* \"#utility.yul\":6976:7069   */\n        tag_60:\n            /* \"#utility.yul\":7013:7019   */\n          0x00\n            /* \"#utility.yul\":7060:7062   */\n          0x20\n            /* \"#utility.yul\":7055:7057   */\n          0x1f\n            /* \"#utility.yul\":7048:7053   */\n          dup4\n            /* \"#utility.yul\":7044:7058   */\n          add\n            /* \"#utility.yul\":7040:7063   */\n          div\n            /* \"#utility.yul\":7030:7063   */\n          swap1\n          pop\n            /* \"#utility.yul\":6976:7069   */\n          swap2\n          swap1\n          pop\n          jump\t// out\n            /* \"#utility.yul\":7075:7182   */\n        tag_61:\n            /* \"#utility.yul\":7119:7127   */\n          0x00\n            /* \"#utility.yul\":7169:7174   */\n          dup3\n            /* \"#utility.yul\":7163:7167   */\n          dup3\n            /* \"#utility.yul\":7159:7175   */\n          shl\n            /* \"#utility.yul\":7138:7175   */\n          swap1\n          pop\n            /* \"#utility.yul\":7075:7182   */\n          swap3\n          swap2\n          pop\n          pop\n          jump\t// out\n            /* \"#utility.yul\":7188:7581   */\n        tag_62:\n            /* \"#utility.yul\":7257:7263   */\n          0x00\n            /* \"#utility.yul\":7307:7308   */\n          0x08\n            /* \"#utility.yul\":7295:7305   */\n          dup4\n            /* \"#utility.yul\":7291:7309   */\n          mul\n            /* \"#utility.yul\":7330:7427   */\n          tag_157\n            /* \"#utility.yul\":7360:7426   */\n          0xffffffffffffffffffffffffffffffffffffffffffffffffffffffffffffffff\n            /* \"#utility.yul\":7349:7358   */\n          dup3\n            /* \"#utility.yul\":7330:7427   */\n          tag_61\n          jump\t// in\n        tag_157:\n            /* \"#utility.yul\":7448:7487   */\n          tag_158\n            /* \"#utility.yul\":7478:7486   */\n          dup7\n            /* \"#utility.yul\":7467:7476   */\n          dup4\n            /* \"#utility.yul\":7448:7487   */\n          tag_61\n          jump\t// in\n        tag_158:\n            /* \"#utility.yul\":7436:7487   */\n          swap6\n          pop\n            /* \"#utility.yul\":7520:7524   */\n          dup1\n            /* \"#utility.yul\":7516:7525   */\n          not\n            /* \"#utility.yul\":7509:7514   */\n          dup5\n            /* \"#utility.yul\":7505:7526   */\n          and\n            /* \"#utility.yul\":7496:7526   */\n          swap4\n          pop\n            /* \"#utility.yul\":7569:7573   */\n          dup1\n            /* \"#utility.yul\":7559:7567   */\n          dup7\n            /* \"#utility.yul\":7555:7574   */\n          and\n            /* \"#utility.yul\":7548:7553   */\n          dup5\n            /* \"#utility.yul\":7545:7575   */\n          or\n            /* \"#utility.yul\":7535:7575   */\n          swap3\n          pop\n            /* \"#utility.yul\":7264:7581   */\n          pop\n          pop\n            /* \"#utility.yul\":7188:7581   */\n          swap4\n          swap3\n          pop\n          pop\n          pop\n          jump\t// out\n            /* \"#utility.yul\":7587:7647   */\n        tag_63:\n            /* \"#utility.yul\":7615:7618   */\n          0x00\n            /* \"#utility.yul\":7636:7641   */\n          dup2\n            /* \"#utility.yul\":7629:7641   */\n          swap1\n          pop\n            /* \"#utility.yul\":7587:7647   */\n          swap2\n          swap1\n          pop\n          jump\t// out\n            /* \"#utility.yul\":7653:7795   */\n        tag_64:\n            /* \"#utility.yul\":7703:7712   */\n          0x00\n            /* \"#utility.yul\":7736:7789   */\n          tag_161\n            /* \"#utility.yul\":7754:7788   */\n          tag_162\n            /* \"#utility.yul\":7763:7787   */\n          tag_163\n            /* \"#utility.yul\":7781:7786   */\n          dup5\n            /* \"#utility.yul\":7763:7787   */\n          tag_49\n          jump\t// in\n        tag_163:\n            /* \"#utility.yul\":7754:7788   */\n          tag_63\n          jump\t// in\n        tag_162:\n            /* \"#utility.yul\":7736:7789   */\n          tag_49\n          jump\t// in\n        tag_161:\n            /* \"#utility.yul\":7723:7789   */\n          swap1\n          pop\n            /* \"#utility.yul\":7653:7795   */\n          swap2\n          swap1\n          pop\n          jump\t// out\n            /* \"#utility.yul\":7801:7876   */\n        tag_65:\n            /* \"#utility.yul\":7844:7847   */\n          0x00\n            /* \"#utility.yul\":7865:7870   */\n          dup2\n            /* \"#utility.yul\":7858:7870   */\n          swap1\n          pop\n            /* \"#utility.yul\":7801:7876   */\n          swap2\n          swap1\n          pop\n          jump\t// out\n            /* \"#utility.yul\":7882:8151   */\n        tag_66:\n            /* \"#utility.yul\":7992:8031   */\n          tag_166\n            /* \"#utility.yul\":8023:8030   */\n          dup4\n            /* \"#utility.yul\":7992:8031   */\n          tag_64\n          jump\t// in\n        tag_166:\n            /* \"#utility.yul\":8053:8144   */\n          tag_167\n            /* \"#utility.yul\":8102:8143   */\n          tag_168\n            /* \"#utility.yul\":8126:8142   */\n          dup3\n            /* \"#utility.yul\":8102:8143   */\n          tag_65\n          jump\t// in\n        tag_168:\n            /* \"#utility.yul\":8094:8100   */\n          dup5\n            /* \"#utility.yul\":8087:8091   */\n          dup5\n            /* \"#utility.yul\":8081:8092   */\n          sload\n            /* \"#utility.yul\":8053:8144   */\n          tag_62\n          jump\t// in\n        tag_167:\n            /* \"#utility.yul\":8047:8051   */\n          dup3\n            /* \"#utility.yul\":8040:8145   */\n          sstore\n            /* \"#utility.yul\":7958:8151   */\n          pop\n            /* \"#utility.yul\":7882:8151   */\n          pop\n          pop\n          pop\n          jump\t// out\n            /* \"#utility.yul\":8157:8230   */\n        tag_67:\n            /* \"#utility.yul\":8202:8205   */\n          0x00\n            /* \"#utility.yul\":8157:8230   */\n          swap1\n          jump\t// out\n            /* \"#utility.yul\":8236:8425   */\n        tag_68:\n            /* \"#utility.yul\":8313:8345   */\n          tag_171\n          tag_67\n          jump\t// in\n        tag_171:\n            /* \"#utility.yul\":8354:8419   */\n          tag_172\n            /* \"#utility.yul\":8412:8418   */\n          dup2\n            /* \"#utility.yul\":8404:8410   */\n          dup5\n            /* \"#utility.yul\":8398:8402   */\n          dup5\n            /* \"#utility.yul\":8354:8419   */\n          tag_66\n          jump\t// in\n        tag_172:\n            /* \"#utility.yul\":8289:8425   */\n          pop\n            /* \"#utility.yul\":8236:8425   */\n          pop\n          pop\n          jump\t// out\n            /* \"#utility.yul\":8431:8617   */\n        tag_69:\n            /* \"#utility.yul\":8491:8611   */\n        tag_174:\n            /* \"#utility.yul\":8508:8511   */\n          dup2\n            /* \"#utility.yul\":8501:8506   */\n          dup2\n            /* \"#utility.yul\":8498:8512   */\n          lt\n            /* \"#utility.yul\":8491:8611   */\n          iszero\n          tag_176\n          jumpi\n            /* \"#utility.yul\":8562:8601   */\n          tag_177\n            /* \"#utility.yul\":8599:8600   */\n          0x00\n            /* \"#utility.yul\":8592:8597   */\n          dup3\n            /* \"#utility.yul\":8562:8601   */\n          tag_68\n          jump\t// in\n        tag_177:\n            /* \"#utility.yul\":8535:8536   */\n          0x01\n            /* \"#utility.yul\":8528:8533   */\n          dup2\n            /* \"#utility.yul\":8524:8537   */\n          add\n            /* \"#utility.yul\":8515:8537   */\n          swap1\n          pop\n            /* \"#utility.yul\":8491:8611   */\n          jump(tag_174)\n        tag_176:\n            /* \"#utility.yul\":8431:8617   */\n          pop\n          pop\n          jump\t// out\n            /* \"#utility.yul\":8623:9166   */\n        tag_70:\n            /* \"#utility.yul\":8724:8726   */\n          0x1f\n            /* \"#utility.yul\":8719:8722   */\n          dup3\n            /* \"#utility.yul\":8716:8727   */\n          gt\n            /* \"#utility.yul\":8713:9159   */\n          iszero\n          tag_179\n          jumpi\n            /* \"#utility.yul\":8758:8796   */\n          tag_180\n            /* \"#utility.yul\":8790:8795   */\n          dup2\n            /* \"#utility.yul\":8758:8796   */\n          tag_59\n          jump\t// in\n        tag_180:\n            /* \"#utility.yul\":8842:8871   */\n          tag_181\n            /* \"#utility.yul\":8860:8870   */\n          dup5\n            /* \"#utility.yul\":8842:8871   */\n          tag_60\n          jump\t// in\n        tag_181:\n            /* \"#utility.yul\":8832:8840   */\n          dup2\n            /* \"#utility.yul\":8828:8872   */\n          add\n            /* \"#utility.yul\":9025:9027   */\n          0x20\n            /* \"#utility.yul\":9013:9023   */\n          dup6\n            /* \"#utility.yul\":9010:9028   */\n          lt\n            /* \"#utility.yul\":9007:9056   */\n          iszero\n          tag_182\n          jumpi\n            /* \"#utility.yul\":9046:9054   */\n          dup2\n            /* \"#utility.yul\":9031:9054   */\n          swap1\n          pop\n            /* \"#utility.yul\":9007:9056   */\n        tag_182:\n            /* \"#utility.yul\":9069:9149   */\n          tag_183\n            /* \"#utility.yul\":9125:9147   */\n          tag_184\n            /* \"#utility.yul\":9143:9146   */\n          dup6\n            /* \"#utility.yul\":9125:9147   */\n          tag_60\n          jump\t// in\n        tag_184:\n            /* \"#utility.yul\":9115:9123   */\n          dup4\n            /* \"#utility.yul\":9111:9148   */\n          add\n            /* \"#utility.yul\":9098:9109   */\n          dup3\n            /* \"#utility.yul\":9069:9149   */\n          tag_69\n          jump\t// in\n        tag_183:\n            /* \"#utility.yul\":8728:9159   */\n          pop\n          pop\n            /* \"#utility.yul\":8713:9159   */\n        tag_179:\n            /* \"#utility.yul\":8623:9166   */\n          pop\n          pop\n          pop\n          jump\t// out\n            /* \"#utility.yul\":9172:9289   */\n        tag_71:\n            /* \"#utility.yul\":9226:9234   */\n          0x00\n            /* \"#utility.yul\":9276:9281   */\n          dup3\n            /* \"#utility.yul\":9270:9274   */\n          dup3\n            /* \"#utility.yul\":9266:9282   */\n          shr\n            /* \"#utility.yul\":9245:9282   */\n          swap1\n          pop\n            /* \"#utility.yul\":9172:9289   */\n          swap3\n          swap2\n          pop\n          pop\n          jump\t// out\n            /* \"#utility.yul\":9295:9464   */\n        tag_72:\n            /* \"#utility.yul\":9339:9345   */\n          0x00\n            /* \"#utility.yul\":9372:9423   */\n          tag_187\n            /* \"#utility.yul\":9420:9421   */\n          0x00\n            /* \"#utility.yul\":9416:9422   */\n          not\n            /* \"#utility.yul\":9408:9413   */\n          dup5\n            /* \"#utility.yul\":9405:9406   */\n          0x08\n            /* \"#utility.yul\":9401:9414   */\n          mul\n            /* \"#utility.yul\":9372:9423   */\n          tag_71\n          jump\t// in\n        tag_187:\n            /* \"#utility.yul\":9368:9424   */\n          not\n            /* \"#utility.yul\":9453:9457   */\n          dup1\n            /* \"#utility.yul\":9447:9451   */\n          dup4\n            /* \"#utility.yul\":9443:9458   */\n          and\n            /* \"#utility.yul\":9433:9458   */\n          swap2\n          pop\n            /* \"#utility.yul\":9346:9464   */\n          pop\n            /* \"#utility.yul\":9295:9464   */\n          swap3\n          swap2\n          pop\n          pop\n          jump\t// out\n            /* \"#utility.yul\":9469:9764   */\n        tag_73:\n            /* \"#utility.yul\":9545:9549   */\n          0x00\n            /* \"#utility.yul\":9691:9720   */\n          tag_189\n            /* \"#utility.yul\":9716:9719   */\n          dup4\n            /* \"#utility.yul\":9710:9714   */\n          dup4\n            /* \"#utility.yul\":9691:9720   */\n          tag_72\n          jump\t// in\n        tag_189:\n            /* \"#utility.yul\":9683:9720   */\n          swap2\n          pop\n            /* \"#utility.yul\":9753:9756   */\n          dup3\n            /* \"#utility.yul\":9750:9751   */\n          0x02\n            /* \"#utility.yul\":9746:9757   */\n          mul\n            /* \"#utility.yul\":9740:9744   */\n          dup3\n            /* \"#utility.yul\":9737:9758   */\n          or\n            /* \"#utility.yul\":9729:9758   */\n          swap1\n          pop\n            /* \"#utility.yul\":9469:9764   */\n          swap3\n          swap2\n          pop\n          pop\n          jump\t// out\n            /* \"#utility.yul\":9769:11164   */\n        tag_25:\n            /* \"#utility.yul\":9886:9923   */\n          tag_191\n            /* \"#utility.yul\":9919:9922   */\n          dup3\n            /* \"#utility.yul\":9886:9923   */\n          tag_53\n          jump\t// in\n        tag_191:\n            /* \"#utility.yul\":9988:10006   */\n          0xffffffffffffffff\n            /* \"#utility.yul\":9980:9986   */\n          dup2\n            /* \"#utility.yul\":9977:10007   */\n          gt\n            /* \"#utility.yul\":9974:10030   */\n          iszero\n          tag_192\n          jumpi\n            /* \"#utility.yul\":10010:10028   */\n          tag_193\n          tag_42\n          jump\t// in\n        tag_193:\n            /* \"#utility.yul\":9974:10030   */\n        tag_192:\n            /* \"#utility.yul\":10054:10092   */\n          tag_194\n            /* \"#utility.yul\":10086:10090   */\n          dup3\n            /* \"#utility.yul\":10080:10091   */\n          sload\n            /* \"#utility.yul\":10054:10092   */\n          tag_27\n          jump\t// in\n        tag_194:\n            /* \"#utility.yul\":10139:10206   */\n          tag_195\n            /* \"#utility.yul\":10199:10205   */\n          dup3\n            /* \"#utility.yul\":10191:10197   */\n          dup3\n            /* \"#utility.yul\":10185:10189   */\n          dup6\n            /* \"#utility.yul\":10139:10206   */\n          tag_70\n          jump\t// in\n        tag_195:\n            /* \"#utility.yul\":10233:10234   */\n          0x00\n            /* \"#utility.yul\":10257:10261   */\n          0x20\n            /* \"#utility.yul\":10244:10261   */\n          swap1\n          pop\n            /* \"#utility.yul\":10289:10291   */\n          0x1f\n            /* \"#utility.yul\":10281:10287   */\n          dup4\n            /* \"#utility.yul\":10278:10292   */\n          gt\n            /* \"#utility.yul\":10306:10307   */\n          0x01\n            /* \"#utility.yul\":10301:10919   */\n          dup2\n          eq\n          tag_197\n          jumpi\n            /* \"#utility.yul\":10963:10964   */\n          0x00\n            /* \"#utility.yul\":10980:10986   */\n          dup5\n            /* \"#utility.yul\":10977:11054   */\n          iszero\n          tag_198\n          jumpi\n            /* \"#utility.yul\":11029:11038   */\n          dup3\n            /* \"#utility.yul\":11024:11027   */\n          dup8\n            /* \"#utility.yul\":11020:11039   */\n          add\n            /* \"#utility.yul\":11014:11040   */\n          mload\n            /* \"#utility.yul\":11005:11040   */\n          swap1\n          pop\n            /* \"#utility.yul\":10977:11054   */\n        tag_198:\n            /* \"#utility.yul\":11080:11147   */\n          tag_199\n            /* \"#utility.yul\":11140:11146   */\n          dup6\n            /* \"#utility.yul\":11133:11138   */\n          dup3\n            /* \"#utility.yul\":11080:11147   */\n          tag_73\n          jump\t// in\n        tag_199:\n            /* \"#utility.yul\":11074:11078   */\n          dup7\n            /* \"#utility.yul\":11067:11148   */\n          sstore\n            /* \"#utility.yul\":10936:11158   */\n          pop\n            /* \"#utility.yul\":10271:11158   */\n          jump(tag_196)\n            /* \"#utility.yul\":10301:10919   */\n        tag_197:\n            /* \"#utility.yul\":10353:10357   */\n          0x1f\n            /* \"#utility.yul\":10349:10358   */\n          not\n            /* \"#utility.yul\":10341:10347   */\n          dup5\n            /* \"#utility.yul\":10337:10359   */\n          and\n            /* \"#utility.yul\":10387:10424   */\n          tag_200\n            /* \"#utility.yul\":10419:10423   */\n          dup7\n            /* \"#utility.yul\":10387:10424   */\n          tag_59\n          jump\t// in\n        tag_200:\n            /* \"#utility.yul\":10446:10447   */\n          0x00\n            /* \"#utility.yul\":10460:10668   */\n        tag_201:\n            /* \"#utility.yul\":10474:10481   */\n          dup3\n            /* \"#utility.yul\":10471:10472   */\n          dup2\n            /* \"#utility.yul\":10468:10482   */\n          lt\n            /* \"#utility.yul\":10460:10668   */\n          iszero\n          tag_203\n          jumpi\n            /* \"#utility.yul\":10553:10562   */\n          dup5\n            /* \"#utility.yul\":10548:10551   */\n          dup10\n            /* \"#utility.yul\":10544:10563   */\n          add\n            /* \"#utility.yul\":10538:10564   */\n          mload\n            /* \"#utility.yul\":10530:10536   */\n          dup3\n            /* \"#utility.yul\":10523:10565   */\n          sstore\n            /* \"#utility.yul\":10604:10605   */\n          0x01\n            /* \"#utility.yul\":10596:10602   */\n          dup3\n            /* \"#utility.yul\":10592:10606   */\n          add\n            /* \"#utility.yul\":10582:10606   */\n          swap2\n          pop\n            /* \"#utility.yul\":10651:10653   */\n          0x20\n            /* \"#utility.yul\":10640:10649   */\n          dup6\n            /* \"#utility.yul\":10636:10654   */\n          add\n            /* \"#utility.yul\":10623:10654   */\n          swap5\n          pop\n            /* \"#utility.yul\":10497:10501   */\n          0x20\n            /* \"#utility.yul\":10494:10495   */\n          dup2\n            /* \"#utility.yul\":10490:10502   */\n          add\n            /* \"#utility.yul\":10485:10502   */\n          swap1\n          pop\n            /* \"#utility.yul\":10460:10668   */\n          jump(tag_201)\n        tag_203:\n            /* \"#utility.yul\":10696:10702   */\n          dup7\n            /* \"#utility.yul\":10687:10694   */\n          dup4\n            /* \"#utility.yul\":10684:10703   */\n          lt\n            /* \"#utility.yul\":10681:10860   */\n          iszero\n          tag_204\n          jumpi\n            /* \"#utility.yul\":10754:10763   */\n          dup5\n            /* \"#utility.yul\":10749:10752   */\n          dup10\n            /* \"#utility.yul\":10745:10764   */\n          add\n            /* \"#utility.yul\":10739:10765   */\n          mload\n            /* \"#utility.yul\":10797:10845   */\n          tag_205\n            /* \"#utility.yul\":10839:10843   */\n          0x1f\n            /* \"#utility.yul\":10831:10837   */\n          dup10\n            /* \"#utility.yul\":10827:10844   */\n          and\n            /* \"#utility.yul\":10816:10825   */\n          dup3\n            /* \"#utility.yul\":10797:10845   */\n          tag_72\n          jump\t// in\n        tag_205:\n            /* \"#utility.yul\":10789:10795   */\n          dup4\n            /* \"#utility.yul\":10782:10846   */\n          sstore\n            /* \"#utility.yul\":10704:10860   */\n          pop\n            /* \"#utility.yul\":10681:10860   */\n        tag_204:\n            /* \"#utility.yul\":10906:10907   */\n          0x01\n            /* \"#utility.yul\":10902:10903   */\n          0x02\n            /* \"#utility.yul\":10894:10900   */\n          dup9\n            /* \"#utility.yul\":10890:10904   */\n          mul\n            /* \"#utility.yul\":10886:10908   */\n          add\n            /* \"#utility.yul\":10880:10884   */\n          dup9\n            /* \"#utility.yul\":10873:10909   */\n          sstore\n            /* \"#utility.yul\":10308:10919   */\n          pop\n          pop\n          pop\n            /* \"#utility.yul\":10271:11158   */\n        tag_196:\n          pop\n            /* \"#utility.yul\":9861:11164   */\n          pop\n          pop\n          pop\n            /* \"#utility.yul\":9769:11164   */\n          pop\n          pop\n          jump\t// out\n\n        auxdata: 0xa2646970667358221220ceace13ec9bd73c08aa4e05663e893359790e71fdb801df53770b19a623826fe64736f6c634300081a0033\n    }\n}\n",
				"bytecode": {
					"linkReferences": {},
					"object": "6080604052348015600e575f80fd5b503360015f6101000a81548173ffffffffffffffffffffffffffffffffffffffff021916908373ffffffffffffffffffffffffffffffffffffffff16021790555060405160599060b5565b604051809103905ff0801580156071573d5f803e3d5ffd5b5060025f6101000a81548173ffffffffffffffffffffffffffffffffffffffff021916908373ffffffffffffffffffffffffffffffffffffffff16021790555060c2565b6108718061143983390190565b61136a806100cf5f395ff3fe608060405234801561000f575f80fd5b5060043610610060575f3560e01c80630b8d438c146100645780632672f5261461009857806340491cca146100b657806349f3ef0b146100d4578063a79a6cc3146100f0578063fe0cb7dc1461010c575b5f80fd5b61007e60048036038101906100799190610a49565b610140565b60405161008f959493929190610b4c565b60405180910390f35b6100a06102a8565b6040516100ad9190610bab565b60405180910390f35b6100be6102cd565b6040516100cb9190610c1f565b60405180910390f35b6100ee60048036038101906100e99190610d8e565b6102f2565b005b61010a60048036038101906101059190610d8e565b610587565b005b61012660048036038101906101219190610a49565b610833565b604051610137959493929190610b4c565b60405180910390f35b5f602052805f5260405f205f91509050805f015f9054906101000a900460ff1690805f0160019054906101000a900473ffffffffffffffffffffffffffffffffffffffff169080600101805461019590610e6a565b80601f01602080910402602001604051908101604052809291908181526020018280546101c190610e6a565b801561020c5780601f106101e35761010080835404028352916020019161020c565b820191905f5260205f20905b8154815290600101906020018083116101ef57829003601f168201915b50505050509080600201549080600301805461022790610e6a565b80601f016020809104026020016040519081016040528092919081815260200182805461025390610e6a565b801561029e5780601f106102755761010080835404028352916020019161029e565b820191905f5260205f20905b81548152906001019060200180831161028157829003601f168201915b5050505050905085565b60015f9054906101000a900473ffffffffffffffffffffffffffffffffffffffff1681565b60025f9054906101000a900473ffffffffffffffffffffffffffffffffffffffff1681565b60015f9054906101000a900473ffffffffffffffffffffffffffffffffffffffff1673ffffffffffffffffffffffffffffffffffffffff163373ffffffffffffffffffffffffffffffffffffffff1614610381576040517f08c379a000000000000000000000000000000000000000000000000000000000815260040161037890610f0a565b60405180910390fd5b5f808681526020019081526020015f205f015f9054906101000a900460ff166103df576040517f08c379a00000000000000000000000000000000000000000000000000000000081526004016103d690610f72565b60405180910390fd5b5f8211610421576040517f08c379a000000000000000000000000000000000000000000000000000000000815260040161041890610fda565b60405180910390fd5b5f805f8781526020019081526020015f20905084815f0160016101000a81548173ffffffffffffffffffffffffffffffffffffffff021916908373ffffffffffffffffffffffffffffffffffffffff16021790555083816001019081610487919061118c565b50828160020181905550818160030190816104a2919061118c565b508473ffffffffffffffffffffffffffffffffffffffff16867f91ee569fe4ab879f41ab0616255c5112e5a1c908d02d7b0bc31cf386c98384348686866040516104ee9392919061125b565b60405180910390a360025f9054906101000a900473ffffffffffffffffffffffffffffffffffffffff1673ffffffffffffffffffffffffffffffffffffffff16633d02d0c986846040518363ffffffff1660e01b815260040161055292919061129e565b5f604051808303815f87803b158015610569575f80fd5b505af115801561057b573d5f803e3d5ffd5b50505050505050505050565b60015f9054906101000a900473ffffffffffffffffffffffffffffffffffffffff1673ffffffffffffffffffffffffffffffffffffffff163373ffffffffffffffffffffffffffffffffffffffff1614610616576040517f08c379a000000000000000000000000000000000000000000000000000000000815260040161060d90610f0a565b60405180910390fd5b5f808681526020019081526020015f205f015f9054906101000a900460ff1615610675576040517f08c379a000000000000000000000000000000000000000000000000000000000815260040161066c90611316565b60405180910390fd5b5f82116106b7576040517f08c379a00000000000000000000000000000000000000000000000000000000081526004016106ae90610fda565b60405180910390fd5b6040518060a001604052806001151581526020018573ffffffffffffffffffffffffffffffffffffffff168152602001848152602001838152602001828152505f808781526020019081526020015f205f820151815f015f6101000a81548160ff0219169083151502179055506020820151815f0160016101000a81548173ffffffffffffffffffffffffffffffffffffffff021916908373ffffffffffffffffffffffffffffffffffffffff160217905550604082015181600101908161077f919061118c565b5060608201518160020155608082015181600301908161079f919061118c565b5090505060025f9054906101000a900473ffffffffffffffffffffffffffffffffffffffff1673ffffffffffffffffffffffffffffffffffffffff16633d02d0c985836040518363ffffffff1660e01b81526004016107ff92919061129e565b5f604051808303815f87803b158015610816575f80fd5b505af1158015610828573d5f803e3d5ffd5b505050505050505050565b5f8060605f60605f805f8881526020019081526020015f209050805f015f9054906101000a900460ff1661089c576040517f08c379a000000000000000000000000000000000000000000000000000000000815260040161089390610f72565b60405180910390fd5b805f015f9054906101000a900460ff16815f0160019054906101000a900473ffffffffffffffffffffffffffffffffffffffff16826001018360020154846003018280546108e990610e6a565b80601f016020809104026020016040519081016040528092919081815260200182805461091590610e6a565b80156109605780601f1061093757610100808354040283529160200191610960565b820191905f5260205f20905b81548152906001019060200180831161094357829003601f168201915b5050505050925080805461097390610e6a565b80601f016020809104026020016040519081016040528092919081815260200182805461099f90610e6a565b80156109ea5780601f106109c1576101008083540402835291602001916109ea565b820191905f5260205f20905b8154815290600101906020018083116109cd57829003601f168201915b50505050509050955095509550955095505091939590929450565b5f604051905090565b5f80fd5b5f80fd5b5f819050919050565b610a2881610a16565b8114610a32575f80fd5b50565b5f81359050610a4381610a1f565b92915050565b5f60208284031215610a5e57610a5d610a0e565b5b5f610a6b84828501610a35565b91505092915050565b5f8115159050919050565b610a8881610a74565b82525050565b5f73ffffffffffffffffffffffffffffffffffffffff82169050919050565b5f610ab782610a8e565b9050919050565b610ac781610aad565b82525050565b5f81519050919050565b5f82825260208201905092915050565b8281835e5f83830152505050565b5f601f19601f8301169050919050565b5f610b0f82610acd565b610b198185610ad7565b9350610b29818560208601610ae7565b610b3281610af5565b840191505092915050565b610b4681610a16565b82525050565b5f60a082019050610b5f5f830188610a7f565b610b6c6020830187610abe565b8181036040830152610b7e8186610b05565b9050610b8d6060830185610b3d565b8181036080830152610b9f8184610b05565b90509695505050505050565b5f602082019050610bbe5f830184610abe565b92915050565b5f819050919050565b5f610be7610be2610bdd84610a8e565b610bc4565b610a8e565b9050919050565b5f610bf882610bcd565b9050919050565b5f610c0982610bee565b9050919050565b610c1981610bff565b82525050565b5f602082019050610c325f830184610c10565b92915050565b610c4181610aad565b8114610c4b575f80fd5b50565b5f81359050610c5c81610c38565b92915050565b5f80fd5b5f80fd5b7f4e487b71000000000000000000000000000000000000000000000000000000005f52604160045260245ffd5b610ca082610af5565b810181811067ffffffffffffffff82111715610cbf57610cbe610c6a565b5b80604052505050565b5f610cd1610a05565b9050610cdd8282610c97565b919050565b5f67ffffffffffffffff821115610cfc57610cfb610c6a565b5b610d0582610af5565b9050602081019050919050565b828183375f83830152505050565b5f610d32610d2d84610ce2565b610cc8565b905082815260208101848484011115610d4e57610d4d610c66565b5b610d59848285610d12565b509392505050565b5f82601f830112610d7557610d74610c62565b5b8135610d85848260208601610d20565b91505092915050565b5f805f805f60a08688031215610da757610da6610a0e565b5b5f610db488828901610a35565b9550506020610dc588828901610c4e565b945050604086013567ffffffffffffffff811115610de657610de5610a12565b5b610df288828901610d61565b9350506060610e0388828901610a35565b925050608086013567ffffffffffffffff811115610e2457610e23610a12565b5b610e3088828901610d61565b9150509295509295909350565b7f4e487b71000000000000000000000000000000000000000000000000000000005f52602260045260245ffd5b5f6002820490506001821680610e8157607f821691505b602082108103610e9457610e93610e3d565b5b50919050565b7f4f6e6c792074686520676f7665726e6d656e742063616e2063616c6c207468695f8201527f732066756e6374696f6e00000000000000000000000000000000000000000000602082015250565b5f610ef4602a83610ad7565b9150610eff82610e9a565b604082019050919050565b5f6020820190508181035f830152610f2181610ee8565b9050919050565b7f4c616e64207469746c65206e6f742072656769737465726564000000000000005f82015250565b5f610f5c601983610ad7565b9150610f6782610f28565b602082019050919050565b5f6020820190508181035f830152610f8981610f50565b9050919050565b7f41726561206d7573742062652067726561746572207468616e203000000000005f82015250565b5f610fc4601b83610ad7565b9150610fcf82610f90565b602082019050919050565b5f6020820190508181035f830152610ff181610fb8565b9050919050565b5f819050815f5260205f209050919050565b5f6020601f8301049050919050565b5f82821b905092915050565b5f600883026110547fffffffffffffffffffffffffffffffffffffffffffffffffffffffffffffffff82611019565b61105e8683611019565b95508019841693508086168417925050509392505050565b5f61109061108b61108684610a16565b610bc4565b610a16565b9050919050565b5f819050919050565b6110a983611076565b6110bd6110b582611097565b848454611025565b825550505050565b5f90565b6110d16110c5565b6110dc8184846110a0565b505050565b5b818110156110ff576110f45f826110c9565b6001810190506110e2565b5050565b601f8211156111445761111581610ff8565b61111e8461100a565b8101602085101561112d578190505b6111416111398561100a565b8301826110e1565b50505b505050565b5f82821c905092915050565b5f6111645f1984600802611149565b1980831691505092915050565b5f61117c8383611155565b9150826002028217905092915050565b61119582610acd565b67ffffffffffffffff8111156111ae576111ad610c6a565b5b6111b88254610e6a565b6111c3828285611103565b5f60209050601f8311600181146111f4575f84156111e2578287015190505b6111ec8582611171565b865550611253565b601f19841661120286610ff8565b5f5b8281101561122957848901518255600182019150602085019450602081019050611204565b868310156112465784890151611242601f891682611155565b8355505b6001600288020188555050505b505050505050565b5f6060820190508181035f8301526112738186610b05565b90506112826020830185610b3d565b81810360408301526112948184610b05565b9050949350505050565b5f6040820190506112b15f830185610abe565b81810360208301526112c38184610b05565b90509392505050565b7f4c616e64207469746c6520616c726561647920726567697374657265640000005f82015250565b5f611300601d83610ad7565b915061130b826112cc565b602082019050919050565b5f6020820190508181035f83015261132d816112f4565b905091905056fea2646970667358221220fc5f36bc410825a9c143dff3ecb295d11d13fa3333157a620d92abe2e227514764736f6c634300081a00336080604052348015600e575f80fd5b506108558061001c5f395ff3fe608060405234801561000f575f80fd5b506004361061003f575f3560e01c80633d02d0c91461004357806375794a3c1461005f578063809648051461007d575b5f80fd5b61005d60048036038101906100589190610382565b6100ad565b005b61006761013b565b60405161007491906103f4565b60405180910390f35b61009760048036038101906100929190610437565b610140565b6040516100a491906104c2565b60405180910390f35b5f805490505f808154809291906100c39061050f565b9190505550808373ffffffffffffffffffffffffffffffffffffffff167fdf92894dc4675a7333caa5903b69cf5d8e8ec0d3f361c88207b6688e525703bb8460405161010f91906104c2565b60405180910390a38160015f8381526020019081526020015f2090816101359190610750565b50505050565b5f5481565b6001602052805f5260405f205f91509050805461015c90610583565b80601f016020809104026020016040519081016040528092919081815260200182805461018890610583565b80156101d35780601f106101aa576101008083540402835291602001916101d3565b820191905f5260205f20905b8154815290600101906020018083116101b657829003601f168201915b505050505081565b5f604051905090565b5f80fd5b5f80fd5b5f73ffffffffffffffffffffffffffffffffffffffff82169050919050565b5f610215826101ec565b9050919050565b6102258161020b565b811461022f575f80fd5b50565b5f813590506102408161021c565b92915050565b5f80fd5b5f80fd5b5f601f19601f8301169050919050565b7f4e487b71000000000000000000000000000000000000000000000000000000005f52604160045260245ffd5b6102948261024e565b810181811067ffffffffffffffff821117156102b3576102b261025e565b5b80604052505050565b5f6102c56101db565b90506102d1828261028b565b919050565b5f67ffffffffffffffff8211156102f0576102ef61025e565b5b6102f98261024e565b9050602081019050919050565b828183375f83830152505050565b5f610326610321846102d6565b6102bc565b9050828152602081018484840111156103425761034161024a565b5b61034d848285610306565b509392505050565b5f82601f83011261036957610368610246565b5b8135610379848260208601610314565b91505092915050565b5f8060408385031215610398576103976101e4565b5b5f6103a585828601610232565b925050602083013567ffffffffffffffff8111156103c6576103c56101e8565b5b6103d285828601610355565b9150509250929050565b5f819050919050565b6103ee816103dc565b82525050565b5f6020820190506104075f8301846103e5565b92915050565b610416816103dc565b8114610420575f80fd5b50565b5f813590506104318161040d565b92915050565b5f6020828403121561044c5761044b6101e4565b5b5f61045984828501610423565b91505092915050565b5f81519050919050565b5f82825260208201905092915050565b8281835e5f83830152505050565b5f61049482610462565b61049e818561046c565b93506104ae81856020860161047c565b6104b78161024e565b840191505092915050565b5f6020820190508181035f8301526104da818461048a565b905092915050565b7f4e487b71000000000000000000000000000000000000000000000000000000005f52601160045260245ffd5b5f610519826103dc565b91507fffffffffffffffffffffffffffffffffffffffffffffffffffffffffffffffff820361054b5761054a6104e2565b5b600182019050919050565b7f4e487b71000000000000000000000000000000000000000000000000000000005f52602260045260245ffd5b5f600282049050600182168061059a57607f821691505b6020821081036105ad576105ac610556565b5b50919050565b5f819050815f5260205f209050919050565b5f6020601f8301049050919050565b5f82821b905092915050565b5f6008830261060f7fffffffffffffffffffffffffffffffffffffffffffffffffffffffffffffffff826105d4565b61061986836105d4565b95508019841693508086168417925050509392505050565b5f819050919050565b5f61065461064f61064a846103dc565b610631565b6103dc565b9050919050565b5f819050919050565b61066d8361063a565b6106816106798261065b565b8484546105e0565b825550505050565b5f90565b610695610689565b6106a0818484610664565b505050565b5b818110156106c3576106b85f8261068d565b6001810190506106a6565b5050565b601f821115610708576106d9816105b3565b6106e2846105c5565b810160208510156106f1578190505b6107056106fd856105c5565b8301826106a5565b50505b505050565b5f82821c905092915050565b5f6107285f198460080261070d565b1980831691505092915050565b5f6107408383610719565b9150826002028217905092915050565b61075982610462565b67ffffffffffffffff8111156107725761077161025e565b5b61077c8254610583565b6107878282856106c7565b5f60209050601f8311600181146107b8575f84156107a6578287015190505b6107b08582610735565b865550610817565b601f1984166107c6866105b3565b5f5b828110156107ed578489015182556001820191506020850194506020810190506107c8565b8683101561080a5784890151610806601f891682610719565b8355505b6001600288020188555050505b50505050505056fea2646970667358221220ceace13ec9bd73c08aa4e05663e893359790e71fdb801df53770b19a623826fe64736f6c634300081a0033",
					"opcodes": "PUSH1 0x80 PUSH1 0x40 MSTORE CALLVALUE DUP1 ISZERO PUSH1 0xE JUMPI PUSH0 DUP1 REVERT JUMPDEST POP CALLER PUSH1 0x1 PUSH0 PUSH2 0x100 EXP DUP2 SLOAD DUP2 PUSH20 0xFFFFFFFFFFFFFFFFFFFFFFFFFFFFFFFFFFFFFFFF MUL NOT AND SWAP1 DUP4 PUSH20 0xFFFFFFFFFFFFFFFFFFFFFFFFFFFFFFFFFFFFFFFF AND MUL OR SWAP1 SSTORE POP PUSH1 0x40 MLOAD PUSH1 0x59 SWAP1 PUSH1 0xB5 JUMP JUMPDEST PUSH1 0x40 MLOAD DUP1 SWAP2 SUB SWAP1 PUSH0 CREATE DUP1 ISZERO DUP1 ISZERO PUSH1 0x71 JUMPI RETURNDATASIZE PUSH0 DUP1 RETURNDATACOPY RETURNDATASIZE PUSH0 REVERT JUMPDEST POP PUSH1 0x2 PUSH0 PUSH2 0x100 EXP DUP2 SLOAD DUP2 PUSH20 0xFFFFFFFFFFFFFFFFFFFFFFFFFFFFFFFFFFFFFFFF MUL NOT AND SWAP1 DUP4 PUSH20 0xFFFFFFFFFFFFFFFFFFFFFFFFFFFFFFFFFFFFFFFF AND MUL OR SWAP1 SSTORE POP PUSH1 0xC2 JUMP JUMPDEST PUSH2 0x871 DUP1 PUSH2 0x1439 DUP4 CODECOPY ADD SWAP1 JUMP JUMPDEST PUSH2 0x136A DUP1 PUSH2 0xCF PUSH0 CODECOPY PUSH0 RETURN INVALID PUSH1 0x80 PUSH1 0x40 MSTORE CALLVALUE DUP1 ISZERO PUSH2 0xF JUMPI PUSH0 DUP1 REVERT JUMPDEST POP PUSH1 0x4 CALLDATASIZE LT PUSH2 0x60 JUMPI PUSH0 CALLDATALOAD PUSH1 0xE0 SHR DUP1 PUSH4 0xB8D438C EQ PUSH2 0x64 JUMPI DUP1 PUSH4 0x2672F526 EQ PUSH2 0x98 JUMPI DUP1 PUSH4 0x40491CCA EQ PUSH2 0xB6 JUMPI DUP1 PUSH4 0x49F3EF0B EQ PUSH2 0xD4 JUMPI DUP1 PUSH4 0xA79A6CC3 EQ PUSH2 0xF0 JUMPI DUP1 PUSH4 0xFE0CB7DC EQ PUSH2 0x10C JUMPI JUMPDEST PUSH0 DUP1 REVERT JUMPDEST PUSH2 0x7E PUSH1 0x4 DUP1 CALLDATASIZE SUB DUP2 ADD SWAP1 PUSH2 0x79 SWAP2 SWAP1 PUSH2 0xA49 JUMP JUMPDEST PUSH2 0x140 JUMP JUMPDEST PUSH1 0x40 MLOAD PUSH2 0x8F SWAP6 SWAP5 SWAP4 SWAP3 SWAP2 SWAP1 PUSH2 0xB4C JUMP JUMPDEST PUSH1 0x40 MLOAD DUP1 SWAP2 SUB SWAP1 RETURN JUMPDEST PUSH2 0xA0 PUSH2 0x2A8 JUMP JUMPDEST PUSH1 0x40 MLOAD PUSH2 0xAD SWAP2 SWAP1 PUSH2 0xBAB JUMP JUMPDEST PUSH1 0x40 MLOAD DUP1 SWAP2 SUB SWAP1 RETURN JUMPDEST PUSH2 0xBE PUSH2 0x2CD JUMP JUMPDEST PUSH1 0x40 MLOAD PUSH2 0xCB SWAP2 SWAP1 PUSH2 0xC1F JUMP JUMPDEST PUSH1 0x40 MLOAD DUP1 SWAP2 SUB SWAP1 RETURN JUMPDEST PUSH2 0xEE PUSH1 0x4 DUP1 CALLDATASIZE SUB DUP2 ADD SWAP1 PUSH2 0xE9 SWAP2 SWAP1 PUSH2 0xD8E JUMP JUMPDEST PUSH2 0x2F2 JUMP JUMPDEST STOP JUMPDEST PUSH2 0x10A PUSH1 0x4 DUP1 CALLDATASIZE SUB DUP2 ADD SWAP1 PUSH2 0x105 SWAP2 SWAP1 PUSH2 0xD8E JUMP JUMPDEST PUSH2 0x587 JUMP JUMPDEST STOP JUMPDEST PUSH2 0x126 PUSH1 0x4 DUP1 CALLDATASIZE SUB DUP2 ADD SWAP1 PUSH2 0x121 SWAP2 SWAP1 PUSH2 0xA49 JUMP JUMPDEST PUSH2 0x833 JUMP JUMPDEST PUSH1 0x40 MLOAD PUSH2 0x137 SWAP6 SWAP5 SWAP4 SWAP3 SWAP2 SWAP1 PUSH2 0xB4C JUMP JUMPDEST PUSH1 0x40 MLOAD DUP1 SWAP2 SUB SWAP1 RETURN JUMPDEST PUSH0 PUSH1 0x20 MSTORE DUP1 PUSH0 MSTORE PUSH1 0x40 PUSH0 KECCAK256 PUSH0 SWAP2 POP SWAP1 POP DUP1 PUSH0 ADD PUSH0 SWAP1 SLOAD SWAP1 PUSH2 0x100 EXP SWAP1 DIV PUSH1 0xFF AND SWAP1 DUP1 PUSH0 ADD PUSH1 0x1 SWAP1 SLOAD SWAP1 PUSH2 0x100 EXP SWAP1 DIV PUSH20 0xFFFFFFFFFFFFFFFFFFFFFFFFFFFFFFFFFFFFFFFF AND SWAP1 DUP1 PUSH1 0x1 ADD DUP1 SLOAD PUSH2 0x195 SWAP1 PUSH2 0xE6A JUMP JUMPDEST DUP1 PUSH1 0x1F ADD PUSH1 0x20 DUP1 SWAP2 DIV MUL PUSH1 0x20 ADD PUSH1 0x40 MLOAD SWAP1 DUP2 ADD PUSH1 0x40 MSTORE DUP1 SWAP3 SWAP2 SWAP1 DUP2 DUP2 MSTORE PUSH1 0x20 ADD DUP3 DUP1 SLOAD PUSH2 0x1C1 SWAP1 PUSH2 0xE6A JUMP JUMPDEST DUP1 ISZERO PUSH2 0x20C JUMPI DUP1 PUSH1 0x1F LT PUSH2 0x1E3 JUMPI PUSH2 0x100 DUP1 DUP4 SLOAD DIV MUL DUP4 MSTORE SWAP2 PUSH1 0x20 ADD SWAP2 PUSH2 0x20C JUMP JUMPDEST DUP3 ADD SWAP2 SWAP1 PUSH0 MSTORE PUSH1 0x20 PUSH0 KECCAK256 SWAP1 JUMPDEST DUP2 SLOAD DUP2 MSTORE SWAP1 PUSH1 0x1 ADD SWAP1 PUSH1 0x20 ADD DUP1 DUP4 GT PUSH2 0x1EF JUMPI DUP3 SWAP1 SUB PUSH1 0x1F AND DUP3 ADD SWAP2 JUMPDEST POP POP POP POP POP SWAP1 DUP1 PUSH1 0x2 ADD SLOAD SWAP1 DUP1 PUSH1 0x3 ADD DUP1 SLOAD PUSH2 0x227 SWAP1 PUSH2 0xE6A JUMP JUMPDEST DUP1 PUSH1 0x1F ADD PUSH1 0x20 DUP1 SWAP2 DIV MUL PUSH1 0x20 ADD PUSH1 0x40 MLOAD SWAP1 DUP2 ADD PUSH1 0x40 MSTORE DUP1 SWAP3 SWAP2 SWAP1 DUP2 DUP2 MSTORE PUSH1 0x20 ADD DUP3 DUP1 SLOAD PUSH2 0x253 SWAP1 PUSH2 0xE6A JUMP JUMPDEST DUP1 ISZERO PUSH2 0x29E JUMPI DUP1 PUSH1 0x1F LT PUSH2 0x275 JUMPI PUSH2 0x100 DUP1 DUP4 SLOAD DIV MUL DUP4 MSTORE SWAP2 PUSH1 0x20 ADD SWAP2 PUSH2 0x29E JUMP JUMPDEST DUP3 ADD SWAP2 SWAP1 PUSH0 MSTORE PUSH1 0x20 PUSH0 KECCAK256 SWAP1 JUMPDEST DUP2 SLOAD DUP2 MSTORE SWAP1 PUSH1 0x1 ADD SWAP1 PUSH1 0x20 ADD DUP1 DUP4 GT PUSH2 0x281 JUMPI DUP3 SWAP1 SUB PUSH1 0x1F AND DUP3 ADD SWAP2 JUMPDEST POP POP POP POP POP SWAP1 POP DUP6 JUMP JUMPDEST PUSH1 0x1 PUSH0 SWAP1 SLOAD SWAP1 PUSH2 0x100 EXP SWAP1 DIV PUSH20 0xFFFFFFFFFFFFFFFFFFFFFFFFFFFFFFFFFFFFFFFF AND DUP2 JUMP JUMPDEST PUSH1 0x2 PUSH0 SWAP1 SLOAD SWAP1 PUSH2 0x100 EXP SWAP1 DIV PUSH20 0xFFFFFFFFFFFFFFFFFFFFFFFFFFFFFFFFFFFFFFFF AND DUP2 JUMP JUMPDEST PUSH1 0x1 PUSH0 SWAP1 SLOAD SWAP1 PUSH2 0x100 EXP SWAP1 DIV PUSH20 0xFFFFFFFFFFFFFFFFFFFFFFFFFFFFFFFFFFFFFFFF AND PUSH20 0xFFFFFFFFFFFFFFFFFFFFFFFFFFFFFFFFFFFFFFFF AND CALLER PUSH20 0xFFFFFFFFFFFFFFFFFFFFFFFFFFFFFFFFFFFFFFFF AND EQ PUSH2 0x381 JUMPI PUSH1 0x40 MLOAD PUSH32 0x8C379A000000000000000000000000000000000000000000000000000000000 DUP2 MSTORE PUSH1 0x4 ADD PUSH2 0x378 SWAP1 PUSH2 0xF0A JUMP JUMPDEST PUSH1 0x40 MLOAD DUP1 SWAP2 SUB SWAP1 REVERT JUMPDEST PUSH0 DUP1 DUP7 DUP2 MSTORE PUSH1 0x20 ADD SWAP1 DUP2 MSTORE PUSH1 0x20 ADD PUSH0 KECCAK256 PUSH0 ADD PUSH0 SWAP1 SLOAD SWAP1 PUSH2 0x100 EXP SWAP1 DIV PUSH1 0xFF AND PUSH2 0x3DF JUMPI PUSH1 0x40 MLOAD PUSH32 0x8C379A000000000000000000000000000000000000000000000000000000000 DUP2 MSTORE PUSH1 0x4 ADD PUSH2 0x3D6 SWAP1 PUSH2 0xF72 JUMP JUMPDEST PUSH1 0x40 MLOAD DUP1 SWAP2 SUB SWAP1 REVERT JUMPDEST PUSH0 DUP3 GT PUSH2 0x421 JUMPI PUSH1 0x40 MLOAD PUSH32 0x8C379A000000000000000000000000000000000000000000000000000000000 DUP2 MSTORE PUSH1 0x4 ADD PUSH2 0x418 SWAP1 PUSH2 0xFDA JUMP JUMPDEST PUSH1 0x40 MLOAD DUP1 SWAP2 SUB SWAP1 REVERT JUMPDEST PUSH0 DUP1 PUSH0 DUP8 DUP2 MSTORE PUSH1 0x20 ADD SWAP1 DUP2 MSTORE PUSH1 0x20 ADD PUSH0 KECCAK256 SWAP1 POP DUP5 DUP2 PUSH0 ADD PUSH1 0x1 PUSH2 0x100 EXP DUP2 SLOAD DUP2 PUSH20 0xFFFFFFFFFFFFFFFFFFFFFFFFFFFFFFFFFFFFFFFF MUL NOT AND SWAP1 DUP4 PUSH20 0xFFFFFFFFFFFFFFFFFFFFFFFFFFFFFFFFFFFFFFFF AND MUL OR SWAP1 SSTORE POP DUP4 DUP2 PUSH1 0x1 ADD SWAP1 DUP2 PUSH2 0x487 SWAP2 SWAP1 PUSH2 0x118C JUMP JUMPDEST POP DUP3 DUP2 PUSH1 0x2 ADD DUP2 SWAP1 SSTORE POP DUP2 DUP2 PUSH1 0x3 ADD SWAP1 DUP2 PUSH2 0x4A2 SWAP2 SWAP1 PUSH2 0x118C JUMP JUMPDEST POP DUP5 PUSH20 0xFFFFFFFFFFFFFFFFFFFFFFFFFFFFFFFFFFFFFFFF AND DUP7 PUSH32 0x91EE569FE4AB879F41AB0616255C5112E5A1C908D02D7B0BC31CF386C9838434 DUP7 DUP7 DUP7 PUSH1 0x40 MLOAD PUSH2 0x4EE SWAP4 SWAP3 SWAP2 SWAP1 PUSH2 0x125B JUMP JUMPDEST PUSH1 0x40 MLOAD DUP1 SWAP2 SUB SWAP1 LOG3 PUSH1 0x2 PUSH0 SWAP1 SLOAD SWAP1 PUSH2 0x100 EXP SWAP1 DIV PUSH20 0xFFFFFFFFFFFFFFFFFFFFFFFFFFFFFFFFFFFFFFFF AND PUSH20 0xFFFFFFFFFFFFFFFFFFFFFFFFFFFFFFFFFFFFFFFF AND PUSH4 0x3D02D0C9 DUP7 DUP5 PUSH1 0x40 MLOAD DUP4 PUSH4 0xFFFFFFFF AND PUSH1 0xE0 SHL DUP2 MSTORE PUSH1 0x4 ADD PUSH2 0x552 SWAP3 SWAP2 SWAP1 PUSH2 0x129E JUMP JUMPDEST PUSH0 PUSH1 0x40 MLOAD DUP1 DUP4 SUB DUP2 PUSH0 DUP8 DUP1 EXTCODESIZE ISZERO DUP1 ISZERO PUSH2 0x569 JUMPI PUSH0 DUP1 REVERT JUMPDEST POP GAS CALL ISZERO DUP1 ISZERO PUSH2 0x57B JUMPI RETURNDATASIZE PUSH0 DUP1 RETURNDATACOPY RETURNDATASIZE PUSH0 REVERT JUMPDEST POP POP POP POP POP POP POP POP POP POP JUMP JUMPDEST PUSH1 0x1 PUSH0 SWAP1 SLOAD SWAP1 PUSH2 0x100 EXP SWAP1 DIV PUSH20 0xFFFFFFFFFFFFFFFFFFFFFFFFFFFFFFFFFFFFFFFF AND PUSH20 0xFFFFFFFFFFFFFFFFFFFFFFFFFFFFFFFFFFFFFFFF AND CALLER PUSH20 0xFFFFFFFFFFFFFFFFFFFFFFFFFFFFFFFFFFFFFFFF AND EQ PUSH2 0x616 JUMPI PUSH1 0x40 MLOAD PUSH32 0x8C379A000000000000000000000000000000000000000000000000000000000 DUP2 MSTORE PUSH1 0x4 ADD PUSH2 0x60D SWAP1 PUSH2 0xF0A JUMP JUMPDEST PUSH1 0x40 MLOAD DUP1 SWAP2 SUB SWAP1 REVERT JUMPDEST PUSH0 DUP1 DUP7 DUP2 MSTORE PUSH1 0x20 ADD SWAP1 DUP2 MSTORE PUSH1 0x20 ADD PUSH0 KECCAK256 PUSH0 ADD PUSH0 SWAP1 SLOAD SWAP1 PUSH2 0x100 EXP SWAP1 DIV PUSH1 0xFF AND ISZERO PUSH2 0x675 JUMPI PUSH1 0x40 MLOAD PUSH32 0x8C379A000000000000000000000000000000000000000000000000000000000 DUP2 MSTORE PUSH1 0x4 ADD PUSH2 0x66C SWAP1 PUSH2 0x1316 JUMP JUMPDEST PUSH1 0x40 MLOAD DUP1 SWAP2 SUB SWAP1 REVERT JUMPDEST PUSH0 DUP3 GT PUSH2 0x6B7 JUMPI PUSH1 0x40 MLOAD PUSH32 0x8C379A000000000000000000000000000000000000000000000000000000000 DUP2 MSTORE PUSH1 0x4 ADD PUSH2 0x6AE SWAP1 PUSH2 0xFDA JUMP JUMPDEST PUSH1 0x40 MLOAD DUP1 SWAP2 SUB SWAP1 REVERT JUMPDEST PUSH1 0x40 MLOAD DUP1 PUSH1 0xA0 ADD PUSH1 0x40 MSTORE DUP1 PUSH1 0x1 ISZERO ISZERO DUP2 MSTORE PUSH1 0x20 ADD DUP6 PUSH20 0xFFFFFFFFFFFFFFFFFFFFFFFFFFFFFFFFFFFFFFFF AND DUP2 MSTORE PUSH1 0x20 ADD DUP5 DUP2 MSTORE PUSH1 0x20 ADD DUP4 DUP2 MSTORE PUSH1 0x20 ADD DUP3 DUP2 MSTORE POP PUSH0 DUP1 DUP8 DUP2 MSTORE PUSH1 0x20 ADD SWAP1 DUP2 MSTORE PUSH1 0x20 ADD PUSH0 KECCAK256 PUSH0 DUP3 ADD MLOAD DUP2 PUSH0 ADD PUSH0 PUSH2 0x100 EXP DUP2 SLOAD DUP2 PUSH1 0xFF MUL NOT AND SWAP1 DUP4 ISZERO ISZERO MUL OR SWAP1 SSTORE POP PUSH1 0x20 DUP3 ADD MLOAD DUP2 PUSH0 ADD PUSH1 0x1 PUSH2 0x100 EXP DUP2 SLOAD DUP2 PUSH20 0xFFFFFFFFFFFFFFFFFFFFFFFFFFFFFFFFFFFFFFFF MUL NOT AND SWAP1 DUP4 PUSH20 0xFFFFFFFFFFFFFFFFFFFFFFFFFFFFFFFFFFFFFFFF AND MUL OR SWAP1 SSTORE POP PUSH1 0x40 DUP3 ADD MLOAD DUP2 PUSH1 0x1 ADD SWAP1 DUP2 PUSH2 0x77F SWAP2 SWAP1 PUSH2 0x118C JUMP JUMPDEST POP PUSH1 0x60 DUP3 ADD MLOAD DUP2 PUSH1 0x2 ADD SSTORE PUSH1 0x80 DUP3 ADD MLOAD DUP2 PUSH1 0x3 ADD SWAP1 DUP2 PUSH2 0x79F SWAP2 SWAP1 PUSH2 0x118C JUMP JUMPDEST POP SWAP1 POP POP PUSH1 0x2 PUSH0 SWAP1 SLOAD SWAP1 PUSH2 0x100 EXP SWAP1 DIV PUSH20 0xFFFFFFFFFFFFFFFFFFFFFFFFFFFFFFFFFFFFFFFF AND PUSH20 0xFFFFFFFFFFFFFFFFFFFFFFFFFFFFFFFFFFFFFFFF AND PUSH4 0x3D02D0C9 DUP6 DUP4 PUSH1 0x40 MLOAD DUP4 PUSH4 0xFFFFFFFF AND PUSH1 0xE0 SHL DUP2 MSTORE PUSH1 0x4 ADD PUSH2 0x7FF SWAP3 SWAP2 SWAP1 PUSH2 0x129E JUMP JUMPDEST PUSH0 PUSH1 0x40 MLOAD DUP1 DUP4 SUB DUP2 PUSH0 DUP8 DUP1 EXTCODESIZE ISZERO DUP1 ISZERO PUSH2 0x816 JUMPI PUSH0 DUP1 REVERT JUMPDEST POP GAS CALL ISZERO DUP1 ISZERO PUSH2 0x828 JUMPI RETURNDATASIZE PUSH0 DUP1 RETURNDATACOPY RETURNDATASIZE PUSH0 REVERT JUMPDEST POP POP POP POP POP POP POP POP POP JUMP JUMPDEST PUSH0 DUP1 PUSH1 0x60 PUSH0 PUSH1 0x60 PUSH0 DUP1 PUSH0 DUP9 DUP2 MSTORE PUSH1 0x20 ADD SWAP1 DUP2 MSTORE PUSH1 0x20 ADD PUSH0 KECCAK256 SWAP1 POP DUP1 PUSH0 ADD PUSH0 SWAP1 SLOAD SWAP1 PUSH2 0x100 EXP SWAP1 DIV PUSH1 0xFF AND PUSH2 0x89C JUMPI PUSH1 0x40 MLOAD PUSH32 0x8C379A000000000000000000000000000000000000000000000000000000000 DUP2 MSTORE PUSH1 0x4 ADD PUSH2 0x893 SWAP1 PUSH2 0xF72 JUMP JUMPDEST PUSH1 0x40 MLOAD DUP1 SWAP2 SUB SWAP1 REVERT JUMPDEST DUP1 PUSH0 ADD PUSH0 SWAP1 SLOAD SWAP1 PUSH2 0x100 EXP SWAP1 DIV PUSH1 0xFF AND DUP2 PUSH0 ADD PUSH1 0x1 SWAP1 SLOAD SWAP1 PUSH2 0x100 EXP SWAP1 DIV PUSH20 0xFFFFFFFFFFFFFFFFFFFFFFFFFFFFFFFFFFFFFFFF AND DUP3 PUSH1 0x1 ADD DUP4 PUSH1 0x2 ADD SLOAD DUP5 PUSH1 0x3 ADD DUP3 DUP1 SLOAD PUSH2 0x8E9 SWAP1 PUSH2 0xE6A JUMP JUMPDEST DUP1 PUSH1 0x1F ADD PUSH1 0x20 DUP1 SWAP2 DIV MUL PUSH1 0x20 ADD PUSH1 0x40 MLOAD SWAP1 DUP2 ADD PUSH1 0x40 MSTORE DUP1 SWAP3 SWAP2 SWAP1 DUP2 DUP2 MSTORE PUSH1 0x20 ADD DUP3 DUP1 SLOAD PUSH2 0x915 SWAP1 PUSH2 0xE6A JUMP JUMPDEST DUP1 ISZERO PUSH2 0x960 JUMPI DUP1 PUSH1 0x1F LT PUSH2 0x937 JUMPI PUSH2 0x100 DUP1 DUP4 SLOAD DIV MUL DUP4 MSTORE SWAP2 PUSH1 0x20 ADD SWAP2 PUSH2 0x960 JUMP JUMPDEST DUP3 ADD SWAP2 SWAP1 PUSH0 MSTORE PUSH1 0x20 PUSH0 KECCAK256 SWAP1 JUMPDEST DUP2 SLOAD DUP2 MSTORE SWAP1 PUSH1 0x1 ADD SWAP1 PUSH1 0x20 ADD DUP1 DUP4 GT PUSH2 0x943 JUMPI DUP3 SWAP1 SUB PUSH1 0x1F AND DUP3 ADD SWAP2 JUMPDEST POP POP POP POP POP SWAP3 POP DUP1 DUP1 SLOAD PUSH2 0x973 SWAP1 PUSH2 0xE6A JUMP JUMPDEST DUP1 PUSH1 0x1F ADD PUSH1 0x20 DUP1 SWAP2 DIV MUL PUSH1 0x20 ADD PUSH1 0x40 MLOAD SWAP1 DUP2 ADD PUSH1 0x40 MSTORE DUP1 SWAP3 SWAP2 SWAP1 DUP2 DUP2 MSTORE PUSH1 0x20 ADD DUP3 DUP1 SLOAD PUSH2 0x99F SWAP1 PUSH2 0xE6A JUMP JUMPDEST DUP1 ISZERO PUSH2 0x9EA JUMPI DUP1 PUSH1 0x1F LT PUSH2 0x9C1 JUMPI PUSH2 0x100 DUP1 DUP4 SLOAD DIV MUL DUP4 MSTORE SWAP2 PUSH1 0x20 ADD SWAP2 PUSH2 0x9EA JUMP JUMPDEST DUP3 ADD SWAP2 SWAP1 PUSH0 MSTORE PUSH1 0x20 PUSH0 KECCAK256 SWAP1 JUMPDEST DUP2 SLOAD DUP2 MSTORE SWAP1 PUSH1 0x1 ADD SWAP1 PUSH1 0x20 ADD DUP1 DUP4 GT PUSH2 0x9CD JUMPI DUP3 SWAP1 SUB PUSH1 0x1F AND DUP3 ADD SWAP2 JUMPDEST POP POP POP POP POP SWAP1 POP SWAP6 POP SWAP6 POP SWAP6 POP SWAP6 POP SWAP6 POP POP SWAP2 SWAP4 SWAP6 SWAP1 SWAP3 SWAP5 POP JUMP JUMPDEST PUSH0 PUSH1 0x40 MLOAD SWAP1 POP SWAP1 JUMP JUMPDEST PUSH0 DUP1 REVERT JUMPDEST PUSH0 DUP1 REVERT JUMPDEST PUSH0 DUP2 SWAP1 POP SWAP2 SWAP1 POP JUMP JUMPDEST PUSH2 0xA28 DUP2 PUSH2 0xA16 JUMP JUMPDEST DUP2 EQ PUSH2 0xA32 JUMPI PUSH0 DUP1 REVERT JUMPDEST POP JUMP JUMPDEST PUSH0 DUP2 CALLDATALOAD SWAP1 POP PUSH2 0xA43 DUP2 PUSH2 0xA1F JUMP JUMPDEST SWAP3 SWAP2 POP POP JUMP JUMPDEST PUSH0 PUSH1 0x20 DUP3 DUP5 SUB SLT ISZERO PUSH2 0xA5E JUMPI PUSH2 0xA5D PUSH2 0xA0E JUMP JUMPDEST JUMPDEST PUSH0 PUSH2 0xA6B DUP5 DUP3 DUP6 ADD PUSH2 0xA35 JUMP JUMPDEST SWAP2 POP POP SWAP3 SWAP2 POP POP JUMP JUMPDEST PUSH0 DUP2 ISZERO ISZERO SWAP1 POP SWAP2 SWAP1 POP JUMP JUMPDEST PUSH2 0xA88 DUP2 PUSH2 0xA74 JUMP JUMPDEST DUP3 MSTORE POP POP JUMP JUMPDEST PUSH0 PUSH20 0xFFFFFFFFFFFFFFFFFFFFFFFFFFFFFFFFFFFFFFFF DUP3 AND SWAP1 POP SWAP2 SWAP1 POP JUMP JUMPDEST PUSH0 PUSH2 0xAB7 DUP3 PUSH2 0xA8E JUMP JUMPDEST SWAP1 POP SWAP2 SWAP1 POP JUMP JUMPDEST PUSH2 0xAC7 DUP2 PUSH2 0xAAD JUMP JUMPDEST DUP3 MSTORE POP POP JUMP JUMPDEST PUSH0 DUP2 MLOAD SWAP1 POP SWAP2 SWAP1 POP JUMP JUMPDEST PUSH0 DUP3 DUP3 MSTORE PUSH1 0x20 DUP3 ADD SWAP1 POP SWAP3 SWAP2 POP POP JUMP JUMPDEST DUP3 DUP2 DUP4 MCOPY PUSH0 DUP4 DUP4 ADD MSTORE POP POP POP JUMP JUMPDEST PUSH0 PUSH1 0x1F NOT PUSH1 0x1F DUP4 ADD AND SWAP1 POP SWAP2 SWAP1 POP JUMP JUMPDEST PUSH0 PUSH2 0xB0F DUP3 PUSH2 0xACD JUMP JUMPDEST PUSH2 0xB19 DUP2 DUP6 PUSH2 0xAD7 JUMP JUMPDEST SWAP4 POP PUSH2 0xB29 DUP2 DUP6 PUSH1 0x20 DUP7 ADD PUSH2 0xAE7 JUMP JUMPDEST PUSH2 0xB32 DUP2 PUSH2 0xAF5 JUMP JUMPDEST DUP5 ADD SWAP2 POP POP SWAP3 SWAP2 POP POP JUMP JUMPDEST PUSH2 0xB46 DUP2 PUSH2 0xA16 JUMP JUMPDEST DUP3 MSTORE POP POP JUMP JUMPDEST PUSH0 PUSH1 0xA0 DUP3 ADD SWAP1 POP PUSH2 0xB5F PUSH0 DUP4 ADD DUP9 PUSH2 0xA7F JUMP JUMPDEST PUSH2 0xB6C PUSH1 0x20 DUP4 ADD DUP8 PUSH2 0xABE JUMP JUMPDEST DUP2 DUP2 SUB PUSH1 0x40 DUP4 ADD MSTORE PUSH2 0xB7E DUP2 DUP7 PUSH2 0xB05 JUMP JUMPDEST SWAP1 POP PUSH2 0xB8D PUSH1 0x60 DUP4 ADD DUP6 PUSH2 0xB3D JUMP JUMPDEST DUP2 DUP2 SUB PUSH1 0x80 DUP4 ADD MSTORE PUSH2 0xB9F DUP2 DUP5 PUSH2 0xB05 JUMP JUMPDEST SWAP1 POP SWAP7 SWAP6 POP POP POP POP POP POP JUMP JUMPDEST PUSH0 PUSH1 0x20 DUP3 ADD SWAP1 POP PUSH2 0xBBE PUSH0 DUP4 ADD DUP5 PUSH2 0xABE JUMP JUMPDEST SWAP3 SWAP2 POP POP JUMP JUMPDEST PUSH0 DUP2 SWAP1 POP SWAP2 SWAP1 POP JUMP JUMPDEST PUSH0 PUSH2 0xBE7 PUSH2 0xBE2 PUSH2 0xBDD DUP5 PUSH2 0xA8E JUMP JUMPDEST PUSH2 0xBC4 JUMP JUMPDEST PUSH2 0xA8E JUMP JUMPDEST SWAP1 POP SWAP2 SWAP1 POP JUMP JUMPDEST PUSH0 PUSH2 0xBF8 DUP3 PUSH2 0xBCD JUMP JUMPDEST SWAP1 POP SWAP2 SWAP1 POP JUMP JUMPDEST PUSH0 PUSH2 0xC09 DUP3 PUSH2 0xBEE JUMP JUMPDEST SWAP1 POP SWAP2 SWAP1 POP JUMP JUMPDEST PUSH2 0xC19 DUP2 PUSH2 0xBFF JUMP JUMPDEST DUP3 MSTORE POP POP JUMP JUMPDEST PUSH0 PUSH1 0x20 DUP3 ADD SWAP1 POP PUSH2 0xC32 PUSH0 DUP4 ADD DUP5 PUSH2 0xC10 JUMP JUMPDEST SWAP3 SWAP2 POP POP JUMP JUMPDEST PUSH2 0xC41 DUP2 PUSH2 0xAAD JUMP JUMPDEST DUP2 EQ PUSH2 0xC4B JUMPI PUSH0 DUP1 REVERT JUMPDEST POP JUMP JUMPDEST PUSH0 DUP2 CALLDATALOAD SWAP1 POP PUSH2 0xC5C DUP2 PUSH2 0xC38 JUMP JUMPDEST SWAP3 SWAP2 POP POP JUMP JUMPDEST PUSH0 DUP1 REVERT JUMPDEST PUSH0 DUP1 REVERT JUMPDEST PUSH32 0x4E487B7100000000000000000000000000000000000000000000000000000000 PUSH0 MSTORE PUSH1 0x41 PUSH1 0x4 MSTORE PUSH1 0x24 PUSH0 REVERT JUMPDEST PUSH2 0xCA0 DUP3 PUSH2 0xAF5 JUMP JUMPDEST DUP2 ADD DUP2 DUP2 LT PUSH8 0xFFFFFFFFFFFFFFFF DUP3 GT OR ISZERO PUSH2 0xCBF JUMPI PUSH2 0xCBE PUSH2 0xC6A JUMP JUMPDEST JUMPDEST DUP1 PUSH1 0x40 MSTORE POP POP POP JUMP JUMPDEST PUSH0 PUSH2 0xCD1 PUSH2 0xA05 JUMP JUMPDEST SWAP1 POP PUSH2 0xCDD DUP3 DUP3 PUSH2 0xC97 JUMP JUMPDEST SWAP2 SWAP1 POP JUMP JUMPDEST PUSH0 PUSH8 0xFFFFFFFFFFFFFFFF DUP3 GT ISZERO PUSH2 0xCFC JUMPI PUSH2 0xCFB PUSH2 0xC6A JUMP JUMPDEST JUMPDEST PUSH2 0xD05 DUP3 PUSH2 0xAF5 JUMP JUMPDEST SWAP1 POP PUSH1 0x20 DUP2 ADD SWAP1 POP SWAP2 SWAP1 POP JUMP JUMPDEST DUP3 DUP2 DUP4 CALLDATACOPY PUSH0 DUP4 DUP4 ADD MSTORE POP POP POP JUMP JUMPDEST PUSH0 PUSH2 0xD32 PUSH2 0xD2D DUP5 PUSH2 0xCE2 JUMP JUMPDEST PUSH2 0xCC8 JUMP JUMPDEST SWAP1 POP DUP3 DUP2 MSTORE PUSH1 0x20 DUP2 ADD DUP5 DUP5 DUP5 ADD GT ISZERO PUSH2 0xD4E JUMPI PUSH2 0xD4D PUSH2 0xC66 JUMP JUMPDEST JUMPDEST PUSH2 0xD59 DUP5 DUP3 DUP6 PUSH2 0xD12 JUMP JUMPDEST POP SWAP4 SWAP3 POP POP POP JUMP JUMPDEST PUSH0 DUP3 PUSH1 0x1F DUP4 ADD SLT PUSH2 0xD75 JUMPI PUSH2 0xD74 PUSH2 0xC62 JUMP JUMPDEST JUMPDEST DUP2 CALLDATALOAD PUSH2 0xD85 DUP5 DUP3 PUSH1 0x20 DUP7 ADD PUSH2 0xD20 JUMP JUMPDEST SWAP2 POP POP SWAP3 SWAP2 POP POP JUMP JUMPDEST PUSH0 DUP1 PUSH0 DUP1 PUSH0 PUSH1 0xA0 DUP7 DUP9 SUB SLT ISZERO PUSH2 0xDA7 JUMPI PUSH2 0xDA6 PUSH2 0xA0E JUMP JUMPDEST JUMPDEST PUSH0 PUSH2 0xDB4 DUP9 DUP3 DUP10 ADD PUSH2 0xA35 JUMP JUMPDEST SWAP6 POP POP PUSH1 0x20 PUSH2 0xDC5 DUP9 DUP3 DUP10 ADD PUSH2 0xC4E JUMP JUMPDEST SWAP5 POP POP PUSH1 0x40 DUP7 ADD CALLDATALOAD PUSH8 0xFFFFFFFFFFFFFFFF DUP2 GT ISZERO PUSH2 0xDE6 JUMPI PUSH2 0xDE5 PUSH2 0xA12 JUMP JUMPDEST JUMPDEST PUSH2 0xDF2 DUP9 DUP3 DUP10 ADD PUSH2 0xD61 JUMP JUMPDEST SWAP4 POP POP PUSH1 0x60 PUSH2 0xE03 DUP9 DUP3 DUP10 ADD PUSH2 0xA35 JUMP JUMPDEST SWAP3 POP POP PUSH1 0x80 DUP7 ADD CALLDATALOAD PUSH8 0xFFFFFFFFFFFFFFFF DUP2 GT ISZERO PUSH2 0xE24 JUMPI PUSH2 0xE23 PUSH2 0xA12 JUMP JUMPDEST JUMPDEST PUSH2 0xE30 DUP9 DUP3 DUP10 ADD PUSH2 0xD61 JUMP JUMPDEST SWAP2 POP POP SWAP3 SWAP6 POP SWAP3 SWAP6 SWAP1 SWAP4 POP JUMP JUMPDEST PUSH32 0x4E487B7100000000000000000000000000000000000000000000000000000000 PUSH0 MSTORE PUSH1 0x22 PUSH1 0x4 MSTORE PUSH1 0x24 PUSH0 REVERT JUMPDEST PUSH0 PUSH1 0x2 DUP3 DIV SWAP1 POP PUSH1 0x1 DUP3 AND DUP1 PUSH2 0xE81 JUMPI PUSH1 0x7F DUP3 AND SWAP2 POP JUMPDEST PUSH1 0x20 DUP3 LT DUP2 SUB PUSH2 0xE94 JUMPI PUSH2 0xE93 PUSH2 0xE3D JUMP JUMPDEST JUMPDEST POP SWAP2 SWAP1 POP JUMP JUMPDEST PUSH32 0x4F6E6C792074686520676F7665726E6D656E742063616E2063616C6C20746869 PUSH0 DUP3 ADD MSTORE PUSH32 0x732066756E6374696F6E00000000000000000000000000000000000000000000 PUSH1 0x20 DUP3 ADD MSTORE POP JUMP JUMPDEST PUSH0 PUSH2 0xEF4 PUSH1 0x2A DUP4 PUSH2 0xAD7 JUMP JUMPDEST SWAP2 POP PUSH2 0xEFF DUP3 PUSH2 0xE9A JUMP JUMPDEST PUSH1 0x40 DUP3 ADD SWAP1 POP SWAP2 SWAP1 POP JUMP JUMPDEST PUSH0 PUSH1 0x20 DUP3 ADD SWAP1 POP DUP2 DUP2 SUB PUSH0 DUP4 ADD MSTORE PUSH2 0xF21 DUP2 PUSH2 0xEE8 JUMP JUMPDEST SWAP1 POP SWAP2 SWAP1 POP JUMP JUMPDEST PUSH32 0x4C616E64207469746C65206E6F74207265676973746572656400000000000000 PUSH0 DUP3 ADD MSTORE POP JUMP JUMPDEST PUSH0 PUSH2 0xF5C PUSH1 0x19 DUP4 PUSH2 0xAD7 JUMP JUMPDEST SWAP2 POP PUSH2 0xF67 DUP3 PUSH2 0xF28 JUMP JUMPDEST PUSH1 0x20 DUP3 ADD SWAP1 POP SWAP2 SWAP1 POP JUMP JUMPDEST PUSH0 PUSH1 0x20 DUP3 ADD SWAP1 POP DUP2 DUP2 SUB PUSH0 DUP4 ADD MSTORE PUSH2 0xF89 DUP2 PUSH2 0xF50 JUMP JUMPDEST SWAP1 POP SWAP2 SWAP1 POP JUMP JUMPDEST PUSH32 0x41726561206D7573742062652067726561746572207468616E20300000000000 PUSH0 DUP3 ADD MSTORE POP JUMP JUMPDEST PUSH0 PUSH2 0xFC4 PUSH1 0x1B DUP4 PUSH2 0xAD7 JUMP JUMPDEST SWAP2 POP PUSH2 0xFCF DUP3 PUSH2 0xF90 JUMP JUMPDEST PUSH1 0x20 DUP3 ADD SWAP1 POP SWAP2 SWAP1 POP JUMP JUMPDEST PUSH0 PUSH1 0x20 DUP3 ADD SWAP1 POP DUP2 DUP2 SUB PUSH0 DUP4 ADD MSTORE PUSH2 0xFF1 DUP2 PUSH2 0xFB8 JUMP JUMPDEST SWAP1 POP SWAP2 SWAP1 POP JUMP JUMPDEST PUSH0 DUP2 SWAP1 POP DUP2 PUSH0 MSTORE PUSH1 0x20 PUSH0 KECCAK256 SWAP1 POP SWAP2 SWAP1 POP JUMP JUMPDEST PUSH0 PUSH1 0x20 PUSH1 0x1F DUP4 ADD DIV SWAP1 POP SWAP2 SWAP1 POP JUMP JUMPDEST PUSH0 DUP3 DUP3 SHL SWAP1 POP SWAP3 SWAP2 POP POP JUMP JUMPDEST PUSH0 PUSH1 0x8 DUP4 MUL PUSH2 0x1054 PUSH32 0xFFFFFFFFFFFFFFFFFFFFFFFFFFFFFFFFFFFFFFFFFFFFFFFFFFFFFFFFFFFFFFFF DUP3 PUSH2 0x1019 JUMP JUMPDEST PUSH2 0x105E DUP7 DUP4 PUSH2 0x1019 JUMP JUMPDEST SWAP6 POP DUP1 NOT DUP5 AND SWAP4 POP DUP1 DUP7 AND DUP5 OR SWAP3 POP POP POP SWAP4 SWAP3 POP POP POP JUMP JUMPDEST PUSH0 PUSH2 0x1090 PUSH2 0x108B PUSH2 0x1086 DUP5 PUSH2 0xA16 JUMP JUMPDEST PUSH2 0xBC4 JUMP JUMPDEST PUSH2 0xA16 JUMP JUMPDEST SWAP1 POP SWAP2 SWAP1 POP JUMP JUMPDEST PUSH0 DUP2 SWAP1 POP SWAP2 SWAP1 POP JUMP JUMPDEST PUSH2 0x10A9 DUP4 PUSH2 0x1076 JUMP JUMPDEST PUSH2 0x10BD PUSH2 0x10B5 DUP3 PUSH2 0x1097 JUMP JUMPDEST DUP5 DUP5 SLOAD PUSH2 0x1025 JUMP JUMPDEST DUP3 SSTORE POP POP POP POP JUMP JUMPDEST PUSH0 SWAP1 JUMP JUMPDEST PUSH2 0x10D1 PUSH2 0x10C5 JUMP JUMPDEST PUSH2 0x10DC DUP2 DUP5 DUP5 PUSH2 0x10A0 JUMP JUMPDEST POP POP POP JUMP JUMPDEST JUMPDEST DUP2 DUP2 LT ISZERO PUSH2 0x10FF JUMPI PUSH2 0x10F4 PUSH0 DUP3 PUSH2 0x10C9 JUMP JUMPDEST PUSH1 0x1 DUP2 ADD SWAP1 POP PUSH2 0x10E2 JUMP JUMPDEST POP POP JUMP JUMPDEST PUSH1 0x1F DUP3 GT ISZERO PUSH2 0x1144 JUMPI PUSH2 0x1115 DUP2 PUSH2 0xFF8 JUMP JUMPDEST PUSH2 0x111E DUP5 PUSH2 0x100A JUMP JUMPDEST DUP2 ADD PUSH1 0x20 DUP6 LT ISZERO PUSH2 0x112D JUMPI DUP2 SWAP1 POP JUMPDEST PUSH2 0x1141 PUSH2 0x1139 DUP6 PUSH2 0x100A JUMP JUMPDEST DUP4 ADD DUP3 PUSH2 0x10E1 JUMP JUMPDEST POP POP JUMPDEST POP POP POP JUMP JUMPDEST PUSH0 DUP3 DUP3 SHR SWAP1 POP SWAP3 SWAP2 POP POP JUMP JUMPDEST PUSH0 PUSH2 0x1164 PUSH0 NOT DUP5 PUSH1 0x8 MUL PUSH2 0x1149 JUMP JUMPDEST NOT DUP1 DUP4 AND SWAP2 POP POP SWAP3 SWAP2 POP POP JUMP JUMPDEST PUSH0 PUSH2 0x117C DUP4 DUP4 PUSH2 0x1155 JUMP JUMPDEST SWAP2 POP DUP3 PUSH1 0x2 MUL DUP3 OR SWAP1 POP SWAP3 SWAP2 POP POP JUMP JUMPDEST PUSH2 0x1195 DUP3 PUSH2 0xACD JUMP JUMPDEST PUSH8 0xFFFFFFFFFFFFFFFF DUP2 GT ISZERO PUSH2 0x11AE JUMPI PUSH2 0x11AD PUSH2 0xC6A JUMP JUMPDEST JUMPDEST PUSH2 0x11B8 DUP3 SLOAD PUSH2 0xE6A JUMP JUMPDEST PUSH2 0x11C3 DUP3 DUP3 DUP6 PUSH2 0x1103 JUMP JUMPDEST PUSH0 PUSH1 0x20 SWAP1 POP PUSH1 0x1F DUP4 GT PUSH1 0x1 DUP2 EQ PUSH2 0x11F4 JUMPI PUSH0 DUP5 ISZERO PUSH2 0x11E2 JUMPI DUP3 DUP8 ADD MLOAD SWAP1 POP JUMPDEST PUSH2 0x11EC DUP6 DUP3 PUSH2 0x1171 JUMP JUMPDEST DUP7 SSTORE POP PUSH2 0x1253 JUMP JUMPDEST PUSH1 0x1F NOT DUP5 AND PUSH2 0x1202 DUP7 PUSH2 0xFF8 JUMP JUMPDEST PUSH0 JUMPDEST DUP3 DUP2 LT ISZERO PUSH2 0x1229 JUMPI DUP5 DUP10 ADD MLOAD DUP3 SSTORE PUSH1 0x1 DUP3 ADD SWAP2 POP PUSH1 0x20 DUP6 ADD SWAP5 POP PUSH1 0x20 DUP2 ADD SWAP1 POP PUSH2 0x1204 JUMP JUMPDEST DUP7 DUP4 LT ISZERO PUSH2 0x1246 JUMPI DUP5 DUP10 ADD MLOAD PUSH2 0x1242 PUSH1 0x1F DUP10 AND DUP3 PUSH2 0x1155 JUMP JUMPDEST DUP4 SSTORE POP JUMPDEST PUSH1 0x1 PUSH1 0x2 DUP9 MUL ADD DUP9 SSTORE POP POP POP JUMPDEST POP POP POP POP POP POP JUMP JUMPDEST PUSH0 PUSH1 0x60 DUP3 ADD SWAP1 POP DUP2 DUP2 SUB PUSH0 DUP4 ADD MSTORE PUSH2 0x1273 DUP2 DUP7 PUSH2 0xB05 JUMP JUMPDEST SWAP1 POP PUSH2 0x1282 PUSH1 0x20 DUP4 ADD DUP6 PUSH2 0xB3D JUMP JUMPDEST DUP2 DUP2 SUB PUSH1 0x40 DUP4 ADD MSTORE PUSH2 0x1294 DUP2 DUP5 PUSH2 0xB05 JUMP JUMPDEST SWAP1 POP SWAP5 SWAP4 POP POP POP POP JUMP JUMPDEST PUSH0 PUSH1 0x40 DUP3 ADD SWAP1 POP PUSH2 0x12B1 PUSH0 DUP4 ADD DUP6 PUSH2 0xABE JUMP JUMPDEST DUP2 DUP2 SUB PUSH1 0x20 DUP4 ADD MSTORE PUSH2 0x12C3 DUP2 DUP5 PUSH2 0xB05 JUMP JUMPDEST SWAP1 POP SWAP4 SWAP3 POP POP POP JUMP JUMPDEST PUSH32 0x4C616E64207469746C6520616C72656164792072656769737465726564000000 PUSH0 DUP3 ADD MSTORE POP JUMP JUMPDEST PUSH0 PUSH2 0x1300 PUSH1 0x1D DUP4 PUSH2 0xAD7 JUMP JUMPDEST SWAP2 POP PUSH2 0x130B DUP3 PUSH2 0x12CC JUMP JUMPDEST PUSH1 0x20 DUP3 ADD SWAP1 POP SWAP2 SWAP1 POP JUMP JUMPDEST PUSH0 PUSH1 0x20 DUP3 ADD SWAP1 POP DUP2 DUP2 SUB PUSH0 DUP4 ADD MSTORE PUSH2 0x132D DUP2 PUSH2 0x12F4 JUMP JUMPDEST SWAP1 POP SWAP2 SWAP1 POP JUMP INVALID LOG2 PUSH5 0x6970667358 0x22 SLT KECCAK256 0xFC PUSH0 CALLDATASIZE 0xBC COINBASE ADDMOD 0x25 0xA9 0xC1 NUMBER 0xDF RETURN 0xEC 0xB2 SWAP6 0xD1 SAR SGT STATICCALL CALLER CALLER ISZERO PUSH27 0x620D92ABE2E227514764736F6C634300081A003360806040523480 ISZERO PUSH1 0xE JUMPI PUSH0 DUP1 REVERT JUMPDEST POP PUSH2 0x855 DUP1 PUSH2 0x1C PUSH0 CODECOPY PUSH0 RETURN INVALID PUSH1 0x80 PUSH1 0x40 MSTORE CALLVALUE DUP1 ISZERO PUSH2 0xF JUMPI PUSH0 DUP1 REVERT JUMPDEST POP PUSH1 0x4 CALLDATASIZE LT PUSH2 0x3F JUMPI PUSH0 CALLDATALOAD PUSH1 0xE0 SHR DUP1 PUSH4 0x3D02D0C9 EQ PUSH2 0x43 JUMPI DUP1 PUSH4 0x75794A3C EQ PUSH2 0x5F JUMPI DUP1 PUSH4 0x80964805 EQ PUSH2 0x7D JUMPI JUMPDEST PUSH0 DUP1 REVERT JUMPDEST PUSH2 0x5D PUSH1 0x4 DUP1 CALLDATASIZE SUB DUP2 ADD SWAP1 PUSH2 0x58 SWAP2 SWAP1 PUSH2 0x382 JUMP JUMPDEST PUSH2 0xAD JUMP JUMPDEST STOP JUMPDEST PUSH2 0x67 PUSH2 0x13B JUMP JUMPDEST PUSH1 0x40 MLOAD PUSH2 0x74 SWAP2 SWAP1 PUSH2 0x3F4 JUMP JUMPDEST PUSH1 0x40 MLOAD DUP1 SWAP2 SUB SWAP1 RETURN JUMPDEST PUSH2 0x97 PUSH1 0x4 DUP1 CALLDATASIZE SUB DUP2 ADD SWAP1 PUSH2 0x92 SWAP2 SWAP1 PUSH2 0x437 JUMP JUMPDEST PUSH2 0x140 JUMP JUMPDEST PUSH1 0x40 MLOAD PUSH2 0xA4 SWAP2 SWAP1 PUSH2 0x4C2 JUMP JUMPDEST PUSH1 0x40 MLOAD DUP1 SWAP2 SUB SWAP1 RETURN JUMPDEST PUSH0 DUP1 SLOAD SWAP1 POP PUSH0 DUP1 DUP2 SLOAD DUP1 SWAP3 SWAP2 SWAP1 PUSH2 0xC3 SWAP1 PUSH2 0x50F JUMP JUMPDEST SWAP2 SWAP1 POP SSTORE POP DUP1 DUP4 PUSH20 0xFFFFFFFFFFFFFFFFFFFFFFFFFFFFFFFFFFFFFFFF AND PUSH32 0xDF92894DC4675A7333CAA5903B69CF5D8E8EC0D3F361C88207B6688E525703BB DUP5 PUSH1 0x40 MLOAD PUSH2 0x10F SWAP2 SWAP1 PUSH2 0x4C2 JUMP JUMPDEST PUSH1 0x40 MLOAD DUP1 SWAP2 SUB SWAP1 LOG3 DUP2 PUSH1 0x1 PUSH0 DUP4 DUP2 MSTORE PUSH1 0x20 ADD SWAP1 DUP2 MSTORE PUSH1 0x20 ADD PUSH0 KECCAK256 SWAP1 DUP2 PUSH2 0x135 SWAP2 SWAP1 PUSH2 0x750 JUMP JUMPDEST POP POP POP POP JUMP JUMPDEST PUSH0 SLOAD DUP2 JUMP JUMPDEST PUSH1 0x1 PUSH1 0x20 MSTORE DUP1 PUSH0 MSTORE PUSH1 0x40 PUSH0 KECCAK256 PUSH0 SWAP2 POP SWAP1 POP DUP1 SLOAD PUSH2 0x15C SWAP1 PUSH2 0x583 JUMP JUMPDEST DUP1 PUSH1 0x1F ADD PUSH1 0x20 DUP1 SWAP2 DIV MUL PUSH1 0x20 ADD PUSH1 0x40 MLOAD SWAP1 DUP2 ADD PUSH1 0x40 MSTORE DUP1 SWAP3 SWAP2 SWAP1 DUP2 DUP2 MSTORE PUSH1 0x20 ADD DUP3 DUP1 SLOAD PUSH2 0x188 SWAP1 PUSH2 0x583 JUMP JUMPDEST DUP1 ISZERO PUSH2 0x1D3 JUMPI DUP1 PUSH1 0x1F LT PUSH2 0x1AA JUMPI PUSH2 0x100 DUP1 DUP4 SLOAD DIV MUL DUP4 MSTORE SWAP2 PUSH1 0x20 ADD SWAP2 PUSH2 0x1D3 JUMP JUMPDEST DUP3 ADD SWAP2 SWAP1 PUSH0 MSTORE PUSH1 0x20 PUSH0 KECCAK256 SWAP1 JUMPDEST DUP2 SLOAD DUP2 MSTORE SWAP1 PUSH1 0x1 ADD SWAP1 PUSH1 0x20 ADD DUP1 DUP4 GT PUSH2 0x1B6 JUMPI DUP3 SWAP1 SUB PUSH1 0x1F AND DUP3 ADD SWAP2 JUMPDEST POP POP POP POP POP DUP2 JUMP JUMPDEST PUSH0 PUSH1 0x40 MLOAD SWAP1 POP SWAP1 JUMP JUMPDEST PUSH0 DUP1 REVERT JUMPDEST PUSH0 DUP1 REVERT JUMPDEST PUSH0 PUSH20 0xFFFFFFFFFFFFFFFFFFFFFFFFFFFFFFFFFFFFFFFF DUP3 AND SWAP1 POP SWAP2 SWAP1 POP JUMP JUMPDEST PUSH0 PUSH2 0x215 DUP3 PUSH2 0x1EC JUMP JUMPDEST SWAP1 POP SWAP2 SWAP1 POP JUMP JUMPDEST PUSH2 0x225 DUP2 PUSH2 0x20B JUMP JUMPDEST DUP2 EQ PUSH2 0x22F JUMPI PUSH0 DUP1 REVERT JUMPDEST POP JUMP JUMPDEST PUSH0 DUP2 CALLDATALOAD SWAP1 POP PUSH2 0x240 DUP2 PUSH2 0x21C JUMP JUMPDEST SWAP3 SWAP2 POP POP JUMP JUMPDEST PUSH0 DUP1 REVERT JUMPDEST PUSH0 DUP1 REVERT JUMPDEST PUSH0 PUSH1 0x1F NOT PUSH1 0x1F DUP4 ADD AND SWAP1 POP SWAP2 SWAP1 POP JUMP JUMPDEST PUSH32 0x4E487B7100000000000000000000000000000000000000000000000000000000 PUSH0 MSTORE PUSH1 0x41 PUSH1 0x4 MSTORE PUSH1 0x24 PUSH0 REVERT JUMPDEST PUSH2 0x294 DUP3 PUSH2 0x24E JUMP JUMPDEST DUP2 ADD DUP2 DUP2 LT PUSH8 0xFFFFFFFFFFFFFFFF DUP3 GT OR ISZERO PUSH2 0x2B3 JUMPI PUSH2 0x2B2 PUSH2 0x25E JUMP JUMPDEST JUMPDEST DUP1 PUSH1 0x40 MSTORE POP POP POP JUMP JUMPDEST PUSH0 PUSH2 0x2C5 PUSH2 0x1DB JUMP JUMPDEST SWAP1 POP PUSH2 0x2D1 DUP3 DUP3 PUSH2 0x28B JUMP JUMPDEST SWAP2 SWAP1 POP JUMP JUMPDEST PUSH0 PUSH8 0xFFFFFFFFFFFFFFFF DUP3 GT ISZERO PUSH2 0x2F0 JUMPI PUSH2 0x2EF PUSH2 0x25E JUMP JUMPDEST JUMPDEST PUSH2 0x2F9 DUP3 PUSH2 0x24E JUMP JUMPDEST SWAP1 POP PUSH1 0x20 DUP2 ADD SWAP1 POP SWAP2 SWAP1 POP JUMP JUMPDEST DUP3 DUP2 DUP4 CALLDATACOPY PUSH0 DUP4 DUP4 ADD MSTORE POP POP POP JUMP JUMPDEST PUSH0 PUSH2 0x326 PUSH2 0x321 DUP5 PUSH2 0x2D6 JUMP JUMPDEST PUSH2 0x2BC JUMP JUMPDEST SWAP1 POP DUP3 DUP2 MSTORE PUSH1 0x20 DUP2 ADD DUP5 DUP5 DUP5 ADD GT ISZERO PUSH2 0x342 JUMPI PUSH2 0x341 PUSH2 0x24A JUMP JUMPDEST JUMPDEST PUSH2 0x34D DUP5 DUP3 DUP6 PUSH2 0x306 JUMP JUMPDEST POP SWAP4 SWAP3 POP POP POP JUMP JUMPDEST PUSH0 DUP3 PUSH1 0x1F DUP4 ADD SLT PUSH2 0x369 JUMPI PUSH2 0x368 PUSH2 0x246 JUMP JUMPDEST JUMPDEST DUP2 CALLDATALOAD PUSH2 0x379 DUP5 DUP3 PUSH1 0x20 DUP7 ADD PUSH2 0x314 JUMP JUMPDEST SWAP2 POP POP SWAP3 SWAP2 POP POP JUMP JUMPDEST PUSH0 DUP1 PUSH1 0x40 DUP4 DUP6 SUB SLT ISZERO PUSH2 0x398 JUMPI PUSH2 0x397 PUSH2 0x1E4 JUMP JUMPDEST JUMPDEST PUSH0 PUSH2 0x3A5 DUP6 DUP3 DUP7 ADD PUSH2 0x232 JUMP JUMPDEST SWAP3 POP POP PUSH1 0x20 DUP4 ADD CALLDATALOAD PUSH8 0xFFFFFFFFFFFFFFFF DUP2 GT ISZERO PUSH2 0x3C6 JUMPI PUSH2 0x3C5 PUSH2 0x1E8 JUMP JUMPDEST JUMPDEST PUSH2 0x3D2 DUP6 DUP3 DUP7 ADD PUSH2 0x355 JUMP JUMPDEST SWAP2 POP POP SWAP3 POP SWAP3 SWAP1 POP JUMP JUMPDEST PUSH0 DUP2 SWAP1 POP SWAP2 SWAP1 POP JUMP JUMPDEST PUSH2 0x3EE DUP2 PUSH2 0x3DC JUMP JUMPDEST DUP3 MSTORE POP POP JUMP JUMPDEST PUSH0 PUSH1 0x20 DUP3 ADD SWAP1 POP PUSH2 0x407 PUSH0 DUP4 ADD DUP5 PUSH2 0x3E5 JUMP JUMPDEST SWAP3 SWAP2 POP POP JUMP JUMPDEST PUSH2 0x416 DUP2 PUSH2 0x3DC JUMP JUMPDEST DUP2 EQ PUSH2 0x420 JUMPI PUSH0 DUP1 REVERT JUMPDEST POP JUMP JUMPDEST PUSH0 DUP2 CALLDATALOAD SWAP1 POP PUSH2 0x431 DUP2 PUSH2 0x40D JUMP JUMPDEST SWAP3 SWAP2 POP POP JUMP JUMPDEST PUSH0 PUSH1 0x20 DUP3 DUP5 SUB SLT ISZERO PUSH2 0x44C JUMPI PUSH2 0x44B PUSH2 0x1E4 JUMP JUMPDEST JUMPDEST PUSH0 PUSH2 0x459 DUP5 DUP3 DUP6 ADD PUSH2 0x423 JUMP JUMPDEST SWAP2 POP POP SWAP3 SWAP2 POP POP JUMP JUMPDEST PUSH0 DUP2 MLOAD SWAP1 POP SWAP2 SWAP1 POP JUMP JUMPDEST PUSH0 DUP3 DUP3 MSTORE PUSH1 0x20 DUP3 ADD SWAP1 POP SWAP3 SWAP2 POP POP JUMP JUMPDEST DUP3 DUP2 DUP4 MCOPY PUSH0 DUP4 DUP4 ADD MSTORE POP POP POP JUMP JUMPDEST PUSH0 PUSH2 0x494 DUP3 PUSH2 0x462 JUMP JUMPDEST PUSH2 0x49E DUP2 DUP6 PUSH2 0x46C JUMP JUMPDEST SWAP4 POP PUSH2 0x4AE DUP2 DUP6 PUSH1 0x20 DUP7 ADD PUSH2 0x47C JUMP JUMPDEST PUSH2 0x4B7 DUP2 PUSH2 0x24E JUMP JUMPDEST DUP5 ADD SWAP2 POP POP SWAP3 SWAP2 POP POP JUMP JUMPDEST PUSH0 PUSH1 0x20 DUP3 ADD SWAP1 POP DUP2 DUP2 SUB PUSH0 DUP4 ADD MSTORE PUSH2 0x4DA DUP2 DUP5 PUSH2 0x48A JUMP JUMPDEST SWAP1 POP SWAP3 SWAP2 POP POP JUMP JUMPDEST PUSH32 0x4E487B7100000000000000000000000000000000000000000000000000000000 PUSH0 MSTORE PUSH1 0x11 PUSH1 0x4 MSTORE PUSH1 0x24 PUSH0 REVERT JUMPDEST PUSH0 PUSH2 0x519 DUP3 PUSH2 0x3DC JUMP JUMPDEST SWAP2 POP PUSH32 0xFFFFFFFFFFFFFFFFFFFFFFFFFFFFFFFFFFFFFFFFFFFFFFFFFFFFFFFFFFFFFFFF DUP3 SUB PUSH2 0x54B JUMPI PUSH2 0x54A PUSH2 0x4E2 JUMP JUMPDEST JUMPDEST PUSH1 0x1 DUP3 ADD SWAP1 POP SWAP2 SWAP1 POP JUMP JUMPDEST PUSH32 0x4E487B7100000000000000000000000000000000000000000000000000000000 PUSH0 MSTORE PUSH1 0x22 PUSH1 0x4 MSTORE PUSH1 0x24 PUSH0 REVERT JUMPDEST PUSH0 PUSH1 0x2 DUP3 DIV SWAP1 POP PUSH1 0x1 DUP3 AND DUP1 PUSH2 0x59A JUMPI PUSH1 0x7F DUP3 AND SWAP2 POP JUMPDEST PUSH1 0x20 DUP3 LT DUP2 SUB PUSH2 0x5AD JUMPI PUSH2 0x5AC PUSH2 0x556 JUMP JUMPDEST JUMPDEST POP SWAP2 SWAP1 POP JUMP JUMPDEST PUSH0 DUP2 SWAP1 POP DUP2 PUSH0 MSTORE PUSH1 0x20 PUSH0 KECCAK256 SWAP1 POP SWAP2 SWAP1 POP JUMP JUMPDEST PUSH0 PUSH1 0x20 PUSH1 0x1F DUP4 ADD DIV SWAP1 POP SWAP2 SWAP1 POP JUMP JUMPDEST PUSH0 DUP3 DUP3 SHL SWAP1 POP SWAP3 SWAP2 POP POP JUMP JUMPDEST PUSH0 PUSH1 0x8 DUP4 MUL PUSH2 0x60F PUSH32 0xFFFFFFFFFFFFFFFFFFFFFFFFFFFFFFFFFFFFFFFFFFFFFFFFFFFFFFFFFFFFFFFF DUP3 PUSH2 0x5D4 JUMP JUMPDEST PUSH2 0x619 DUP7 DUP4 PUSH2 0x5D4 JUMP JUMPDEST SWAP6 POP DUP1 NOT DUP5 AND SWAP4 POP DUP1 DUP7 AND DUP5 OR SWAP3 POP POP POP SWAP4 SWAP3 POP POP POP JUMP JUMPDEST PUSH0 DUP2 SWAP1 POP SWAP2 SWAP1 POP JUMP JUMPDEST PUSH0 PUSH2 0x654 PUSH2 0x64F PUSH2 0x64A DUP5 PUSH2 0x3DC JUMP JUMPDEST PUSH2 0x631 JUMP JUMPDEST PUSH2 0x3DC JUMP JUMPDEST SWAP1 POP SWAP2 SWAP1 POP JUMP JUMPDEST PUSH0 DUP2 SWAP1 POP SWAP2 SWAP1 POP JUMP JUMPDEST PUSH2 0x66D DUP4 PUSH2 0x63A JUMP JUMPDEST PUSH2 0x681 PUSH2 0x679 DUP3 PUSH2 0x65B JUMP JUMPDEST DUP5 DUP5 SLOAD PUSH2 0x5E0 JUMP JUMPDEST DUP3 SSTORE POP POP POP POP JUMP JUMPDEST PUSH0 SWAP1 JUMP JUMPDEST PUSH2 0x695 PUSH2 0x689 JUMP JUMPDEST PUSH2 0x6A0 DUP2 DUP5 DUP5 PUSH2 0x664 JUMP JUMPDEST POP POP POP JUMP JUMPDEST JUMPDEST DUP2 DUP2 LT ISZERO PUSH2 0x6C3 JUMPI PUSH2 0x6B8 PUSH0 DUP3 PUSH2 0x68D JUMP JUMPDEST PUSH1 0x1 DUP2 ADD SWAP1 POP PUSH2 0x6A6 JUMP JUMPDEST POP POP JUMP JUMPDEST PUSH1 0x1F DUP3 GT ISZERO PUSH2 0x708 JUMPI PUSH2 0x6D9 DUP2 PUSH2 0x5B3 JUMP JUMPDEST PUSH2 0x6E2 DUP5 PUSH2 0x5C5 JUMP JUMPDEST DUP2 ADD PUSH1 0x20 DUP6 LT ISZERO PUSH2 0x6F1 JUMPI DUP2 SWAP1 POP JUMPDEST PUSH2 0x705 PUSH2 0x6FD DUP6 PUSH2 0x5C5 JUMP JUMPDEST DUP4 ADD DUP3 PUSH2 0x6A5 JUMP JUMPDEST POP POP JUMPDEST POP POP POP JUMP JUMPDEST PUSH0 DUP3 DUP3 SHR SWAP1 POP SWAP3 SWAP2 POP POP JUMP JUMPDEST PUSH0 PUSH2 0x728 PUSH0 NOT DUP5 PUSH1 0x8 MUL PUSH2 0x70D JUMP JUMPDEST NOT DUP1 DUP4 AND SWAP2 POP POP SWAP3 SWAP2 POP POP JUMP JUMPDEST PUSH0 PUSH2 0x740 DUP4 DUP4 PUSH2 0x719 JUMP JUMPDEST SWAP2 POP DUP3 PUSH1 0x2 MUL DUP3 OR SWAP1 POP SWAP3 SWAP2 POP POP JUMP JUMPDEST PUSH2 0x759 DUP3 PUSH2 0x462 JUMP JUMPDEST PUSH8 0xFFFFFFFFFFFFFFFF DUP2 GT ISZERO PUSH2 0x772 JUMPI PUSH2 0x771 PUSH2 0x25E JUMP JUMPDEST JUMPDEST PUSH2 0x77C DUP3 SLOAD PUSH2 0x583 JUMP JUMPDEST PUSH2 0x787 DUP3 DUP3 DUP6 PUSH2 0x6C7 JUMP JUMPDEST PUSH0 PUSH1 0x20 SWAP1 POP PUSH1 0x1F DUP4 GT PUSH1 0x1 DUP2 EQ PUSH2 0x7B8 JUMPI PUSH0 DUP5 ISZERO PUSH2 0x7A6 JUMPI DUP3 DUP8 ADD MLOAD SWAP1 POP JUMPDEST PUSH2 0x7B0 DUP6 DUP3 PUSH2 0x735 JUMP JUMPDEST DUP7 SSTORE POP PUSH2 0x817 JUMP JUMPDEST PUSH1 0x1F NOT DUP5 AND PUSH2 0x7C6 DUP7 PUSH2 0x5B3 JUMP JUMPDEST PUSH0 JUMPDEST DUP3 DUP2 LT ISZERO PUSH2 0x7ED JUMPI DUP5 DUP10 ADD MLOAD DUP3 SSTORE PUSH1 0x1 DUP3 ADD SWAP2 POP PUSH1 0x20 DUP6 ADD SWAP5 POP PUSH1 0x20 DUP2 ADD SWAP1 POP PUSH2 0x7C8 JUMP JUMPDEST DUP7 DUP4 LT ISZERO PUSH2 0x80A JUMPI DUP5 DUP10 ADD MLOAD PUSH2 0x806 PUSH1 0x1F DUP10 AND DUP3 PUSH2 0x719 JUMP JUMPDEST DUP4 SSTORE POP JUMPDEST PUSH1 0x1 PUSH1 0x2 DUP9 MUL ADD DUP9 SSTORE POP POP POP JUMPDEST POP POP POP POP POP POP JUMP INVALID LOG2 PUSH5 0x6970667358 0x22 SLT KECCAK256 0xCE 0xAC 0xE1 RETURNDATACOPY 0xC9 0xBD PUSH20 0xC08AA4E05663E893359790E71FDB801DF53770B1 SWAP11 PUSH3 0x3826FE PUSH5 0x736F6C6343 STOP ADDMOD BYTE STOP CALLER "
				},
				"gasEstimates": {
					"creation": {
						"codeDepositCost": "994000",
						"executionCost": "infinite",
						"totalCost": "infinite"
					},
					"external": {
						"getLandDetails(uint256)": "infinite",
						"government()": "2508",
						"landTitles(uint256)": "infinite",
						"registerLandTitle(uint256,address,string,uint256,string)": "infinite",
						"titleDeedTokenization()": "infinite",
						"updateLandDetails(uint256,address,string,uint256,string)": "infinite"
					}
				},
				"methodIdentifiers": {
					"getLandDetails(uint256)": "fe0cb7dc",
					"government()": "2672f526",
					"landTitles(uint256)": "0b8d438c",
					"registerLandTitle(uint256,address,string,uint256,string)": "a79a6cc3",
					"titleDeedTokenization()": "40491cca",
					"updateLandDetails(uint256,address,string,uint256,string)": "49f3ef0b"
				}
			},
			"storageLayout": {
				"storage": [
					{
						"astId": 77,
						"contract": "contracts/titledeeds.sol:LandTitleRegistry",
						"label": "landTitles",
						"offset": 0,
						"slot": "0",
						"type": "t_mapping(t_uint256,t_struct(LandTitle)72_storage)"
					},
					{
						"astId": 95,
						"contract": "contracts/titledeeds.sol:LandTitleRegistry",
						"label": "government",
						"offset": 0,
						"slot": "1",
						"type": "t_address"
					},
					{
						"astId": 98,
						"contract": "contracts/titledeeds.sol:LandTitleRegistry",
						"label": "titleDeedTokenization",
						"offset": 0,
						"slot": "2",
						"type": "t_contract(TitleDeedTokenization)61"
					}
				],
				"types": {
					"t_address": {
						"encoding": "inplace",
						"label": "address",
						"numberOfBytes": "20"
					},
					"t_bool": {
						"encoding": "inplace",
						"label": "bool",
						"numberOfBytes": "1"
					},
					"t_contract(TitleDeedTokenization)61": {
						"encoding": "inplace",
						"label": "contract TitleDeedTokenization",
						"numberOfBytes": "20"
					},
					"t_mapping(t_uint256,t_struct(LandTitle)72_storage)": {
						"encoding": "mapping",
						"key": "t_uint256",
						"label": "mapping(uint256 => struct LandTitleRegistry.LandTitle)",
						"numberOfBytes": "32",
						"value": "t_struct(LandTitle)72_storage"
					},
					"t_string_storage": {
						"encoding": "bytes",
						"label": "string",
						"numberOfBytes": "32"
					},
					"t_struct(LandTitle)72_storage": {
						"encoding": "inplace",
						"label": "struct LandTitleRegistry.LandTitle",
						"members": [
							{
								"astId": 63,
								"contract": "contracts/titledeeds.sol:LandTitleRegistry",
								"label": "isRegistered",
								"offset": 0,
								"slot": "0",
								"type": "t_bool"
							},
							{
								"astId": 65,
								"contract": "contracts/titledeeds.sol:LandTitleRegistry",
								"label": "ownerAddress",
								"offset": 1,
								"slot": "0",
								"type": "t_address"
							},
							{
								"astId": 67,
								"contract": "contracts/titledeeds.sol:LandTitleRegistry",
								"label": "location",
								"offset": 0,
								"slot": "1",
								"type": "t_string_storage"
							},
							{
								"astId": 69,
								"contract": "contracts/titledeeds.sol:LandTitleRegistry",
								"label": "area",
								"offset": 0,
								"slot": "2",
								"type": "t_uint256"
							},
							{
								"astId": 71,
								"contract": "contracts/titledeeds.sol:LandTitleRegistry",
								"label": "documentHash",
								"offset": 0,
								"slot": "3",
								"type": "t_string_storage"
							}
						],
						"numberOfBytes": "128"
					},
					"t_uint256": {
						"encoding": "inplace",
						"label": "uint256",
						"numberOfBytes": "32"
					}
				}
			},
			"userdoc": {
				"kind": "user",
				"methods": {},
				"version": 1
			}
		}
	}
}