{
	"data": {
		"bytecode": {
			"linkReferences": {},
			"object": "60a0604052604051610936380380610936833981810160405281019061002591906100bd565b8073ffffffffffffffffffffffffffffffffffffffff1660808173ffffffffffffffffffffffffffffffffffffffff1681525050506100e8565b5f80fd5b5f73ffffffffffffffffffffffffffffffffffffffff82169050919050565b5f61008c82610063565b9050919050565b61009c81610082565b81146100a6575f80fd5b50565b5f815190506100b781610093565b92915050565b5f602082840312156100d2576100d161005f565b5b5f6100df848285016100a9565b91505092915050565b60805161082861010e5f395f818161016d0152818161021c015261024401526108285ff3fe60806040526004361061003e575f3560e01c8063250b1b41146100425780633ffba36f1461007e5780635c60da1b146100ae578063db4c545e146100d8575b5f80fd5b34801561004d575f80fd5b50610068600480360381019061006391906104c1565b610102565b604051610075919061055d565b60405180910390f35b610098600480360381019061009391906104c1565b610128565b6040516100a591906105d1565b60405180910390f35b3480156100b9575f80fd5b506100c261021a565b6040516100cf919061055d565b60405180910390f35b3480156100e3575f80fd5b506100ec61023e565b6040516100f99190610602565b60405180910390f35b5f61011f61010e61023e565b61011986868661026d565b306102a2565b90509392505050565b5f808484905003610165576040517f3c776be100000000000000000000000000000000000000000000000000000000815260040160405180910390fd5b5f8061019c347f000000000000000000000000000000000000000000000000000000000000000061019789898961026d565b6102c7565b9150915080925081610211578273ffffffffffffffffffffffffffffffffffffffff16636f2de70e87876040518363ffffffff1660e01b81526004016101e3929190610791565b5f604051808303815f87803b1580156101fa575f80fd5b505af115801561020c573d5f803e3d5ffd5b505050505b50509392505050565b7f000000000000000000000000000000000000000000000000000000000000000081565b5f6102687f00000000000000000000000000000000000000000000000000000000000000006103ad565b905090565b5f838383604051602001610283939291906107c2565b6040516020818303038152906040528051906020012090509392505050565b5f60ff5f53836035528160601b6001528260155260555f2090505f6035529392505050565b5f806040517fcc3735a920a3ca505d382bbc545af43d6000803e6038573d6000fd5b3d6000f36060527f5155f3363d3d373d3d363d7f360894a13ba1a3210667c828492db98dca3e207660405261600960205284601e5268603d3d8160223d3973600a52605f60212060358201523060581b815260ff815383601582015260558120915060011561039c57813b6103785783605f602188f59150816103735763301164255f526004601cfd5b61039c565b60019250851561039c575f385f3889865af161039b5763b12d13eb5f526004601cfd5b5b806040525f60605250935093915050565b5f6040517fcc3735a920a3ca505d382bbc545af43d6000803e6038573d6000fd5b3d6000f36060527f5155f3363d3d373d3d363d7f360894a13ba1a3210667c828492db98dca3e207660405261600960205282601e5268603d3d8160223d3973600a52605f6021209150806040525f60605250919050565b5f80fd5b5f80fd5b5f80fd5b5f80fd5b5f80fd5b5f8083601f84011261044e5761044d61042d565b5b8235905067ffffffffffffffff81111561046b5761046a610431565b5b60208301915083602082028301111561048757610486610435565b5b9250929050565b5f819050919050565b6104a08161048e565b81146104aa575f80fd5b50565b5f813590506104bb81610497565b92915050565b5f805f604084860312156104d8576104d7610425565b5b5f84013567ffffffffffffffff8111156104f5576104f4610429565b5b61050186828701610439565b93509350506020610514868287016104ad565b9150509250925092565b5f73ffffffffffffffffffffffffffffffffffffffff82169050919050565b5f6105478261051e565b9050919050565b6105578161053d565b82525050565b5f6020820190506105705f83018461054e565b92915050565b5f819050919050565b5f61059961059461058f8461051e565b610576565b61051e565b9050919050565b5f6105aa8261057f565b9050919050565b5f6105bb826105a0565b9050919050565b6105cb816105b1565b82525050565b5f6020820190506105e45f8301846105c2565b92915050565b5f819050919050565b6105fc816105ea565b82525050565b5f6020820190506106155f8301846105f3565b92915050565b5f82825260208201905092915050565b5f819050919050565b5f82825260208201905092915050565b828183375f83830152505050565b5f601f19601f8301169050919050565b5f61066d8385610634565b935061067a838584610644565b61068383610652565b840190509392505050565b5f61069a848484610662565b90509392505050565b5f80fd5b5f80fd5b5f80fd5b5f80833560016020038436030381126106cb576106ca6106ab565b5b83810192508235915060208301925067ffffffffffffffff8211156106f3576106f26106a3565b5b600182023603831315610709576107086106a7565b5b509250929050565b5f602082019050919050565b5f610728838561061b565b93508360208402850161073a8461062b565b805f5b8781101561077f57848403895261075482846106af565b61075f86828461068e565b955061076a84610711565b935060208b019a50505060018101905061073d565b50829750879450505050509392505050565b5f6020820190508181035f8301526107aa81848661071d565b90509392505050565b6107bc8161048e565b82525050565b5f6040820190508181035f8301526107db81858761071d565b90506107ea60208301846107b3565b94935050505056fea26469706673582212203ff8d6c72806237fb14b5573fb43dbb0086c435569c6ad735981f05337d96af164736f6c63430008170033",
			"opcodes": "PUSH1 0xA0 PUSH1 0x40 MSTORE PUSH1 0x40 MLOAD PUSH2 0x936 CODESIZE SUB DUP1 PUSH2 0x936 DUP4 CODECOPY DUP2 DUP2 ADD PUSH1 0x40 MSTORE DUP2 ADD SWAP1 PUSH2 0x25 SWAP2 SWAP1 PUSH2 0xBD JUMP JUMPDEST DUP1 PUSH20 0xFFFFFFFFFFFFFFFFFFFFFFFFFFFFFFFFFFFFFFFF AND PUSH1 0x80 DUP2 PUSH20 0xFFFFFFFFFFFFFFFFFFFFFFFFFFFFFFFFFFFFFFFF AND DUP2 MSTORE POP POP POP PUSH2 0xE8 JUMP JUMPDEST PUSH0 DUP1 REVERT JUMPDEST PUSH0 PUSH20 0xFFFFFFFFFFFFFFFFFFFFFFFFFFFFFFFFFFFFFFFF DUP3 AND SWAP1 POP SWAP2 SWAP1 POP JUMP JUMPDEST PUSH0 PUSH2 0x8C DUP3 PUSH2 0x63 JUMP JUMPDEST SWAP1 POP SWAP2 SWAP1 POP JUMP JUMPDEST PUSH2 0x9C DUP2 PUSH2 0x82 JUMP JUMPDEST DUP2 EQ PUSH2 0xA6 JUMPI PUSH0 DUP1 REVERT JUMPDEST POP JUMP JUMPDEST PUSH0 DUP2 MLOAD SWAP1 POP PUSH2 0xB7 DUP2 PUSH2 0x93 JUMP JUMPDEST SWAP3 SWAP2 POP POP JUMP JUMPDEST PUSH0 PUSH1 0x20 DUP3 DUP5 SUB SLT ISZERO PUSH2 0xD2 JUMPI PUSH2 0xD1 PUSH2 0x5F JUMP JUMPDEST JUMPDEST PUSH0 PUSH2 0xDF DUP5 DUP3 DUP6 ADD PUSH2 0xA9 JUMP JUMPDEST SWAP2 POP POP SWAP3 SWAP2 POP POP JUMP JUMPDEST PUSH1 0x80 MLOAD PUSH2 0x828 PUSH2 0x10E PUSH0 CODECOPY PUSH0 DUP2 DUP2 PUSH2 0x16D ADD MSTORE DUP2 DUP2 PUSH2 0x21C ADD MSTORE PUSH2 0x244 ADD MSTORE PUSH2 0x828 PUSH0 RETURN INVALID PUSH1 0x80 PUSH1 0x40 MSTORE PUSH1 0x4 CALLDATASIZE LT PUSH2 0x3E JUMPI PUSH0 CALLDATALOAD PUSH1 0xE0 SHR DUP1 PUSH4 0x250B1B41 EQ PUSH2 0x42 JUMPI DUP1 PUSH4 0x3FFBA36F EQ PUSH2 0x7E JUMPI DUP1 PUSH4 0x5C60DA1B EQ PUSH2 0xAE JUMPI DUP1 PUSH4 0xDB4C545E EQ PUSH2 0xD8 JUMPI JUMPDEST PUSH0 DUP1 REVERT JUMPDEST CALLVALUE DUP1 ISZERO PUSH2 0x4D JUMPI PUSH0 DUP1 REVERT JUMPDEST POP PUSH2 0x68 PUSH1 0x4 DUP1 CALLDATASIZE SUB DUP2 ADD SWAP1 PUSH2 0x63 SWAP2 SWAP1 PUSH2 0x4C1 JUMP JUMPDEST PUSH2 0x102 JUMP JUMPDEST PUSH1 0x40 MLOAD PUSH2 0x75 SWAP2 SWAP1 PUSH2 0x55D JUMP JUMPDEST PUSH1 0x40 MLOAD DUP1 SWAP2 SUB SWAP1 RETURN JUMPDEST PUSH2 0x98 PUSH1 0x4 DUP1 CALLDATASIZE SUB DUP2 ADD SWAP1 PUSH2 0x93 SWAP2 SWAP1 PUSH2 0x4C1 JUMP JUMPDEST PUSH2 0x128 JUMP JUMPDEST PUSH1 0x40 MLOAD PUSH2 0xA5 SWAP2 SWAP1 PUSH2 0x5D1 JUMP JUMPDEST PUSH1 0x40 MLOAD DUP1 SWAP2 SUB SWAP1 RETURN JUMPDEST CALLVALUE DUP1 ISZERO PUSH2 0xB9 JUMPI PUSH0 DUP1 REVERT JUMPDEST POP PUSH2 0xC2 PUSH2 0x21A JUMP JUMPDEST PUSH1 0x40 MLOAD PUSH2 0xCF SWAP2 SWAP1 PUSH2 0x55D JUMP JUMPDEST PUSH1 0x40 MLOAD DUP1 SWAP2 SUB SWAP1 RETURN JUMPDEST CALLVALUE DUP1 ISZERO PUSH2 0xE3 JUMPI PUSH0 DUP1 REVERT JUMPDEST POP PUSH2 0xEC PUSH2 0x23E JUMP JUMPDEST PUSH1 0x40 MLOAD PUSH2 0xF9 SWAP2 SWAP1 PUSH2 0x602 JUMP JUMPDEST PUSH1 0x40 MLOAD DUP1 SWAP2 SUB SWAP1 RETURN JUMPDEST PUSH0 PUSH2 0x11F PUSH2 0x10E PUSH2 0x23E JUMP JUMPDEST PUSH2 0x119 DUP7 DUP7 DUP7 PUSH2 0x26D JUMP JUMPDEST ADDRESS PUSH2 0x2A2 JUMP JUMPDEST SWAP1 POP SWAP4 SWAP3 POP POP POP JUMP JUMPDEST PUSH0 DUP1 DUP5 DUP5 SWAP1 POP SUB PUSH2 0x165 JUMPI PUSH1 0x40 MLOAD PUSH32 0x3C776BE100000000000000000000000000000000000000000000000000000000 DUP2 MSTORE PUSH1 0x4 ADD PUSH1 0x40 MLOAD DUP1 SWAP2 SUB SWAP1 REVERT JUMPDEST PUSH0 DUP1 PUSH2 0x19C CALLVALUE PUSH32 0x0 PUSH2 0x197 DUP10 DUP10 DUP10 PUSH2 0x26D JUMP JUMPDEST PUSH2 0x2C7 JUMP JUMPDEST SWAP2 POP SWAP2 POP DUP1 SWAP3 POP DUP2 PUSH2 0x211 JUMPI DUP3 PUSH20 0xFFFFFFFFFFFFFFFFFFFFFFFFFFFFFFFFFFFFFFFF AND PUSH4 0x6F2DE70E DUP8 DUP8 PUSH1 0x40 MLOAD DUP4 PUSH4 0xFFFFFFFF AND PUSH1 0xE0 SHL DUP2 MSTORE PUSH1 0x4 ADD PUSH2 0x1E3 SWAP3 SWAP2 SWAP1 PUSH2 0x791 JUMP JUMPDEST PUSH0 PUSH1 0x40 MLOAD DUP1 DUP4 SUB DUP2 PUSH0 DUP8 DUP1 EXTCODESIZE ISZERO DUP1 ISZERO PUSH2 0x1FA JUMPI PUSH0 DUP1 REVERT JUMPDEST POP GAS CALL ISZERO DUP1 ISZERO PUSH2 0x20C JUMPI RETURNDATASIZE PUSH0 DUP1 RETURNDATACOPY RETURNDATASIZE PUSH0 REVERT JUMPDEST POP POP POP POP JUMPDEST POP POP SWAP4 SWAP3 POP POP POP JUMP JUMPDEST PUSH32 0x0 DUP2 JUMP JUMPDEST PUSH0 PUSH2 0x268 PUSH32 0x0 PUSH2 0x3AD JUMP JUMPDEST SWAP1 POP SWAP1 JUMP JUMPDEST PUSH0 DUP4 DUP4 DUP4 PUSH1 0x40 MLOAD PUSH1 0x20 ADD PUSH2 0x283 SWAP4 SWAP3 SWAP2 SWAP1 PUSH2 0x7C2 JUMP JUMPDEST PUSH1 0x40 MLOAD PUSH1 0x20 DUP2 DUP4 SUB SUB DUP2 MSTORE SWAP1 PUSH1 0x40 MSTORE DUP1 MLOAD SWAP1 PUSH1 0x20 ADD KECCAK256 SWAP1 POP SWAP4 SWAP3 POP POP POP JUMP JUMPDEST PUSH0 PUSH1 0xFF PUSH0 MSTORE8 DUP4 PUSH1 0x35 MSTORE DUP2 PUSH1 0x60 SHL PUSH1 0x1 MSTORE DUP3 PUSH1 0x15 MSTORE PUSH1 0x55 PUSH0 KECCAK256 SWAP1 POP PUSH0 PUSH1 0x35 MSTORE SWAP4 SWAP3 POP POP POP JUMP JUMPDEST PUSH0 DUP1 PUSH1 0x40 MLOAD PUSH32 0xCC3735A920A3CA505D382BBC545AF43D6000803E6038573D6000FD5B3D6000F3 PUSH1 0x60 MSTORE PUSH32 0x5155F3363D3D373D3D363D7F360894A13BA1A3210667C828492DB98DCA3E2076 PUSH1 0x40 MSTORE PUSH2 0x6009 PUSH1 0x20 MSTORE DUP5 PUSH1 0x1E MSTORE PUSH9 0x603D3D8160223D3973 PUSH1 0xA MSTORE PUSH1 0x5F PUSH1 0x21 KECCAK256 PUSH1 0x35 DUP3 ADD MSTORE ADDRESS PUSH1 0x58 SHL DUP2 MSTORE PUSH1 0xFF DUP2 MSTORE8 DUP4 PUSH1 0x15 DUP3 ADD MSTORE PUSH1 0x55 DUP2 KECCAK256 SWAP2 POP PUSH1 0x1 ISZERO PUSH2 0x39C JUMPI DUP2 EXTCODESIZE PUSH2 0x378 JUMPI DUP4 PUSH1 0x5F PUSH1 0x21 DUP9 CREATE2 SWAP2 POP DUP2 PUSH2 0x373 JUMPI PUSH4 0x30116425 PUSH0 MSTORE PUSH1 0x4 PUSH1 0x1C REVERT JUMPDEST PUSH2 0x39C JUMP JUMPDEST PUSH1 0x1 SWAP3 POP DUP6 ISZERO PUSH2 0x39C JUMPI PUSH0 CODESIZE PUSH0 CODESIZE DUP10 DUP7 GAS CALL PUSH2 0x39B JUMPI PUSH4 0xB12D13EB PUSH0 MSTORE PUSH1 0x4 PUSH1 0x1C REVERT JUMPDEST JUMPDEST DUP1 PUSH1 0x40 MSTORE PUSH0 PUSH1 0x60 MSTORE POP SWAP4 POP SWAP4 SWAP2 POP POP JUMP JUMPDEST PUSH0 PUSH1 0x40 MLOAD PUSH32 0xCC3735A920A3CA505D382BBC545AF43D6000803E6038573D6000FD5B3D6000F3 PUSH1 0x60 MSTORE PUSH32 0x5155F3363D3D373D3D363D7F360894A13BA1A3210667C828492DB98DCA3E2076 PUSH1 0x40 MSTORE PUSH2 0x6009 PUSH1 0x20 MSTORE DUP3 PUSH1 0x1E MSTORE PUSH9 0x603D3D8160223D3973 PUSH1 0xA MSTORE PUSH1 0x5F PUSH1 0x21 KECCAK256 SWAP2 POP DUP1 PUSH1 0x40 MSTORE PUSH0 PUSH1 0x60 MSTORE POP SWAP2 SWAP1 POP JUMP JUMPDEST PUSH0 DUP1 REVERT JUMPDEST PUSH0 DUP1 REVERT JUMPDEST PUSH0 DUP1 REVERT JUMPDEST PUSH0 DUP1 REVERT JUMPDEST PUSH0 DUP1 REVERT JUMPDEST PUSH0 DUP1 DUP4 PUSH1 0x1F DUP5 ADD SLT PUSH2 0x44E JUMPI PUSH2 0x44D PUSH2 0x42D JUMP JUMPDEST JUMPDEST DUP3 CALLDATALOAD SWAP1 POP PUSH8 0xFFFFFFFFFFFFFFFF DUP2 GT ISZERO PUSH2 0x46B JUMPI PUSH2 0x46A PUSH2 0x431 JUMP JUMPDEST JUMPDEST PUSH1 0x20 DUP4 ADD SWAP2 POP DUP4 PUSH1 0x20 DUP3 MUL DUP4 ADD GT ISZERO PUSH2 0x487 JUMPI PUSH2 0x486 PUSH2 0x435 JUMP JUMPDEST JUMPDEST SWAP3 POP SWAP3 SWAP1 POP JUMP JUMPDEST PUSH0 DUP2 SWAP1 POP SWAP2 SWAP1 POP JUMP JUMPDEST PUSH2 0x4A0 DUP2 PUSH2 0x48E JUMP JUMPDEST DUP2 EQ PUSH2 0x4AA JUMPI PUSH0 DUP1 REVERT JUMPDEST POP JUMP JUMPDEST PUSH0 DUP2 CALLDATALOAD SWAP1 POP PUSH2 0x4BB DUP2 PUSH2 0x497 JUMP JUMPDEST SWAP3 SWAP2 POP POP JUMP JUMPDEST PUSH0 DUP1 PUSH0 PUSH1 0x40 DUP5 DUP7 SUB SLT ISZERO PUSH2 0x4D8 JUMPI PUSH2 0x4D7 PUSH2 0x425 JUMP JUMPDEST JUMPDEST PUSH0 DUP5 ADD CALLDATALOAD PUSH8 0xFFFFFFFFFFFFFFFF DUP2 GT ISZERO PUSH2 0x4F5 JUMPI PUSH2 0x4F4 PUSH2 0x429 JUMP JUMPDEST JUMPDEST PUSH2 0x501 DUP7 DUP3 DUP8 ADD PUSH2 0x439 JUMP JUMPDEST SWAP4 POP SWAP4 POP POP PUSH1 0x20 PUSH2 0x514 DUP7 DUP3 DUP8 ADD PUSH2 0x4AD JUMP JUMPDEST SWAP2 POP POP SWAP3 POP SWAP3 POP SWAP3 JUMP JUMPDEST PUSH0 PUSH20 0xFFFFFFFFFFFFFFFFFFFFFFFFFFFFFFFFFFFFFFFF DUP3 AND SWAP1 POP SWAP2 SWAP1 POP JUMP JUMPDEST PUSH0 PUSH2 0x547 DUP3 PUSH2 0x51E JUMP JUMPDEST SWAP1 POP SWAP2 SWAP1 POP JUMP JUMPDEST PUSH2 0x557 DUP2 PUSH2 0x53D JUMP JUMPDEST DUP3 MSTORE POP POP JUMP JUMPDEST PUSH0 PUSH1 0x20 DUP3 ADD SWAP1 POP PUSH2 0x570 PUSH0 DUP4 ADD DUP5 PUSH2 0x54E JUMP JUMPDEST SWAP3 SWAP2 POP POP JUMP JUMPDEST PUSH0 DUP2 SWAP1 POP SWAP2 SWAP1 POP JUMP JUMPDEST PUSH0 PUSH2 0x599 PUSH2 0x594 PUSH2 0x58F DUP5 PUSH2 0x51E JUMP JUMPDEST PUSH2 0x576 JUMP JUMPDEST PUSH2 0x51E JUMP JUMPDEST SWAP1 POP SWAP2 SWAP1 POP JUMP JUMPDEST PUSH0 PUSH2 0x5AA DUP3 PUSH2 0x57F JUMP JUMPDEST SWAP1 POP SWAP2 SWAP1 POP JUMP JUMPDEST PUSH0 PUSH2 0x5BB DUP3 PUSH2 0x5A0 JUMP JUMPDEST SWAP1 POP SWAP2 SWAP1 POP JUMP JUMPDEST PUSH2 0x5CB DUP2 PUSH2 0x5B1 JUMP JUMPDEST DUP3 MSTORE POP POP JUMP JUMPDEST PUSH0 PUSH1 0x20 DUP3 ADD SWAP1 POP PUSH2 0x5E4 PUSH0 DUP4 ADD DUP5 PUSH2 0x5C2 JUMP JUMPDEST SWAP3 SWAP2 POP POP JUMP JUMPDEST PUSH0 DUP2 SWAP1 POP SWAP2 SWAP1 POP JUMP JUMPDEST PUSH2 0x5FC DUP2 PUSH2 0x5EA JUMP JUMPDEST DUP3 MSTORE POP POP JUMP JUMPDEST PUSH0 PUSH1 0x20 DUP3 ADD SWAP1 POP PUSH2 0x615 PUSH0 DUP4 ADD DUP5 PUSH2 0x5F3 JUMP JUMPDEST SWAP3 SWAP2 POP POP JUMP JUMPDEST PUSH0 DUP3 DUP3 MSTORE PUSH1 0x20 DUP3 ADD SWAP1 POP SWAP3 SWAP2 POP POP JUMP JUMPDEST PUSH0 DUP2 SWAP1 POP SWAP2 SWAP1 POP JUMP JUMPDEST PUSH0 DUP3 DUP3 MSTORE PUSH1 0x20 DUP3 ADD SWAP1 POP SWAP3 SWAP2 POP POP JUMP JUMPDEST DUP3 DUP2 DUP4 CALLDATACOPY PUSH0 DUP4 DUP4 ADD MSTORE POP POP POP JUMP JUMPDEST PUSH0 PUSH1 0x1F NOT PUSH1 0x1F DUP4 ADD AND SWAP1 POP SWAP2 SWAP1 POP JUMP JUMPDEST PUSH0 PUSH2 0x66D DUP4 DUP6 PUSH2 0x634 JUMP JUMPDEST SWAP4 POP PUSH2 0x67A DUP4 DUP6 DUP5 PUSH2 0x644 JUMP JUMPDEST PUSH2 0x683 DUP4 PUSH2 0x652 JUMP JUMPDEST DUP5 ADD SWAP1 POP SWAP4 SWAP3 POP POP POP JUMP JUMPDEST PUSH0 PUSH2 0x69A DUP5 DUP5 DUP5 PUSH2 0x662 JUMP JUMPDEST SWAP1 POP SWAP4 SWAP3 POP POP POP JUMP JUMPDEST PUSH0 DUP1 REVERT JUMPDEST PUSH0 DUP1 REVERT JUMPDEST PUSH0 DUP1 REVERT JUMPDEST PUSH0 DUP1 DUP4 CALLDATALOAD PUSH1 0x1 PUSH1 0x20 SUB DUP5 CALLDATASIZE SUB SUB DUP2 SLT PUSH2 0x6CB JUMPI PUSH2 0x6CA PUSH2 0x6AB JUMP JUMPDEST JUMPDEST DUP4 DUP2 ADD SWAP3 POP DUP3 CALLDATALOAD SWAP2 POP PUSH1 0x20 DUP4 ADD SWAP3 POP PUSH8 0xFFFFFFFFFFFFFFFF DUP3 GT ISZERO PUSH2 0x6F3 JUMPI PUSH2 0x6F2 PUSH2 0x6A3 JUMP JUMPDEST JUMPDEST PUSH1 0x1 DUP3 MUL CALLDATASIZE SUB DUP4 SGT ISZERO PUSH2 0x709 JUMPI PUSH2 0x708 PUSH2 0x6A7 JUMP JUMPDEST JUMPDEST POP SWAP3 POP SWAP3 SWAP1 POP JUMP JUMPDEST PUSH0 PUSH1 0x20 DUP3 ADD SWAP1 POP SWAP2 SWAP1 POP JUMP JUMPDEST PUSH0 PUSH2 0x728 DUP4 DUP6 PUSH2 0x61B JUMP JUMPDEST SWAP4 POP DUP4 PUSH1 0x20 DUP5 MUL DUP6 ADD PUSH2 0x73A DUP5 PUSH2 0x62B JUMP JUMPDEST DUP1 PUSH0 JUMPDEST DUP8 DUP2 LT ISZERO PUSH2 0x77F JUMPI DUP5 DUP5 SUB DUP10 MSTORE PUSH2 0x754 DUP3 DUP5 PUSH2 0x6AF JUMP JUMPDEST PUSH2 0x75F DUP7 DUP3 DUP5 PUSH2 0x68E JUMP JUMPDEST SWAP6 POP PUSH2 0x76A DUP5 PUSH2 0x711 JUMP JUMPDEST SWAP4 POP PUSH1 0x20 DUP12 ADD SWAP11 POP POP POP PUSH1 0x1 DUP2 ADD SWAP1 POP PUSH2 0x73D JUMP JUMPDEST POP DUP3 SWAP8 POP DUP8 SWAP5 POP POP POP POP POP SWAP4 SWAP3 POP POP POP JUMP JUMPDEST PUSH0 PUSH1 0x20 DUP3 ADD SWAP1 POP DUP2 DUP2 SUB PUSH0 DUP4 ADD MSTORE PUSH2 0x7AA DUP2 DUP5 DUP7 PUSH2 0x71D JUMP JUMPDEST SWAP1 POP SWAP4 SWAP3 POP POP POP JUMP JUMPDEST PUSH2 0x7BC DUP2 PUSH2 0x48E JUMP JUMPDEST DUP3 MSTORE POP POP JUMP JUMPDEST PUSH0 PUSH1 0x40 DUP3 ADD SWAP1 POP DUP2 DUP2 SUB PUSH0 DUP4 ADD MSTORE PUSH2 0x7DB DUP2 DUP6 DUP8 PUSH2 0x71D JUMP JUMPDEST SWAP1 POP PUSH2 0x7EA PUSH1 0x20 DUP4 ADD DUP5 PUSH2 0x7B3 JUMP JUMPDEST SWAP5 SWAP4 POP POP POP POP JUMP INVALID LOG2 PUSH5 0x6970667358 0x22 SLT KECCAK256 EXTCODEHASH 0xF8 0xD6 0xC7 0x28 MOD 0x23 PUSH32 0xB14B5573FB43DBB0086C435569C6AD735981F05337D96AF164736F6C63430008 OR STOP CALLER "
		},
		"gasEstimates": {
			"creation": {
				"codeDepositCost": "417600",
				"executionCost": "infinite",
				"totalCost": "infinite"
			},
			"external": {
				"createAccount(bytes[],uint256)": "infinite",
				"getAddress(bytes[],uint256)": "infinite",
				"implementation()": "infinite",
				"initCodeHash()": "infinite"
			},
			"internal": {
				"_getSalt(bytes calldata[] calldata,uint256)": "infinite"
			}
		},
		"methodIdentifiers": {
			"createAccount(bytes[],uint256)": "3ffba36f",
			"getAddress(bytes[],uint256)": "250b1b41",
			"implementation()": "5c60da1b",
			"initCodeHash()": "db4c545e"
		}
	},
	"abi": [
		{
			"inputs": [
				{
					"internalType": "address",
					"name": "implementation_",
					"type": "address"
				}
			],
			"stateMutability": "payable",
			"type": "constructor"
		},
		{
			"inputs": [],
			"name": "OwnerRequired",
			"type": "error"
		},
		{
			"inputs": [
				{
					"internalType": "bytes[]",
					"name": "owners",
					"type": "bytes[]"
				},
				{
					"internalType": "uint256",
					"name": "nonce",
					"type": "uint256"
				}
			],
			"name": "createAccount",
			"outputs": [
				{
					"internalType": "contract CoinbaseSmartWallet",
					"name": "account",
					"type": "address"
				}
			],
			"stateMutability": "payable",
			"type": "function"
		},
		{
			"inputs": [
				{
					"internalType": "bytes[]",
					"name": "owners",
					"type": "bytes[]"
				},
				{
					"internalType": "uint256",
					"name": "nonce",
					"type": "uint256"
				}
			],
			"name": "getAddress",
			"outputs": [
				{
					"internalType": "address",
					"name": "",
					"type": "address"
				}
			],
			"stateMutability": "view",
			"type": "function"
		},
		{
			"inputs": [],
			"name": "implementation",
			"outputs": [
				{
					"internalType": "address",
					"name": "",
					"type": "address"
				}
			],
			"stateMutability": "view",
			"type": "function"
		},
		{
			"inputs": [],
			"name": "initCodeHash",
			"outputs": [
				{
					"internalType": "bytes32",
					"name": "",
					"type": "bytes32"
				}
			],
			"stateMutability": "view",
			"type": "function"
		}
	]
}