{
	"data": {
		"bytecode": {
			"linkReferences": {},
			"object": "60a06040523073ffffffffffffffffffffffffffffffffffffffff166080908152503480156200002d575f80fd5b505f600167ffffffffffffffff8111156200004d576200004c62000452565b5b6040519080825280602002602001820160405280156200008257816020015b60608152602001906001900390816200006c5790505b5090505f604051602001620000989190620004c2565b604051602081830303815290604052815f81518110620000bd57620000bc620004dd565b5b6020026020010181905250620000d981620000e060201b60201c565b5062000a3f565b5f620000f1620002e060201b60201c565b90505f815f015490505f5b8351811015620002d25760208482815181106200011e576200011d620004dd565b5b602002602001015151141580156200015557506040848281518110620001495762000148620004dd565b5b60200260200101515114155b15620001b757838181518110620001715762000170620004dd565b5b60200260200101516040517f4eeab722000000000000000000000000000000000000000000000000000000008152600401620001ae91906200059e565b60405180910390fd5b6020848281518110620001cf57620001ce620004dd565b5b60200260200101515114801562000225575073ffffffffffffffffffffffffffffffffffffffff80168482815181106200020e576200020d620004dd565b5b60200260200101516200022190620005fa565b5f1c115b156200028757838181518110620002415762000240620004dd565b5b60200260200101516040517fbff1ac650000000000000000000000000000000000000000000000000000000081526004016200027e91906200059e565b60405180910390fd5b620002c4848281518110620002a157620002a0620004dd565b5b60200260200101518380620002b6906200069f565b94506200030760201b60201c565b8080600101915050620000fc565b5080825f0181905550505050565b5f7f97e2c6aad4ce5d562ebfaa00db6b9e0fb66ea5d8162ed5b243f51a2e03086f00905090565b62000318826200040c60201b60201c565b156200035d57816040517f8d16255a0000000000000000000000000000000000000000000000000000000081526004016200035491906200059e565b60405180910390fd5b5f6200036e620002e060201b60201c565b9050600181600301846040516200038691906200072b565b90815260200160405180910390205f6101000a81548160ff02191690831515021790555082816002015f8481526020019081526020015f209081620003cc91906200095b565b50817f38109edc26e166b5579352ce56a50813177eb25208fd90d61f2f37838622022084604051620003ff91906200059e565b60405180910390a2505050565b5f6200041d620002e060201b60201c565b600301826040516200043091906200072b565b90815260200160405180910390205f9054906101000a900460ff169050919050565b7f4e487b71000000000000000000000000000000000000000000000000000000005f52604160045260245ffd5b5f73ffffffffffffffffffffffffffffffffffffffff82169050919050565b5f620004aa826200047f565b9050919050565b620004bc816200049e565b82525050565b5f602082019050620004d75f830184620004b1565b92915050565b7f4e487b71000000000000000000000000000000000000000000000000000000005f52603260045260245ffd5b5f81519050919050565b5f82825260208201905092915050565b5f5b838110156200054357808201518184015260208101905062000526565b5f8484015250505050565b5f601f19601f8301169050919050565b5f6200056a826200050a565b62000576818562000514565b93506200058881856020860162000524565b62000593816200054e565b840191505092915050565b5f6020820190508181035f830152620005b881846200055e565b905092915050565b5f819050602082019050919050565b5f819050919050565b5f620005e58251620005cf565b80915050919050565b5f82821b905092915050565b5f62000606826200050a565b826200061284620005c0565b90506200061f81620005d8565b9250602082101562000662576200065d7fffffffffffffffffffffffffffffffffffffffffffffffffffffffffffffffff83602003600802620005ee565b831692505b5050919050565b7f4e487b71000000000000000000000000000000000000000000000000000000005f52601160045260245ffd5b5f819050919050565b5f620006ab8262000696565b91507fffffffffffffffffffffffffffffffffffffffffffffffffffffffffffffffff8203620006e057620006df62000669565b5b600182019050919050565b5f81905092915050565b5f62000701826200050a565b6200070d8185620006eb565b93506200071f81856020860162000524565b80840191505092915050565b5f620007388284620006f5565b915081905092915050565b7f4e487b71000000000000000000000000000000000000000000000000000000005f52602260045260245ffd5b5f60028204905060018216806200078857607f821691505b6020821081036200079e576200079d62000743565b5b50919050565b5f819050815f5260205f209050919050565b5f6020601f8301049050919050565b5f60088302620007f67fffffffffffffffffffffffffffffffffffffffffffffffffffffffffffffffff82620005ee565b620008028683620005ee565b95508019841693508086168417925050509392505050565b5f819050919050565b5f620008436200083d620008378462000696565b6200081a565b62000696565b9050919050565b5f819050919050565b6200085e8362000823565b620008766200086d826200084a565b848454620007c5565b825550505050565b5f90565b6200088c6200087e565b6200089981848462000853565b505050565b5b81811015620008c057620008b45f8262000882565b6001810190506200089f565b5050565b601f8211156200090f57620008d981620007a4565b620008e484620007b6565b81016020851015620008f4578190505b6200090c6200090385620007b6565b8301826200089e565b50505b505050565b5f82821c905092915050565b5f620009315f198460080262000914565b1980831691505092915050565b5f6200094b838362000920565b9150826002028217905092915050565b62000966826200050a565b67ffffffffffffffff81111562000982576200098162000452565b5b6200098e825462000770565b6200099b828285620008c4565b5f60209050601f831160018114620009d1575f8415620009bc578287015190505b620009c885826200093e565b86555062000a37565b601f198416620009e186620007a4565b5f5b8281101562000a0a57848901518255600182019150602085019450602081019050620009e3565b8683101562000a2a578489015162000a26601f89168262000920565b8355505b6001600288020188555050505b505050505050565b6080516154a562000a5f5f395f8181610cb10152610dd601526154a55ff3fe60806040526004361061019f575f3560e01c80635c60da1b116100eb578063a2e1a8d811610089578063b819736711610063578063b8197367146105e3578063ce1506be1461060b578063d948fd2e14610647578063f698da2514610671576101a6565b8063a2e1a8d814610561578063b0d691fe1461059d578063b61d27f6146105c7576101a6565b806388ce4c7c116100c557806388ce4c7c1461049757806389625b57146104c15780638ea69029146104e95780639f9bcb3414610525576101a6565b80635c60da1b146104215780636f2de70e1461044b57806384b0196e14610467576101a6565b80632c2abd1e116101585780633a871cdd116101325780633a871cdd146103635780634f1ef2861461039f5780634f6e7f22146103bb57806352d1902d146103f7576101a6565b80632c2abd1e1461030157806334fcd5be1461031d57806336d9cf9b14610339576101a6565b8063066a1eb7146101d35780630db026221461020f5780630f0f3f24146102395780631626ba7e146102615780631ca5393f1461029d57806329565e3b146102d9576101a6565b366101a657005b5f3560e01c63bc197c81811463f23a6e6182141763150b7a02821417156101d157806020526020603cf35b005b3480156101de575f80fd5b506101f960048036038101906101f49190613b34565b61069b565b6040516102069190613b8c565b60405180910390f35b34801561021a575f80fd5b506102236106f9565b6040516102309190613bbd565b60405180910390f35b348015610244575f80fd5b5061025f600480360381019061025a9190613c30565b61071e565b005b34801561026c575f80fd5b5061028760048036038101906102829190613cbc565b61076f565b6040516102949190613d53565b60405180910390f35b3480156102a8575f80fd5b506102c360048036038101906102be9190613ea4565b6107a9565b6040516102d09190613b8c565b60405180910390f35b3480156102e4575f80fd5b506102ff60048036038101906102fa9190613b34565b6107e5565b005b61031b60048036038101906103169190613f40565b610839565b005b61033760048036038101906103329190613fe0565b61099a565b005b348015610344575f80fd5b5061034d610ad9565b60405161035a9190613bbd565b60405180910390f35b34801561036e575f80fd5b5061038960048036038101906103849190614078565b610aeb565b6040516103969190613bbd565b60405180910390f35b6103b960048036038101906103b491906140e4565b610cae565b005b3480156103c6575f80fd5b506103e160048036038101906103dc9190614141565b610d92565b6040516103ee9190614197565b60405180910390f35b348015610402575f80fd5b5061040b610dd2565b6040516104189190614197565b60405180910390f35b34801561042c575f80fd5b50610435610e34565b60405161044291906141bf565b60405180910390f35b61046560048036038101906104609190613f40565b610e5c565b005b348015610472575f80fd5b5061047b610eb5565b60405161048e9796959493929190614343565b60405180910390f35b3480156104a2575f80fd5b506104ab610f00565b6040516104b89190613bbd565b60405180910390f35b3480156104cc575f80fd5b506104e760048036038101906104e291906143c5565b610f06565b005b3480156104f4575f80fd5b5061050f600480360381019061050a9190614422565b610f5f565b60405161051c919061449f565b60405180910390f35b348015610530575f80fd5b5061054b600480360381019061054691906144e9565b611009565b6040516105589190613b8c565b60405180910390f35b34801561056c575f80fd5b5061058760048036038101906105829190613c30565b6111a5565b6040516105949190613b8c565b60405180910390f35b3480156105a8575f80fd5b506105b1611200565b6040516105be91906141bf565b60405180910390f35b6105e160048036038101906105dc9190614514565b61121b565b005b3480156105ee575f80fd5b50610609600480360381019061060491906143c5565b6112b2565b005b348015610616575f80fd5b50610631600480360381019061062c9190614585565b61131c565b60405161063e9190614197565b60405180910390f35b348015610652575f80fd5b5061065b61132d565b6040516106689190613bbd565b60405180910390f35b34801561067c575f80fd5b5061068561133e565b6040516106929190614197565b60405180910390f35b5f6106a46113b1565b60030183836040516020016106ba9291906145b0565b6040516020818303038152906040526040516106d69190614611565b90815260200160405180910390205f9054906101000a900460ff16905092915050565b5f806107036113b1565b90508060010154815f01546107189190614654565b91505090565b6107266113d8565b61076c8160405160200161073a91906141bf565b6040516020818303038152906040526107516113b1565b5f015f81548092919061076390614687565b9190505561144f565b50565b5f61078361077c8561131c565b848461153b565b1561079757631626ba7e60e01b90506107a2565b63ffffffff60e01b90505b9392505050565b5f6107b26113b1565b600301826040516107c39190614611565b90815260200160405180910390205f9054906101000a900460ff169050919050565b6107ed6113d8565b61083582826040516020016108039291906145b0565b60405160208183030381529060405261081a6113b1565b5f015f81548092919061082c90614687565b9190505561144f565b5050565b610841611200565b73ffffffffffffffffffffffffffffffffffffffff163373ffffffffffffffffffffffffffffffffffffffff16146108a5576040517f82b4290000000000000000000000000000000000000000000000000000000000815260040160405180910390fd5b5f5b8282905081101561099557365f8484848181106108c7576108c66146ce565b5b90506020028101906108d99190614707565b915091505f8282906108eb919061477f565b90506108f681611009565b61093757806040517f3b06e14600000000000000000000000000000000000000000000000000000000815260040161092e9190613d53565b60405180910390fd5b610985305f85858080601f0160208091040260200160405190810160405280939291908181526020018383808284375f81840152601f19601f820116905080830192505050505050506116a7565b50505080806001019150506108a7565b505050565b6109a2611200565b73ffffffffffffffffffffffffffffffffffffffff163373ffffffffffffffffffffffffffffffffffffffff16146109dd576109dc6113d8565b5b5f5b82829050811015610ad457610ac7838383818110610a00576109ff6146ce565b5b9050602002810190610a1291906147dd565b5f016020810190610a239190613c30565b848484818110610a3657610a356146ce565b5b9050602002810190610a4891906147dd565b60200135858585818110610a5f57610a5e6146ce565b5b9050602002810190610a7191906147dd565b8060400190610a809190614707565b8080601f0160208091040260200160405190810160405280939291908181526020018383808284375f81840152601f19601f820116905080830192505050505050506116a7565b80806001019150506109df565b505050565b5f610ae26113b1565b60010154905090565b5f610af4611200565b73ffffffffffffffffffffffffffffffffffffffff163373ffffffffffffffffffffffffffffffffffffffff1614610b58576040517f82b4290000000000000000000000000000000000000000000000000000000000815260040160405180910390fd5b815f60408660200135901c9050632c2abd1e60e01b7bffffffffffffffffffffffffffffffffffffffffffffffffffffffff1916868060600190610b9c9190614707565b90610ba7919061477f565b7bffffffffffffffffffffffffffffffffffffffffffffffffffffffff191603610c2157610bd486610d92565b94506121058114610c1c57806040517f2ef37813000000000000000000000000000000000000000000000000000000008152600401610c139190613bbd565b60405180910390fd5b610c68565b6121058103610c6757806040517f2ef37813000000000000000000000000000000000000000000000000000000008152600401610c5e9190613bbd565b60405180910390fd5b5b610c828587806101400190610c7d9190614707565b61153b565b15610c90575f925050610c96565b60019250505b8015610ca6575f385f3884335af1505b509392505050565b5f7f00000000000000000000000000000000000000000000000000000000000000009050308103610ce657639f03a0265f526004601cfd5b610cef84611727565b8360601b60601c93506352d1902d6001527f360894a13ba1a3210667c828492db98dca3e2076cc3735a920a3ca505d382bbc80602060016004601d895afa5114610d41576355299b496001526004601dfd5b847fbc7cd75a20ee27fd9adebab32041f755214dbc6bffa90cc0225b39da2e5c2d3b5f38a28481558215610d8b57604051838582375f388583895af4610d89573d5f823e3d81fd5b505b5050505050565b5f610d9c82611732565b610da4611200565b604051602001610db5929190614804565b604051602081830303815290604052805190602001209050919050565b5f807f00000000000000000000000000000000000000000000000000000000000000009050308114610e0b57639f03a0265f526004601cfd5b7f360894a13ba1a3210667c828492db98dca3e2076cc3735a920a3ca505d382bbc5f1b91505090565b5f7f360894a13ba1a3210667c828492db98dca3e2076cc3735a920a3ca505d382bbc54905090565b5f610e6561132d565b14610e9c576040517f5daa87a000000000000000000000000000000000000000000000000000000000815260040160405180910390fd5b610eb1828290610eac91906148dc565b61174a565b5050565b5f6060805f805f60607f0f000000000000000000000000000000000000000000000000000000000000009650610ee9611917565b809650819750505046935030925090919293949596565b61210581565b610f0e6113d8565b6001610f186106f9565b03610f4f576040517f948bf89700000000000000000000000000000000000000000000000000000000815260040160405180910390fd5b610f5a83838361198e565b505050565b6060610f696113b1565b6002015f8381526020019081526020015f208054610f869061491d565b80601f0160208091040260200160405190810160405280929190818152602001828054610fb29061491d565b8015610ffd5780601f10610fd457610100808354040283529160200191610ffd565b820191905f5260205f20905b815481529060010190602001808311610fe057829003601f168201915b50505050509050919050565b5f6329565e3b60e01b7bffffffffffffffffffffffffffffffffffffffffffffffffffffffff1916827bffffffffffffffffffffffffffffffffffffffffffffffffffffffff191614806110a15750630f0f3f2460e01b7bffffffffffffffffffffffffffffffffffffffffffffffffffffffff1916827bffffffffffffffffffffffffffffffffffffffffffffffffffffffff1916145b806110f057506389625b5760e01b7bffffffffffffffffffffffffffffffffffffffffffffffffffffffff1916827bffffffffffffffffffffffffffffffffffffffffffffffffffffffff1916145b8061113f575063b819736760e01b7bffffffffffffffffffffffffffffffffffffffffffffffffffffffff1916827bffffffffffffffffffffffffffffffffffffffffffffffffffffffff1916145b8061118e5750634f1ef28660e01b7bffffffffffffffffffffffffffffffffffffffffffffffffffffffff1916827bffffffffffffffffffffffffffffffffffffffffffffffffffffffff1916145b1561119c57600190506111a0565b5f90505b919050565b5f6111ae6113b1565b600301826040516020016111c291906141bf565b6040516020818303038152906040526040516111de9190614611565b90815260200160405180910390205f9054906101000a900460ff169050919050565b5f735ff137d4b0fdcd49dca30c7cf57e578a026d2789905090565b611223611200565b73ffffffffffffffffffffffffffffffffffffffff163373ffffffffffffffffffffffffffffffffffffffff161461125e5761125d6113d8565b5b6112ac848484848080601f0160208091040260200160405190810160405280939291908181526020018383808284375f81840152601f19601f820116905080830192505050505050506116a7565b50505050565b6112ba6113d8565b5f6112c36106f9565b9050600181111561130b57806040517f823f1aa80000000000000000000000000000000000000000000000000000000081526004016113029190613bbd565b60405180910390fd5b61131684848461198e565b50505050565b5f61132682611afb565b9050919050565b5f6113366113b1565b5f0154905090565b5f805f611349611917565b915091507f8b73c3c69bb8fe3d512ecc4cf759cc79239f7b179b0ffacaa9a75d522b39400f82805190602001208280519060200120463060405160200161139495949392919061494d565b604051602081830303815290604052805190602001209250505090565b5f7f97e2c6aad4ce5d562ebfaa00db6b9e0fb66ea5d8162ed5b243f51a2e03086f00905090565b6113e1336111a5565b8061141757503073ffffffffffffffffffffffffffffffffffffffff163373ffffffffffffffffffffffffffffffffffffffff16145b61144d576040517f82b4290000000000000000000000000000000000000000000000000000000000815260040160405180910390fd5b565b611458826107a9565b1561149a57816040517f8d16255a000000000000000000000000000000000000000000000000000000008152600401611491919061449f565b60405180910390fd5b5f6114a36113b1565b9050600181600301846040516114b99190614611565b90815260200160405180910390205f6101000a81548160ff02191690831515021790555082816002015f8481526020019081526020015f2090816114fd9190614b2f565b50817f38109edc26e166b5579352ce56a50813177eb25208fd90d61f2f3783862202208460405161152e919061449f565b60405180910390a2505050565b5f80838381019061154c9190614c6f565b90505f61155b825f0151610f5f565b905060208151036115ed5773ffffffffffffffffffffffffffffffffffffffff80168161158790614cd9565b5f1c11156115cc57806040517fbff1ac650000000000000000000000000000000000000000000000000000000081526004016115c3919061449f565b60405180910390fd5b5f602082015190506115e381888560200151611b3b565b93505050506116a0565b6040815103611663575f808280602001905181019061160c9190614d53565b915091505f84602001518060200190518101906116299190614f72565b90506116578960405160200161163f9190614197565b6040516020818303038152906040525f838686611c3e565b955050505050506116a0565b806040517f4eeab722000000000000000000000000000000000000000000000000000000008152600401611697919061449f565b60405180910390fd5b9392505050565b5f808473ffffffffffffffffffffffffffffffffffffffff1684846040516116cf9190614611565b5f6040518083038185875af1925050503d805f8114611709576040519150601f19603f3d011682016040523d82523d5f602084013e61170e565b606091505b50915091508161172057805160208201fd5b5050505050565b61172f6113d8565b50565b5f61173c8261203d565b805190602001209050919050565b5f6117536113b1565b90505f815f015490505f5b835181101561190957602084828151811061177c5761177b6146ce565b5b602002602001015151141580156117af575060408482815181106117a3576117a26146ce565b5b60200260200101515114155b1561180b578381815181106117c7576117c66146ce565b5b60200260200101516040517f4eeab722000000000000000000000000000000000000000000000000000000008152600401611802919061449f565b60405180910390fd5b60208482815181106118205761181f6146ce565b5b602002602001015151148015611870575073ffffffffffffffffffffffffffffffffffffffff801684828151811061185b5761185a6146ce565b5b602002602001015161186c90614cd9565b5f1c115b156118cc57838181518110611888576118876146ce565b5b60200260200101516040517fbff1ac650000000000000000000000000000000000000000000000000000000081526004016118c3919061449f565b60405180910390fd5b6118fc8482815181106118e2576118e16146ce565b5b602002602001015183806118f590614687565b945061144f565b808060010191505061175e565b5080825f0181905550505050565b6060806040518060400160405280601581526020017f436f696e6261736520536d6172742057616c6c657400000000000000000000008152506040518060400160405280600181526020017f3100000000000000000000000000000000000000000000000000000000000000815250915091509091565b5f61199884610f5f565b90505f8151036119df57836040517f68188e7a0000000000000000000000000000000000000000000000000000000081526004016119d69190613bbd565b60405180910390fd5b82826040516119ef929190614fdd565b6040518091039020818051906020012014611a4757838383836040517f781f2e39000000000000000000000000000000000000000000000000000000008152600401611a3e9493929190615021565b60405180910390fd5b5f611a506113b1565b9050806003018484604051611a66929190614fdd565b90815260200160405180910390205f6101000a81549060ff0219169055806002015f8681526020019081526020015f205f611aa19190613a98565b806001015f815480929190611ab590614687565b9190505550847fcf95bbfe6f870f8cc40482dc3dccdafd268f0e9ce0a4f24ea1bea9be64e505ff8585604051611aec929190615066565b60405180910390a25050505050565b5f611b0461133e565b611b0d83612111565b604051602001611b1e9291906150fc565b604051602081830303815290604052805190602001209050919050565b5f8360601b60601c93508315611c3757604051835f5260208301516040526040835103611ba8576040830151601b8160ff1c016020528060011b60011c6060526020600160805f60015afa805187183d1517611ba557600193505f60605282604052505050611c37565b50505b6041835103611bee5760608301515f1a60205260408301516060526020600160805f60015afa805186183d1517611bec57600192505f606052816040525050611c37565b505b5f60605280604052631626ba7e60e01b808252846004830152602482016040815284516020018060448501828860045afa5060208260443d01868b5afa83835114169450505050505b9392505050565b5f60027fffffffff00000000ffffffffffffffffbce6faada7179e84f3b9cac2fc632551611c6c919061515f565b8460a001511115611c7f575f9050612034565b5f611cad856060015160158760600151611c99919061518f565b87602001516121629092919063ffffffff16565b90507fff1a2a9176d650e4a99dedb58f1793003935130579fe17b5a3f698ac5b00e634818051906020012014611ce6575f915050612034565b5f611cf0886121d7565b604051602001611d00919061523e565b60405160208183030381529060405290505f611d3f876040015183518960400151611d2b919061518f565b89602001516121629092919063ffffffff16565b90508180519060200120818051906020012014611d61575f9350505050612034565b600160f81b7effffffffffffffffffffffffffffffffffffffffffffffffffffffffffffff1916600160f81b885f0151602081518110611da457611da36146ce565b5b602001015160f81c60f81b167effffffffffffffffffffffffffffffffffffffffffffffffffffffffffffff191614611de2575f9350505050612034565b878015611e5e5750600460f81b7effffffffffffffffffffffffffffffffffffffffffffffffffffffffffffff1916600460f81b885f0151602081518110611e2d57611e2c6146ce565b5b602001015160f81c60f81b167effffffffffffffffffffffffffffffffffffffffffffffffffffffffffffff191614155b15611e6e575f9350505050612034565b5f60028860200151604051611e839190614611565b602060405180830381855afa158015611e9e573d5f803e3d5ffd5b5050506040513d601f19601f82011682018060405250810190611ec19190615286565b90505f6002895f015183604051602001611edc9291906152b1565b604051602081830303815290604052604051611ef89190614611565b602060405180830381855afa158015611f13573d5f803e3d5ffd5b5050506040513d601f19601f82011682018060405250810190611f369190615286565b90505f818a608001518b60a001518b8b604051602001611f5a9594939291906152d8565b60405160208183030381529060405290505f8061010073ffffffffffffffffffffffffffffffffffffffff1683604051611f949190614611565b5f60405180830381855afa9150503d805f8114611fcc576040519150601f19603f3d011682016040523d82523d5f602084013e611fd1565b606091505b50915091505f808251119050828015611fe75750805b15612013576001828060200190518101906120029190615329565b149950505050505050505050612034565b612028858e608001518f60a001518f8f612203565b99505050505050505050505b95945050505050565b60605f61204983612383565b90505f836020013590505f61206c8580604001906120679190614707565b612392565b90505f6120878680606001906120829190614707565b612392565b90505f866080013590505f8760a0013590505f8860c0013590505f8960e0013590505f8a610100013590505f6120cc8c8061012001906120c79190614707565b612392565b9050898989898989898989896040516020016120f19a99989796959493929190615354565b6040516020818303038152906040529a5050505050505050505050919050565b5f7f9b493d222105fee7df163ab5d57f0bf1ffd2da04dd5fafbe10b54c41c1adc657826040516020016121459291906145b0565b604051602081830303815290604052805190602001209050919050565b60608351828111612171578092505b83811161217c578093505b828410156121cf5760405191508383038083528486019550601f1980601f8301165b6001156121b857808801518186015281810190508061219e575b505f8260208601015280603f830116840160405250505b509392505050565b60606121fc82604051806060016040528060408152602001615430604091395f6123a8565b9050919050565b5f8085148061223257507fffffffff00000000ffffffffffffffffbce6faada7179e84f3b9cac2fc6325518510155b8061223c57505f84145b8061226757507fffffffff00000000ffffffffffffffffbce6faada7179e84f3b9cac2fc6325518410155b15612274575f905061237a565b61227e8383612537565b61228a575f905061237a565b5f61229485612728565b90505f7fffffffff00000000ffffffffffffffffbce6faada7179e84f3b9cac2fc632551806122c6576122c5615132565b5b82895f1c0990505f7fffffffff00000000ffffffffffffffffbce6faada7179e84f3b9cac2fc632551806122fd576122fc615132565b5b83890990505f61230f878785856127ac565b90507fffffffff00000000ffffffffffffffffbce6faada7179e84f3b9cac2fc632551806123405761233f615132565b5b897fffffffff00000000ffffffffffffffffbce6faada7179e84f3b9cac2fc63255161236c9190614654565b820890505f81149450505050505b95945050505050565b5f808235905080915050919050565b5f60405182808583378082209250505092915050565b60605f8451036123c85760405180602001604052805f8152509050612530565b5f826123f95760036002865160046123e091906153ee565b6123ea919061518f565b6123f4919061515f565b612420565b600360028651612409919061518f565b612413919061515f565b600461241f91906153ee565b5b90505f8167ffffffffffffffff81111561243d5761243c613d80565b5b6040519080825280601f01601f19166020018201604052801561246f5781602001600182028036833780820191505090505b509050600185016020820187885189016020810180515f82525b828410156124e4576003840193508351603f8160121c168701518653600186019550603f81600c1c168701518653600186019550603f8160061c168701518653600186019550603f8116870151865360018601955050612489565b80825289156125245760038c510660018114612507576002811461251a57612522565b603d6001870353603d6002870353612522565b603d60018703535b505b50505050505080925050505b9392505050565b5f7fffffffff00000001000000000000000000000000ffffffffffffffffffffffff8310158061258757507fffffffff00000001000000000000000000000000ffffffffffffffffffffffff8210155b8061259c57505f8314801561259b57505f82145b5b156125a9575f9050612722565b5f7fffffffff00000001000000000000000000000000ffffffffffffffffffffffff806125d9576125d8615132565b5b83840990505f7fffffffff00000001000000000000000000000000ffffffffffffffffffffffff8061260e5761260d615132565b5b7fffffffff00000001000000000000000000000000ffffffffffffffffffffffff8061263d5761263c615132565b5b7fffffffff00000001000000000000000000000000fffffffffffffffffffffffc87097fffffffff00000001000000000000000000000000ffffffffffffffffffffffff8061268f5761268e615132565b5b877fffffffff00000001000000000000000000000000ffffffffffffffffffffffff806126bf576126be615132565b5b898a09090890507fffffffff00000001000000000000000000000000ffffffffffffffffffffffff806126f5576126f4615132565b5b7f5ac635d8aa3a93e7b3ebbd55769886bc651d06b0cc53b0f63bce3c3e27d2604b82089050808214925050505b92915050565b5f60405160208152602080820152602060408201528260608201527fffffffff00000000ffffffffffffffffbce6faada7179e84f3b9cac2fc63254f60808201527fffffffff00000000ffffffffffffffffbce6faada7179e84f3b9cac2fc63255160a082015260208160c08360055f19fa6127a2575f80fd5b8051915050919050565b5f805f805f60ff90505f805f891480156127c557505f88145b156127d8575f96505050505050506132dd565b6128247f6b17d1f2e12c4247f8bce6e563a440f277037d812deb33a0f4a13945d898c2967f4fe342e2fe1a7f9b8ee7eb4a7c0f9e162bce33576b315ececbb6406837bf51f58d8d6132e5565b80925081935050505f8214801561283a57505f81145b156128ba577fffffffff00000000ffffffffffffffffbce6faada7179e84f3b9cac2fc6325518061286e5761286d615132565b5b887fffffffff00000000ffffffffffffffffbce6faada7179e84f3b9cac2fc632551038a0898505f97505f891480156128a657505f88145b156128b9575f96505050505050506132dd565b5b600189841c16600189851c1660011b015b5f81036128ef5760018403935060018a851c1660018a861c1660011b0190506128cb565b50600189841c16600189851c1660011b01955060018603612951577f6b17d1f2e12c4247f8bce6e563a440f277037d812deb33a0f4a13945d898c29696507f4fe342e2fe1a7f9b8ee7eb4a7c0f9e162bce33576b315ececbb6406837bf51f593505b60028603612960578a96508993505b6003860361296f578196508093505b60018303925060019550600194505b827fffffffffffffffffffffffffffffffffffffffffffffffffffffffffffffffff1115613235577fffffffff00000001000000000000000000000000ffffffffffffffffffffffff846002097fffffffff00000001000000000000000000000000ffffffffffffffffffffffff8182097fffffffff00000001000000000000000000000000ffffffffffffffffffffffff818a097fffffffff00000001000000000000000000000000ffffffffffffffffffffffff82840992507fffffffff00000001000000000000000000000000ffffffffffffffffffffffff807fffffffff00000001000000000000000000000000ffffffffffffffffffffffff8b8d087fffffffff00000001000000000000000000000000ffffffffffffffffffffffff8c7fffffffff00000001000000000000000000000000ffffffffffffffffffffffff038e08096003097fffffffff00000001000000000000000000000000ffffffffffffffffffffffff89850998507fffffffff00000001000000000000000000000000ffffffffffffffffffffffff8a840999507fffffffff00000001000000000000000000000000ffffffffffffffffffffffff80837fffffffff00000001000000000000000000000000fffffffffffffffffffffffd097fffffffff00000001000000000000000000000000ffffffffffffffffffffffff838409089a507fffffffff00000001000000000000000000000000ffffffffffffffffffffffff80837fffffffff00000001000000000000000000000000ffffffffffffffffffffffff038d08820992507fffffffff00000001000000000000000000000000ffffffffffffffffffffffff837fffffffff00000001000000000000000000000000ffffffffffffffffffffffff8a870908975060018d881c1660018d891c1660011b01905080612c5a57877fffffffff00000001000000000000000000000000ffffffffffffffffffffffff0397505050505061322a565b60018103612ca9577f6b17d1f2e12c4247f8bce6e563a440f277037d812deb33a0f4a13945d898c29693507f4fe342e2fe1a7f9b8ee7eb4a7c0f9e162bce33576b315ececbb6406837bf51f592505b60028103612cb8578e93508d92505b60038103612cc7578593508492505b89612ce357839a5082975060019950600198505050505061322a565b7fffffffff00000001000000000000000000000000ffffffffffffffffffffffff887fffffffff00000001000000000000000000000000ffffffffffffffffffffffff8b8609087fffffffff00000001000000000000000000000000ffffffffffffffffffffffff8c7fffffffff00000001000000000000000000000000ffffffffffffffffffffffff037fffffffff00000001000000000000000000000000ffffffffffffffffffffffff8d8809089350806130235783613022577fffffffff00000001000000000000000000000000ffffffffffffffffffffffff897fffffffff00000001000000000000000000000000fffffffffffffffffffffffd0994507fffffffff00000001000000000000000000000000ffffffffffffffffffffffff85860993507fffffffff00000001000000000000000000000000ffffffffffffffffffffffff848d0992507fffffffff00000001000000000000000000000000ffffffffffffffffffffffff84860994507fffffffff00000001000000000000000000000000ffffffffffffffffffffffff808c7fffffffff00000001000000000000000000000000ffffffffffffffffffffffff038e087fffffffff00000001000000000000000000000000ffffffffffffffffffffffff8d8f080990507fffffffff00000001000000000000000000000000ffffffffffffffffffffffff8160030991507fffffffff00000001000000000000000000000000ffffffffffffffffffffffff8a860999507fffffffff00000001000000000000000000000000ffffffffffffffffffffffff8b85099a507fffffffff00000001000000000000000000000000ffffffffffffffffffffffff80847fffffffff00000001000000000000000000000000fffffffffffffffffffffffd097fffffffff00000001000000000000000000000000ffffffffffffffffffffffff848509089b507fffffffff00000001000000000000000000000000ffffffffffffffffffffffff808d7fffffffff00000001000000000000000000000000ffffffffffffffffffffffff038508830993507fffffffff00000001000000000000000000000000ffffffffffffffffffffffff808a870985089850505050505061322a565b5b7fffffffff00000001000000000000000000000000ffffffffffffffffffffffff84850991507fffffffff00000001000000000000000000000000ffffffffffffffffffffffff8483097fffffffff00000001000000000000000000000000ffffffffffffffffffffffff838d099b507fffffffff00000001000000000000000000000000ffffffffffffffffffffffff818c099a507fffffffff00000001000000000000000000000000ffffffffffffffffffffffff838e097fffffffff00000001000000000000000000000000ffffffffffffffffffffffff80827fffffffff00000001000000000000000000000000fffffffffffffffffffffffd097fffffffff00000001000000000000000000000000ffffffffffffffffffffffff847fffffffff00000001000000000000000000000000ffffffffffffffffffffffff037fffffffff00000001000000000000000000000000ffffffffffffffffffffffff878809080893507fffffffff00000001000000000000000000000000ffffffffffffffffffffffff80838d097fffffffff00000001000000000000000000000000ffffffffffffffffffffffff857fffffffff00000001000000000000000000000000ffffffffffffffffffffffff887fffffffff00000001000000000000000000000000ffffffffffffffffffffffff03860809089a50839d50505050505050505b60018303925061297e565b60405186606082015260208152602080820152602060408201527fffffffff00000001000000000000000000000000fffffffffffffffffffffffd60808201527fffffffff00000001000000000000000000000000ffffffffffffffffffffffff60a082015260208160c08360055f19fa6132ae575f80fd5b7fffffffff00000001000000000000000000000000ffffffffffffffffffffffff815189099750505050505050505b949350505050565b5f805f806132f38888613392565b15613305578585935093505050613389565b61330f8686613392565b15613321578787935093505050613389565b858814801561332f57508487145b1561335657613341888860018061339e565b809450819550829a50839b5050505050613376565b61336588886001808a8a613626565b809450819550829a50839b50505050505b6133828888848461392a565b9350935050505b94509492505050565b5f808214905092915050565b5f805f807fffffffff00000001000000000000000000000000ffffffffffffffffffffffff8760020993507fffffffff00000001000000000000000000000000ffffffffffffffffffffffff84850991507fffffffff00000001000000000000000000000000ffffffffffffffffffffffff82890990507fffffffff00000001000000000000000000000000ffffffffffffffffffffffff82850992507fffffffff00000001000000000000000000000000ffffffffffffffffffffffff86830991507fffffffff00000001000000000000000000000000ffffffffffffffffffffffff807fffffffff00000001000000000000000000000000ffffffffffffffffffffffff888b087fffffffff00000001000000000000000000000000ffffffffffffffffffffffff897fffffffff00000001000000000000000000000000ffffffffffffffffffffffff038c080960030995507fffffffff00000001000000000000000000000000ffffffffffffffffffffffff80827fffffffff00000001000000000000000000000000fffffffffffffffffffffffd097fffffffff00000001000000000000000000000000ffffffffffffffffffffffff8889090893507fffffffff00000001000000000000000000000000ffffffffffffffffffffffff80857fffffffff00000001000000000000000000000000ffffffffffffffffffffffff038308870997507fffffffff00000001000000000000000000000000ffffffffffffffffffffffff85840990507fffffffff00000001000000000000000000000000ffffffffffffffffffffffff808885097fffffffff00000001000000000000000000000000ffffffffffffffffffffffff0389089250945094509450949050565b5f805f805f8903613643578585600180935093509350935061391d565b887fffffffff00000001000000000000000000000000ffffffffffffffffffffffff0398507fffffffff00000001000000000000000000000000ffffffffffffffffffffffff897fffffffff00000001000000000000000000000000ffffffffffffffffffffffff8988090894507fffffffff00000001000000000000000000000000ffffffffffffffffffffffff8a7fffffffff00000001000000000000000000000000ffffffffffffffffffffffff037fffffffff00000001000000000000000000000000ffffffffffffffffffffffff8a89090895507fffffffff00000001000000000000000000000000ffffffffffffffffffffffff86870993507fffffffff00000001000000000000000000000000ffffffffffffffffffffffff86850992507fffffffff00000001000000000000000000000000ffffffffffffffffffffffff84890991507fffffffff00000001000000000000000000000000ffffffffffffffffffffffff83880990507fffffffff00000001000000000000000000000000ffffffffffffffffffffffff848b0997507fffffffff00000001000000000000000000000000ffffffffffffffffffffffff80897fffffffff00000001000000000000000000000000fffffffffffffffffffffffd097fffffffff00000001000000000000000000000000ffffffffffffffffffffffff857fffffffff00000001000000000000000000000000ffffffffffffffffffffffff037fffffffff00000001000000000000000000000000ffffffffffffffffffffffff898a09080893507fffffffff00000001000000000000000000000000ffffffffffffffffffffffff80848b097fffffffff00000001000000000000000000000000ffffffffffffffffffffffff877fffffffff00000001000000000000000000000000ffffffffffffffffffffffff887fffffffff00000001000000000000000000000000ffffffffffffffffffffffff038d08090892505b9650965096509692505050565b5f805f61393684613a14565b90507fffffffff00000001000000000000000000000000ffffffffffffffffffffffff8061396757613966615132565b5b81870991505f7fffffffff00000001000000000000000000000000ffffffffffffffffffffffff8061399c5761399b615132565b5b82870990507fffffffff00000001000000000000000000000000ffffffffffffffffffffffff806139d0576139cf615132565b5b81820991507fffffffff00000001000000000000000000000000ffffffffffffffffffffffff80613a0457613a03615132565b5b8289099350505094509492505050565b5f60405160208152602080820152602060408201528260608201527fffffffff00000001000000000000000000000000fffffffffffffffffffffffd60808201527fffffffff00000001000000000000000000000000ffffffffffffffffffffffff60a082015260208160c08360055f19fa613a8e575f80fd5b8051915050919050565b508054613aa49061491d565b5f825580601f10613ab55750613ad2565b601f0160209004905f5260205f2090810190613ad19190613ad5565b5b50565b5b80821115613aec575f815f905550600101613ad6565b5090565b5f604051905090565b5f80fd5b5f80fd5b5f819050919050565b613b1381613b01565b8114613b1d575f80fd5b50565b5f81359050613b2e81613b0a565b92915050565b5f8060408385031215613b4a57613b49613af9565b5b5f613b5785828601613b20565b9250506020613b6885828601613b20565b9150509250929050565b5f8115159050919050565b613b8681613b72565b82525050565b5f602082019050613b9f5f830184613b7d565b92915050565b5f819050919050565b613bb781613ba5565b82525050565b5f602082019050613bd05f830184613bae565b92915050565b5f73ffffffffffffffffffffffffffffffffffffffff82169050919050565b5f613bff82613bd6565b9050919050565b613c0f81613bf5565b8114613c19575f80fd5b50565b5f81359050613c2a81613c06565b92915050565b5f60208284031215613c4557613c44613af9565b5b5f613c5284828501613c1c565b91505092915050565b5f80fd5b5f80fd5b5f80fd5b5f8083601f840112613c7c57613c7b613c5b565b5b8235905067ffffffffffffffff811115613c9957613c98613c5f565b5b602083019150836001820283011115613cb557613cb4613c63565b5b9250929050565b5f805f60408486031215613cd357613cd2613af9565b5b5f613ce086828701613b20565b935050602084013567ffffffffffffffff811115613d0157613d00613afd565b5b613d0d86828701613c67565b92509250509250925092565b5f7fffffffff0000000000000000000000000000000000000000000000000000000082169050919050565b613d4d81613d19565b82525050565b5f602082019050613d665f830184613d44565b92915050565b5f80fd5b5f601f19601f8301169050919050565b7f4e487b71000000000000000000000000000000000000000000000000000000005f52604160045260245ffd5b613db682613d70565b810181811067ffffffffffffffff82111715613dd557613dd4613d80565b5b80604052505050565b5f613de7613af0565b9050613df38282613dad565b919050565b5f67ffffffffffffffff821115613e1257613e11613d80565b5b613e1b82613d70565b9050602081019050919050565b828183375f83830152505050565b5f613e48613e4384613df8565b613dde565b905082815260208101848484011115613e6457613e63613d6c565b5b613e6f848285613e28565b509392505050565b5f82601f830112613e8b57613e8a613c5b565b5b8135613e9b848260208601613e36565b91505092915050565b5f60208284031215613eb957613eb8613af9565b5b5f82013567ffffffffffffffff811115613ed657613ed5613afd565b5b613ee284828501613e77565b91505092915050565b5f8083601f840112613f0057613eff613c5b565b5b8235905067ffffffffffffffff811115613f1d57613f1c613c5f565b5b602083019150836020820283011115613f3957613f38613c63565b5b9250929050565b5f8060208385031215613f5657613f55613af9565b5b5f83013567ffffffffffffffff811115613f7357613f72613afd565b5b613f7f85828601613eeb565b92509250509250929050565b5f8083601f840112613fa057613f9f613c5b565b5b8235905067ffffffffffffffff811115613fbd57613fbc613c5f565b5b602083019150836020820283011115613fd957613fd8613c63565b5b9250929050565b5f8060208385031215613ff657613ff5613af9565b5b5f83013567ffffffffffffffff81111561401357614012613afd565b5b61401f85828601613f8b565b92509250509250929050565b5f80fd5b5f61016082840312156140455761404461402b565b5b81905092915050565b61405781613ba5565b8114614061575f80fd5b50565b5f813590506140728161404e565b92915050565b5f805f6060848603121561408f5761408e613af9565b5b5f84013567ffffffffffffffff8111156140ac576140ab613afd565b5b6140b88682870161402f565b93505060206140c986828701613b20565b92505060406140da86828701614064565b9150509250925092565b5f805f604084860312156140fb576140fa613af9565b5b5f61410886828701613c1c565b935050602084013567ffffffffffffffff81111561412957614128613afd565b5b61413586828701613c67565b92509250509250925092565b5f6020828403121561415657614155613af9565b5b5f82013567ffffffffffffffff81111561417357614172613afd565b5b61417f8482850161402f565b91505092915050565b61419181613b01565b82525050565b5f6020820190506141aa5f830184614188565b92915050565b6141b981613bf5565b82525050565b5f6020820190506141d25f8301846141b0565b92915050565b5f7fff0000000000000000000000000000000000000000000000000000000000000082169050919050565b61420c816141d8565b82525050565b5f81519050919050565b5f82825260208201905092915050565b5f5b8381101561424957808201518184015260208101905061422e565b5f8484015250505050565b5f61425e82614212565b614268818561421c565b935061427881856020860161422c565b61428181613d70565b840191505092915050565b5f81519050919050565b5f82825260208201905092915050565b5f819050602082019050919050565b6142be81613ba5565b82525050565b5f6142cf83836142b5565b60208301905092915050565b5f602082019050919050565b5f6142f18261428c565b6142fb8185614296565b9350614306836142a6565b805f5b8381101561433657815161431d88826142c4565b9750614328836142db565b925050600181019050614309565b5085935050505092915050565b5f60e0820190506143565f83018a614203565b81810360208301526143688189614254565b9050818103604083015261437c8188614254565b905061438b6060830187613bae565b61439860808301866141b0565b6143a560a0830185614188565b81810360c08301526143b781846142e7565b905098975050505050505050565b5f805f604084860312156143dc576143db613af9565b5b5f6143e986828701614064565b935050602084013567ffffffffffffffff81111561440a57614409613afd565b5b61441686828701613c67565b92509250509250925092565b5f6020828403121561443757614436613af9565b5b5f61444484828501614064565b91505092915050565b5f81519050919050565b5f82825260208201905092915050565b5f6144718261444d565b61447b8185614457565b935061448b81856020860161422c565b61449481613d70565b840191505092915050565b5f6020820190508181035f8301526144b78184614467565b905092915050565b6144c881613d19565b81146144d2575f80fd5b50565b5f813590506144e3816144bf565b92915050565b5f602082840312156144fe576144fd613af9565b5b5f61450b848285016144d5565b91505092915050565b5f805f806060858703121561452c5761452b613af9565b5b5f61453987828801613c1c565b945050602061454a87828801614064565b935050604085013567ffffffffffffffff81111561456b5761456a613afd565b5b61457787828801613c67565b925092505092959194509250565b5f6020828403121561459a57614599613af9565b5b5f6145a784828501613b20565b91505092915050565b5f6040820190506145c35f830185614188565b6145d06020830184614188565b9392505050565b5f81905092915050565b5f6145eb8261444d565b6145f581856145d7565b935061460581856020860161422c565b80840191505092915050565b5f61461c82846145e1565b915081905092915050565b7f4e487b71000000000000000000000000000000000000000000000000000000005f52601160045260245ffd5b5f61465e82613ba5565b915061466983613ba5565b925082820390508181111561468157614680614627565b5b92915050565b5f61469182613ba5565b91507fffffffffffffffffffffffffffffffffffffffffffffffffffffffffffffffff82036146c3576146c2614627565b5b600182019050919050565b7f4e487b71000000000000000000000000000000000000000000000000000000005f52603260045260245ffd5b5f80fd5b5f80fd5b5f80fd5b5f8083356001602003843603038112614723576147226146fb565b5b80840192508235915067ffffffffffffffff821115614745576147446146ff565b5b60208301925060018202360383131561476157614760614703565b5b509250929050565b5f82905092915050565b5f82821b905092915050565b5f61478a8383614769565b826147958135613d19565b925060048210156147d5576147d07fffffffff0000000000000000000000000000000000000000000000000000000083600403600802614773565b831692505b505092915050565b5f823560016060038336030381126147f8576147f76146fb565b5b80830191505092915050565b5f6040820190506148175f830185614188565b61482460208301846141b0565b9392505050565b5f67ffffffffffffffff82111561484557614844613d80565b5b602082029050602081019050919050565b5f6148686148638461482b565b613dde565b9050808382526020820190506020840283018581111561488b5761488a613c63565b5b835b818110156148d257803567ffffffffffffffff8111156148b0576148af613c5b565b5b8086016148bd8982613e77565b8552602085019450505060208101905061488d565b5050509392505050565b5f6148e8368484614856565b905092915050565b7f4e487b71000000000000000000000000000000000000000000000000000000005f52602260045260245ffd5b5f600282049050600182168061493457607f821691505b602082108103614947576149466148f0565b5b50919050565b5f60a0820190506149605f830188614188565b61496d6020830187614188565b61497a6040830186614188565b6149876060830185613bae565b61499460808301846141b0565b9695505050505050565b5f819050815f5260205f209050919050565b5f6020601f8301049050919050565b5f600883026149ee7fffffffffffffffffffffffffffffffffffffffffffffffffffffffffffffffff82614773565b6149f88683614773565b95508019841693508086168417925050509392505050565b5f819050919050565b5f614a33614a2e614a2984613ba5565b614a10565b613ba5565b9050919050565b5f819050919050565b614a4c83614a19565b614a60614a5882614a3a565b8484546149bf565b825550505050565b5f90565b614a74614a68565b614a7f818484614a43565b505050565b5b81811015614aa257614a975f82614a6c565b600181019050614a85565b5050565b601f821115614ae757614ab88161499e565b614ac1846149b0565b81016020851015614ad0578190505b614ae4614adc856149b0565b830182614a84565b50505b505050565b5f82821c905092915050565b5f614b075f1984600802614aec565b1980831691505092915050565b5f614b1f8383614af8565b9150826002028217905092915050565b614b388261444d565b67ffffffffffffffff811115614b5157614b50613d80565b5b614b5b825461491d565b614b66828285614aa6565b5f60209050601f831160018114614b97575f8415614b85578287015190505b614b8f8582614b14565b865550614bf6565b601f198416614ba58661499e565b5f5b82811015614bcc57848901518255600182019150602085019450602081019050614ba7565b86831015614be95784890151614be5601f891682614af8565b8355505b6001600288020188555050505b505050505050565b5f80fd5b5f80fd5b5f60408284031215614c1b57614c1a614bfe565b5b614c256040613dde565b90505f614c3484828501614064565b5f83015250602082013567ffffffffffffffff811115614c5757614c56614c02565b5b614c6384828501613e77565b60208301525092915050565b5f60208284031215614c8457614c83613af9565b5b5f82013567ffffffffffffffff811115614ca157614ca0613afd565b5b614cad84828501614c06565b91505092915050565b5f819050602082019050919050565b5f614cd08251613b01565b80915050919050565b5f614ce38261444d565b82614ced84614cb6565b9050614cf881614cc5565b92506020821015614d3857614d337fffffffffffffffffffffffffffffffffffffffffffffffffffffffffffffffff83602003600802614773565b831692505b5050919050565b5f81519050614d4d8161404e565b92915050565b5f8060408385031215614d6957614d68613af9565b5b5f614d7685828601614d3f565b9250506020614d8785828601614d3f565b9150509250929050565b5f614da3614d9e84613df8565b613dde565b905082815260208101848484011115614dbf57614dbe613d6c565b5b614dca84828561422c565b509392505050565b5f82601f830112614de657614de5613c5b565b5b8151614df6848260208601614d91565b91505092915050565b5f67ffffffffffffffff821115614e1957614e18613d80565b5b614e2282613d70565b9050602081019050919050565b5f614e41614e3c84614dff565b613dde565b905082815260208101848484011115614e5d57614e5c613d6c565b5b614e6884828561422c565b509392505050565b5f82601f830112614e8457614e83613c5b565b5b8151614e94848260208601614e2f565b91505092915050565b5f60c08284031215614eb257614eb1614bfe565b5b614ebc60c0613dde565b90505f82015167ffffffffffffffff811115614edb57614eda614c02565b5b614ee784828501614dd2565b5f83015250602082015167ffffffffffffffff811115614f0a57614f09614c02565b5b614f1684828501614e70565b6020830152506040614f2a84828501614d3f565b6040830152506060614f3e84828501614d3f565b6060830152506080614f5284828501614d3f565b60808301525060a0614f6684828501614d3f565b60a08301525092915050565b5f60208284031215614f8757614f86613af9565b5b5f82015167ffffffffffffffff811115614fa457614fa3613afd565b5b614fb084828501614e9d565b91505092915050565b5f614fc483856145d7565b9350614fd1838584613e28565b82840190509392505050565b5f614fe9828486614fb9565b91508190509392505050565b5f6150008385614457565b935061500d838584613e28565b61501683613d70565b840190509392505050565b5f6060820190506150345f830187613bae565b8181036020830152615047818587614ff5565b9050818103604083015261505b8184614467565b905095945050505050565b5f6020820190508181035f83015261507f818486614ff5565b90509392505050565b5f81905092915050565b7f19010000000000000000000000000000000000000000000000000000000000005f82015250565b5f6150c6600283615088565b91506150d182615092565b600282019050919050565b5f819050919050565b6150f66150f182613b01565b6150dc565b82525050565b5f615106826150ba565b915061511282856150e5565b60208201915061512282846150e5565b6020820191508190509392505050565b7f4e487b71000000000000000000000000000000000000000000000000000000005f52601260045260245ffd5b5f61516982613ba5565b915061517483613ba5565b92508261518457615183615132565b5b828204905092915050565b5f61519982613ba5565b91506151a483613ba5565b92508282019050808211156151bc576151bb614627565b5b92915050565b7f226368616c6c656e6765223a2200000000000000000000000000000000000000815250565b5f6151f282614212565b6151fc8185615088565b935061520c81856020860161422c565b80840191505092915050565b7f2200000000000000000000000000000000000000000000000000000000000000815250565b5f615248826151c2565b600d8201915061525882846151e8565b915061526382615218565b60018201915081905092915050565b5f8151905061528081613b0a565b92915050565b5f6020828403121561529b5761529a613af9565b5b5f6152a884828501615272565b91505092915050565b5f6152bc82856145e1565b91506152c882846150e5565b6020820191508190509392505050565b5f60a0820190506152eb5f830188614188565b6152f86020830187613bae565b6153056040830186613bae565b6153126060830185613bae565b61531f6080830184613bae565b9695505050505050565b5f6020828403121561533e5761533d613af9565b5b5f61534b84828501614d3f565b91505092915050565b5f610140820190506153685f83018d6141b0565b615375602083018c613bae565b615382604083018b614188565b61538f606083018a614188565b61539c6080830189613bae565b6153a960a0830188613bae565b6153b660c0830187613bae565b6153c360e0830186613bae565b6153d1610100830185613bae565b6153df610120830184614188565b9b9a5050505050505050505050565b5f6153f882613ba5565b915061540383613ba5565b925082820261541181613ba5565b9150828204841483151761542857615427614627565b5b509291505056fe4142434445464748494a4b4c4d4e4f505152535455565758595a6162636465666768696a6b6c6d6e6f707172737475767778797a303132333435363738392d5fa26469706673582212202ee74e58538d46dc9296347a0b092d3bcfaf58f5ee0b8ed7b309ee545c495f8f64736f6c63430008170033",
			"opcodes": "PUSH1 0xA0 PUSH1 0x40 MSTORE ADDRESS PUSH20 0xFFFFFFFFFFFFFFFFFFFFFFFFFFFFFFFFFFFFFFFF AND PUSH1 0x80 SWAP1 DUP2 MSTORE POP CALLVALUE DUP1 ISZERO PUSH3 0x2D JUMPI PUSH0 DUP1 REVERT JUMPDEST POP PUSH0 PUSH1 0x1 PUSH8 0xFFFFFFFFFFFFFFFF DUP2 GT ISZERO PUSH3 0x4D JUMPI PUSH3 0x4C PUSH3 0x452 JUMP JUMPDEST JUMPDEST PUSH1 0x40 MLOAD SWAP1 DUP1 DUP3 MSTORE DUP1 PUSH1 0x20 MUL PUSH1 0x20 ADD DUP3 ADD PUSH1 0x40 MSTORE DUP1 ISZERO PUSH3 0x82 JUMPI DUP2 PUSH1 0x20 ADD JUMPDEST PUSH1 0x60 DUP2 MSTORE PUSH1 0x20 ADD SWAP1 PUSH1 0x1 SWAP1 SUB SWAP1 DUP2 PUSH3 0x6C JUMPI SWAP1 POP JUMPDEST POP SWAP1 POP PUSH0 PUSH1 0x40 MLOAD PUSH1 0x20 ADD PUSH3 0x98 SWAP2 SWAP1 PUSH3 0x4C2 JUMP JUMPDEST PUSH1 0x40 MLOAD PUSH1 0x20 DUP2 DUP4 SUB SUB DUP2 MSTORE SWAP1 PUSH1 0x40 MSTORE DUP2 PUSH0 DUP2 MLOAD DUP2 LT PUSH3 0xBD JUMPI PUSH3 0xBC PUSH3 0x4DD JUMP JUMPDEST JUMPDEST PUSH1 0x20 MUL PUSH1 0x20 ADD ADD DUP2 SWAP1 MSTORE POP PUSH3 0xD9 DUP2 PUSH3 0xE0 PUSH1 0x20 SHL PUSH1 0x20 SHR JUMP JUMPDEST POP PUSH3 0xA3F JUMP JUMPDEST PUSH0 PUSH3 0xF1 PUSH3 0x2E0 PUSH1 0x20 SHL PUSH1 0x20 SHR JUMP JUMPDEST SWAP1 POP PUSH0 DUP2 PUSH0 ADD SLOAD SWAP1 POP PUSH0 JUMPDEST DUP4 MLOAD DUP2 LT ISZERO PUSH3 0x2D2 JUMPI PUSH1 0x20 DUP5 DUP3 DUP2 MLOAD DUP2 LT PUSH3 0x11E JUMPI PUSH3 0x11D PUSH3 0x4DD JUMP JUMPDEST JUMPDEST PUSH1 0x20 MUL PUSH1 0x20 ADD ADD MLOAD MLOAD EQ ISZERO DUP1 ISZERO PUSH3 0x155 JUMPI POP PUSH1 0x40 DUP5 DUP3 DUP2 MLOAD DUP2 LT PUSH3 0x149 JUMPI PUSH3 0x148 PUSH3 0x4DD JUMP JUMPDEST JUMPDEST PUSH1 0x20 MUL PUSH1 0x20 ADD ADD MLOAD MLOAD EQ ISZERO JUMPDEST ISZERO PUSH3 0x1B7 JUMPI DUP4 DUP2 DUP2 MLOAD DUP2 LT PUSH3 0x171 JUMPI PUSH3 0x170 PUSH3 0x4DD JUMP JUMPDEST JUMPDEST PUSH1 0x20 MUL PUSH1 0x20 ADD ADD MLOAD PUSH1 0x40 MLOAD PUSH32 0x4EEAB72200000000000000000000000000000000000000000000000000000000 DUP2 MSTORE PUSH1 0x4 ADD PUSH3 0x1AE SWAP2 SWAP1 PUSH3 0x59E JUMP JUMPDEST PUSH1 0x40 MLOAD DUP1 SWAP2 SUB SWAP1 REVERT JUMPDEST PUSH1 0x20 DUP5 DUP3 DUP2 MLOAD DUP2 LT PUSH3 0x1CF JUMPI PUSH3 0x1CE PUSH3 0x4DD JUMP JUMPDEST JUMPDEST PUSH1 0x20 MUL PUSH1 0x20 ADD ADD MLOAD MLOAD EQ DUP1 ISZERO PUSH3 0x225 JUMPI POP PUSH20 0xFFFFFFFFFFFFFFFFFFFFFFFFFFFFFFFFFFFFFFFF DUP1 AND DUP5 DUP3 DUP2 MLOAD DUP2 LT PUSH3 0x20E JUMPI PUSH3 0x20D PUSH3 0x4DD JUMP JUMPDEST JUMPDEST PUSH1 0x20 MUL PUSH1 0x20 ADD ADD MLOAD PUSH3 0x221 SWAP1 PUSH3 0x5FA JUMP JUMPDEST PUSH0 SHR GT JUMPDEST ISZERO PUSH3 0x287 JUMPI DUP4 DUP2 DUP2 MLOAD DUP2 LT PUSH3 0x241 JUMPI PUSH3 0x240 PUSH3 0x4DD JUMP JUMPDEST JUMPDEST PUSH1 0x20 MUL PUSH1 0x20 ADD ADD MLOAD PUSH1 0x40 MLOAD PUSH32 0xBFF1AC6500000000000000000000000000000000000000000000000000000000 DUP2 MSTORE PUSH1 0x4 ADD PUSH3 0x27E SWAP2 SWAP1 PUSH3 0x59E JUMP JUMPDEST PUSH1 0x40 MLOAD DUP1 SWAP2 SUB SWAP1 REVERT JUMPDEST PUSH3 0x2C4 DUP5 DUP3 DUP2 MLOAD DUP2 LT PUSH3 0x2A1 JUMPI PUSH3 0x2A0 PUSH3 0x4DD JUMP JUMPDEST JUMPDEST PUSH1 0x20 MUL PUSH1 0x20 ADD ADD MLOAD DUP4 DUP1 PUSH3 0x2B6 SWAP1 PUSH3 0x69F JUMP JUMPDEST SWAP5 POP PUSH3 0x307 PUSH1 0x20 SHL PUSH1 0x20 SHR JUMP JUMPDEST DUP1 DUP1 PUSH1 0x1 ADD SWAP2 POP POP PUSH3 0xFC JUMP JUMPDEST POP DUP1 DUP3 PUSH0 ADD DUP2 SWAP1 SSTORE POP POP POP POP JUMP JUMPDEST PUSH0 PUSH32 0x97E2C6AAD4CE5D562EBFAA00DB6B9E0FB66EA5D8162ED5B243F51A2E03086F00 SWAP1 POP SWAP1 JUMP JUMPDEST PUSH3 0x318 DUP3 PUSH3 0x40C PUSH1 0x20 SHL PUSH1 0x20 SHR JUMP JUMPDEST ISZERO PUSH3 0x35D JUMPI DUP2 PUSH1 0x40 MLOAD PUSH32 0x8D16255A00000000000000000000000000000000000000000000000000000000 DUP2 MSTORE PUSH1 0x4 ADD PUSH3 0x354 SWAP2 SWAP1 PUSH3 0x59E JUMP JUMPDEST PUSH1 0x40 MLOAD DUP1 SWAP2 SUB SWAP1 REVERT JUMPDEST PUSH0 PUSH3 0x36E PUSH3 0x2E0 PUSH1 0x20 SHL PUSH1 0x20 SHR JUMP JUMPDEST SWAP1 POP PUSH1 0x1 DUP2 PUSH1 0x3 ADD DUP5 PUSH1 0x40 MLOAD PUSH3 0x386 SWAP2 SWAP1 PUSH3 0x72B JUMP JUMPDEST SWAP1 DUP2 MSTORE PUSH1 0x20 ADD PUSH1 0x40 MLOAD DUP1 SWAP2 SUB SWAP1 KECCAK256 PUSH0 PUSH2 0x100 EXP DUP2 SLOAD DUP2 PUSH1 0xFF MUL NOT AND SWAP1 DUP4 ISZERO ISZERO MUL OR SWAP1 SSTORE POP DUP3 DUP2 PUSH1 0x2 ADD PUSH0 DUP5 DUP2 MSTORE PUSH1 0x20 ADD SWAP1 DUP2 MSTORE PUSH1 0x20 ADD PUSH0 KECCAK256 SWAP1 DUP2 PUSH3 0x3CC SWAP2 SWAP1 PUSH3 0x95B JUMP JUMPDEST POP DUP2 PUSH32 0x38109EDC26E166B5579352CE56A50813177EB25208FD90D61F2F378386220220 DUP5 PUSH1 0x40 MLOAD PUSH3 0x3FF SWAP2 SWAP1 PUSH3 0x59E JUMP JUMPDEST PUSH1 0x40 MLOAD DUP1 SWAP2 SUB SWAP1 LOG2 POP POP POP JUMP JUMPDEST PUSH0 PUSH3 0x41D PUSH3 0x2E0 PUSH1 0x20 SHL PUSH1 0x20 SHR JUMP JUMPDEST PUSH1 0x3 ADD DUP3 PUSH1 0x40 MLOAD PUSH3 0x430 SWAP2 SWAP1 PUSH3 0x72B JUMP JUMPDEST SWAP1 DUP2 MSTORE PUSH1 0x20 ADD PUSH1 0x40 MLOAD DUP1 SWAP2 SUB SWAP1 KECCAK256 PUSH0 SWAP1 SLOAD SWAP1 PUSH2 0x100 EXP SWAP1 DIV PUSH1 0xFF AND SWAP1 POP SWAP2 SWAP1 POP JUMP JUMPDEST PUSH32 0x4E487B7100000000000000000000000000000000000000000000000000000000 PUSH0 MSTORE PUSH1 0x41 PUSH1 0x4 MSTORE PUSH1 0x24 PUSH0 REVERT JUMPDEST PUSH0 PUSH20 0xFFFFFFFFFFFFFFFFFFFFFFFFFFFFFFFFFFFFFFFF DUP3 AND SWAP1 POP SWAP2 SWAP1 POP JUMP JUMPDEST PUSH0 PUSH3 0x4AA DUP3 PUSH3 0x47F JUMP JUMPDEST SWAP1 POP SWAP2 SWAP1 POP JUMP JUMPDEST PUSH3 0x4BC DUP2 PUSH3 0x49E JUMP JUMPDEST DUP3 MSTORE POP POP JUMP JUMPDEST PUSH0 PUSH1 0x20 DUP3 ADD SWAP1 POP PUSH3 0x4D7 PUSH0 DUP4 ADD DUP5 PUSH3 0x4B1 JUMP JUMPDEST SWAP3 SWAP2 POP POP JUMP JUMPDEST PUSH32 0x4E487B7100000000000000000000000000000000000000000000000000000000 PUSH0 MSTORE PUSH1 0x32 PUSH1 0x4 MSTORE PUSH1 0x24 PUSH0 REVERT JUMPDEST PUSH0 DUP2 MLOAD SWAP1 POP SWAP2 SWAP1 POP JUMP JUMPDEST PUSH0 DUP3 DUP3 MSTORE PUSH1 0x20 DUP3 ADD SWAP1 POP SWAP3 SWAP2 POP POP JUMP JUMPDEST PUSH0 JUMPDEST DUP4 DUP2 LT ISZERO PUSH3 0x543 JUMPI DUP1 DUP3 ADD MLOAD DUP2 DUP5 ADD MSTORE PUSH1 0x20 DUP2 ADD SWAP1 POP PUSH3 0x526 JUMP JUMPDEST PUSH0 DUP5 DUP5 ADD MSTORE POP POP POP POP JUMP JUMPDEST PUSH0 PUSH1 0x1F NOT PUSH1 0x1F DUP4 ADD AND SWAP1 POP SWAP2 SWAP1 POP JUMP JUMPDEST PUSH0 PUSH3 0x56A DUP3 PUSH3 0x50A JUMP JUMPDEST PUSH3 0x576 DUP2 DUP6 PUSH3 0x514 JUMP JUMPDEST SWAP4 POP PUSH3 0x588 DUP2 DUP6 PUSH1 0x20 DUP7 ADD PUSH3 0x524 JUMP JUMPDEST PUSH3 0x593 DUP2 PUSH3 0x54E JUMP JUMPDEST DUP5 ADD SWAP2 POP POP SWAP3 SWAP2 POP POP JUMP JUMPDEST PUSH0 PUSH1 0x20 DUP3 ADD SWAP1 POP DUP2 DUP2 SUB PUSH0 DUP4 ADD MSTORE PUSH3 0x5B8 DUP2 DUP5 PUSH3 0x55E JUMP JUMPDEST SWAP1 POP SWAP3 SWAP2 POP POP JUMP JUMPDEST PUSH0 DUP2 SWAP1 POP PUSH1 0x20 DUP3 ADD SWAP1 POP SWAP2 SWAP1 POP JUMP JUMPDEST PUSH0 DUP2 SWAP1 POP SWAP2 SWAP1 POP JUMP JUMPDEST PUSH0 PUSH3 0x5E5 DUP3 MLOAD PUSH3 0x5CF JUMP JUMPDEST DUP1 SWAP2 POP POP SWAP2 SWAP1 POP JUMP JUMPDEST PUSH0 DUP3 DUP3 SHL SWAP1 POP SWAP3 SWAP2 POP POP JUMP JUMPDEST PUSH0 PUSH3 0x606 DUP3 PUSH3 0x50A JUMP JUMPDEST DUP3 PUSH3 0x612 DUP5 PUSH3 0x5C0 JUMP JUMPDEST SWAP1 POP PUSH3 0x61F DUP2 PUSH3 0x5D8 JUMP JUMPDEST SWAP3 POP PUSH1 0x20 DUP3 LT ISZERO PUSH3 0x662 JUMPI PUSH3 0x65D PUSH32 0xFFFFFFFFFFFFFFFFFFFFFFFFFFFFFFFFFFFFFFFFFFFFFFFFFFFFFFFFFFFFFFFF DUP4 PUSH1 0x20 SUB PUSH1 0x8 MUL PUSH3 0x5EE JUMP JUMPDEST DUP4 AND SWAP3 POP JUMPDEST POP POP SWAP2 SWAP1 POP JUMP JUMPDEST PUSH32 0x4E487B7100000000000000000000000000000000000000000000000000000000 PUSH0 MSTORE PUSH1 0x11 PUSH1 0x4 MSTORE PUSH1 0x24 PUSH0 REVERT JUMPDEST PUSH0 DUP2 SWAP1 POP SWAP2 SWAP1 POP JUMP JUMPDEST PUSH0 PUSH3 0x6AB DUP3 PUSH3 0x696 JUMP JUMPDEST SWAP2 POP PUSH32 0xFFFFFFFFFFFFFFFFFFFFFFFFFFFFFFFFFFFFFFFFFFFFFFFFFFFFFFFFFFFFFFFF DUP3 SUB PUSH3 0x6E0 JUMPI PUSH3 0x6DF PUSH3 0x669 JUMP JUMPDEST JUMPDEST PUSH1 0x1 DUP3 ADD SWAP1 POP SWAP2 SWAP1 POP JUMP JUMPDEST PUSH0 DUP2 SWAP1 POP SWAP3 SWAP2 POP POP JUMP JUMPDEST PUSH0 PUSH3 0x701 DUP3 PUSH3 0x50A JUMP JUMPDEST PUSH3 0x70D DUP2 DUP6 PUSH3 0x6EB JUMP JUMPDEST SWAP4 POP PUSH3 0x71F DUP2 DUP6 PUSH1 0x20 DUP7 ADD PUSH3 0x524 JUMP JUMPDEST DUP1 DUP5 ADD SWAP2 POP POP SWAP3 SWAP2 POP POP JUMP JUMPDEST PUSH0 PUSH3 0x738 DUP3 DUP5 PUSH3 0x6F5 JUMP JUMPDEST SWAP2 POP DUP2 SWAP1 POP SWAP3 SWAP2 POP POP JUMP JUMPDEST PUSH32 0x4E487B7100000000000000000000000000000000000000000000000000000000 PUSH0 MSTORE PUSH1 0x22 PUSH1 0x4 MSTORE PUSH1 0x24 PUSH0 REVERT JUMPDEST PUSH0 PUSH1 0x2 DUP3 DIV SWAP1 POP PUSH1 0x1 DUP3 AND DUP1 PUSH3 0x788 JUMPI PUSH1 0x7F DUP3 AND SWAP2 POP JUMPDEST PUSH1 0x20 DUP3 LT DUP2 SUB PUSH3 0x79E JUMPI PUSH3 0x79D PUSH3 0x743 JUMP JUMPDEST JUMPDEST POP SWAP2 SWAP1 POP JUMP JUMPDEST PUSH0 DUP2 SWAP1 POP DUP2 PUSH0 MSTORE PUSH1 0x20 PUSH0 KECCAK256 SWAP1 POP SWAP2 SWAP1 POP JUMP JUMPDEST PUSH0 PUSH1 0x20 PUSH1 0x1F DUP4 ADD DIV SWAP1 POP SWAP2 SWAP1 POP JUMP JUMPDEST PUSH0 PUSH1 0x8 DUP4 MUL PUSH3 0x7F6 PUSH32 0xFFFFFFFFFFFFFFFFFFFFFFFFFFFFFFFFFFFFFFFFFFFFFFFFFFFFFFFFFFFFFFFF DUP3 PUSH3 0x5EE JUMP JUMPDEST PUSH3 0x802 DUP7 DUP4 PUSH3 0x5EE JUMP JUMPDEST SWAP6 POP DUP1 NOT DUP5 AND SWAP4 POP DUP1 DUP7 AND DUP5 OR SWAP3 POP POP POP SWAP4 SWAP3 POP POP POP JUMP JUMPDEST PUSH0 DUP2 SWAP1 POP SWAP2 SWAP1 POP JUMP JUMPDEST PUSH0 PUSH3 0x843 PUSH3 0x83D PUSH3 0x837 DUP5 PUSH3 0x696 JUMP JUMPDEST PUSH3 0x81A JUMP JUMPDEST PUSH3 0x696 JUMP JUMPDEST SWAP1 POP SWAP2 SWAP1 POP JUMP JUMPDEST PUSH0 DUP2 SWAP1 POP SWAP2 SWAP1 POP JUMP JUMPDEST PUSH3 0x85E DUP4 PUSH3 0x823 JUMP JUMPDEST PUSH3 0x876 PUSH3 0x86D DUP3 PUSH3 0x84A JUMP JUMPDEST DUP5 DUP5 SLOAD PUSH3 0x7C5 JUMP JUMPDEST DUP3 SSTORE POP POP POP POP JUMP JUMPDEST PUSH0 SWAP1 JUMP JUMPDEST PUSH3 0x88C PUSH3 0x87E JUMP JUMPDEST PUSH3 0x899 DUP2 DUP5 DUP5 PUSH3 0x853 JUMP JUMPDEST POP POP POP JUMP JUMPDEST JUMPDEST DUP2 DUP2 LT ISZERO PUSH3 0x8C0 JUMPI PUSH3 0x8B4 PUSH0 DUP3 PUSH3 0x882 JUMP JUMPDEST PUSH1 0x1 DUP2 ADD SWAP1 POP PUSH3 0x89F JUMP JUMPDEST POP POP JUMP JUMPDEST PUSH1 0x1F DUP3 GT ISZERO PUSH3 0x90F JUMPI PUSH3 0x8D9 DUP2 PUSH3 0x7A4 JUMP JUMPDEST PUSH3 0x8E4 DUP5 PUSH3 0x7B6 JUMP JUMPDEST DUP2 ADD PUSH1 0x20 DUP6 LT ISZERO PUSH3 0x8F4 JUMPI DUP2 SWAP1 POP JUMPDEST PUSH3 0x90C PUSH3 0x903 DUP6 PUSH3 0x7B6 JUMP JUMPDEST DUP4 ADD DUP3 PUSH3 0x89E JUMP JUMPDEST POP POP JUMPDEST POP POP POP JUMP JUMPDEST PUSH0 DUP3 DUP3 SHR SWAP1 POP SWAP3 SWAP2 POP POP JUMP JUMPDEST PUSH0 PUSH3 0x931 PUSH0 NOT DUP5 PUSH1 0x8 MUL PUSH3 0x914 JUMP JUMPDEST NOT DUP1 DUP4 AND SWAP2 POP POP SWAP3 SWAP2 POP POP JUMP JUMPDEST PUSH0 PUSH3 0x94B DUP4 DUP4 PUSH3 0x920 JUMP JUMPDEST SWAP2 POP DUP3 PUSH1 0x2 MUL DUP3 OR SWAP1 POP SWAP3 SWAP2 POP POP JUMP JUMPDEST PUSH3 0x966 DUP3 PUSH3 0x50A JUMP JUMPDEST PUSH8 0xFFFFFFFFFFFFFFFF DUP2 GT ISZERO PUSH3 0x982 JUMPI PUSH3 0x981 PUSH3 0x452 JUMP JUMPDEST JUMPDEST PUSH3 0x98E DUP3 SLOAD PUSH3 0x770 JUMP JUMPDEST PUSH3 0x99B DUP3 DUP3 DUP6 PUSH3 0x8C4 JUMP JUMPDEST PUSH0 PUSH1 0x20 SWAP1 POP PUSH1 0x1F DUP4 GT PUSH1 0x1 DUP2 EQ PUSH3 0x9D1 JUMPI PUSH0 DUP5 ISZERO PUSH3 0x9BC JUMPI DUP3 DUP8 ADD MLOAD SWAP1 POP JUMPDEST PUSH3 0x9C8 DUP6 DUP3 PUSH3 0x93E JUMP JUMPDEST DUP7 SSTORE POP PUSH3 0xA37 JUMP JUMPDEST PUSH1 0x1F NOT DUP5 AND PUSH3 0x9E1 DUP7 PUSH3 0x7A4 JUMP JUMPDEST PUSH0 JUMPDEST DUP3 DUP2 LT ISZERO PUSH3 0xA0A JUMPI DUP5 DUP10 ADD MLOAD DUP3 SSTORE PUSH1 0x1 DUP3 ADD SWAP2 POP PUSH1 0x20 DUP6 ADD SWAP5 POP PUSH1 0x20 DUP2 ADD SWAP1 POP PUSH3 0x9E3 JUMP JUMPDEST DUP7 DUP4 LT ISZERO PUSH3 0xA2A JUMPI DUP5 DUP10 ADD MLOAD PUSH3 0xA26 PUSH1 0x1F DUP10 AND DUP3 PUSH3 0x920 JUMP JUMPDEST DUP4 SSTORE POP JUMPDEST PUSH1 0x1 PUSH1 0x2 DUP9 MUL ADD DUP9 SSTORE POP POP POP JUMPDEST POP POP POP POP POP POP JUMP JUMPDEST PUSH1 0x80 MLOAD PUSH2 0x54A5 PUSH3 0xA5F PUSH0 CODECOPY PUSH0 DUP2 DUP2 PUSH2 0xCB1 ADD MSTORE PUSH2 0xDD6 ADD MSTORE PUSH2 0x54A5 PUSH0 RETURN INVALID PUSH1 0x80 PUSH1 0x40 MSTORE PUSH1 0x4 CALLDATASIZE LT PUSH2 0x19F JUMPI PUSH0 CALLDATALOAD PUSH1 0xE0 SHR DUP1 PUSH4 0x5C60DA1B GT PUSH2 0xEB JUMPI DUP1 PUSH4 0xA2E1A8D8 GT PUSH2 0x89 JUMPI DUP1 PUSH4 0xB8197367 GT PUSH2 0x63 JUMPI DUP1 PUSH4 0xB8197367 EQ PUSH2 0x5E3 JUMPI DUP1 PUSH4 0xCE1506BE EQ PUSH2 0x60B JUMPI DUP1 PUSH4 0xD948FD2E EQ PUSH2 0x647 JUMPI DUP1 PUSH4 0xF698DA25 EQ PUSH2 0x671 JUMPI PUSH2 0x1A6 JUMP JUMPDEST DUP1 PUSH4 0xA2E1A8D8 EQ PUSH2 0x561 JUMPI DUP1 PUSH4 0xB0D691FE EQ PUSH2 0x59D JUMPI DUP1 PUSH4 0xB61D27F6 EQ PUSH2 0x5C7 JUMPI PUSH2 0x1A6 JUMP JUMPDEST DUP1 PUSH4 0x88CE4C7C GT PUSH2 0xC5 JUMPI DUP1 PUSH4 0x88CE4C7C EQ PUSH2 0x497 JUMPI DUP1 PUSH4 0x89625B57 EQ PUSH2 0x4C1 JUMPI DUP1 PUSH4 0x8EA69029 EQ PUSH2 0x4E9 JUMPI DUP1 PUSH4 0x9F9BCB34 EQ PUSH2 0x525 JUMPI PUSH2 0x1A6 JUMP JUMPDEST DUP1 PUSH4 0x5C60DA1B EQ PUSH2 0x421 JUMPI DUP1 PUSH4 0x6F2DE70E EQ PUSH2 0x44B JUMPI DUP1 PUSH4 0x84B0196E EQ PUSH2 0x467 JUMPI PUSH2 0x1A6 JUMP JUMPDEST DUP1 PUSH4 0x2C2ABD1E GT PUSH2 0x158 JUMPI DUP1 PUSH4 0x3A871CDD GT PUSH2 0x132 JUMPI DUP1 PUSH4 0x3A871CDD EQ PUSH2 0x363 JUMPI DUP1 PUSH4 0x4F1EF286 EQ PUSH2 0x39F JUMPI DUP1 PUSH4 0x4F6E7F22 EQ PUSH2 0x3BB JUMPI DUP1 PUSH4 0x52D1902D EQ PUSH2 0x3F7 JUMPI PUSH2 0x1A6 JUMP JUMPDEST DUP1 PUSH4 0x2C2ABD1E EQ PUSH2 0x301 JUMPI DUP1 PUSH4 0x34FCD5BE EQ PUSH2 0x31D JUMPI DUP1 PUSH4 0x36D9CF9B EQ PUSH2 0x339 JUMPI PUSH2 0x1A6 JUMP JUMPDEST DUP1 PUSH4 0x66A1EB7 EQ PUSH2 0x1D3 JUMPI DUP1 PUSH4 0xDB02622 EQ PUSH2 0x20F JUMPI DUP1 PUSH4 0xF0F3F24 EQ PUSH2 0x239 JUMPI DUP1 PUSH4 0x1626BA7E EQ PUSH2 0x261 JUMPI DUP1 PUSH4 0x1CA5393F EQ PUSH2 0x29D JUMPI DUP1 PUSH4 0x29565E3B EQ PUSH2 0x2D9 JUMPI PUSH2 0x1A6 JUMP JUMPDEST CALLDATASIZE PUSH2 0x1A6 JUMPI STOP JUMPDEST PUSH0 CALLDATALOAD PUSH1 0xE0 SHR PUSH4 0xBC197C81 DUP2 EQ PUSH4 0xF23A6E61 DUP3 EQ OR PUSH4 0x150B7A02 DUP3 EQ OR ISZERO PUSH2 0x1D1 JUMPI DUP1 PUSH1 0x20 MSTORE PUSH1 0x20 PUSH1 0x3C RETURN JUMPDEST STOP JUMPDEST CALLVALUE DUP1 ISZERO PUSH2 0x1DE JUMPI PUSH0 DUP1 REVERT JUMPDEST POP PUSH2 0x1F9 PUSH1 0x4 DUP1 CALLDATASIZE SUB DUP2 ADD SWAP1 PUSH2 0x1F4 SWAP2 SWAP1 PUSH2 0x3B34 JUMP JUMPDEST PUSH2 0x69B JUMP JUMPDEST PUSH1 0x40 MLOAD PUSH2 0x206 SWAP2 SWAP1 PUSH2 0x3B8C JUMP JUMPDEST PUSH1 0x40 MLOAD DUP1 SWAP2 SUB SWAP1 RETURN JUMPDEST CALLVALUE DUP1 ISZERO PUSH2 0x21A JUMPI PUSH0 DUP1 REVERT JUMPDEST POP PUSH2 0x223 PUSH2 0x6F9 JUMP JUMPDEST PUSH1 0x40 MLOAD PUSH2 0x230 SWAP2 SWAP1 PUSH2 0x3BBD JUMP JUMPDEST PUSH1 0x40 MLOAD DUP1 SWAP2 SUB SWAP1 RETURN JUMPDEST CALLVALUE DUP1 ISZERO PUSH2 0x244 JUMPI PUSH0 DUP1 REVERT JUMPDEST POP PUSH2 0x25F PUSH1 0x4 DUP1 CALLDATASIZE SUB DUP2 ADD SWAP1 PUSH2 0x25A SWAP2 SWAP1 PUSH2 0x3C30 JUMP JUMPDEST PUSH2 0x71E JUMP JUMPDEST STOP JUMPDEST CALLVALUE DUP1 ISZERO PUSH2 0x26C JUMPI PUSH0 DUP1 REVERT JUMPDEST POP PUSH2 0x287 PUSH1 0x4 DUP1 CALLDATASIZE SUB DUP2 ADD SWAP1 PUSH2 0x282 SWAP2 SWAP1 PUSH2 0x3CBC JUMP JUMPDEST PUSH2 0x76F JUMP JUMPDEST PUSH1 0x40 MLOAD PUSH2 0x294 SWAP2 SWAP1 PUSH2 0x3D53 JUMP JUMPDEST PUSH1 0x40 MLOAD DUP1 SWAP2 SUB SWAP1 RETURN JUMPDEST CALLVALUE DUP1 ISZERO PUSH2 0x2A8 JUMPI PUSH0 DUP1 REVERT JUMPDEST POP PUSH2 0x2C3 PUSH1 0x4 DUP1 CALLDATASIZE SUB DUP2 ADD SWAP1 PUSH2 0x2BE SWAP2 SWAP1 PUSH2 0x3EA4 JUMP JUMPDEST PUSH2 0x7A9 JUMP JUMPDEST PUSH1 0x40 MLOAD PUSH2 0x2D0 SWAP2 SWAP1 PUSH2 0x3B8C JUMP JUMPDEST PUSH1 0x40 MLOAD DUP1 SWAP2 SUB SWAP1 RETURN JUMPDEST CALLVALUE DUP1 ISZERO PUSH2 0x2E4 JUMPI PUSH0 DUP1 REVERT JUMPDEST POP PUSH2 0x2FF PUSH1 0x4 DUP1 CALLDATASIZE SUB DUP2 ADD SWAP1 PUSH2 0x2FA SWAP2 SWAP1 PUSH2 0x3B34 JUMP JUMPDEST PUSH2 0x7E5 JUMP JUMPDEST STOP JUMPDEST PUSH2 0x31B PUSH1 0x4 DUP1 CALLDATASIZE SUB DUP2 ADD SWAP1 PUSH2 0x316 SWAP2 SWAP1 PUSH2 0x3F40 JUMP JUMPDEST PUSH2 0x839 JUMP JUMPDEST STOP JUMPDEST PUSH2 0x337 PUSH1 0x4 DUP1 CALLDATASIZE SUB DUP2 ADD SWAP1 PUSH2 0x332 SWAP2 SWAP1 PUSH2 0x3FE0 JUMP JUMPDEST PUSH2 0x99A JUMP JUMPDEST STOP JUMPDEST CALLVALUE DUP1 ISZERO PUSH2 0x344 JUMPI PUSH0 DUP1 REVERT JUMPDEST POP PUSH2 0x34D PUSH2 0xAD9 JUMP JUMPDEST PUSH1 0x40 MLOAD PUSH2 0x35A SWAP2 SWAP1 PUSH2 0x3BBD JUMP JUMPDEST PUSH1 0x40 MLOAD DUP1 SWAP2 SUB SWAP1 RETURN JUMPDEST CALLVALUE DUP1 ISZERO PUSH2 0x36E JUMPI PUSH0 DUP1 REVERT JUMPDEST POP PUSH2 0x389 PUSH1 0x4 DUP1 CALLDATASIZE SUB DUP2 ADD SWAP1 PUSH2 0x384 SWAP2 SWAP1 PUSH2 0x4078 JUMP JUMPDEST PUSH2 0xAEB JUMP JUMPDEST PUSH1 0x40 MLOAD PUSH2 0x396 SWAP2 SWAP1 PUSH2 0x3BBD JUMP JUMPDEST PUSH1 0x40 MLOAD DUP1 SWAP2 SUB SWAP1 RETURN JUMPDEST PUSH2 0x3B9 PUSH1 0x4 DUP1 CALLDATASIZE SUB DUP2 ADD SWAP1 PUSH2 0x3B4 SWAP2 SWAP1 PUSH2 0x40E4 JUMP JUMPDEST PUSH2 0xCAE JUMP JUMPDEST STOP JUMPDEST CALLVALUE DUP1 ISZERO PUSH2 0x3C6 JUMPI PUSH0 DUP1 REVERT JUMPDEST POP PUSH2 0x3E1 PUSH1 0x4 DUP1 CALLDATASIZE SUB DUP2 ADD SWAP1 PUSH2 0x3DC SWAP2 SWAP1 PUSH2 0x4141 JUMP JUMPDEST PUSH2 0xD92 JUMP JUMPDEST PUSH1 0x40 MLOAD PUSH2 0x3EE SWAP2 SWAP1 PUSH2 0x4197 JUMP JUMPDEST PUSH1 0x40 MLOAD DUP1 SWAP2 SUB SWAP1 RETURN JUMPDEST CALLVALUE DUP1 ISZERO PUSH2 0x402 JUMPI PUSH0 DUP1 REVERT JUMPDEST POP PUSH2 0x40B PUSH2 0xDD2 JUMP JUMPDEST PUSH1 0x40 MLOAD PUSH2 0x418 SWAP2 SWAP1 PUSH2 0x4197 JUMP JUMPDEST PUSH1 0x40 MLOAD DUP1 SWAP2 SUB SWAP1 RETURN JUMPDEST CALLVALUE DUP1 ISZERO PUSH2 0x42C JUMPI PUSH0 DUP1 REVERT JUMPDEST POP PUSH2 0x435 PUSH2 0xE34 JUMP JUMPDEST PUSH1 0x40 MLOAD PUSH2 0x442 SWAP2 SWAP1 PUSH2 0x41BF JUMP JUMPDEST PUSH1 0x40 MLOAD DUP1 SWAP2 SUB SWAP1 RETURN JUMPDEST PUSH2 0x465 PUSH1 0x4 DUP1 CALLDATASIZE SUB DUP2 ADD SWAP1 PUSH2 0x460 SWAP2 SWAP1 PUSH2 0x3F40 JUMP JUMPDEST PUSH2 0xE5C JUMP JUMPDEST STOP JUMPDEST CALLVALUE DUP1 ISZERO PUSH2 0x472 JUMPI PUSH0 DUP1 REVERT JUMPDEST POP PUSH2 0x47B PUSH2 0xEB5 JUMP JUMPDEST PUSH1 0x40 MLOAD PUSH2 0x48E SWAP8 SWAP7 SWAP6 SWAP5 SWAP4 SWAP3 SWAP2 SWAP1 PUSH2 0x4343 JUMP JUMPDEST PUSH1 0x40 MLOAD DUP1 SWAP2 SUB SWAP1 RETURN JUMPDEST CALLVALUE DUP1 ISZERO PUSH2 0x4A2 JUMPI PUSH0 DUP1 REVERT JUMPDEST POP PUSH2 0x4AB PUSH2 0xF00 JUMP JUMPDEST PUSH1 0x40 MLOAD PUSH2 0x4B8 SWAP2 SWAP1 PUSH2 0x3BBD JUMP JUMPDEST PUSH1 0x40 MLOAD DUP1 SWAP2 SUB SWAP1 RETURN JUMPDEST CALLVALUE DUP1 ISZERO PUSH2 0x4CC JUMPI PUSH0 DUP1 REVERT JUMPDEST POP PUSH2 0x4E7 PUSH1 0x4 DUP1 CALLDATASIZE SUB DUP2 ADD SWAP1 PUSH2 0x4E2 SWAP2 SWAP1 PUSH2 0x43C5 JUMP JUMPDEST PUSH2 0xF06 JUMP JUMPDEST STOP JUMPDEST CALLVALUE DUP1 ISZERO PUSH2 0x4F4 JUMPI PUSH0 DUP1 REVERT JUMPDEST POP PUSH2 0x50F PUSH1 0x4 DUP1 CALLDATASIZE SUB DUP2 ADD SWAP1 PUSH2 0x50A SWAP2 SWAP1 PUSH2 0x4422 JUMP JUMPDEST PUSH2 0xF5F JUMP JUMPDEST PUSH1 0x40 MLOAD PUSH2 0x51C SWAP2 SWAP1 PUSH2 0x449F JUMP JUMPDEST PUSH1 0x40 MLOAD DUP1 SWAP2 SUB SWAP1 RETURN JUMPDEST CALLVALUE DUP1 ISZERO PUSH2 0x530 JUMPI PUSH0 DUP1 REVERT JUMPDEST POP PUSH2 0x54B PUSH1 0x4 DUP1 CALLDATASIZE SUB DUP2 ADD SWAP1 PUSH2 0x546 SWAP2 SWAP1 PUSH2 0x44E9 JUMP JUMPDEST PUSH2 0x1009 JUMP JUMPDEST PUSH1 0x40 MLOAD PUSH2 0x558 SWAP2 SWAP1 PUSH2 0x3B8C JUMP JUMPDEST PUSH1 0x40 MLOAD DUP1 SWAP2 SUB SWAP1 RETURN JUMPDEST CALLVALUE DUP1 ISZERO PUSH2 0x56C JUMPI PUSH0 DUP1 REVERT JUMPDEST POP PUSH2 0x587 PUSH1 0x4 DUP1 CALLDATASIZE SUB DUP2 ADD SWAP1 PUSH2 0x582 SWAP2 SWAP1 PUSH2 0x3C30 JUMP JUMPDEST PUSH2 0x11A5 JUMP JUMPDEST PUSH1 0x40 MLOAD PUSH2 0x594 SWAP2 SWAP1 PUSH2 0x3B8C JUMP JUMPDEST PUSH1 0x40 MLOAD DUP1 SWAP2 SUB SWAP1 RETURN JUMPDEST CALLVALUE DUP1 ISZERO PUSH2 0x5A8 JUMPI PUSH0 DUP1 REVERT JUMPDEST POP PUSH2 0x5B1 PUSH2 0x1200 JUMP JUMPDEST PUSH1 0x40 MLOAD PUSH2 0x5BE SWAP2 SWAP1 PUSH2 0x41BF JUMP JUMPDEST PUSH1 0x40 MLOAD DUP1 SWAP2 SUB SWAP1 RETURN JUMPDEST PUSH2 0x5E1 PUSH1 0x4 DUP1 CALLDATASIZE SUB DUP2 ADD SWAP1 PUSH2 0x5DC SWAP2 SWAP1 PUSH2 0x4514 JUMP JUMPDEST PUSH2 0x121B JUMP JUMPDEST STOP JUMPDEST CALLVALUE DUP1 ISZERO PUSH2 0x5EE JUMPI PUSH0 DUP1 REVERT JUMPDEST POP PUSH2 0x609 PUSH1 0x4 DUP1 CALLDATASIZE SUB DUP2 ADD SWAP1 PUSH2 0x604 SWAP2 SWAP1 PUSH2 0x43C5 JUMP JUMPDEST PUSH2 0x12B2 JUMP JUMPDEST STOP JUMPDEST CALLVALUE DUP1 ISZERO PUSH2 0x616 JUMPI PUSH0 DUP1 REVERT JUMPDEST POP PUSH2 0x631 PUSH1 0x4 DUP1 CALLDATASIZE SUB DUP2 ADD SWAP1 PUSH2 0x62C SWAP2 SWAP1 PUSH2 0x4585 JUMP JUMPDEST PUSH2 0x131C JUMP JUMPDEST PUSH1 0x40 MLOAD PUSH2 0x63E SWAP2 SWAP1 PUSH2 0x4197 JUMP JUMPDEST PUSH1 0x40 MLOAD DUP1 SWAP2 SUB SWAP1 RETURN JUMPDEST CALLVALUE DUP1 ISZERO PUSH2 0x652 JUMPI PUSH0 DUP1 REVERT JUMPDEST POP PUSH2 0x65B PUSH2 0x132D JUMP JUMPDEST PUSH1 0x40 MLOAD PUSH2 0x668 SWAP2 SWAP1 PUSH2 0x3BBD JUMP JUMPDEST PUSH1 0x40 MLOAD DUP1 SWAP2 SUB SWAP1 RETURN JUMPDEST CALLVALUE DUP1 ISZERO PUSH2 0x67C JUMPI PUSH0 DUP1 REVERT JUMPDEST POP PUSH2 0x685 PUSH2 0x133E JUMP JUMPDEST PUSH1 0x40 MLOAD PUSH2 0x692 SWAP2 SWAP1 PUSH2 0x4197 JUMP JUMPDEST PUSH1 0x40 MLOAD DUP1 SWAP2 SUB SWAP1 RETURN JUMPDEST PUSH0 PUSH2 0x6A4 PUSH2 0x13B1 JUMP JUMPDEST PUSH1 0x3 ADD DUP4 DUP4 PUSH1 0x40 MLOAD PUSH1 0x20 ADD PUSH2 0x6BA SWAP3 SWAP2 SWAP1 PUSH2 0x45B0 JUMP JUMPDEST PUSH1 0x40 MLOAD PUSH1 0x20 DUP2 DUP4 SUB SUB DUP2 MSTORE SWAP1 PUSH1 0x40 MSTORE PUSH1 0x40 MLOAD PUSH2 0x6D6 SWAP2 SWAP1 PUSH2 0x4611 JUMP JUMPDEST SWAP1 DUP2 MSTORE PUSH1 0x20 ADD PUSH1 0x40 MLOAD DUP1 SWAP2 SUB SWAP1 KECCAK256 PUSH0 SWAP1 SLOAD SWAP1 PUSH2 0x100 EXP SWAP1 DIV PUSH1 0xFF AND SWAP1 POP SWAP3 SWAP2 POP POP JUMP JUMPDEST PUSH0 DUP1 PUSH2 0x703 PUSH2 0x13B1 JUMP JUMPDEST SWAP1 POP DUP1 PUSH1 0x1 ADD SLOAD DUP2 PUSH0 ADD SLOAD PUSH2 0x718 SWAP2 SWAP1 PUSH2 0x4654 JUMP JUMPDEST SWAP2 POP POP SWAP1 JUMP JUMPDEST PUSH2 0x726 PUSH2 0x13D8 JUMP JUMPDEST PUSH2 0x76C DUP2 PUSH1 0x40 MLOAD PUSH1 0x20 ADD PUSH2 0x73A SWAP2 SWAP1 PUSH2 0x41BF JUMP JUMPDEST PUSH1 0x40 MLOAD PUSH1 0x20 DUP2 DUP4 SUB SUB DUP2 MSTORE SWAP1 PUSH1 0x40 MSTORE PUSH2 0x751 PUSH2 0x13B1 JUMP JUMPDEST PUSH0 ADD PUSH0 DUP2 SLOAD DUP1 SWAP3 SWAP2 SWAP1 PUSH2 0x763 SWAP1 PUSH2 0x4687 JUMP JUMPDEST SWAP2 SWAP1 POP SSTORE PUSH2 0x144F JUMP JUMPDEST POP JUMP JUMPDEST PUSH0 PUSH2 0x783 PUSH2 0x77C DUP6 PUSH2 0x131C JUMP JUMPDEST DUP5 DUP5 PUSH2 0x153B JUMP JUMPDEST ISZERO PUSH2 0x797 JUMPI PUSH4 0x1626BA7E PUSH1 0xE0 SHL SWAP1 POP PUSH2 0x7A2 JUMP JUMPDEST PUSH4 0xFFFFFFFF PUSH1 0xE0 SHL SWAP1 POP JUMPDEST SWAP4 SWAP3 POP POP POP JUMP JUMPDEST PUSH0 PUSH2 0x7B2 PUSH2 0x13B1 JUMP JUMPDEST PUSH1 0x3 ADD DUP3 PUSH1 0x40 MLOAD PUSH2 0x7C3 SWAP2 SWAP1 PUSH2 0x4611 JUMP JUMPDEST SWAP1 DUP2 MSTORE PUSH1 0x20 ADD PUSH1 0x40 MLOAD DUP1 SWAP2 SUB SWAP1 KECCAK256 PUSH0 SWAP1 SLOAD SWAP1 PUSH2 0x100 EXP SWAP1 DIV PUSH1 0xFF AND SWAP1 POP SWAP2 SWAP1 POP JUMP JUMPDEST PUSH2 0x7ED PUSH2 0x13D8 JUMP JUMPDEST PUSH2 0x835 DUP3 DUP3 PUSH1 0x40 MLOAD PUSH1 0x20 ADD PUSH2 0x803 SWAP3 SWAP2 SWAP1 PUSH2 0x45B0 JUMP JUMPDEST PUSH1 0x40 MLOAD PUSH1 0x20 DUP2 DUP4 SUB SUB DUP2 MSTORE SWAP1 PUSH1 0x40 MSTORE PUSH2 0x81A PUSH2 0x13B1 JUMP JUMPDEST PUSH0 ADD PUSH0 DUP2 SLOAD DUP1 SWAP3 SWAP2 SWAP1 PUSH2 0x82C SWAP1 PUSH2 0x4687 JUMP JUMPDEST SWAP2 SWAP1 POP SSTORE PUSH2 0x144F JUMP JUMPDEST POP POP JUMP JUMPDEST PUSH2 0x841 PUSH2 0x1200 JUMP JUMPDEST PUSH20 0xFFFFFFFFFFFFFFFFFFFFFFFFFFFFFFFFFFFFFFFF AND CALLER PUSH20 0xFFFFFFFFFFFFFFFFFFFFFFFFFFFFFFFFFFFFFFFF AND EQ PUSH2 0x8A5 JUMPI PUSH1 0x40 MLOAD PUSH32 0x82B4290000000000000000000000000000000000000000000000000000000000 DUP2 MSTORE PUSH1 0x4 ADD PUSH1 0x40 MLOAD DUP1 SWAP2 SUB SWAP1 REVERT JUMPDEST PUSH0 JUMPDEST DUP3 DUP3 SWAP1 POP DUP2 LT ISZERO PUSH2 0x995 JUMPI CALLDATASIZE PUSH0 DUP5 DUP5 DUP5 DUP2 DUP2 LT PUSH2 0x8C7 JUMPI PUSH2 0x8C6 PUSH2 0x46CE JUMP JUMPDEST JUMPDEST SWAP1 POP PUSH1 0x20 MUL DUP2 ADD SWAP1 PUSH2 0x8D9 SWAP2 SWAP1 PUSH2 0x4707 JUMP JUMPDEST SWAP2 POP SWAP2 POP PUSH0 DUP3 DUP3 SWAP1 PUSH2 0x8EB SWAP2 SWAP1 PUSH2 0x477F JUMP JUMPDEST SWAP1 POP PUSH2 0x8F6 DUP2 PUSH2 0x1009 JUMP JUMPDEST PUSH2 0x937 JUMPI DUP1 PUSH1 0x40 MLOAD PUSH32 0x3B06E14600000000000000000000000000000000000000000000000000000000 DUP2 MSTORE PUSH1 0x4 ADD PUSH2 0x92E SWAP2 SWAP1 PUSH2 0x3D53 JUMP JUMPDEST PUSH1 0x40 MLOAD DUP1 SWAP2 SUB SWAP1 REVERT JUMPDEST PUSH2 0x985 ADDRESS PUSH0 DUP6 DUP6 DUP1 DUP1 PUSH1 0x1F ADD PUSH1 0x20 DUP1 SWAP2 DIV MUL PUSH1 0x20 ADD PUSH1 0x40 MLOAD SWAP1 DUP2 ADD PUSH1 0x40 MSTORE DUP1 SWAP4 SWAP3 SWAP2 SWAP1 DUP2 DUP2 MSTORE PUSH1 0x20 ADD DUP4 DUP4 DUP1 DUP3 DUP5 CALLDATACOPY PUSH0 DUP2 DUP5 ADD MSTORE PUSH1 0x1F NOT PUSH1 0x1F DUP3 ADD AND SWAP1 POP DUP1 DUP4 ADD SWAP3 POP POP POP POP POP POP POP PUSH2 0x16A7 JUMP JUMPDEST POP POP POP DUP1 DUP1 PUSH1 0x1 ADD SWAP2 POP POP PUSH2 0x8A7 JUMP JUMPDEST POP POP POP JUMP JUMPDEST PUSH2 0x9A2 PUSH2 0x1200 JUMP JUMPDEST PUSH20 0xFFFFFFFFFFFFFFFFFFFFFFFFFFFFFFFFFFFFFFFF AND CALLER PUSH20 0xFFFFFFFFFFFFFFFFFFFFFFFFFFFFFFFFFFFFFFFF AND EQ PUSH2 0x9DD JUMPI PUSH2 0x9DC PUSH2 0x13D8 JUMP JUMPDEST JUMPDEST PUSH0 JUMPDEST DUP3 DUP3 SWAP1 POP DUP2 LT ISZERO PUSH2 0xAD4 JUMPI PUSH2 0xAC7 DUP4 DUP4 DUP4 DUP2 DUP2 LT PUSH2 0xA00 JUMPI PUSH2 0x9FF PUSH2 0x46CE JUMP JUMPDEST JUMPDEST SWAP1 POP PUSH1 0x20 MUL DUP2 ADD SWAP1 PUSH2 0xA12 SWAP2 SWAP1 PUSH2 0x47DD JUMP JUMPDEST PUSH0 ADD PUSH1 0x20 DUP2 ADD SWAP1 PUSH2 0xA23 SWAP2 SWAP1 PUSH2 0x3C30 JUMP JUMPDEST DUP5 DUP5 DUP5 DUP2 DUP2 LT PUSH2 0xA36 JUMPI PUSH2 0xA35 PUSH2 0x46CE JUMP JUMPDEST JUMPDEST SWAP1 POP PUSH1 0x20 MUL DUP2 ADD SWAP1 PUSH2 0xA48 SWAP2 SWAP1 PUSH2 0x47DD JUMP JUMPDEST PUSH1 0x20 ADD CALLDATALOAD DUP6 DUP6 DUP6 DUP2 DUP2 LT PUSH2 0xA5F JUMPI PUSH2 0xA5E PUSH2 0x46CE JUMP JUMPDEST JUMPDEST SWAP1 POP PUSH1 0x20 MUL DUP2 ADD SWAP1 PUSH2 0xA71 SWAP2 SWAP1 PUSH2 0x47DD JUMP JUMPDEST DUP1 PUSH1 0x40 ADD SWAP1 PUSH2 0xA80 SWAP2 SWAP1 PUSH2 0x4707 JUMP JUMPDEST DUP1 DUP1 PUSH1 0x1F ADD PUSH1 0x20 DUP1 SWAP2 DIV MUL PUSH1 0x20 ADD PUSH1 0x40 MLOAD SWAP1 DUP2 ADD PUSH1 0x40 MSTORE DUP1 SWAP4 SWAP3 SWAP2 SWAP1 DUP2 DUP2 MSTORE PUSH1 0x20 ADD DUP4 DUP4 DUP1 DUP3 DUP5 CALLDATACOPY PUSH0 DUP2 DUP5 ADD MSTORE PUSH1 0x1F NOT PUSH1 0x1F DUP3 ADD AND SWAP1 POP DUP1 DUP4 ADD SWAP3 POP POP POP POP POP POP POP PUSH2 0x16A7 JUMP JUMPDEST DUP1 DUP1 PUSH1 0x1 ADD SWAP2 POP POP PUSH2 0x9DF JUMP JUMPDEST POP POP POP JUMP JUMPDEST PUSH0 PUSH2 0xAE2 PUSH2 0x13B1 JUMP JUMPDEST PUSH1 0x1 ADD SLOAD SWAP1 POP SWAP1 JUMP JUMPDEST PUSH0 PUSH2 0xAF4 PUSH2 0x1200 JUMP JUMPDEST PUSH20 0xFFFFFFFFFFFFFFFFFFFFFFFFFFFFFFFFFFFFFFFF AND CALLER PUSH20 0xFFFFFFFFFFFFFFFFFFFFFFFFFFFFFFFFFFFFFFFF AND EQ PUSH2 0xB58 JUMPI PUSH1 0x40 MLOAD PUSH32 0x82B4290000000000000000000000000000000000000000000000000000000000 DUP2 MSTORE PUSH1 0x4 ADD PUSH1 0x40 MLOAD DUP1 SWAP2 SUB SWAP1 REVERT JUMPDEST DUP2 PUSH0 PUSH1 0x40 DUP7 PUSH1 0x20 ADD CALLDATALOAD SWAP1 SHR SWAP1 POP PUSH4 0x2C2ABD1E PUSH1 0xE0 SHL PUSH28 0xFFFFFFFFFFFFFFFFFFFFFFFFFFFFFFFFFFFFFFFFFFFFFFFFFFFFFFFF NOT AND DUP7 DUP1 PUSH1 0x60 ADD SWAP1 PUSH2 0xB9C SWAP2 SWAP1 PUSH2 0x4707 JUMP JUMPDEST SWAP1 PUSH2 0xBA7 SWAP2 SWAP1 PUSH2 0x477F JUMP JUMPDEST PUSH28 0xFFFFFFFFFFFFFFFFFFFFFFFFFFFFFFFFFFFFFFFFFFFFFFFFFFFFFFFF NOT AND SUB PUSH2 0xC21 JUMPI PUSH2 0xBD4 DUP7 PUSH2 0xD92 JUMP JUMPDEST SWAP5 POP PUSH2 0x2105 DUP2 EQ PUSH2 0xC1C JUMPI DUP1 PUSH1 0x40 MLOAD PUSH32 0x2EF3781300000000000000000000000000000000000000000000000000000000 DUP2 MSTORE PUSH1 0x4 ADD PUSH2 0xC13 SWAP2 SWAP1 PUSH2 0x3BBD JUMP JUMPDEST PUSH1 0x40 MLOAD DUP1 SWAP2 SUB SWAP1 REVERT JUMPDEST PUSH2 0xC68 JUMP JUMPDEST PUSH2 0x2105 DUP2 SUB PUSH2 0xC67 JUMPI DUP1 PUSH1 0x40 MLOAD PUSH32 0x2EF3781300000000000000000000000000000000000000000000000000000000 DUP2 MSTORE PUSH1 0x4 ADD PUSH2 0xC5E SWAP2 SWAP1 PUSH2 0x3BBD JUMP JUMPDEST PUSH1 0x40 MLOAD DUP1 SWAP2 SUB SWAP1 REVERT JUMPDEST JUMPDEST PUSH2 0xC82 DUP6 DUP8 DUP1 PUSH2 0x140 ADD SWAP1 PUSH2 0xC7D SWAP2 SWAP1 PUSH2 0x4707 JUMP JUMPDEST PUSH2 0x153B JUMP JUMPDEST ISZERO PUSH2 0xC90 JUMPI PUSH0 SWAP3 POP POP PUSH2 0xC96 JUMP JUMPDEST PUSH1 0x1 SWAP3 POP POP JUMPDEST DUP1 ISZERO PUSH2 0xCA6 JUMPI PUSH0 CODESIZE PUSH0 CODESIZE DUP5 CALLER GAS CALL POP JUMPDEST POP SWAP4 SWAP3 POP POP POP JUMP JUMPDEST PUSH0 PUSH32 0x0 SWAP1 POP ADDRESS DUP2 SUB PUSH2 0xCE6 JUMPI PUSH4 0x9F03A026 PUSH0 MSTORE PUSH1 0x4 PUSH1 0x1C REVERT JUMPDEST PUSH2 0xCEF DUP5 PUSH2 0x1727 JUMP JUMPDEST DUP4 PUSH1 0x60 SHL PUSH1 0x60 SHR SWAP4 POP PUSH4 0x52D1902D PUSH1 0x1 MSTORE PUSH32 0x360894A13BA1A3210667C828492DB98DCA3E2076CC3735A920A3CA505D382BBC DUP1 PUSH1 0x20 PUSH1 0x1 PUSH1 0x4 PUSH1 0x1D DUP10 GAS STATICCALL MLOAD EQ PUSH2 0xD41 JUMPI PUSH4 0x55299B49 PUSH1 0x1 MSTORE PUSH1 0x4 PUSH1 0x1D REVERT JUMPDEST DUP5 PUSH32 0xBC7CD75A20EE27FD9ADEBAB32041F755214DBC6BFFA90CC0225B39DA2E5C2D3B PUSH0 CODESIZE LOG2 DUP5 DUP2 SSTORE DUP3 ISZERO PUSH2 0xD8B JUMPI PUSH1 0x40 MLOAD DUP4 DUP6 DUP3 CALLDATACOPY PUSH0 CODESIZE DUP6 DUP4 DUP10 GAS DELEGATECALL PUSH2 0xD89 JUMPI RETURNDATASIZE PUSH0 DUP3 RETURNDATACOPY RETURNDATASIZE DUP2 REVERT JUMPDEST POP JUMPDEST POP POP POP POP POP JUMP JUMPDEST PUSH0 PUSH2 0xD9C DUP3 PUSH2 0x1732 JUMP JUMPDEST PUSH2 0xDA4 PUSH2 0x1200 JUMP JUMPDEST PUSH1 0x40 MLOAD PUSH1 0x20 ADD PUSH2 0xDB5 SWAP3 SWAP2 SWAP1 PUSH2 0x4804 JUMP JUMPDEST PUSH1 0x40 MLOAD PUSH1 0x20 DUP2 DUP4 SUB SUB DUP2 MSTORE SWAP1 PUSH1 0x40 MSTORE DUP1 MLOAD SWAP1 PUSH1 0x20 ADD KECCAK256 SWAP1 POP SWAP2 SWAP1 POP JUMP JUMPDEST PUSH0 DUP1 PUSH32 0x0 SWAP1 POP ADDRESS DUP2 EQ PUSH2 0xE0B JUMPI PUSH4 0x9F03A026 PUSH0 MSTORE PUSH1 0x4 PUSH1 0x1C REVERT JUMPDEST PUSH32 0x360894A13BA1A3210667C828492DB98DCA3E2076CC3735A920A3CA505D382BBC PUSH0 SHL SWAP2 POP POP SWAP1 JUMP JUMPDEST PUSH0 PUSH32 0x360894A13BA1A3210667C828492DB98DCA3E2076CC3735A920A3CA505D382BBC SLOAD SWAP1 POP SWAP1 JUMP JUMPDEST PUSH0 PUSH2 0xE65 PUSH2 0x132D JUMP JUMPDEST EQ PUSH2 0xE9C JUMPI PUSH1 0x40 MLOAD PUSH32 0x5DAA87A000000000000000000000000000000000000000000000000000000000 DUP2 MSTORE PUSH1 0x4 ADD PUSH1 0x40 MLOAD DUP1 SWAP2 SUB SWAP1 REVERT JUMPDEST PUSH2 0xEB1 DUP3 DUP3 SWAP1 PUSH2 0xEAC SWAP2 SWAP1 PUSH2 0x48DC JUMP JUMPDEST PUSH2 0x174A JUMP JUMPDEST POP POP JUMP JUMPDEST PUSH0 PUSH1 0x60 DUP1 PUSH0 DUP1 PUSH0 PUSH1 0x60 PUSH32 0xF00000000000000000000000000000000000000000000000000000000000000 SWAP7 POP PUSH2 0xEE9 PUSH2 0x1917 JUMP JUMPDEST DUP1 SWAP7 POP DUP2 SWAP8 POP POP POP CHAINID SWAP4 POP ADDRESS SWAP3 POP SWAP1 SWAP2 SWAP3 SWAP4 SWAP5 SWAP6 SWAP7 JUMP JUMPDEST PUSH2 0x2105 DUP2 JUMP JUMPDEST PUSH2 0xF0E PUSH2 0x13D8 JUMP JUMPDEST PUSH1 0x1 PUSH2 0xF18 PUSH2 0x6F9 JUMP JUMPDEST SUB PUSH2 0xF4F JUMPI PUSH1 0x40 MLOAD PUSH32 0x948BF89700000000000000000000000000000000000000000000000000000000 DUP2 MSTORE PUSH1 0x4 ADD PUSH1 0x40 MLOAD DUP1 SWAP2 SUB SWAP1 REVERT JUMPDEST PUSH2 0xF5A DUP4 DUP4 DUP4 PUSH2 0x198E JUMP JUMPDEST POP POP POP JUMP JUMPDEST PUSH1 0x60 PUSH2 0xF69 PUSH2 0x13B1 JUMP JUMPDEST PUSH1 0x2 ADD PUSH0 DUP4 DUP2 MSTORE PUSH1 0x20 ADD SWAP1 DUP2 MSTORE PUSH1 0x20 ADD PUSH0 KECCAK256 DUP1 SLOAD PUSH2 0xF86 SWAP1 PUSH2 0x491D JUMP JUMPDEST DUP1 PUSH1 0x1F ADD PUSH1 0x20 DUP1 SWAP2 DIV MUL PUSH1 0x20 ADD PUSH1 0x40 MLOAD SWAP1 DUP2 ADD PUSH1 0x40 MSTORE DUP1 SWAP3 SWAP2 SWAP1 DUP2 DUP2 MSTORE PUSH1 0x20 ADD DUP3 DUP1 SLOAD PUSH2 0xFB2 SWAP1 PUSH2 0x491D JUMP JUMPDEST DUP1 ISZERO PUSH2 0xFFD JUMPI DUP1 PUSH1 0x1F LT PUSH2 0xFD4 JUMPI PUSH2 0x100 DUP1 DUP4 SLOAD DIV MUL DUP4 MSTORE SWAP2 PUSH1 0x20 ADD SWAP2 PUSH2 0xFFD JUMP JUMPDEST DUP3 ADD SWAP2 SWAP1 PUSH0 MSTORE PUSH1 0x20 PUSH0 KECCAK256 SWAP1 JUMPDEST DUP2 SLOAD DUP2 MSTORE SWAP1 PUSH1 0x1 ADD SWAP1 PUSH1 0x20 ADD DUP1 DUP4 GT PUSH2 0xFE0 JUMPI DUP3 SWAP1 SUB PUSH1 0x1F AND DUP3 ADD SWAP2 JUMPDEST POP POP POP POP POP SWAP1 POP SWAP2 SWAP1 POP JUMP JUMPDEST PUSH0 PUSH4 0x29565E3B PUSH1 0xE0 SHL PUSH28 0xFFFFFFFFFFFFFFFFFFFFFFFFFFFFFFFFFFFFFFFFFFFFFFFFFFFFFFFF NOT AND DUP3 PUSH28 0xFFFFFFFFFFFFFFFFFFFFFFFFFFFFFFFFFFFFFFFFFFFFFFFFFFFFFFFF NOT AND EQ DUP1 PUSH2 0x10A1 JUMPI POP PUSH4 0xF0F3F24 PUSH1 0xE0 SHL PUSH28 0xFFFFFFFFFFFFFFFFFFFFFFFFFFFFFFFFFFFFFFFFFFFFFFFFFFFFFFFF NOT AND DUP3 PUSH28 0xFFFFFFFFFFFFFFFFFFFFFFFFFFFFFFFFFFFFFFFFFFFFFFFFFFFFFFFF NOT AND EQ JUMPDEST DUP1 PUSH2 0x10F0 JUMPI POP PUSH4 0x89625B57 PUSH1 0xE0 SHL PUSH28 0xFFFFFFFFFFFFFFFFFFFFFFFFFFFFFFFFFFFFFFFFFFFFFFFFFFFFFFFF NOT AND DUP3 PUSH28 0xFFFFFFFFFFFFFFFFFFFFFFFFFFFFFFFFFFFFFFFFFFFFFFFFFFFFFFFF NOT AND EQ JUMPDEST DUP1 PUSH2 0x113F JUMPI POP PUSH4 0xB8197367 PUSH1 0xE0 SHL PUSH28 0xFFFFFFFFFFFFFFFFFFFFFFFFFFFFFFFFFFFFFFFFFFFFFFFFFFFFFFFF NOT AND DUP3 PUSH28 0xFFFFFFFFFFFFFFFFFFFFFFFFFFFFFFFFFFFFFFFFFFFFFFFFFFFFFFFF NOT AND EQ JUMPDEST DUP1 PUSH2 0x118E JUMPI POP PUSH4 0x4F1EF286 PUSH1 0xE0 SHL PUSH28 0xFFFFFFFFFFFFFFFFFFFFFFFFFFFFFFFFFFFFFFFFFFFFFFFFFFFFFFFF NOT AND DUP3 PUSH28 0xFFFFFFFFFFFFFFFFFFFFFFFFFFFFFFFFFFFFFFFFFFFFFFFFFFFFFFFF NOT AND EQ JUMPDEST ISZERO PUSH2 0x119C JUMPI PUSH1 0x1 SWAP1 POP PUSH2 0x11A0 JUMP JUMPDEST PUSH0 SWAP1 POP JUMPDEST SWAP2 SWAP1 POP JUMP JUMPDEST PUSH0 PUSH2 0x11AE PUSH2 0x13B1 JUMP JUMPDEST PUSH1 0x3 ADD DUP3 PUSH1 0x40 MLOAD PUSH1 0x20 ADD PUSH2 0x11C2 SWAP2 SWAP1 PUSH2 0x41BF JUMP JUMPDEST PUSH1 0x40 MLOAD PUSH1 0x20 DUP2 DUP4 SUB SUB DUP2 MSTORE SWAP1 PUSH1 0x40 MSTORE PUSH1 0x40 MLOAD PUSH2 0x11DE SWAP2 SWAP1 PUSH2 0x4611 JUMP JUMPDEST SWAP1 DUP2 MSTORE PUSH1 0x20 ADD PUSH1 0x40 MLOAD DUP1 SWAP2 SUB SWAP1 KECCAK256 PUSH0 SWAP1 SLOAD SWAP1 PUSH2 0x100 EXP SWAP1 DIV PUSH1 0xFF AND SWAP1 POP SWAP2 SWAP1 POP JUMP JUMPDEST PUSH0 PUSH20 0x5FF137D4B0FDCD49DCA30C7CF57E578A026D2789 SWAP1 POP SWAP1 JUMP JUMPDEST PUSH2 0x1223 PUSH2 0x1200 JUMP JUMPDEST PUSH20 0xFFFFFFFFFFFFFFFFFFFFFFFFFFFFFFFFFFFFFFFF AND CALLER PUSH20 0xFFFFFFFFFFFFFFFFFFFFFFFFFFFFFFFFFFFFFFFF AND EQ PUSH2 0x125E JUMPI PUSH2 0x125D PUSH2 0x13D8 JUMP JUMPDEST JUMPDEST PUSH2 0x12AC DUP5 DUP5 DUP5 DUP5 DUP1 DUP1 PUSH1 0x1F ADD PUSH1 0x20 DUP1 SWAP2 DIV MUL PUSH1 0x20 ADD PUSH1 0x40 MLOAD SWAP1 DUP2 ADD PUSH1 0x40 MSTORE DUP1 SWAP4 SWAP3 SWAP2 SWAP1 DUP2 DUP2 MSTORE PUSH1 0x20 ADD DUP4 DUP4 DUP1 DUP3 DUP5 CALLDATACOPY PUSH0 DUP2 DUP5 ADD MSTORE PUSH1 0x1F NOT PUSH1 0x1F DUP3 ADD AND SWAP1 POP DUP1 DUP4 ADD SWAP3 POP POP POP POP POP POP POP PUSH2 0x16A7 JUMP JUMPDEST POP POP POP POP JUMP JUMPDEST PUSH2 0x12BA PUSH2 0x13D8 JUMP JUMPDEST PUSH0 PUSH2 0x12C3 PUSH2 0x6F9 JUMP JUMPDEST SWAP1 POP PUSH1 0x1 DUP2 GT ISZERO PUSH2 0x130B JUMPI DUP1 PUSH1 0x40 MLOAD PUSH32 0x823F1AA800000000000000000000000000000000000000000000000000000000 DUP2 MSTORE PUSH1 0x4 ADD PUSH2 0x1302 SWAP2 SWAP1 PUSH2 0x3BBD JUMP JUMPDEST PUSH1 0x40 MLOAD DUP1 SWAP2 SUB SWAP1 REVERT JUMPDEST PUSH2 0x1316 DUP5 DUP5 DUP5 PUSH2 0x198E JUMP JUMPDEST POP POP POP POP JUMP JUMPDEST PUSH0 PUSH2 0x1326 DUP3 PUSH2 0x1AFB JUMP JUMPDEST SWAP1 POP SWAP2 SWAP1 POP JUMP JUMPDEST PUSH0 PUSH2 0x1336 PUSH2 0x13B1 JUMP JUMPDEST PUSH0 ADD SLOAD SWAP1 POP SWAP1 JUMP JUMPDEST PUSH0 DUP1 PUSH0 PUSH2 0x1349 PUSH2 0x1917 JUMP JUMPDEST SWAP2 POP SWAP2 POP PUSH32 0x8B73C3C69BB8FE3D512ECC4CF759CC79239F7B179B0FFACAA9A75D522B39400F DUP3 DUP1 MLOAD SWAP1 PUSH1 0x20 ADD KECCAK256 DUP3 DUP1 MLOAD SWAP1 PUSH1 0x20 ADD KECCAK256 CHAINID ADDRESS PUSH1 0x40 MLOAD PUSH1 0x20 ADD PUSH2 0x1394 SWAP6 SWAP5 SWAP4 SWAP3 SWAP2 SWAP1 PUSH2 0x494D JUMP JUMPDEST PUSH1 0x40 MLOAD PUSH1 0x20 DUP2 DUP4 SUB SUB DUP2 MSTORE SWAP1 PUSH1 0x40 MSTORE DUP1 MLOAD SWAP1 PUSH1 0x20 ADD KECCAK256 SWAP3 POP POP POP SWAP1 JUMP JUMPDEST PUSH0 PUSH32 0x97E2C6AAD4CE5D562EBFAA00DB6B9E0FB66EA5D8162ED5B243F51A2E03086F00 SWAP1 POP SWAP1 JUMP JUMPDEST PUSH2 0x13E1 CALLER PUSH2 0x11A5 JUMP JUMPDEST DUP1 PUSH2 0x1417 JUMPI POP ADDRESS PUSH20 0xFFFFFFFFFFFFFFFFFFFFFFFFFFFFFFFFFFFFFFFF AND CALLER PUSH20 0xFFFFFFFFFFFFFFFFFFFFFFFFFFFFFFFFFFFFFFFF AND EQ JUMPDEST PUSH2 0x144D JUMPI PUSH1 0x40 MLOAD PUSH32 0x82B4290000000000000000000000000000000000000000000000000000000000 DUP2 MSTORE PUSH1 0x4 ADD PUSH1 0x40 MLOAD DUP1 SWAP2 SUB SWAP1 REVERT JUMPDEST JUMP JUMPDEST PUSH2 0x1458 DUP3 PUSH2 0x7A9 JUMP JUMPDEST ISZERO PUSH2 0x149A JUMPI DUP2 PUSH1 0x40 MLOAD PUSH32 0x8D16255A00000000000000000000000000000000000000000000000000000000 DUP2 MSTORE PUSH1 0x4 ADD PUSH2 0x1491 SWAP2 SWAP1 PUSH2 0x449F JUMP JUMPDEST PUSH1 0x40 MLOAD DUP1 SWAP2 SUB SWAP1 REVERT JUMPDEST PUSH0 PUSH2 0x14A3 PUSH2 0x13B1 JUMP JUMPDEST SWAP1 POP PUSH1 0x1 DUP2 PUSH1 0x3 ADD DUP5 PUSH1 0x40 MLOAD PUSH2 0x14B9 SWAP2 SWAP1 PUSH2 0x4611 JUMP JUMPDEST SWAP1 DUP2 MSTORE PUSH1 0x20 ADD PUSH1 0x40 MLOAD DUP1 SWAP2 SUB SWAP1 KECCAK256 PUSH0 PUSH2 0x100 EXP DUP2 SLOAD DUP2 PUSH1 0xFF MUL NOT AND SWAP1 DUP4 ISZERO ISZERO MUL OR SWAP1 SSTORE POP DUP3 DUP2 PUSH1 0x2 ADD PUSH0 DUP5 DUP2 MSTORE PUSH1 0x20 ADD SWAP1 DUP2 MSTORE PUSH1 0x20 ADD PUSH0 KECCAK256 SWAP1 DUP2 PUSH2 0x14FD SWAP2 SWAP1 PUSH2 0x4B2F JUMP JUMPDEST POP DUP2 PUSH32 0x38109EDC26E166B5579352CE56A50813177EB25208FD90D61F2F378386220220 DUP5 PUSH1 0x40 MLOAD PUSH2 0x152E SWAP2 SWAP1 PUSH2 0x449F JUMP JUMPDEST PUSH1 0x40 MLOAD DUP1 SWAP2 SUB SWAP1 LOG2 POP POP POP JUMP JUMPDEST PUSH0 DUP1 DUP4 DUP4 DUP2 ADD SWAP1 PUSH2 0x154C SWAP2 SWAP1 PUSH2 0x4C6F JUMP JUMPDEST SWAP1 POP PUSH0 PUSH2 0x155B DUP3 PUSH0 ADD MLOAD PUSH2 0xF5F JUMP JUMPDEST SWAP1 POP PUSH1 0x20 DUP2 MLOAD SUB PUSH2 0x15ED JUMPI PUSH20 0xFFFFFFFFFFFFFFFFFFFFFFFFFFFFFFFFFFFFFFFF DUP1 AND DUP2 PUSH2 0x1587 SWAP1 PUSH2 0x4CD9 JUMP JUMPDEST PUSH0 SHR GT ISZERO PUSH2 0x15CC JUMPI DUP1 PUSH1 0x40 MLOAD PUSH32 0xBFF1AC6500000000000000000000000000000000000000000000000000000000 DUP2 MSTORE PUSH1 0x4 ADD PUSH2 0x15C3 SWAP2 SWAP1 PUSH2 0x449F JUMP JUMPDEST PUSH1 0x40 MLOAD DUP1 SWAP2 SUB SWAP1 REVERT JUMPDEST PUSH0 PUSH1 0x20 DUP3 ADD MLOAD SWAP1 POP PUSH2 0x15E3 DUP2 DUP9 DUP6 PUSH1 0x20 ADD MLOAD PUSH2 0x1B3B JUMP JUMPDEST SWAP4 POP POP POP POP PUSH2 0x16A0 JUMP JUMPDEST PUSH1 0x40 DUP2 MLOAD SUB PUSH2 0x1663 JUMPI PUSH0 DUP1 DUP3 DUP1 PUSH1 0x20 ADD SWAP1 MLOAD DUP2 ADD SWAP1 PUSH2 0x160C SWAP2 SWAP1 PUSH2 0x4D53 JUMP JUMPDEST SWAP2 POP SWAP2 POP PUSH0 DUP5 PUSH1 0x20 ADD MLOAD DUP1 PUSH1 0x20 ADD SWAP1 MLOAD DUP2 ADD SWAP1 PUSH2 0x1629 SWAP2 SWAP1 PUSH2 0x4F72 JUMP JUMPDEST SWAP1 POP PUSH2 0x1657 DUP10 PUSH1 0x40 MLOAD PUSH1 0x20 ADD PUSH2 0x163F SWAP2 SWAP1 PUSH2 0x4197 JUMP JUMPDEST PUSH1 0x40 MLOAD PUSH1 0x20 DUP2 DUP4 SUB SUB DUP2 MSTORE SWAP1 PUSH1 0x40 MSTORE PUSH0 DUP4 DUP7 DUP7 PUSH2 0x1C3E JUMP JUMPDEST SWAP6 POP POP POP POP POP POP PUSH2 0x16A0 JUMP JUMPDEST DUP1 PUSH1 0x40 MLOAD PUSH32 0x4EEAB72200000000000000000000000000000000000000000000000000000000 DUP2 MSTORE PUSH1 0x4 ADD PUSH2 0x1697 SWAP2 SWAP1 PUSH2 0x449F JUMP JUMPDEST PUSH1 0x40 MLOAD DUP1 SWAP2 SUB SWAP1 REVERT JUMPDEST SWAP4 SWAP3 POP POP POP JUMP JUMPDEST PUSH0 DUP1 DUP5 PUSH20 0xFFFFFFFFFFFFFFFFFFFFFFFFFFFFFFFFFFFFFFFF AND DUP5 DUP5 PUSH1 0x40 MLOAD PUSH2 0x16CF SWAP2 SWAP1 PUSH2 0x4611 JUMP JUMPDEST PUSH0 PUSH1 0x40 MLOAD DUP1 DUP4 SUB DUP2 DUP6 DUP8 GAS CALL SWAP3 POP POP POP RETURNDATASIZE DUP1 PUSH0 DUP2 EQ PUSH2 0x1709 JUMPI PUSH1 0x40 MLOAD SWAP2 POP PUSH1 0x1F NOT PUSH1 0x3F RETURNDATASIZE ADD AND DUP3 ADD PUSH1 0x40 MSTORE RETURNDATASIZE DUP3 MSTORE RETURNDATASIZE PUSH0 PUSH1 0x20 DUP5 ADD RETURNDATACOPY PUSH2 0x170E JUMP JUMPDEST PUSH1 0x60 SWAP2 POP JUMPDEST POP SWAP2 POP SWAP2 POP DUP2 PUSH2 0x1720 JUMPI DUP1 MLOAD PUSH1 0x20 DUP3 ADD REVERT JUMPDEST POP POP POP POP POP JUMP JUMPDEST PUSH2 0x172F PUSH2 0x13D8 JUMP JUMPDEST POP JUMP JUMPDEST PUSH0 PUSH2 0x173C DUP3 PUSH2 0x203D JUMP JUMPDEST DUP1 MLOAD SWAP1 PUSH1 0x20 ADD KECCAK256 SWAP1 POP SWAP2 SWAP1 POP JUMP JUMPDEST PUSH0 PUSH2 0x1753 PUSH2 0x13B1 JUMP JUMPDEST SWAP1 POP PUSH0 DUP2 PUSH0 ADD SLOAD SWAP1 POP PUSH0 JUMPDEST DUP4 MLOAD DUP2 LT ISZERO PUSH2 0x1909 JUMPI PUSH1 0x20 DUP5 DUP3 DUP2 MLOAD DUP2 LT PUSH2 0x177C JUMPI PUSH2 0x177B PUSH2 0x46CE JUMP JUMPDEST JUMPDEST PUSH1 0x20 MUL PUSH1 0x20 ADD ADD MLOAD MLOAD EQ ISZERO DUP1 ISZERO PUSH2 0x17AF JUMPI POP PUSH1 0x40 DUP5 DUP3 DUP2 MLOAD DUP2 LT PUSH2 0x17A3 JUMPI PUSH2 0x17A2 PUSH2 0x46CE JUMP JUMPDEST JUMPDEST PUSH1 0x20 MUL PUSH1 0x20 ADD ADD MLOAD MLOAD EQ ISZERO JUMPDEST ISZERO PUSH2 0x180B JUMPI DUP4 DUP2 DUP2 MLOAD DUP2 LT PUSH2 0x17C7 JUMPI PUSH2 0x17C6 PUSH2 0x46CE JUMP JUMPDEST JUMPDEST PUSH1 0x20 MUL PUSH1 0x20 ADD ADD MLOAD PUSH1 0x40 MLOAD PUSH32 0x4EEAB72200000000000000000000000000000000000000000000000000000000 DUP2 MSTORE PUSH1 0x4 ADD PUSH2 0x1802 SWAP2 SWAP1 PUSH2 0x449F JUMP JUMPDEST PUSH1 0x40 MLOAD DUP1 SWAP2 SUB SWAP1 REVERT JUMPDEST PUSH1 0x20 DUP5 DUP3 DUP2 MLOAD DUP2 LT PUSH2 0x1820 JUMPI PUSH2 0x181F PUSH2 0x46CE JUMP JUMPDEST JUMPDEST PUSH1 0x20 MUL PUSH1 0x20 ADD ADD MLOAD MLOAD EQ DUP1 ISZERO PUSH2 0x1870 JUMPI POP PUSH20 0xFFFFFFFFFFFFFFFFFFFFFFFFFFFFFFFFFFFFFFFF DUP1 AND DUP5 DUP3 DUP2 MLOAD DUP2 LT PUSH2 0x185B JUMPI PUSH2 0x185A PUSH2 0x46CE JUMP JUMPDEST JUMPDEST PUSH1 0x20 MUL PUSH1 0x20 ADD ADD MLOAD PUSH2 0x186C SWAP1 PUSH2 0x4CD9 JUMP JUMPDEST PUSH0 SHR GT JUMPDEST ISZERO PUSH2 0x18CC JUMPI DUP4 DUP2 DUP2 MLOAD DUP2 LT PUSH2 0x1888 JUMPI PUSH2 0x1887 PUSH2 0x46CE JUMP JUMPDEST JUMPDEST PUSH1 0x20 MUL PUSH1 0x20 ADD ADD MLOAD PUSH1 0x40 MLOAD PUSH32 0xBFF1AC6500000000000000000000000000000000000000000000000000000000 DUP2 MSTORE PUSH1 0x4 ADD PUSH2 0x18C3 SWAP2 SWAP1 PUSH2 0x449F JUMP JUMPDEST PUSH1 0x40 MLOAD DUP1 SWAP2 SUB SWAP1 REVERT JUMPDEST PUSH2 0x18FC DUP5 DUP3 DUP2 MLOAD DUP2 LT PUSH2 0x18E2 JUMPI PUSH2 0x18E1 PUSH2 0x46CE JUMP JUMPDEST JUMPDEST PUSH1 0x20 MUL PUSH1 0x20 ADD ADD MLOAD DUP4 DUP1 PUSH2 0x18F5 SWAP1 PUSH2 0x4687 JUMP JUMPDEST SWAP5 POP PUSH2 0x144F JUMP JUMPDEST DUP1 DUP1 PUSH1 0x1 ADD SWAP2 POP POP PUSH2 0x175E JUMP JUMPDEST POP DUP1 DUP3 PUSH0 ADD DUP2 SWAP1 SSTORE POP POP POP POP JUMP JUMPDEST PUSH1 0x60 DUP1 PUSH1 0x40 MLOAD DUP1 PUSH1 0x40 ADD PUSH1 0x40 MSTORE DUP1 PUSH1 0x15 DUP2 MSTORE PUSH1 0x20 ADD PUSH32 0x436F696E6261736520536D6172742057616C6C65740000000000000000000000 DUP2 MSTORE POP PUSH1 0x40 MLOAD DUP1 PUSH1 0x40 ADD PUSH1 0x40 MSTORE DUP1 PUSH1 0x1 DUP2 MSTORE PUSH1 0x20 ADD PUSH32 0x3100000000000000000000000000000000000000000000000000000000000000 DUP2 MSTORE POP SWAP2 POP SWAP2 POP SWAP1 SWAP2 JUMP JUMPDEST PUSH0 PUSH2 0x1998 DUP5 PUSH2 0xF5F JUMP JUMPDEST SWAP1 POP PUSH0 DUP2 MLOAD SUB PUSH2 0x19DF JUMPI DUP4 PUSH1 0x40 MLOAD PUSH32 0x68188E7A00000000000000000000000000000000000000000000000000000000 DUP2 MSTORE PUSH1 0x4 ADD PUSH2 0x19D6 SWAP2 SWAP1 PUSH2 0x3BBD JUMP JUMPDEST PUSH1 0x40 MLOAD DUP1 SWAP2 SUB SWAP1 REVERT JUMPDEST DUP3 DUP3 PUSH1 0x40 MLOAD PUSH2 0x19EF SWAP3 SWAP2 SWAP1 PUSH2 0x4FDD JUMP JUMPDEST PUSH1 0x40 MLOAD DUP1 SWAP2 SUB SWAP1 KECCAK256 DUP2 DUP1 MLOAD SWAP1 PUSH1 0x20 ADD KECCAK256 EQ PUSH2 0x1A47 JUMPI DUP4 DUP4 DUP4 DUP4 PUSH1 0x40 MLOAD PUSH32 0x781F2E3900000000000000000000000000000000000000000000000000000000 DUP2 MSTORE PUSH1 0x4 ADD PUSH2 0x1A3E SWAP5 SWAP4 SWAP3 SWAP2 SWAP1 PUSH2 0x5021 JUMP JUMPDEST PUSH1 0x40 MLOAD DUP1 SWAP2 SUB SWAP1 REVERT JUMPDEST PUSH0 PUSH2 0x1A50 PUSH2 0x13B1 JUMP JUMPDEST SWAP1 POP DUP1 PUSH1 0x3 ADD DUP5 DUP5 PUSH1 0x40 MLOAD PUSH2 0x1A66 SWAP3 SWAP2 SWAP1 PUSH2 0x4FDD JUMP JUMPDEST SWAP1 DUP2 MSTORE PUSH1 0x20 ADD PUSH1 0x40 MLOAD DUP1 SWAP2 SUB SWAP1 KECCAK256 PUSH0 PUSH2 0x100 EXP DUP2 SLOAD SWAP1 PUSH1 0xFF MUL NOT AND SWAP1 SSTORE DUP1 PUSH1 0x2 ADD PUSH0 DUP7 DUP2 MSTORE PUSH1 0x20 ADD SWAP1 DUP2 MSTORE PUSH1 0x20 ADD PUSH0 KECCAK256 PUSH0 PUSH2 0x1AA1 SWAP2 SWAP1 PUSH2 0x3A98 JUMP JUMPDEST DUP1 PUSH1 0x1 ADD PUSH0 DUP2 SLOAD DUP1 SWAP3 SWAP2 SWAP1 PUSH2 0x1AB5 SWAP1 PUSH2 0x4687 JUMP JUMPDEST SWAP2 SWAP1 POP SSTORE POP DUP5 PUSH32 0xCF95BBFE6F870F8CC40482DC3DCCDAFD268F0E9CE0A4F24EA1BEA9BE64E505FF DUP6 DUP6 PUSH1 0x40 MLOAD PUSH2 0x1AEC SWAP3 SWAP2 SWAP1 PUSH2 0x5066 JUMP JUMPDEST PUSH1 0x40 MLOAD DUP1 SWAP2 SUB SWAP1 LOG2 POP POP POP POP POP JUMP JUMPDEST PUSH0 PUSH2 0x1B04 PUSH2 0x133E JUMP JUMPDEST PUSH2 0x1B0D DUP4 PUSH2 0x2111 JUMP JUMPDEST PUSH1 0x40 MLOAD PUSH1 0x20 ADD PUSH2 0x1B1E SWAP3 SWAP2 SWAP1 PUSH2 0x50FC JUMP JUMPDEST PUSH1 0x40 MLOAD PUSH1 0x20 DUP2 DUP4 SUB SUB DUP2 MSTORE SWAP1 PUSH1 0x40 MSTORE DUP1 MLOAD SWAP1 PUSH1 0x20 ADD KECCAK256 SWAP1 POP SWAP2 SWAP1 POP JUMP JUMPDEST PUSH0 DUP4 PUSH1 0x60 SHL PUSH1 0x60 SHR SWAP4 POP DUP4 ISZERO PUSH2 0x1C37 JUMPI PUSH1 0x40 MLOAD DUP4 PUSH0 MSTORE PUSH1 0x20 DUP4 ADD MLOAD PUSH1 0x40 MSTORE PUSH1 0x40 DUP4 MLOAD SUB PUSH2 0x1BA8 JUMPI PUSH1 0x40 DUP4 ADD MLOAD PUSH1 0x1B DUP2 PUSH1 0xFF SHR ADD PUSH1 0x20 MSTORE DUP1 PUSH1 0x1 SHL PUSH1 0x1 SHR PUSH1 0x60 MSTORE PUSH1 0x20 PUSH1 0x1 PUSH1 0x80 PUSH0 PUSH1 0x1 GAS STATICCALL DUP1 MLOAD DUP8 XOR RETURNDATASIZE ISZERO OR PUSH2 0x1BA5 JUMPI PUSH1 0x1 SWAP4 POP PUSH0 PUSH1 0x60 MSTORE DUP3 PUSH1 0x40 MSTORE POP POP POP PUSH2 0x1C37 JUMP JUMPDEST POP POP JUMPDEST PUSH1 0x41 DUP4 MLOAD SUB PUSH2 0x1BEE JUMPI PUSH1 0x60 DUP4 ADD MLOAD PUSH0 BYTE PUSH1 0x20 MSTORE PUSH1 0x40 DUP4 ADD MLOAD PUSH1 0x60 MSTORE PUSH1 0x20 PUSH1 0x1 PUSH1 0x80 PUSH0 PUSH1 0x1 GAS STATICCALL DUP1 MLOAD DUP7 XOR RETURNDATASIZE ISZERO OR PUSH2 0x1BEC JUMPI PUSH1 0x1 SWAP3 POP PUSH0 PUSH1 0x60 MSTORE DUP2 PUSH1 0x40 MSTORE POP POP PUSH2 0x1C37 JUMP JUMPDEST POP JUMPDEST PUSH0 PUSH1 0x60 MSTORE DUP1 PUSH1 0x40 MSTORE PUSH4 0x1626BA7E PUSH1 0xE0 SHL DUP1 DUP3 MSTORE DUP5 PUSH1 0x4 DUP4 ADD MSTORE PUSH1 0x24 DUP3 ADD PUSH1 0x40 DUP2 MSTORE DUP5 MLOAD PUSH1 0x20 ADD DUP1 PUSH1 0x44 DUP6 ADD DUP3 DUP9 PUSH1 0x4 GAS STATICCALL POP PUSH1 0x20 DUP3 PUSH1 0x44 RETURNDATASIZE ADD DUP7 DUP12 GAS STATICCALL DUP4 DUP4 MLOAD EQ AND SWAP5 POP POP POP POP POP JUMPDEST SWAP4 SWAP3 POP POP POP JUMP JUMPDEST PUSH0 PUSH1 0x2 PUSH32 0xFFFFFFFF00000000FFFFFFFFFFFFFFFFBCE6FAADA7179E84F3B9CAC2FC632551 PUSH2 0x1C6C SWAP2 SWAP1 PUSH2 0x515F JUMP JUMPDEST DUP5 PUSH1 0xA0 ADD MLOAD GT ISZERO PUSH2 0x1C7F JUMPI PUSH0 SWAP1 POP PUSH2 0x2034 JUMP JUMPDEST PUSH0 PUSH2 0x1CAD DUP6 PUSH1 0x60 ADD MLOAD PUSH1 0x15 DUP8 PUSH1 0x60 ADD MLOAD PUSH2 0x1C99 SWAP2 SWAP1 PUSH2 0x518F JUMP JUMPDEST DUP8 PUSH1 0x20 ADD MLOAD PUSH2 0x2162 SWAP1 SWAP3 SWAP2 SWAP1 PUSH4 0xFFFFFFFF AND JUMP JUMPDEST SWAP1 POP PUSH32 0xFF1A2A9176D650E4A99DEDB58F1793003935130579FE17B5A3F698AC5B00E634 DUP2 DUP1 MLOAD SWAP1 PUSH1 0x20 ADD KECCAK256 EQ PUSH2 0x1CE6 JUMPI PUSH0 SWAP2 POP POP PUSH2 0x2034 JUMP JUMPDEST PUSH0 PUSH2 0x1CF0 DUP9 PUSH2 0x21D7 JUMP JUMPDEST PUSH1 0x40 MLOAD PUSH1 0x20 ADD PUSH2 0x1D00 SWAP2 SWAP1 PUSH2 0x523E JUMP JUMPDEST PUSH1 0x40 MLOAD PUSH1 0x20 DUP2 DUP4 SUB SUB DUP2 MSTORE SWAP1 PUSH1 0x40 MSTORE SWAP1 POP PUSH0 PUSH2 0x1D3F DUP8 PUSH1 0x40 ADD MLOAD DUP4 MLOAD DUP10 PUSH1 0x40 ADD MLOAD PUSH2 0x1D2B SWAP2 SWAP1 PUSH2 0x518F JUMP JUMPDEST DUP10 PUSH1 0x20 ADD MLOAD PUSH2 0x2162 SWAP1 SWAP3 SWAP2 SWAP1 PUSH4 0xFFFFFFFF AND JUMP JUMPDEST SWAP1 POP DUP2 DUP1 MLOAD SWAP1 PUSH1 0x20 ADD KECCAK256 DUP2 DUP1 MLOAD SWAP1 PUSH1 0x20 ADD KECCAK256 EQ PUSH2 0x1D61 JUMPI PUSH0 SWAP4 POP POP POP POP PUSH2 0x2034 JUMP JUMPDEST PUSH1 0x1 PUSH1 0xF8 SHL PUSH31 0xFFFFFFFFFFFFFFFFFFFFFFFFFFFFFFFFFFFFFFFFFFFFFFFFFFFFFFFFFFFFFF NOT AND PUSH1 0x1 PUSH1 0xF8 SHL DUP9 PUSH0 ADD MLOAD PUSH1 0x20 DUP2 MLOAD DUP2 LT PUSH2 0x1DA4 JUMPI PUSH2 0x1DA3 PUSH2 0x46CE JUMP JUMPDEST JUMPDEST PUSH1 0x20 ADD ADD MLOAD PUSH1 0xF8 SHR PUSH1 0xF8 SHL AND PUSH31 0xFFFFFFFFFFFFFFFFFFFFFFFFFFFFFFFFFFFFFFFFFFFFFFFFFFFFFFFFFFFFFF NOT AND EQ PUSH2 0x1DE2 JUMPI PUSH0 SWAP4 POP POP POP POP PUSH2 0x2034 JUMP JUMPDEST DUP8 DUP1 ISZERO PUSH2 0x1E5E JUMPI POP PUSH1 0x4 PUSH1 0xF8 SHL PUSH31 0xFFFFFFFFFFFFFFFFFFFFFFFFFFFFFFFFFFFFFFFFFFFFFFFFFFFFFFFFFFFFFF NOT AND PUSH1 0x4 PUSH1 0xF8 SHL DUP9 PUSH0 ADD MLOAD PUSH1 0x20 DUP2 MLOAD DUP2 LT PUSH2 0x1E2D JUMPI PUSH2 0x1E2C PUSH2 0x46CE JUMP JUMPDEST JUMPDEST PUSH1 0x20 ADD ADD MLOAD PUSH1 0xF8 SHR PUSH1 0xF8 SHL AND PUSH31 0xFFFFFFFFFFFFFFFFFFFFFFFFFFFFFFFFFFFFFFFFFFFFFFFFFFFFFFFFFFFFFF NOT AND EQ ISZERO JUMPDEST ISZERO PUSH2 0x1E6E JUMPI PUSH0 SWAP4 POP POP POP POP PUSH2 0x2034 JUMP JUMPDEST PUSH0 PUSH1 0x2 DUP9 PUSH1 0x20 ADD MLOAD PUSH1 0x40 MLOAD PUSH2 0x1E83 SWAP2 SWAP1 PUSH2 0x4611 JUMP JUMPDEST PUSH1 0x20 PUSH1 0x40 MLOAD DUP1 DUP4 SUB DUP2 DUP6 GAS STATICCALL ISZERO DUP1 ISZERO PUSH2 0x1E9E JUMPI RETURNDATASIZE PUSH0 DUP1 RETURNDATACOPY RETURNDATASIZE PUSH0 REVERT JUMPDEST POP POP POP PUSH1 0x40 MLOAD RETURNDATASIZE PUSH1 0x1F NOT PUSH1 0x1F DUP3 ADD AND DUP3 ADD DUP1 PUSH1 0x40 MSTORE POP DUP2 ADD SWAP1 PUSH2 0x1EC1 SWAP2 SWAP1 PUSH2 0x5286 JUMP JUMPDEST SWAP1 POP PUSH0 PUSH1 0x2 DUP10 PUSH0 ADD MLOAD DUP4 PUSH1 0x40 MLOAD PUSH1 0x20 ADD PUSH2 0x1EDC SWAP3 SWAP2 SWAP1 PUSH2 0x52B1 JUMP JUMPDEST PUSH1 0x40 MLOAD PUSH1 0x20 DUP2 DUP4 SUB SUB DUP2 MSTORE SWAP1 PUSH1 0x40 MSTORE PUSH1 0x40 MLOAD PUSH2 0x1EF8 SWAP2 SWAP1 PUSH2 0x4611 JUMP JUMPDEST PUSH1 0x20 PUSH1 0x40 MLOAD DUP1 DUP4 SUB DUP2 DUP6 GAS STATICCALL ISZERO DUP1 ISZERO PUSH2 0x1F13 JUMPI RETURNDATASIZE PUSH0 DUP1 RETURNDATACOPY RETURNDATASIZE PUSH0 REVERT JUMPDEST POP POP POP PUSH1 0x40 MLOAD RETURNDATASIZE PUSH1 0x1F NOT PUSH1 0x1F DUP3 ADD AND DUP3 ADD DUP1 PUSH1 0x40 MSTORE POP DUP2 ADD SWAP1 PUSH2 0x1F36 SWAP2 SWAP1 PUSH2 0x5286 JUMP JUMPDEST SWAP1 POP PUSH0 DUP2 DUP11 PUSH1 0x80 ADD MLOAD DUP12 PUSH1 0xA0 ADD MLOAD DUP12 DUP12 PUSH1 0x40 MLOAD PUSH1 0x20 ADD PUSH2 0x1F5A SWAP6 SWAP5 SWAP4 SWAP3 SWAP2 SWAP1 PUSH2 0x52D8 JUMP JUMPDEST PUSH1 0x40 MLOAD PUSH1 0x20 DUP2 DUP4 SUB SUB DUP2 MSTORE SWAP1 PUSH1 0x40 MSTORE SWAP1 POP PUSH0 DUP1 PUSH2 0x100 PUSH20 0xFFFFFFFFFFFFFFFFFFFFFFFFFFFFFFFFFFFFFFFF AND DUP4 PUSH1 0x40 MLOAD PUSH2 0x1F94 SWAP2 SWAP1 PUSH2 0x4611 JUMP JUMPDEST PUSH0 PUSH1 0x40 MLOAD DUP1 DUP4 SUB DUP2 DUP6 GAS STATICCALL SWAP2 POP POP RETURNDATASIZE DUP1 PUSH0 DUP2 EQ PUSH2 0x1FCC JUMPI PUSH1 0x40 MLOAD SWAP2 POP PUSH1 0x1F NOT PUSH1 0x3F RETURNDATASIZE ADD AND DUP3 ADD PUSH1 0x40 MSTORE RETURNDATASIZE DUP3 MSTORE RETURNDATASIZE PUSH0 PUSH1 0x20 DUP5 ADD RETURNDATACOPY PUSH2 0x1FD1 JUMP JUMPDEST PUSH1 0x60 SWAP2 POP JUMPDEST POP SWAP2 POP SWAP2 POP PUSH0 DUP1 DUP3 MLOAD GT SWAP1 POP DUP3 DUP1 ISZERO PUSH2 0x1FE7 JUMPI POP DUP1 JUMPDEST ISZERO PUSH2 0x2013 JUMPI PUSH1 0x1 DUP3 DUP1 PUSH1 0x20 ADD SWAP1 MLOAD DUP2 ADD SWAP1 PUSH2 0x2002 SWAP2 SWAP1 PUSH2 0x5329 JUMP JUMPDEST EQ SWAP10 POP POP POP POP POP POP POP POP POP POP PUSH2 0x2034 JUMP JUMPDEST PUSH2 0x2028 DUP6 DUP15 PUSH1 0x80 ADD MLOAD DUP16 PUSH1 0xA0 ADD MLOAD DUP16 DUP16 PUSH2 0x2203 JUMP JUMPDEST SWAP10 POP POP POP POP POP POP POP POP POP POP JUMPDEST SWAP6 SWAP5 POP POP POP POP POP JUMP JUMPDEST PUSH1 0x60 PUSH0 PUSH2 0x2049 DUP4 PUSH2 0x2383 JUMP JUMPDEST SWAP1 POP PUSH0 DUP4 PUSH1 0x20 ADD CALLDATALOAD SWAP1 POP PUSH0 PUSH2 0x206C DUP6 DUP1 PUSH1 0x40 ADD SWAP1 PUSH2 0x2067 SWAP2 SWAP1 PUSH2 0x4707 JUMP JUMPDEST PUSH2 0x2392 JUMP JUMPDEST SWAP1 POP PUSH0 PUSH2 0x2087 DUP7 DUP1 PUSH1 0x60 ADD SWAP1 PUSH2 0x2082 SWAP2 SWAP1 PUSH2 0x4707 JUMP JUMPDEST PUSH2 0x2392 JUMP JUMPDEST SWAP1 POP PUSH0 DUP7 PUSH1 0x80 ADD CALLDATALOAD SWAP1 POP PUSH0 DUP8 PUSH1 0xA0 ADD CALLDATALOAD SWAP1 POP PUSH0 DUP9 PUSH1 0xC0 ADD CALLDATALOAD SWAP1 POP PUSH0 DUP10 PUSH1 0xE0 ADD CALLDATALOAD SWAP1 POP PUSH0 DUP11 PUSH2 0x100 ADD CALLDATALOAD SWAP1 POP PUSH0 PUSH2 0x20CC DUP13 DUP1 PUSH2 0x120 ADD SWAP1 PUSH2 0x20C7 SWAP2 SWAP1 PUSH2 0x4707 JUMP JUMPDEST PUSH2 0x2392 JUMP JUMPDEST SWAP1 POP DUP10 DUP10 DUP10 DUP10 DUP10 DUP10 DUP10 DUP10 DUP10 DUP10 PUSH1 0x40 MLOAD PUSH1 0x20 ADD PUSH2 0x20F1 SWAP11 SWAP10 SWAP9 SWAP8 SWAP7 SWAP6 SWAP5 SWAP4 SWAP3 SWAP2 SWAP1 PUSH2 0x5354 JUMP JUMPDEST PUSH1 0x40 MLOAD PUSH1 0x20 DUP2 DUP4 SUB SUB DUP2 MSTORE SWAP1 PUSH1 0x40 MSTORE SWAP11 POP POP POP POP POP POP POP POP POP POP POP SWAP2 SWAP1 POP JUMP JUMPDEST PUSH0 PUSH32 0x9B493D222105FEE7DF163AB5D57F0BF1FFD2DA04DD5FAFBE10B54C41C1ADC657 DUP3 PUSH1 0x40 MLOAD PUSH1 0x20 ADD PUSH2 0x2145 SWAP3 SWAP2 SWAP1 PUSH2 0x45B0 JUMP JUMPDEST PUSH1 0x40 MLOAD PUSH1 0x20 DUP2 DUP4 SUB SUB DUP2 MSTORE SWAP1 PUSH1 0x40 MSTORE DUP1 MLOAD SWAP1 PUSH1 0x20 ADD KECCAK256 SWAP1 POP SWAP2 SWAP1 POP JUMP JUMPDEST PUSH1 0x60 DUP4 MLOAD DUP3 DUP2 GT PUSH2 0x2171 JUMPI DUP1 SWAP3 POP JUMPDEST DUP4 DUP2 GT PUSH2 0x217C JUMPI DUP1 SWAP4 POP JUMPDEST DUP3 DUP5 LT ISZERO PUSH2 0x21CF JUMPI PUSH1 0x40 MLOAD SWAP2 POP DUP4 DUP4 SUB DUP1 DUP4 MSTORE DUP5 DUP7 ADD SWAP6 POP PUSH1 0x1F NOT DUP1 PUSH1 0x1F DUP4 ADD AND JUMPDEST PUSH1 0x1 ISZERO PUSH2 0x21B8 JUMPI DUP1 DUP9 ADD MLOAD DUP2 DUP7 ADD MSTORE DUP2 DUP2 ADD SWAP1 POP DUP1 PUSH2 0x219E JUMPI JUMPDEST POP PUSH0 DUP3 PUSH1 0x20 DUP7 ADD ADD MSTORE DUP1 PUSH1 0x3F DUP4 ADD AND DUP5 ADD PUSH1 0x40 MSTORE POP POP JUMPDEST POP SWAP4 SWAP3 POP POP POP JUMP JUMPDEST PUSH1 0x60 PUSH2 0x21FC DUP3 PUSH1 0x40 MLOAD DUP1 PUSH1 0x60 ADD PUSH1 0x40 MSTORE DUP1 PUSH1 0x40 DUP2 MSTORE PUSH1 0x20 ADD PUSH2 0x5430 PUSH1 0x40 SWAP2 CODECOPY PUSH0 PUSH2 0x23A8 JUMP JUMPDEST SWAP1 POP SWAP2 SWAP1 POP JUMP JUMPDEST PUSH0 DUP1 DUP6 EQ DUP1 PUSH2 0x2232 JUMPI POP PUSH32 0xFFFFFFFF00000000FFFFFFFFFFFFFFFFBCE6FAADA7179E84F3B9CAC2FC632551 DUP6 LT ISZERO JUMPDEST DUP1 PUSH2 0x223C JUMPI POP PUSH0 DUP5 EQ JUMPDEST DUP1 PUSH2 0x2267 JUMPI POP PUSH32 0xFFFFFFFF00000000FFFFFFFFFFFFFFFFBCE6FAADA7179E84F3B9CAC2FC632551 DUP5 LT ISZERO JUMPDEST ISZERO PUSH2 0x2274 JUMPI PUSH0 SWAP1 POP PUSH2 0x237A JUMP JUMPDEST PUSH2 0x227E DUP4 DUP4 PUSH2 0x2537 JUMP JUMPDEST PUSH2 0x228A JUMPI PUSH0 SWAP1 POP PUSH2 0x237A JUMP JUMPDEST PUSH0 PUSH2 0x2294 DUP6 PUSH2 0x2728 JUMP JUMPDEST SWAP1 POP PUSH0 PUSH32 0xFFFFFFFF00000000FFFFFFFFFFFFFFFFBCE6FAADA7179E84F3B9CAC2FC632551 DUP1 PUSH2 0x22C6 JUMPI PUSH2 0x22C5 PUSH2 0x5132 JUMP JUMPDEST JUMPDEST DUP3 DUP10 PUSH0 SHR MULMOD SWAP1 POP PUSH0 PUSH32 0xFFFFFFFF00000000FFFFFFFFFFFFFFFFBCE6FAADA7179E84F3B9CAC2FC632551 DUP1 PUSH2 0x22FD JUMPI PUSH2 0x22FC PUSH2 0x5132 JUMP JUMPDEST JUMPDEST DUP4 DUP10 MULMOD SWAP1 POP PUSH0 PUSH2 0x230F DUP8 DUP8 DUP6 DUP6 PUSH2 0x27AC JUMP JUMPDEST SWAP1 POP PUSH32 0xFFFFFFFF00000000FFFFFFFFFFFFFFFFBCE6FAADA7179E84F3B9CAC2FC632551 DUP1 PUSH2 0x2340 JUMPI PUSH2 0x233F PUSH2 0x5132 JUMP JUMPDEST JUMPDEST DUP10 PUSH32 0xFFFFFFFF00000000FFFFFFFFFFFFFFFFBCE6FAADA7179E84F3B9CAC2FC632551 PUSH2 0x236C SWAP2 SWAP1 PUSH2 0x4654 JUMP JUMPDEST DUP3 ADDMOD SWAP1 POP PUSH0 DUP2 EQ SWAP5 POP POP POP POP POP JUMPDEST SWAP6 SWAP5 POP POP POP POP POP JUMP JUMPDEST PUSH0 DUP1 DUP3 CALLDATALOAD SWAP1 POP DUP1 SWAP2 POP POP SWAP2 SWAP1 POP JUMP JUMPDEST PUSH0 PUSH1 0x40 MLOAD DUP3 DUP1 DUP6 DUP4 CALLDATACOPY DUP1 DUP3 KECCAK256 SWAP3 POP POP POP SWAP3 SWAP2 POP POP JUMP JUMPDEST PUSH1 0x60 PUSH0 DUP5 MLOAD SUB PUSH2 0x23C8 JUMPI PUSH1 0x40 MLOAD DUP1 PUSH1 0x20 ADD PUSH1 0x40 MSTORE DUP1 PUSH0 DUP2 MSTORE POP SWAP1 POP PUSH2 0x2530 JUMP JUMPDEST PUSH0 DUP3 PUSH2 0x23F9 JUMPI PUSH1 0x3 PUSH1 0x2 DUP7 MLOAD PUSH1 0x4 PUSH2 0x23E0 SWAP2 SWAP1 PUSH2 0x53EE JUMP JUMPDEST PUSH2 0x23EA SWAP2 SWAP1 PUSH2 0x518F JUMP JUMPDEST PUSH2 0x23F4 SWAP2 SWAP1 PUSH2 0x515F JUMP JUMPDEST PUSH2 0x2420 JUMP JUMPDEST PUSH1 0x3 PUSH1 0x2 DUP7 MLOAD PUSH2 0x2409 SWAP2 SWAP1 PUSH2 0x518F JUMP JUMPDEST PUSH2 0x2413 SWAP2 SWAP1 PUSH2 0x515F JUMP JUMPDEST PUSH1 0x4 PUSH2 0x241F SWAP2 SWAP1 PUSH2 0x53EE JUMP JUMPDEST JUMPDEST SWAP1 POP PUSH0 DUP2 PUSH8 0xFFFFFFFFFFFFFFFF DUP2 GT ISZERO PUSH2 0x243D JUMPI PUSH2 0x243C PUSH2 0x3D80 JUMP JUMPDEST JUMPDEST PUSH1 0x40 MLOAD SWAP1 DUP1 DUP3 MSTORE DUP1 PUSH1 0x1F ADD PUSH1 0x1F NOT AND PUSH1 0x20 ADD DUP3 ADD PUSH1 0x40 MSTORE DUP1 ISZERO PUSH2 0x246F JUMPI DUP2 PUSH1 0x20 ADD PUSH1 0x1 DUP3 MUL DUP1 CALLDATASIZE DUP4 CALLDATACOPY DUP1 DUP3 ADD SWAP2 POP POP SWAP1 POP JUMPDEST POP SWAP1 POP PUSH1 0x1 DUP6 ADD PUSH1 0x20 DUP3 ADD DUP8 DUP9 MLOAD DUP10 ADD PUSH1 0x20 DUP2 ADD DUP1 MLOAD PUSH0 DUP3 MSTORE JUMPDEST DUP3 DUP5 LT ISZERO PUSH2 0x24E4 JUMPI PUSH1 0x3 DUP5 ADD SWAP4 POP DUP4 MLOAD PUSH1 0x3F DUP2 PUSH1 0x12 SHR AND DUP8 ADD MLOAD DUP7 MSTORE8 PUSH1 0x1 DUP7 ADD SWAP6 POP PUSH1 0x3F DUP2 PUSH1 0xC SHR AND DUP8 ADD MLOAD DUP7 MSTORE8 PUSH1 0x1 DUP7 ADD SWAP6 POP PUSH1 0x3F DUP2 PUSH1 0x6 SHR AND DUP8 ADD MLOAD DUP7 MSTORE8 PUSH1 0x1 DUP7 ADD SWAP6 POP PUSH1 0x3F DUP2 AND DUP8 ADD MLOAD DUP7 MSTORE8 PUSH1 0x1 DUP7 ADD SWAP6 POP POP PUSH2 0x2489 JUMP JUMPDEST DUP1 DUP3 MSTORE DUP10 ISZERO PUSH2 0x2524 JUMPI PUSH1 0x3 DUP13 MLOAD MOD PUSH1 0x1 DUP2 EQ PUSH2 0x2507 JUMPI PUSH1 0x2 DUP2 EQ PUSH2 0x251A JUMPI PUSH2 0x2522 JUMP JUMPDEST PUSH1 0x3D PUSH1 0x1 DUP8 SUB MSTORE8 PUSH1 0x3D PUSH1 0x2 DUP8 SUB MSTORE8 PUSH2 0x2522 JUMP JUMPDEST PUSH1 0x3D PUSH1 0x1 DUP8 SUB MSTORE8 JUMPDEST POP JUMPDEST POP POP POP POP POP POP DUP1 SWAP3 POP POP POP JUMPDEST SWAP4 SWAP3 POP POP POP JUMP JUMPDEST PUSH0 PUSH32 0xFFFFFFFF00000001000000000000000000000000FFFFFFFFFFFFFFFFFFFFFFFF DUP4 LT ISZERO DUP1 PUSH2 0x2587 JUMPI POP PUSH32 0xFFFFFFFF00000001000000000000000000000000FFFFFFFFFFFFFFFFFFFFFFFF DUP3 LT ISZERO JUMPDEST DUP1 PUSH2 0x259C JUMPI POP PUSH0 DUP4 EQ DUP1 ISZERO PUSH2 0x259B JUMPI POP PUSH0 DUP3 EQ JUMPDEST JUMPDEST ISZERO PUSH2 0x25A9 JUMPI PUSH0 SWAP1 POP PUSH2 0x2722 JUMP JUMPDEST PUSH0 PUSH32 0xFFFFFFFF00000001000000000000000000000000FFFFFFFFFFFFFFFFFFFFFFFF DUP1 PUSH2 0x25D9 JUMPI PUSH2 0x25D8 PUSH2 0x5132 JUMP JUMPDEST JUMPDEST DUP4 DUP5 MULMOD SWAP1 POP PUSH0 PUSH32 0xFFFFFFFF00000001000000000000000000000000FFFFFFFFFFFFFFFFFFFFFFFF DUP1 PUSH2 0x260E JUMPI PUSH2 0x260D PUSH2 0x5132 JUMP JUMPDEST JUMPDEST PUSH32 0xFFFFFFFF00000001000000000000000000000000FFFFFFFFFFFFFFFFFFFFFFFF DUP1 PUSH2 0x263D JUMPI PUSH2 0x263C PUSH2 0x5132 JUMP JUMPDEST JUMPDEST PUSH32 0xFFFFFFFF00000001000000000000000000000000FFFFFFFFFFFFFFFFFFFFFFFC DUP8 MULMOD PUSH32 0xFFFFFFFF00000001000000000000000000000000FFFFFFFFFFFFFFFFFFFFFFFF DUP1 PUSH2 0x268F JUMPI PUSH2 0x268E PUSH2 0x5132 JUMP JUMPDEST JUMPDEST DUP8 PUSH32 0xFFFFFFFF00000001000000000000000000000000FFFFFFFFFFFFFFFFFFFFFFFF DUP1 PUSH2 0x26BF JUMPI PUSH2 0x26BE PUSH2 0x5132 JUMP JUMPDEST JUMPDEST DUP10 DUP11 MULMOD MULMOD ADDMOD SWAP1 POP PUSH32 0xFFFFFFFF00000001000000000000000000000000FFFFFFFFFFFFFFFFFFFFFFFF DUP1 PUSH2 0x26F5 JUMPI PUSH2 0x26F4 PUSH2 0x5132 JUMP JUMPDEST JUMPDEST PUSH32 0x5AC635D8AA3A93E7B3EBBD55769886BC651D06B0CC53B0F63BCE3C3E27D2604B DUP3 ADDMOD SWAP1 POP DUP1 DUP3 EQ SWAP3 POP POP POP JUMPDEST SWAP3 SWAP2 POP POP JUMP JUMPDEST PUSH0 PUSH1 0x40 MLOAD PUSH1 0x20 DUP2 MSTORE PUSH1 0x20 DUP1 DUP3 ADD MSTORE PUSH1 0x20 PUSH1 0x40 DUP3 ADD MSTORE DUP3 PUSH1 0x60 DUP3 ADD MSTORE PUSH32 0xFFFFFFFF00000000FFFFFFFFFFFFFFFFBCE6FAADA7179E84F3B9CAC2FC63254F PUSH1 0x80 DUP3 ADD MSTORE PUSH32 0xFFFFFFFF00000000FFFFFFFFFFFFFFFFBCE6FAADA7179E84F3B9CAC2FC632551 PUSH1 0xA0 DUP3 ADD MSTORE PUSH1 0x20 DUP2 PUSH1 0xC0 DUP4 PUSH1 0x5 PUSH0 NOT STATICCALL PUSH2 0x27A2 JUMPI PUSH0 DUP1 REVERT JUMPDEST DUP1 MLOAD SWAP2 POP POP SWAP2 SWAP1 POP JUMP JUMPDEST PUSH0 DUP1 PUSH0 DUP1 PUSH0 PUSH1 0xFF SWAP1 POP PUSH0 DUP1 PUSH0 DUP10 EQ DUP1 ISZERO PUSH2 0x27C5 JUMPI POP PUSH0 DUP9 EQ JUMPDEST ISZERO PUSH2 0x27D8 JUMPI PUSH0 SWAP7 POP POP POP POP POP POP POP PUSH2 0x32DD JUMP JUMPDEST PUSH2 0x2824 PUSH32 0x6B17D1F2E12C4247F8BCE6E563A440F277037D812DEB33A0F4A13945D898C296 PUSH32 0x4FE342E2FE1A7F9B8EE7EB4A7C0F9E162BCE33576B315ECECBB6406837BF51F5 DUP14 DUP14 PUSH2 0x32E5 JUMP JUMPDEST DUP1 SWAP3 POP DUP2 SWAP4 POP POP POP PUSH0 DUP3 EQ DUP1 ISZERO PUSH2 0x283A JUMPI POP PUSH0 DUP2 EQ JUMPDEST ISZERO PUSH2 0x28BA JUMPI PUSH32 0xFFFFFFFF00000000FFFFFFFFFFFFFFFFBCE6FAADA7179E84F3B9CAC2FC632551 DUP1 PUSH2 0x286E JUMPI PUSH2 0x286D PUSH2 0x5132 JUMP JUMPDEST JUMPDEST DUP9 PUSH32 0xFFFFFFFF00000000FFFFFFFFFFFFFFFFBCE6FAADA7179E84F3B9CAC2FC632551 SUB DUP11 ADDMOD SWAP9 POP PUSH0 SWAP8 POP PUSH0 DUP10 EQ DUP1 ISZERO PUSH2 0x28A6 JUMPI POP PUSH0 DUP9 EQ JUMPDEST ISZERO PUSH2 0x28B9 JUMPI PUSH0 SWAP7 POP POP POP POP POP POP POP PUSH2 0x32DD JUMP JUMPDEST JUMPDEST PUSH1 0x1 DUP10 DUP5 SHR AND PUSH1 0x1 DUP10 DUP6 SHR AND PUSH1 0x1 SHL ADD JUMPDEST PUSH0 DUP2 SUB PUSH2 0x28EF JUMPI PUSH1 0x1 DUP5 SUB SWAP4 POP PUSH1 0x1 DUP11 DUP6 SHR AND PUSH1 0x1 DUP11 DUP7 SHR AND PUSH1 0x1 SHL ADD SWAP1 POP PUSH2 0x28CB JUMP JUMPDEST POP PUSH1 0x1 DUP10 DUP5 SHR AND PUSH1 0x1 DUP10 DUP6 SHR AND PUSH1 0x1 SHL ADD SWAP6 POP PUSH1 0x1 DUP7 SUB PUSH2 0x2951 JUMPI PUSH32 0x6B17D1F2E12C4247F8BCE6E563A440F277037D812DEB33A0F4A13945D898C296 SWAP7 POP PUSH32 0x4FE342E2FE1A7F9B8EE7EB4A7C0F9E162BCE33576B315ECECBB6406837BF51F5 SWAP4 POP JUMPDEST PUSH1 0x2 DUP7 SUB PUSH2 0x2960 JUMPI DUP11 SWAP7 POP DUP10 SWAP4 POP JUMPDEST PUSH1 0x3 DUP7 SUB PUSH2 0x296F JUMPI DUP2 SWAP7 POP DUP1 SWAP4 POP JUMPDEST PUSH1 0x1 DUP4 SUB SWAP3 POP PUSH1 0x1 SWAP6 POP PUSH1 0x1 SWAP5 POP JUMPDEST DUP3 PUSH32 0xFFFFFFFFFFFFFFFFFFFFFFFFFFFFFFFFFFFFFFFFFFFFFFFFFFFFFFFFFFFFFFFF GT ISZERO PUSH2 0x3235 JUMPI PUSH32 0xFFFFFFFF00000001000000000000000000000000FFFFFFFFFFFFFFFFFFFFFFFF DUP5 PUSH1 0x2 MULMOD PUSH32 0xFFFFFFFF00000001000000000000000000000000FFFFFFFFFFFFFFFFFFFFFFFF DUP2 DUP3 MULMOD PUSH32 0xFFFFFFFF00000001000000000000000000000000FFFFFFFFFFFFFFFFFFFFFFFF DUP2 DUP11 MULMOD PUSH32 0xFFFFFFFF00000001000000000000000000000000FFFFFFFFFFFFFFFFFFFFFFFF DUP3 DUP5 MULMOD SWAP3 POP PUSH32 0xFFFFFFFF00000001000000000000000000000000FFFFFFFFFFFFFFFFFFFFFFFF DUP1 PUSH32 0xFFFFFFFF00000001000000000000000000000000FFFFFFFFFFFFFFFFFFFFFFFF DUP12 DUP14 ADDMOD PUSH32 0xFFFFFFFF00000001000000000000000000000000FFFFFFFFFFFFFFFFFFFFFFFF DUP13 PUSH32 0xFFFFFFFF00000001000000000000000000000000FFFFFFFFFFFFFFFFFFFFFFFF SUB DUP15 ADDMOD MULMOD PUSH1 0x3 MULMOD PUSH32 0xFFFFFFFF00000001000000000000000000000000FFFFFFFFFFFFFFFFFFFFFFFF DUP10 DUP6 MULMOD SWAP9 POP PUSH32 0xFFFFFFFF00000001000000000000000000000000FFFFFFFFFFFFFFFFFFFFFFFF DUP11 DUP5 MULMOD SWAP10 POP PUSH32 0xFFFFFFFF00000001000000000000000000000000FFFFFFFFFFFFFFFFFFFFFFFF DUP1 DUP4 PUSH32 0xFFFFFFFF00000001000000000000000000000000FFFFFFFFFFFFFFFFFFFFFFFD MULMOD PUSH32 0xFFFFFFFF00000001000000000000000000000000FFFFFFFFFFFFFFFFFFFFFFFF DUP4 DUP5 MULMOD ADDMOD SWAP11 POP PUSH32 0xFFFFFFFF00000001000000000000000000000000FFFFFFFFFFFFFFFFFFFFFFFF DUP1 DUP4 PUSH32 0xFFFFFFFF00000001000000000000000000000000FFFFFFFFFFFFFFFFFFFFFFFF SUB DUP14 ADDMOD DUP3 MULMOD SWAP3 POP PUSH32 0xFFFFFFFF00000001000000000000000000000000FFFFFFFFFFFFFFFFFFFFFFFF DUP4 PUSH32 0xFFFFFFFF00000001000000000000000000000000FFFFFFFFFFFFFFFFFFFFFFFF DUP11 DUP8 MULMOD ADDMOD SWAP8 POP PUSH1 0x1 DUP14 DUP9 SHR AND PUSH1 0x1 DUP14 DUP10 SHR AND PUSH1 0x1 SHL ADD SWAP1 POP DUP1 PUSH2 0x2C5A JUMPI DUP8 PUSH32 0xFFFFFFFF00000001000000000000000000000000FFFFFFFFFFFFFFFFFFFFFFFF SUB SWAP8 POP POP POP POP POP PUSH2 0x322A JUMP JUMPDEST PUSH1 0x1 DUP2 SUB PUSH2 0x2CA9 JUMPI PUSH32 0x6B17D1F2E12C4247F8BCE6E563A440F277037D812DEB33A0F4A13945D898C296 SWAP4 POP PUSH32 0x4FE342E2FE1A7F9B8EE7EB4A7C0F9E162BCE33576B315ECECBB6406837BF51F5 SWAP3 POP JUMPDEST PUSH1 0x2 DUP2 SUB PUSH2 0x2CB8 JUMPI DUP15 SWAP4 POP DUP14 SWAP3 POP JUMPDEST PUSH1 0x3 DUP2 SUB PUSH2 0x2CC7 JUMPI DUP6 SWAP4 POP DUP5 SWAP3 POP JUMPDEST DUP10 PUSH2 0x2CE3 JUMPI DUP4 SWAP11 POP DUP3 SWAP8 POP PUSH1 0x1 SWAP10 POP PUSH1 0x1 SWAP9 POP POP POP POP POP PUSH2 0x322A JUMP JUMPDEST PUSH32 0xFFFFFFFF00000001000000000000000000000000FFFFFFFFFFFFFFFFFFFFFFFF DUP9 PUSH32 0xFFFFFFFF00000001000000000000000000000000FFFFFFFFFFFFFFFFFFFFFFFF DUP12 DUP7 MULMOD ADDMOD PUSH32 0xFFFFFFFF00000001000000000000000000000000FFFFFFFFFFFFFFFFFFFFFFFF DUP13 PUSH32 0xFFFFFFFF00000001000000000000000000000000FFFFFFFFFFFFFFFFFFFFFFFF SUB PUSH32 0xFFFFFFFF00000001000000000000000000000000FFFFFFFFFFFFFFFFFFFFFFFF DUP14 DUP9 MULMOD ADDMOD SWAP4 POP DUP1 PUSH2 0x3023 JUMPI DUP4 PUSH2 0x3022 JUMPI PUSH32 0xFFFFFFFF00000001000000000000000000000000FFFFFFFFFFFFFFFFFFFFFFFF DUP10 PUSH32 0xFFFFFFFF00000001000000000000000000000000FFFFFFFFFFFFFFFFFFFFFFFD MULMOD SWAP5 POP PUSH32 0xFFFFFFFF00000001000000000000000000000000FFFFFFFFFFFFFFFFFFFFFFFF DUP6 DUP7 MULMOD SWAP4 POP PUSH32 0xFFFFFFFF00000001000000000000000000000000FFFFFFFFFFFFFFFFFFFFFFFF DUP5 DUP14 MULMOD SWAP3 POP PUSH32 0xFFFFFFFF00000001000000000000000000000000FFFFFFFFFFFFFFFFFFFFFFFF DUP5 DUP7 MULMOD SWAP5 POP PUSH32 0xFFFFFFFF00000001000000000000000000000000FFFFFFFFFFFFFFFFFFFFFFFF DUP1 DUP13 PUSH32 0xFFFFFFFF00000001000000000000000000000000FFFFFFFFFFFFFFFFFFFFFFFF SUB DUP15 ADDMOD PUSH32 0xFFFFFFFF00000001000000000000000000000000FFFFFFFFFFFFFFFFFFFFFFFF DUP14 DUP16 ADDMOD MULMOD SWAP1 POP PUSH32 0xFFFFFFFF00000001000000000000000000000000FFFFFFFFFFFFFFFFFFFFFFFF DUP2 PUSH1 0x3 MULMOD SWAP2 POP PUSH32 0xFFFFFFFF00000001000000000000000000000000FFFFFFFFFFFFFFFFFFFFFFFF DUP11 DUP7 MULMOD SWAP10 POP PUSH32 0xFFFFFFFF00000001000000000000000000000000FFFFFFFFFFFFFFFFFFFFFFFF DUP12 DUP6 MULMOD SWAP11 POP PUSH32 0xFFFFFFFF00000001000000000000000000000000FFFFFFFFFFFFFFFFFFFFFFFF DUP1 DUP5 PUSH32 0xFFFFFFFF00000001000000000000000000000000FFFFFFFFFFFFFFFFFFFFFFFD MULMOD PUSH32 0xFFFFFFFF00000001000000000000000000000000FFFFFFFFFFFFFFFFFFFFFFFF DUP5 DUP6 MULMOD ADDMOD SWAP12 POP PUSH32 0xFFFFFFFF00000001000000000000000000000000FFFFFFFFFFFFFFFFFFFFFFFF DUP1 DUP14 PUSH32 0xFFFFFFFF00000001000000000000000000000000FFFFFFFFFFFFFFFFFFFFFFFF SUB DUP6 ADDMOD DUP4 MULMOD SWAP4 POP PUSH32 0xFFFFFFFF00000001000000000000000000000000FFFFFFFFFFFFFFFFFFFFFFFF DUP1 DUP11 DUP8 MULMOD DUP6 ADDMOD SWAP9 POP POP POP POP POP POP PUSH2 0x322A JUMP JUMPDEST JUMPDEST PUSH32 0xFFFFFFFF00000001000000000000000000000000FFFFFFFFFFFFFFFFFFFFFFFF DUP5 DUP6 MULMOD SWAP2 POP PUSH32 0xFFFFFFFF00000001000000000000000000000000FFFFFFFFFFFFFFFFFFFFFFFF DUP5 DUP4 MULMOD PUSH32 0xFFFFFFFF00000001000000000000000000000000FFFFFFFFFFFFFFFFFFFFFFFF DUP4 DUP14 MULMOD SWAP12 POP PUSH32 0xFFFFFFFF00000001000000000000000000000000FFFFFFFFFFFFFFFFFFFFFFFF DUP2 DUP13 MULMOD SWAP11 POP PUSH32 0xFFFFFFFF00000001000000000000000000000000FFFFFFFFFFFFFFFFFFFFFFFF DUP4 DUP15 MULMOD PUSH32 0xFFFFFFFF00000001000000000000000000000000FFFFFFFFFFFFFFFFFFFFFFFF DUP1 DUP3 PUSH32 0xFFFFFFFF00000001000000000000000000000000FFFFFFFFFFFFFFFFFFFFFFFD MULMOD PUSH32 0xFFFFFFFF00000001000000000000000000000000FFFFFFFFFFFFFFFFFFFFFFFF DUP5 PUSH32 0xFFFFFFFF00000001000000000000000000000000FFFFFFFFFFFFFFFFFFFFFFFF SUB PUSH32 0xFFFFFFFF00000001000000000000000000000000FFFFFFFFFFFFFFFFFFFFFFFF DUP8 DUP9 MULMOD ADDMOD ADDMOD SWAP4 POP PUSH32 0xFFFFFFFF00000001000000000000000000000000FFFFFFFFFFFFFFFFFFFFFFFF DUP1 DUP4 DUP14 MULMOD PUSH32 0xFFFFFFFF00000001000000000000000000000000FFFFFFFFFFFFFFFFFFFFFFFF DUP6 PUSH32 0xFFFFFFFF00000001000000000000000000000000FFFFFFFFFFFFFFFFFFFFFFFF DUP9 PUSH32 0xFFFFFFFF00000001000000000000000000000000FFFFFFFFFFFFFFFFFFFFFFFF SUB DUP7 ADDMOD MULMOD ADDMOD SWAP11 POP DUP4 SWAP14 POP POP POP POP POP POP POP POP JUMPDEST PUSH1 0x1 DUP4 SUB SWAP3 POP PUSH2 0x297E JUMP JUMPDEST PUSH1 0x40 MLOAD DUP7 PUSH1 0x60 DUP3 ADD MSTORE PUSH1 0x20 DUP2 MSTORE PUSH1 0x20 DUP1 DUP3 ADD MSTORE PUSH1 0x20 PUSH1 0x40 DUP3 ADD MSTORE PUSH32 0xFFFFFFFF00000001000000000000000000000000FFFFFFFFFFFFFFFFFFFFFFFD PUSH1 0x80 DUP3 ADD MSTORE PUSH32 0xFFFFFFFF00000001000000000000000000000000FFFFFFFFFFFFFFFFFFFFFFFF PUSH1 0xA0 DUP3 ADD MSTORE PUSH1 0x20 DUP2 PUSH1 0xC0 DUP4 PUSH1 0x5 PUSH0 NOT STATICCALL PUSH2 0x32AE JUMPI PUSH0 DUP1 REVERT JUMPDEST PUSH32 0xFFFFFFFF00000001000000000000000000000000FFFFFFFFFFFFFFFFFFFFFFFF DUP2 MLOAD DUP10 MULMOD SWAP8 POP POP POP POP POP POP POP POP JUMPDEST SWAP5 SWAP4 POP POP POP POP JUMP JUMPDEST PUSH0 DUP1 PUSH0 DUP1 PUSH2 0x32F3 DUP9 DUP9 PUSH2 0x3392 JUMP JUMPDEST ISZERO PUSH2 0x3305 JUMPI DUP6 DUP6 SWAP4 POP SWAP4 POP POP POP PUSH2 0x3389 JUMP JUMPDEST PUSH2 0x330F DUP7 DUP7 PUSH2 0x3392 JUMP JUMPDEST ISZERO PUSH2 0x3321 JUMPI DUP8 DUP8 SWAP4 POP SWAP4 POP POP POP PUSH2 0x3389 JUMP JUMPDEST DUP6 DUP9 EQ DUP1 ISZERO PUSH2 0x332F JUMPI POP DUP5 DUP8 EQ JUMPDEST ISZERO PUSH2 0x3356 JUMPI PUSH2 0x3341 DUP9 DUP9 PUSH1 0x1 DUP1 PUSH2 0x339E JUMP JUMPDEST DUP1 SWAP5 POP DUP2 SWAP6 POP DUP3 SWAP11 POP DUP4 SWAP12 POP POP POP POP POP PUSH2 0x3376 JUMP JUMPDEST PUSH2 0x3365 DUP9 DUP9 PUSH1 0x1 DUP1 DUP11 DUP11 PUSH2 0x3626 JUMP JUMPDEST DUP1 SWAP5 POP DUP2 SWAP6 POP DUP3 SWAP11 POP DUP4 SWAP12 POP POP POP POP POP JUMPDEST PUSH2 0x3382 DUP9 DUP9 DUP5 DUP5 PUSH2 0x392A JUMP JUMPDEST SWAP4 POP SWAP4 POP POP POP JUMPDEST SWAP5 POP SWAP5 SWAP3 POP POP POP JUMP JUMPDEST PUSH0 DUP1 DUP3 EQ SWAP1 POP SWAP3 SWAP2 POP POP JUMP JUMPDEST PUSH0 DUP1 PUSH0 DUP1 PUSH32 0xFFFFFFFF00000001000000000000000000000000FFFFFFFFFFFFFFFFFFFFFFFF DUP8 PUSH1 0x2 MULMOD SWAP4 POP PUSH32 0xFFFFFFFF00000001000000000000000000000000FFFFFFFFFFFFFFFFFFFFFFFF DUP5 DUP6 MULMOD SWAP2 POP PUSH32 0xFFFFFFFF00000001000000000000000000000000FFFFFFFFFFFFFFFFFFFFFFFF DUP3 DUP10 MULMOD SWAP1 POP PUSH32 0xFFFFFFFF00000001000000000000000000000000FFFFFFFFFFFFFFFFFFFFFFFF DUP3 DUP6 MULMOD SWAP3 POP PUSH32 0xFFFFFFFF00000001000000000000000000000000FFFFFFFFFFFFFFFFFFFFFFFF DUP7 DUP4 MULMOD SWAP2 POP PUSH32 0xFFFFFFFF00000001000000000000000000000000FFFFFFFFFFFFFFFFFFFFFFFF DUP1 PUSH32 0xFFFFFFFF00000001000000000000000000000000FFFFFFFFFFFFFFFFFFFFFFFF DUP9 DUP12 ADDMOD PUSH32 0xFFFFFFFF00000001000000000000000000000000FFFFFFFFFFFFFFFFFFFFFFFF DUP10 PUSH32 0xFFFFFFFF00000001000000000000000000000000FFFFFFFFFFFFFFFFFFFFFFFF SUB DUP13 ADDMOD MULMOD PUSH1 0x3 MULMOD SWAP6 POP PUSH32 0xFFFFFFFF00000001000000000000000000000000FFFFFFFFFFFFFFFFFFFFFFFF DUP1 DUP3 PUSH32 0xFFFFFFFF00000001000000000000000000000000FFFFFFFFFFFFFFFFFFFFFFFD MULMOD PUSH32 0xFFFFFFFF00000001000000000000000000000000FFFFFFFFFFFFFFFFFFFFFFFF DUP9 DUP10 MULMOD ADDMOD SWAP4 POP PUSH32 0xFFFFFFFF00000001000000000000000000000000FFFFFFFFFFFFFFFFFFFFFFFF DUP1 DUP6 PUSH32 0xFFFFFFFF00000001000000000000000000000000FFFFFFFFFFFFFFFFFFFFFFFF SUB DUP4 ADDMOD DUP8 MULMOD SWAP8 POP PUSH32 0xFFFFFFFF00000001000000000000000000000000FFFFFFFFFFFFFFFFFFFFFFFF DUP6 DUP5 MULMOD SWAP1 POP PUSH32 0xFFFFFFFF00000001000000000000000000000000FFFFFFFFFFFFFFFFFFFFFFFF DUP1 DUP9 DUP6 MULMOD PUSH32 0xFFFFFFFF00000001000000000000000000000000FFFFFFFFFFFFFFFFFFFFFFFF SUB DUP10 ADDMOD SWAP3 POP SWAP5 POP SWAP5 POP SWAP5 POP SWAP5 SWAP1 POP JUMP JUMPDEST PUSH0 DUP1 PUSH0 DUP1 PUSH0 DUP10 SUB PUSH2 0x3643 JUMPI DUP6 DUP6 PUSH1 0x1 DUP1 SWAP4 POP SWAP4 POP SWAP4 POP SWAP4 POP PUSH2 0x391D JUMP JUMPDEST DUP9 PUSH32 0xFFFFFFFF00000001000000000000000000000000FFFFFFFFFFFFFFFFFFFFFFFF SUB SWAP9 POP PUSH32 0xFFFFFFFF00000001000000000000000000000000FFFFFFFFFFFFFFFFFFFFFFFF DUP10 PUSH32 0xFFFFFFFF00000001000000000000000000000000FFFFFFFFFFFFFFFFFFFFFFFF DUP10 DUP9 MULMOD ADDMOD SWAP5 POP PUSH32 0xFFFFFFFF00000001000000000000000000000000FFFFFFFFFFFFFFFFFFFFFFFF DUP11 PUSH32 0xFFFFFFFF00000001000000000000000000000000FFFFFFFFFFFFFFFFFFFFFFFF SUB PUSH32 0xFFFFFFFF00000001000000000000000000000000FFFFFFFFFFFFFFFFFFFFFFFF DUP11 DUP10 MULMOD ADDMOD SWAP6 POP PUSH32 0xFFFFFFFF00000001000000000000000000000000FFFFFFFFFFFFFFFFFFFFFFFF DUP7 DUP8 MULMOD SWAP4 POP PUSH32 0xFFFFFFFF00000001000000000000000000000000FFFFFFFFFFFFFFFFFFFFFFFF DUP7 DUP6 MULMOD SWAP3 POP PUSH32 0xFFFFFFFF00000001000000000000000000000000FFFFFFFFFFFFFFFFFFFFFFFF DUP5 DUP10 MULMOD SWAP2 POP PUSH32 0xFFFFFFFF00000001000000000000000000000000FFFFFFFFFFFFFFFFFFFFFFFF DUP4 DUP9 MULMOD SWAP1 POP PUSH32 0xFFFFFFFF00000001000000000000000000000000FFFFFFFFFFFFFFFFFFFFFFFF DUP5 DUP12 MULMOD SWAP8 POP PUSH32 0xFFFFFFFF00000001000000000000000000000000FFFFFFFFFFFFFFFFFFFFFFFF DUP1 DUP10 PUSH32 0xFFFFFFFF00000001000000000000000000000000FFFFFFFFFFFFFFFFFFFFFFFD MULMOD PUSH32 0xFFFFFFFF00000001000000000000000000000000FFFFFFFFFFFFFFFFFFFFFFFF DUP6 PUSH32 0xFFFFFFFF00000001000000000000000000000000FFFFFFFFFFFFFFFFFFFFFFFF SUB PUSH32 0xFFFFFFFF00000001000000000000000000000000FFFFFFFFFFFFFFFFFFFFFFFF DUP10 DUP11 MULMOD ADDMOD ADDMOD SWAP4 POP PUSH32 0xFFFFFFFF00000001000000000000000000000000FFFFFFFFFFFFFFFFFFFFFFFF DUP1 DUP5 DUP12 MULMOD PUSH32 0xFFFFFFFF00000001000000000000000000000000FFFFFFFFFFFFFFFFFFFFFFFF DUP8 PUSH32 0xFFFFFFFF00000001000000000000000000000000FFFFFFFFFFFFFFFFFFFFFFFF DUP9 PUSH32 0xFFFFFFFF00000001000000000000000000000000FFFFFFFFFFFFFFFFFFFFFFFF SUB DUP14 ADDMOD MULMOD ADDMOD SWAP3 POP JUMPDEST SWAP7 POP SWAP7 POP SWAP7 POP SWAP7 SWAP3 POP POP POP JUMP JUMPDEST PUSH0 DUP1 PUSH0 PUSH2 0x3936 DUP5 PUSH2 0x3A14 JUMP JUMPDEST SWAP1 POP PUSH32 0xFFFFFFFF00000001000000000000000000000000FFFFFFFFFFFFFFFFFFFFFFFF DUP1 PUSH2 0x3967 JUMPI PUSH2 0x3966 PUSH2 0x5132 JUMP JUMPDEST JUMPDEST DUP2 DUP8 MULMOD SWAP2 POP PUSH0 PUSH32 0xFFFFFFFF00000001000000000000000000000000FFFFFFFFFFFFFFFFFFFFFFFF DUP1 PUSH2 0x399C JUMPI PUSH2 0x399B PUSH2 0x5132 JUMP JUMPDEST JUMPDEST DUP3 DUP8 MULMOD SWAP1 POP PUSH32 0xFFFFFFFF00000001000000000000000000000000FFFFFFFFFFFFFFFFFFFFFFFF DUP1 PUSH2 0x39D0 JUMPI PUSH2 0x39CF PUSH2 0x5132 JUMP JUMPDEST JUMPDEST DUP2 DUP3 MULMOD SWAP2 POP PUSH32 0xFFFFFFFF00000001000000000000000000000000FFFFFFFFFFFFFFFFFFFFFFFF DUP1 PUSH2 0x3A04 JUMPI PUSH2 0x3A03 PUSH2 0x5132 JUMP JUMPDEST JUMPDEST DUP3 DUP10 MULMOD SWAP4 POP POP POP SWAP5 POP SWAP5 SWAP3 POP POP POP JUMP JUMPDEST PUSH0 PUSH1 0x40 MLOAD PUSH1 0x20 DUP2 MSTORE PUSH1 0x20 DUP1 DUP3 ADD MSTORE PUSH1 0x20 PUSH1 0x40 DUP3 ADD MSTORE DUP3 PUSH1 0x60 DUP3 ADD MSTORE PUSH32 0xFFFFFFFF00000001000000000000000000000000FFFFFFFFFFFFFFFFFFFFFFFD PUSH1 0x80 DUP3 ADD MSTORE PUSH32 0xFFFFFFFF00000001000000000000000000000000FFFFFFFFFFFFFFFFFFFFFFFF PUSH1 0xA0 DUP3 ADD MSTORE PUSH1 0x20 DUP2 PUSH1 0xC0 DUP4 PUSH1 0x5 PUSH0 NOT STATICCALL PUSH2 0x3A8E JUMPI PUSH0 DUP1 REVERT JUMPDEST DUP1 MLOAD SWAP2 POP POP SWAP2 SWAP1 POP JUMP JUMPDEST POP DUP1 SLOAD PUSH2 0x3AA4 SWAP1 PUSH2 0x491D JUMP JUMPDEST PUSH0 DUP3 SSTORE DUP1 PUSH1 0x1F LT PUSH2 0x3AB5 JUMPI POP PUSH2 0x3AD2 JUMP JUMPDEST PUSH1 0x1F ADD PUSH1 0x20 SWAP1 DIV SWAP1 PUSH0 MSTORE PUSH1 0x20 PUSH0 KECCAK256 SWAP1 DUP2 ADD SWAP1 PUSH2 0x3AD1 SWAP2 SWAP1 PUSH2 0x3AD5 JUMP JUMPDEST JUMPDEST POP JUMP JUMPDEST JUMPDEST DUP1 DUP3 GT ISZERO PUSH2 0x3AEC JUMPI PUSH0 DUP2 PUSH0 SWAP1 SSTORE POP PUSH1 0x1 ADD PUSH2 0x3AD6 JUMP JUMPDEST POP SWAP1 JUMP JUMPDEST PUSH0 PUSH1 0x40 MLOAD SWAP1 POP SWAP1 JUMP JUMPDEST PUSH0 DUP1 REVERT JUMPDEST PUSH0 DUP1 REVERT JUMPDEST PUSH0 DUP2 SWAP1 POP SWAP2 SWAP1 POP JUMP JUMPDEST PUSH2 0x3B13 DUP2 PUSH2 0x3B01 JUMP JUMPDEST DUP2 EQ PUSH2 0x3B1D JUMPI PUSH0 DUP1 REVERT JUMPDEST POP JUMP JUMPDEST PUSH0 DUP2 CALLDATALOAD SWAP1 POP PUSH2 0x3B2E DUP2 PUSH2 0x3B0A JUMP JUMPDEST SWAP3 SWAP2 POP POP JUMP JUMPDEST PUSH0 DUP1 PUSH1 0x40 DUP4 DUP6 SUB SLT ISZERO PUSH2 0x3B4A JUMPI PUSH2 0x3B49 PUSH2 0x3AF9 JUMP JUMPDEST JUMPDEST PUSH0 PUSH2 0x3B57 DUP6 DUP3 DUP7 ADD PUSH2 0x3B20 JUMP JUMPDEST SWAP3 POP POP PUSH1 0x20 PUSH2 0x3B68 DUP6 DUP3 DUP7 ADD PUSH2 0x3B20 JUMP JUMPDEST SWAP2 POP POP SWAP3 POP SWAP3 SWAP1 POP JUMP JUMPDEST PUSH0 DUP2 ISZERO ISZERO SWAP1 POP SWAP2 SWAP1 POP JUMP JUMPDEST PUSH2 0x3B86 DUP2 PUSH2 0x3B72 JUMP JUMPDEST DUP3 MSTORE POP POP JUMP JUMPDEST PUSH0 PUSH1 0x20 DUP3 ADD SWAP1 POP PUSH2 0x3B9F PUSH0 DUP4 ADD DUP5 PUSH2 0x3B7D JUMP JUMPDEST SWAP3 SWAP2 POP POP JUMP JUMPDEST PUSH0 DUP2 SWAP1 POP SWAP2 SWAP1 POP JUMP JUMPDEST PUSH2 0x3BB7 DUP2 PUSH2 0x3BA5 JUMP JUMPDEST DUP3 MSTORE POP POP JUMP JUMPDEST PUSH0 PUSH1 0x20 DUP3 ADD SWAP1 POP PUSH2 0x3BD0 PUSH0 DUP4 ADD DUP5 PUSH2 0x3BAE JUMP JUMPDEST SWAP3 SWAP2 POP POP JUMP JUMPDEST PUSH0 PUSH20 0xFFFFFFFFFFFFFFFFFFFFFFFFFFFFFFFFFFFFFFFF DUP3 AND SWAP1 POP SWAP2 SWAP1 POP JUMP JUMPDEST PUSH0 PUSH2 0x3BFF DUP3 PUSH2 0x3BD6 JUMP JUMPDEST SWAP1 POP SWAP2 SWAP1 POP JUMP JUMPDEST PUSH2 0x3C0F DUP2 PUSH2 0x3BF5 JUMP JUMPDEST DUP2 EQ PUSH2 0x3C19 JUMPI PUSH0 DUP1 REVERT JUMPDEST POP JUMP JUMPDEST PUSH0 DUP2 CALLDATALOAD SWAP1 POP PUSH2 0x3C2A DUP2 PUSH2 0x3C06 JUMP JUMPDEST SWAP3 SWAP2 POP POP JUMP JUMPDEST PUSH0 PUSH1 0x20 DUP3 DUP5 SUB SLT ISZERO PUSH2 0x3C45 JUMPI PUSH2 0x3C44 PUSH2 0x3AF9 JUMP JUMPDEST JUMPDEST PUSH0 PUSH2 0x3C52 DUP5 DUP3 DUP6 ADD PUSH2 0x3C1C JUMP JUMPDEST SWAP2 POP POP SWAP3 SWAP2 POP POP JUMP JUMPDEST PUSH0 DUP1 REVERT JUMPDEST PUSH0 DUP1 REVERT JUMPDEST PUSH0 DUP1 REVERT JUMPDEST PUSH0 DUP1 DUP4 PUSH1 0x1F DUP5 ADD SLT PUSH2 0x3C7C JUMPI PUSH2 0x3C7B PUSH2 0x3C5B JUMP JUMPDEST JUMPDEST DUP3 CALLDATALOAD SWAP1 POP PUSH8 0xFFFFFFFFFFFFFFFF DUP2 GT ISZERO PUSH2 0x3C99 JUMPI PUSH2 0x3C98 PUSH2 0x3C5F JUMP JUMPDEST JUMPDEST PUSH1 0x20 DUP4 ADD SWAP2 POP DUP4 PUSH1 0x1 DUP3 MUL DUP4 ADD GT ISZERO PUSH2 0x3CB5 JUMPI PUSH2 0x3CB4 PUSH2 0x3C63 JUMP JUMPDEST JUMPDEST SWAP3 POP SWAP3 SWAP1 POP JUMP JUMPDEST PUSH0 DUP1 PUSH0 PUSH1 0x40 DUP5 DUP7 SUB SLT ISZERO PUSH2 0x3CD3 JUMPI PUSH2 0x3CD2 PUSH2 0x3AF9 JUMP JUMPDEST JUMPDEST PUSH0 PUSH2 0x3CE0 DUP7 DUP3 DUP8 ADD PUSH2 0x3B20 JUMP JUMPDEST SWAP4 POP POP PUSH1 0x20 DUP5 ADD CALLDATALOAD PUSH8 0xFFFFFFFFFFFFFFFF DUP2 GT ISZERO PUSH2 0x3D01 JUMPI PUSH2 0x3D00 PUSH2 0x3AFD JUMP JUMPDEST JUMPDEST PUSH2 0x3D0D DUP7 DUP3 DUP8 ADD PUSH2 0x3C67 JUMP JUMPDEST SWAP3 POP SWAP3 POP POP SWAP3 POP SWAP3 POP SWAP3 JUMP JUMPDEST PUSH0 PUSH32 0xFFFFFFFF00000000000000000000000000000000000000000000000000000000 DUP3 AND SWAP1 POP SWAP2 SWAP1 POP JUMP JUMPDEST PUSH2 0x3D4D DUP2 PUSH2 0x3D19 JUMP JUMPDEST DUP3 MSTORE POP POP JUMP JUMPDEST PUSH0 PUSH1 0x20 DUP3 ADD SWAP1 POP PUSH2 0x3D66 PUSH0 DUP4 ADD DUP5 PUSH2 0x3D44 JUMP JUMPDEST SWAP3 SWAP2 POP POP JUMP JUMPDEST PUSH0 DUP1 REVERT JUMPDEST PUSH0 PUSH1 0x1F NOT PUSH1 0x1F DUP4 ADD AND SWAP1 POP SWAP2 SWAP1 POP JUMP JUMPDEST PUSH32 0x4E487B7100000000000000000000000000000000000000000000000000000000 PUSH0 MSTORE PUSH1 0x41 PUSH1 0x4 MSTORE PUSH1 0x24 PUSH0 REVERT JUMPDEST PUSH2 0x3DB6 DUP3 PUSH2 0x3D70 JUMP JUMPDEST DUP2 ADD DUP2 DUP2 LT PUSH8 0xFFFFFFFFFFFFFFFF DUP3 GT OR ISZERO PUSH2 0x3DD5 JUMPI PUSH2 0x3DD4 PUSH2 0x3D80 JUMP JUMPDEST JUMPDEST DUP1 PUSH1 0x40 MSTORE POP POP POP JUMP JUMPDEST PUSH0 PUSH2 0x3DE7 PUSH2 0x3AF0 JUMP JUMPDEST SWAP1 POP PUSH2 0x3DF3 DUP3 DUP3 PUSH2 0x3DAD JUMP JUMPDEST SWAP2 SWAP1 POP JUMP JUMPDEST PUSH0 PUSH8 0xFFFFFFFFFFFFFFFF DUP3 GT ISZERO PUSH2 0x3E12 JUMPI PUSH2 0x3E11 PUSH2 0x3D80 JUMP JUMPDEST JUMPDEST PUSH2 0x3E1B DUP3 PUSH2 0x3D70 JUMP JUMPDEST SWAP1 POP PUSH1 0x20 DUP2 ADD SWAP1 POP SWAP2 SWAP1 POP JUMP JUMPDEST DUP3 DUP2 DUP4 CALLDATACOPY PUSH0 DUP4 DUP4 ADD MSTORE POP POP POP JUMP JUMPDEST PUSH0 PUSH2 0x3E48 PUSH2 0x3E43 DUP5 PUSH2 0x3DF8 JUMP JUMPDEST PUSH2 0x3DDE JUMP JUMPDEST SWAP1 POP DUP3 DUP2 MSTORE PUSH1 0x20 DUP2 ADD DUP5 DUP5 DUP5 ADD GT ISZERO PUSH2 0x3E64 JUMPI PUSH2 0x3E63 PUSH2 0x3D6C JUMP JUMPDEST JUMPDEST PUSH2 0x3E6F DUP5 DUP3 DUP6 PUSH2 0x3E28 JUMP JUMPDEST POP SWAP4 SWAP3 POP POP POP JUMP JUMPDEST PUSH0 DUP3 PUSH1 0x1F DUP4 ADD SLT PUSH2 0x3E8B JUMPI PUSH2 0x3E8A PUSH2 0x3C5B JUMP JUMPDEST JUMPDEST DUP2 CALLDATALOAD PUSH2 0x3E9B DUP5 DUP3 PUSH1 0x20 DUP7 ADD PUSH2 0x3E36 JUMP JUMPDEST SWAP2 POP POP SWAP3 SWAP2 POP POP JUMP JUMPDEST PUSH0 PUSH1 0x20 DUP3 DUP5 SUB SLT ISZERO PUSH2 0x3EB9 JUMPI PUSH2 0x3EB8 PUSH2 0x3AF9 JUMP JUMPDEST JUMPDEST PUSH0 DUP3 ADD CALLDATALOAD PUSH8 0xFFFFFFFFFFFFFFFF DUP2 GT ISZERO PUSH2 0x3ED6 JUMPI PUSH2 0x3ED5 PUSH2 0x3AFD JUMP JUMPDEST JUMPDEST PUSH2 0x3EE2 DUP5 DUP3 DUP6 ADD PUSH2 0x3E77 JUMP JUMPDEST SWAP2 POP POP SWAP3 SWAP2 POP POP JUMP JUMPDEST PUSH0 DUP1 DUP4 PUSH1 0x1F DUP5 ADD SLT PUSH2 0x3F00 JUMPI PUSH2 0x3EFF PUSH2 0x3C5B JUMP JUMPDEST JUMPDEST DUP3 CALLDATALOAD SWAP1 POP PUSH8 0xFFFFFFFFFFFFFFFF DUP2 GT ISZERO PUSH2 0x3F1D JUMPI PUSH2 0x3F1C PUSH2 0x3C5F JUMP JUMPDEST JUMPDEST PUSH1 0x20 DUP4 ADD SWAP2 POP DUP4 PUSH1 0x20 DUP3 MUL DUP4 ADD GT ISZERO PUSH2 0x3F39 JUMPI PUSH2 0x3F38 PUSH2 0x3C63 JUMP JUMPDEST JUMPDEST SWAP3 POP SWAP3 SWAP1 POP JUMP JUMPDEST PUSH0 DUP1 PUSH1 0x20 DUP4 DUP6 SUB SLT ISZERO PUSH2 0x3F56 JUMPI PUSH2 0x3F55 PUSH2 0x3AF9 JUMP JUMPDEST JUMPDEST PUSH0 DUP4 ADD CALLDATALOAD PUSH8 0xFFFFFFFFFFFFFFFF DUP2 GT ISZERO PUSH2 0x3F73 JUMPI PUSH2 0x3F72 PUSH2 0x3AFD JUMP JUMPDEST JUMPDEST PUSH2 0x3F7F DUP6 DUP3 DUP7 ADD PUSH2 0x3EEB JUMP JUMPDEST SWAP3 POP SWAP3 POP POP SWAP3 POP SWAP3 SWAP1 POP JUMP JUMPDEST PUSH0 DUP1 DUP4 PUSH1 0x1F DUP5 ADD SLT PUSH2 0x3FA0 JUMPI PUSH2 0x3F9F PUSH2 0x3C5B JUMP JUMPDEST JUMPDEST DUP3 CALLDATALOAD SWAP1 POP PUSH8 0xFFFFFFFFFFFFFFFF DUP2 GT ISZERO PUSH2 0x3FBD JUMPI PUSH2 0x3FBC PUSH2 0x3C5F JUMP JUMPDEST JUMPDEST PUSH1 0x20 DUP4 ADD SWAP2 POP DUP4 PUSH1 0x20 DUP3 MUL DUP4 ADD GT ISZERO PUSH2 0x3FD9 JUMPI PUSH2 0x3FD8 PUSH2 0x3C63 JUMP JUMPDEST JUMPDEST SWAP3 POP SWAP3 SWAP1 POP JUMP JUMPDEST PUSH0 DUP1 PUSH1 0x20 DUP4 DUP6 SUB SLT ISZERO PUSH2 0x3FF6 JUMPI PUSH2 0x3FF5 PUSH2 0x3AF9 JUMP JUMPDEST JUMPDEST PUSH0 DUP4 ADD CALLDATALOAD PUSH8 0xFFFFFFFFFFFFFFFF DUP2 GT ISZERO PUSH2 0x4013 JUMPI PUSH2 0x4012 PUSH2 0x3AFD JUMP JUMPDEST JUMPDEST PUSH2 0x401F DUP6 DUP3 DUP7 ADD PUSH2 0x3F8B JUMP JUMPDEST SWAP3 POP SWAP3 POP POP SWAP3 POP SWAP3 SWAP1 POP JUMP JUMPDEST PUSH0 DUP1 REVERT JUMPDEST PUSH0 PUSH2 0x160 DUP3 DUP5 SUB SLT ISZERO PUSH2 0x4045 JUMPI PUSH2 0x4044 PUSH2 0x402B JUMP JUMPDEST JUMPDEST DUP2 SWAP1 POP SWAP3 SWAP2 POP POP JUMP JUMPDEST PUSH2 0x4057 DUP2 PUSH2 0x3BA5 JUMP JUMPDEST DUP2 EQ PUSH2 0x4061 JUMPI PUSH0 DUP1 REVERT JUMPDEST POP JUMP JUMPDEST PUSH0 DUP2 CALLDATALOAD SWAP1 POP PUSH2 0x4072 DUP2 PUSH2 0x404E JUMP JUMPDEST SWAP3 SWAP2 POP POP JUMP JUMPDEST PUSH0 DUP1 PUSH0 PUSH1 0x60 DUP5 DUP7 SUB SLT ISZERO PUSH2 0x408F JUMPI PUSH2 0x408E PUSH2 0x3AF9 JUMP JUMPDEST JUMPDEST PUSH0 DUP5 ADD CALLDATALOAD PUSH8 0xFFFFFFFFFFFFFFFF DUP2 GT ISZERO PUSH2 0x40AC JUMPI PUSH2 0x40AB PUSH2 0x3AFD JUMP JUMPDEST JUMPDEST PUSH2 0x40B8 DUP7 DUP3 DUP8 ADD PUSH2 0x402F JUMP JUMPDEST SWAP4 POP POP PUSH1 0x20 PUSH2 0x40C9 DUP7 DUP3 DUP8 ADD PUSH2 0x3B20 JUMP JUMPDEST SWAP3 POP POP PUSH1 0x40 PUSH2 0x40DA DUP7 DUP3 DUP8 ADD PUSH2 0x4064 JUMP JUMPDEST SWAP2 POP POP SWAP3 POP SWAP3 POP SWAP3 JUMP JUMPDEST PUSH0 DUP1 PUSH0 PUSH1 0x40 DUP5 DUP7 SUB SLT ISZERO PUSH2 0x40FB JUMPI PUSH2 0x40FA PUSH2 0x3AF9 JUMP JUMPDEST JUMPDEST PUSH0 PUSH2 0x4108 DUP7 DUP3 DUP8 ADD PUSH2 0x3C1C JUMP JUMPDEST SWAP4 POP POP PUSH1 0x20 DUP5 ADD CALLDATALOAD PUSH8 0xFFFFFFFFFFFFFFFF DUP2 GT ISZERO PUSH2 0x4129 JUMPI PUSH2 0x4128 PUSH2 0x3AFD JUMP JUMPDEST JUMPDEST PUSH2 0x4135 DUP7 DUP3 DUP8 ADD PUSH2 0x3C67 JUMP JUMPDEST SWAP3 POP SWAP3 POP POP SWAP3 POP SWAP3 POP SWAP3 JUMP JUMPDEST PUSH0 PUSH1 0x20 DUP3 DUP5 SUB SLT ISZERO PUSH2 0x4156 JUMPI PUSH2 0x4155 PUSH2 0x3AF9 JUMP JUMPDEST JUMPDEST PUSH0 DUP3 ADD CALLDATALOAD PUSH8 0xFFFFFFFFFFFFFFFF DUP2 GT ISZERO PUSH2 0x4173 JUMPI PUSH2 0x4172 PUSH2 0x3AFD JUMP JUMPDEST JUMPDEST PUSH2 0x417F DUP5 DUP3 DUP6 ADD PUSH2 0x402F JUMP JUMPDEST SWAP2 POP POP SWAP3 SWAP2 POP POP JUMP JUMPDEST PUSH2 0x4191 DUP2 PUSH2 0x3B01 JUMP JUMPDEST DUP3 MSTORE POP POP JUMP JUMPDEST PUSH0 PUSH1 0x20 DUP3 ADD SWAP1 POP PUSH2 0x41AA PUSH0 DUP4 ADD DUP5 PUSH2 0x4188 JUMP JUMPDEST SWAP3 SWAP2 POP POP JUMP JUMPDEST PUSH2 0x41B9 DUP2 PUSH2 0x3BF5 JUMP JUMPDEST DUP3 MSTORE POP POP JUMP JUMPDEST PUSH0 PUSH1 0x20 DUP3 ADD SWAP1 POP PUSH2 0x41D2 PUSH0 DUP4 ADD DUP5 PUSH2 0x41B0 JUMP JUMPDEST SWAP3 SWAP2 POP POP JUMP JUMPDEST PUSH0 PUSH32 0xFF00000000000000000000000000000000000000000000000000000000000000 DUP3 AND SWAP1 POP SWAP2 SWAP1 POP JUMP JUMPDEST PUSH2 0x420C DUP2 PUSH2 0x41D8 JUMP JUMPDEST DUP3 MSTORE POP POP JUMP JUMPDEST PUSH0 DUP2 MLOAD SWAP1 POP SWAP2 SWAP1 POP JUMP JUMPDEST PUSH0 DUP3 DUP3 MSTORE PUSH1 0x20 DUP3 ADD SWAP1 POP SWAP3 SWAP2 POP POP JUMP JUMPDEST PUSH0 JUMPDEST DUP4 DUP2 LT ISZERO PUSH2 0x4249 JUMPI DUP1 DUP3 ADD MLOAD DUP2 DUP5 ADD MSTORE PUSH1 0x20 DUP2 ADD SWAP1 POP PUSH2 0x422E JUMP JUMPDEST PUSH0 DUP5 DUP5 ADD MSTORE POP POP POP POP JUMP JUMPDEST PUSH0 PUSH2 0x425E DUP3 PUSH2 0x4212 JUMP JUMPDEST PUSH2 0x4268 DUP2 DUP6 PUSH2 0x421C JUMP JUMPDEST SWAP4 POP PUSH2 0x4278 DUP2 DUP6 PUSH1 0x20 DUP7 ADD PUSH2 0x422C JUMP JUMPDEST PUSH2 0x4281 DUP2 PUSH2 0x3D70 JUMP JUMPDEST DUP5 ADD SWAP2 POP POP SWAP3 SWAP2 POP POP JUMP JUMPDEST PUSH0 DUP2 MLOAD SWAP1 POP SWAP2 SWAP1 POP JUMP JUMPDEST PUSH0 DUP3 DUP3 MSTORE PUSH1 0x20 DUP3 ADD SWAP1 POP SWAP3 SWAP2 POP POP JUMP JUMPDEST PUSH0 DUP2 SWAP1 POP PUSH1 0x20 DUP3 ADD SWAP1 POP SWAP2 SWAP1 POP JUMP JUMPDEST PUSH2 0x42BE DUP2 PUSH2 0x3BA5 JUMP JUMPDEST DUP3 MSTORE POP POP JUMP JUMPDEST PUSH0 PUSH2 0x42CF DUP4 DUP4 PUSH2 0x42B5 JUMP JUMPDEST PUSH1 0x20 DUP4 ADD SWAP1 POP SWAP3 SWAP2 POP POP JUMP JUMPDEST PUSH0 PUSH1 0x20 DUP3 ADD SWAP1 POP SWAP2 SWAP1 POP JUMP JUMPDEST PUSH0 PUSH2 0x42F1 DUP3 PUSH2 0x428C JUMP JUMPDEST PUSH2 0x42FB DUP2 DUP6 PUSH2 0x4296 JUMP JUMPDEST SWAP4 POP PUSH2 0x4306 DUP4 PUSH2 0x42A6 JUMP JUMPDEST DUP1 PUSH0 JUMPDEST DUP4 DUP2 LT ISZERO PUSH2 0x4336 JUMPI DUP2 MLOAD PUSH2 0x431D DUP9 DUP3 PUSH2 0x42C4 JUMP JUMPDEST SWAP8 POP PUSH2 0x4328 DUP4 PUSH2 0x42DB JUMP JUMPDEST SWAP3 POP POP PUSH1 0x1 DUP2 ADD SWAP1 POP PUSH2 0x4309 JUMP JUMPDEST POP DUP6 SWAP4 POP POP POP POP SWAP3 SWAP2 POP POP JUMP JUMPDEST PUSH0 PUSH1 0xE0 DUP3 ADD SWAP1 POP PUSH2 0x4356 PUSH0 DUP4 ADD DUP11 PUSH2 0x4203 JUMP JUMPDEST DUP2 DUP2 SUB PUSH1 0x20 DUP4 ADD MSTORE PUSH2 0x4368 DUP2 DUP10 PUSH2 0x4254 JUMP JUMPDEST SWAP1 POP DUP2 DUP2 SUB PUSH1 0x40 DUP4 ADD MSTORE PUSH2 0x437C DUP2 DUP9 PUSH2 0x4254 JUMP JUMPDEST SWAP1 POP PUSH2 0x438B PUSH1 0x60 DUP4 ADD DUP8 PUSH2 0x3BAE JUMP JUMPDEST PUSH2 0x4398 PUSH1 0x80 DUP4 ADD DUP7 PUSH2 0x41B0 JUMP JUMPDEST PUSH2 0x43A5 PUSH1 0xA0 DUP4 ADD DUP6 PUSH2 0x4188 JUMP JUMPDEST DUP2 DUP2 SUB PUSH1 0xC0 DUP4 ADD MSTORE PUSH2 0x43B7 DUP2 DUP5 PUSH2 0x42E7 JUMP JUMPDEST SWAP1 POP SWAP9 SWAP8 POP POP POP POP POP POP POP POP JUMP JUMPDEST PUSH0 DUP1 PUSH0 PUSH1 0x40 DUP5 DUP7 SUB SLT ISZERO PUSH2 0x43DC JUMPI PUSH2 0x43DB PUSH2 0x3AF9 JUMP JUMPDEST JUMPDEST PUSH0 PUSH2 0x43E9 DUP7 DUP3 DUP8 ADD PUSH2 0x4064 JUMP JUMPDEST SWAP4 POP POP PUSH1 0x20 DUP5 ADD CALLDATALOAD PUSH8 0xFFFFFFFFFFFFFFFF DUP2 GT ISZERO PUSH2 0x440A JUMPI PUSH2 0x4409 PUSH2 0x3AFD JUMP JUMPDEST JUMPDEST PUSH2 0x4416 DUP7 DUP3 DUP8 ADD PUSH2 0x3C67 JUMP JUMPDEST SWAP3 POP SWAP3 POP POP SWAP3 POP SWAP3 POP SWAP3 JUMP JUMPDEST PUSH0 PUSH1 0x20 DUP3 DUP5 SUB SLT ISZERO PUSH2 0x4437 JUMPI PUSH2 0x4436 PUSH2 0x3AF9 JUMP JUMPDEST JUMPDEST PUSH0 PUSH2 0x4444 DUP5 DUP3 DUP6 ADD PUSH2 0x4064 JUMP JUMPDEST SWAP2 POP POP SWAP3 SWAP2 POP POP JUMP JUMPDEST PUSH0 DUP2 MLOAD SWAP1 POP SWAP2 SWAP1 POP JUMP JUMPDEST PUSH0 DUP3 DUP3 MSTORE PUSH1 0x20 DUP3 ADD SWAP1 POP SWAP3 SWAP2 POP POP JUMP JUMPDEST PUSH0 PUSH2 0x4471 DUP3 PUSH2 0x444D JUMP JUMPDEST PUSH2 0x447B DUP2 DUP6 PUSH2 0x4457 JUMP JUMPDEST SWAP4 POP PUSH2 0x448B DUP2 DUP6 PUSH1 0x20 DUP7 ADD PUSH2 0x422C JUMP JUMPDEST PUSH2 0x4494 DUP2 PUSH2 0x3D70 JUMP JUMPDEST DUP5 ADD SWAP2 POP POP SWAP3 SWAP2 POP POP JUMP JUMPDEST PUSH0 PUSH1 0x20 DUP3 ADD SWAP1 POP DUP2 DUP2 SUB PUSH0 DUP4 ADD MSTORE PUSH2 0x44B7 DUP2 DUP5 PUSH2 0x4467 JUMP JUMPDEST SWAP1 POP SWAP3 SWAP2 POP POP JUMP JUMPDEST PUSH2 0x44C8 DUP2 PUSH2 0x3D19 JUMP JUMPDEST DUP2 EQ PUSH2 0x44D2 JUMPI PUSH0 DUP1 REVERT JUMPDEST POP JUMP JUMPDEST PUSH0 DUP2 CALLDATALOAD SWAP1 POP PUSH2 0x44E3 DUP2 PUSH2 0x44BF JUMP JUMPDEST SWAP3 SWAP2 POP POP JUMP JUMPDEST PUSH0 PUSH1 0x20 DUP3 DUP5 SUB SLT ISZERO PUSH2 0x44FE JUMPI PUSH2 0x44FD PUSH2 0x3AF9 JUMP JUMPDEST JUMPDEST PUSH0 PUSH2 0x450B DUP5 DUP3 DUP6 ADD PUSH2 0x44D5 JUMP JUMPDEST SWAP2 POP POP SWAP3 SWAP2 POP POP JUMP JUMPDEST PUSH0 DUP1 PUSH0 DUP1 PUSH1 0x60 DUP6 DUP8 SUB SLT ISZERO PUSH2 0x452C JUMPI PUSH2 0x452B PUSH2 0x3AF9 JUMP JUMPDEST JUMPDEST PUSH0 PUSH2 0x4539 DUP8 DUP3 DUP9 ADD PUSH2 0x3C1C JUMP JUMPDEST SWAP5 POP POP PUSH1 0x20 PUSH2 0x454A DUP8 DUP3 DUP9 ADD PUSH2 0x4064 JUMP JUMPDEST SWAP4 POP POP PUSH1 0x40 DUP6 ADD CALLDATALOAD PUSH8 0xFFFFFFFFFFFFFFFF DUP2 GT ISZERO PUSH2 0x456B JUMPI PUSH2 0x456A PUSH2 0x3AFD JUMP JUMPDEST JUMPDEST PUSH2 0x4577 DUP8 DUP3 DUP9 ADD PUSH2 0x3C67 JUMP JUMPDEST SWAP3 POP SWAP3 POP POP SWAP3 SWAP6 SWAP2 SWAP5 POP SWAP3 POP JUMP JUMPDEST PUSH0 PUSH1 0x20 DUP3 DUP5 SUB SLT ISZERO PUSH2 0x459A JUMPI PUSH2 0x4599 PUSH2 0x3AF9 JUMP JUMPDEST JUMPDEST PUSH0 PUSH2 0x45A7 DUP5 DUP3 DUP6 ADD PUSH2 0x3B20 JUMP JUMPDEST SWAP2 POP POP SWAP3 SWAP2 POP POP JUMP JUMPDEST PUSH0 PUSH1 0x40 DUP3 ADD SWAP1 POP PUSH2 0x45C3 PUSH0 DUP4 ADD DUP6 PUSH2 0x4188 JUMP JUMPDEST PUSH2 0x45D0 PUSH1 0x20 DUP4 ADD DUP5 PUSH2 0x4188 JUMP JUMPDEST SWAP4 SWAP3 POP POP POP JUMP JUMPDEST PUSH0 DUP2 SWAP1 POP SWAP3 SWAP2 POP POP JUMP JUMPDEST PUSH0 PUSH2 0x45EB DUP3 PUSH2 0x444D JUMP JUMPDEST PUSH2 0x45F5 DUP2 DUP6 PUSH2 0x45D7 JUMP JUMPDEST SWAP4 POP PUSH2 0x4605 DUP2 DUP6 PUSH1 0x20 DUP7 ADD PUSH2 0x422C JUMP JUMPDEST DUP1 DUP5 ADD SWAP2 POP POP SWAP3 SWAP2 POP POP JUMP JUMPDEST PUSH0 PUSH2 0x461C DUP3 DUP5 PUSH2 0x45E1 JUMP JUMPDEST SWAP2 POP DUP2 SWAP1 POP SWAP3 SWAP2 POP POP JUMP JUMPDEST PUSH32 0x4E487B7100000000000000000000000000000000000000000000000000000000 PUSH0 MSTORE PUSH1 0x11 PUSH1 0x4 MSTORE PUSH1 0x24 PUSH0 REVERT JUMPDEST PUSH0 PUSH2 0x465E DUP3 PUSH2 0x3BA5 JUMP JUMPDEST SWAP2 POP PUSH2 0x4669 DUP4 PUSH2 0x3BA5 JUMP JUMPDEST SWAP3 POP DUP3 DUP3 SUB SWAP1 POP DUP2 DUP2 GT ISZERO PUSH2 0x4681 JUMPI PUSH2 0x4680 PUSH2 0x4627 JUMP JUMPDEST JUMPDEST SWAP3 SWAP2 POP POP JUMP JUMPDEST PUSH0 PUSH2 0x4691 DUP3 PUSH2 0x3BA5 JUMP JUMPDEST SWAP2 POP PUSH32 0xFFFFFFFFFFFFFFFFFFFFFFFFFFFFFFFFFFFFFFFFFFFFFFFFFFFFFFFFFFFFFFFF DUP3 SUB PUSH2 0x46C3 JUMPI PUSH2 0x46C2 PUSH2 0x4627 JUMP JUMPDEST JUMPDEST PUSH1 0x1 DUP3 ADD SWAP1 POP SWAP2 SWAP1 POP JUMP JUMPDEST PUSH32 0x4E487B7100000000000000000000000000000000000000000000000000000000 PUSH0 MSTORE PUSH1 0x32 PUSH1 0x4 MSTORE PUSH1 0x24 PUSH0 REVERT JUMPDEST PUSH0 DUP1 REVERT JUMPDEST PUSH0 DUP1 REVERT JUMPDEST PUSH0 DUP1 REVERT JUMPDEST PUSH0 DUP1 DUP4 CALLDATALOAD PUSH1 0x1 PUSH1 0x20 SUB DUP5 CALLDATASIZE SUB SUB DUP2 SLT PUSH2 0x4723 JUMPI PUSH2 0x4722 PUSH2 0x46FB JUMP JUMPDEST JUMPDEST DUP1 DUP5 ADD SWAP3 POP DUP3 CALLDATALOAD SWAP2 POP PUSH8 0xFFFFFFFFFFFFFFFF DUP3 GT ISZERO PUSH2 0x4745 JUMPI PUSH2 0x4744 PUSH2 0x46FF JUMP JUMPDEST JUMPDEST PUSH1 0x20 DUP4 ADD SWAP3 POP PUSH1 0x1 DUP3 MUL CALLDATASIZE SUB DUP4 SGT ISZERO PUSH2 0x4761 JUMPI PUSH2 0x4760 PUSH2 0x4703 JUMP JUMPDEST JUMPDEST POP SWAP3 POP SWAP3 SWAP1 POP JUMP JUMPDEST PUSH0 DUP3 SWAP1 POP SWAP3 SWAP2 POP POP JUMP JUMPDEST PUSH0 DUP3 DUP3 SHL SWAP1 POP SWAP3 SWAP2 POP POP JUMP JUMPDEST PUSH0 PUSH2 0x478A DUP4 DUP4 PUSH2 0x4769 JUMP JUMPDEST DUP3 PUSH2 0x4795 DUP2 CALLDATALOAD PUSH2 0x3D19 JUMP JUMPDEST SWAP3 POP PUSH1 0x4 DUP3 LT ISZERO PUSH2 0x47D5 JUMPI PUSH2 0x47D0 PUSH32 0xFFFFFFFF00000000000000000000000000000000000000000000000000000000 DUP4 PUSH1 0x4 SUB PUSH1 0x8 MUL PUSH2 0x4773 JUMP JUMPDEST DUP4 AND SWAP3 POP JUMPDEST POP POP SWAP3 SWAP2 POP POP JUMP JUMPDEST PUSH0 DUP3 CALLDATALOAD PUSH1 0x1 PUSH1 0x60 SUB DUP4 CALLDATASIZE SUB SUB DUP2 SLT PUSH2 0x47F8 JUMPI PUSH2 0x47F7 PUSH2 0x46FB JUMP JUMPDEST JUMPDEST DUP1 DUP4 ADD SWAP2 POP POP SWAP3 SWAP2 POP POP JUMP JUMPDEST PUSH0 PUSH1 0x40 DUP3 ADD SWAP1 POP PUSH2 0x4817 PUSH0 DUP4 ADD DUP6 PUSH2 0x4188 JUMP JUMPDEST PUSH2 0x4824 PUSH1 0x20 DUP4 ADD DUP5 PUSH2 0x41B0 JUMP JUMPDEST SWAP4 SWAP3 POP POP POP JUMP JUMPDEST PUSH0 PUSH8 0xFFFFFFFFFFFFFFFF DUP3 GT ISZERO PUSH2 0x4845 JUMPI PUSH2 0x4844 PUSH2 0x3D80 JUMP JUMPDEST JUMPDEST PUSH1 0x20 DUP3 MUL SWAP1 POP PUSH1 0x20 DUP2 ADD SWAP1 POP SWAP2 SWAP1 POP JUMP JUMPDEST PUSH0 PUSH2 0x4868 PUSH2 0x4863 DUP5 PUSH2 0x482B JUMP JUMPDEST PUSH2 0x3DDE JUMP JUMPDEST SWAP1 POP DUP1 DUP4 DUP3 MSTORE PUSH1 0x20 DUP3 ADD SWAP1 POP PUSH1 0x20 DUP5 MUL DUP4 ADD DUP6 DUP2 GT ISZERO PUSH2 0x488B JUMPI PUSH2 0x488A PUSH2 0x3C63 JUMP JUMPDEST JUMPDEST DUP4 JUMPDEST DUP2 DUP2 LT ISZERO PUSH2 0x48D2 JUMPI DUP1 CALLDATALOAD PUSH8 0xFFFFFFFFFFFFFFFF DUP2 GT ISZERO PUSH2 0x48B0 JUMPI PUSH2 0x48AF PUSH2 0x3C5B JUMP JUMPDEST JUMPDEST DUP1 DUP7 ADD PUSH2 0x48BD DUP10 DUP3 PUSH2 0x3E77 JUMP JUMPDEST DUP6 MSTORE PUSH1 0x20 DUP6 ADD SWAP5 POP POP POP PUSH1 0x20 DUP2 ADD SWAP1 POP PUSH2 0x488D JUMP JUMPDEST POP POP POP SWAP4 SWAP3 POP POP POP JUMP JUMPDEST PUSH0 PUSH2 0x48E8 CALLDATASIZE DUP5 DUP5 PUSH2 0x4856 JUMP JUMPDEST SWAP1 POP SWAP3 SWAP2 POP POP JUMP JUMPDEST PUSH32 0x4E487B7100000000000000000000000000000000000000000000000000000000 PUSH0 MSTORE PUSH1 0x22 PUSH1 0x4 MSTORE PUSH1 0x24 PUSH0 REVERT JUMPDEST PUSH0 PUSH1 0x2 DUP3 DIV SWAP1 POP PUSH1 0x1 DUP3 AND DUP1 PUSH2 0x4934 JUMPI PUSH1 0x7F DUP3 AND SWAP2 POP JUMPDEST PUSH1 0x20 DUP3 LT DUP2 SUB PUSH2 0x4947 JUMPI PUSH2 0x4946 PUSH2 0x48F0 JUMP JUMPDEST JUMPDEST POP SWAP2 SWAP1 POP JUMP JUMPDEST PUSH0 PUSH1 0xA0 DUP3 ADD SWAP1 POP PUSH2 0x4960 PUSH0 DUP4 ADD DUP9 PUSH2 0x4188 JUMP JUMPDEST PUSH2 0x496D PUSH1 0x20 DUP4 ADD DUP8 PUSH2 0x4188 JUMP JUMPDEST PUSH2 0x497A PUSH1 0x40 DUP4 ADD DUP7 PUSH2 0x4188 JUMP JUMPDEST PUSH2 0x4987 PUSH1 0x60 DUP4 ADD DUP6 PUSH2 0x3BAE JUMP JUMPDEST PUSH2 0x4994 PUSH1 0x80 DUP4 ADD DUP5 PUSH2 0x41B0 JUMP JUMPDEST SWAP7 SWAP6 POP POP POP POP POP POP JUMP JUMPDEST PUSH0 DUP2 SWAP1 POP DUP2 PUSH0 MSTORE PUSH1 0x20 PUSH0 KECCAK256 SWAP1 POP SWAP2 SWAP1 POP JUMP JUMPDEST PUSH0 PUSH1 0x20 PUSH1 0x1F DUP4 ADD DIV SWAP1 POP SWAP2 SWAP1 POP JUMP JUMPDEST PUSH0 PUSH1 0x8 DUP4 MUL PUSH2 0x49EE PUSH32 0xFFFFFFFFFFFFFFFFFFFFFFFFFFFFFFFFFFFFFFFFFFFFFFFFFFFFFFFFFFFFFFFF DUP3 PUSH2 0x4773 JUMP JUMPDEST PUSH2 0x49F8 DUP7 DUP4 PUSH2 0x4773 JUMP JUMPDEST SWAP6 POP DUP1 NOT DUP5 AND SWAP4 POP DUP1 DUP7 AND DUP5 OR SWAP3 POP POP POP SWAP4 SWAP3 POP POP POP JUMP JUMPDEST PUSH0 DUP2 SWAP1 POP SWAP2 SWAP1 POP JUMP JUMPDEST PUSH0 PUSH2 0x4A33 PUSH2 0x4A2E PUSH2 0x4A29 DUP5 PUSH2 0x3BA5 JUMP JUMPDEST PUSH2 0x4A10 JUMP JUMPDEST PUSH2 0x3BA5 JUMP JUMPDEST SWAP1 POP SWAP2 SWAP1 POP JUMP JUMPDEST PUSH0 DUP2 SWAP1 POP SWAP2 SWAP1 POP JUMP JUMPDEST PUSH2 0x4A4C DUP4 PUSH2 0x4A19 JUMP JUMPDEST PUSH2 0x4A60 PUSH2 0x4A58 DUP3 PUSH2 0x4A3A JUMP JUMPDEST DUP5 DUP5 SLOAD PUSH2 0x49BF JUMP JUMPDEST DUP3 SSTORE POP POP POP POP JUMP JUMPDEST PUSH0 SWAP1 JUMP JUMPDEST PUSH2 0x4A74 PUSH2 0x4A68 JUMP JUMPDEST PUSH2 0x4A7F DUP2 DUP5 DUP5 PUSH2 0x4A43 JUMP JUMPDEST POP POP POP JUMP JUMPDEST JUMPDEST DUP2 DUP2 LT ISZERO PUSH2 0x4AA2 JUMPI PUSH2 0x4A97 PUSH0 DUP3 PUSH2 0x4A6C JUMP JUMPDEST PUSH1 0x1 DUP2 ADD SWAP1 POP PUSH2 0x4A85 JUMP JUMPDEST POP POP JUMP JUMPDEST PUSH1 0x1F DUP3 GT ISZERO PUSH2 0x4AE7 JUMPI PUSH2 0x4AB8 DUP2 PUSH2 0x499E JUMP JUMPDEST PUSH2 0x4AC1 DUP5 PUSH2 0x49B0 JUMP JUMPDEST DUP2 ADD PUSH1 0x20 DUP6 LT ISZERO PUSH2 0x4AD0 JUMPI DUP2 SWAP1 POP JUMPDEST PUSH2 0x4AE4 PUSH2 0x4ADC DUP6 PUSH2 0x49B0 JUMP JUMPDEST DUP4 ADD DUP3 PUSH2 0x4A84 JUMP JUMPDEST POP POP JUMPDEST POP POP POP JUMP JUMPDEST PUSH0 DUP3 DUP3 SHR SWAP1 POP SWAP3 SWAP2 POP POP JUMP JUMPDEST PUSH0 PUSH2 0x4B07 PUSH0 NOT DUP5 PUSH1 0x8 MUL PUSH2 0x4AEC JUMP JUMPDEST NOT DUP1 DUP4 AND SWAP2 POP POP SWAP3 SWAP2 POP POP JUMP JUMPDEST PUSH0 PUSH2 0x4B1F DUP4 DUP4 PUSH2 0x4AF8 JUMP JUMPDEST SWAP2 POP DUP3 PUSH1 0x2 MUL DUP3 OR SWAP1 POP SWAP3 SWAP2 POP POP JUMP JUMPDEST PUSH2 0x4B38 DUP3 PUSH2 0x444D JUMP JUMPDEST PUSH8 0xFFFFFFFFFFFFFFFF DUP2 GT ISZERO PUSH2 0x4B51 JUMPI PUSH2 0x4B50 PUSH2 0x3D80 JUMP JUMPDEST JUMPDEST PUSH2 0x4B5B DUP3 SLOAD PUSH2 0x491D JUMP JUMPDEST PUSH2 0x4B66 DUP3 DUP3 DUP6 PUSH2 0x4AA6 JUMP JUMPDEST PUSH0 PUSH1 0x20 SWAP1 POP PUSH1 0x1F DUP4 GT PUSH1 0x1 DUP2 EQ PUSH2 0x4B97 JUMPI PUSH0 DUP5 ISZERO PUSH2 0x4B85 JUMPI DUP3 DUP8 ADD MLOAD SWAP1 POP JUMPDEST PUSH2 0x4B8F DUP6 DUP3 PUSH2 0x4B14 JUMP JUMPDEST DUP7 SSTORE POP PUSH2 0x4BF6 JUMP JUMPDEST PUSH1 0x1F NOT DUP5 AND PUSH2 0x4BA5 DUP7 PUSH2 0x499E JUMP JUMPDEST PUSH0 JUMPDEST DUP3 DUP2 LT ISZERO PUSH2 0x4BCC JUMPI DUP5 DUP10 ADD MLOAD DUP3 SSTORE PUSH1 0x1 DUP3 ADD SWAP2 POP PUSH1 0x20 DUP6 ADD SWAP5 POP PUSH1 0x20 DUP2 ADD SWAP1 POP PUSH2 0x4BA7 JUMP JUMPDEST DUP7 DUP4 LT ISZERO PUSH2 0x4BE9 JUMPI DUP5 DUP10 ADD MLOAD PUSH2 0x4BE5 PUSH1 0x1F DUP10 AND DUP3 PUSH2 0x4AF8 JUMP JUMPDEST DUP4 SSTORE POP JUMPDEST PUSH1 0x1 PUSH1 0x2 DUP9 MUL ADD DUP9 SSTORE POP POP POP JUMPDEST POP POP POP POP POP POP JUMP JUMPDEST PUSH0 DUP1 REVERT JUMPDEST PUSH0 DUP1 REVERT JUMPDEST PUSH0 PUSH1 0x40 DUP3 DUP5 SUB SLT ISZERO PUSH2 0x4C1B JUMPI PUSH2 0x4C1A PUSH2 0x4BFE JUMP JUMPDEST JUMPDEST PUSH2 0x4C25 PUSH1 0x40 PUSH2 0x3DDE JUMP JUMPDEST SWAP1 POP PUSH0 PUSH2 0x4C34 DUP5 DUP3 DUP6 ADD PUSH2 0x4064 JUMP JUMPDEST PUSH0 DUP4 ADD MSTORE POP PUSH1 0x20 DUP3 ADD CALLDATALOAD PUSH8 0xFFFFFFFFFFFFFFFF DUP2 GT ISZERO PUSH2 0x4C57 JUMPI PUSH2 0x4C56 PUSH2 0x4C02 JUMP JUMPDEST JUMPDEST PUSH2 0x4C63 DUP5 DUP3 DUP6 ADD PUSH2 0x3E77 JUMP JUMPDEST PUSH1 0x20 DUP4 ADD MSTORE POP SWAP3 SWAP2 POP POP JUMP JUMPDEST PUSH0 PUSH1 0x20 DUP3 DUP5 SUB SLT ISZERO PUSH2 0x4C84 JUMPI PUSH2 0x4C83 PUSH2 0x3AF9 JUMP JUMPDEST JUMPDEST PUSH0 DUP3 ADD CALLDATALOAD PUSH8 0xFFFFFFFFFFFFFFFF DUP2 GT ISZERO PUSH2 0x4CA1 JUMPI PUSH2 0x4CA0 PUSH2 0x3AFD JUMP JUMPDEST JUMPDEST PUSH2 0x4CAD DUP5 DUP3 DUP6 ADD PUSH2 0x4C06 JUMP JUMPDEST SWAP2 POP POP SWAP3 SWAP2 POP POP JUMP JUMPDEST PUSH0 DUP2 SWAP1 POP PUSH1 0x20 DUP3 ADD SWAP1 POP SWAP2 SWAP1 POP JUMP JUMPDEST PUSH0 PUSH2 0x4CD0 DUP3 MLOAD PUSH2 0x3B01 JUMP JUMPDEST DUP1 SWAP2 POP POP SWAP2 SWAP1 POP JUMP JUMPDEST PUSH0 PUSH2 0x4CE3 DUP3 PUSH2 0x444D JUMP JUMPDEST DUP3 PUSH2 0x4CED DUP5 PUSH2 0x4CB6 JUMP JUMPDEST SWAP1 POP PUSH2 0x4CF8 DUP2 PUSH2 0x4CC5 JUMP JUMPDEST SWAP3 POP PUSH1 0x20 DUP3 LT ISZERO PUSH2 0x4D38 JUMPI PUSH2 0x4D33 PUSH32 0xFFFFFFFFFFFFFFFFFFFFFFFFFFFFFFFFFFFFFFFFFFFFFFFFFFFFFFFFFFFFFFFF DUP4 PUSH1 0x20 SUB PUSH1 0x8 MUL PUSH2 0x4773 JUMP JUMPDEST DUP4 AND SWAP3 POP JUMPDEST POP POP SWAP2 SWAP1 POP JUMP JUMPDEST PUSH0 DUP2 MLOAD SWAP1 POP PUSH2 0x4D4D DUP2 PUSH2 0x404E JUMP JUMPDEST SWAP3 SWAP2 POP POP JUMP JUMPDEST PUSH0 DUP1 PUSH1 0x40 DUP4 DUP6 SUB SLT ISZERO PUSH2 0x4D69 JUMPI PUSH2 0x4D68 PUSH2 0x3AF9 JUMP JUMPDEST JUMPDEST PUSH0 PUSH2 0x4D76 DUP6 DUP3 DUP7 ADD PUSH2 0x4D3F JUMP JUMPDEST SWAP3 POP POP PUSH1 0x20 PUSH2 0x4D87 DUP6 DUP3 DUP7 ADD PUSH2 0x4D3F JUMP JUMPDEST SWAP2 POP POP SWAP3 POP SWAP3 SWAP1 POP JUMP JUMPDEST PUSH0 PUSH2 0x4DA3 PUSH2 0x4D9E DUP5 PUSH2 0x3DF8 JUMP JUMPDEST PUSH2 0x3DDE JUMP JUMPDEST SWAP1 POP DUP3 DUP2 MSTORE PUSH1 0x20 DUP2 ADD DUP5 DUP5 DUP5 ADD GT ISZERO PUSH2 0x4DBF JUMPI PUSH2 0x4DBE PUSH2 0x3D6C JUMP JUMPDEST JUMPDEST PUSH2 0x4DCA DUP5 DUP3 DUP6 PUSH2 0x422C JUMP JUMPDEST POP SWAP4 SWAP3 POP POP POP JUMP JUMPDEST PUSH0 DUP3 PUSH1 0x1F DUP4 ADD SLT PUSH2 0x4DE6 JUMPI PUSH2 0x4DE5 PUSH2 0x3C5B JUMP JUMPDEST JUMPDEST DUP2 MLOAD PUSH2 0x4DF6 DUP5 DUP3 PUSH1 0x20 DUP7 ADD PUSH2 0x4D91 JUMP JUMPDEST SWAP2 POP POP SWAP3 SWAP2 POP POP JUMP JUMPDEST PUSH0 PUSH8 0xFFFFFFFFFFFFFFFF DUP3 GT ISZERO PUSH2 0x4E19 JUMPI PUSH2 0x4E18 PUSH2 0x3D80 JUMP JUMPDEST JUMPDEST PUSH2 0x4E22 DUP3 PUSH2 0x3D70 JUMP JUMPDEST SWAP1 POP PUSH1 0x20 DUP2 ADD SWAP1 POP SWAP2 SWAP1 POP JUMP JUMPDEST PUSH0 PUSH2 0x4E41 PUSH2 0x4E3C DUP5 PUSH2 0x4DFF JUMP JUMPDEST PUSH2 0x3DDE JUMP JUMPDEST SWAP1 POP DUP3 DUP2 MSTORE PUSH1 0x20 DUP2 ADD DUP5 DUP5 DUP5 ADD GT ISZERO PUSH2 0x4E5D JUMPI PUSH2 0x4E5C PUSH2 0x3D6C JUMP JUMPDEST JUMPDEST PUSH2 0x4E68 DUP5 DUP3 DUP6 PUSH2 0x422C JUMP JUMPDEST POP SWAP4 SWAP3 POP POP POP JUMP JUMPDEST PUSH0 DUP3 PUSH1 0x1F DUP4 ADD SLT PUSH2 0x4E84 JUMPI PUSH2 0x4E83 PUSH2 0x3C5B JUMP JUMPDEST JUMPDEST DUP2 MLOAD PUSH2 0x4E94 DUP5 DUP3 PUSH1 0x20 DUP7 ADD PUSH2 0x4E2F JUMP JUMPDEST SWAP2 POP POP SWAP3 SWAP2 POP POP JUMP JUMPDEST PUSH0 PUSH1 0xC0 DUP3 DUP5 SUB SLT ISZERO PUSH2 0x4EB2 JUMPI PUSH2 0x4EB1 PUSH2 0x4BFE JUMP JUMPDEST JUMPDEST PUSH2 0x4EBC PUSH1 0xC0 PUSH2 0x3DDE JUMP JUMPDEST SWAP1 POP PUSH0 DUP3 ADD MLOAD PUSH8 0xFFFFFFFFFFFFFFFF DUP2 GT ISZERO PUSH2 0x4EDB JUMPI PUSH2 0x4EDA PUSH2 0x4C02 JUMP JUMPDEST JUMPDEST PUSH2 0x4EE7 DUP5 DUP3 DUP6 ADD PUSH2 0x4DD2 JUMP JUMPDEST PUSH0 DUP4 ADD MSTORE POP PUSH1 0x20 DUP3 ADD MLOAD PUSH8 0xFFFFFFFFFFFFFFFF DUP2 GT ISZERO PUSH2 0x4F0A JUMPI PUSH2 0x4F09 PUSH2 0x4C02 JUMP JUMPDEST JUMPDEST PUSH2 0x4F16 DUP5 DUP3 DUP6 ADD PUSH2 0x4E70 JUMP JUMPDEST PUSH1 0x20 DUP4 ADD MSTORE POP PUSH1 0x40 PUSH2 0x4F2A DUP5 DUP3 DUP6 ADD PUSH2 0x4D3F JUMP JUMPDEST PUSH1 0x40 DUP4 ADD MSTORE POP PUSH1 0x60 PUSH2 0x4F3E DUP5 DUP3 DUP6 ADD PUSH2 0x4D3F JUMP JUMPDEST PUSH1 0x60 DUP4 ADD MSTORE POP PUSH1 0x80 PUSH2 0x4F52 DUP5 DUP3 DUP6 ADD PUSH2 0x4D3F JUMP JUMPDEST PUSH1 0x80 DUP4 ADD MSTORE POP PUSH1 0xA0 PUSH2 0x4F66 DUP5 DUP3 DUP6 ADD PUSH2 0x4D3F JUMP JUMPDEST PUSH1 0xA0 DUP4 ADD MSTORE POP SWAP3 SWAP2 POP POP JUMP JUMPDEST PUSH0 PUSH1 0x20 DUP3 DUP5 SUB SLT ISZERO PUSH2 0x4F87 JUMPI PUSH2 0x4F86 PUSH2 0x3AF9 JUMP JUMPDEST JUMPDEST PUSH0 DUP3 ADD MLOAD PUSH8 0xFFFFFFFFFFFFFFFF DUP2 GT ISZERO PUSH2 0x4FA4 JUMPI PUSH2 0x4FA3 PUSH2 0x3AFD JUMP JUMPDEST JUMPDEST PUSH2 0x4FB0 DUP5 DUP3 DUP6 ADD PUSH2 0x4E9D JUMP JUMPDEST SWAP2 POP POP SWAP3 SWAP2 POP POP JUMP JUMPDEST PUSH0 PUSH2 0x4FC4 DUP4 DUP6 PUSH2 0x45D7 JUMP JUMPDEST SWAP4 POP PUSH2 0x4FD1 DUP4 DUP6 DUP5 PUSH2 0x3E28 JUMP JUMPDEST DUP3 DUP5 ADD SWAP1 POP SWAP4 SWAP3 POP POP POP JUMP JUMPDEST PUSH0 PUSH2 0x4FE9 DUP3 DUP5 DUP7 PUSH2 0x4FB9 JUMP JUMPDEST SWAP2 POP DUP2 SWAP1 POP SWAP4 SWAP3 POP POP POP JUMP JUMPDEST PUSH0 PUSH2 0x5000 DUP4 DUP6 PUSH2 0x4457 JUMP JUMPDEST SWAP4 POP PUSH2 0x500D DUP4 DUP6 DUP5 PUSH2 0x3E28 JUMP JUMPDEST PUSH2 0x5016 DUP4 PUSH2 0x3D70 JUMP JUMPDEST DUP5 ADD SWAP1 POP SWAP4 SWAP3 POP POP POP JUMP JUMPDEST PUSH0 PUSH1 0x60 DUP3 ADD SWAP1 POP PUSH2 0x5034 PUSH0 DUP4 ADD DUP8 PUSH2 0x3BAE JUMP JUMPDEST DUP2 DUP2 SUB PUSH1 0x20 DUP4 ADD MSTORE PUSH2 0x5047 DUP2 DUP6 DUP8 PUSH2 0x4FF5 JUMP JUMPDEST SWAP1 POP DUP2 DUP2 SUB PUSH1 0x40 DUP4 ADD MSTORE PUSH2 0x505B DUP2 DUP5 PUSH2 0x4467 JUMP JUMPDEST SWAP1 POP SWAP6 SWAP5 POP POP POP POP POP JUMP JUMPDEST PUSH0 PUSH1 0x20 DUP3 ADD SWAP1 POP DUP2 DUP2 SUB PUSH0 DUP4 ADD MSTORE PUSH2 0x507F DUP2 DUP5 DUP7 PUSH2 0x4FF5 JUMP JUMPDEST SWAP1 POP SWAP4 SWAP3 POP POP POP JUMP JUMPDEST PUSH0 DUP2 SWAP1 POP SWAP3 SWAP2 POP POP JUMP JUMPDEST PUSH32 0x1901000000000000000000000000000000000000000000000000000000000000 PUSH0 DUP3 ADD MSTORE POP JUMP JUMPDEST PUSH0 PUSH2 0x50C6 PUSH1 0x2 DUP4 PUSH2 0x5088 JUMP JUMPDEST SWAP2 POP PUSH2 0x50D1 DUP3 PUSH2 0x5092 JUMP JUMPDEST PUSH1 0x2 DUP3 ADD SWAP1 POP SWAP2 SWAP1 POP JUMP JUMPDEST PUSH0 DUP2 SWAP1 POP SWAP2 SWAP1 POP JUMP JUMPDEST PUSH2 0x50F6 PUSH2 0x50F1 DUP3 PUSH2 0x3B01 JUMP JUMPDEST PUSH2 0x50DC JUMP JUMPDEST DUP3 MSTORE POP POP JUMP JUMPDEST PUSH0 PUSH2 0x5106 DUP3 PUSH2 0x50BA JUMP JUMPDEST SWAP2 POP PUSH2 0x5112 DUP3 DUP6 PUSH2 0x50E5 JUMP JUMPDEST PUSH1 0x20 DUP3 ADD SWAP2 POP PUSH2 0x5122 DUP3 DUP5 PUSH2 0x50E5 JUMP JUMPDEST PUSH1 0x20 DUP3 ADD SWAP2 POP DUP2 SWAP1 POP SWAP4 SWAP3 POP POP POP JUMP JUMPDEST PUSH32 0x4E487B7100000000000000000000000000000000000000000000000000000000 PUSH0 MSTORE PUSH1 0x12 PUSH1 0x4 MSTORE PUSH1 0x24 PUSH0 REVERT JUMPDEST PUSH0 PUSH2 0x5169 DUP3 PUSH2 0x3BA5 JUMP JUMPDEST SWAP2 POP PUSH2 0x5174 DUP4 PUSH2 0x3BA5 JUMP JUMPDEST SWAP3 POP DUP3 PUSH2 0x5184 JUMPI PUSH2 0x5183 PUSH2 0x5132 JUMP JUMPDEST JUMPDEST DUP3 DUP3 DIV SWAP1 POP SWAP3 SWAP2 POP POP JUMP JUMPDEST PUSH0 PUSH2 0x5199 DUP3 PUSH2 0x3BA5 JUMP JUMPDEST SWAP2 POP PUSH2 0x51A4 DUP4 PUSH2 0x3BA5 JUMP JUMPDEST SWAP3 POP DUP3 DUP3 ADD SWAP1 POP DUP1 DUP3 GT ISZERO PUSH2 0x51BC JUMPI PUSH2 0x51BB PUSH2 0x4627 JUMP JUMPDEST JUMPDEST SWAP3 SWAP2 POP POP JUMP JUMPDEST PUSH32 0x226368616C6C656E6765223A2200000000000000000000000000000000000000 DUP2 MSTORE POP JUMP JUMPDEST PUSH0 PUSH2 0x51F2 DUP3 PUSH2 0x4212 JUMP JUMPDEST PUSH2 0x51FC DUP2 DUP6 PUSH2 0x5088 JUMP JUMPDEST SWAP4 POP PUSH2 0x520C DUP2 DUP6 PUSH1 0x20 DUP7 ADD PUSH2 0x422C JUMP JUMPDEST DUP1 DUP5 ADD SWAP2 POP POP SWAP3 SWAP2 POP POP JUMP JUMPDEST PUSH32 0x2200000000000000000000000000000000000000000000000000000000000000 DUP2 MSTORE POP JUMP JUMPDEST PUSH0 PUSH2 0x5248 DUP3 PUSH2 0x51C2 JUMP JUMPDEST PUSH1 0xD DUP3 ADD SWAP2 POP PUSH2 0x5258 DUP3 DUP5 PUSH2 0x51E8 JUMP JUMPDEST SWAP2 POP PUSH2 0x5263 DUP3 PUSH2 0x5218 JUMP JUMPDEST PUSH1 0x1 DUP3 ADD SWAP2 POP DUP2 SWAP1 POP SWAP3 SWAP2 POP POP JUMP JUMPDEST PUSH0 DUP2 MLOAD SWAP1 POP PUSH2 0x5280 DUP2 PUSH2 0x3B0A JUMP JUMPDEST SWAP3 SWAP2 POP POP JUMP JUMPDEST PUSH0 PUSH1 0x20 DUP3 DUP5 SUB SLT ISZERO PUSH2 0x529B JUMPI PUSH2 0x529A PUSH2 0x3AF9 JUMP JUMPDEST JUMPDEST PUSH0 PUSH2 0x52A8 DUP5 DUP3 DUP6 ADD PUSH2 0x5272 JUMP JUMPDEST SWAP2 POP POP SWAP3 SWAP2 POP POP JUMP JUMPDEST PUSH0 PUSH2 0x52BC DUP3 DUP6 PUSH2 0x45E1 JUMP JUMPDEST SWAP2 POP PUSH2 0x52C8 DUP3 DUP5 PUSH2 0x50E5 JUMP JUMPDEST PUSH1 0x20 DUP3 ADD SWAP2 POP DUP2 SWAP1 POP SWAP4 SWAP3 POP POP POP JUMP JUMPDEST PUSH0 PUSH1 0xA0 DUP3 ADD SWAP1 POP PUSH2 0x52EB PUSH0 DUP4 ADD DUP9 PUSH2 0x4188 JUMP JUMPDEST PUSH2 0x52F8 PUSH1 0x20 DUP4 ADD DUP8 PUSH2 0x3BAE JUMP JUMPDEST PUSH2 0x5305 PUSH1 0x40 DUP4 ADD DUP7 PUSH2 0x3BAE JUMP JUMPDEST PUSH2 0x5312 PUSH1 0x60 DUP4 ADD DUP6 PUSH2 0x3BAE JUMP JUMPDEST PUSH2 0x531F PUSH1 0x80 DUP4 ADD DUP5 PUSH2 0x3BAE JUMP JUMPDEST SWAP7 SWAP6 POP POP POP POP POP POP JUMP JUMPDEST PUSH0 PUSH1 0x20 DUP3 DUP5 SUB SLT ISZERO PUSH2 0x533E JUMPI PUSH2 0x533D PUSH2 0x3AF9 JUMP JUMPDEST JUMPDEST PUSH0 PUSH2 0x534B DUP5 DUP3 DUP6 ADD PUSH2 0x4D3F JUMP JUMPDEST SWAP2 POP POP SWAP3 SWAP2 POP POP JUMP JUMPDEST PUSH0 PUSH2 0x140 DUP3 ADD SWAP1 POP PUSH2 0x5368 PUSH0 DUP4 ADD DUP14 PUSH2 0x41B0 JUMP JUMPDEST PUSH2 0x5375 PUSH1 0x20 DUP4 ADD DUP13 PUSH2 0x3BAE JUMP JUMPDEST PUSH2 0x5382 PUSH1 0x40 DUP4 ADD DUP12 PUSH2 0x4188 JUMP JUMPDEST PUSH2 0x538F PUSH1 0x60 DUP4 ADD DUP11 PUSH2 0x4188 JUMP JUMPDEST PUSH2 0x539C PUSH1 0x80 DUP4 ADD DUP10 PUSH2 0x3BAE JUMP JUMPDEST PUSH2 0x53A9 PUSH1 0xA0 DUP4 ADD DUP9 PUSH2 0x3BAE JUMP JUMPDEST PUSH2 0x53B6 PUSH1 0xC0 DUP4 ADD DUP8 PUSH2 0x3BAE JUMP JUMPDEST PUSH2 0x53C3 PUSH1 0xE0 DUP4 ADD DUP7 PUSH2 0x3BAE JUMP JUMPDEST PUSH2 0x53D1 PUSH2 0x100 DUP4 ADD DUP6 PUSH2 0x3BAE JUMP JUMPDEST PUSH2 0x53DF PUSH2 0x120 DUP4 ADD DUP5 PUSH2 0x4188 JUMP JUMPDEST SWAP12 SWAP11 POP POP POP POP POP POP POP POP POP POP POP JUMP JUMPDEST PUSH0 PUSH2 0x53F8 DUP3 PUSH2 0x3BA5 JUMP JUMPDEST SWAP2 POP PUSH2 0x5403 DUP4 PUSH2 0x3BA5 JUMP JUMPDEST SWAP3 POP DUP3 DUP3 MUL PUSH2 0x5411 DUP2 PUSH2 0x3BA5 JUMP JUMPDEST SWAP2 POP DUP3 DUP3 DIV DUP5 EQ DUP4 ISZERO OR PUSH2 0x5428 JUMPI PUSH2 0x5427 PUSH2 0x4627 JUMP JUMPDEST JUMPDEST POP SWAP3 SWAP2 POP POP JUMP INVALID COINBASE TIMESTAMP NUMBER PREVRANDAO GASLIMIT CHAINID SELFBALANCE BASEFEE 0x49 0x4A 0x4B 0x4C 0x4D 0x4E 0x4F POP MLOAD MSTORE MSTORE8 SLOAD SSTORE JUMP JUMPI PC MSIZE GAS PUSH2 0x6263 PUSH5 0x6566676869 PUSH11 0x6B6C6D6E6F707172737475 PUSH23 0x7778797A303132333435363738392D5FA2646970667358 0x22 SLT KECCAK256 0x2E 0xE7 0x4E PC MSTORE8 DUP14 CHAINID 0xDC SWAP3 SWAP7 CALLVALUE PUSH27 0xB092D3BCFAF58F5EE0B8ED7B309EE545C495F8F64736F6C634300 ADDMOD OR STOP CALLER "
		},
		"gasEstimates": {
			"creation": {
				"codeDepositCost": "4333800",
				"executionCost": "infinite",
				"totalCost": "infinite"
			},
			"external": {
				"": "301",
				"REPLAYABLE_NONCE_KEY()": "370",
				"addOwnerAddress(address)": "infinite",
				"addOwnerPublicKey(bytes32,bytes32)": "infinite",
				"canSkipChainIdValidation(bytes4)": "985",
				"domainSeparator()": "infinite",
				"eip712Domain()": "infinite",
				"entryPoint()": "447",
				"execute(address,uint256,bytes)": "infinite",
				"executeBatch((address,uint256,bytes)[])": "infinite",
				"executeWithoutChainIdValidation(bytes[])": "infinite",
				"getUserOpHashWithoutChainId((address,uint256,bytes,bytes,uint256,uint256,uint256,uint256,uint256,bytes,bytes))": "infinite",
				"implementation()": "2526",
				"initialize(bytes[])": "infinite",
				"isOwnerAddress(address)": "infinite",
				"isOwnerBytes(bytes)": "infinite",
				"isOwnerPublicKey(bytes32,bytes32)": "infinite",
				"isValidSignature(bytes32,bytes)": "infinite",
				"nextOwnerIndex()": "2559",
				"ownerAtIndex(uint256)": "infinite",
				"ownerCount()": "infinite",
				"proxiableUUID()": "infinite",
				"removeLastOwner(uint256,bytes)": "infinite",
				"removeOwnerAtIndex(uint256,bytes)": "infinite",
				"removedOwnersCount()": "2562",
				"replaySafeHash(bytes32)": "infinite",
				"upgradeToAndCall(address,bytes)": "infinite",
				"validateUserOp((address,uint256,bytes,bytes,uint256,uint256,uint256,uint256,uint256,bytes,bytes),bytes32,uint256)": "infinite"
			},
			"internal": {
				"_authorizeUpgrade(address)": "infinite",
				"_call(address,uint256,bytes memory)": "infinite",
				"_domainNameAndVersion()": "infinite",
				"_isValidSignature(bytes32,bytes calldata)": "infinite"
			}
		},
		"methodIdentifiers": {
			"REPLAYABLE_NONCE_KEY()": "88ce4c7c",
			"addOwnerAddress(address)": "0f0f3f24",
			"addOwnerPublicKey(bytes32,bytes32)": "29565e3b",
			"canSkipChainIdValidation(bytes4)": "9f9bcb34",
			"domainSeparator()": "f698da25",
			"eip712Domain()": "84b0196e",
			"entryPoint()": "b0d691fe",
			"execute(address,uint256,bytes)": "b61d27f6",
			"executeBatch((address,uint256,bytes)[])": "34fcd5be",
			"executeWithoutChainIdValidation(bytes[])": "2c2abd1e",
			"getUserOpHashWithoutChainId((address,uint256,bytes,bytes,uint256,uint256,uint256,uint256,uint256,bytes,bytes))": "4f6e7f22",
			"implementation()": "5c60da1b",
			"initialize(bytes[])": "6f2de70e",
			"isOwnerAddress(address)": "a2e1a8d8",
			"isOwnerBytes(bytes)": "1ca5393f",
			"isOwnerPublicKey(bytes32,bytes32)": "066a1eb7",
			"isValidSignature(bytes32,bytes)": "1626ba7e",
			"nextOwnerIndex()": "d948fd2e",
			"ownerAtIndex(uint256)": "8ea69029",
			"ownerCount()": "0db02622",
			"proxiableUUID()": "52d1902d",
			"removeLastOwner(uint256,bytes)": "b8197367",
			"removeOwnerAtIndex(uint256,bytes)": "89625b57",
			"removedOwnersCount()": "36d9cf9b",
			"replaySafeHash(bytes32)": "ce1506be",
			"upgradeToAndCall(address,bytes)": "4f1ef286",
			"validateUserOp((address,uint256,bytes,bytes,uint256,uint256,uint256,uint256,uint256,bytes,bytes),bytes32,uint256)": "3a871cdd"
		}
	},
	"abi": [
		{
			"inputs": [],
			"stateMutability": "nonpayable",
			"type": "constructor"
		},
		{
			"inputs": [
				{
					"internalType": "bytes",
					"name": "owner",
					"type": "bytes"
				}
			],
			"name": "AlreadyOwner",
			"type": "error"
		},
		{
			"inputs": [],
			"name": "Initialized",
			"type": "error"
		},
		{
			"inputs": [
				{
					"internalType": "bytes",
					"name": "owner",
					"type": "bytes"
				}
			],
			"name": "InvalidEthereumAddressOwner",
			"type": "error"
		},
		{
			"inputs": [
				{
					"internalType": "uint256",
					"name": "key",
					"type": "uint256"
				}
			],
			"name": "InvalidNonceKey",
			"type": "error"
		},
		{
			"inputs": [
				{
					"internalType": "bytes",
					"name": "owner",
					"type": "bytes"
				}
			],
			"name": "InvalidOwnerBytesLength",
			"type": "error"
		},
		{
			"inputs": [],
			"name": "LastOwner",
			"type": "error"
		},
		{
			"inputs": [
				{
					"internalType": "uint256",
					"name": "index",
					"type": "uint256"
				}
			],
			"name": "NoOwnerAtIndex",
			"type": "error"
		},
		{
			"inputs": [
				{
					"internalType": "uint256",
					"name": "ownersRemaining",
					"type": "uint256"
				}
			],
			"name": "NotLastOwner",
			"type": "error"
		},
		{
			"inputs": [
				{
					"internalType": "bytes4",
					"name": "selector",
					"type": "bytes4"
				}
			],
			"name": "SelectorNotAllowed",
			"type": "error"
		},
		{
			"inputs": [],
			"name": "Unauthorized",
			"type": "error"
		},
		{
			"inputs": [],
			"name": "UnauthorizedCallContext",
			"type": "error"
		},
		{
			"inputs": [],
			"name": "UpgradeFailed",
			"type": "error"
		},
		{
			"inputs": [
				{
					"internalType": "uint256",
					"name": "index",
					"type": "uint256"
				},
				{
					"internalType": "bytes",
					"name": "expectedOwner",
					"type": "bytes"
				},
				{
					"internalType": "bytes",
					"name": "actualOwner",
					"type": "bytes"
				}
			],
			"name": "WrongOwnerAtIndex",
			"type": "error"
		},
		{
			"anonymous": false,
			"inputs": [
				{
					"indexed": true,
					"internalType": "uint256",
					"name": "index",
					"type": "uint256"
				},
				{
					"indexed": false,
					"internalType": "bytes",
					"name": "owner",
					"type": "bytes"
				}
			],
			"name": "AddOwner",
			"type": "event"
		},
		{
			"anonymous": false,
			"inputs": [
				{
					"indexed": true,
					"internalType": "uint256",
					"name": "index",
					"type": "uint256"
				},
				{
					"indexed": false,
					"internalType": "bytes",
					"name": "owner",
					"type": "bytes"
				}
			],
			"name": "RemoveOwner",
			"type": "event"
		},
		{
			"anonymous": false,
			"inputs": [
				{
					"indexed": true,
					"internalType": "address",
					"name": "implementation",
					"type": "address"
				}
			],
			"name": "Upgraded",
			"type": "event"
		},
		{
			"stateMutability": "payable",
			"type": "fallback"
		},
		{
			"inputs": [],
			"name": "REPLAYABLE_NONCE_KEY",
			"outputs": [
				{
					"internalType": "uint256",
					"name": "",
					"type": "uint256"
				}
			],
			"stateMutability": "view",
			"type": "function"
		},
		{
			"inputs": [
				{
					"internalType": "address",
					"name": "owner",
					"type": "address"
				}
			],
			"name": "addOwnerAddress",
			"outputs": [],
			"stateMutability": "nonpayable",
			"type": "function"
		},
		{
			"inputs": [
				{
					"internalType": "bytes32",
					"name": "x",
					"type": "bytes32"
				},
				{
					"internalType": "bytes32",
					"name": "y",
					"type": "bytes32"
				}
			],
			"name": "addOwnerPublicKey",
			"outputs": [],
			"stateMutability": "nonpayable",
			"type": "function"
		},
		{
			"inputs": [
				{
					"internalType": "bytes4",
					"name": "functionSelector",
					"type": "bytes4"
				}
			],
			"name": "canSkipChainIdValidation",
			"outputs": [
				{
					"internalType": "bool",
					"name": "",
					"type": "bool"
				}
			],
			"stateMutability": "pure",
			"type": "function"
		},
		{
			"inputs": [],
			"name": "domainSeparator",
			"outputs": [
				{
					"internalType": "bytes32",
					"name": "",
					"type": "bytes32"
				}
			],
			"stateMutability": "view",
			"type": "function"
		},
		{
			"inputs": [],
			"name": "eip712Domain",
			"outputs": [
				{
					"internalType": "bytes1",
					"name": "fields",
					"type": "bytes1"
				},
				{
					"internalType": "string",
					"name": "name",
					"type": "string"
				},
				{
					"internalType": "string",
					"name": "version",
					"type": "string"
				},
				{
					"internalType": "uint256",
					"name": "chainId",
					"type": "uint256"
				},
				{
					"internalType": "address",
					"name": "verifyingContract",
					"type": "address"
				},
				{
					"internalType": "bytes32",
					"name": "salt",
					"type": "bytes32"
				},
				{
					"internalType": "uint256[]",
					"name": "extensions",
					"type": "uint256[]"
				}
			],
			"stateMutability": "view",
			"type": "function"
		},
		{
			"inputs": [],
			"name": "entryPoint",
			"outputs": [
				{
					"internalType": "address",
					"name": "",
					"type": "address"
				}
			],
			"stateMutability": "view",
			"type": "function"
		},
		{
			"inputs": [
				{
					"internalType": "address",
					"name": "target",
					"type": "address"
				},
				{
					"internalType": "uint256",
					"name": "value",
					"type": "uint256"
				},
				{
					"internalType": "bytes",
					"name": "data",
					"type": "bytes"
				}
			],
			"name": "execute",
			"outputs": [],
			"stateMutability": "payable",
			"type": "function"
		},
		{
			"inputs": [
				{
					"components": [
						{
							"internalType": "address",
							"name": "target",
							"type": "address"
						},
						{
							"internalType": "uint256",
							"name": "value",
							"type": "uint256"
						},
						{
							"internalType": "bytes",
							"name": "data",
							"type": "bytes"
						}
					],
					"internalType": "struct CoinbaseSmartWallet.Call[]",
					"name": "calls",
					"type": "tuple[]"
				}
			],
			"name": "executeBatch",
			"outputs": [],
			"stateMutability": "payable",
			"type": "function"
		},
		{
			"inputs": [
				{
					"internalType": "bytes[]",
					"name": "calls",
					"type": "bytes[]"
				}
			],
			"name": "executeWithoutChainIdValidation",
			"outputs": [],
			"stateMutability": "payable",
			"type": "function"
		},
		{
			"inputs": [
				{
					"components": [
						{
							"internalType": "address",
							"name": "sender",
							"type": "address"
						},
						{
							"internalType": "uint256",
							"name": "nonce",
							"type": "uint256"
						},
						{
							"internalType": "bytes",
							"name": "initCode",
							"type": "bytes"
						},
						{
							"internalType": "bytes",
							"name": "callData",
							"type": "bytes"
						},
						{
							"internalType": "uint256",
							"name": "callGasLimit",
							"type": "uint256"
						},
						{
							"internalType": "uint256",
							"name": "verificationGasLimit",
							"type": "uint256"
						},
						{
							"internalType": "uint256",
							"name": "preVerificationGas",
							"type": "uint256"
						},
						{
							"internalType": "uint256",
							"name": "maxFeePerGas",
							"type": "uint256"
						},
						{
							"internalType": "uint256",
							"name": "maxPriorityFeePerGas",
							"type": "uint256"
						},
						{
							"internalType": "bytes",
							"name": "paymasterAndData",
							"type": "bytes"
						},
						{
							"internalType": "bytes",
							"name": "signature",
							"type": "bytes"
						}
					],
					"internalType": "struct UserOperation",
					"name": "userOp",
					"type": "tuple"
				}
			],
			"name": "getUserOpHashWithoutChainId",
			"outputs": [
				{
					"internalType": "bytes32",
					"name": "",
					"type": "bytes32"
				}
			],
			"stateMutability": "view",
			"type": "function"
		},
		{
			"inputs": [],
			"name": "implementation",
			"outputs": [
				{
					"internalType": "address",
					"name": "$",
					"type": "address"
				}
			],
			"stateMutability": "view",
			"type": "function"
		},
		{
			"inputs": [
				{
					"internalType": "bytes[]",
					"name": "owners",
					"type": "bytes[]"
				}
			],
			"name": "initialize",
			"outputs": [],
			"stateMutability": "payable",
			"type": "function"
		},
		{
			"inputs": [
				{
					"internalType": "address",
					"name": "account",
					"type": "address"
				}
			],
			"name": "isOwnerAddress",
			"outputs": [
				{
					"internalType": "bool",
					"name": "",
					"type": "bool"
				}
			],
			"stateMutability": "view",
			"type": "function"
		},
		{
			"inputs": [
				{
					"internalType": "bytes",
					"name": "account",
					"type": "bytes"
				}
			],
			"name": "isOwnerBytes",
			"outputs": [
				{
					"internalType": "bool",
					"name": "",
					"type": "bool"
				}
			],
			"stateMutability": "view",
			"type": "function"
		},
		{
			"inputs": [
				{
					"internalType": "bytes32",
					"name": "x",
					"type": "bytes32"
				},
				{
					"internalType": "bytes32",
					"name": "y",
					"type": "bytes32"
				}
			],
			"name": "isOwnerPublicKey",
			"outputs": [
				{
					"internalType": "bool",
					"name": "",
					"type": "bool"
				}
			],
			"stateMutability": "view",
			"type": "function"
		},
		{
			"inputs": [
				{
					"internalType": "bytes32",
					"name": "hash",
					"type": "bytes32"
				},
				{
					"internalType": "bytes",
					"name": "signature",
					"type": "bytes"
				}
			],
			"name": "isValidSignature",
			"outputs": [
				{
					"internalType": "bytes4",
					"name": "result",
					"type": "bytes4"
				}
			],
			"stateMutability": "view",
			"type": "function"
		},
		{
			"inputs": [],
			"name": "nextOwnerIndex",
			"outputs": [
				{
					"internalType": "uint256",
					"name": "",
					"type": "uint256"
				}
			],
			"stateMutability": "view",
			"type": "function"
		},
		{
			"inputs": [
				{
					"internalType": "uint256",
					"name": "index",
					"type": "uint256"
				}
			],
			"name": "ownerAtIndex",
			"outputs": [
				{
					"internalType": "bytes",
					"name": "",
					"type": "bytes"
				}
			],
			"stateMutability": "view",
			"type": "function"
		},
		{
			"inputs": [],
			"name": "ownerCount",
			"outputs": [
				{
					"internalType": "uint256",
					"name": "",
					"type": "uint256"
				}
			],
			"stateMutability": "view",
			"type": "function"
		},
		{
			"inputs": [],
			"name": "proxiableUUID",
			"outputs": [
				{
					"internalType": "bytes32",
					"name": "",
					"type": "bytes32"
				}
			],
			"stateMutability": "view",
			"type": "function"
		},
		{
			"inputs": [
				{
					"internalType": "uint256",
					"name": "index",
					"type": "uint256"
				},
				{
					"internalType": "bytes",
					"name": "owner",
					"type": "bytes"
				}
			],
			"name": "removeLastOwner",
			"outputs": [],
			"stateMutability": "nonpayable",
			"type": "function"
		},
		{
			"inputs": [
				{
					"internalType": "uint256",
					"name": "index",
					"type": "uint256"
				},
				{
					"internalType": "bytes",
					"name": "owner",
					"type": "bytes"
				}
			],
			"name": "removeOwnerAtIndex",
			"outputs": [],
			"stateMutability": "nonpayable",
			"type": "function"
		},
		{
			"inputs": [],
			"name": "removedOwnersCount",
			"outputs": [
				{
					"internalType": "uint256",
					"name": "",
					"type": "uint256"
				}
			],
			"stateMutability": "view",
			"type": "function"
		},
		{
			"inputs": [
				{
					"internalType": "bytes32",
					"name": "hash",
					"type": "bytes32"
				}
			],
			"name": "replaySafeHash",
			"outputs": [
				{
					"internalType": "bytes32",
					"name": "",
					"type": "bytes32"
				}
			],
			"stateMutability": "view",
			"type": "function"
		},
		{
			"inputs": [
				{
					"internalType": "address",
					"name": "newImplementation",
					"type": "address"
				},
				{
					"internalType": "bytes",
					"name": "data",
					"type": "bytes"
				}
			],
			"name": "upgradeToAndCall",
			"outputs": [],
			"stateMutability": "payable",
			"type": "function"
		},
		{
			"inputs": [
				{
					"components": [
						{
							"internalType": "address",
							"name": "sender",
							"type": "address"
						},
						{
							"internalType": "uint256",
							"name": "nonce",
							"type": "uint256"
						},
						{
							"internalType": "bytes",
							"name": "initCode",
							"type": "bytes"
						},
						{
							"internalType": "bytes",
							"name": "callData",
							"type": "bytes"
						},
						{
							"internalType": "uint256",
							"name": "callGasLimit",
							"type": "uint256"
						},
						{
							"internalType": "uint256",
							"name": "verificationGasLimit",
							"type": "uint256"
						},
						{
							"internalType": "uint256",
							"name": "preVerificationGas",
							"type": "uint256"
						},
						{
							"internalType": "uint256",
							"name": "maxFeePerGas",
							"type": "uint256"
						},
						{
							"internalType": "uint256",
							"name": "maxPriorityFeePerGas",
							"type": "uint256"
						},
						{
							"internalType": "bytes",
							"name": "paymasterAndData",
							"type": "bytes"
						},
						{
							"internalType": "bytes",
							"name": "signature",
							"type": "bytes"
						}
					],
					"internalType": "struct UserOperation",
					"name": "userOp",
					"type": "tuple"
				},
				{
					"internalType": "bytes32",
					"name": "userOpHash",
					"type": "bytes32"
				},
				{
					"internalType": "uint256",
					"name": "missingAccountFunds",
					"type": "uint256"
				}
			],
			"name": "validateUserOp",
			"outputs": [
				{
					"internalType": "uint256",
					"name": "validationData",
					"type": "uint256"
				}
			],
			"stateMutability": "nonpayable",
			"type": "function"
		},
		{
			"stateMutability": "payable",
			"type": "receive"
		}
	]
}