{
	"data": {
		"bytecode": {
			"linkReferences": {},
			"object": "608060405234801561000f575f80fd5b5061128d8061001d5f395ff3fe608060405234801561000f575f80fd5b50600436106100a7575f3560e01c806336d9cf9b1161006f57806336d9cf9b1461016157806389625b571461017f5780638ea690291461019b578063a2e1a8d8146101cb578063b8197367146101fb578063d948fd2e14610217576100a7565b8063066a1eb7146100ab5780630db02622146100db5780630f0f3f24146100f95780631ca5393f1461011557806329565e3b14610145575b5f80fd5b6100c560048036038101906100c09190610917565b610235565b6040516100d2919061096f565b60405180910390f35b6100e3610293565b6040516100f091906109a0565b60405180910390f35b610113600480360381019061010e9190610a13565b6102b8565b005b61012f600480360381019061012a9190610b7a565b610309565b60405161013c919061096f565b60405180910390f35b61015f600480360381019061015a9190610917565b610345565b005b610169610399565b60405161017691906109a0565b60405180910390f35b61019960048036038101906101949190610c48565b6103ab565b005b6101b560048036038101906101b09190610ca5565b610404565b6040516101c29190610d4a565b60405180910390f35b6101e560048036038101906101e09190610a13565b6104ae565b6040516101f2919061096f565b60405180910390f35b61021560048036038101906102109190610c48565b610509565b005b61021f610573565b60405161022c91906109a0565b60405180910390f35b5f61023e610584565b6003018383604051602001610254929190610d79565b6040516020818303038152906040526040516102709190610dda565b90815260200160405180910390205f9054906101000a900460ff16905092915050565b5f8061029d610584565b90508060010154815f01546102b29190610e1d565b91505090565b6102c06105ab565b610306816040516020016102d49190610e5f565b6040516020818303038152906040526102eb610584565b5f015f8154809291906102fd90610e78565b91905055610622565b50565b5f610312610584565b600301826040516103239190610dda565b90815260200160405180910390205f9054906101000a900460ff169050919050565b61034d6105ab565b6103958282604051602001610363929190610d79565b60405160208183030381529060405261037a610584565b5f015f81548092919061038c90610e78565b91905055610622565b5050565b5f6103a2610584565b60010154905090565b6103b36105ab565b60016103bd610293565b036103f4576040517f948bf89700000000000000000000000000000000000000000000000000000000815260040160405180910390fd5b6103ff83838361070e565b505050565b606061040e610584565b6002015f8381526020019081526020015f20805461042b90610eec565b80601f016020809104026020016040519081016040528092919081815260200182805461045790610eec565b80156104a25780601f10610479576101008083540402835291602001916104a2565b820191905f5260205f20905b81548152906001019060200180831161048557829003601f168201915b50505050509050919050565b5f6104b7610584565b600301826040516020016104cb9190610e5f565b6040516020818303038152906040526040516104e79190610dda565b90815260200160405180910390205f9054906101000a900460ff169050919050565b6105116105ab565b5f61051a610293565b9050600181111561056257806040517f823f1aa800000000000000000000000000000000000000000000000000000000815260040161055991906109a0565b60405180910390fd5b61056d84848461070e565b50505050565b5f61057c610584565b5f0154905090565b5f7f97e2c6aad4ce5d562ebfaa00db6b9e0fb66ea5d8162ed5b243f51a2e03086f00905090565b6105b4336104ae565b806105ea57503073ffffffffffffffffffffffffffffffffffffffff163373ffffffffffffffffffffffffffffffffffffffff16145b610620576040517f82b4290000000000000000000000000000000000000000000000000000000000815260040160405180910390fd5b565b61062b82610309565b1561066d57816040517f8d16255a0000000000000000000000000000000000000000000000000000000081526004016106649190610d4a565b60405180910390fd5b5f610676610584565b90506001816003018460405161068c9190610dda565b90815260200160405180910390205f6101000a81548160ff02191690831515021790555082816002015f8481526020019081526020015f2090816106d091906110b9565b50817f38109edc26e166b5579352ce56a50813177eb25208fd90d61f2f378386220220846040516107019190610d4a565b60405180910390a2505050565b5f61071884610404565b90505f81510361075f57836040517f68188e7a00000000000000000000000000000000000000000000000000000000815260040161075691906109a0565b60405180910390fd5b828260405161076f9291906111ac565b60405180910390208180519060200120146107c757838383836040517f781f2e390000000000000000000000000000000000000000000000000000000081526004016107be94939291906111f0565b60405180910390fd5b5f6107d0610584565b90508060030184846040516107e69291906111ac565b90815260200160405180910390205f6101000a81549060ff0219169055806002015f8681526020019081526020015f205f610821919061087b565b806001015f81548092919061083590610e78565b9190505550847fcf95bbfe6f870f8cc40482dc3dccdafd268f0e9ce0a4f24ea1bea9be64e505ff858560405161086c929190611235565b60405180910390a25050505050565b50805461088790610eec565b5f825580601f1061089857506108b5565b601f0160209004905f5260205f20908101906108b491906108b8565b5b50565b5b808211156108cf575f815f9055506001016108b9565b5090565b5f604051905090565b5f80fd5b5f80fd5b5f819050919050565b6108f6816108e4565b8114610900575f80fd5b50565b5f81359050610911816108ed565b92915050565b5f806040838503121561092d5761092c6108dc565b5b5f61093a85828601610903565b925050602061094b85828601610903565b9150509250929050565b5f8115159050919050565b61096981610955565b82525050565b5f6020820190506109825f830184610960565b92915050565b5f819050919050565b61099a81610988565b82525050565b5f6020820190506109b35f830184610991565b92915050565b5f73ffffffffffffffffffffffffffffffffffffffff82169050919050565b5f6109e2826109b9565b9050919050565b6109f2816109d8565b81146109fc575f80fd5b50565b5f81359050610a0d816109e9565b92915050565b5f60208284031215610a2857610a276108dc565b5b5f610a35848285016109ff565b91505092915050565b5f80fd5b5f80fd5b5f601f19601f8301169050919050565b7f4e487b71000000000000000000000000000000000000000000000000000000005f52604160045260245ffd5b610a8c82610a46565b810181811067ffffffffffffffff82111715610aab57610aaa610a56565b5b80604052505050565b5f610abd6108d3565b9050610ac98282610a83565b919050565b5f67ffffffffffffffff821115610ae857610ae7610a56565b5b610af182610a46565b9050602081019050919050565b828183375f83830152505050565b5f610b1e610b1984610ace565b610ab4565b905082815260208101848484011115610b3a57610b39610a42565b5b610b45848285610afe565b509392505050565b5f82601f830112610b6157610b60610a3e565b5b8135610b71848260208601610b0c565b91505092915050565b5f60208284031215610b8f57610b8e6108dc565b5b5f82013567ffffffffffffffff811115610bac57610bab6108e0565b5b610bb884828501610b4d565b91505092915050565b610bca81610988565b8114610bd4575f80fd5b50565b5f81359050610be581610bc1565b92915050565b5f80fd5b5f80fd5b5f8083601f840112610c0857610c07610a3e565b5b8235905067ffffffffffffffff811115610c2557610c24610beb565b5b602083019150836001820283011115610c4157610c40610bef565b5b9250929050565b5f805f60408486031215610c5f57610c5e6108dc565b5b5f610c6c86828701610bd7565b935050602084013567ffffffffffffffff811115610c8d57610c8c6108e0565b5b610c9986828701610bf3565b92509250509250925092565b5f60208284031215610cba57610cb96108dc565b5b5f610cc784828501610bd7565b91505092915050565b5f81519050919050565b5f82825260208201905092915050565b5f5b83811015610d07578082015181840152602081019050610cec565b5f8484015250505050565b5f610d1c82610cd0565b610d268185610cda565b9350610d36818560208601610cea565b610d3f81610a46565b840191505092915050565b5f6020820190508181035f830152610d628184610d12565b905092915050565b610d73816108e4565b82525050565b5f604082019050610d8c5f830185610d6a565b610d996020830184610d6a565b9392505050565b5f81905092915050565b5f610db482610cd0565b610dbe8185610da0565b9350610dce818560208601610cea565b80840191505092915050565b5f610de58284610daa565b915081905092915050565b7f4e487b71000000000000000000000000000000000000000000000000000000005f52601160045260245ffd5b5f610e2782610988565b9150610e3283610988565b9250828203905081811115610e4a57610e49610df0565b5b92915050565b610e59816109d8565b82525050565b5f602082019050610e725f830184610e50565b92915050565b5f610e8282610988565b91507fffffffffffffffffffffffffffffffffffffffffffffffffffffffffffffffff8203610eb457610eb3610df0565b5b600182019050919050565b7f4e487b71000000000000000000000000000000000000000000000000000000005f52602260045260245ffd5b5f6002820490506001821680610f0357607f821691505b602082108103610f1657610f15610ebf565b5b50919050565b5f819050815f5260205f209050919050565b5f6020601f8301049050919050565b5f82821b905092915050565b5f60088302610f787fffffffffffffffffffffffffffffffffffffffffffffffffffffffffffffffff82610f3d565b610f828683610f3d565b95508019841693508086168417925050509392505050565b5f819050919050565b5f610fbd610fb8610fb384610988565b610f9a565b610988565b9050919050565b5f819050919050565b610fd683610fa3565b610fea610fe282610fc4565b848454610f49565b825550505050565b5f90565b610ffe610ff2565b611009818484610fcd565b505050565b5b8181101561102c576110215f82610ff6565b60018101905061100f565b5050565b601f8211156110715761104281610f1c565b61104b84610f2e565b8101602085101561105a578190505b61106e61106685610f2e565b83018261100e565b50505b505050565b5f82821c905092915050565b5f6110915f1984600802611076565b1980831691505092915050565b5f6110a98383611082565b9150826002028217905092915050565b6110c282610cd0565b67ffffffffffffffff8111156110db576110da610a56565b5b6110e58254610eec565b6110f0828285611030565b5f60209050601f831160018114611121575f841561110f578287015190505b611119858261109e565b865550611180565b601f19841661112f86610f1c565b5f5b8281101561115657848901518255600182019150602085019450602081019050611131565b86831015611173578489015161116f601f891682611082565b8355505b6001600288020188555050505b505050505050565b5f6111938385610da0565b93506111a0838584610afe565b82840190509392505050565b5f6111b8828486611188565b91508190509392505050565b5f6111cf8385610cda565b93506111dc838584610afe565b6111e583610a46565b840190509392505050565b5f6060820190506112035f830187610991565b81810360208301526112168185876111c4565b9050818103604083015261122a8184610d12565b905095945050505050565b5f6020820190508181035f83015261124e8184866111c4565b9050939250505056fea2646970667358221220a8c3a4c506f25801f890345aeac54e754d96754b8fc2b14bf401dccfe8f1b1f564736f6c63430008170033",
			"opcodes": "PUSH1 0x80 PUSH1 0x40 MSTORE CALLVALUE DUP1 ISZERO PUSH2 0xF JUMPI PUSH0 DUP1 REVERT JUMPDEST POP PUSH2 0x128D DUP1 PUSH2 0x1D PUSH0 CODECOPY PUSH0 RETURN INVALID PUSH1 0x80 PUSH1 0x40 MSTORE CALLVALUE DUP1 ISZERO PUSH2 0xF JUMPI PUSH0 DUP1 REVERT JUMPDEST POP PUSH1 0x4 CALLDATASIZE LT PUSH2 0xA7 JUMPI PUSH0 CALLDATALOAD PUSH1 0xE0 SHR DUP1 PUSH4 0x36D9CF9B GT PUSH2 0x6F JUMPI DUP1 PUSH4 0x36D9CF9B EQ PUSH2 0x161 JUMPI DUP1 PUSH4 0x89625B57 EQ PUSH2 0x17F JUMPI DUP1 PUSH4 0x8EA69029 EQ PUSH2 0x19B JUMPI DUP1 PUSH4 0xA2E1A8D8 EQ PUSH2 0x1CB JUMPI DUP1 PUSH4 0xB8197367 EQ PUSH2 0x1FB JUMPI DUP1 PUSH4 0xD948FD2E EQ PUSH2 0x217 JUMPI PUSH2 0xA7 JUMP JUMPDEST DUP1 PUSH4 0x66A1EB7 EQ PUSH2 0xAB JUMPI DUP1 PUSH4 0xDB02622 EQ PUSH2 0xDB JUMPI DUP1 PUSH4 0xF0F3F24 EQ PUSH2 0xF9 JUMPI DUP1 PUSH4 0x1CA5393F EQ PUSH2 0x115 JUMPI DUP1 PUSH4 0x29565E3B EQ PUSH2 0x145 JUMPI JUMPDEST PUSH0 DUP1 REVERT JUMPDEST PUSH2 0xC5 PUSH1 0x4 DUP1 CALLDATASIZE SUB DUP2 ADD SWAP1 PUSH2 0xC0 SWAP2 SWAP1 PUSH2 0x917 JUMP JUMPDEST PUSH2 0x235 JUMP JUMPDEST PUSH1 0x40 MLOAD PUSH2 0xD2 SWAP2 SWAP1 PUSH2 0x96F JUMP JUMPDEST PUSH1 0x40 MLOAD DUP1 SWAP2 SUB SWAP1 RETURN JUMPDEST PUSH2 0xE3 PUSH2 0x293 JUMP JUMPDEST PUSH1 0x40 MLOAD PUSH2 0xF0 SWAP2 SWAP1 PUSH2 0x9A0 JUMP JUMPDEST PUSH1 0x40 MLOAD DUP1 SWAP2 SUB SWAP1 RETURN JUMPDEST PUSH2 0x113 PUSH1 0x4 DUP1 CALLDATASIZE SUB DUP2 ADD SWAP1 PUSH2 0x10E SWAP2 SWAP1 PUSH2 0xA13 JUMP JUMPDEST PUSH2 0x2B8 JUMP JUMPDEST STOP JUMPDEST PUSH2 0x12F PUSH1 0x4 DUP1 CALLDATASIZE SUB DUP2 ADD SWAP1 PUSH2 0x12A SWAP2 SWAP1 PUSH2 0xB7A JUMP JUMPDEST PUSH2 0x309 JUMP JUMPDEST PUSH1 0x40 MLOAD PUSH2 0x13C SWAP2 SWAP1 PUSH2 0x96F JUMP JUMPDEST PUSH1 0x40 MLOAD DUP1 SWAP2 SUB SWAP1 RETURN JUMPDEST PUSH2 0x15F PUSH1 0x4 DUP1 CALLDATASIZE SUB DUP2 ADD SWAP1 PUSH2 0x15A SWAP2 SWAP1 PUSH2 0x917 JUMP JUMPDEST PUSH2 0x345 JUMP JUMPDEST STOP JUMPDEST PUSH2 0x169 PUSH2 0x399 JUMP JUMPDEST PUSH1 0x40 MLOAD PUSH2 0x176 SWAP2 SWAP1 PUSH2 0x9A0 JUMP JUMPDEST PUSH1 0x40 MLOAD DUP1 SWAP2 SUB SWAP1 RETURN JUMPDEST PUSH2 0x199 PUSH1 0x4 DUP1 CALLDATASIZE SUB DUP2 ADD SWAP1 PUSH2 0x194 SWAP2 SWAP1 PUSH2 0xC48 JUMP JUMPDEST PUSH2 0x3AB JUMP JUMPDEST STOP JUMPDEST PUSH2 0x1B5 PUSH1 0x4 DUP1 CALLDATASIZE SUB DUP2 ADD SWAP1 PUSH2 0x1B0 SWAP2 SWAP1 PUSH2 0xCA5 JUMP JUMPDEST PUSH2 0x404 JUMP JUMPDEST PUSH1 0x40 MLOAD PUSH2 0x1C2 SWAP2 SWAP1 PUSH2 0xD4A JUMP JUMPDEST PUSH1 0x40 MLOAD DUP1 SWAP2 SUB SWAP1 RETURN JUMPDEST PUSH2 0x1E5 PUSH1 0x4 DUP1 CALLDATASIZE SUB DUP2 ADD SWAP1 PUSH2 0x1E0 SWAP2 SWAP1 PUSH2 0xA13 JUMP JUMPDEST PUSH2 0x4AE JUMP JUMPDEST PUSH1 0x40 MLOAD PUSH2 0x1F2 SWAP2 SWAP1 PUSH2 0x96F JUMP JUMPDEST PUSH1 0x40 MLOAD DUP1 SWAP2 SUB SWAP1 RETURN JUMPDEST PUSH2 0x215 PUSH1 0x4 DUP1 CALLDATASIZE SUB DUP2 ADD SWAP1 PUSH2 0x210 SWAP2 SWAP1 PUSH2 0xC48 JUMP JUMPDEST PUSH2 0x509 JUMP JUMPDEST STOP JUMPDEST PUSH2 0x21F PUSH2 0x573 JUMP JUMPDEST PUSH1 0x40 MLOAD PUSH2 0x22C SWAP2 SWAP1 PUSH2 0x9A0 JUMP JUMPDEST PUSH1 0x40 MLOAD DUP1 SWAP2 SUB SWAP1 RETURN JUMPDEST PUSH0 PUSH2 0x23E PUSH2 0x584 JUMP JUMPDEST PUSH1 0x3 ADD DUP4 DUP4 PUSH1 0x40 MLOAD PUSH1 0x20 ADD PUSH2 0x254 SWAP3 SWAP2 SWAP1 PUSH2 0xD79 JUMP JUMPDEST PUSH1 0x40 MLOAD PUSH1 0x20 DUP2 DUP4 SUB SUB DUP2 MSTORE SWAP1 PUSH1 0x40 MSTORE PUSH1 0x40 MLOAD PUSH2 0x270 SWAP2 SWAP1 PUSH2 0xDDA JUMP JUMPDEST SWAP1 DUP2 MSTORE PUSH1 0x20 ADD PUSH1 0x40 MLOAD DUP1 SWAP2 SUB SWAP1 KECCAK256 PUSH0 SWAP1 SLOAD SWAP1 PUSH2 0x100 EXP SWAP1 DIV PUSH1 0xFF AND SWAP1 POP SWAP3 SWAP2 POP POP JUMP JUMPDEST PUSH0 DUP1 PUSH2 0x29D PUSH2 0x584 JUMP JUMPDEST SWAP1 POP DUP1 PUSH1 0x1 ADD SLOAD DUP2 PUSH0 ADD SLOAD PUSH2 0x2B2 SWAP2 SWAP1 PUSH2 0xE1D JUMP JUMPDEST SWAP2 POP POP SWAP1 JUMP JUMPDEST PUSH2 0x2C0 PUSH2 0x5AB JUMP JUMPDEST PUSH2 0x306 DUP2 PUSH1 0x40 MLOAD PUSH1 0x20 ADD PUSH2 0x2D4 SWAP2 SWAP1 PUSH2 0xE5F JUMP JUMPDEST PUSH1 0x40 MLOAD PUSH1 0x20 DUP2 DUP4 SUB SUB DUP2 MSTORE SWAP1 PUSH1 0x40 MSTORE PUSH2 0x2EB PUSH2 0x584 JUMP JUMPDEST PUSH0 ADD PUSH0 DUP2 SLOAD DUP1 SWAP3 SWAP2 SWAP1 PUSH2 0x2FD SWAP1 PUSH2 0xE78 JUMP JUMPDEST SWAP2 SWAP1 POP SSTORE PUSH2 0x622 JUMP JUMPDEST POP JUMP JUMPDEST PUSH0 PUSH2 0x312 PUSH2 0x584 JUMP JUMPDEST PUSH1 0x3 ADD DUP3 PUSH1 0x40 MLOAD PUSH2 0x323 SWAP2 SWAP1 PUSH2 0xDDA JUMP JUMPDEST SWAP1 DUP2 MSTORE PUSH1 0x20 ADD PUSH1 0x40 MLOAD DUP1 SWAP2 SUB SWAP1 KECCAK256 PUSH0 SWAP1 SLOAD SWAP1 PUSH2 0x100 EXP SWAP1 DIV PUSH1 0xFF AND SWAP1 POP SWAP2 SWAP1 POP JUMP JUMPDEST PUSH2 0x34D PUSH2 0x5AB JUMP JUMPDEST PUSH2 0x395 DUP3 DUP3 PUSH1 0x40 MLOAD PUSH1 0x20 ADD PUSH2 0x363 SWAP3 SWAP2 SWAP1 PUSH2 0xD79 JUMP JUMPDEST PUSH1 0x40 MLOAD PUSH1 0x20 DUP2 DUP4 SUB SUB DUP2 MSTORE SWAP1 PUSH1 0x40 MSTORE PUSH2 0x37A PUSH2 0x584 JUMP JUMPDEST PUSH0 ADD PUSH0 DUP2 SLOAD DUP1 SWAP3 SWAP2 SWAP1 PUSH2 0x38C SWAP1 PUSH2 0xE78 JUMP JUMPDEST SWAP2 SWAP1 POP SSTORE PUSH2 0x622 JUMP JUMPDEST POP POP JUMP JUMPDEST PUSH0 PUSH2 0x3A2 PUSH2 0x584 JUMP JUMPDEST PUSH1 0x1 ADD SLOAD SWAP1 POP SWAP1 JUMP JUMPDEST PUSH2 0x3B3 PUSH2 0x5AB JUMP JUMPDEST PUSH1 0x1 PUSH2 0x3BD PUSH2 0x293 JUMP JUMPDEST SUB PUSH2 0x3F4 JUMPI PUSH1 0x40 MLOAD PUSH32 0x948BF89700000000000000000000000000000000000000000000000000000000 DUP2 MSTORE PUSH1 0x4 ADD PUSH1 0x40 MLOAD DUP1 SWAP2 SUB SWAP1 REVERT JUMPDEST PUSH2 0x3FF DUP4 DUP4 DUP4 PUSH2 0x70E JUMP JUMPDEST POP POP POP JUMP JUMPDEST PUSH1 0x60 PUSH2 0x40E PUSH2 0x584 JUMP JUMPDEST PUSH1 0x2 ADD PUSH0 DUP4 DUP2 MSTORE PUSH1 0x20 ADD SWAP1 DUP2 MSTORE PUSH1 0x20 ADD PUSH0 KECCAK256 DUP1 SLOAD PUSH2 0x42B SWAP1 PUSH2 0xEEC JUMP JUMPDEST DUP1 PUSH1 0x1F ADD PUSH1 0x20 DUP1 SWAP2 DIV MUL PUSH1 0x20 ADD PUSH1 0x40 MLOAD SWAP1 DUP2 ADD PUSH1 0x40 MSTORE DUP1 SWAP3 SWAP2 SWAP1 DUP2 DUP2 MSTORE PUSH1 0x20 ADD DUP3 DUP1 SLOAD PUSH2 0x457 SWAP1 PUSH2 0xEEC JUMP JUMPDEST DUP1 ISZERO PUSH2 0x4A2 JUMPI DUP1 PUSH1 0x1F LT PUSH2 0x479 JUMPI PUSH2 0x100 DUP1 DUP4 SLOAD DIV MUL DUP4 MSTORE SWAP2 PUSH1 0x20 ADD SWAP2 PUSH2 0x4A2 JUMP JUMPDEST DUP3 ADD SWAP2 SWAP1 PUSH0 MSTORE PUSH1 0x20 PUSH0 KECCAK256 SWAP1 JUMPDEST DUP2 SLOAD DUP2 MSTORE SWAP1 PUSH1 0x1 ADD SWAP1 PUSH1 0x20 ADD DUP1 DUP4 GT PUSH2 0x485 JUMPI DUP3 SWAP1 SUB PUSH1 0x1F AND DUP3 ADD SWAP2 JUMPDEST POP POP POP POP POP SWAP1 POP SWAP2 SWAP1 POP JUMP JUMPDEST PUSH0 PUSH2 0x4B7 PUSH2 0x584 JUMP JUMPDEST PUSH1 0x3 ADD DUP3 PUSH1 0x40 MLOAD PUSH1 0x20 ADD PUSH2 0x4CB SWAP2 SWAP1 PUSH2 0xE5F JUMP JUMPDEST PUSH1 0x40 MLOAD PUSH1 0x20 DUP2 DUP4 SUB SUB DUP2 MSTORE SWAP1 PUSH1 0x40 MSTORE PUSH1 0x40 MLOAD PUSH2 0x4E7 SWAP2 SWAP1 PUSH2 0xDDA JUMP JUMPDEST SWAP1 DUP2 MSTORE PUSH1 0x20 ADD PUSH1 0x40 MLOAD DUP1 SWAP2 SUB SWAP1 KECCAK256 PUSH0 SWAP1 SLOAD SWAP1 PUSH2 0x100 EXP SWAP1 DIV PUSH1 0xFF AND SWAP1 POP SWAP2 SWAP1 POP JUMP JUMPDEST PUSH2 0x511 PUSH2 0x5AB JUMP JUMPDEST PUSH0 PUSH2 0x51A PUSH2 0x293 JUMP JUMPDEST SWAP1 POP PUSH1 0x1 DUP2 GT ISZERO PUSH2 0x562 JUMPI DUP1 PUSH1 0x40 MLOAD PUSH32 0x823F1AA800000000000000000000000000000000000000000000000000000000 DUP2 MSTORE PUSH1 0x4 ADD PUSH2 0x559 SWAP2 SWAP1 PUSH2 0x9A0 JUMP JUMPDEST PUSH1 0x40 MLOAD DUP1 SWAP2 SUB SWAP1 REVERT JUMPDEST PUSH2 0x56D DUP5 DUP5 DUP5 PUSH2 0x70E JUMP JUMPDEST POP POP POP POP JUMP JUMPDEST PUSH0 PUSH2 0x57C PUSH2 0x584 JUMP JUMPDEST PUSH0 ADD SLOAD SWAP1 POP SWAP1 JUMP JUMPDEST PUSH0 PUSH32 0x97E2C6AAD4CE5D562EBFAA00DB6B9E0FB66EA5D8162ED5B243F51A2E03086F00 SWAP1 POP SWAP1 JUMP JUMPDEST PUSH2 0x5B4 CALLER PUSH2 0x4AE JUMP JUMPDEST DUP1 PUSH2 0x5EA JUMPI POP ADDRESS PUSH20 0xFFFFFFFFFFFFFFFFFFFFFFFFFFFFFFFFFFFFFFFF AND CALLER PUSH20 0xFFFFFFFFFFFFFFFFFFFFFFFFFFFFFFFFFFFFFFFF AND EQ JUMPDEST PUSH2 0x620 JUMPI PUSH1 0x40 MLOAD PUSH32 0x82B4290000000000000000000000000000000000000000000000000000000000 DUP2 MSTORE PUSH1 0x4 ADD PUSH1 0x40 MLOAD DUP1 SWAP2 SUB SWAP1 REVERT JUMPDEST JUMP JUMPDEST PUSH2 0x62B DUP3 PUSH2 0x309 JUMP JUMPDEST ISZERO PUSH2 0x66D JUMPI DUP2 PUSH1 0x40 MLOAD PUSH32 0x8D16255A00000000000000000000000000000000000000000000000000000000 DUP2 MSTORE PUSH1 0x4 ADD PUSH2 0x664 SWAP2 SWAP1 PUSH2 0xD4A JUMP JUMPDEST PUSH1 0x40 MLOAD DUP1 SWAP2 SUB SWAP1 REVERT JUMPDEST PUSH0 PUSH2 0x676 PUSH2 0x584 JUMP JUMPDEST SWAP1 POP PUSH1 0x1 DUP2 PUSH1 0x3 ADD DUP5 PUSH1 0x40 MLOAD PUSH2 0x68C SWAP2 SWAP1 PUSH2 0xDDA JUMP JUMPDEST SWAP1 DUP2 MSTORE PUSH1 0x20 ADD PUSH1 0x40 MLOAD DUP1 SWAP2 SUB SWAP1 KECCAK256 PUSH0 PUSH2 0x100 EXP DUP2 SLOAD DUP2 PUSH1 0xFF MUL NOT AND SWAP1 DUP4 ISZERO ISZERO MUL OR SWAP1 SSTORE POP DUP3 DUP2 PUSH1 0x2 ADD PUSH0 DUP5 DUP2 MSTORE PUSH1 0x20 ADD SWAP1 DUP2 MSTORE PUSH1 0x20 ADD PUSH0 KECCAK256 SWAP1 DUP2 PUSH2 0x6D0 SWAP2 SWAP1 PUSH2 0x10B9 JUMP JUMPDEST POP DUP2 PUSH32 0x38109EDC26E166B5579352CE56A50813177EB25208FD90D61F2F378386220220 DUP5 PUSH1 0x40 MLOAD PUSH2 0x701 SWAP2 SWAP1 PUSH2 0xD4A JUMP JUMPDEST PUSH1 0x40 MLOAD DUP1 SWAP2 SUB SWAP1 LOG2 POP POP POP JUMP JUMPDEST PUSH0 PUSH2 0x718 DUP5 PUSH2 0x404 JUMP JUMPDEST SWAP1 POP PUSH0 DUP2 MLOAD SUB PUSH2 0x75F JUMPI DUP4 PUSH1 0x40 MLOAD PUSH32 0x68188E7A00000000000000000000000000000000000000000000000000000000 DUP2 MSTORE PUSH1 0x4 ADD PUSH2 0x756 SWAP2 SWAP1 PUSH2 0x9A0 JUMP JUMPDEST PUSH1 0x40 MLOAD DUP1 SWAP2 SUB SWAP1 REVERT JUMPDEST DUP3 DUP3 PUSH1 0x40 MLOAD PUSH2 0x76F SWAP3 SWAP2 SWAP1 PUSH2 0x11AC JUMP JUMPDEST PUSH1 0x40 MLOAD DUP1 SWAP2 SUB SWAP1 KECCAK256 DUP2 DUP1 MLOAD SWAP1 PUSH1 0x20 ADD KECCAK256 EQ PUSH2 0x7C7 JUMPI DUP4 DUP4 DUP4 DUP4 PUSH1 0x40 MLOAD PUSH32 0x781F2E3900000000000000000000000000000000000000000000000000000000 DUP2 MSTORE PUSH1 0x4 ADD PUSH2 0x7BE SWAP5 SWAP4 SWAP3 SWAP2 SWAP1 PUSH2 0x11F0 JUMP JUMPDEST PUSH1 0x40 MLOAD DUP1 SWAP2 SUB SWAP1 REVERT JUMPDEST PUSH0 PUSH2 0x7D0 PUSH2 0x584 JUMP JUMPDEST SWAP1 POP DUP1 PUSH1 0x3 ADD DUP5 DUP5 PUSH1 0x40 MLOAD PUSH2 0x7E6 SWAP3 SWAP2 SWAP1 PUSH2 0x11AC JUMP JUMPDEST SWAP1 DUP2 MSTORE PUSH1 0x20 ADD PUSH1 0x40 MLOAD DUP1 SWAP2 SUB SWAP1 KECCAK256 PUSH0 PUSH2 0x100 EXP DUP2 SLOAD SWAP1 PUSH1 0xFF MUL NOT AND SWAP1 SSTORE DUP1 PUSH1 0x2 ADD PUSH0 DUP7 DUP2 MSTORE PUSH1 0x20 ADD SWAP1 DUP2 MSTORE PUSH1 0x20 ADD PUSH0 KECCAK256 PUSH0 PUSH2 0x821 SWAP2 SWAP1 PUSH2 0x87B JUMP JUMPDEST DUP1 PUSH1 0x1 ADD PUSH0 DUP2 SLOAD DUP1 SWAP3 SWAP2 SWAP1 PUSH2 0x835 SWAP1 PUSH2 0xE78 JUMP JUMPDEST SWAP2 SWAP1 POP SSTORE POP DUP5 PUSH32 0xCF95BBFE6F870F8CC40482DC3DCCDAFD268F0E9CE0A4F24EA1BEA9BE64E505FF DUP6 DUP6 PUSH1 0x40 MLOAD PUSH2 0x86C SWAP3 SWAP2 SWAP1 PUSH2 0x1235 JUMP JUMPDEST PUSH1 0x40 MLOAD DUP1 SWAP2 SUB SWAP1 LOG2 POP POP POP POP POP JUMP JUMPDEST POP DUP1 SLOAD PUSH2 0x887 SWAP1 PUSH2 0xEEC JUMP JUMPDEST PUSH0 DUP3 SSTORE DUP1 PUSH1 0x1F LT PUSH2 0x898 JUMPI POP PUSH2 0x8B5 JUMP JUMPDEST PUSH1 0x1F ADD PUSH1 0x20 SWAP1 DIV SWAP1 PUSH0 MSTORE PUSH1 0x20 PUSH0 KECCAK256 SWAP1 DUP2 ADD SWAP1 PUSH2 0x8B4 SWAP2 SWAP1 PUSH2 0x8B8 JUMP JUMPDEST JUMPDEST POP JUMP JUMPDEST JUMPDEST DUP1 DUP3 GT ISZERO PUSH2 0x8CF JUMPI PUSH0 DUP2 PUSH0 SWAP1 SSTORE POP PUSH1 0x1 ADD PUSH2 0x8B9 JUMP JUMPDEST POP SWAP1 JUMP JUMPDEST PUSH0 PUSH1 0x40 MLOAD SWAP1 POP SWAP1 JUMP JUMPDEST PUSH0 DUP1 REVERT JUMPDEST PUSH0 DUP1 REVERT JUMPDEST PUSH0 DUP2 SWAP1 POP SWAP2 SWAP1 POP JUMP JUMPDEST PUSH2 0x8F6 DUP2 PUSH2 0x8E4 JUMP JUMPDEST DUP2 EQ PUSH2 0x900 JUMPI PUSH0 DUP1 REVERT JUMPDEST POP JUMP JUMPDEST PUSH0 DUP2 CALLDATALOAD SWAP1 POP PUSH2 0x911 DUP2 PUSH2 0x8ED JUMP JUMPDEST SWAP3 SWAP2 POP POP JUMP JUMPDEST PUSH0 DUP1 PUSH1 0x40 DUP4 DUP6 SUB SLT ISZERO PUSH2 0x92D JUMPI PUSH2 0x92C PUSH2 0x8DC JUMP JUMPDEST JUMPDEST PUSH0 PUSH2 0x93A DUP6 DUP3 DUP7 ADD PUSH2 0x903 JUMP JUMPDEST SWAP3 POP POP PUSH1 0x20 PUSH2 0x94B DUP6 DUP3 DUP7 ADD PUSH2 0x903 JUMP JUMPDEST SWAP2 POP POP SWAP3 POP SWAP3 SWAP1 POP JUMP JUMPDEST PUSH0 DUP2 ISZERO ISZERO SWAP1 POP SWAP2 SWAP1 POP JUMP JUMPDEST PUSH2 0x969 DUP2 PUSH2 0x955 JUMP JUMPDEST DUP3 MSTORE POP POP JUMP JUMPDEST PUSH0 PUSH1 0x20 DUP3 ADD SWAP1 POP PUSH2 0x982 PUSH0 DUP4 ADD DUP5 PUSH2 0x960 JUMP JUMPDEST SWAP3 SWAP2 POP POP JUMP JUMPDEST PUSH0 DUP2 SWAP1 POP SWAP2 SWAP1 POP JUMP JUMPDEST PUSH2 0x99A DUP2 PUSH2 0x988 JUMP JUMPDEST DUP3 MSTORE POP POP JUMP JUMPDEST PUSH0 PUSH1 0x20 DUP3 ADD SWAP1 POP PUSH2 0x9B3 PUSH0 DUP4 ADD DUP5 PUSH2 0x991 JUMP JUMPDEST SWAP3 SWAP2 POP POP JUMP JUMPDEST PUSH0 PUSH20 0xFFFFFFFFFFFFFFFFFFFFFFFFFFFFFFFFFFFFFFFF DUP3 AND SWAP1 POP SWAP2 SWAP1 POP JUMP JUMPDEST PUSH0 PUSH2 0x9E2 DUP3 PUSH2 0x9B9 JUMP JUMPDEST SWAP1 POP SWAP2 SWAP1 POP JUMP JUMPDEST PUSH2 0x9F2 DUP2 PUSH2 0x9D8 JUMP JUMPDEST DUP2 EQ PUSH2 0x9FC JUMPI PUSH0 DUP1 REVERT JUMPDEST POP JUMP JUMPDEST PUSH0 DUP2 CALLDATALOAD SWAP1 POP PUSH2 0xA0D DUP2 PUSH2 0x9E9 JUMP JUMPDEST SWAP3 SWAP2 POP POP JUMP JUMPDEST PUSH0 PUSH1 0x20 DUP3 DUP5 SUB SLT ISZERO PUSH2 0xA28 JUMPI PUSH2 0xA27 PUSH2 0x8DC JUMP JUMPDEST JUMPDEST PUSH0 PUSH2 0xA35 DUP5 DUP3 DUP6 ADD PUSH2 0x9FF JUMP JUMPDEST SWAP2 POP POP SWAP3 SWAP2 POP POP JUMP JUMPDEST PUSH0 DUP1 REVERT JUMPDEST PUSH0 DUP1 REVERT JUMPDEST PUSH0 PUSH1 0x1F NOT PUSH1 0x1F DUP4 ADD AND SWAP1 POP SWAP2 SWAP1 POP JUMP JUMPDEST PUSH32 0x4E487B7100000000000000000000000000000000000000000000000000000000 PUSH0 MSTORE PUSH1 0x41 PUSH1 0x4 MSTORE PUSH1 0x24 PUSH0 REVERT JUMPDEST PUSH2 0xA8C DUP3 PUSH2 0xA46 JUMP JUMPDEST DUP2 ADD DUP2 DUP2 LT PUSH8 0xFFFFFFFFFFFFFFFF DUP3 GT OR ISZERO PUSH2 0xAAB JUMPI PUSH2 0xAAA PUSH2 0xA56 JUMP JUMPDEST JUMPDEST DUP1 PUSH1 0x40 MSTORE POP POP POP JUMP JUMPDEST PUSH0 PUSH2 0xABD PUSH2 0x8D3 JUMP JUMPDEST SWAP1 POP PUSH2 0xAC9 DUP3 DUP3 PUSH2 0xA83 JUMP JUMPDEST SWAP2 SWAP1 POP JUMP JUMPDEST PUSH0 PUSH8 0xFFFFFFFFFFFFFFFF DUP3 GT ISZERO PUSH2 0xAE8 JUMPI PUSH2 0xAE7 PUSH2 0xA56 JUMP JUMPDEST JUMPDEST PUSH2 0xAF1 DUP3 PUSH2 0xA46 JUMP JUMPDEST SWAP1 POP PUSH1 0x20 DUP2 ADD SWAP1 POP SWAP2 SWAP1 POP JUMP JUMPDEST DUP3 DUP2 DUP4 CALLDATACOPY PUSH0 DUP4 DUP4 ADD MSTORE POP POP POP JUMP JUMPDEST PUSH0 PUSH2 0xB1E PUSH2 0xB19 DUP5 PUSH2 0xACE JUMP JUMPDEST PUSH2 0xAB4 JUMP JUMPDEST SWAP1 POP DUP3 DUP2 MSTORE PUSH1 0x20 DUP2 ADD DUP5 DUP5 DUP5 ADD GT ISZERO PUSH2 0xB3A JUMPI PUSH2 0xB39 PUSH2 0xA42 JUMP JUMPDEST JUMPDEST PUSH2 0xB45 DUP5 DUP3 DUP6 PUSH2 0xAFE JUMP JUMPDEST POP SWAP4 SWAP3 POP POP POP JUMP JUMPDEST PUSH0 DUP3 PUSH1 0x1F DUP4 ADD SLT PUSH2 0xB61 JUMPI PUSH2 0xB60 PUSH2 0xA3E JUMP JUMPDEST JUMPDEST DUP2 CALLDATALOAD PUSH2 0xB71 DUP5 DUP3 PUSH1 0x20 DUP7 ADD PUSH2 0xB0C JUMP JUMPDEST SWAP2 POP POP SWAP3 SWAP2 POP POP JUMP JUMPDEST PUSH0 PUSH1 0x20 DUP3 DUP5 SUB SLT ISZERO PUSH2 0xB8F JUMPI PUSH2 0xB8E PUSH2 0x8DC JUMP JUMPDEST JUMPDEST PUSH0 DUP3 ADD CALLDATALOAD PUSH8 0xFFFFFFFFFFFFFFFF DUP2 GT ISZERO PUSH2 0xBAC JUMPI PUSH2 0xBAB PUSH2 0x8E0 JUMP JUMPDEST JUMPDEST PUSH2 0xBB8 DUP5 DUP3 DUP6 ADD PUSH2 0xB4D JUMP JUMPDEST SWAP2 POP POP SWAP3 SWAP2 POP POP JUMP JUMPDEST PUSH2 0xBCA DUP2 PUSH2 0x988 JUMP JUMPDEST DUP2 EQ PUSH2 0xBD4 JUMPI PUSH0 DUP1 REVERT JUMPDEST POP JUMP JUMPDEST PUSH0 DUP2 CALLDATALOAD SWAP1 POP PUSH2 0xBE5 DUP2 PUSH2 0xBC1 JUMP JUMPDEST SWAP3 SWAP2 POP POP JUMP JUMPDEST PUSH0 DUP1 REVERT JUMPDEST PUSH0 DUP1 REVERT JUMPDEST PUSH0 DUP1 DUP4 PUSH1 0x1F DUP5 ADD SLT PUSH2 0xC08 JUMPI PUSH2 0xC07 PUSH2 0xA3E JUMP JUMPDEST JUMPDEST DUP3 CALLDATALOAD SWAP1 POP PUSH8 0xFFFFFFFFFFFFFFFF DUP2 GT ISZERO PUSH2 0xC25 JUMPI PUSH2 0xC24 PUSH2 0xBEB JUMP JUMPDEST JUMPDEST PUSH1 0x20 DUP4 ADD SWAP2 POP DUP4 PUSH1 0x1 DUP3 MUL DUP4 ADD GT ISZERO PUSH2 0xC41 JUMPI PUSH2 0xC40 PUSH2 0xBEF JUMP JUMPDEST JUMPDEST SWAP3 POP SWAP3 SWAP1 POP JUMP JUMPDEST PUSH0 DUP1 PUSH0 PUSH1 0x40 DUP5 DUP7 SUB SLT ISZERO PUSH2 0xC5F JUMPI PUSH2 0xC5E PUSH2 0x8DC JUMP JUMPDEST JUMPDEST PUSH0 PUSH2 0xC6C DUP7 DUP3 DUP8 ADD PUSH2 0xBD7 JUMP JUMPDEST SWAP4 POP POP PUSH1 0x20 DUP5 ADD CALLDATALOAD PUSH8 0xFFFFFFFFFFFFFFFF DUP2 GT ISZERO PUSH2 0xC8D JUMPI PUSH2 0xC8C PUSH2 0x8E0 JUMP JUMPDEST JUMPDEST PUSH2 0xC99 DUP7 DUP3 DUP8 ADD PUSH2 0xBF3 JUMP JUMPDEST SWAP3 POP SWAP3 POP POP SWAP3 POP SWAP3 POP SWAP3 JUMP JUMPDEST PUSH0 PUSH1 0x20 DUP3 DUP5 SUB SLT ISZERO PUSH2 0xCBA JUMPI PUSH2 0xCB9 PUSH2 0x8DC JUMP JUMPDEST JUMPDEST PUSH0 PUSH2 0xCC7 DUP5 DUP3 DUP6 ADD PUSH2 0xBD7 JUMP JUMPDEST SWAP2 POP POP SWAP3 SWAP2 POP POP JUMP JUMPDEST PUSH0 DUP2 MLOAD SWAP1 POP SWAP2 SWAP1 POP JUMP JUMPDEST PUSH0 DUP3 DUP3 MSTORE PUSH1 0x20 DUP3 ADD SWAP1 POP SWAP3 SWAP2 POP POP JUMP JUMPDEST PUSH0 JUMPDEST DUP4 DUP2 LT ISZERO PUSH2 0xD07 JUMPI DUP1 DUP3 ADD MLOAD DUP2 DUP5 ADD MSTORE PUSH1 0x20 DUP2 ADD SWAP1 POP PUSH2 0xCEC JUMP JUMPDEST PUSH0 DUP5 DUP5 ADD MSTORE POP POP POP POP JUMP JUMPDEST PUSH0 PUSH2 0xD1C DUP3 PUSH2 0xCD0 JUMP JUMPDEST PUSH2 0xD26 DUP2 DUP6 PUSH2 0xCDA JUMP JUMPDEST SWAP4 POP PUSH2 0xD36 DUP2 DUP6 PUSH1 0x20 DUP7 ADD PUSH2 0xCEA JUMP JUMPDEST PUSH2 0xD3F DUP2 PUSH2 0xA46 JUMP JUMPDEST DUP5 ADD SWAP2 POP POP SWAP3 SWAP2 POP POP JUMP JUMPDEST PUSH0 PUSH1 0x20 DUP3 ADD SWAP1 POP DUP2 DUP2 SUB PUSH0 DUP4 ADD MSTORE PUSH2 0xD62 DUP2 DUP5 PUSH2 0xD12 JUMP JUMPDEST SWAP1 POP SWAP3 SWAP2 POP POP JUMP JUMPDEST PUSH2 0xD73 DUP2 PUSH2 0x8E4 JUMP JUMPDEST DUP3 MSTORE POP POP JUMP JUMPDEST PUSH0 PUSH1 0x40 DUP3 ADD SWAP1 POP PUSH2 0xD8C PUSH0 DUP4 ADD DUP6 PUSH2 0xD6A JUMP JUMPDEST PUSH2 0xD99 PUSH1 0x20 DUP4 ADD DUP5 PUSH2 0xD6A JUMP JUMPDEST SWAP4 SWAP3 POP POP POP JUMP JUMPDEST PUSH0 DUP2 SWAP1 POP SWAP3 SWAP2 POP POP JUMP JUMPDEST PUSH0 PUSH2 0xDB4 DUP3 PUSH2 0xCD0 JUMP JUMPDEST PUSH2 0xDBE DUP2 DUP6 PUSH2 0xDA0 JUMP JUMPDEST SWAP4 POP PUSH2 0xDCE DUP2 DUP6 PUSH1 0x20 DUP7 ADD PUSH2 0xCEA JUMP JUMPDEST DUP1 DUP5 ADD SWAP2 POP POP SWAP3 SWAP2 POP POP JUMP JUMPDEST PUSH0 PUSH2 0xDE5 DUP3 DUP5 PUSH2 0xDAA JUMP JUMPDEST SWAP2 POP DUP2 SWAP1 POP SWAP3 SWAP2 POP POP JUMP JUMPDEST PUSH32 0x4E487B7100000000000000000000000000000000000000000000000000000000 PUSH0 MSTORE PUSH1 0x11 PUSH1 0x4 MSTORE PUSH1 0x24 PUSH0 REVERT JUMPDEST PUSH0 PUSH2 0xE27 DUP3 PUSH2 0x988 JUMP JUMPDEST SWAP2 POP PUSH2 0xE32 DUP4 PUSH2 0x988 JUMP JUMPDEST SWAP3 POP DUP3 DUP3 SUB SWAP1 POP DUP2 DUP2 GT ISZERO PUSH2 0xE4A JUMPI PUSH2 0xE49 PUSH2 0xDF0 JUMP JUMPDEST JUMPDEST SWAP3 SWAP2 POP POP JUMP JUMPDEST PUSH2 0xE59 DUP2 PUSH2 0x9D8 JUMP JUMPDEST DUP3 MSTORE POP POP JUMP JUMPDEST PUSH0 PUSH1 0x20 DUP3 ADD SWAP1 POP PUSH2 0xE72 PUSH0 DUP4 ADD DUP5 PUSH2 0xE50 JUMP JUMPDEST SWAP3 SWAP2 POP POP JUMP JUMPDEST PUSH0 PUSH2 0xE82 DUP3 PUSH2 0x988 JUMP JUMPDEST SWAP2 POP PUSH32 0xFFFFFFFFFFFFFFFFFFFFFFFFFFFFFFFFFFFFFFFFFFFFFFFFFFFFFFFFFFFFFFFF DUP3 SUB PUSH2 0xEB4 JUMPI PUSH2 0xEB3 PUSH2 0xDF0 JUMP JUMPDEST JUMPDEST PUSH1 0x1 DUP3 ADD SWAP1 POP SWAP2 SWAP1 POP JUMP JUMPDEST PUSH32 0x4E487B7100000000000000000000000000000000000000000000000000000000 PUSH0 MSTORE PUSH1 0x22 PUSH1 0x4 MSTORE PUSH1 0x24 PUSH0 REVERT JUMPDEST PUSH0 PUSH1 0x2 DUP3 DIV SWAP1 POP PUSH1 0x1 DUP3 AND DUP1 PUSH2 0xF03 JUMPI PUSH1 0x7F DUP3 AND SWAP2 POP JUMPDEST PUSH1 0x20 DUP3 LT DUP2 SUB PUSH2 0xF16 JUMPI PUSH2 0xF15 PUSH2 0xEBF JUMP JUMPDEST JUMPDEST POP SWAP2 SWAP1 POP JUMP JUMPDEST PUSH0 DUP2 SWAP1 POP DUP2 PUSH0 MSTORE PUSH1 0x20 PUSH0 KECCAK256 SWAP1 POP SWAP2 SWAP1 POP JUMP JUMPDEST PUSH0 PUSH1 0x20 PUSH1 0x1F DUP4 ADD DIV SWAP1 POP SWAP2 SWAP1 POP JUMP JUMPDEST PUSH0 DUP3 DUP3 SHL SWAP1 POP SWAP3 SWAP2 POP POP JUMP JUMPDEST PUSH0 PUSH1 0x8 DUP4 MUL PUSH2 0xF78 PUSH32 0xFFFFFFFFFFFFFFFFFFFFFFFFFFFFFFFFFFFFFFFFFFFFFFFFFFFFFFFFFFFFFFFF DUP3 PUSH2 0xF3D JUMP JUMPDEST PUSH2 0xF82 DUP7 DUP4 PUSH2 0xF3D JUMP JUMPDEST SWAP6 POP DUP1 NOT DUP5 AND SWAP4 POP DUP1 DUP7 AND DUP5 OR SWAP3 POP POP POP SWAP4 SWAP3 POP POP POP JUMP JUMPDEST PUSH0 DUP2 SWAP1 POP SWAP2 SWAP1 POP JUMP JUMPDEST PUSH0 PUSH2 0xFBD PUSH2 0xFB8 PUSH2 0xFB3 DUP5 PUSH2 0x988 JUMP JUMPDEST PUSH2 0xF9A JUMP JUMPDEST PUSH2 0x988 JUMP JUMPDEST SWAP1 POP SWAP2 SWAP1 POP JUMP JUMPDEST PUSH0 DUP2 SWAP1 POP SWAP2 SWAP1 POP JUMP JUMPDEST PUSH2 0xFD6 DUP4 PUSH2 0xFA3 JUMP JUMPDEST PUSH2 0xFEA PUSH2 0xFE2 DUP3 PUSH2 0xFC4 JUMP JUMPDEST DUP5 DUP5 SLOAD PUSH2 0xF49 JUMP JUMPDEST DUP3 SSTORE POP POP POP POP JUMP JUMPDEST PUSH0 SWAP1 JUMP JUMPDEST PUSH2 0xFFE PUSH2 0xFF2 JUMP JUMPDEST PUSH2 0x1009 DUP2 DUP5 DUP5 PUSH2 0xFCD JUMP JUMPDEST POP POP POP JUMP JUMPDEST JUMPDEST DUP2 DUP2 LT ISZERO PUSH2 0x102C JUMPI PUSH2 0x1021 PUSH0 DUP3 PUSH2 0xFF6 JUMP JUMPDEST PUSH1 0x1 DUP2 ADD SWAP1 POP PUSH2 0x100F JUMP JUMPDEST POP POP JUMP JUMPDEST PUSH1 0x1F DUP3 GT ISZERO PUSH2 0x1071 JUMPI PUSH2 0x1042 DUP2 PUSH2 0xF1C JUMP JUMPDEST PUSH2 0x104B DUP5 PUSH2 0xF2E JUMP JUMPDEST DUP2 ADD PUSH1 0x20 DUP6 LT ISZERO PUSH2 0x105A JUMPI DUP2 SWAP1 POP JUMPDEST PUSH2 0x106E PUSH2 0x1066 DUP6 PUSH2 0xF2E JUMP JUMPDEST DUP4 ADD DUP3 PUSH2 0x100E JUMP JUMPDEST POP POP JUMPDEST POP POP POP JUMP JUMPDEST PUSH0 DUP3 DUP3 SHR SWAP1 POP SWAP3 SWAP2 POP POP JUMP JUMPDEST PUSH0 PUSH2 0x1091 PUSH0 NOT DUP5 PUSH1 0x8 MUL PUSH2 0x1076 JUMP JUMPDEST NOT DUP1 DUP4 AND SWAP2 POP POP SWAP3 SWAP2 POP POP JUMP JUMPDEST PUSH0 PUSH2 0x10A9 DUP4 DUP4 PUSH2 0x1082 JUMP JUMPDEST SWAP2 POP DUP3 PUSH1 0x2 MUL DUP3 OR SWAP1 POP SWAP3 SWAP2 POP POP JUMP JUMPDEST PUSH2 0x10C2 DUP3 PUSH2 0xCD0 JUMP JUMPDEST PUSH8 0xFFFFFFFFFFFFFFFF DUP2 GT ISZERO PUSH2 0x10DB JUMPI PUSH2 0x10DA PUSH2 0xA56 JUMP JUMPDEST JUMPDEST PUSH2 0x10E5 DUP3 SLOAD PUSH2 0xEEC JUMP JUMPDEST PUSH2 0x10F0 DUP3 DUP3 DUP6 PUSH2 0x1030 JUMP JUMPDEST PUSH0 PUSH1 0x20 SWAP1 POP PUSH1 0x1F DUP4 GT PUSH1 0x1 DUP2 EQ PUSH2 0x1121 JUMPI PUSH0 DUP5 ISZERO PUSH2 0x110F JUMPI DUP3 DUP8 ADD MLOAD SWAP1 POP JUMPDEST PUSH2 0x1119 DUP6 DUP3 PUSH2 0x109E JUMP JUMPDEST DUP7 SSTORE POP PUSH2 0x1180 JUMP JUMPDEST PUSH1 0x1F NOT DUP5 AND PUSH2 0x112F DUP7 PUSH2 0xF1C JUMP JUMPDEST PUSH0 JUMPDEST DUP3 DUP2 LT ISZERO PUSH2 0x1156 JUMPI DUP5 DUP10 ADD MLOAD DUP3 SSTORE PUSH1 0x1 DUP3 ADD SWAP2 POP PUSH1 0x20 DUP6 ADD SWAP5 POP PUSH1 0x20 DUP2 ADD SWAP1 POP PUSH2 0x1131 JUMP JUMPDEST DUP7 DUP4 LT ISZERO PUSH2 0x1173 JUMPI DUP5 DUP10 ADD MLOAD PUSH2 0x116F PUSH1 0x1F DUP10 AND DUP3 PUSH2 0x1082 JUMP JUMPDEST DUP4 SSTORE POP JUMPDEST PUSH1 0x1 PUSH1 0x2 DUP9 MUL ADD DUP9 SSTORE POP POP POP JUMPDEST POP POP POP POP POP POP JUMP JUMPDEST PUSH0 PUSH2 0x1193 DUP4 DUP6 PUSH2 0xDA0 JUMP JUMPDEST SWAP4 POP PUSH2 0x11A0 DUP4 DUP6 DUP5 PUSH2 0xAFE JUMP JUMPDEST DUP3 DUP5 ADD SWAP1 POP SWAP4 SWAP3 POP POP POP JUMP JUMPDEST PUSH0 PUSH2 0x11B8 DUP3 DUP5 DUP7 PUSH2 0x1188 JUMP JUMPDEST SWAP2 POP DUP2 SWAP1 POP SWAP4 SWAP3 POP POP POP JUMP JUMPDEST PUSH0 PUSH2 0x11CF DUP4 DUP6 PUSH2 0xCDA JUMP JUMPDEST SWAP4 POP PUSH2 0x11DC DUP4 DUP6 DUP5 PUSH2 0xAFE JUMP JUMPDEST PUSH2 0x11E5 DUP4 PUSH2 0xA46 JUMP JUMPDEST DUP5 ADD SWAP1 POP SWAP4 SWAP3 POP POP POP JUMP JUMPDEST PUSH0 PUSH1 0x60 DUP3 ADD SWAP1 POP PUSH2 0x1203 PUSH0 DUP4 ADD DUP8 PUSH2 0x991 JUMP JUMPDEST DUP2 DUP2 SUB PUSH1 0x20 DUP4 ADD MSTORE PUSH2 0x1216 DUP2 DUP6 DUP8 PUSH2 0x11C4 JUMP JUMPDEST SWAP1 POP DUP2 DUP2 SUB PUSH1 0x40 DUP4 ADD MSTORE PUSH2 0x122A DUP2 DUP5 PUSH2 0xD12 JUMP JUMPDEST SWAP1 POP SWAP6 SWAP5 POP POP POP POP POP JUMP JUMPDEST PUSH0 PUSH1 0x20 DUP3 ADD SWAP1 POP DUP2 DUP2 SUB PUSH0 DUP4 ADD MSTORE PUSH2 0x124E DUP2 DUP5 DUP7 PUSH2 0x11C4 JUMP JUMPDEST SWAP1 POP SWAP4 SWAP3 POP POP POP JUMP INVALID LOG2 PUSH5 0x6970667358 0x22 SLT KECCAK256 0xA8 0xC3 LOG4 0xC5 MOD CALLCODE PC ADD 0xF8 SWAP1 CALLVALUE GAS 0xEA 0xC5 0x4E PUSH22 0x4D96754B8FC2B14BF401DCCFE8F1B1F564736F6C6343 STOP ADDMOD OR STOP CALLER "
		},
		"gasEstimates": {
			"creation": {
				"codeDepositCost": "949800",
				"executionCost": "986",
				"totalCost": "950786"
			},
			"external": {
				"addOwnerAddress(address)": "infinite",
				"addOwnerPublicKey(bytes32,bytes32)": "infinite",
				"isOwnerAddress(address)": "infinite",
				"isOwnerBytes(bytes)": "infinite",
				"isOwnerPublicKey(bytes32,bytes32)": "infinite",
				"nextOwnerIndex()": "2581",
				"ownerAtIndex(uint256)": "infinite",
				"ownerCount()": "infinite",
				"removeLastOwner(uint256,bytes)": "infinite",
				"removeOwnerAtIndex(uint256,bytes)": "infinite",
				"removedOwnersCount()": "2472"
			},
			"internal": {
				"_addOwnerAtIndex(bytes memory,uint256)": "infinite",
				"_checkOwner()": "infinite",
				"_getMultiOwnableStorage()": "22",
				"_initializeOwners(bytes memory[] memory)": "infinite",
				"_removeOwnerAtIndex(uint256,bytes calldata)": "infinite"
			}
		},
		"methodIdentifiers": {
			"addOwnerAddress(address)": "0f0f3f24",
			"addOwnerPublicKey(bytes32,bytes32)": "29565e3b",
			"isOwnerAddress(address)": "a2e1a8d8",
			"isOwnerBytes(bytes)": "1ca5393f",
			"isOwnerPublicKey(bytes32,bytes32)": "066a1eb7",
			"nextOwnerIndex()": "d948fd2e",
			"ownerAtIndex(uint256)": "8ea69029",
			"ownerCount()": "0db02622",
			"removeLastOwner(uint256,bytes)": "b8197367",
			"removeOwnerAtIndex(uint256,bytes)": "89625b57",
			"removedOwnersCount()": "36d9cf9b"
		}
	},
	"abi": [
		{
			"inputs": [
				{
					"internalType": "bytes",
					"name": "owner",
					"type": "bytes"
				}
			],
			"name": "AlreadyOwner",
			"type": "error"
		},
		{
			"inputs": [
				{
					"internalType": "bytes",
					"name": "owner",
					"type": "bytes"
				}
			],
			"name": "InvalidEthereumAddressOwner",
			"type": "error"
		},
		{
			"inputs": [
				{
					"internalType": "bytes",
					"name": "owner",
					"type": "bytes"
				}
			],
			"name": "InvalidOwnerBytesLength",
			"type": "error"
		},
		{
			"inputs": [],
			"name": "LastOwner",
			"type": "error"
		},
		{
			"inputs": [
				{
					"internalType": "uint256",
					"name": "index",
					"type": "uint256"
				}
			],
			"name": "NoOwnerAtIndex",
			"type": "error"
		},
		{
			"inputs": [
				{
					"internalType": "uint256",
					"name": "ownersRemaining",
					"type": "uint256"
				}
			],
			"name": "NotLastOwner",
			"type": "error"
		},
		{
			"inputs": [],
			"name": "Unauthorized",
			"type": "error"
		},
		{
			"inputs": [
				{
					"internalType": "uint256",
					"name": "index",
					"type": "uint256"
				},
				{
					"internalType": "bytes",
					"name": "expectedOwner",
					"type": "bytes"
				},
				{
					"internalType": "bytes",
					"name": "actualOwner",
					"type": "bytes"
				}
			],
			"name": "WrongOwnerAtIndex",
			"type": "error"
		},
		{
			"anonymous": false,
			"inputs": [
				{
					"indexed": true,
					"internalType": "uint256",
					"name": "index",
					"type": "uint256"
				},
				{
					"indexed": false,
					"internalType": "bytes",
					"name": "owner",
					"type": "bytes"
				}
			],
			"name": "AddOwner",
			"type": "event"
		},
		{
			"anonymous": false,
			"inputs": [
				{
					"indexed": true,
					"internalType": "uint256",
					"name": "index",
					"type": "uint256"
				},
				{
					"indexed": false,
					"internalType": "bytes",
					"name": "owner",
					"type": "bytes"
				}
			],
			"name": "RemoveOwner",
			"type": "event"
		},
		{
			"inputs": [
				{
					"internalType": "address",
					"name": "owner",
					"type": "address"
				}
			],
			"name": "addOwnerAddress",
			"outputs": [],
			"stateMutability": "nonpayable",
			"type": "function"
		},
		{
			"inputs": [
				{
					"internalType": "bytes32",
					"name": "x",
					"type": "bytes32"
				},
				{
					"internalType": "bytes32",
					"name": "y",
					"type": "bytes32"
				}
			],
			"name": "addOwnerPublicKey",
			"outputs": [],
			"stateMutability": "nonpayable",
			"type": "function"
		},
		{
			"inputs": [
				{
					"internalType": "address",
					"name": "account",
					"type": "address"
				}
			],
			"name": "isOwnerAddress",
			"outputs": [
				{
					"internalType": "bool",
					"name": "",
					"type": "bool"
				}
			],
			"stateMutability": "view",
			"type": "function"
		},
		{
			"inputs": [
				{
					"internalType": "bytes",
					"name": "account",
					"type": "bytes"
				}
			],
			"name": "isOwnerBytes",
			"outputs": [
				{
					"internalType": "bool",
					"name": "",
					"type": "bool"
				}
			],
			"stateMutability": "view",
			"type": "function"
		},
		{
			"inputs": [
				{
					"internalType": "bytes32",
					"name": "x",
					"type": "bytes32"
				},
				{
					"internalType": "bytes32",
					"name": "y",
					"type": "bytes32"
				}
			],
			"name": "isOwnerPublicKey",
			"outputs": [
				{
					"internalType": "bool",
					"name": "",
					"type": "bool"
				}
			],
			"stateMutability": "view",
			"type": "function"
		},
		{
			"inputs": [],
			"name": "nextOwnerIndex",
			"outputs": [
				{
					"internalType": "uint256",
					"name": "",
					"type": "uint256"
				}
			],
			"stateMutability": "view",
			"type": "function"
		},
		{
			"inputs": [
				{
					"internalType": "uint256",
					"name": "index",
					"type": "uint256"
				}
			],
			"name": "ownerAtIndex",
			"outputs": [
				{
					"internalType": "bytes",
					"name": "",
					"type": "bytes"
				}
			],
			"stateMutability": "view",
			"type": "function"
		},
		{
			"inputs": [],
			"name": "ownerCount",
			"outputs": [
				{
					"internalType": "uint256",
					"name": "",
					"type": "uint256"
				}
			],
			"stateMutability": "view",
			"type": "function"
		},
		{
			"inputs": [
				{
					"internalType": "uint256",
					"name": "index",
					"type": "uint256"
				},
				{
					"internalType": "bytes",
					"name": "owner",
					"type": "bytes"
				}
			],
			"name": "removeLastOwner",
			"outputs": [],
			"stateMutability": "nonpayable",
			"type": "function"
		},
		{
			"inputs": [
				{
					"internalType": "uint256",
					"name": "index",
					"type": "uint256"
				},
				{
					"internalType": "bytes",
					"name": "owner",
					"type": "bytes"
				}
			],
			"name": "removeOwnerAtIndex",
			"outputs": [],
			"stateMutability": "nonpayable",
			"type": "function"
		},
		{
			"inputs": [],
			"name": "removedOwnersCount",
			"outputs": [
				{
					"internalType": "uint256",
					"name": "",
					"type": "uint256"
				}
			],
			"stateMutability": "view",
			"type": "function"
		}
	]
}