{
  "_format": "hh-sol-artifact-1",
  "contractName": "TitleDeedTokenization",
  "sourceName": "contracts/tokenize.sol",
  "abi": [
    {
      "inputs": [
        {
          "internalType": "address",
          "name": "initialOwner",
          "type": "address"
        }
      ],
      "stateMutability": "nonpayable",
      "type": "constructor"
    },
    {
      "inputs": [
        {
          "internalType": "address",
          "name": "sender",
          "type": "address"
        },
        {
          "internalType": "uint256",
          "name": "tokenId",
          "type": "uint256"
        },
        {
          "internalType": "address",
          "name": "owner",
          "type": "address"
        }
      ],
      "name": "ERC721IncorrectOwner",
      "type": "error"
    },
    {
      "inputs": [
        {
          "internalType": "address",
          "name": "operator",
          "type": "address"
        },
        {
          "internalType": "uint256",
          "name": "tokenId",
          "type": "uint256"
        }
      ],
      "name": "ERC721InsufficientApproval",
      "type": "error"
    },
    {
      "inputs": [
        {
          "internalType": "address",
          "name": "approver",
          "type": "address"
        }
      ],
      "name": "ERC721InvalidApprover",
      "type": "error"
    },
    {
      "inputs": [
        {
          "internalType": "address",
          "name": "operator",
          "type": "address"
        }
      ],
      "name": "ERC721InvalidOperator",
      "type": "error"
    },
    {
      "inputs": [
        {
          "internalType": "address",
          "name": "owner",
          "type": "address"
        }
      ],
      "name": "ERC721InvalidOwner",
      "type": "error"
    },
    {
      "inputs": [
        {
          "internalType": "address",
          "name": "receiver",
          "type": "address"
        }
      ],
      "name": "ERC721InvalidReceiver",
      "type": "error"
    },
    {
      "inputs": [
        {
          "internalType": "address",
          "name": "sender",
          "type": "address"
        }
      ],
      "name": "ERC721InvalidSender",
      "type": "error"
    },
    {
      "inputs": [
        {
          "internalType": "uint256",
          "name": "tokenId",
          "type": "uint256"
        }
      ],
      "name": "ERC721NonexistentToken",
      "type": "error"
    },
    {
      "inputs": [
        {
          "internalType": "address",
          "name": "owner",
          "type": "address"
        }
      ],
      "name": "OwnableInvalidOwner",
      "type": "error"
    },
    {
      "inputs": [
        {
          "internalType": "address",
          "name": "account",
          "type": "address"
        }
      ],
      "name": "OwnableUnauthorizedAccount",
      "type": "error"
    },
    {
      "anonymous": false,
      "inputs": [
        {
          "indexed": true,
          "internalType": "address",
          "name": "owner",
          "type": "address"
        },
        {
          "indexed": true,
          "internalType": "address",
          "name": "approved",
          "type": "address"
        },
        {
          "indexed": true,
          "internalType": "uint256",
          "name": "tokenId",
          "type": "uint256"
        }
      ],
      "name": "Approval",
      "type": "event"
    },
    {
      "anonymous": false,
      "inputs": [
        {
          "indexed": true,
          "internalType": "address",
          "name": "owner",
          "type": "address"
        },
        {
          "indexed": true,
          "internalType": "address",
          "name": "operator",
          "type": "address"
        },
        {
          "indexed": false,
          "internalType": "bool",
          "name": "approved",
          "type": "bool"
        }
      ],
      "name": "ApprovalForAll",
      "type": "event"
    },
    {
      "anonymous": false,
      "inputs": [
        {
          "indexed": true,
          "internalType": "address",
          "name": "previousOwner",
          "type": "address"
        },
        {
          "indexed": true,
          "internalType": "address",
          "name": "newOwner",
          "type": "address"
        }
      ],
      "name": "OwnershipTransferred",
      "type": "event"
    },
    {
      "anonymous": false,
      "inputs": [
        {
          "indexed": true,
          "internalType": "address",
          "name": "from",
          "type": "address"
        },
        {
          "indexed": true,
          "internalType": "address",
          "name": "to",
          "type": "address"
        },
        {
          "indexed": true,
          "internalType": "uint256",
          "name": "tokenId",
          "type": "uint256"
        }
      ],
      "name": "Transfer",
      "type": "event"
    },
    {
      "inputs": [
        {
          "internalType": "address",
          "name": "to",
          "type": "address"
        },
        {
          "internalType": "uint256",
          "name": "tokenId",
          "type": "uint256"
        }
      ],
      "name": "approve",
      "outputs": [],
      "stateMutability": "nonpayable",
      "type": "function"
    },
    {
      "inputs": [
        {
          "internalType": "address",
          "name": "owner",
          "type": "address"
        }
      ],
      "name": "balanceOf",
      "outputs": [
        {
          "internalType": "uint256",
          "name": "",
          "type": "uint256"
        }
      ],
      "stateMutability": "view",
      "type": "function"
    },
    {
      "inputs": [
        {
          "internalType": "uint256",
          "name": "tokenId",
          "type": "uint256"
        }
      ],
      "name": "burnToken",
      "outputs": [],
      "stateMutability": "nonpayable",
      "type": "function"
    },
    {
      "inputs": [
        {
          "internalType": "uint256",
          "name": "tokenId",
          "type": "uint256"
        }
      ],
      "name": "getApproved",
      "outputs": [
        {
          "internalType": "address",
          "name": "",
          "type": "address"
        }
      ],
      "stateMutability": "view",
      "type": "function"
    },
    {
      "inputs": [
        {
          "internalType": "uint256",
          "name": "tokenId",
          "type": "uint256"
        }
      ],
      "name": "getDocumentHash",
      "outputs": [
        {
          "internalType": "string",
          "name": "",
          "type": "string"
        }
      ],
      "stateMutability": "view",
      "type": "function"
    },
    {
      "inputs": [
        {
          "internalType": "address",
          "name": "owner",
          "type": "address"
        },
        {
          "internalType": "address",
          "name": "operator",
          "type": "address"
        }
      ],
      "name": "isApprovedForAll",
      "outputs": [
        {
          "internalType": "bool",
          "name": "",
          "type": "bool"
        }
      ],
      "stateMutability": "view",
      "type": "function"
    },
    {
      "inputs": [
        {
          "internalType": "address",
          "name": "to",
          "type": "address"
        },
        {
          "internalType": "string",
          "name": "documentHash",
          "type": "string"
        }
      ],
      "name": "mintToken",
      "outputs": [],
      "stateMutability": "nonpayable",
      "type": "function"
    },
    {
      "inputs": [],
      "name": "name",
      "outputs": [
        {
          "internalType": "string",
          "name": "",
          "type": "string"
        }
      ],
      "stateMutability": "view",
      "type": "function"
    },
    {
      "inputs": [],
      "name": "nextTokenId",
      "outputs": [
        {
          "internalType": "uint256",
          "name": "",
          "type": "uint256"
        }
      ],
      "stateMutability": "view",
      "type": "function"
    },
    {
      "inputs": [],
      "name": "owner",
      "outputs": [
        {
          "internalType": "address",
          "name": "",
          "type": "address"
        }
      ],
      "stateMutability": "view",
      "type": "function"
    },
    {
      "inputs": [
        {
          "internalType": "uint256",
          "name": "tokenId",
          "type": "uint256"
        }
      ],
      "name": "ownerOf",
      "outputs": [
        {
          "internalType": "address",
          "name": "",
          "type": "address"
        }
      ],
      "stateMutability": "view",
      "type": "function"
    },
    {
      "inputs": [],
      "name": "renounceOwnership",
      "outputs": [],
      "stateMutability": "nonpayable",
      "type": "function"
    },
    {
      "inputs": [
        {
          "internalType": "address",
          "name": "from",
          "type": "address"
        },
        {
          "internalType": "address",
          "name": "to",
          "type": "address"
        },
        {
          "internalType": "uint256",
          "name": "tokenId",
          "type": "uint256"
        }
      ],
      "name": "safeTransferFrom",
      "outputs": [],
      "stateMutability": "nonpayable",
      "type": "function"
    },
    {
      "inputs": [
        {
          "internalType": "address",
          "name": "from",
          "type": "address"
        },
        {
          "internalType": "address",
          "name": "to",
          "type": "address"
        },
        {
          "internalType": "uint256",
          "name": "tokenId",
          "type": "uint256"
        },
        {
          "internalType": "bytes",
          "name": "data",
          "type": "bytes"
        }
      ],
      "name": "safeTransferFrom",
      "outputs": [],
      "stateMutability": "nonpayable",
      "type": "function"
    },
    {
      "inputs": [
        {
          "internalType": "address",
          "name": "operator",
          "type": "address"
        },
        {
          "internalType": "bool",
          "name": "approved",
          "type": "bool"
        }
      ],
      "name": "setApprovalForAll",
      "outputs": [],
      "stateMutability": "nonpayable",
      "type": "function"
    },
    {
      "inputs": [
        {
          "internalType": "bytes4",
          "name": "interfaceId",
          "type": "bytes4"
        }
      ],
      "name": "supportsInterface",
      "outputs": [
        {
          "internalType": "bool",
          "name": "",
          "type": "bool"
        }
      ],
      "stateMutability": "view",
      "type": "function"
    },
    {
      "inputs": [],
      "name": "symbol",
      "outputs": [
        {
          "internalType": "string",
          "name": "",
          "type": "string"
        }
      ],
      "stateMutability": "view",
      "type": "function"
    },
    {
      "inputs": [
        {
          "internalType": "uint256",
          "name": "",
          "type": "uint256"
        }
      ],
      "name": "tokenDocumentHashes",
      "outputs": [
        {
          "internalType": "string",
          "name": "",
          "type": "string"
        }
      ],
      "stateMutability": "view",
      "type": "function"
    },
    {
      "inputs": [
        {
          "internalType": "uint256",
          "name": "tokenId",
          "type": "uint256"
        }
      ],
      "name": "tokenURI",
      "outputs": [
        {
          "internalType": "string",
          "name": "",
          "type": "string"
        }
      ],
      "stateMutability": "view",
      "type": "function"
    },
    {
      "inputs": [
        {
          "internalType": "address",
          "name": "from",
          "type": "address"
        },
        {
          "internalType": "address",
          "name": "to",
          "type": "address"
        },
        {
          "internalType": "uint256",
          "name": "tokenId",
          "type": "uint256"
        }
      ],
      "name": "transferFrom",
      "outputs": [],
      "stateMutability": "nonpayable",
      "type": "function"
    },
    {
      "inputs": [
        {
          "internalType": "address",
          "name": "newOwner",
          "type": "address"
        }
      ],
      "name": "transferOwnership",
      "outputs": [],
      "stateMutability": "nonpayable",
      "type": "function"
    }
  ],
  "bytecode": "0x608060405234801561001057600080fd5b50604051612e9e380380612e9e83398181016040528101906100329190610272565b806040518060400160405280600e81526020017f5469746c6544656564546f6b656e0000000000000000000000000000000000008152506040518060400160405280600381526020017f544454000000000000000000000000000000000000000000000000000000000081525081600090816100ae91906104ef565b5080600190816100be91906104ef565b505050600073ffffffffffffffffffffffffffffffffffffffff168173ffffffffffffffffffffffffffffffffffffffff16036101335760006040517f1e4fbdf700000000000000000000000000000000000000000000000000000000815260040161012a91906105d0565b60405180910390fd5b6101428161014960201b60201c565b50506105eb565b6000600660009054906101000a900473ffffffffffffffffffffffffffffffffffffffff16905081600660006101000a81548173ffffffffffffffffffffffffffffffffffffffff021916908373ffffffffffffffffffffffffffffffffffffffff1602179055508173ffffffffffffffffffffffffffffffffffffffff168173ffffffffffffffffffffffffffffffffffffffff167f8be0079c531659141344cd1fd0a4f28419497f9722a3daafe3b4186f6b6457e060405160405180910390a35050565b600080fd5b600073ffffffffffffffffffffffffffffffffffffffff82169050919050565b600061023f82610214565b9050919050565b61024f81610234565b811461025a57600080fd5b50565b60008151905061026c81610246565b92915050565b6000602082840312156102885761028761020f565b5b60006102968482850161025d565b91505092915050565b600081519050919050565b7f4e487b7100000000000000000000000000000000000000000000000000000000600052604160045260246000fd5b7f4e487b7100000000000000000000000000000000000000000000000000000000600052602260045260246000fd5b6000600282049050600182168061032057607f821691505b602082108103610333576103326102d9565b5b50919050565b60008190508160005260206000209050919050565b60006020601f8301049050919050565b600082821b905092915050565b60006008830261039b7fffffffffffffffffffffffffffffffffffffffffffffffffffffffffffffffff8261035e565b6103a5868361035e565b95508019841693508086168417925050509392505050565b6000819050919050565b6000819050919050565b60006103ec6103e76103e2846103bd565b6103c7565b6103bd565b9050919050565b6000819050919050565b610406836103d1565b61041a610412826103f3565b84845461036b565b825550505050565b600090565b61042f610422565b61043a8184846103fd565b505050565b5b8181101561045e57610453600082610427565b600181019050610440565b5050565b601f8211156104a35761047481610339565b61047d8461034e565b8101602085101561048c578190505b6104a06104988561034e565b83018261043f565b50505b505050565b600082821c905092915050565b60006104c6600019846008026104a8565b1980831691505092915050565b60006104df83836104b5565b9150826002028217905092915050565b6104f88261029f565b67ffffffffffffffff811115610511576105106102aa565b5b61051b8254610308565b610526828285610462565b600060209050601f8311600181146105595760008415610547578287015190505b61055185826104d3565b8655506105b9565b601f19841661056786610339565b60005b8281101561058f5784890151825560018201915060208501945060208101905061056a565b868310156105ac57848901516105a8601f8916826104b5565b8355505b6001600288020188555050505b505050505050565b6105ca81610234565b82525050565b60006020820190506105e560008301846105c1565b92915050565b6128a4806105fa6000396000f3fe608060405234801561001057600080fd5b50600436106101375760003560e01c806375794a3c116100b857806395d89b411161007c57806395d89b411461034c578063a22cb4651461036a578063b88d4fde14610386578063c87b56dd146103a2578063e985e9c5146103d2578063f2fde38b1461040257610137565b806375794a3c146102945780637b47ec1a146102b257806380964805146102ce5780638796ec86146102fe5780638da5cb5b1461032e57610137565b80633d02d0c9116100ff5780633d02d0c9146101f257806342842e0e1461020e5780636352211e1461022a57806370a082311461025a578063715018a61461028a57610137565b806301ffc9a71461013c57806306fdde031461016c578063081812fc1461018a578063095ea7b3146101ba57806323b872dd146101d6575b600080fd5b61015660048036038101906101519190611c90565b61041e565b6040516101639190611cd8565b60405180910390f35b610174610500565b6040516101819190611d83565b60405180910390f35b6101a4600480360381019061019f9190611ddb565b610592565b6040516101b19190611e49565b60405180910390f35b6101d460048036038101906101cf9190611e90565b6105ae565b005b6101f060048036038101906101eb9190611ed0565b6105c4565b005b61020c60048036038101906102079190612058565b6106c6565b005b61022860048036038101906102239190611ed0565b61071d565b005b610244600480360381019061023f9190611ddb565b61073d565b6040516102519190611e49565b60405180910390f35b610274600480360381019061026f91906120b4565b61074f565b60405161028191906120f0565b60405180910390f35b610292610809565b005b61029c61081d565b6040516102a991906120f0565b60405180910390f35b6102cc60048036038101906102c79190611ddb565b610823565b005b6102e860048036038101906102e39190611ddb565b6108a9565b6040516102f59190611d83565b60405180910390f35b61031860048036038101906103139190611ddb565b610949565b6040516103259190611d83565b60405180910390f35b610336610a41565b6040516103439190611e49565b60405180910390f35b610354610a6b565b6040516103619190611d83565b60405180910390f35b610384600480360381019061037f9190612137565b610afd565b005b6103a0600480360381019061039b9190612218565b610b13565b005b6103bc60048036038101906103b79190611ddb565b610b30565b6040516103c99190611d83565b60405180910390f35b6103ec60048036038101906103e7919061229b565b610b99565b6040516103f99190611cd8565b60405180910390f35b61041c600480360381019061041791906120b4565b610c2d565b005b60007f80ac58cd000000000000000000000000000000000000000000000000000000007bffffffffffffffffffffffffffffffffffffffffffffffffffffffff1916827bffffffffffffffffffffffffffffffffffffffffffffffffffffffff191614806104e957507f5b5e139f000000000000000000000000000000000000000000000000000000007bffffffffffffffffffffffffffffffffffffffffffffffffffffffff1916827bffffffffffffffffffffffffffffffffffffffffffffffffffffffff1916145b806104f957506104f882610cb3565b5b9050919050565b60606000805461050f9061230a565b80601f016020809104026020016040519081016040528092919081815260200182805461053b9061230a565b80156105885780601f1061055d57610100808354040283529160200191610588565b820191906000526020600020905b81548152906001019060200180831161056b57829003601f168201915b5050505050905090565b600061059d82610d1d565b506105a782610da5565b9050919050565b6105c082826105bb610de2565b610dea565b5050565b600073ffffffffffffffffffffffffffffffffffffffff168273ffffffffffffffffffffffffffffffffffffffff16036106365760006040517f64a0ae9200000000000000000000000000000000000000000000000000000000815260040161062d9190611e49565b60405180910390fd5b600061064a8383610645610de2565b610dfc565b90508373ffffffffffffffffffffffffffffffffffffffff168173ffffffffffffffffffffffffffffffffffffffff16146106c0578382826040517f64283d7b0000000000000000000000000000000000000000000000000000000081526004016106b79392919061233b565b60405180910390fd5b50505050565b6106ce611016565b60006007549050600760008154809291906106e8906123a1565b91905055506106f7838261109d565b816008600083815260200190815260200160002090816107179190612595565b50505050565b61073883838360405180602001604052806000815250610b13565b505050565b600061074882610d1d565b9050919050565b60008073ffffffffffffffffffffffffffffffffffffffff168273ffffffffffffffffffffffffffffffffffffffff16036107c25760006040517f89c62b640000000000000000000000000000000000000000000000000000000081526004016107b99190611e49565b60405180910390fd5b600360008373ffffffffffffffffffffffffffffffffffffffff1673ffffffffffffffffffffffffffffffffffffffff168152602001908152602001600020549050919050565b610811611016565b61081b6000611196565b565b60075481565b61082b611016565b600061083e6108398361073d565b61074f565b1161087e576040517f08c379a0000000000000000000000000000000000000000000000000000000008152600401610875906126b3565b60405180910390fd5b6108878161125c565b6008600082815260200190815260200160002060006108a69190611bc7565b50565b600860205280600052604060002060009150905080546108c89061230a565b80601f01602080910402602001604051908101604052809291908181526020018280546108f49061230a565b80156109415780601f1061091657610100808354040283529160200191610941565b820191906000526020600020905b81548152906001019060200180831161092457829003601f168201915b505050505081565b6060600061095e6109598461073d565b61074f565b1161099e576040517f08c379a0000000000000000000000000000000000000000000000000000000008152600401610995906126b3565b60405180910390fd5b6008600083815260200190815260200160002080546109bc9061230a565b80601f01602080910402602001604051908101604052809291908181526020018280546109e89061230a565b8015610a355780601f10610a0a57610100808354040283529160200191610a35565b820191906000526020600020905b815481529060010190602001808311610a1857829003601f168201915b50505050509050919050565b6000600660009054906101000a900473ffffffffffffffffffffffffffffffffffffffff16905090565b606060018054610a7a9061230a565b80601f0160208091040260200160405190810160405280929190818152602001828054610aa69061230a565b8015610af35780601f10610ac857610100808354040283529160200191610af3565b820191906000526020600020905b815481529060010190602001808311610ad657829003601f168201915b5050505050905090565b610b0f610b08610de2565b83836112e2565b5050565b610b1e8484846105c4565b610b2a84848484611451565b50505050565b6060610b3b82610d1d565b506000610b46611608565b90506000815111610b665760405180602001604052806000815250610b91565b80610b708461161f565b604051602001610b8192919061270f565b6040516020818303038152906040525b915050919050565b6000600560008473ffffffffffffffffffffffffffffffffffffffff1673ffffffffffffffffffffffffffffffffffffffff16815260200190815260200160002060008373ffffffffffffffffffffffffffffffffffffffff1673ffffffffffffffffffffffffffffffffffffffff16815260200190815260200160002060009054906101000a900460ff16905092915050565b610c35611016565b600073ffffffffffffffffffffffffffffffffffffffff168173ffffffffffffffffffffffffffffffffffffffff1603610ca75760006040517f1e4fbdf7000000000000000000000000000000000000000000000000000000008152600401610c9e9190611e49565b60405180910390fd5b610cb081611196565b50565b60007f01ffc9a7000000000000000000000000000000000000000000000000000000007bffffffffffffffffffffffffffffffffffffffffffffffffffffffff1916827bffffffffffffffffffffffffffffffffffffffffffffffffffffffff1916149050919050565b600080610d29836116ed565b9050600073ffffffffffffffffffffffffffffffffffffffff168173ffffffffffffffffffffffffffffffffffffffff1603610d9c57826040517f7e273289000000000000000000000000000000000000000000000000000000008152600401610d9391906120f0565b60405180910390fd5b80915050919050565b60006004600083815260200190815260200160002060009054906101000a900473ffffffffffffffffffffffffffffffffffffffff169050919050565b600033905090565b610df7838383600161172a565b505050565b600080610e08846116ed565b9050600073ffffffffffffffffffffffffffffffffffffffff168373ffffffffffffffffffffffffffffffffffffffff1614610e4a57610e498184866118ef565b5b600073ffffffffffffffffffffffffffffffffffffffff168173ffffffffffffffffffffffffffffffffffffffff1614610edb57610e8c60008560008061172a565b6001600360008373ffffffffffffffffffffffffffffffffffffffff1673ffffffffffffffffffffffffffffffffffffffff168152602001908152602001600020600082825403925050819055505b600073ffffffffffffffffffffffffffffffffffffffff168573ffffffffffffffffffffffffffffffffffffffff1614610f5e576001600360008773ffffffffffffffffffffffffffffffffffffffff1673ffffffffffffffffffffffffffffffffffffffff168152602001908152602001600020600082825401925050819055505b846002600086815260200190815260200160002060006101000a81548173ffffffffffffffffffffffffffffffffffffffff021916908373ffffffffffffffffffffffffffffffffffffffff160217905550838573ffffffffffffffffffffffffffffffffffffffff168273ffffffffffffffffffffffffffffffffffffffff167fddf252ad1be2c89b69c2b068fc378daa952ba7f163c4a11628f55a4df523b3ef60405160405180910390a4809150509392505050565b61101e610de2565b73ffffffffffffffffffffffffffffffffffffffff1661103c610a41565b73ffffffffffffffffffffffffffffffffffffffff161461109b5761105f610de2565b6040517f118cdaa70000000000000000000000000000000000000000000000000000000081526004016110929190611e49565b60405180910390fd5b565b600073ffffffffffffffffffffffffffffffffffffffff168273ffffffffffffffffffffffffffffffffffffffff160361110f5760006040517f64a0ae920000000000000000000000000000000000000000000000000000000081526004016111069190611e49565b60405180910390fd5b600061111d83836000610dfc565b9050600073ffffffffffffffffffffffffffffffffffffffff168173ffffffffffffffffffffffffffffffffffffffff16146111915760006040517f73c6ac6e0000000000000000000000000000000000000000000000000000000081526004016111889190611e49565b60405180910390fd5b505050565b6000600660009054906101000a900473ffffffffffffffffffffffffffffffffffffffff16905081600660006101000a81548173ffffffffffffffffffffffffffffffffffffffff021916908373ffffffffffffffffffffffffffffffffffffffff1602179055508173ffffffffffffffffffffffffffffffffffffffff168173ffffffffffffffffffffffffffffffffffffffff167f8be0079c531659141344cd1fd0a4f28419497f9722a3daafe3b4186f6b6457e060405160405180910390a35050565b600061126b6000836000610dfc565b9050600073ffffffffffffffffffffffffffffffffffffffff168173ffffffffffffffffffffffffffffffffffffffff16036112de57816040517f7e2732890000000000000000000000000000000000000000000000000000000081526004016112d591906120f0565b60405180910390fd5b5050565b600073ffffffffffffffffffffffffffffffffffffffff168273ffffffffffffffffffffffffffffffffffffffff160361135357816040517f5b08ba1800000000000000000000000000000000000000000000000000000000815260040161134a9190611e49565b60405180910390fd5b80600560008573ffffffffffffffffffffffffffffffffffffffff1673ffffffffffffffffffffffffffffffffffffffff16815260200190815260200160002060008473ffffffffffffffffffffffffffffffffffffffff1673ffffffffffffffffffffffffffffffffffffffff16815260200190815260200160002060006101000a81548160ff0219169083151502179055508173ffffffffffffffffffffffffffffffffffffffff168373ffffffffffffffffffffffffffffffffffffffff167f17307eab39ab6107e8899845ad3d59bd9653f200f220920489ca2b5937696c31836040516114449190611cd8565b60405180910390a3505050565b60008373ffffffffffffffffffffffffffffffffffffffff163b1115611602578273ffffffffffffffffffffffffffffffffffffffff1663150b7a02611495610de2565b8685856040518563ffffffff1660e01b81526004016114b79493929190612788565b6020604051808303816000875af19250505080156114f357506040513d601f19601f820116820180604052508101906114f091906127e9565b60015b611577573d8060008114611523576040519150601f19603f3d011682016040523d82523d6000602084013e611528565b606091505b50600081510361156f57836040517f64a0ae920000000000000000000000000000000000000000000000000000000081526004016115669190611e49565b60405180910390fd5b805181602001fd5b63150b7a0260e01b7bffffffffffffffffffffffffffffffffffffffffffffffffffffffff1916817bffffffffffffffffffffffffffffffffffffffffffffffffffffffff19161461160057836040517f64a0ae920000000000000000000000000000000000000000000000000000000081526004016115f79190611e49565b60405180910390fd5b505b50505050565b606060405180602001604052806000815250905090565b60606000600161162e846119b3565b01905060008167ffffffffffffffff81111561164d5761164c611f2d565b5b6040519080825280601f01601f19166020018201604052801561167f5781602001600182028036833780820191505090505b509050600082602001820190505b6001156116e2578080600190039150507f3031323334353637383961626364656600000000000000000000000000000000600a86061a8153600a85816116d6576116d5612816565b5b0494506000850361168d575b819350505050919050565b60006002600083815260200190815260200160002060009054906101000a900473ffffffffffffffffffffffffffffffffffffffff169050919050565b80806117635750600073ffffffffffffffffffffffffffffffffffffffff168273ffffffffffffffffffffffffffffffffffffffff1614155b1561189757600061177384610d1d565b9050600073ffffffffffffffffffffffffffffffffffffffff168373ffffffffffffffffffffffffffffffffffffffff16141580156117de57508273ffffffffffffffffffffffffffffffffffffffff168173ffffffffffffffffffffffffffffffffffffffff1614155b80156117f157506117ef8184610b99565b155b1561183357826040517fa9fbf51f00000000000000000000000000000000000000000000000000000000815260040161182a9190611e49565b60405180910390fd5b811561189557838573ffffffffffffffffffffffffffffffffffffffff168273ffffffffffffffffffffffffffffffffffffffff167f8c5be1e5ebec7d5bd14f71427d1e84f3dd0314c0f7b2291e5b200ac8c7c3b92560405160405180910390a45b505b836004600085815260200190815260200160002060006101000a81548173ffffffffffffffffffffffffffffffffffffffff021916908373ffffffffffffffffffffffffffffffffffffffff16021790555050505050565b6118fa838383611b06565b6119ae57600073ffffffffffffffffffffffffffffffffffffffff168373ffffffffffffffffffffffffffffffffffffffff160361196f57806040517f7e27328900000000000000000000000000000000000000000000000000000000815260040161196691906120f0565b60405180910390fd5b81816040517f177e802f0000000000000000000000000000000000000000000000000000000081526004016119a5929190612845565b60405180910390fd5b505050565b600080600090507a184f03e93ff9f4daa797ed6e38ed64bf6a1f0100000000000000008310611a11577a184f03e93ff9f4daa797ed6e38ed64bf6a1f0100000000000000008381611a0757611a06612816565b5b0492506040810190505b6d04ee2d6d415b85acef81000000008310611a4e576d04ee2d6d415b85acef81000000008381611a4457611a43612816565b5b0492506020810190505b662386f26fc100008310611a7d57662386f26fc100008381611a7357611a72612816565b5b0492506010810190505b6305f5e1008310611aa6576305f5e1008381611a9c57611a9b612816565b5b0492506008810190505b6127108310611acb576127108381611ac157611ac0612816565b5b0492506004810190505b60648310611aee5760648381611ae457611ae3612816565b5b0492506002810190505b600a8310611afd576001810190505b80915050919050565b60008073ffffffffffffffffffffffffffffffffffffffff168373ffffffffffffffffffffffffffffffffffffffff1614158015611bbe57508273ffffffffffffffffffffffffffffffffffffffff168473ffffffffffffffffffffffffffffffffffffffff161480611b7f5750611b7e8484610b99565b5b80611bbd57508273ffffffffffffffffffffffffffffffffffffffff16611ba583610da5565b73ffffffffffffffffffffffffffffffffffffffff16145b5b90509392505050565b508054611bd39061230a565b6000825580601f10611be55750611c04565b601f016020900490600052602060002090810190611c039190611c07565b5b50565b5b80821115611c20576000816000905550600101611c08565b5090565b6000604051905090565b600080fd5b600080fd5b60007fffffffff0000000000000000000000000000000000000000000000000000000082169050919050565b611c6d81611c38565b8114611c7857600080fd5b50565b600081359050611c8a81611c64565b92915050565b600060208284031215611ca657611ca5611c2e565b5b6000611cb484828501611c7b565b91505092915050565b60008115159050919050565b611cd281611cbd565b82525050565b6000602082019050611ced6000830184611cc9565b92915050565b600081519050919050565b600082825260208201905092915050565b60005b83811015611d2d578082015181840152602081019050611d12565b60008484015250505050565b6000601f19601f8301169050919050565b6000611d5582611cf3565b611d5f8185611cfe565b9350611d6f818560208601611d0f565b611d7881611d39565b840191505092915050565b60006020820190508181036000830152611d9d8184611d4a565b905092915050565b6000819050919050565b611db881611da5565b8114611dc357600080fd5b50565b600081359050611dd581611daf565b92915050565b600060208284031215611df157611df0611c2e565b5b6000611dff84828501611dc6565b91505092915050565b600073ffffffffffffffffffffffffffffffffffffffff82169050919050565b6000611e3382611e08565b9050919050565b611e4381611e28565b82525050565b6000602082019050611e5e6000830184611e3a565b92915050565b611e6d81611e28565b8114611e7857600080fd5b50565b600081359050611e8a81611e64565b92915050565b60008060408385031215611ea757611ea6611c2e565b5b6000611eb585828601611e7b565b9250506020611ec685828601611dc6565b9150509250929050565b600080600060608486031215611ee957611ee8611c2e565b5b6000611ef786828701611e7b565b9350506020611f0886828701611e7b565b9250506040611f1986828701611dc6565b9150509250925092565b600080fd5b600080fd5b7f4e487b7100000000000000000000000000000000000000000000000000000000600052604160045260246000fd5b611f6582611d39565b810181811067ffffffffffffffff82111715611f8457611f83611f2d565b5b80604052505050565b6000611f97611c24565b9050611fa38282611f5c565b919050565b600067ffffffffffffffff821115611fc357611fc2611f2d565b5b611fcc82611d39565b9050602081019050919050565b82818337600083830152505050565b6000611ffb611ff684611fa8565b611f8d565b90508281526020810184848401111561201757612016611f28565b5b612022848285611fd9565b509392505050565b600082601f83011261203f5761203e611f23565b5b813561204f848260208601611fe8565b91505092915050565b6000806040838503121561206f5761206e611c2e565b5b600061207d85828601611e7b565b925050602083013567ffffffffffffffff81111561209e5761209d611c33565b5b6120aa8582860161202a565b9150509250929050565b6000602082840312156120ca576120c9611c2e565b5b60006120d884828501611e7b565b91505092915050565b6120ea81611da5565b82525050565b600060208201905061210560008301846120e1565b92915050565b61211481611cbd565b811461211f57600080fd5b50565b6000813590506121318161210b565b92915050565b6000806040838503121561214e5761214d611c2e565b5b600061215c85828601611e7b565b925050602061216d85828601612122565b9150509250929050565b600067ffffffffffffffff82111561219257612191611f2d565b5b61219b82611d39565b9050602081019050919050565b60006121bb6121b684612177565b611f8d565b9050828152602081018484840111156121d7576121d6611f28565b5b6121e2848285611fd9565b509392505050565b600082601f8301126121ff576121fe611f23565b5b813561220f8482602086016121a8565b91505092915050565b6000806000806080858703121561223257612231611c2e565b5b600061224087828801611e7b565b945050602061225187828801611e7b565b935050604061226287828801611dc6565b925050606085013567ffffffffffffffff81111561228357612282611c33565b5b61228f878288016121ea565b91505092959194509250565b600080604083850312156122b2576122b1611c2e565b5b60006122c085828601611e7b565b92505060206122d185828601611e7b565b9150509250929050565b7f4e487b7100000000000000000000000000000000000000000000000000000000600052602260045260246000fd5b6000600282049050600182168061232257607f821691505b602082108103612335576123346122db565b5b50919050565b60006060820190506123506000830186611e3a565b61235d60208301856120e1565b61236a6040830184611e3a565b949350505050565b7f4e487b7100000000000000000000000000000000000000000000000000000000600052601160045260246000fd5b60006123ac82611da5565b91507fffffffffffffffffffffffffffffffffffffffffffffffffffffffffffffffff82036123de576123dd612372565b5b600182019050919050565b60008190508160005260206000209050919050565b60006020601f8301049050919050565b600082821b905092915050565b60006008830261244b7fffffffffffffffffffffffffffffffffffffffffffffffffffffffffffffffff8261240e565b612455868361240e565b95508019841693508086168417925050509392505050565b6000819050919050565b600061249261248d61248884611da5565b61246d565b611da5565b9050919050565b6000819050919050565b6124ac83612477565b6124c06124b882612499565b84845461241b565b825550505050565b600090565b6124d56124c8565b6124e08184846124a3565b505050565b5b81811015612504576124f96000826124cd565b6001810190506124e6565b5050565b601f8211156125495761251a816123e9565b612523846123fe565b81016020851015612532578190505b61254661253e856123fe565b8301826124e5565b50505b505050565b600082821c905092915050565b600061256c6000198460080261254e565b1980831691505092915050565b6000612585838361255b565b9150826002028217905092915050565b61259e82611cf3565b67ffffffffffffffff8111156125b7576125b6611f2d565b5b6125c1825461230a565b6125cc828285612508565b600060209050601f8311600181146125ff57600084156125ed578287015190505b6125f78582612579565b86555061265f565b601f19841661260d866123e9565b60005b8281101561263557848901518255600182019150602085019450602081019050612610565b86831015612652578489015161264e601f89168261255b565b8355505b6001600288020188555050505b505050505050565b7f546f6b656e20646f6573206e6f74206578697374000000000000000000000000600082015250565b600061269d601483611cfe565b91506126a882612667565b602082019050919050565b600060208201905081810360008301526126cc81612690565b9050919050565b600081905092915050565b60006126e982611cf3565b6126f381856126d3565b9350612703818560208601611d0f565b80840191505092915050565b600061271b82856126de565b915061272782846126de565b91508190509392505050565b600081519050919050565b600082825260208201905092915050565b600061275a82612733565b612764818561273e565b9350612774818560208601611d0f565b61277d81611d39565b840191505092915050565b600060808201905061279d6000830187611e3a565b6127aa6020830186611e3a565b6127b760408301856120e1565b81810360608301526127c9818461274f565b905095945050505050565b6000815190506127e381611c64565b92915050565b6000602082840312156127ff576127fe611c2e565b5b600061280d848285016127d4565b91505092915050565b7f4e487b7100000000000000000000000000000000000000000000000000000000600052601260045260246000fd5b600060408201905061285a6000830185611e3a565b61286760208301846120e1565b939250505056fea264697066735822122013d664e9ca1b4f160b5afe5eecf5d055220fc1cef86b7235418ac846c5572d9d64736f6c634300081b0033",
  "linkReferences": {},
  "deployedLinkReferences": {}
}