{
  "_format": "hh-sol-artifact-1",
  "contractName": "LandTitleRegistry",
  "sourceName": "contracts/titledeeds.sol",
  "abi": [
    {
      "inputs": [
        {
          "internalType": "address",
          "name": "_loginContract",
          "type": "address"
        },
        {
          "internalType": "address",
          "name": "initialOwner",
          "type": "address"
        }
      ],
      "stateMutability": "nonpayable",
      "type": "constructor"
    },
    {
      "inputs": [
        {
          "internalType": "address",
          "name": "sender",
          "type": "address"
        },
        {
          "internalType": "uint256",
          "name": "tokenId",
          "type": "uint256"
        },
        {
          "internalType": "address",
          "name": "owner",
          "type": "address"
        }
      ],
      "name": "ERC721IncorrectOwner",
      "type": "error"
    },
    {
      "inputs": [
        {
          "internalType": "address",
          "name": "operator",
          "type": "address"
        },
        {
          "internalType": "uint256",
          "name": "tokenId",
          "type": "uint256"
        }
      ],
      "name": "ERC721InsufficientApproval",
      "type": "error"
    },
    {
      "inputs": [
        {
          "internalType": "address",
          "name": "approver",
          "type": "address"
        }
      ],
      "name": "ERC721InvalidApprover",
      "type": "error"
    },
    {
      "inputs": [
        {
          "internalType": "address",
          "name": "operator",
          "type": "address"
        }
      ],
      "name": "ERC721InvalidOperator",
      "type": "error"
    },
    {
      "inputs": [
        {
          "internalType": "address",
          "name": "owner",
          "type": "address"
        }
      ],
      "name": "ERC721InvalidOwner",
      "type": "error"
    },
    {
      "inputs": [
        {
          "internalType": "address",
          "name": "receiver",
          "type": "address"
        }
      ],
      "name": "ERC721InvalidReceiver",
      "type": "error"
    },
    {
      "inputs": [
        {
          "internalType": "address",
          "name": "sender",
          "type": "address"
        }
      ],
      "name": "ERC721InvalidSender",
      "type": "error"
    },
    {
      "inputs": [
        {
          "internalType": "uint256",
          "name": "tokenId",
          "type": "uint256"
        }
      ],
      "name": "ERC721NonexistentToken",
      "type": "error"
    },
    {
      "inputs": [
        {
          "internalType": "address",
          "name": "owner",
          "type": "address"
        }
      ],
      "name": "OwnableInvalidOwner",
      "type": "error"
    },
    {
      "inputs": [
        {
          "internalType": "address",
          "name": "account",
          "type": "address"
        }
      ],
      "name": "OwnableUnauthorizedAccount",
      "type": "error"
    },
    {
      "anonymous": false,
      "inputs": [
        {
          "indexed": true,
          "internalType": "address",
          "name": "owner",
          "type": "address"
        },
        {
          "indexed": true,
          "internalType": "address",
          "name": "approved",
          "type": "address"
        },
        {
          "indexed": true,
          "internalType": "uint256",
          "name": "tokenId",
          "type": "uint256"
        }
      ],
      "name": "Approval",
      "type": "event"
    },
    {
      "anonymous": false,
      "inputs": [
        {
          "indexed": true,
          "internalType": "address",
          "name": "owner",
          "type": "address"
        },
        {
          "indexed": true,
          "internalType": "address",
          "name": "operator",
          "type": "address"
        },
        {
          "indexed": false,
          "internalType": "bool",
          "name": "approved",
          "type": "bool"
        }
      ],
      "name": "ApprovalForAll",
      "type": "event"
    },
    {
      "anonymous": false,
      "inputs": [
        {
          "indexed": true,
          "internalType": "uint256",
          "name": "id",
          "type": "uint256"
        },
        {
          "indexed": true,
          "internalType": "address",
          "name": "newOwnerAddress",
          "type": "address"
        },
        {
          "indexed": false,
          "internalType": "string",
          "name": "newLocation",
          "type": "string"
        },
        {
          "indexed": false,
          "internalType": "uint256",
          "name": "newArea",
          "type": "uint256"
        },
        {
          "indexed": false,
          "internalType": "string",
          "name": "newDocumentHash",
          "type": "string"
        }
      ],
      "name": "LandTitleUpdated",
      "type": "event"
    },
    {
      "anonymous": false,
      "inputs": [
        {
          "indexed": true,
          "internalType": "address",
          "name": "previousOwner",
          "type": "address"
        },
        {
          "indexed": true,
          "internalType": "address",
          "name": "newOwner",
          "type": "address"
        }
      ],
      "name": "OwnershipTransferred",
      "type": "event"
    },
    {
      "anonymous": false,
      "inputs": [
        {
          "indexed": true,
          "internalType": "address",
          "name": "from",
          "type": "address"
        },
        {
          "indexed": true,
          "internalType": "address",
          "name": "to",
          "type": "address"
        },
        {
          "indexed": true,
          "internalType": "uint256",
          "name": "tokenId",
          "type": "uint256"
        }
      ],
      "name": "Transfer",
      "type": "event"
    },
    {
      "inputs": [
        {
          "internalType": "address",
          "name": "to",
          "type": "address"
        },
        {
          "internalType": "uint256",
          "name": "tokenId",
          "type": "uint256"
        }
      ],
      "name": "approve",
      "outputs": [],
      "stateMutability": "nonpayable",
      "type": "function"
    },
    {
      "inputs": [
        {
          "internalType": "address",
          "name": "owner",
          "type": "address"
        }
      ],
      "name": "balanceOf",
      "outputs": [
        {
          "internalType": "uint256",
          "name": "",
          "type": "uint256"
        }
      ],
      "stateMutability": "view",
      "type": "function"
    },
    {
      "inputs": [
        {
          "internalType": "uint256",
          "name": "tokenId",
          "type": "uint256"
        }
      ],
      "name": "burnToken",
      "outputs": [],
      "stateMutability": "nonpayable",
      "type": "function"
    },
    {
      "inputs": [
        {
          "internalType": "uint256",
          "name": "tokenId",
          "type": "uint256"
        }
      ],
      "name": "getApproved",
      "outputs": [
        {
          "internalType": "address",
          "name": "",
          "type": "address"
        }
      ],
      "stateMutability": "view",
      "type": "function"
    },
    {
      "inputs": [
        {
          "internalType": "uint256",
          "name": "tokenId",
          "type": "uint256"
        }
      ],
      "name": "getDocumentHash",
      "outputs": [
        {
          "internalType": "string",
          "name": "",
          "type": "string"
        }
      ],
      "stateMutability": "view",
      "type": "function"
    },
    {
      "inputs": [
        {
          "internalType": "uint256",
          "name": "_id",
          "type": "uint256"
        }
      ],
      "name": "getLandDetails",
      "outputs": [
        {
          "internalType": "address",
          "name": "ownerAddress",
          "type": "address"
        },
        {
          "internalType": "string",
          "name": "location",
          "type": "string"
        },
        {
          "internalType": "uint256",
          "name": "area",
          "type": "uint256"
        },
        {
          "internalType": "string",
          "name": "documentHash",
          "type": "string"
        }
      ],
      "stateMutability": "view",
      "type": "function"
    },
    {
      "inputs": [],
      "name": "government",
      "outputs": [
        {
          "internalType": "address",
          "name": "",
          "type": "address"
        }
      ],
      "stateMutability": "view",
      "type": "function"
    },
    {
      "inputs": [
        {
          "internalType": "address",
          "name": "owner",
          "type": "address"
        },
        {
          "internalType": "address",
          "name": "operator",
          "type": "address"
        }
      ],
      "name": "isApprovedForAll",
      "outputs": [
        {
          "internalType": "bool",
          "name": "",
          "type": "bool"
        }
      ],
      "stateMutability": "view",
      "type": "function"
    },
    {
      "inputs": [
        {
          "internalType": "uint256",
          "name": "",
          "type": "uint256"
        }
      ],
      "name": "landTitles",
      "outputs": [
        {
          "internalType": "bool",
          "name": "isRegistered",
          "type": "bool"
        },
        {
          "internalType": "address",
          "name": "ownerAddress",
          "type": "address"
        },
        {
          "internalType": "string",
          "name": "location",
          "type": "string"
        },
        {
          "internalType": "uint256",
          "name": "area",
          "type": "uint256"
        },
        {
          "internalType": "string",
          "name": "documentHash",
          "type": "string"
        }
      ],
      "stateMutability": "view",
      "type": "function"
    },
    {
      "inputs": [],
      "name": "loginContract",
      "outputs": [
        {
          "internalType": "contract Login",
          "name": "",
          "type": "address"
        }
      ],
      "stateMutability": "view",
      "type": "function"
    },
    {
      "inputs": [
        {
          "internalType": "address",
          "name": "to",
          "type": "address"
        },
        {
          "internalType": "string",
          "name": "documentHash",
          "type": "string"
        }
      ],
      "name": "mintToken",
      "outputs": [],
      "stateMutability": "nonpayable",
      "type": "function"
    },
    {
      "inputs": [],
      "name": "name",
      "outputs": [
        {
          "internalType": "string",
          "name": "",
          "type": "string"
        }
      ],
      "stateMutability": "view",
      "type": "function"
    },
    {
      "inputs": [],
      "name": "nextTokenId",
      "outputs": [
        {
          "internalType": "uint256",
          "name": "",
          "type": "uint256"
        }
      ],
      "stateMutability": "view",
      "type": "function"
    },
    {
      "inputs": [],
      "name": "owner",
      "outputs": [
        {
          "internalType": "address",
          "name": "",
          "type": "address"
        }
      ],
      "stateMutability": "view",
      "type": "function"
    },
    {
      "inputs": [
        {
          "internalType": "uint256",
          "name": "tokenId",
          "type": "uint256"
        }
      ],
      "name": "ownerOf",
      "outputs": [
        {
          "internalType": "address",
          "name": "",
          "type": "address"
        }
      ],
      "stateMutability": "view",
      "type": "function"
    },
    {
      "inputs": [
        {
          "internalType": "uint256",
          "name": "_id",
          "type": "uint256"
        },
        {
          "internalType": "address",
          "name": "_ownerAddress",
          "type": "address"
        },
        {
          "internalType": "string",
          "name": "_location",
          "type": "string"
        },
        {
          "internalType": "uint256",
          "name": "_area",
          "type": "uint256"
        },
        {
          "internalType": "string",
          "name": "_documentHash",
          "type": "string"
        }
      ],
      "name": "registerLandTitle",
      "outputs": [],
      "stateMutability": "nonpayable",
      "type": "function"
    },
    {
      "inputs": [],
      "name": "renounceOwnership",
      "outputs": [],
      "stateMutability": "nonpayable",
      "type": "function"
    },
    {
      "inputs": [
        {
          "internalType": "address",
          "name": "from",
          "type": "address"
        },
        {
          "internalType": "address",
          "name": "to",
          "type": "address"
        },
        {
          "internalType": "uint256",
          "name": "tokenId",
          "type": "uint256"
        }
      ],
      "name": "safeTransferFrom",
      "outputs": [],
      "stateMutability": "nonpayable",
      "type": "function"
    },
    {
      "inputs": [
        {
          "internalType": "address",
          "name": "from",
          "type": "address"
        },
        {
          "internalType": "address",
          "name": "to",
          "type": "address"
        },
        {
          "internalType": "uint256",
          "name": "tokenId",
          "type": "uint256"
        },
        {
          "internalType": "bytes",
          "name": "data",
          "type": "bytes"
        }
      ],
      "name": "safeTransferFrom",
      "outputs": [],
      "stateMutability": "nonpayable",
      "type": "function"
    },
    {
      "inputs": [
        {
          "internalType": "address",
          "name": "operator",
          "type": "address"
        },
        {
          "internalType": "bool",
          "name": "approved",
          "type": "bool"
        }
      ],
      "name": "setApprovalForAll",
      "outputs": [],
      "stateMutability": "nonpayable",
      "type": "function"
    },
    {
      "inputs": [
        {
          "internalType": "bytes4",
          "name": "interfaceId",
          "type": "bytes4"
        }
      ],
      "name": "supportsInterface",
      "outputs": [
        {
          "internalType": "bool",
          "name": "",
          "type": "bool"
        }
      ],
      "stateMutability": "view",
      "type": "function"
    },
    {
      "inputs": [],
      "name": "symbol",
      "outputs": [
        {
          "internalType": "string",
          "name": "",
          "type": "string"
        }
      ],
      "stateMutability": "view",
      "type": "function"
    },
    {
      "inputs": [
        {
          "internalType": "uint256",
          "name": "",
          "type": "uint256"
        }
      ],
      "name": "tokenDocumentHashes",
      "outputs": [
        {
          "internalType": "string",
          "name": "",
          "type": "string"
        }
      ],
      "stateMutability": "view",
      "type": "function"
    },
    {
      "inputs": [
        {
          "internalType": "uint256",
          "name": "tokenId",
          "type": "uint256"
        }
      ],
      "name": "tokenURI",
      "outputs": [
        {
          "internalType": "string",
          "name": "",
          "type": "string"
        }
      ],
      "stateMutability": "view",
      "type": "function"
    },
    {
      "inputs": [
        {
          "internalType": "address",
          "name": "from",
          "type": "address"
        },
        {
          "internalType": "address",
          "name": "to",
          "type": "address"
        },
        {
          "internalType": "uint256",
          "name": "tokenId",
          "type": "uint256"
        }
      ],
      "name": "transferFrom",
      "outputs": [],
      "stateMutability": "nonpayable",
      "type": "function"
    },
    {
      "inputs": [
        {
          "internalType": "address",
          "name": "newOwner",
          "type": "address"
        }
      ],
      "name": "transferOwnership",
      "outputs": [],
      "stateMutability": "nonpayable",
      "type": "function"
    },
    {
      "inputs": [
        {
          "internalType": "uint256",
          "name": "_id",
          "type": "uint256"
        },
        {
          "internalType": "address",
          "name": "_newOwnerAddress",
          "type": "address"
        },
        {
          "internalType": "string",
          "name": "_newLocation",
          "type": "string"
        },
        {
          "internalType": "uint256",
          "name": "_newArea",
          "type": "uint256"
        },
        {
          "internalType": "string",
          "name": "_newDocumentHash",
          "type": "string"
        }
      ],
      "name": "updateLandDetails",
      "outputs": [],
      "stateMutability": "nonpayable",
      "type": "function"
    }
  ],
  "bytecode": "0x608060405234801561001057600080fd5b50604051613ec6380380613ec6833981810160405281019061003291906102f7565b80806040518060400160405280600e81526020017f5469746c6544656564546f6b656e0000000000000000000000000000000000008152506040518060400160405280600381526020017f544454000000000000000000000000000000000000000000000000000000000081525081600090816100af9190610587565b5080600190816100bf9190610587565b505050600073ffffffffffffffffffffffffffffffffffffffff168173ffffffffffffffffffffffffffffffffffffffff16036101345760006040517f1e4fbdf700000000000000000000000000000000000000000000000000000000815260040161012b9190610668565b60405180910390fd5b610143816101ce60201b60201c565b505033600a60006101000a81548173ffffffffffffffffffffffffffffffffffffffff021916908373ffffffffffffffffffffffffffffffffffffffff16021790555081600b60006101000a81548173ffffffffffffffffffffffffffffffffffffffff021916908373ffffffffffffffffffffffffffffffffffffffff1602179055505050610683565b6000600660009054906101000a900473ffffffffffffffffffffffffffffffffffffffff16905081600660006101000a81548173ffffffffffffffffffffffffffffffffffffffff021916908373ffffffffffffffffffffffffffffffffffffffff1602179055508173ffffffffffffffffffffffffffffffffffffffff168173ffffffffffffffffffffffffffffffffffffffff167f8be0079c531659141344cd1fd0a4f28419497f9722a3daafe3b4186f6b6457e060405160405180910390a35050565b600080fd5b600073ffffffffffffffffffffffffffffffffffffffff82169050919050565b60006102c482610299565b9050919050565b6102d4816102b9565b81146102df57600080fd5b50565b6000815190506102f1816102cb565b92915050565b6000806040838503121561030e5761030d610294565b5b600061031c858286016102e2565b925050602061032d858286016102e2565b9150509250929050565b600081519050919050565b7f4e487b7100000000000000000000000000000000000000000000000000000000600052604160045260246000fd5b7f4e487b7100000000000000000000000000000000000000000000000000000000600052602260045260246000fd5b600060028204905060018216806103b857607f821691505b6020821081036103cb576103ca610371565b5b50919050565b60008190508160005260206000209050919050565b60006020601f8301049050919050565b600082821b905092915050565b6000600883026104337fffffffffffffffffffffffffffffffffffffffffffffffffffffffffffffffff826103f6565b61043d86836103f6565b95508019841693508086168417925050509392505050565b6000819050919050565b6000819050919050565b600061048461047f61047a84610455565b61045f565b610455565b9050919050565b6000819050919050565b61049e83610469565b6104b26104aa8261048b565b848454610403565b825550505050565b600090565b6104c76104ba565b6104d2818484610495565b505050565b5b818110156104f6576104eb6000826104bf565b6001810190506104d8565b5050565b601f82111561053b5761050c816103d1565b610515846103e6565b81016020851015610524578190505b610538610530856103e6565b8301826104d7565b50505b505050565b600082821c905092915050565b600061055e60001984600802610540565b1980831691505092915050565b6000610577838361054d565b9150826002028217905092915050565b61059082610337565b67ffffffffffffffff8111156105a9576105a8610342565b5b6105b382546103a0565b6105be8282856104fa565b600060209050601f8311600181146105f157600084156105df578287015190505b6105e9858261056b565b865550610651565b601f1984166105ff866103d1565b60005b8281101561062757848901518255600182019150602085019450602081019050610602565b868310156106445784890151610640601f89168261054d565b8355505b6001600288020188555050505b505050505050565b610662816102b9565b82525050565b600060208201905061067d6000830184610659565b92915050565b613834806106926000396000f3fe608060405234801561001057600080fd5b50600436106101a95760003560e01c8063715018a6116100f9578063a22cb46511610097578063c87b56dd11610071578063c87b56dd146104bc578063e985e9c5146104ec578063f2fde38b1461051c578063fe0cb7dc14610538576101a9565b8063a22cb46514610468578063a79a6cc314610484578063b88d4fde146104a0576101a9565b806380964805116100d357806380964805146103cc5780638796ec86146103fc5780638da5cb5b1461042c57806395d89b411461044a576101a9565b8063715018a61461038857806375794a3c146103925780637b47ec1a146103b0576101a9565b80632672f5261161016657806349f3ef0b1161014057806349f3ef0b146102ee5780636352211e1461030a5780636cb68e391461033a57806370a0823114610358576101a9565b80632672f526146102985780633d02d0c9146102b657806342842e0e146102d2576101a9565b806301ffc9a7146101ae57806306fdde03146101de578063081812fc146101fc578063095ea7b31461022c5780630b8d438c1461024857806323b872dd1461027c575b600080fd5b6101c860048036038101906101c39190612780565b61056b565b6040516101d591906127c8565b60405180910390f35b6101e661064d565b6040516101f39190612873565b60405180910390f35b610216600480360381019061021191906128cb565b6106df565b6040516102239190612939565b60405180910390f35b61024660048036038101906102419190612980565b6106fb565b005b610262600480360381019061025d91906128cb565b610711565b6040516102739594939291906129cf565b60405180910390f35b61029660048036038101906102919190612a30565b610884565b005b6102a0610986565b6040516102ad9190612939565b60405180910390f35b6102d060048036038101906102cb9190612bb8565b6109ac565b005b6102ec60048036038101906102e79190612a30565b610a03565b005b61030860048036038101906103039190612c14565b610a23565b005b610324600480360381019061031f91906128cb565b610d32565b6040516103319190612939565b60405180910390f35b610342610d44565b60405161034f9190612d26565b60405180910390f35b610372600480360381019061036d9190612d41565b610d6a565b60405161037f9190612d6e565b60405180910390f35b610390610e24565b005b61039a610e38565b6040516103a79190612d6e565b60405180910390f35b6103ca60048036038101906103c591906128cb565b610e3e565b005b6103e660048036038101906103e191906128cb565b610ec4565b6040516103f39190612873565b60405180910390f35b610416600480360381019061041191906128cb565b610f64565b6040516104239190612873565b60405180910390f35b61043461105c565b6040516104419190612939565b60405180910390f35b610452611086565b60405161045f9190612873565b60405180910390f35b610482600480360381019061047d9190612db5565b611118565b005b61049e60048036038101906104999190612c14565b61112e565b005b6104ba60048036038101906104b59190612e96565b611439565b005b6104d660048036038101906104d191906128cb565b611456565b6040516104e39190612873565b60405180910390f35b61050660048036038101906105019190612f19565b6114bf565b60405161051391906127c8565b60405180910390f35b61053660048036038101906105319190612d41565b611553565b005b610552600480360381019061054d91906128cb565b6115d9565b6040516105629493929190612f59565b60405180910390f35b60007f80ac58cd000000000000000000000000000000000000000000000000000000007bffffffffffffffffffffffffffffffffffffffffffffffffffffffff1916827bffffffffffffffffffffffffffffffffffffffffffffffffffffffff1916148061063657507f5b5e139f000000000000000000000000000000000000000000000000000000007bffffffffffffffffffffffffffffffffffffffffffffffffffffffff1916827bffffffffffffffffffffffffffffffffffffffffffffffffffffffff1916145b806106465750610645826117a3565b5b9050919050565b60606000805461065c90612fdb565b80601f016020809104026020016040519081016040528092919081815260200182805461068890612fdb565b80156106d55780601f106106aa576101008083540402835291602001916106d5565b820191906000526020600020905b8154815290600101906020018083116106b857829003601f168201915b5050505050905090565b60006106ea8261180d565b506106f482611895565b9050919050565b61070d82826107086118d2565b6118da565b5050565b60096020528060005260406000206000915090508060000160009054906101000a900460ff16908060000160019054906101000a900473ffffffffffffffffffffffffffffffffffffffff169080600101805461076d90612fdb565b80601f016020809104026020016040519081016040528092919081815260200182805461079990612fdb565b80156107e65780601f106107bb576101008083540402835291602001916107e6565b820191906000526020600020905b8154815290600101906020018083116107c957829003601f168201915b50505050509080600201549080600301805461080190612fdb565b80601f016020809104026020016040519081016040528092919081815260200182805461082d90612fdb565b801561087a5780601f1061084f5761010080835404028352916020019161087a565b820191906000526020600020905b81548152906001019060200180831161085d57829003601f168201915b5050505050905085565b600073ffffffffffffffffffffffffffffffffffffffff168273ffffffffffffffffffffffffffffffffffffffff16036108f65760006040517f64a0ae920000000000000000000000000000000000000000000000000000000081526004016108ed9190612939565b60405180910390fd5b600061090a83836109056118d2565b6118ec565b90508373ffffffffffffffffffffffffffffffffffffffff168173ffffffffffffffffffffffffffffffffffffffff1614610980578382826040517f64283d7b0000000000000000000000000000000000000000000000000000000081526004016109779392919061300c565b60405180910390fd5b50505050565b600a60009054906101000a900473ffffffffffffffffffffffffffffffffffffffff1681565b6109b4611b06565b60006007549050600760008154809291906109ce90613072565b91905055506109dd8382611b8d565b816008600083815260200190815260200160002090816109fd919061325c565b50505050565b610a1e83838360405180602001604052806000815250611439565b505050565b600a60009054906101000a900473ffffffffffffffffffffffffffffffffffffffff1673ffffffffffffffffffffffffffffffffffffffff163373ffffffffffffffffffffffffffffffffffffffff1614610ab3576040517f08c379a0000000000000000000000000000000000000000000000000000000008152600401610aaa906133a0565b60405180910390fd5b600b60009054906101000a900473ffffffffffffffffffffffffffffffffffffffff1673ffffffffffffffffffffffffffffffffffffffff1663873138f36040518163ffffffff1660e01b8152600401602060405180830381865afa158015610b20573d6000803e3d6000fd5b505050506040513d601f19601f82011682018060405250810190610b4491906133d5565b610b83576040517f08c379a0000000000000000000000000000000000000000000000000000000008152600401610b7a9061344e565b60405180910390fd5b6009600086815260200190815260200160002060000160009054906101000a900460ff16610be6576040517f08c379a0000000000000000000000000000000000000000000000000000000008152600401610bdd906134ba565b60405180910390fd5b60008211610c29576040517f08c379a0000000000000000000000000000000000000000000000000000000008152600401610c2090613526565b60405180910390fd5b6000600960008781526020019081526020016000209050848160000160016101000a81548173ffffffffffffffffffffffffffffffffffffffff021916908373ffffffffffffffffffffffffffffffffffffffff16021790555083816001019081610c94919061325c565b5082816002018190555081816003019081610caf919061325c565b50600086905082600860008381526020019081526020016000209081610cd5919061325c565b508573ffffffffffffffffffffffffffffffffffffffff16877f91ee569fe4ab879f41ab0616255c5112e5a1c908d02d7b0bc31cf386c9838434878787604051610d2193929190613546565b60405180910390a350505050505050565b6000610d3d8261180d565b9050919050565b600b60009054906101000a900473ffffffffffffffffffffffffffffffffffffffff1681565b60008073ffffffffffffffffffffffffffffffffffffffff168273ffffffffffffffffffffffffffffffffffffffff1603610ddd5760006040517f89c62b64000000000000000000000000000000000000000000000000000000008152600401610dd49190612939565b60405180910390fd5b600360008373ffffffffffffffffffffffffffffffffffffffff1673ffffffffffffffffffffffffffffffffffffffff168152602001908152602001600020549050919050565b610e2c611b06565b610e366000611c86565b565b60075481565b610e46611b06565b6000610e59610e5483610d32565b610d6a565b11610e99576040517f08c379a0000000000000000000000000000000000000000000000000000000008152600401610e90906135d7565b60405180910390fd5b610ea281611d4c565b600860008281526020019081526020016000206000610ec191906126b7565b50565b60086020528060005260406000206000915090508054610ee390612fdb565b80601f0160208091040260200160405190810160405280929190818152602001828054610f0f90612fdb565b8015610f5c5780601f10610f3157610100808354040283529160200191610f5c565b820191906000526020600020905b815481529060010190602001808311610f3f57829003601f168201915b505050505081565b60606000610f79610f7484610d32565b610d6a565b11610fb9576040517f08c379a0000000000000000000000000000000000000000000000000000000008152600401610fb0906135d7565b60405180910390fd5b600860008381526020019081526020016000208054610fd790612fdb565b80601f016020809104026020016040519081016040528092919081815260200182805461100390612fdb565b80156110505780601f1061102557610100808354040283529160200191611050565b820191906000526020600020905b81548152906001019060200180831161103357829003601f168201915b50505050509050919050565b6000600660009054906101000a900473ffffffffffffffffffffffffffffffffffffffff16905090565b60606001805461109590612fdb565b80601f01602080910402602001604051908101604052809291908181526020018280546110c190612fdb565b801561110e5780601f106110e35761010080835404028352916020019161110e565b820191906000526020600020905b8154815290600101906020018083116110f157829003601f168201915b5050505050905090565b61112a6111236118d2565b8383611dd2565b5050565b600a60009054906101000a900473ffffffffffffffffffffffffffffffffffffffff1673ffffffffffffffffffffffffffffffffffffffff163373ffffffffffffffffffffffffffffffffffffffff16146111be576040517f08c379a00000000000000000000000000000000000000000000000000000000081526004016111b5906133a0565b60405180910390fd5b600b60009054906101000a900473ffffffffffffffffffffffffffffffffffffffff1673ffffffffffffffffffffffffffffffffffffffff1663873138f36040518163ffffffff1660e01b8152600401602060405180830381865afa15801561122b573d6000803e3d6000fd5b505050506040513d601f19601f8201168201806040525081019061124f91906133d5565b61128e576040517f08c379a00000000000000000000000000000000000000000000000000000000081526004016112859061344e565b60405180910390fd5b6009600086815260200190815260200160002060000160009054906101000a900460ff16156112f2576040517f08c379a00000000000000000000000000000000000000000000000000000000081526004016112e990613643565b60405180910390fd5b60008211611335576040517f08c379a000000000000000000000000000000000000000000000000000000000815260040161132c90613526565b60405180910390fd5b6040518060a001604052806001151581526020018573ffffffffffffffffffffffffffffffffffffffff168152602001848152602001838152602001828152506009600087815260200190815260200160002060008201518160000160006101000a81548160ff02191690831515021790555060208201518160000160016101000a81548173ffffffffffffffffffffffffffffffffffffffff021916908373ffffffffffffffffffffffffffffffffffffffff1602179055506040820151816001019081611404919061325c565b50606082015181600201556080820151816003019081611424919061325c565b5090505061143284826109ac565b5050505050565b611444848484610884565b61145084848484611f41565b50505050565b60606114618261180d565b50600061146c6120f8565b9050600081511161148c57604051806020016040528060008152506114b7565b806114968461210f565b6040516020016114a792919061369f565b6040516020818303038152906040525b915050919050565b6000600560008473ffffffffffffffffffffffffffffffffffffffff1673ffffffffffffffffffffffffffffffffffffffff16815260200190815260200160002060008373ffffffffffffffffffffffffffffffffffffffff1673ffffffffffffffffffffffffffffffffffffffff16815260200190815260200160002060009054906101000a900460ff16905092915050565b61155b611b06565b600073ffffffffffffffffffffffffffffffffffffffff168173ffffffffffffffffffffffffffffffffffffffff16036115cd5760006040517f1e4fbdf70000000000000000000000000000000000000000000000000000000081526004016115c49190612939565b60405180910390fd5b6115d681611c86565b50565b600060606000606060006009600087815260200190815260200160002090508060000160009054906101000a900460ff16611649576040517f08c379a0000000000000000000000000000000000000000000000000000000008152600401611640906134ba565b60405180910390fd5b8060000160019054906101000a900473ffffffffffffffffffffffffffffffffffffffff168160010182600201548360030182805461168790612fdb565b80601f01602080910402602001604051908101604052809291908181526020018280546116b390612fdb565b80156117005780601f106116d557610100808354040283529160200191611700565b820191906000526020600020905b8154815290600101906020018083116116e357829003601f168201915b5050505050925080805461171390612fdb565b80601f016020809104026020016040519081016040528092919081815260200182805461173f90612fdb565b801561178c5780601f106117615761010080835404028352916020019161178c565b820191906000526020600020905b81548152906001019060200180831161176f57829003601f168201915b505050505090509450945094509450509193509193565b60007f01ffc9a7000000000000000000000000000000000000000000000000000000007bffffffffffffffffffffffffffffffffffffffffffffffffffffffff1916827bffffffffffffffffffffffffffffffffffffffffffffffffffffffff1916149050919050565b600080611819836121dd565b9050600073ffffffffffffffffffffffffffffffffffffffff168173ffffffffffffffffffffffffffffffffffffffff160361188c57826040517f7e2732890000000000000000000000000000000000000000000000000000000081526004016118839190612d6e565b60405180910390fd5b80915050919050565b60006004600083815260200190815260200160002060009054906101000a900473ffffffffffffffffffffffffffffffffffffffff169050919050565b600033905090565b6118e7838383600161221a565b505050565b6000806118f8846121dd565b9050600073ffffffffffffffffffffffffffffffffffffffff168373ffffffffffffffffffffffffffffffffffffffff161461193a576119398184866123df565b5b600073ffffffffffffffffffffffffffffffffffffffff168173ffffffffffffffffffffffffffffffffffffffff16146119cb5761197c60008560008061221a565b6001600360008373ffffffffffffffffffffffffffffffffffffffff1673ffffffffffffffffffffffffffffffffffffffff168152602001908152602001600020600082825403925050819055505b600073ffffffffffffffffffffffffffffffffffffffff168573ffffffffffffffffffffffffffffffffffffffff1614611a4e576001600360008773ffffffffffffffffffffffffffffffffffffffff1673ffffffffffffffffffffffffffffffffffffffff168152602001908152602001600020600082825401925050819055505b846002600086815260200190815260200160002060006101000a81548173ffffffffffffffffffffffffffffffffffffffff021916908373ffffffffffffffffffffffffffffffffffffffff160217905550838573ffffffffffffffffffffffffffffffffffffffff168273ffffffffffffffffffffffffffffffffffffffff167fddf252ad1be2c89b69c2b068fc378daa952ba7f163c4a11628f55a4df523b3ef60405160405180910390a4809150509392505050565b611b0e6118d2565b73ffffffffffffffffffffffffffffffffffffffff16611b2c61105c565b73ffffffffffffffffffffffffffffffffffffffff1614611b8b57611b4f6118d2565b6040517f118cdaa7000000000000000000000000000000000000000000000000000000008152600401611b829190612939565b60405180910390fd5b565b600073ffffffffffffffffffffffffffffffffffffffff168273ffffffffffffffffffffffffffffffffffffffff1603611bff5760006040517f64a0ae92000000000000000000000000000000000000000000000000000000008152600401611bf69190612939565b60405180910390fd5b6000611c0d838360006118ec565b9050600073ffffffffffffffffffffffffffffffffffffffff168173ffffffffffffffffffffffffffffffffffffffff1614611c815760006040517f73c6ac6e000000000000000000000000000000000000000000000000000000008152600401611c789190612939565b60405180910390fd5b505050565b6000600660009054906101000a900473ffffffffffffffffffffffffffffffffffffffff16905081600660006101000a81548173ffffffffffffffffffffffffffffffffffffffff021916908373ffffffffffffffffffffffffffffffffffffffff1602179055508173ffffffffffffffffffffffffffffffffffffffff168173ffffffffffffffffffffffffffffffffffffffff167f8be0079c531659141344cd1fd0a4f28419497f9722a3daafe3b4186f6b6457e060405160405180910390a35050565b6000611d5b60008360006118ec565b9050600073ffffffffffffffffffffffffffffffffffffffff168173ffffffffffffffffffffffffffffffffffffffff1603611dce57816040517f7e273289000000000000000000000000000000000000000000000000000000008152600401611dc59190612d6e565b60405180910390fd5b5050565b600073ffffffffffffffffffffffffffffffffffffffff168273ffffffffffffffffffffffffffffffffffffffff1603611e4357816040517f5b08ba18000000000000000000000000000000000000000000000000000000008152600401611e3a9190612939565b60405180910390fd5b80600560008573ffffffffffffffffffffffffffffffffffffffff1673ffffffffffffffffffffffffffffffffffffffff16815260200190815260200160002060008473ffffffffffffffffffffffffffffffffffffffff1673ffffffffffffffffffffffffffffffffffffffff16815260200190815260200160002060006101000a81548160ff0219169083151502179055508173ffffffffffffffffffffffffffffffffffffffff168373ffffffffffffffffffffffffffffffffffffffff167f17307eab39ab6107e8899845ad3d59bd9653f200f220920489ca2b5937696c3183604051611f3491906127c8565b60405180910390a3505050565b60008373ffffffffffffffffffffffffffffffffffffffff163b11156120f2578273ffffffffffffffffffffffffffffffffffffffff1663150b7a02611f856118d2565b8685856040518563ffffffff1660e01b8152600401611fa79493929190613718565b6020604051808303816000875af1925050508015611fe357506040513d601f19601f82011682018060405250810190611fe09190613779565b60015b612067573d8060008114612013576040519150601f19603f3d011682016040523d82523d6000602084013e612018565b606091505b50600081510361205f57836040517f64a0ae920000000000000000000000000000000000000000000000000000000081526004016120569190612939565b60405180910390fd5b805181602001fd5b63150b7a0260e01b7bffffffffffffffffffffffffffffffffffffffffffffffffffffffff1916817bffffffffffffffffffffffffffffffffffffffffffffffffffffffff1916146120f057836040517f64a0ae920000000000000000000000000000000000000000000000000000000081526004016120e79190612939565b60405180910390fd5b505b50505050565b606060405180602001604052806000815250905090565b60606000600161211e846124a3565b01905060008167ffffffffffffffff81111561213d5761213c612a8d565b5b6040519080825280601f01601f19166020018201604052801561216f5781602001600182028036833780820191505090505b509050600082602001820190505b6001156121d2578080600190039150507f3031323334353637383961626364656600000000000000000000000000000000600a86061a8153600a85816121c6576121c56137a6565b5b0494506000850361217d575b819350505050919050565b60006002600083815260200190815260200160002060009054906101000a900473ffffffffffffffffffffffffffffffffffffffff169050919050565b80806122535750600073ffffffffffffffffffffffffffffffffffffffff168273ffffffffffffffffffffffffffffffffffffffff1614155b156123875760006122638461180d565b9050600073ffffffffffffffffffffffffffffffffffffffff168373ffffffffffffffffffffffffffffffffffffffff16141580156122ce57508273ffffffffffffffffffffffffffffffffffffffff168173ffffffffffffffffffffffffffffffffffffffff1614155b80156122e157506122df81846114bf565b155b1561232357826040517fa9fbf51f00000000000000000000000000000000000000000000000000000000815260040161231a9190612939565b60405180910390fd5b811561238557838573ffffffffffffffffffffffffffffffffffffffff168273ffffffffffffffffffffffffffffffffffffffff167f8c5be1e5ebec7d5bd14f71427d1e84f3dd0314c0f7b2291e5b200ac8c7c3b92560405160405180910390a45b505b836004600085815260200190815260200160002060006101000a81548173ffffffffffffffffffffffffffffffffffffffff021916908373ffffffffffffffffffffffffffffffffffffffff16021790555050505050565b6123ea8383836125f6565b61249e57600073ffffffffffffffffffffffffffffffffffffffff168373ffffffffffffffffffffffffffffffffffffffff160361245f57806040517f7e2732890000000000000000000000000000000000000000000000000000000081526004016124569190612d6e565b60405180910390fd5b81816040517f177e802f0000000000000000000000000000000000000000000000000000000081526004016124959291906137d5565b60405180910390fd5b505050565b600080600090507a184f03e93ff9f4daa797ed6e38ed64bf6a1f0100000000000000008310612501577a184f03e93ff9f4daa797ed6e38ed64bf6a1f01000000000000000083816124f7576124f66137a6565b5b0492506040810190505b6d04ee2d6d415b85acef8100000000831061253e576d04ee2d6d415b85acef81000000008381612534576125336137a6565b5b0492506020810190505b662386f26fc10000831061256d57662386f26fc100008381612563576125626137a6565b5b0492506010810190505b6305f5e1008310612596576305f5e100838161258c5761258b6137a6565b5b0492506008810190505b61271083106125bb5761271083816125b1576125b06137a6565b5b0492506004810190505b606483106125de57606483816125d4576125d36137a6565b5b0492506002810190505b600a83106125ed576001810190505b80915050919050565b60008073ffffffffffffffffffffffffffffffffffffffff168373ffffffffffffffffffffffffffffffffffffffff16141580156126ae57508273ffffffffffffffffffffffffffffffffffffffff168473ffffffffffffffffffffffffffffffffffffffff16148061266f575061266e84846114bf565b5b806126ad57508273ffffffffffffffffffffffffffffffffffffffff1661269583611895565b73ffffffffffffffffffffffffffffffffffffffff16145b5b90509392505050565b5080546126c390612fdb565b6000825580601f106126d557506126f4565b601f0160209004906000526020600020908101906126f391906126f7565b5b50565b5b808211156127105760008160009055506001016126f8565b5090565b6000604051905090565b600080fd5b600080fd5b60007fffffffff0000000000000000000000000000000000000000000000000000000082169050919050565b61275d81612728565b811461276857600080fd5b50565b60008135905061277a81612754565b92915050565b6000602082840312156127965761279561271e565b5b60006127a48482850161276b565b91505092915050565b60008115159050919050565b6127c2816127ad565b82525050565b60006020820190506127dd60008301846127b9565b92915050565b600081519050919050565b600082825260208201905092915050565b60005b8381101561281d578082015181840152602081019050612802565b60008484015250505050565b6000601f19601f8301169050919050565b6000612845826127e3565b61284f81856127ee565b935061285f8185602086016127ff565b61286881612829565b840191505092915050565b6000602082019050818103600083015261288d818461283a565b905092915050565b6000819050919050565b6128a881612895565b81146128b357600080fd5b50565b6000813590506128c58161289f565b92915050565b6000602082840312156128e1576128e061271e565b5b60006128ef848285016128b6565b91505092915050565b600073ffffffffffffffffffffffffffffffffffffffff82169050919050565b6000612923826128f8565b9050919050565b61293381612918565b82525050565b600060208201905061294e600083018461292a565b92915050565b61295d81612918565b811461296857600080fd5b50565b60008135905061297a81612954565b92915050565b600080604083850312156129975761299661271e565b5b60006129a58582860161296b565b92505060206129b6858286016128b6565b9150509250929050565b6129c981612895565b82525050565b600060a0820190506129e460008301886127b9565b6129f1602083018761292a565b8181036040830152612a03818661283a565b9050612a1260608301856129c0565b8181036080830152612a24818461283a565b90509695505050505050565b600080600060608486031215612a4957612a4861271e565b5b6000612a578682870161296b565b9350506020612a688682870161296b565b9250506040612a79868287016128b6565b9150509250925092565b600080fd5b600080fd5b7f4e487b7100000000000000000000000000000000000000000000000000000000600052604160045260246000fd5b612ac582612829565b810181811067ffffffffffffffff82111715612ae457612ae3612a8d565b5b80604052505050565b6000612af7612714565b9050612b038282612abc565b919050565b600067ffffffffffffffff821115612b2357612b22612a8d565b5b612b2c82612829565b9050602081019050919050565b82818337600083830152505050565b6000612b5b612b5684612b08565b612aed565b905082815260208101848484011115612b7757612b76612a88565b5b612b82848285612b39565b509392505050565b600082601f830112612b9f57612b9e612a83565b5b8135612baf848260208601612b48565b91505092915050565b60008060408385031215612bcf57612bce61271e565b5b6000612bdd8582860161296b565b925050602083013567ffffffffffffffff811115612bfe57612bfd612723565b5b612c0a85828601612b8a565b9150509250929050565b600080600080600060a08688031215612c3057612c2f61271e565b5b6000612c3e888289016128b6565b9550506020612c4f8882890161296b565b945050604086013567ffffffffffffffff811115612c7057612c6f612723565b5b612c7c88828901612b8a565b9350506060612c8d888289016128b6565b925050608086013567ffffffffffffffff811115612cae57612cad612723565b5b612cba88828901612b8a565b9150509295509295909350565b6000819050919050565b6000612cec612ce7612ce2846128f8565b612cc7565b6128f8565b9050919050565b6000612cfe82612cd1565b9050919050565b6000612d1082612cf3565b9050919050565b612d2081612d05565b82525050565b6000602082019050612d3b6000830184612d17565b92915050565b600060208284031215612d5757612d5661271e565b5b6000612d658482850161296b565b91505092915050565b6000602082019050612d8360008301846129c0565b92915050565b612d92816127ad565b8114612d9d57600080fd5b50565b600081359050612daf81612d89565b92915050565b60008060408385031215612dcc57612dcb61271e565b5b6000612dda8582860161296b565b9250506020612deb85828601612da0565b9150509250929050565b600067ffffffffffffffff821115612e1057612e0f612a8d565b5b612e1982612829565b9050602081019050919050565b6000612e39612e3484612df5565b612aed565b905082815260208101848484011115612e5557612e54612a88565b5b612e60848285612b39565b509392505050565b600082601f830112612e7d57612e7c612a83565b5b8135612e8d848260208601612e26565b91505092915050565b60008060008060808587031215612eb057612eaf61271e565b5b6000612ebe8782880161296b565b9450506020612ecf8782880161296b565b9350506040612ee0878288016128b6565b925050606085013567ffffffffffffffff811115612f0157612f00612723565b5b612f0d87828801612e68565b91505092959194509250565b60008060408385031215612f3057612f2f61271e565b5b6000612f3e8582860161296b565b9250506020612f4f8582860161296b565b9150509250929050565b6000608082019050612f6e600083018761292a565b8181036020830152612f80818661283a565b9050612f8f60408301856129c0565b8181036060830152612fa1818461283a565b905095945050505050565b7f4e487b7100000000000000000000000000000000000000000000000000000000600052602260045260246000fd5b60006002820490506001821680612ff357607f821691505b60208210810361300657613005612fac565b5b50919050565b6000606082019050613021600083018661292a565b61302e60208301856129c0565b61303b604083018461292a565b949350505050565b7f4e487b7100000000000000000000000000000000000000000000000000000000600052601160045260246000fd5b600061307d82612895565b91507fffffffffffffffffffffffffffffffffffffffffffffffffffffffffffffffff82036130af576130ae613043565b5b600182019050919050565b60008190508160005260206000209050919050565b60006020601f8301049050919050565b600082821b905092915050565b60006008830261311c7fffffffffffffffffffffffffffffffffffffffffffffffffffffffffffffffff826130df565b61312686836130df565b95508019841693508086168417925050509392505050565b600061315961315461314f84612895565b612cc7565b612895565b9050919050565b6000819050919050565b6131738361313e565b61318761317f82613160565b8484546130ec565b825550505050565b600090565b61319c61318f565b6131a781848461316a565b505050565b5b818110156131cb576131c0600082613194565b6001810190506131ad565b5050565b601f821115613210576131e1816130ba565b6131ea846130cf565b810160208510156131f9578190505b61320d613205856130cf565b8301826131ac565b50505b505050565b600082821c905092915050565b600061323360001984600802613215565b1980831691505092915050565b600061324c8383613222565b9150826002028217905092915050565b613265826127e3565b67ffffffffffffffff81111561327e5761327d612a8d565b5b6132888254612fdb565b6132938282856131cf565b600060209050601f8311600181146132c657600084156132b4578287015190505b6132be8582613240565b865550613326565b601f1984166132d4866130ba565b60005b828110156132fc578489015182556001820191506020850194506020810190506132d7565b868310156133195784890151613315601f891682613222565b8355505b6001600288020188555050505b505050505050565b7f4f6e6c792074686520676f7665726e6d656e742063616e2063616c6c2074686960008201527f732066756e6374696f6e00000000000000000000000000000000000000000000602082015250565b600061338a602a836127ee565b91506133958261332e565b604082019050919050565b600060208201905081810360008301526133b98161337d565b9050919050565b6000815190506133cf81612d89565b92915050565b6000602082840312156133eb576133ea61271e565b5b60006133f9848285016133c0565b91505092915050565b7f596f75206e65656420746f206265206120726567697374657265642075736572600082015250565b60006134386020836127ee565b915061344382613402565b602082019050919050565b600060208201905081810360008301526134678161342b565b9050919050565b7f4c616e64207469746c65206e6f74207265676973746572656400000000000000600082015250565b60006134a46019836127ee565b91506134af8261346e565b602082019050919050565b600060208201905081810360008301526134d381613497565b9050919050565b7f41726561206d7573742062652067726561746572207468616e20300000000000600082015250565b6000613510601b836127ee565b915061351b826134da565b602082019050919050565b6000602082019050818103600083015261353f81613503565b9050919050565b60006060820190508181036000830152613560818661283a565b905061356f60208301856129c0565b8181036040830152613581818461283a565b9050949350505050565b7f546f6b656e20646f6573206e6f74206578697374000000000000000000000000600082015250565b60006135c16014836127ee565b91506135cc8261358b565b602082019050919050565b600060208201905081810360008301526135f0816135b4565b9050919050565b7f4c616e64207469746c6520616c72656164792072656769737465726564000000600082015250565b600061362d601d836127ee565b9150613638826135f7565b602082019050919050565b6000602082019050818103600083015261365c81613620565b9050919050565b600081905092915050565b6000613679826127e3565b6136838185613663565b93506136938185602086016127ff565b80840191505092915050565b60006136ab828561366e565b91506136b7828461366e565b91508190509392505050565b600081519050919050565b600082825260208201905092915050565b60006136ea826136c3565b6136f481856136ce565b93506137048185602086016127ff565b61370d81612829565b840191505092915050565b600060808201905061372d600083018761292a565b61373a602083018661292a565b61374760408301856129c0565b818103606083015261375981846136df565b905095945050505050565b60008151905061377381612754565b92915050565b60006020828403121561378f5761378e61271e565b5b600061379d84828501613764565b91505092915050565b7f4e487b7100000000000000000000000000000000000000000000000000000000600052601260045260246000fd5b60006040820190506137ea600083018561292a565b6137f760208301846129c0565b939250505056fea2646970667358221220667f598abb5612a4fbd3620339c60b8a83b20e57d783e01d78a9dd120341fb3864736f6c634300081b0033",
  "linkReferences": {},
  "deployedLinkReferences": {}
}